:020000040800F2
:10000000801800209D01000851390008351F0008A4
:1000100065360008A5080008C75600080000000063
:100020000000000000000000000000006144000823
:10003000091A000800000000E13B0008B5010008B3
:10004000B7010008B7010008B7010008B7010008B0
:10005000B7010008B7010008B70100080D1A000831
:10006000B7010008B7010008B7010008B701000890
:10007000B7010008B7010008B7010008B701000880
:10008000B7010008B7010008B7010008B701000870
:100090009D090008B7010008B7010008B701000872
:1000A000B7010008B7010008B7010008B701000850
:1000B00069480008B7010008B7010008B701000847
:1000C000B7010008B7010008B7010008B701000830
:1000D000B7010008254F0008A15000085952000838
:1000E000B7010008B7010008B7010008B701000810
:1000F000B7010008B7010008B7010008B701000800
:10010000B7010008B7010008B7010008B7010008EF
:10011000B7010008B7010008D9480008B701000876
:10012000B7010008B7010008B7010008B7010008CF
:10013000B7010008B7010008B7010008B7010008BF
:10014000150F0008B7010008B7010008B701000843
:10015000B7010008B7010008B70100089153000873
:10016000B7010008B7010008B7010008B70100088F
:10017000B7010008B7010008B7010008B70100087F
:10018000B7010008B7010008DFF80CD000F024FB2D
:1001900000480047F16300088018002006488047A7
:1001A00006480047FEE7FEE7FEE7FEE7FEE7FEE75C
:1001B000FEE7FEE7FEE7FEE7C54700088901000805
:1001C000002800DA4042704740EA01039B0703D051
:1001D00009E008C9121F08C0042AFAD203E011F886
:1001E000013B00F8013B521EF9D270472DE9FE4F4A
:1001F000804681EA0300C00F0C46009021F00041C8
:1002000023F00045B8EB0200A94105D24046214643
:1002100090461C460B46024623F00040104347D050
:10022000270DC7F30A00C3F30A510290401A019048
:1002300040286BDAC3F3130040F4801B0098924609
:1002400020B10023D2EB030A63EB0B0B0198594654
:10025000C0F14002504600F0A9F906460D4650464E
:100260005946019A00F0C1F910EB080061410024E1
:1002700087EA115284EAE7731A4340D0009A62B3C6
:10028000019A012A4FEA075215DC001B61EB0201BB
:100290004FF0004202EA0752CDE90042001C41F54E
:1002A000801132462B4600F0F8F903B0BDE8F08F1C
:1002B00040462146F9E7001B61EB0201001C41F5B5
:1002C000801300185B412018A2F5001747EB0301CB
:1002D00040EAD570B6196D4111E06D084FEA360657
:1002E00045EAC0754FEA0752001B61EB0201001C92
:1002F00041F5801149084FEA30000019514132465A
:100300002B4603B0BDE8F04F00F0B8B900980122C9
:1003100040000023D0EB020263EBE073009821461B
:100320004FEAE074B8EB000061EB0401E9E783F009
:1003300000435BE781F0004158E72DE9FE4F81EA79
:10034000030404F0004421F0004100944FF0000B3E
:1003500023F0004350EA01045ED052EA03045BD06C
:10036000C3F30A54C1F30A552C44A4F2F3340194A4
:10037000A0FB0254C1F3130141F48011C3F3130332
:1003800043F4801301FB024400FB034E840A970AE6
:1003900044EA815447EA8357A4FB076802958D0A13
:1003A00005FB07854FEA932C04FB0C542705029D9F
:1003B0004FEA065847EA1637B5EB08056EEB070C0F
:1003C000870E920E47EA811742EA8312A7FB0201C9
:1003D000B6EB0B0164EB00042B0D43EA0C335E1803
:1003E00044EB1C50DA465146E7FB0201C5F3130407
:1003F0004FEA0B3343EA14534FEA0432019C43EAB9
:100400000603A4F10C040294009CCDE900B400F0B2
:1004100044F903B0BDE8F08F00200146F9E72DE96B
:10042000F04D81EA030404F0004B21F0004514462E
:100430004FF0000A23F0004150EA050220D054EAB0
:1004400001021DD0C5F30A570246C5F31303C1F3D9
:100450001300C1F30A5640F4801543F48013A7EB50
:100460000608101BD64608F2FD3873EB050002D3D0
:1004700008F1010801E092185B41B8F1000F03DABE
:1004800000200146BDE8F08D00204FF480110646A3
:1004900084460EE0171B73EB050705D3121B63EBB5
:1004A000050306434CEA010C49084FEA3000921854
:1004B0005B4150EA0107EDD152EA030012D082EA13
:1004C000040083EA0501084305D0101BAB4106D2A6
:1004D0000122002306E000224FF0004302E06FF00B
:1004E000010253101AEB06004CEB085110EB0A0006
:1004F00041EB0B01BDE8F04D00F0C0B80EB5C10FE7
:1005000080EAE0700844CA07002140F233438DE8D6
:100510000E000A460B4600F0C0F803B000BD00F024
:10052000004230F000400AD0C10D01F56071C0F307
:10053000160042EA0151C2084007114370470020EB
:100540000146704730B5041E71F1000404DB4FF022
:100550000044404264EB0101141E73F1000405DB0A
:100560001C464FF00043524263EB0403994208BF1C
:10057000904230BD01F0004330B421F0004150EA18
:10058000010206D00A0DA2F56072C1F31301002A20
:1005900002DC30BC00207047440F44EAC104C100B3
:1005A000E01830BC00EBC25000F031B8202A04DB68
:1005B000203A00FA02F1002070479140C2F1200376
:1005C00020FA03F3194390407047202A04DB203AB5
:1005D00021FA02F00021704721FA02F3D040C2F163
:1005E00020029140084319467047202A06DBCB17AA
:1005F000203A41FA02F043EAE07306E041FA02F3DE
:10060000D040C2F1200291400843194670470029AA
:10061000A8BF7047401C490008BF20F00100704788
:1006200010B4B0FA80FC00FA0CF050EA010404BFE8
:1006300010BC704749B1CCF1200421FA04F411FA3E
:100640000CF118BF012121430843A3EB0C01CB1D82
:100650004FEA00614FEA102042BF002010BC7047F3
:1006600000EBC35010440029A4BF10BC7047401CCD
:10067000490008BF20F0010010BC704710B5141EDF
:1006800073F1000408DA401C41F1000192185B414B
:100690001A4301D120F0010010BD2DE9F04D924622
:1006A0009B4611B1B1FA81F202E0B0FA80F2203239
:1006B0009046FFF77BFF04460F4640EA0A0041EAF6
:1006C0000B0153465A46084313D0114653EA010022
:1006D00019D0C8F140025046FFF777FF05460E4695
:1006E000504659464246FFF761FF084305D00120B6
:1006F00004E020463946BDE8F08D0020054346EA77
:10070000E0762C4337430A986305E40AA0EB08001F
:100710000022FD0A44EA47540A3002D5002001466F
:10072000E9E7010510196941DDE90845001969414A
:10073000BDE8F04DA2E72DE9F04D00231A461B1A43
:100740008A4103DB00200146BDE8F08DC1F30A5267
:10075000C1F3130141F480154FF0000BD10702D112
:1007600000186D41521E0027044640F2FF11384622
:1007700001EB620A3E468046024600204FF480119B
:10078000FFF723FFC2197141BB1846EB0100B4EB20
:10079000030C75EB000C04D3E41A65EB0005174657
:1007A0000E46241908F101006D4180463428E3DD2E
:1007B000F91946EB0600091BA84103D24FF0FF329E
:1007C000134601E0002213461BEB070046EB0A51DB
:1007D000BDE8F04DFFF752BF064C074D06E0E0685C
:1007E00040F0010394E8070098471034AC42F6D378
:1007F000FFF7CEFC386E0008586E000870B58C18F4
:1008000010F8015B15F0070301D110F8013B2A1124
:1008100006D110F8012B03E010F8016B01F8016B11
:100820005B1EF9D12B0705D40023521E0DD401F80D
:10083000013BFAE710F8013BCB1A921C03E013F8D6
:10084000015B01F8015B521EF9D5A142D8D300200B
:1008500070BD10B54FF4A06003F0B8F803F040F994
:1008600002F058FB03F0E2FF03F050FD02F084FDBC
:1008700002F0C0FD04F008F800F016F800F0D0FA1D
:1008800004F0B0FA04F092FC04F0B4FB642005F02C
:1008900037FD01F039F902F0ADFD05F091FD04F0EE
:1008A00021FD10BD00BFFEE700B58BB0012108207F
:1008B00003F056FA0121480603F062FA032009907A
:1008C00002208DF8280000208DF82A0003208DF8E2
:1008D000290001208DF82B0009A92E4801F052F9BA
:1008E000092201212B4801F095F90922002129480C
:1008F00001F090F900208DF81E008DF81F008DF892
:10090000200001208DF8210000208DF822008DF8B4
:1009100023008DF81A008DF81B0005208DF81C00AF
:1009200006208DF81D000320ADF8180006A91A480E
:1009300000F001FD00208DF812008DF81300012059
:100940008DF814000020ADF80800ADF80A00ADF8ED
:100950000C00ADF80E00ADF8100001208DF8150068
:1009600002A800F0CBFB012202210B4800F0DAFCC8
:1009700014208DF8040001208DF8050000208DF86A
:10098000060001208DF8070001A802F0E3FF0BB07C
:1009900000BD0000000C02400064004000B585B0BE
:1009A0000221FA4800F02EFC00287DD00221F748F1
:1009B00000F050FB6A460021F44800F046FDF4497F
:1009C000009808609DF80B00F24908709DF80C0033
:1009D000F14908709DF80D00F04908709DF80E006F
:1009E000EF4908709DF80F00EE4908709DF810005F
:1009F000ED4908709DF81100EC4908709DF812004F
:100A0000EB490870E4480078E249097840EA01209F
:100A1000E8490860E2480078E049097840EA0120A6
:100A2000E54908800846008800F40040E349086072
:100A300008460068C0130860DF480088C0F30C0057
:100A4000DF490880DC4800884FF6FF71081ADD494D
:100A50000880D5480078D349097840EA0120C0F3DE
:100A60000E00D94908800846008800EE100AB8EE4A
:100A7000400AD64880ED000AC5480068B0F5007FFE
:100A800010D9C3480068B0F5017F0BD8CF4890ED6E
:100A9000000ABF480068A0F20120CD4901EB8000A8
:100AA00080ED000ABA4800E06EE1006840F20521DE
:100AB000884229D1BF4890ED000AB8EEC00AC54867
:100AC00080ED000A90ED000ADFEDC30A20EE200A57
:100AD000DFEDC20A80EE201AC14880ED001AB54849
:100AE000006840F6FF71884204DB8021BD4801F0B8
:100AF000BDF809E0AF48006840F6FF71884203DAAC
:100B00008021B84801F0B4F8A148006840F20621FD
:100B100088422BD1A74890ED000AB8EEC00AB2482F
:100B200080ED000A90ED000ADFEDAB0A20EE200A0E
:100B3000DFEDAA0A80EE201AAC4880ED001A9D482D
:100B4000006840F29221884205DB4FF48041A848BA
:100B500001F08CF80AE09748006840F29221884240
:100B600004DA4FF48041A24801F082F88848006816
:100B700040F2012188421BD19148008800EE100A02
:100B8000B8EE400A9B4880ED000A8C4800680128B6
:100B90000ED18C48008800EE100AB8EE400A954845
:100BA00080ED000A90ED000AB1EE400A80ED000AE7
:100BB0007748006840F2022188421BD180480088B3
:100BC00000EE100AB8EE400A8B4880ED000A7B4820
:100BD000006801280ED17B48008800EE100AB8EEAC
:100BE000400A854880ED000A90ED000AB1EE400A07
:100BF00080ED000A6648006840F2032188421BD15C
:100C00006F48008800EE100AB8EE400A7B4880ED7D
:100C1000000A6A48006801280ED16A48008800EE80
:100C2000100AB8EE400A754880ED000A90ED000AFF
:100C3000B1EE400A80ED000A55480068B0F5017F2A
:100C40001BD15F48008800EE100AB8EE400A6C48DD
:100C500080ED000A5948006801280ED159480088E3
:100C600000EE100AB8EE400A654880ED000A90EDEB
:100C7000000AB1EE400A80ED000A4548006840F2E3
:100C8000072188421BD14E48008800EE100AB8EEBA
:100C9000400A5C4880ED000A4848006801280ED1EF
:100CA0004848008800EE100AB8EE400A554880ED2A
:100CB000000A90ED000AB1EE400A80ED000A3448C7
:100CC0000068B0F5027F5FD13D48008800EE100A51
:100CD000B8EE400A4C4880ED000A38480068012808
:100CE0000ED13848008800EE100AB8EE400A464897
:100CF00080ED000A90ED000AB1EE400A80ED000A96
:100D00002C4909684FF4B47201FB02F0C11700EBE3
:100D1000D141491300EE101AB8EEC00A3B4981EDEB
:100D2000000A3B48006830B941F288303949086010
:100D30000020394908601F48006836490968884220
:100D40000ADA3648006838B133480068401C324936
:100D50000860002031490860164800682D4909687C
:100D6000884206DD2D480068012802D001202B4969
:100D7000086029480068022806DD0020264908602E
:100D8000234908602549086005B000BD00640040A3
:100D90009000002088000020890000208A000020A8
:100DA0008B0000208C0000208D0000208E00002091
:100DB0008F00002098000020680000209400002090
:100DC00066000020640000208000002084000020D5
:100DD00080080020700000200000B443000000469E
:100DE00078000020001002406C00002074000020F9
:100DF00000140240A8000020AC000020B000002039
:100E0000B4000020BC000020C00000207C000020B6
:100E100024000020A40000209C000020A00000204E
:100E200000B58BB00121022002F09AFF0121880653
:100E300002F0A6FF4FF44050099002208DF82800E0
:100E400000208DF82A0003208DF8290001208DF85C
:100E50002B0009A92D4800F095FE09220D212B48F1
:100E600000F0D8FE09220C21284800F0D3FE002013
:100E70008DF81E008DF81F008DF8200001208DF8E0
:100E8000210000208DF822008DF823008DF81A0033
:100E90008DF81B0005208DF81C0006208DF81D0024
:100EA0000320ADF8180006A9194800F044FA0E20F6
:100EB0008DF8120000208DF8130001208DF8140029
:100EC0000020ADF80800ADF80A00ADF80C00ADF850
:100ED0000E00ADF8100001208DF8150002A800F0FA
:100EE0000DF9012202210A4800F01CFA40208DF879
:100EF000040002208DF8050001208DF806008DF811
:100F0000070001A802F026FD0BB000BD000402405E
:100F10000068004000B585B002213E4800F072F93B
:100F2000002874D002213B4800F094F86A46002162
:100F3000384800F08AFA3849009808609DF80B009C
:100F4000364908709DF80C00354908709DF80D0071
:100F5000344908709DF80E00334908709DF80F0061
:100F6000324908709DF81000314908709DF8110051
:100F7000304908709DF812002F4908702848007801
:100F80002649097840EA01202C4908602648007863
:100F90002449097840EA0120294908800846008848
:100FA00000F400402749086008460068C013086044
:100FB00023480088C0F30C0023490880204800889B
:100FC0004FF6FF71081A214908801348006840F263
:100FD000072188421BD11C48008800EE100AB8EE99
:100FE000400A1B4880ED000A1648006801280ED10F
:100FF0001648008800EE100AB8EE400A144880ED4A
:10100000000A90ED000AB1EE400A80ED000A05B03A
:1010100000BD000000680040CC00002088000020D7
:10102000890000208A0000208B0000208C00002016
:101030008D0000208E0000208F00002098000020EE
:10104000680000209400002066000020640000205A
:10105000D0000020B1F5007F3AD00FDC202928D045
:1010600006DC01291CD004291DD0082940D11DE02F
:10107000402921D0B1F5807F3AD126E0B1F5004F6B
:1010800031D006DCB1F5806F25D0B1F5006F2FD1DE
:1010900024E0B1F5803F12D0B1F5003F28D111E036
:1010A000154A826025E00822C26022E01022C26058
:1010B0001FE0082202611CE01022026119E00822F0
:1010C000426016E01022426013E00422426010E009
:1010D000042242600DE0042242600AE000228261A4
:1010E0000422426005E0002282610422426000E0A6
:1010F00000BF00BF704700000101010010B50021D2
:10110000837A012202FA03F13D4A126842F0010299
:101110003B4B1A603A4A1C3212688A43384B1C33E4
:101120001A60027BCAB9364A0C3212688A43344BC1
:101130000C331A604288C38842EA0343304A403283
:10114000847A42F834300288838842EA03432C4A86
:101150004032847A02EBC4025360027B012A19D127
:10116000274A0C3212680A43254B0C331A60428816
:10117000038842EA0343224A4032847A42F83430F8
:10118000C288838842EA03431D4A4032847A02EBD4
:10119000C4025360C27A3AB9194A121D12688A43CE
:1011A000174B1B1D1A6006E0154A121D12680A43F0
:1011B000134B1B1D1A60028932B9114A143212688E
:1011C0008A430F4B14331A600289012A06D10C4A54
:1011D000143212680A430A4B14331A60427B012A04
:1011E00006D1074A1C3212680A43054B1C331A60A9
:1011F000034A126822F00102014B1A6010BD000080
:101200000066004070B504460D460026606928401F
:10121000002871D0B5F5807F5CD010DC082D35D06A
:1012200006DC012D20D0022D24D0042D72D127E020
:10123000102D31D0202D35D0402D6BD138E0B5F5B3
:10124000004F60D009DCB5F5007F49D0B5F5806F5F
:101250004CD0B5F5006F5DD14FE0B5F5803F2DD096
:10126000B5F5003F56D12FE0A0682D4900F0F8F900
:10127000064651E0E068032100F0F2F906464BE033
:10128000E068082100F0ECF9064645E0E06810212E
:1012900000F0E6F906463FE02069032100F0E0F99E
:1012A000064639E02069082100F0DAF9064633E005
:1012B0002069102100F0D4F906462DE0606808216D
:1012C00000F0CEF9064627E06068102100F0C8F96A
:1012D000064621E0A069012100F0C2F906461BE0A4
:1012E000A069022100F0BCF9064615E0A0690421BE
:1012F00000F0B6F906460FE00FE0A069702100F09B
:10130000AFF9064608E06068042100F0A9F9064636
:1013100002E0FFE7002600BF00E00026304670BD77
:10132000010101001AB143690B43436102E04369C3
:101330008B434361704730B5024600200023146898
:1013400024F002041460146844F00104146000E006
:101350005B1C546804F001041CB94FF6FF74A342EF
:10136000F6D1546804F001040CB900206CE08C79CB
:10137000012C04D1146844F08004146003E0146864
:1013800024F080041460CC79012C04D1146844F05A
:101390004004146003E0146824F0400414600C7AE4
:1013A000012C04D1146844F02004146003E0146894
:1013B00024F0200414604C7A012C04D1146844F009
:1013C0001004146003E0146824F0100414608C7A94
:1013D000012C04D1146844F00804146003E014687C
:1013E00024F008041460CC7A012C04D1146844F071
:1013F0000404146003E0146824F0040414608C787E
:10140000A407CD7844EA05640D7944EA05444D7992
:1014100044EA05540D886D1E2C43D461146824F0F1
:1014200001041460002300E05B1C546804F0010414
:101430001CB14FF6FF74A342F6D1546804F00104C6
:101440000CB1002000E0012030BD10B500F5D873CC
:1014500003EB01131B6803F004031372137A53B9EF
:1014600000F5D87303EB01131B6840F2FF7404EA24
:101470005353136009E000F5D87303EB01131B68A5
:101480006FF0604404EAD303536000F5D87303EBB4
:1014900001131B6803F00203537200F5D87303EBCA
:1014A00001135B6803F00F03937200F5D87303EB2D
:1014B00001135B681B0AD37400F5D87303EB0113A7
:1014C0009B68D37200F5D87303EB01139B681C0A69
:1014D000147300F5D87303EB01139B681C0C547351
:1014E00000F5D87303EB01139B681B0E937300F593
:1014F000D87303EB0113DB68D37300F5D87303EBE8
:101500000113DB681C0A147400F5D87303EB011394
:10151000DB681C0C547400F5D87303EB0113DB6813
:101520001B0E937421B9C36843F02003C36003E02A
:10153000036943F02003036110BD10B5024600208B
:10154000936803F08063B3F1806F00D110E093687B
:1015500003F00063B3F1006F01D1012008E093684C
:1015600003F08053B3F1805F01D1022000E004203A
:10157000042874D002F5C07303EB00131B6803F05A
:10158000010402F5C07303EB00131C600B7A7BB9F6
:101590004B7A0C8843EA445302F5C07404EB001400
:1015A0002468234302F5C07404EB0014236010E0A8
:1015B0000B7A4C6843EAC4034C7A234302F5C074A7
:1015C00004EB00142468234302F5C07404EB0014F8
:1015D00023608B7A03F00F038B7202F5C07303EB69
:1015E00000135B6823F00F0402F5C07303EB0013D4
:1015F0005C6002F5C07303EB00135B688C7A2343D5
:1016000002F5C07404EB001463608B7B1C064B7BFB
:1016100044EA03440B7B44EA0323CC7A234302F5D8
:10162000C07404EB0014A3608B7C1C064B7C44EA62
:1016300003440B7C44EA0323CC7B234302F5C074B0
:1016400004EB0014E36002F5C07303EB00131B68A6
:1016500043F0010402F5C07303EB00131C6010BDDE
:101660000246002002EA01030BB1012000E0002045
:101670007047000018490A780978491C164B197000
:10168000164988540978552903D000211A4611704B
:101690007047114909780B2900DAF9E70F494978B1
:1016A000512902D0532910D107E00D490B4A921C51
:1016B00013680B6052684A6007E00A49074A921CA7
:1016C00013680B6052684A6000BF00BF0021024AE5
:1016D000117000BFDCE70000FC070020840D002033
:1016E000B4070020C407002021B1026842F00102C3
:1016F000026003E0026822F001020260704700000D
:10170000016821F0010101600021016041608160F8
:10171000C1600161212141614A49884204D13D21D2
:10172000484A103A91608CE046491831884205D108
:101730004FF47461434A103A916082E0414930317C
:10174000884205D14FF474113E4A103A916078E016
:101750003C494831884205D14FF07461394A103A0A
:1017600091606EE037496031884204D13649354A8C
:10177000103AD16065E033497831884204D1334969
:10178000304A103AD1605CE02E499031884204D151
:101790002F492C4A103AD16053E02A49A831884297
:1017A00005D14FF03D51274A103AD16049E029490F
:1017B000884204D13D21274A083A116041E0254979
:1017C0001831884205D14FF47461224A083A1160F9
:1017D00037E020493031884205D14FF474111D4A59
:1017E000083A11602DE01B494831884205D14FF07D
:1017F0007461184A083A116023E016496031884242
:1018000004D11149134A121F11601AE011497831AD
:10181000884204D10D490F4A121F116011E00D4991
:101820009031884204D10A490A4A121F116008E027
:101830000849A831884204D14FF03D51054A121F92
:1018400011607047106002403D000020400F0020F2
:1018500000003D201064024021B1026842F4802261
:10186000026003E0026822F480220260704722B125
:10187000036843F40023036003E0036823F40023B8
:101880000360016170470146486880B270470146B5
:1018900000200A6802F400220AB1012000E00020C2
:1018A0007047000010B500220268134B1A40CC6844
:1018B0000B6823434C6923438C692343CC6923433E
:1018C0000C6A23434C6A23438C6A23434C6B2343A7
:1018D0008C6B23431A430260426922F00702D1E96C
:1018E0000B3423431A4342610B6943604B688360A6
:1018F0008B68C36010BD00003F801CF000210160B8
:1019000041608160C160016141618161C1610162C9
:1019100041628162C162016341638163704700007B
:101920003449097859B9AA2846D13349334A12783B
:1019300001EB4211087001212E4A11703CE02D4943
:10194000097801290FD1AF2809D12B492B4A1278E8
:1019500001EB421148700221264A11702CE000214F
:10196000244A117028E023490978022909D1224923
:10197000224A127801EB4211887003211D4A11702E
:101980001AE01C490978032909D11B491B4A12781E
:1019900001EB4211C8700421164A11700CE016497F
:1019A000164A127801EB4211124A127888541149F2
:1019B0000978491C0F4A11700F49104A127801EB3F
:1019C0004211C978491D0B4A1278914211D1002168
:1019D000084A11700949097831B10021074A11708C
:1019E0000121074A117004E00121044A1170054ADF
:1019F00011707047170700204008002016070020CC
:101A000019070020180700207047000010B50220B9
:101A100000F01CF850B1022000F00CF8022000F099
:101A20000FF801200249087000F040F910BD0000D5
:101A3000540100200149086070470000143C014037
:101A40000149086070470000143C01400146002035
:101A50000022074B1B6803EA0102054B14331B6885
:101A60000B4013B10AB1012000E0002070470000D4
:101A7000003C0140002123498279002A3AD00A46DD
:101A8000126803689A430B461A600A1D12680368BD
:101A90009A430B1D1A60027911440A6803681A43BD
:101AA0000A60184A0832126803689A43154B0833D3
:101AB0001A601A1D126803689A43124B0C331A609D
:101AC0004279102A0ED11A1F126803681A430D4B6F
:101AD00008331A601A1D126803681A43094B0C3345
:101AE0001A600DE00749427911440A6803681A43F5
:101AF0000A6005E0027911440A6803689A430A60A3
:101B000070470000003C014047F6FF700149086043
:101B1000704700002404004010B5044600EE104A4F
:101B2000B8EEC00A134880ED000A134890ED000A91
:101B3000104880ED010A01F053FF0E4890ED0E0AA7
:101B4000DFED0E0AB4EEE00AF1EE10FA03DB9FEDD2
:101B50000B0A80ED0E0A074890ED0E0ADFED080A29
:101B6000B4EEE00AF1EE10FA03D89FED050A80ED1D
:101B70000E0A10BD9C050020C000002000007A4520
:101B800000007AC5F0B50A4600210023002400BFFA
:101B90003DE0012505FA01F3156805EA03049C42BE
:101BA00034D105684F000326BE40B5430560157962
:101BB0004E00B5400668354305601579012D02D009
:101BC0001579022D16D185684F000326BE40B54316
:101BD000856055794E00B540866835438560456817
:101BE00001268E40B5434560456896798E40B6B271
:101BF00035434560C5684F000326BE40B543C56008
:101C0000D5794E00B540C6683543C560491C1029DA
:101C1000BFD3F0BDF0B5002300244D07ED0E02FA4E
:101C200005F3CE1000F1200555F826504E07F70EAB
:101C30000F26BE40B543CF1000F1200646F82750CE
:101C4000CE1000F1200555F8265045EA0304CE10C9
:101C500000F1200545F82640F0BD0246002013693A
:101C60000B400BB1012000E000207047418370471A
:101C7000018370474FF6FF710160002101714171CE
:101C80008171C17170470000014800787047000001
:101C90005606002001460B2903D2034800EB8100C1
:101CA00070470020FCE70000CC060020334890ED90
:101CB000030A334880ED040A304890ED040AB1EE7F
:101CC000400A2F4880ED050A2C4890ED050A2C4863
:101CD00080ED060A2B4890ED000A2B4880ED000AA3
:101CE0002A4890ED000A274880ED000A90ED000A8E
:101CF0002548D0ED000A30EE600ADFED250AB4EE8B
:101D0000E00AF1EE10FA05DB22480068401E214986
:101D1000086013E01B4890ED000A1B48D0ED000A54
:101D200030EE600ADFED1C0AB4EEE00AF1EE10FAC4
:101D300004D818480068401C164908601548006817
:101D40004FF4B471484300EE100AB8EEC00A0D48D3
:101D5000D0ED000AB7EE001A01EE200A0F4880ED20
:101D6000000A0A4890ED010A0D4880ED000A074874
:101D700090ED020A0B4880ED000A7047B008002081
:101D8000B00900202C01002038010020E4080020C8
:101D90000000A543500100200000A5C3440100201D
:101DA000480100204C01002010B501700378047D2B
:101DB000021D1355037DD35C447D125D43EA82020C
:101DC0004270027D521C02F00F0282754378847DBE
:101DD000021D125D43EA02128270037D021DD35C74
:101DE000447D125D934205D10D4A1268521C0C4B82
:101DF0001A6002E000220A4B1A60094A1268282A77
:101E000003D3037D021DD25CC270027D4275027D48
:101E1000521C0275027D102A01D10022027510BDEC
:101E2000C40600200148007870470000F10500203A
:101E30004FF08040406A7047274890ED000AFBEE63
:101E4000030AB4EEE00AF1EE10FA04D8BBEE030A7E
:101E500080ED000A0DE0204890ED000AF3EE030A41
:101E6000B4EEE00AF1EE10FA03DBB3EE030A80ED04
:101E7000000A194890ED010A1848D0ED010A9FEDBB
:101E8000181A70EEC10AB4EEE00AF1EE10FA09D8A1
:101E900090ED010ADFED120A30EE600A0E4880ED87
:101EA000010A17E00C4890ED010A0C48D0ED010A38
:101EB0009FED0B1A70EE810AB4EEE00AF1EE10FA13
:101EC00008DB90ED010ADFED060A30EE200A024839
:101ED00080ED010A70470000BC0B0020A802002022
:101EE0000000704200B5F0EE405AB0EE603AF0EEFD
:101EF000413AB0EE614AF0EE424AB0EE625AB0EEBC
:101F0000641AF0EE630AB0EE650A01F06BFE00B2EF
:101F100006490880B0EE451AF0EE440AB0EE430AD6
:101F200003F0D4FB00B20249088000BD1C0700206A
:101F30001E07002000BFFEE700B52DED108B93B00B
:101F4000FE4890ED000AD0ED000A20EE200A8DED4B
:101F5000080A90ED000AFA48D0ED000A20EE200AA7
:101F6000B0EE40FAF54890ED000AF648D0ED000AD0
:101F700020EE200AF0EE40AAF04890ED000AF24868
:101F8000D0ED000A20EE200A8DED070AEC4890ED16
:101F9000000AD0ED000A20EE200AF0EE40FA90EDA3
:101FA000000AE848D0ED000A20EE200A8DED060A6E
:101FB000E34890ED000AE448D0ED000A20EE200A44
:101FC000B0EE40BADF4890ED000AD0ED000A20EEF6
:101FD000200AF0EE40BA90ED000ADB48D0ED000A8E
:101FE00020EE200A8DED050A90ED000AD0ED000AE2
:101FF00020EE200A8DED040AD44890ED030ADFEDAF
:10200000D40A20EE200ADFEDD30A80EE201AD2484F
:1020100080ED001ACD4890ED040ADFEDCD0A20EEE8
:10202000200ADFEDCC0A80EE201ACC4880ED001AA1
:10203000C64890ED050ADFEDC60A20EE200ADFED66
:10204000C50A80EE201AC64880ED001ABF4890ED00
:10205000000AC44880ED000ABC4890ED010AC2485D
:1020600080ED000AB94890ED020AC04880ED000AF0
:10207000B64890ED060ABE4880ED000AB34890EDE0
:10208000070ABC4880ED000AB04890ED080ABA483B
:1020900080ED000AFFF7CCFEB849086008460068EA
:1020A000B749096888420CD3B4480068B449096844
:1020B000401A00EE100AB8EE400ADFEDB20AC0EE98
:1020C000208AAE480068AE490860A648D0ED000AF4
:1020D00090ED001A60EE810AA34890ED001AD0ED51
:1020E000001A41EE210AA14890ED001AD0ED001A25
:1020F00041EE210AB0EE600A04F044F9B0EE408AE5
:10210000984890ED000A20EE080A80ED000A9648F3
:1021100090ED000A20EE080A80ED000A934890ED49
:10212000000A20EE080A80ED000A9148D0ED000A6E
:1021300090ED001A60EE810A8E4890ED001AD0ED05
:10214000001A41EE210A8C4890ED001AD0ED001AD9
:1021500041EE210AB0EE600A04F014F9B0EE408AB4
:10216000834890ED000A20EE080A80ED000A8148BD
:1021700090ED000A20EE080A80ED000A7E4890EDFE
:10218000000A20EE080A80ED000A794890ED000A66
:10219000F0EE000A60EE200AB6EE000A30EE6B1A8E
:1021A0009DED040A31EE400A20EE800A7148D0ED20
:1021B000000AB0EE001A60EE811ADDED060A9DED10
:1021C000071A70EEC10A01EEA00A6B48D0ED000AB2
:1021D000B0EE001A60EE810A3BEE2A1A00EE810A88
:1021E0008DED110A624890ED000AF0EE000A20EE33
:1021F000201A9DED060ADDED070A30EE200A21EED9
:10220000000A5C48D0ED000AB0EE001A20EE811AF8
:10221000F6EE000A70EEEF1ADDED040A71EEE00A48
:1022200001EE200A5448D0ED000AB0EE001A20EE6C
:10223000811ADDED050A70EECF0A01EE200A8DED60
:10224000100A4B4890ED000AF0EE000A20EE200A3A
:102250007BEE6A0A60EE200A464890ED000AB0EE76
:10226000001A20EE011A9DED050A70EE0F1AB0EE6D
:10227000600A01EE210A4048D0ED000AB0EE001AD3
:1022800060EE810AB6EE001A31EE6F1A31EE6B1A6B
:10229000B0EE409A00EE819A9DED110A60EE000AC0
:1022A0009DED100A40EE000A10EE901A0846FEF767
:1022B00036F9CDE900019DED000B03F0FBFE8DED3D
:1022C000020B9DED020B51EC100BFEF753F909EEDA
:1022D000900AB0EE49AA3BEE6A0AF0EE000A20EE40
:1022E000200A8DED0F0A9DED050A3FEE000AF0EE83
:1022F000000A20EE200A8DED0E0A9DED080A30EE50
:102300006F0A70EE6B0A9DED040A30EE800A8DEDC7
:102310000D0AB0EE000A69EE800AB6EE000A30EE51
:102320006B1A9DED040A31EE400A20EE800AB0EEF1
:102330004A9AF0EE000A69EE200A25E0F00000203B
:10234000F4000020F8000020FC000020B00800206D
:10235000DB0F49400000344300010020040100204D
:10236000080100200C0100201001002014010020B1
:10237000180100201C01002020010020280100205D
:10238000240100200024F4493BEE6A1A00EE810A81
:102390008DED0C0AB0EE000A29EE801A9DED060ABA
:1023A000DDED070A30EE600A21EE000AB0EE4A9A2F
:1023B000F0EE000A29EE201ADDED050A7FEE200A74
:1023C00001EE200A8DED0B0AB0EE000A29EE800A1C
:1023D0007AEE8B0A20EE200AB0EE4A9AF0EE000A5E
:1023E00069EE200AB6EE001A31EE6F1A31EE6B1A62
:1023F00000EE810A8DED0A0AAF48D0ED000A9DED8E
:102400000D0A60EE800AAD4890ED001A9DED0E0AAF
:1024100041EE400AAA4890ED001A9DED0A0A21EE0D
:10242000001AA848D0ED001A9DED0B0A01EEC01A63
:1024300030EE81CAA148D0ED000A9DED0F0A60EE92
:10244000800AA14890ED001A9DED0D0A41EE400A68
:102450009C4890ED001A9DED0C0A21EE001A9B4855
:10246000D0ED001A9DED0A0A01EEC01A70EE81CA85
:102470009548D0ED000A9DED0E0A60EE800A8E4868
:1024800090ED001A9DED0F0A41EE400A8F4890ED45
:10249000001A9DED0B0A21EE001A8948D0ED001AB2
:1024A0009DED0C0A01EEC01A30EE81DAB5EEC0CA1D
:1024B000F1EE10FA57D0F5EEC0CAF1EE10FA52D094
:1024C000B5EEC0DAF1EE10FA4DD09FED810A6CEE58
:1024D000000A804890ED000A00EEA80A80ED000A8C
:1024E0009FED7B0A6CEE800A7B4890ED000A00EEBF
:1024F000A80A80ED000A9FED760A6DEE000A774883
:1025000090ED000A00EEA80A80ED000A744890EDF4
:10251000000AF0EE000A00EE8C0A6E48D0ED000AC8
:1025200030EE200A6E4880ED000A6E4890ED000AF9
:10253000F0EE000A00EEAC0A6748D0ED000A30EE7B
:10254000200A684880ED000A674890ED000AF0EE26
:10255000000A00EE8D0A6148D0ED000A30EE200A34
:10256000614880ED000A614890ED000AB1EE400A32
:102570005B48D0ED000A20EE200A5D48D0ED000A4D
:10258000584890ED001A00EEC10A5A4890ED001A22
:102590005548D0ED001AF0EE400A41EE610A564867
:1025A00090ED000A00EEA80A8DED090A90ED000AF0
:1025B0004B48D0ED000A20EE200A4D48D0ED000A2D
:1025C000494890ED001A00EE810A4A48D0ED000A11
:1025D000444890ED001A00EEC10A4448D0ED000ACC
:1025E000F0EE60DA40EE28DA434890ED000A3D480C
:1025F000D0ED000A20EE200A3C48D0ED000A3A480F
:1026000090ED001A00EEC10A3A48D0ED000A3448B5
:1026100090ED001A00EE810A3548D0ED000AB0EEC8
:1026200060EA00EE28EA344890ED000A2E48D0ED2A
:10263000000A20EE200A2D48D0ED000A294890ED2E
:10264000001A00EE810A2A48D0ED000A244890EDD5
:10265000001A00EEC10A2748D0ED000AF0EE60EA49
:1026600040EE28EADDED090A60EEA00A4DEEAD0A63
:102670004EEE0E0A4EEEAE0AB0EE600A03F082FE97
:10268000B0EE408A9DED090A20EE080A1A4880ED56
:10269000000A2DEE880A154880ED000A2EEE080A81
:1026A000134880ED000A2EEE880A124880ED000AD9
:1026B00013B0BDEC108B00BD1001002014010020F0
:1026C0001C010020200100200C0100201801002026
:1026D0000AD7233CE4000020E8000020EC000020A2
:1026E000000100200401002008010020F400002067
:1026F000F8000020FC000020F00000201FB50E2292
:1027000069463B2000F0DAFE9DF801009DF80010BC
:1027100040EA012000B2214908809DF803009DF89D
:10272000021040EA012000B21C4948809DF80500D3
:102730009DF8041040EA012000B2184988809DF8F5
:1027400007009DF8061040EA012000B21349C88036
:102750009DF8090012490989401A9DF8081040EABD
:10276000012000B20D4908819DF80B000C494989F0
:10277000401A9DF80A1040EA012000B2074948813A
:102780009DF80D0006498989401A9DF80C1040EA11
:10279000012000B2014988811FBD0000F00800201F
:1027A0000409002010B504460C4800F021F8FFF79A
:1027B000C3FB0B4890ED000A84ED000A094890ED38
:1027C000000A84ED010A084890ED000A84ED020A2F
:1027D000064890ED000A84ED030A10BDB008002001
:1027E000F0000020F4000020F8000020FC00002091
:1027F00030B585B005460DF1120004A9031F03AAE8
:10280000CDE90010891F02A800F0A4FEBDF8080061
:1028100026490880BDF80A004880BDF80C00888071
:10282000BDF80E000881BDF810004881BDF8120007
:10283000888195ED060ABDEEC00A10EE100A00B2BE
:10284000C88195ED070ABDEEC00A10EE100A00B26D
:10285000088295ED080ABDEEC00A10EE100A00B21B
:10286000488200241DE0032C0BDA02A830F9140082
:1028700000EE100AB8EEC00A05EB840080ED000AF5
:102880000EE002A830F9140000EE100AB8EEC00AFB
:10289000DFED070A80EE201A05EB840080ED001AB8
:1028A000641C062CDFDB05B030BD00009C09002055
:1028B0003333034210B52DED0C8B04468748FFF7E8
:1028C00071FF864890ED020AF8EE000A20EE200A19
:1028D000D0ED020A20EE200AD0ED030AB0EE001A75
:1028E00060EE810A90ED031A00EEC10AF7EE000ACD
:1028F00030EE200A10EE101A0846FDF710FE41ECEB
:102900001C0B764890ED010AF0EE000A20EE200A3A
:10291000D0ED020A20EE200AD0ED000AB0EE001A37
:1029200060EE810A90ED031A00EE810A10EE101A93
:102930000846FDF7F4FD41EC1D0BB0EE4C1AF0EE2D
:102940006C1AB0EE4D0AF0EE6D0A03F0B1FAB0EE7B
:1029500040BAF0EE60BA51EC1B0B81F0004141EC43
:102960001A0B9FED5F0B53EC102BFDF7E6FC41ECCF
:10297000190B9FED5D0B53EC102BFDF750FD41EC57
:10298000180BFDF7F7FD00EE100A84ED000A53481E
:1029900090ED010AF8EE000A20EE200AD0ED030ABD
:1029A00020EE200AD0ED000AB0EE001A60EE810A97
:1029B00090ED021A00EE810A10EE101A0846FDF79B
:1029C000AEFD41EC1C0BB0EE4C0AF0EE6C0A02F0CE
:1029D00053FFB0EE40BAF0EE60BA51EC1B0B81F041
:1029E000004141EC1A0B9FED3E0B53EC102BFDF711
:1029F000A4FC41EC190B9FED3C0B53EC102BFDF7A5
:102A00000EFD41EC180BFDF7B5FD00EE100A84ED4C
:102A1000010A324890ED010AF8EE000A20EE200A81
:102A2000D0ED010A20EE200AD0ED020AB0EE001A25
:102A300060EE810A90ED021A00EEC10AF7EE000A7C
:102A400030EE200A10EE101A0846FDF768FD41EC42
:102A50001B0B224890ED020AF0EE000A20EE200A3D
:102A6000D0ED030A20EE200AD0ED000AB0EE001AE5
:102A700060EE810A90ED011A00EE810A10EE101A44
:102A80000846FDF74CFD41EC1C0BB0EE4B1AF0EE86
:102A90006B1AB0EE4C0AF0EE6C0A03F009FAB0EED5
:102AA00040AAF0EE60AA9FED0E0B53EC102B51ECF8
:102AB0001A0BFDF742FC41EC190B9FED0B0B53EC8D
:102AC000102BFDF7ACFC41EC180BFDF753FD00EEAD
:102AD000100A84ED020ABDEC0C8B10BDD408002056
:102AE000000000000080664000000060FB210940FB
:102AF00010B530216A2000F00FFD0A2003F000FC21
:102B00000D21242000F008FD0A2003F0F9FB0E211E
:102B1000282000F001FD0A2003F0F2FB8E21312075
:102B200000F0FAFC0A2003F0EBFB01210B2000F07F
:102B300075F8002000F055F8102801D0012010BDD4
:102B40000A2003F0DDFB00210A2000F067F80A20CC
:102B500000F047F808B10220F1E70A2003F0D0FBAB
:102B600000210B2000F05AF80B2000F03AF808B1D1
:102B70000320E4E70A2003F0C3FB2421412000F0F6
:102B80004DF8412000F02DF8242801D00420D6E78C
:102B90000A2003F0B5FBC021422000F03FF842209C
:102BA00000F01FF8C02801D00520C8E70A2003F074
:102BB000A7FB00212A2000F0AFFC0A2003F0A0FBB5
:102BC0000021342000F0A8FC0A2003F099FB062223
:102BD00003210E2000F000FD642003F091FB002093
:102BE000ADE770B504462146322000F095FC0A207E
:102BF00003F086FB8021342000F08EFC0A2003F0D5
:102C00007FFB352000F036FC05460021342000F023
:102C100083FC0A2003F074FB284670BD70B504469F
:102C20000D4600212A2000F077FC022003F068FB0B
:102C30002146292000F070FC022003F061FB2946A8
:102C4000642000F069FC022003F05AFB81212A2055
:102C500000F062FC0A2003F053FB70BD40B52DED7F
:102C6000048B002C45DA002D43DA94FBF5F6304650
:102C7000FDF744FC41EC190BB0EE490AF0EE690A8D
:102C800003F00EFAB0EE408AF0EE608A9FED860BFC
:102C900053EC102B51EC180BFDF754FC14D89FED9E
:102CA000840A844880ED000A9FED830A834880ED02
:102CB000000A9FED830A834880ED000A9FED820A97
:102CC000824880ED000AEBE09FED810A794880EDB3
:102CD000000A9FED800A794880ED000A9FED7E0A88
:102CE000784880ED000A9FED7D0A784880ED000A63
:102CF000D6E0002C45DA002D43DD94FBF5F6304696
:102D0000FDF7FCFB41EC190BB0EE490AF0EE690A45
:102D100003F0C6F9B0EE408AF0EE608A9FED620BD8
:102D200053EC102B51EC180BFDF70CFC14D89FED55
:102D30006C0A604880ED000A9FED5F0A5F4880EDF5
:102D4000000A9FED680A5F4880ED000A9FED660A61
:102D50005E4880ED000AA3E09FED610A554880EDD2
:102D6000000A9FED620A554880ED000A9FED600A57
:102D7000544880ED000A9FED5F0A544880ED000A38
:102D80008EE0002C45DD002D43DD94FBF5F630464A
:102D9000FDF7B4FB41EC190BB0EE490AF0EE690AFD
:102DA00003F07EF9B0EE408AF0EE608A9FED3E0BB4
:102DB00053EC102B51EC180BFDF7C4FB14D89FED0E
:102DC0004E0A3C4880ED000A9FED460A3B4880EDE4
:102DD000000A9FED390A3B4880ED000A9FED340A56
:102DE0003A4880ED000A5BE09FED440A314880EDEF
:102DF000000A9FED3F0A314880ED000A9FED3B0A33
:102E0000304880ED000A9FED3D0A304880ED000A11
:102E100046E0002C44DD002D42DA94FBF5F6304606
:102E2000FDF76CFB41EC190BB0EE490AF0EE690AB4
:102E300003F036F9B0EE408AF0EE608A9FED1A0B8F
:102E400053EC102B51EC180BFDF77CFB14D89FEDC5
:102E50002C0A184880ED000A9FED2A0A174880EDD9
:102E6000000A9FED150A174880ED000A9FED260A1B
:102E7000164880ED000A13E09FED210A0D4880ED11
:102E8000000A9FED150A0D4880ED000A9FED1F0A0C
:102E90000C4880ED000A9FED1E0A0C4880ED000AE8
:102EA000BDEC048B40BD0000000000000000F03FBE
:102EB0000AD7A3BBF0000020A8C64BBEF400002038
:102EC000BE9F7A3FF80000204ED111BCFC000020CC
:102ED0006F1203BC7B140EBFE17A543F6F1203BB29
:102EE0000AD7A33B355E7ABFA69B443C68910DBFD1
:102EF000E17A54BF99BB16BB52499D3A99BB163B28
:102F00000AD7233B355E7A3F6F12033C295C0FBF23
:102F1000BC74933B1CB50121202000F021FF01214E
:102F2000102000F01DFF0121402000F019FF0121B9
:102F3000802000F015FF8020009001208DF8040013
:102F400000208DF8060003208DF805006946204812
:102F5000FEF718FE1020009001208DF804000020DC
:102F60008DF8060003208DF8050069461948FEF724
:102F700009FE4FF48040009001208DF804000020ED
:102F80008DF8060003208DF8050069461248FEF70B
:102F9000F9FD4FF40050009002208DF8040000204D
:102FA0008DF8060003208DF8050069460B48FEF7F2
:102FB000E9FD4FF400510948FEF75AFE802104480C
:102FC000FEF756FE4FF480410348FEF751FE1CBD4C
:102FD00000100240001C0240001402400018024091
:102FE00000210160704700002DE9F04104460D46C4
:102FF00016461F4600EE104AB8EEC00A564880ED4D
:10300000000A564890ED000A534880ED010A00EE90
:10301000105AB8EEC00A524880ED000A514890EDAF
:10302000000A4F4880ED010A00EE106AB8EEC00AAF
:103030004D4880ED000A4D4890ED000A4A4880ED69
:10304000010A00EE107AB8EEC00A494880ED000A85
:10305000484890ED000A464880ED010A3E4800F0DD
:10306000BFFC3F4800F0BCFC3F4800F0B9FC4048C2
:1030700000F0B6FC384890ED0E0ADFED3F0AB4EEE2
:10308000E00AF1EE10FA03DB9FED3B0A80ED0E0A39
:10309000314890ED0E0ADFED390AB4EEE00AF1EEA8
:1030A00010FA03D89FED350A80ED0E0A2C4890EDFA
:1030B0000E0ADFED310AB4EEE00AF1EE10FA03DB9E
:1030C0009FED2D0A80ED0E0A254890ED0E0ADFEDEA
:1030D0002B0AB4EEE00AF1EE10FA03D89FED270AAE
:1030E00080ED0E0A204890ED0E0ADFED230AB4EEC3
:1030F000E00AF1EE10FA03DB9FED1F0A80ED0E0AE5
:10310000194890ED0E0ADFED1D0AB4EEE00AF1EE6B
:1031100010FA03D89FED190A80ED0E0A144890EDBD
:103120000E0ADFED150AB4EEE00AF1EE10FA03DB49
:103130009FED110A80ED0E0A0D4890ED0E0ADFEDAD
:10314000100AB4EEE00AF1EE10FA03D89FED0C0A73
:1031500080ED0E0ABDE8F081A4030020A800002045
:10316000F8030020AC0000204C040020B000002038
:10317000A0040020B400002000409C4500409CC5F5
:10318000005043C72DE9F04304460D46DDE90767CB
:1031900000200021012041E0DFF8D8C13CF8108078
:1031A000A0F1010CDFF8CC9129F81C8009F1160C74
:1031B0003CF81090A0F1010CDFF8B88108F1160876
:1031C00028F81C9008F1160C3CF81090A0F1010CA6
:1031D00008F1160828F81C9008F1160C3CF810901D
:1031E000A0F1010C08F1160828F81C9008F1160C43
:1031F0003CF81090A0F1010C08F1160828F81C907A
:1032000008F1160C3CF81090A0F1010C08F116081A
:1032100028F81C9000F1010C0CF0FF000A28BBDB21
:10322000DFF850C1ACF81240ACF82850ACF83E20A2
:10323000ACF85430ACF86A60ACF88070002008E05C
:10324000DFF830C13CF910C0614400F1010C0CF012
:10325000FF000A28F4DB4FF00A0C91FBFCFC0FFA8C
:103260008CFCDFF81081A8F814C0002100200AE0CF
:10327000DFF800C10CF1160C3CF910C0614400F1FC
:10328000010C0CF0FF000A28F2DB4FF00A0C91FB56
:10329000FCFC0FFA8CF8DFF8DCC0ACF82A800021C7
:1032A00000200AE0DFF8CCC00CF12C0C3CF910C077
:1032B000614400F1010C0CF0FF000A28F2DB4FF032
:1032C0000A0C91FBFCFC0FFA8CF8DFF8A8C0ACF8F4
:1032D0004080002100200AE0DFF898C00CF1420C89
:1032E0003CF910C0614400F1010C0CF0FF000A2809
:1032F000F2DB4FF00A0C91FBFCFC0FFA8CF8DFF8C4
:1033000074C0ACF85680002100200AE0DFF864C0E9
:103310000CF1580C3CF910C0614400F1010C0CF0A8
:10332000FF000A28F2DB4FF00A0C91FBFCFC0FFABD
:103330008CF8DFF840C0ACF86C80002100200AE077
:10334000DFF830C00CF16E0C3CF910C0614400F1A4
:10335000010C0CF0FF000A28F2DB4FF00A0C91FB85
:10336000FCFC0FFA8CF8DFF80CC0ACF88280BDE8EA
:10337000F08300001809002010B588B040200690A6
:1033800001208DF81C0000208DF81E008DF81F0014
:1033900003208DF81D0006A91348FEF7F3FBFFF785
:1033A000A7FB0024182211496846FCF70DFF642092
:1033B00002F0A6FF752000F05DF80D49087000BF0F
:1033C0000CE06A4602EB440251781DF8140000F04C
:1033D000A3F8012002F094FF601CC4B20C2CF0DBB7
:1033E000002008B010BD0000001402402C6D000841
:1033F0005501002000B585B00121880300F0E0FCF4
:103400000121102000F0ACFC0220039000208DF878
:1034100010008DF8120001208DF8130002208DF8A5
:10342000110003A91248FEF7ADFB0121042001F0B1
:1034300019F80220009000208DF804000C208DF86F
:10344000050001208DF806006846FEF713FB0720F3
:103450008DF8080002208DF8090000208DF80A0080
:1034600001208DF80B0002A800F074FA05B000BD31
:103470000010024010B5044640210D48FEF7F6FB4F
:1034800044F080000B4908700846007800F094FF73
:10349000094908700748007800F08EFF0649087057
:1034A00040210348FEF7E4FB0348007810BD00000C
:1034B0000014024058010020570100202DE9F0417E
:1034C00005460E461746002440211048FEF7CEFB65
:1034D00045F080000E490870084600780D490870D4
:1034E0000B48007800F068FF00BF05E00949085D5F
:1034F00000F062FF3055641CBC42F7DB40210348FA
:10350000FEF7B6FB0020BDE8F08100000014024089
:10351000590100205A01002070B505460C46402193
:103520000A48FEF7A3FB05F07F000949087008462A
:10353000007800F041FF06480470007800F03CFF7E
:1035400040210248FEF794FB002070BD00140240A9
:10355000560100202DE9FC4704460D4616461F463D
:10356000DDE90A89002019490870FFF7C7F81848F3
:10357000B0F90C001649B1F90A10DFF854C0CDE9D2
:103580000010BCF90830BCF90420BCF90210BCF9E9
:103590000000FFF7F7FD0F48808A20800D48408D1E
:1035A00028800C48B0F8400030800A48B0F8560037
:1035B00038800848B0F86C00A8F800000548B0F85A
:1035C0008200A9F80000BDE8FC870000540100203B
:1035D000F00800201809002070B504460E46154674
:1035E00021462820FFF798FF022002F089FE0A21D9
:1035F0002920FFF791FF022002F082FE01216420C2
:10360000FFF78AFF022002F07BFE44F080012520B4
:10361000FFF782FF022002F073FE31462620FFF7FB
:103620007BFF022002F06CFE03213420FFF774FFC1
:10363000022002F065FE03216720FFF76DFF0220E4
:1036400002F05EFE81212A20FFF766FF062002F0CD
:1036500057FE45F080012720FFF75EFF072002F0AC
:103660004FFE70BD00BFFEE770B504460D46FEF785
:10367000D9FB002878D0287800F0100040B14FF432
:103680002570664908804FF448706549088007E056
:103690004FF4FA70614908804FF42F706049088038
:1036A000287800F0010090B15E48016988475B48C6
:1036B000008800EE900AF8EE600A20EE200ABDEEC7
:1036C000C00A10EE100A00B2574908801AE02878A4
:1036D00000F0020098B15348016988474F480088BC
:1036E000404200EE900AF8EEE00A20EE200ABDEE1D
:1036F000C00A10EE100A00B24B49088002E0002018
:1037000049490880287800F0040098B147480169C9
:10371000884743480088404200EE900AF8EEE00AED
:1037200020EE200ABDEEC00A10EE100A00B23E499B
:10373000488019E0287800F0080090B13B48016902
:1037400088473748008800EE900AF8EE600A20EEBD
:10375000200ABDEEC00A10EE100A00B232494880BD
:1037600002E0002030494880FEF75CFB02283CD193
:10377000B4F9000010F1960F03DC6FF09500208083
:1037800005E0B4F90000962801DB96202080B4F90A
:10379000020010F1960F03DC6FF09500608005E0E9
:1037A000B4F90200962801DB96206080204890ED55
:1037B000000AB4F9020000EE900AF8EEE00A9FED6C
:1037C0001D1A00EEC10A1A4880ED000A90ED010AA8
:1037D000B4F9000000EE900AF8EEE00A9FED151A29
:1037E00000EE810A124880ED010AB4F9020000EEF1
:1037F000100AB8EEC00A0E4880ED040AB4F90000C1
:1038000000EE100AB8EEC00A094880ED050AFEF77E
:1038100013FB204600F010F870BD0000C806002021
:10382000CA060020A00600204C0600207C060020CE
:10383000BC0B0020CDCCCC3C70B5044600253F48E5
:10384000007820B1012812D0022873D14FE0E0792E
:1038500060B9607A012809D1002000F037FE3848AD
:1038600081698847012035490870002562E0607A47
:10387000012802D1681C05B200E00025322D0FDDC1
:1038800000202E4908704FF47A702E490860091DF7
:1038900008602B4881698847002000F017FE25E06A
:1038A000274801698847DFED280A9FED281A41EE75
:1038B000000ABCEEE00A10EE100A22490860204817
:1038C00001698847DFED200A9FED201A41EE000ACA
:1038D000BCEEE00A10EE100A1A49091D08601848EB
:1038E000016A884710B102201449087022E0607A0A
:1038F000012802D1681C05B200E00025322D0FDD41
:1039000000200E4908704FF47A700E490860091DB6
:1039100008600B4881698847002000F0D7FD08E067
:10392000207A012802D100F0D1FD02E0002000F051
:10393000CDFD00BF00BF607AE07170BD540600206D
:1039400058060020340C004000007A440000164461
:103950007047000070B5002100230F22C4781CB30B
:10396000174C246804F4E064C4F5E064C4F3072150
:10397000C1F10404E3B20A4144789C40E1B2847886
:10398000144021430C07210E0E4C05786155047834
:1039900004F01F050124AC4005786D11AD0005F160
:1039A000E025C5F8004109E0047804F01F05012472
:1039B000AC40054D0678761145F8264070BD0000F4
:1039C0000CED00E000E400E080E100E0024901438A
:1039D000024A1160704700000000FA050CED00E09B
:1039E00090ED030A80ED020A90ED000AD0ED010A85
:1039F00030EE600A80ED030A90ED040AD0ED030A70
:103A000030EE200A80ED040A90ED060AD0ED0C0A93
:103A1000F1EE600AB4EEE00AF1EE10FA06D890ED8D
:103A20000C0AB1EE400A80ED060A0CE090ED060AA1
:103A3000D0ED0C0AB4EEE00AF1EE10FA03DB90EDE3
:103A40000C0A80ED060A90ED050AD0ED030A20EE7F
:103A5000200AD0ED060A90ED041A00EE810AD0ED9E
:103A6000030A90ED021A70EEC10A90ED071A01EEFA
:103A7000200A80ED0E0A90ED0E0AD0ED0F0AF1EE4D
:103A8000600AB4EEE00AF1EE10FA06D890ED0F0AE3
:103A9000B1EE400A80ED0E0A0CE090ED0E0AD0ED7A
:103AA0000F0AB4EEE00AF1EE10FA03DB90ED0F0A14
:103AB00080ED0E0A704700009FED080A80ED020AB3
:103AC0009FED060A80ED030A9FED040A80ED040ACB
:103AD0009FED020A80ED0E0A704700000000000012
:103AE00000B58BB00121084600F03AF90121082009
:103AF00000F046F90F20099002208DF828000320DD
:103B00008DF8290009A93448FEF73CF8022200216B
:103B10003148FEF77FF8022201212F48FEF77AF89C
:103B2000022211462C48FEF775F8022203212A488A
:103B3000FEF770F85320ADF818000020ADF81A0019
:103B400044F6206007900020ADF8200006A9234825
:103B500001F006F97020ADF804000120ADF8060070
:103B60000020ADF808004FF47A7003900220ADF801
:103B700010000020ADF81200ADF814004FF4807072
:103B8000ADF8160001A9154800F09EFF01A91348E1
:103B900000F0E2FF01A9114801F03EF801A90F4829
:103BA00001F094F808210D4800F0CCFF08210B48E3
:103BB00001F024F80821094801F07EF8082107489F
:103BC00001F0C0F80121054800F046FF012103483B
:103BD00000F054FF0BB000BD00000240000C00409C
:103BE0007047000071EE401A4C4991ED002A71EEC9
:103BF000821AC1ED001AD1ED001A9FED492AF4EEA8
:103C0000C21AF1EE10FA04DDDFED451AC1ED001A1B
:103C10000DE04249D1ED001A9FED422AF4EEC21A9E
:103C2000F1EE10FA03D2DFED3F1AC1ED001A3E4962
:103C3000D1ED001A71EE611A3C49C1ED001A71EE26
:103C4000401A3B4991ED002AB1EE422A61EE821AF8
:103C5000384991ED002A3149D1ED002A42EE221A6D
:103C6000354991ED002A3149D1ED002A42EE221A60
:103C70003249C1ED001A2C4981ED001A2F49D1EDCE
:103C8000001AF1EE611AB1EE022A40EE821A2C49B6
:103C900091ED002A61EE821A2A49C1ED001A2A49E3
:103CA000D1ED001A70EEE11A284991ED002A61EE7B
:103CB000821A2749C1ED001A2249D1ED001A244980
:103CC00091ED002A71EE821A2249C1ED001AD1ED60
:103CD000001A9FED212AF4EEC21AF1EE10FA03DB6E
:103CE000DFED1D1AC1ED001A1A49D1ED001A9FED42
:103CF0001B2AF4EEC21AF1EE10FA03D8DFED171A00
:103D0000C1ED001A1049C1ED000A1249D1ED001AA7
:103D1000FDEEE11A11EE901A08B27047200700205C
:103D200000007A4400007AC42407002028070020FD
:103D30003007002034070020380700202C0700201F
:103D40004807002040070020500700204C070020B3
:103D5000440700205407002000A08C4500A08CC51B
:103D600029B1064A12680243044B1A6004E0034A70
:103D700012688243014B1A607047000030380240DD
:103D800029B1064A12680243044B1A6004E0034A50
:103D900012688243014B1A607047000040380240AD
:103DA00029B1064A12680243044B1A6004E0034A30
:103DB00012688243014B1A607047000020380240AD
:103DC00029B1064A12680243044B1A6004E0034A10
:103DD00012688243014B1A60704700004438024069
:103DE00029B1064A12680243044B1A6004E0034AF0
:103DF00012688243014B1A60704700002438024069
:103E0000F0B5002100220024022500260223324FB3
:103E10003F6807F00C0121B1042905D0082937D1EA
:103E200005E02E4F076036E02D4F076033E02A4F44
:103E30003F1F3F68C7F38056274F3F1F3F6807F07B
:103E40003F036EB1264FB7FBF3F7DFF88CC0ACF140
:103E5000040CDCF800C0CCF3881C07FB0CF40CE06D
:103E60001E4FB7FBF3F7DFF870C0ACF1040CDCF8C1
:103E700000C0CCF3881C07FB0CF4174F3F1F3F68B2
:103E8000C7F301477F1C7D00B4FBF5F7076002E034
:103E9000124F076000BF00BF0F4F3F6807F0F001EF
:103EA0000909104F7A5C0768D74047600A4F3F689E
:103EB00007F4E051890A0B4F7A5C4768D740876066
:103EC000054F3F6807F46041490B064F7A5C47682D
:103ED000D740C760F0BD0000083802400024F4005D
:103EE000001BB700D40000200168491C0160D0E924
:103EF000001291420ADA90ED000AF8EEC00A90ED45
:103F0000010AB8EEC01A80EE810A7047B7EE000AC7
:103F1000FBE770470146D1E90002904201DA002038
:103F200070470120FCE70021016070470160704785
:103F30004160704710B50446FDF774FFB8B3B4F99B
:103F40000200A0F5806000EE100AB8EEC00AF7EE9D
:103F5000000A20EE200ABDEEC00A10EE100A00B2E0
:103F600068490880B4F90000A0F5806000EE100AEE
:103F7000B8EEC00AF7EE000A20EE200ABDEEC00A35
:103F800010EE100A00B24880B4F90400A0F5806079
:103F900000EE100AB8EEC00AF7EE000A20EE200A82
:103FA000BDEEC00A10EE100A00B2C88004E0FFE7C0
:103FB0000020544908804880FDF734FF022842D190
:103FC000514890ED000AB4F90600A0F5806000EEBB
:103FD000900AF8EEE00A9FED4D1A00EE810A4A4879
:103FE00080ED000A4A48007A02286DD0494890EDD9
:103FF000100ADFED490AB4EEE00AF1EE10FA23DD13
:10400000B4F90400A0F5806000EE100AB8EEC00A12
:10401000DFED3E0A20EE200AB5EEC00AF1EE10FAFE
:1040200052DD394890ED010AB4F90400A0F5806032
:1040300000EE900AF8EEE00A9FED341A00EE810AD5
:10404000314880ED010A3FE0324890ED100ADFED83
:10405000330AB4EEE00AF1EE10FA23D2B4F9040008
:10406000A0F5806000EE100AB8EEC00ADFED270A66
:1040700020EE200AB5EEC00AF1EE10FA24D2224852
:1040800090ED010AB4F90400A0F5806000EE900AFA
:10409000F8EEE00A9FED1D1A00EE810A1A4880ED45
:1040A000010A11E0184890ED010AB4F90400A0F5E6
:1040B000806000EE900AF8EEE00A9FED141A00EE20
:1040C000810A114880ED010AB4F90600A0F580606C
:1040D00000EE100AB8EEC00A0B4880ED040AB4F9ED
:1040E0000400A0F5806000EE100AB8EEC00A064891
:1040F00080ED050AFDF7A0FE217A094800F086F858
:1041000010BD00004C060020BC0B00206F12833B4A
:10411000A40B0020F40A002000007042000070C2CE
:10412000D40B002010B5044604B910BD2078617886
:1041300040EA0120C0F30A00334908806078C010CB
:10414000A17840EA4110C0F30A002F494880A078C6
:104150008011E17840EA8100217940EA8120C0F3B2
:104160000A002949888020794010617940EAC1100D
:10417000C0F30A002449C8806079001180080872E1
:104180006079C0F301104872A079E17940EA01201A
:1041900000B21D494881207A617A40EA012001B2CB
:1041A00019488181A07AE17A40EA012001B21648DB
:1041B000C181217B8174617BC174A07B124988829B
:1041C000207C617C40EA0120C0F30A000E49C882CD
:1041D000084600F067F9FDF757FD012804D00228D2
:1041E0000DD003280CD103E00748FFF7A3FE07E03A
:1041F00005491431A1F10A00FFF736FA00E000BFCB
:1042000000BF00BF91E70000A40B002070B504467A
:104210000D4629462046FDF7C7FD3748007820B1F6
:1042200001280FD0022865D146E060780D2808D11A
:10423000002000F04BF931488169884701202E4960
:10424000087057E060780D280FD1002000F03EF98B
:104250004FF47A702A490860091D08600020264939
:10426000087026488169884725E024480169884705
:10427000DFED240A9FED241A41EE000ABCEEE00AAD
:1042800010EE100A1E4908601C4801698847DFEDDE
:104290001D0A9FED1D1A41EE000ABCEEE00A10EE69
:1042A000100A1749091D08601448016A884710B1AF
:1042B0000220114908701DE060780D280FD1002000
:1042C0000D4908704FF47A700D490860091D0860A7
:1042D0000A4881698847002000F0F8F809E0207852
:1042E000022803D1012000F0F1F802E0002000F0E4
:1042F000EDF800BF00BF70BD540600205806002036
:10430000340C004000007A440000164400B587B029
:1043100001212020FFF724FD01210805FFF750FDB2
:104320004FF46070059002208DF8180000208DF881
:104330001A0003208DF8190000208DF81B0005A934
:104340001B48FDF71FFC052207211948FDF762FCF9
:10435000052208211648FDF75DFC052209211448B5
:10436000FDF758FC0020ADF800004FF48270ADF866
:1043700002000020ADF80400ADF80600ADF808001A
:104380004FF40070ADF80A003820ADF80C000020A2
:10439000ADF80E000A20ADF810006946054800F09F
:1043A00041F80121034800F023F807B000BD0000E8
:1043B000001402400050014010B5044600BF022125
:1043C0000A4800F021F80028F9D02146074800F0FB
:1043D00027F800BF0121054800F016F80028F9D0A1
:1043E000024800F01AF8C0B210BD000000500140B1
:1043F00021B1028842F04002028004E002884FF6B8
:10440000BF731A40028070470246002013890B4098
:104410000BB1012000E000207047014688897047F9
:104420008181704710B50022028802F441520B8846
:104430004C8823438C882343CC8823430C89234313
:104440004C8923438C892343CC8923431A4302801C
:10445000838B4FF2FF74234083830B8A038210BD4A
:104460007047000030B500228B071C0F0F2303FAA2
:1044700004F20B4B8C1053F824309343084C8D10EE
:1044800044F8253023468C1053F824308C07240F31
:1044900000FA04F42343024C8D1044F8253030BD5B
:1044A00008380140417A012902D1074A11700AE017
:1044B000417A032902D1044A117004E0417A0229A9
:1044C00001D1014A11707047560600200149087059
:1044D00070470000550600200CB5002001900090A8
:1044E0003448006840F480303249086000BF3148E9
:1044F000006800F4003000900198401C0190009882
:1045000018B90198B0F5A04FF1D12A48006800F41D
:10451000003010B10120009001E0002000900098D0
:10452000012846D123484030006840F0805021499E
:10453000403108602048006840F440401E4908604F
:104540001C48083000681B490831086008460068AC
:1045500040F4004008600846006840F4A05008603D
:104560001648091F0860081F006840F08070091F86
:10457000086000BF0F48006800F000700028F9D004
:1045800040F205600E4908600A480830006820F0D3
:1045900003000849083108600846006840F002003E
:1045A000086000BF03480830006800F00C000828CD
:1045B000F8D10CBD00380240007000400C54400798
:1045C000003C02402DE9F04186B080460C4615467D
:1045D0001E460C9F4FF40070019000208DF80C00D7
:1045E0008DF80D0008208DF80E00200A8DF80F00C0
:1045F0008DF81040290A8DF811108DF81250310AEB
:104600008DF813108DF81460390A8DF815108DF897
:10461000167001A94046FCF790FF06B0BDE8F08196
:10462000F0B585B004460D4616461F4640F2FF1011
:10463000009000208DF808008DF8090008208DF802
:104640000A00200A8DF80B00E1B28DF80C10290A3F
:104650008DF80D10E9B28DF80E10310A8DF80F109B
:10466000F1B28DF81010390A8DF81110F9B28DF8E9
:10467000121069460248FCF760FF05B0F0BD00006B
:104680000064004010B586B0044640F2FF1001906F
:1046900000208DF80C008DF80D0008208DF80E001C
:1046A00000208DF80F0000218DF810108DF81110EA
:1046B0008DF81210210A8DF813108DF81440002186
:1046C0008DF815108DF8161001A90248FCF735FF7A
:1046D00006B010BD0068004070B504460D4600EEFF
:1046E000104AB8EEC00A314880ED000A304890ED1B
:1046F000000A2E4880ED010A00EE105AB8EEC00AFA
:104700002C4880ED000A2C4890ED000A294880EDE5
:10471000010A2648FFF764F92648FFF761F92348A4
:1047200090ED0E0ADFED250AB4EEE00AF1EE10FA84
:1047300003DB9FED220A80ED0E0A1C4890ED0E0A65
:10474000DFED1F0AB4EEE00AF1EE10FA03D89FED98
:104750001C0A80ED0E0A174890ED0E0ADFED170ACD
:10476000B4EEE00AF1EE10FA03DB9FED140A80EDDF
:104770000E0A104890ED0E0ADFED110AB4EEE00AC1
:10478000F1EE10FA03D89FED0E0A80ED0E0A0749EC
:1047900091ED0E0ABDEEC00A10EE101A08B2FFF736
:1047A00071FF012001F0ACFD70BD0000F404002099
:1047B000D000002048050020BC00002000007A4501
:1047C00000007AC510B51548006840F47000134920
:1047D00008601348006840F001001149086000209B
:1047E0000F49083108600E4800680E4908400C491E
:1047F00008600D48091D0860081F006820F480202B
:10480000091F0860002006490C310860FFF764FEAC
:104810004FF0006001498039086010BD88ED00E06C
:1048200000380240FFFFF6FE103000240EB50121D3
:104830000846FFF7A5FA4FF0FF300190A720ADF82A
:1048400000000020ADF80200ADF808000121880743
:1048500000F002F969464FF0804000F081FA012132
:10486000880700F00BF90EBD10B50121880700F094
:1048700011F938B10121880700F0FDF801218807FE
:1048800000F0F6F810BD00001FB501211020FFF761
:1048900077FA36208DF8000001208DF80100002005
:1048A0008DF8020001208DF803006846FFF752F8EA
:1048B00040F2E730029042F2CF00ADF80400002051
:1048C000ADF80600ADF80C0001A9024800F048FA66
:1048D0001FBD00000010004010B50121454800F048
:1048E000D9F800287BD00121424800F0C4F801210A
:1048F000404800F0BDF840480068401C3E49086050
:104900003E480068012821DD3D4890ED0E0ADFEDAC
:104910003D0AB4EEE00AF1EE10FA1AD23A4890EDF0
:10492000000AF3EE040AB4EEE00AF1EE10FA10D237
:1049300090ED000AFBEE040AB4EEE00AF1EE10FA84
:1049400007DD4FF4FA703149086002E000202F497A
:10495000086029480068092816DD002026490860FB
:104960002B48006838B129480068B0F5FA7F02D0BA
:1049700028482649086021480068042804DA1F48AE
:104980000068401C1D4908602348807C18B92348F2
:104990000068022829D119480068042828D1204835
:1049A00090ED0E0ADFED1F0AB4EEE00AF1EE10FA08
:1049B00016DD1D4890ED000AFBEE040AB4EEE00A95
:1049C000F1EE10FA0CDD90ED000AF3EE040AB4EEFD
:1049D000E00AF1EE10FA03D214481549086007E026
:1049E0004FF47A701249086002E000201049086014
:1049F00010BD0000001000405C00002058000020A6
:104A00009C05002000C073C5C000002024000020C9
:104A1000280000203CF6FFFFA40B0020B40100207A
:104A20004805002000C07345BC00002024FAFFFFA9
:104A30004C00002010B50121064800F01FF80122AB
:104A40001146044800F037F80121024800F010F840
:104A500010BD00000010004021B1028842F0800229
:104A6000028004E002884FF67F731A40028070478C
:104A7000CA4302827047CA430282704721B102884A
:104A800042F00102028004E002884FF6FE731A40F1
:104A90000280704730B50246002000230024158AAA
:104AA00005EA0103958905EA010413B10CB101205F
:104AB00000E0002030BD1AB183890B43838102E0FE
:104AC00083898B438381704770B5002400220023C3
:104AD000058C4FF6FE7635400584028C8388048B66
:104AE0004FF68F752C40B51E2C400D882C43751E3B
:104AF0002A408D892A434D882A43104DA84202D06E
:104B00000F4DA84213D14FF6F7752A40CD892A439D
:104B10004FF6FB752A408D882A434FF6FF652B40E0
:104B20004FF6FF552B400D8A2B434D8A2B43838034
:104B300004838D684563028470BD0000000001405D
:104B4000000401400A460021018B4FF6F77319401B
:104B5000114301837047000070B500240022002338
:104B6000058C4FF6EF7635400584028C8388048BE4
:104B700048F6FF752C404FF6FF452C400D884FF648
:104B8000FF7606EA05252C434FF6DF752A408D890E
:104B900006EA05152A434D8806EA05152A43154DF0
:104BA000A84202D0144DA8421DD14FF67F752A406D
:104BB000CD894FF6FF7606EA05152A434FF6BF75F5
:104BC0002A408D8806EA05152A434FF6FF352B400B
:104BD0004FF2FF752B400D8A06EA85052B434D8A5F
:104BE00006EA85052B43838004838D6885630284F0
:104BF00070BD000000000140000401400A46002191
:104C0000018B4FF2FF7319404FF6FF7303EA022343
:104C1000194301837047000070B50024002200236F
:104C2000058C4FF6FF6635400584028C8388848BA3
:104C30004FF68F752C404FF6FC752C400D882C4399
:104C40004FF6FF552A408D894FF6FF7606EA052577
:104C50002A434D8806EA05252A43154DA84202D06D
:104C6000144DA8421DD14FF2FF752A40CD894FF651
:104C7000FF7606EA05252A434FF6FF352A408D8840
:104C800006EA05252A434EF6FF752B404DF6FF75C3
:104C90002B400D8A06EA05152B434D8A06EA0515B9
:104CA0002B43838084838D68C563028470BD0000BC
:104CB00000000140000401400A460021818B4FF6AC
:104CC000F7731940114381837047000070B50022CB
:104CD00000230024058C4EF6FF7635400584038CB6
:104CE0008488828B48F6FF752A404FF6FF452A409C
:104CF0000D884FF6FF7606EA05252A434DF6FF7527
:104D00002B408D8906EA05352B434D8806EA05358B
:104D10002B430A4DA84202D0094DA84208D14BF6B8
:104D2000FF752C400D8A4FF6FF7606EA85152C4359
:104D3000848082838D680564038470BD0000014017
:104D4000000401400A460021818B4FF2FF73194095
:104D50004FF6FF7303EA0223194381837047000073
:104D600000220288184B98420ED0184B98420BD064
:104D7000B0F1804F08D0164B984205D0154B9842A1
:104D800002D0154B984204D14FF68F731A404B88CE
:104D90001A43124B984207D0114B984204D04FF659
:104DA000FF431A400B891A4302804B68C3620B8889
:104DB0000385054B984202D0044B984201D18B7A6F
:104DC00003860123838270470000014000040140F4
:104DD0000004004000080040000C004000100040AB
:104DE0000014004000B597B001210220FEF7B8FF83
:104DF00001218805FEF7B4FF01211020FEF7E0FF36
:104E0000072211464248FCF705FF15A8FCF732FFC0
:104E10008020159002208DF8580000208DF8590050
:104E200001208DF85B0015A93948FCF7ABFE394825
:104E300000F020FB11A800F03AFC37481190002048
:104E4000ADF84800ADF84A004FF48060ADF84C0072
:104E50000420ADF84E000020ADF8500011A92D48F7
:104E600000F0B2FB012240212A4800F0F9FA2B4859
:104E7000FCF746FC01A8FCF741FD4FF000600190F3
:104E80002448001D029026480390002004901E2014
:104E90000590002006904FF4806007900020089055
:104EA00009904FF480700A9000020B9000200C9043
:104EB0000D900E900F9001A91848FCF7F3FC00220A
:104EC00017491E311548FCF7D2FC01211348FCF7A5
:104ED000C3FC01211148FCF707FC25208DF8400098
:104EE00000208DF841008DF8420001208DF843002C
:104EF00010A8FEF72FFD012240F22441054800F0E2
:104F00003DFB0121034800F09FFA17B000BD0000EF
:104F10000004024000100140A086010040640240ED
:104F20000408002010B540F224412E4800F0FCFA9D
:104F3000002855D02B4800882A4880882A48FCF74A
:104F4000A6FC30BB00212848FCF7CEFB2648FCF726
:104F50009AFCC0F11E00254908601E202249091D47
:104F60000860081F006840F40020091F0860012144
:104F70001D48FCF7B9FB1D480068122830D11C48B9
:104F8000FFF7D0F80020FCF785FE0446FEF728F86E
:104F900026E000211448FCF7A7FB1348FCF773FC3C
:104FA000C0F11E00114908601E200F49091D08604C
:104FB000081F006820F40020091F086001210A482A
:104FC000FCF792FB09480068122809D108481E30F6
:104FD000FFF7A8F80020FCF75DFE0446FEF700F896
:104FE00010BD00000010014040640240600000203D
:104FF0000408002000B587B001210820FEF7B0FEAC
:1050000001214804FEF7BCFE072205212248FCF7D7
:1050100001FE072206212048FCF7FCFD60200590D8
:1050200002208DF818008DF8190000208DF81A0064
:105030008DF81B0005A91848FCF7A4FD4FF4E130DA
:1050400001900020ADF80800ADF80A00ADF80C00A2
:10505000ADF810000C20ADF80E0001A90F4800F0CB
:10506000B3FA01210D4800F0EFF9012240F2255179
:105070000A4800F083FA26208DF8000002208DF8FF
:1050800001008DF8020001208DF803006846FEF74C
:1050900061FC07B000BD0000000C0240004400406D
:1050A00010B53D48008800F0080020B14FF4587159
:1050B0003A4800F0B1F940F22551374800F034FA8F
:1050C000002868D0344800F0E9FAC4B234480078C7
:1050D00048B9A52C01D0002002E031480078401CDE
:1050E0002F49087057E02E480078012809D10E2C6E
:1050F00001D0002002E02A480078401C28490870AE
:1051000049E027480078022808D10CB1002002E0CD
:1051100023480078401C224908703CE02048007871
:10512000052805DA1E480078401C1D49087032E049
:105130001B480078052809D1022C01D0002002E08C
:1051400017480078401C1649087024E0144800787D
:10515000062809D1022C01D0002002E01048007876
:10516000401C0F49087016E00D480078062812DD33
:105170000B480078C01F0B490C5409480078401CAC
:105180000749087008460078142804DD00200870DC
:1051900001200549087010BD00440040004800404F
:1051A000CA00002090080020C800002000B587B089
:1051B00001210820FEF7D4FD01218804FEF7E0FD5F
:1051C000072208212248FCF725FD07220921204853
:1051D000FCF720FD4FF44070059002208DF8180078
:1051E0008DF8190000208DF81A008DF81B0005A914
:1051F0001748FCF7C7FC4FF4E13001900020ADF8F0
:105200000800ADF80A00ADF80C00ADF810000C2055
:10521000ADF80E0001A90F4800F0D6F901210D48A4
:1052200000F012F9012240F225510A4800F0A6F9D7
:1052300027208DF8000003208DF801008DF8020072
:1052400001208DF803006846FEF784FB07B000BD1F
:10525000000C02400048004010B51E48008800F0D5
:10526000080020B11B49091D0988C8B200BF1948B0
:10527000008800F08000F0B116480C30008800F083
:105280008000C0B1144801780078401C124A1070A8
:105290001248405C0F49091D0880104600781049EB
:1052A0000978884207D10B480C30008820F0800034
:1052B00008490C3108800748008800F0200038B108
:1052C0000448001D0088C4B22046FCF729FB00BF3B
:1052D00010BD000000480040140700201D0C0020F5
:1052E0001507002000B587B001214020FEF738FDEA
:1052F00001212020FEF764FD08220E212248FCF740
:1053000089FC082209212048FCF784FC4FF48440E2
:10531000059002208DF818008DF8190000208DF8F6
:105320001A008DF81B0005A91748FCF72BFC4FF459
:10533000E13001900020ADF80800ADF80A00ADF8AA
:105340000C00ADF810000C20ADF80E0001A90F48BC
:1053500000F03AF901210D4800F076F8012240F200
:1053600025510A4800F00AF947208DF80000022074
:105370008DF801008DF8020001208DF803006846C9
:10538000FEF7E8FA07B000BD001802400014014023
:1053900010B540F227711C4800F0C6F8E0B11B4878
:1053A00002780078401C194B18701948815C164827
:1053B00000F079F940F22771134800F036F81348ED
:1053C000007814490978884217D1002240F22771E9
:1053D0000D4800F0D3F810E040F225510A4800F0E3
:1053E000A3F850B10849091D0988C8B2FCF742F971
:1053F00040F22551044800F018F84FF45871024863
:1054000000F013F810BD0000001401401407002044
:105410001D0C00201507002001F40072B2F5007F7A
:1054200000D100BFCA430280704710B5002200239C
:1054300040F66A14A14200D100BF0A120124944030
:10544000A3B2DC43048010BD21B1828942F4005232
:10545000828104E082894DF6FF731A408281704791
:105460001AB1838A0B43838202E0838A8B4383824F
:105470007047000010B504462548844208D1012138
:105480001020FEF7ADFC00211020FEF7A9FC3EE045
:105490002048844209D101214804FEF781FC002103
:1054A0004FF40030FEF77CFC31E01B48844209D108
:1054B00001218804FEF774FC00214FF48020FEF7E0
:1054C0006FFC24E01548844209D10121C804FEF78D
:1054D00067FC00214FF40020FEF762FC17E0104843
:1054E000844209D101210805FEF75AFC00214FF43E
:1054F0008010FEF755FC0AE00A48844207D10121DA
:105500002020FEF76DFC00212020FEF769FC10BD75
:10551000001001400044004000480040004C0040A2
:10552000005000400014014070B5024600240023E2
:105530000025002040F66A16B14200D100BFC1F339
:10554000421501F01F03012606FA03F3012D02D1D3
:105550009689334006E0022D02D1168A334001E0DD
:10556000968A33400C12012606FA04F41688344059
:1055700013B10CB1012000E0002070BDF0B503466E
:10558000002400260025002040F66A17B94200D109
:1055900000BF1846C1F3421401F01F06012707FAA5
:1055A00006F5012C01D10C3004E0022C01D11030A1
:1055B00000E014301AB107682F43076002E0076863
:1055C000AF430760F0BD00002DE9FF4705460E46DA
:1055D0000024A14600BFA046B08900B100BF2C8ABC
:1055E00024F44054F08804432C82AC8941F20C60CE
:1055F0008443B08831890843718908430443AC81EE
:10560000AC8A24F44074B0890443AC826846FEF747
:10561000F7FB2048854202D01F48854202D1DDF8C1
:105620000C9001E0DDF80890A88900F4004040B13A
:1056300009EBC90000EB091031684900B0FBF1F734
:1056400007E009EBC90000EB091031688900B0FBE5
:10565000F1F76420B7FBF0F004012009642101FB9D
:105660001078A88900F4004040B1322000EBC80057
:10567000B0FBF1F000F00700044308E0322000EB3B
:1056800008106421B0FBF1F000F00F0004432C81FE
:10569000BDE8FF87001001400014014001468888E2
:1056A000C0F308007047C1F30802828070474FF4CE
:1056B0001651016000218180C18001810C2141814E
:1056C00000218181704700BFFEE7000071EE401AA3
:1056D0004B4991ED002A71EE821AC1ED001AD1ED0D
:1056E000001A9FED482AF4EEC21AF1EE10FA04DD1A
:1056F000DFED441AC1ED001A0DE04149D1ED001A69
:105700009FED412AF4EEC21AF1EE10FA03D2DFED5A
:105710003E1AC1ED001A3D49D1ED001A71EE611A31
:105720003B49C1ED001A71EE401A3A4991ED002A49
:1057300061EE821A384991ED002A3149D1ED002AF3
:1057400042EE221A354991ED002A3149D1ED002A65
:1057500042EE221A3249C1ED001A2C4981ED001A9D
:105760002F49D1ED001AB0EE0C2A40EEC21A2D4995
:1057700091ED002A61EE821A2B49C1ED001A2B49E6
:10578000D1ED001A70EEE11A294991ED002A61EE7F
:10579000821A2849C1ED001A2349D1ED001A254982
:1057A00091ED002A71EE821A2349C1ED001A1F49BA
:1057B000C1ED000A2049D1ED001A9FED202AF4EE38
:1057C000C21AF1EE10FA03DBDFED1C1AC1ED001A6C
:1057D0001949D1ED001A9FED1A2AF4EEC21AF1EE22
:1057E00010FA03D8DFED161AC1ED001A1249D1EDF7
:1057F000001AFDEEE11A11EE901A08B2704700008F
:105800005807002000007A4400007AC45C0700209A
:1058100060070020680700206C0700207007002048
:1058200064070020800700207807002088070020F8
:10583000840700207C0700208C07002000A08C45F6
:1058400000A08CC503B401984100009850EAC12023
:1058500018BF04204A0D18BF40F0010040F2FF724B
:10586000B2EB515F08BF40F00200012808BF0520DD
:1058700002B070470000000070B5C1482DED020B6A
:105880002DED0E8B82B0119D25F000449FEDBEDB07
:105890009FEDBFEB84423EDBA4F140511098A1F193
:1058A0007F6108430FD0BC48844202DC28D11098A5
:1058B00030B39DED100B02B0BDEC0E8B02B0BDE815
:1058C000704000F0B0BC9DED100B53EC1D2B51EC63
:1058D000100BFAF732FD9DED100B41EC180B53EC59
:1058E0001E2B51EC100BFAF728FD53EC182BFAF78E
:1058F0007DFC41EC100B02B0BDEC0E8B02B070BD14
:10590000012000F0D5FC02B0BDEC0E8B02B0BDE86A
:10591000704000F09DBCA1489FEDA18B844256DAF7
:105920009DED100BB4F1795F0ADA51EC100BFFF723
:1059300089FF042808BF00F09BFC9DED100BDAE7FF
:1059400053EC102B51EC100BFAF7F7FC41EC190B50
:1059500095480621B0EE490AF0EE690A784400F055
:10596000E6FB53EC192B51EC100BFAF7E6FC41EC7B
:105970001A0B8E48B0EE490AF0EE690A0421784409
:1059800000F0D5FB53EC192B51EC100BFAF7D5FCBA
:1059900053EC182BFAF72AFC41EC100B51EC1A0BC4
:1059A00053EC102BFAF73BFDCDE900019DED000B08
:1059B00053EC102B9DED100B51EC100BFAF7BDFCC6
:1059C0009DED101B53EC112BFAF710FCD2E09DED6E
:1059D000100B51EC100B00F0A1FC53EC182BFAF754
:1059E000A9FC9FED730BCDE9000153EC102B9DED4D
:1059F000000B51EC100BFAF7A0FC41EC190B6E48B0
:105A00000621B0EE490AF0EE690A784400F08FFBF7
:105A100053EC192B51EC100BFAF78FFC41EC1B0BDC
:105A20006648B0EE490AF0EE690A0421784400F0B5
:105A30007EFB53EC192B51EC100BFAF77EFC53EC68
:105A4000182BFAF7D3FB41EC1C0B51EC190B01F0AE
:105A500035F941EC180B5A489FED5BABA04222DCB4
:105A600053EC1C2B51EC1B0BFAF7D9FCCDE90001D0
:105A70009DED000B51EC180B53EC102BFAF75DFC6D
:105A800053EC182BFAF7B2FB53EC1A2BFAF755FC30
:105A900053EC1D2BFAF74BFC53EC1E2BFAF74AFC88
:105AA00041EC100B5FE08DED008B002000909DED30
:105AB000000B51EC180B53EC102BFAF797FB9DEDF4
:105AC000000B41EC1E0B53EC102B51EC100BFAF7B2
:105AD00034FC53EC192BFAF72DFC53EC1E2BFAF780
