:020000040800F2
:10000000501700209D010008F9340008B11A0008BB
:100010000D320008C5080008C54B000800000000AC
:10002000000000000000000000000000A53E0008E5
:100030004916000800000000B1370008B5010008AB
:10004000B7010008B7010008B7010008B7010008B0
:10005000B7010008B7010008B70100084D160008F5
:10006000B7010008B7010008B7010008B701000890
:10007000B7010008B7010008B7010008B701000880
:10008000B7010008B7010008B7010008B701000870
:10009000BD090008B7010008B7010008B701000852
:1000A000B7010008B7010008B7010008B701000850
:1000B00009410008B701000885410008B7010008A0
:1000C000B7010008B7010008B7010008B701000830
:1000D000B7010008E545000861470008AD48000881
:1000E000B7010008B7010008B7010008B701000810
:1000F000B7010008B7010008B7010008B701000800
:10010000B7010008B7010008B7010008B7010008EF
:10011000B7010008B701000819420008B70100083C
:10012000B7010008B7010008B7010008B7010008CF
:10013000B7010008B7010008B7010008B7010008BF
:10014000B7010008B7010008B7010008B7010008AF
:10015000B7010008B7010008B7010008B70100089F
:10016000B7010008B7010008B7010008B70100088F
:10017000B7010008B7010008B7010008B70100087F
:10018000B7010008B7010008DFF80CD000F038FB19
:1001900000480047BD560008501700200648804719
:1001A00006480047FEE7FEE7FEE7FEE7FEE7FEE75C
:1001B000FEE7FEE7FEE7FEE765400008890100086C
:1001C00040EA01039B0703D009E008C9121F08C0D9
:1001D000042AFAD203E011F8013B00F8013B521E59
:1001E000F9D270472DE9FE4F804681EA0300C00F27
:1001F0000C46009021F0004123F00045B8EB0200CE
:10020000A94105D24046214690461C460B4602466F
:1002100023F00040104347D0270DC7F30A00C3F373
:100220000A510290401A019040286BDAC3F3130080
:1002300040F4801B0098924620B10023D2EB030AC1
:1002400063EB0B0B01985946C0F14002504600F099
:10025000C1F906460D4650465946019A00F0D9F9B3
:1002600010EB08006141002487EA115284EAE77329
:100270001A4340D0009A62B3019A012A4FEA07520A
:1002800015DC001B61EB02014FF0004202EA07524D
:10029000CDE90042001C41F5801132462B4600F0AA
:1002A00010FA03B0BDE8F08F40462146F9E7001B85
:1002B00061EB0201001C41F5801300185B4120181E
:1002C000A2F5001747EB030140EAD570B6196D415E
:1002D00011E06D084FEA360645EAC0754FEA07524D
:1002E000001B61EB0201001C41F5801149084FEA37
:1002F00030000019514132462B4603B0BDE8F04FA3
:1003000000F0D0B90098012240000023D0EB020297
:1003100063EBE073009821464FEAE074B8EB00000D
:1003200061EB0401E9E783F000435BE781F0004102
:1003300058E72DE9FE4F81EA030404F0004421F060
:10034000004100944FF0000B23F0004350EA0104F9
:100350005ED052EA03045BD0C3F30A54C1F30A55DA
:100360002C44A4F2F3340194A0FB0254C1F3130112
:1003700041F48011C3F3130343F4801301FB0244DF
:1003800000FB034E840A970A44EA815447EA8357E4
:10039000A4FB076802958D0A05FB07854FEA932C9D
:1003A00004FB0C542705029D4FEA065847EA16370E
:1003B000B5EB08056EEB070C870E920E47EA811726
:1003C00042EA8312A7FB0201B6EB0B0164EB0004C7
:1003D0002B0D43EA0C335E1844EB1C50DA465146B1
:1003E000E7FB0201C5F313044FEA0B3343EA14534E
:1003F0004FEA0432019C43EA0603A4F10C04029480
:10040000009CCDE900B400F05CF903B0BDE8F08FCA
:1004100000200146F9E72DE9F04D81EA030404F0DC
:10042000004B21F0004514464FF0000A23F0004134
:1004300050EA050220D054EA01021DD0C5F30A5744
:100440000246C5F31303C1F31300C1F30A5640F487
:10045000801543F48013A7EB0608101BD64608F25C
:10046000FD3873EB050002D308F1010801E0921892
:100470005B41B8F1000F03DA00200146BDE8F08DC2
:1004800000204FF48011064684460EE0171B73EBE4
:10049000050705D3121B63EB050306434CEA010C69
:1004A00049084FEA300092185B4150EA0107EDD14C
:1004B00052EA030012D082EA040083EA05010843ED
:1004C00005D0101BAB4106D20122002306E000221A
:1004D0004FF0004302E06FF0010253101AEB0600E8
:1004E0004CEB085110EB0A0041EB0B01BDE8F04D5D
:1004F00000F0D8B80EB5C10F80EAE0700844CA0712
:10050000002140F233438DE80E000A460B4600F00E
:10051000D8F803B000BD00F0004230F000400AD02F
:10052000C10D01F56071C0F3160042EA0151C20825
:1005300040071143704700200146704730B5041E44
:1005400071F1000404DB4FF00044404264EB010110
:10055000141E73F1000405DB1C464FF000435242A9
:1005600063EB04038B4208BF824230BD30B5041EEA
:1005700071F1000404DB4FF00044404264EB0101E0
:10058000141E73F1000405DB1C464FF00043524279
:1005900063EB0403994208BF904230BD01F0004371
:1005A00030B421F0004150EA010206D00A0DA2F554
:1005B0006072C1F31301002A02DC30BC00207047D6
:1005C000440F44EAC104C100E01830BC00EBC25043
:1005D00000F031B8202A04DB203A00FA02F10020B2
:1005E00070479140C2F1200320FA03F31943904071
:1005F0007047202A04DB203A21FA02F000217047DC
:1006000021FA02F3D040C2F120029140084319467A
:100610007047202A06DBCB17203A41FA02F043EA62
:10062000E07306E041FA02F3D040C2F120029140AB
:100630000843194670470029A8BF7047401C49006D
:1006400008BF20F00100704710B4B0FA80FC00FA37
:100650000CF050EA010404BF10BC704749B1CCF162
:10066000200421FA04F411FA0CF118BF01212143EE
:100670000843A3EB0C01CB1D4FEA00614FEA1020A9
:1006800042BF002010BC704700EBC350104400294B
:10069000A4BF10BC7047401C490008BF20F00100F7
:1006A00010BC704710B5141E73F1000408DA401C2A
:1006B00041F1000192185B411A4301D120F0010081
:1006C00010BD2DE9F04D92469B4611B1B1FA81F271
:1006D00002E0B0FA80F220329046FFF77BFF04463A
:1006E0000F4640EA0A0041EA0B0153465A460843C6
:1006F00013D0114653EA010019D0C8F14002504608
:10070000FFF777FF05460E46504659464246FFF72B
:1007100061FF084305D0012004E020463946BDE8CA
:10072000F08D0020054346EAE0762C4337430A98D3
:100730006305E40AA0EB08000022FD0A44EA4754DE
:100740000A3002D500200146E9E701051019694188
:10075000DDE9084500196941BDE8F04DA2E72DE942
:10076000F04D00231A461B1A8A4103DB0020014684
:10077000BDE8F08DC1F30A52C1F3130141F48015B5
:100780004FF0000BD10702D100186D41521E002717
:10079000044640F2FF11384601EB620A3E468046AD
:1007A000024600204FF48011FFF723FFC219714168
:1007B000BB1846EB0100B4EB030C75EB000C04D343
:1007C000E41A65EB000517460E46241908F10100EE
:1007D0006D4180463428E3DDF91946EB0600091B1C
:1007E000A84103D24FF0FF32134601E00022134626
:1007F0001BEB070046EB0A51BDE8F04DFFF752BF77
:10080000064C074D06E0E06840F0010394E807005D
:1008100098471034AC42F6D3FFF7BAFC905A000860
:10082000B05A000870B58C1810F8015B15F007037A
:1008300001D110F8013B2A1106D110F8012B03E079
:1008400010F8016B01F8016B5B1EF9D12B0705D481
:100850000023521E0DD401F8013BFAE710F8013BCA
:10086000CB1A921C03E013F8015B01F8015B521EE6
:10087000F9D5A142D8D3002070BD10B54FF4A060C7
:1008800002F078FE02F000FF02F010F903F01EFC07
:1008900003F05EFA02F044FB02F080FB03F096FCEA
:1008A00000F012F803F0FEFD03F0AAFF03F002FFD0
:1008B000642004F0CBFE00F047FF03F035FC02F0AB
:1008C0006DFB10BD00BFFEE700B58BB00121082015
:1008D00002F070FF0121480602F07CFF032009901E
:1008E00002208DF8280000208DF82A0003208DF8C2
:1008F000290001208DF82B0009A92E4800F02CFFBB
:10090000092201212B4800F06FFF0922002129480C
:1009100000F06AFF00208DF81E008DF81F008DF892
:10092000200001208DF8210000208DF822008DF894
:1009300023008DF81A008DF81B0005208DF81C008F
:1009400006208DF81D000320ADF8180006A91A48EE
:1009500000F04DFB00208DF812008DF813000120EF
:100960008DF814000020ADF80800ADF80A00ADF8CD
:100970000C00ADF80E00ADF8100001208DF8150048
:1009800002A800F017FA012202210B4800F026FB12
:1009900014208DF8040001208DF8050000208DF84A
:1009A000060001208DF8070001A802F0A7FD0BB09A
:1009B00000BD0000000C02400064004000B585B09E
:1009C0000221B54800F07AFA00287DD00221B24811
:1009D00000F09CF96A460021AF4800F092FBAF4955
:1009E000009808609DF80B00AD4908709DF80C0058
:1009F000AC4908709DF80D00AB4908709DF80E00D9
:100A0000AA4908709DF80F00A94908709DF81000C8
:100A1000A84908709DF81100A74908709DF81200B8
:100A2000A64908709F4800789D49097840EA01204E
:100A3000A34908609D4800789B49097840EA012055
:100A4000A04908800846008800F400409E490860DC
:100A500008460068C01308609A480088C0F30C007C
:100A60009A490880974800884FF6FF71081A9849FC
:100A7000088098480068401C9649086087480068CC
:100A800040F2052188422AD18D4890ED000AB8EE47
:100A9000C00A914880ED000A90ED000ADFED8F0A50
:100AA00020EE200ADFED8E0A80EE201A8D4880EDC0
:100AB000001A8348006840F6FF71884205DB8021F8
:100AC000894800F0B6FE0AE0E4E07D48006840F6A0
:100AD000FF71884203DA8021834800F0A8FE6F4846
:100AE000006840F2062188422BD1754890ED000A3B
:100AF000B8EEC00A7D4880ED000A90ED000ADFEDF7
:100B0000770A20EE200ADFED760A80EE201A784878
:100B100080ED001A6A48006840F29221884205DBA5
:100B20004FF48041734800F082FE0AE06448006898
:100B300040F29221884204DA4FF480416D4800F07F
:100B400078FE5648006840F2012188421BD15F4878
:100B5000008800EE100AB8EE400A674880ED000AEF
:100B60005948006801280ED15948008800EE100A43
:100B7000B8EE400A604880ED000A90ED000AB1EE40
:100B8000400A80ED000A4548006840F20221884290
:100B90001BD14E48008800EE100AB8EE400A5748B4
:100BA00080ED000A4848006801280ED148480088B6
:100BB00000EE100AB8EE400A504880ED000A90EDB1
:100BC000000AB1EE400A80ED000A3448006840F2A5
:100BD000032188421BD13D48008800EE100AB8EE80
:100BE000400A474880ED000A3748006801280ED1C6
:100BF0003748008800EE100AB8EE400A404880ED01
:100C0000000A90ED000AB1EE400A80ED000A234888
:100C10000068B0F5017F1BD12C48008800EE100A57
:100C2000B8EE400A374880ED000A274800680128DE
:100C30000ED12748008800EE100AB8EE400A31486D
:100C400080ED000A90ED000AB1EE400A80ED000A46
:100C50001248006840F2072188421BD11B480088D7
:100C600000EE100AB8EE400A274880ED000A164848
:100C7000006801280ED11648008800EE100AB8EE70
:100C8000400A214880ED000A90ED000AB1EE400ACA
:100C900080ED000A05B000BD00640040880000201F
:100CA00080000020810000208200002083000020BE
:100CB000840000208500002086000020870000209E
:100CC000900000206C0000208C0000206A000020B2
:100CD0006800002094000020740000200000B4434D
:100CE000000000467C000020001002407000002040
:100CF0007800002000140240980000209C00002092
:100D0000A0000020A4000020A8000020B1F5007F72
:100D10003AD00FDC202928D006DC01291CD0042978
:100D20001DD0082940D11DE0402921D0B1F5807F98
:100D30003AD126E0B1F5004F31D006DCB1F5806F35
:100D400025D0B1F5006F2FD124E0B1F5803F12D04E
:100D5000B1F5003F28D111E0154A826025E0082254
:100D6000C26022E01022C2601FE0082202611CE083
:100D70001022026119E00822426016E0102242604F
:100D800013E00422426010E0042242600DE00422DD
:100D900042600AE0002282610422426005E00022F3
:100DA00082610422426000E000BF00BF7047000083
:100DB0000101010010B50021837A012202FA03F13A
:100DC0003D4A126842F001023B4B1A603A4A1C321B
:100DD00012688A43384B1C331A60027BCAB9364A00
:100DE0000C3212688A43344B0C331A604288C38831
:100DF00042EA0343304A4032847A42F8343002886F
:100E0000838842EA03432C4A4032847A02EBC402CC
:100E10005360027B012A19D1274A0C3212680A4317
:100E2000254B0C331A604288038842EA0343224A66
:100E30004032847A42F83430C288838842EA0343DD
:100E40001D4A4032847A02EBC4025360C27A3AB936
:100E5000194A121D12688A43174B1B1D1A6006E0BF
:100E6000154A121D12680A43134B1B1D1A60028992
:100E700032B9114A143212688A430F4B14331A6084
:100E80000289012A06D10C4A143212680A430A4B1D
:100E900014331A60427B012A06D1074A1C321268B9
:100EA0000A43054B1C331A60034A126822F0010200
:100EB000014B1A6010BD00000066004070B504468A
:100EC0000D46002660692840002871D0B5F5807F66
:100ED0005CD010DC082D35D006DC012D20D0022D91
:100EE00024D0042D72D127E0102D31D0202D35D003
:100EF000402D6BD138E0B5F5004F60D009DCB5F579
:100F0000007F49D0B5F5806F4CD0B5F5006F5DD14D
:100F10004FE0B5F5803F2DD0B5F5003F56D12FE01D
:100F2000A0682D4900F0F8F9064651E0E068032179
:100F300000F0F2F906464BE0E068082100F0ECF919
:100F4000064645E0E068102100F0E6F906463FE07D
:100F50002069032100F0E0F9064639E02069082104
:100F600000F0DAF9064633E02069102100F0D4F9E8
:100F700006462DE06068082100F0CEF9064627E01D
:100F80006068102100F0C8F9064621E0A06901213F
:100F900000F0C2F906461BE0A069022100F0BCF98E
:100FA000064615E0A069042100F0B6F906460FE0F8
:100FB0000FE0A069702100F0AFF9064608E0606814
:100FC000042100F0A9F9064602E0FFE7002600BF71
:100FD00000E00026304670BD010101001AB14369EE
:100FE0000B43436102E043698B434361704730B573
:100FF000024600200023146824F0020414601468E0
:1010000044F00104146000E05B1C546804F0010427
:101010001CB94FF6FF74A342F6D1546804F00104E2
:101020000CB900206CE08C79012C04D1146844F0D8
:101030008004146003E0146824F080041460CC7908
:10104000012C04D1146844F04004146003E01468D7
:1010500024F0400414600C7A012C04D1146844F08C
:101060002004146003E0146824F0200414604C7A17
:10107000012C04D1146844F01004146003E01468D7
:1010800024F0100414608C7A012C04D1146844F00C
:101090000804146003E0146824F008041460CC7A97
:1010A000012C04D1146844F00404146003E01468B3
:1010B00024F0040414608C78A407CD7844EA056415
:1010C0000D7944EA05444D7944EA05540D886D1EB6
:1010D0002C43D461146824F001041460002300E060
:1010E0005B1C546804F001041CB14FF6FF74A3426A
:1010F000F6D1546804F001040CB1002000E0012096
:1011000030BD10B500F5D87303EB01131B6803F075
:1011100004031372137A53B900F5D87303EB011368
:101120001B6840F2FF7404EA5353136009E000F5B2
:10113000D87303EB01131B686FF0604404EAD30318
:10114000536000F5D87303EB01131B6803F002032F
:10115000537200F5D87303EB01135B6803F00F03C0
:10116000937200F5D87303EB01135B681B0AD37409
:1011700000F5D87303EB01139B68D37200F5D873A5
:1011800003EB01139B681C0A147300F5D87303EB7F
:1011900001139B681C0C547300F5D87303EB011307
:1011A0009B681B0E937300F5D87303EB0113DB6888
:1011B000D37300F5D87303EB0113DB681C0A1474B6
:1011C00000F5D87303EB0113DB681C0C547400F5B5
:1011D000D87303EB0113DB681B0E937421B9C3684A
:1011E00043F02003C36003E0036943F0200303617D
:1011F00010BD10B502460020936803F08063B3F180
:10120000806F00D110E0936803F00063B3F1006FCA
:1012100001D1012008E0936803F08053B3F1805FAF
:1012200001D1022000E00420042874D002F5C0732C
:1012300003EB00131B6803F0010402F5C07303EB1A
:1012400000131C600B7A7BB94B7A0C8843EA445339
:1012500002F5C07404EB00142468234302F5C07443
:1012600004EB0014236010E00B7A4C6843EAC403DB
:101270004C7A234302F5C07404EB00142468234322
:1012800002F5C07404EB001423608B7A03F00F03A3
:101290008B7202F5C07303EB00135B6823F00F043D
:1012A00002F5C07303EB00135C6002F5C07303EB3F
:1012B00000135B688C7A234302F5C07404EB0014BE
:1012C00063608B7B1C064B7B44EA03440B7B44EA44
:1012D0000323CC7A234302F5C07404EB0014A3600B
:1012E0008B7C1C064B7C44EA03440B7C44EA0323BE
:1012F000CC7B234302F5C07404EB0014E36002F5D9
:10130000C07303EB00131B6843F0010402F5C073C4
:1013100003EB00131C6010BD0246002002EA01032B
:101320000BB1012000E00020704721B1026842F0BB
:101330000102026003E0026822F0010202607047CD
:10134000016821F0010101600021016041608160BC
:10135000C1600161212141614A49884204D13D2196
:10136000484A103A91608CE046491831884205D1CC
:101370004FF47461434A103A916082E04149303140
:10138000884205D14FF474113E4A103A916078E0DA
:101390003C494831884205D14FF07461394A103ACE
:1013A00091606EE037496031884204D13649354A50
:1013B000103AD16065E033497831884204D133492D
:1013C000304A103AD1605CE02E499031884204D115
:1013D0002F492C4A103AD16053E02A49A83188425B
:1013E00005D14FF03D51274A103AD16049E02949D3
:1013F000884204D13D21274A083A116041E025493D
:101400001831884205D14FF47461224A083A1160BC
:1014100037E020493031884205D14FF474111D4A1C
:10142000083A11602DE01B494831884205D14FF040
:101430007461184A083A116023E016496031884205
:1014400004D11149134A121F11601AE01149783171
:10145000884204D10D490F4A121F116011E00D4955
:101460009031884204D10A490A4A121F116008E0EB
:101470000849A831884204D14FF03D51054A121F56
:1014800011607047106002403D000020400F0020B6
:1014900000003D201064024021B1026842F4802225
:1014A000026003E0026822F480220260704722B1E9
:1014B000036843F40023036003E0036823F400237C
:1014C0000360016170470146486880B27047014679
:1014D00000200A6802F400220AB1012000E0002086
:1014E0007047000010B500220268134B1A40CC6808
:1014F0000B6823434C6923438C692343CC69234302
:101500000C6A23434C6A23438C6A23434C6B23436A
:101510008C6B23431A430260426922F00702D1E92F
:101520000B3423431A4342610B6943604B68836069
:101530008B68C36010BD00003F801CF0002101607B
:1015400041608160C160016141618161C16101628D
:1015500041628162C162016341638163704700003F
:101560003449097859B9AA2846D13349334A1278FF
:1015700001EB4211087001212E4A11703CE02D4907
:10158000097801290FD1AF2809D12B492B4A1278AC
:1015900001EB421148700221264A11702CE0002113
:1015A000244A117028E023490978022909D12249E7
:1015B000224A127801EB4211887003211D4A1170F2
:1015C0001AE01C490978032909D11B491B4A1278E2
:1015D00001EB4211C8700421164A11700CE0164943
:1015E000164A127801EB4211124A127888541149B6
:1015F0000978491C0F4A11700F49104A127801EB03
:101600004211C978491D0B4A1278914211D100212B
:10161000084A11700949097831B10021074A11704F
:101620000121074A117004E00121044A1170054AA2
:10163000117070470B060020360800200A060020B3
:101640000D0600200C0600207047000010B5022097
:1016500000F01CF850B1022000F00CF8022000F05D
:101660000FF801200249087000F000F910BD0000D9
:10167000380100200149086070470000143C014017
:101680000149086070470000143C014001460020F9
:101690000022074B1B6803EA0102054B14331B6849
:1016A0000B4013B10AB1012000E000207047000098
:1016B000003C0140002123498279002A3AD00A46A1
:1016C000126803689A430B461A600A1D1268036881
:1016D0009A430B1D1A60027911440A6803681A4381
:1016E0000A60184A0832126803689A43154B083397
:1016F0001A601A1D126803689A43124B0C331A6061
:101700004279102A0ED11A1F126803681A430D4B32
:1017100008331A601A1D126803681A43094B0C3308
:101720001A600DE00749427911440A6803681A43B8
:101730000A6005E0027911440A6803689A430A6066
:1017400070470000003C014047F6FF700149086007
:101750007047000024040040F0B50A460021002331
:10176000002400BF3DE0012505FA01F3156805EAF4
:1017700003049C4234D105684F000326BE40B543A4
:10178000056015794E00B54006683543056015794A
:10179000012D02D01579022D16D185684F00032640
:1017A000BE40B543856055794E00B54086683543E7
:1017B0008560456801268E40B54345604568967949
:1017C0008E40B6B235434560C5684F000326BE4023
:1017D000B543C560D5794E00B540C6683543C56090
:1017E000491C1029BFD3F0BDF0B5002300244D07DC
:1017F000ED0E02FA05F3CE1000F1200555F8265043
:101800004E07F70E0F26BE40B543CF1000F120065D
:1018100046F82750CE1000F1200555F8265045EA2D
:101820000304CE1000F1200545F82640F0BD4183A9
:101830007047018370474FF6FF710160002101710D
:1018400041718171C1717047014800787047000093
:101850004A05002001460B2903D2034800EB810012
:1018600070470020FCE70000C005002000BF36489C
:1018700090ED030A354880ED040A334890ED040AE0
:10188000B1EE400A314880ED050A2F4890ED050A77
:101890002E4880ED060A2E4890ED000A2D4880ED76
:1018A000000A2D4890ED000A294880ED000A2A48D8
:1018B00090ED000A264890ED000A2648D0ED000A77
:1018C00030EE600ADFED250AB4EEE00AF1EE10FA20
:1018D00005DB23480068401E2149086013E01C48CE
:1018E00090ED000A1B48D0ED000A30EE600ADFEDF3
:1018F0001D0AB4EEE00AF1EE10FA04D818480068A8
:10190000401C17490860164800684FF4B4714843FA
:1019100000EE100AB8EEC00A0D48D0ED000AB7EE8E
:10192000001A01EE200A104880ED000A0A4890EDE6
:10193000010A0E4880ED000A074890ED020A0C48A3
:1019400080ED000A70470000780800207809002028
:101950000C01002018010020AC0800200000A54365
:10196000340100200000A5C324010020280100202C
:101970002C01002010B501700378047D021D135561
:10198000037DD35C447D125D43EA82024270027D96
:10199000521C02F00F0282754378847D021D125D95
:1019A00043EA02128270037D021DD35C447D125D06
:1019B000934205D10D4A1268521C0C4B1A6002E08A
:1019C00000220A4B1A60094A1268282A03D3037DB1
:1019D000021DD25CC270027D4275027D521C0275EE
:1019E000027D102A01D10022027510BDB805002029
:1019F0000148007870470000E50400204FF0804067
:101A0000406A7047274890ED000AFBEE030AB4EEE7
:101A1000E00AF1EE10FA04D8BBEE030A80ED000AEA
:101A20000DE0204890ED000AF3EE030AB4EEE00A60
:101A3000F1EE10FA03DBB3EE030A80ED000A194859
:101A400090ED010A1848D0ED010A9FED181A70EECA
:101A5000C10AB4EEE00AF1EE10FA09D890ED010ADD
:101A6000DFED120A30EE600A0E4880ED010A17E041
:101A70000C4890ED010A0C48D0ED010A9FED0B1ABD
:101A800070EE810AB4EEE00AF1EE10FA08DB90ED98
:101A9000010ADFED060A30EE200A024880ED010A55
:101AA00070470000840B00204402002000007042B8
:101AB00000BFFEE700B52DED108B93B0FE4890ED12
:101AC000000AD0ED000A20EE200A8DED080A90ED04
:101AD000000AFA48D0ED000A20EE200AB0EE40FAE3
:101AE000F54890ED000AF648D0ED000A20EE200AF5
:101AF000F0EE40AAF04890ED000AF248D0ED000A5E
:101B000020EE200A8DED070AEC4890ED000AD0ED9A
:101B1000000A20EE200AF0EE40FA90ED000AE848B4
:101B2000D0ED000A20EE200A8DED060AE34890ED84
:101B3000000AE448D0ED000A20EE200AB0EE40BAD8
:101B4000DF4890ED000AD0ED000A20EE200AF0EE0A
:101B500040BA90ED000ADB48D0ED000A20EE200AE2
:101B60008DED050A90ED000AD0ED000A20EE200A66
:101B70008DED040AD44890ED030ADFEDD40A20EE7F
:101B8000200ADFEDD30A80EE201AD24880ED001A39
:101B9000CD4890ED040ADFEDCD0A20EE200ADFEDFE
:101BA000CC0A80EE201ACC4880ED001AC64890ED91
:101BB000050ADFEDC60A20EE200ADFEDC50A80EE39
:101BC000201AC64880ED001ABF4890ED000AC448AC
:101BD00080ED000ABC4890ED010AC24880ED000A81
:101BE000B94890ED020AC04880ED000AB64890ED71
:101BF000060ABE4880ED000AB34890ED070ABC48CB
:101C000080ED000AB04890ED080ABA4880ED000A5D
:101C1000FFF7F4FEB849086008460068B74909684C
:101C200088420CD3B4480068B4490968401A00EEF1
:101C3000100AB8EE400ADFEDB20AC0EE208AAE48C4
:101C40000068AE490860A648D0ED000A90ED001A81
:101C500060EE810AA34890ED001AD0ED001A41EE23
:101C6000210AA14890ED001AD0ED001A41EE210A98
:101C7000B0EE600A03F004FDB0EE408A984890EDA3
:101C8000000A20EE080A80ED000A964890ED000A4E
:101C900020EE080A80ED000A934890ED000A20EE3D
:101CA000080A80ED000A9148D0ED000A90ED001A74
:101CB00060EE810A8E4890ED001AD0ED001A41EED8
:101CC000210A8C4890ED001AD0ED001A41EE210A4D
:101CD000B0EE600A03F0D4FCB0EE408A834890ED89
:101CE000000A20EE080A80ED000A814890ED000A03
:101CF00020EE080A80ED000A7E4890ED000A20EEF2
:101D0000080A80ED000A794890ED000AF0EE000A1A
:101D100060EE200AB6EE000A30EE6B1A9DED040A62
:101D200031EE400A20EE800A7148D0ED000AB0EE94
:101D3000001A60EE811ADDED060A9DED071A70EEBD
:101D4000C10A01EEA00A6B48D0ED000AB0EE001AFD
:101D500060EE810A3BEE2A1A00EE810A8DED110A2F
:101D6000624890ED000AF0EE000A20EE201A9DED88
:101D7000060ADDED070A30EE200A21EE000A5C4873
:101D8000D0ED000AB0EE001A20EE811AF6EE000A3D
:101D900070EEEF1ADDED040A71EEE00A01EE200AA2
:101DA0005448D0ED000AB0EE001A20EE811ADDEDA5
:101DB000050A70EECF0A01EE200A8DED100A4B489D
:101DC00090ED000AF0EE000A20EE200A7BEE6A0A8F
:101DD00060EE200A464890ED000AB0EE001A20EEB0
:101DE000011A9DED050A70EE0F1AB0EE600A01EEC1
:101DF000210A4048D0ED000AB0EE001A60EE810AD8
:101E0000B6EE001A31EE6F1A31EE6B1AB0EE409A50
:101E100000EE819A9DED110A60EE000A9DED100A18
:101E200040EE000A10EE901A0846FEF774FBCDE96A
:101E300000019DED000B03F0FDFA8DED020B9DED11
:101E4000020B51EC100BFEF7A9FB09EE900AB0EE65
:101E500049AA3BEE6A0AF0EE000A20EE200A8DED58
:101E60000F0A9DED050A3FEE000AF0EE000A20EE93
:101E7000200A8DED0E0A9DED080A30EE6F0A70EE15
:101E80006B0A9DED040A30EE800A8DED0D0AB0EE6E
:101E9000000A69EE800AB6EE000A30EE6B1A9DED7C
:101EA000040A31EE400A20EE800AB0EE4A9AF0EEC3
:101EB000000A69EE200A25E0D0000020D4000020AE
:101EC000D8000020DC00002078080020DB0F49400B
:101ED00000003443E0000020E4000020E80000207F
:101EE000EC000020F0000020F4000020F8000020AA
:101EF000FC00002000010020080100200401002057
:101F00000024F4493BEE6A1A00EE810A8DED0C0ABA
:101F1000B0EE000A29EE801A9DED060ADDED070AF3
:101F200030EE600A21EE000AB0EE4A9AF0EE000AA6
:101F300029EE201ADDED050A7FEE200A01EE200AC7
:101F40008DED0B0AB0EE000A29EE800A7AEE8B0ABC
:101F500020EE200AB0EE4A9AF0EE000A69EE200A5E
:101F6000B6EE001A31EE6F1A31EE6B1A00EE810AEE
:101F70008DED0A0AAF48D0ED000A9DED0D0A60EE26
:101F8000800AAD4890ED001A9DED0E0A41EE400A20
:101F9000AA4890ED001A9DED0A0A21EE001AA84801
:101FA000D0ED001A9DED0B0A01EEC01A30EE81CA89
:101FB000A148D0ED000A9DED0F0A60EE800AA1480D
:101FC00090ED001A9DED0D0A41EE400A9C4890EDFF
:101FD000001A9DED0C0A21EE001A9B48D0ED001A64
:101FE0009DED0A0A01EEC01A70EE81CA9548D0ED47
:101FF000000A9DED0E0A60EE800A8E4890ED001AF0
:102000009DED0F0A41EE400A8F4890ED001A9DEDBC
:102010000B0A21EE001A8948D0ED001A9DED0C0A3A
:1020200001EEC01A30EE81DAB5EEC0CAF1EE10FA58
:1020300057D0F5EEC0CAF1EE10FA52D0B5EEC0DAC4
:10204000F1EE10FA4DD09FED810A6CEE000A804847
:1020500090ED000A00EEA80A80ED000A9FED7B0AD1
:102060006CEE800A7B4890ED000A00EEA80A80ED35
:10207000000A9FED760A6DEE000A774890ED000A9F
:1020800000EEA80A80ED000A744890ED000AF0EE18
:10209000000A00EE8C0A6E48D0ED000A30EE200AED
:1020A0006E4880ED000A6E4890ED000AF0EE000ADE
:1020B00000EEAC0A6748D0ED000A30EE200A68480E
:1020C00080ED000A674890ED000AF0EE000A00EE8D
:1020D0008D0A6148D0ED000A30EE200A614880ED9B
:1020E000000A614890ED000AB1EE400A5B48D0ED6D
:1020F000000A20EE200A5D48D0ED000A584890ED15
:10210000001A00EEC10A5A4890ED001A5548D0ED69
:10211000001AF0EE400A41EE610A564890ED000ABE
:1021200000EEA80A8DED090A90ED000A4B48D0EDAB
:10213000000A20EE200A4D48D0ED000A494890EDF3
:10214000001A00EE810A4A48D0ED000A444890ED9A
:10215000001A00EEC10A4448D0ED000AF0EE60DA41
:1021600040EE28DA434890ED000A3D48D0ED000AE1
:1021700020EE200A3C48D0ED000A3A4890ED001AC3
:1021800000EEC10A3A48D0ED000A344890ED001A3A
:1021900000EE810A3548D0ED000AB0EE60EA00EEAC
:1021A00028EA344890ED000A2E48D0ED000A20EECF
:1021B000200A2D48D0ED000A294890ED001A00EEC3
:1021C000810A2A48D0ED000A244890ED001A00EE5A
:1021D000C10A2748D0ED000AF0EE60EA40EE28EA96
:1021E000DDED090A60EEA00A4DEEAD0A4EEE0E0AD4
:1021F0004EEEAE0AB0EE600A03F042FAB0EE408A4C
:102200009DED090A20EE080A1A4880ED000A2DEE1D
:10221000880A154880ED000A2EEE080A134880ED62
:10222000000A2EEE880A124880ED000A13B0BDECB9
:10223000108B00BDF0000020F4000020FC00002006
:1022400000010020EC000020F80000200AD7233C09
:10225000C4000020C8000020CC000020E0000020C6
:10226000E4000020E8000020D4000020D800002076
:10227000DC000020D00000201FB50E2269463B2064
:1022800000F0F0FE9DF801009DF8001040EA0120EA
:1022900000B2214908809DF803009DF8021040EA31
:1022A000012000B21C4948809DF805009DF80410EB
:1022B00040EA012000B2184988809DF807009DF887
:1022C000061040EA012000B21349C8809DF80900B9
:1022D00012490989401A9DF8081040EA012000B20D
:1022E0000D4908819DF80B000C494989401A9DF859
:1022F0000A1040EA012000B2074948819DF80D000C
:1023000006498989401A9DF80C1040EA012000B264
:10231000014988811FBD0000B8080020CC080020BA
:1023200010B504460C4800F021F8FFF7C3FB0B483A
:1023300090ED000A84ED000A094890ED000A84ED52
:10234000010A084890ED000A84ED020A064890ED63
:10235000000A84ED030A10BD78080020D000002098
:10236000D4000020D8000020DC00002030B585B06B
:1023700005460DF1120004A9031F03AACDE90010C0
:10238000891F02A800F0BAFEBDF80800264908809F
:10239000BDF80A004880BDF80C008880BDF80E002A
:1023A0000881BDF810004881BDF81200888195EDC4
:1023B000060ABDEEC00A10EE100A00B2C88195ED03
:1023C000070ABDEEC00A10EE100A00B2088295EDB1
:1023D000080ABDEEC00A10EE100A00B248820024BE
:1023E0001DE0032C0BDA02A830F9140000EE100AED
:1023F000B8EEC00A05EB840080ED000A0EE002A8EA
:1024000030F9140000EE100AB8EEC00ADFED070A3A
:1024100080EE201A05EB840080ED001A641C062C67
:10242000DFDB05B030BD0000640900203333034218
:1024300010B52DED108B04468D48FFF771FF8D48C8
:102440000068FEF768F841EC190B894890ED020A24
:10245000F8EE000A20EE200AD0ED020A20EE200A53
:10246000D0ED030AB0EE001A60EE810A90ED031A77
:1024700000EEC10AF7EE000A30EE200A10EE101A44
:102480000846FEF748F841EC1E0B794890ED010A2A
:10249000F0EE000A20EE200AD0ED020A20EE200A1B
:1024A000D0ED000AB0EE001A60EE810A90ED031A3A
:1024B00000EE810A10EE101A0846FEF72CF841ECE7
:1024C0001F0BB0EE4E1AF0EE6E1AB0EE4F0AF0EEA1
:1024D0006F0A02F0ADFEB0EE40DAF0EE60DA51ECD9
:1024E0001D0B81F0004141EC1C0B9FED630B53EC85
:1024F000102BFDF71EFF41EC1B0B9FED610B53EC06
:10250000102BFDF788FF41EC1A0B53EC192BFDF74C
:1025100069FE41EC180BFEF741F800EE100A84ED5D
:10252000000A534890ED010AF8EE000A20EE200A56
:10253000D0ED030A20EE200AD0ED000AB0EE001A1A
:1025400060EE810A90ED021A00EE810A10EE101A78
:102550000846FDF7E0FF41EC1C0BB0EE4C0AF0EE34
:102560006C0A02F049FBB0EE40BAF0EE60BA51ECF2
:102570001B0B81F0004141EC1A0B9FED3F0B53EC1C
:10258000102BFDF7D6FE41EC190B9FED3D0B53ECE4
:10259000102BFDF740FF41EC180BFDF7FFFF00EE9D
:1025A000100A84ED010A324890ED010AF8EE000AA3
:1025B00020EE200AD0ED010A20EE200AD0ED020A1A
:1025C000B0EE001A60EE810A90ED021A00EEC10A28
:1025D000F7EE000A30EE200A10EE101A0846FDF75A
:1025E0009AFF41EC1B0B224890ED020AF0EE000A24
:1025F00020EE200AD0ED030A20EE200AD0ED000ADA
:10260000B0EE001A60EE810A90ED011A00EE810A28
:1026100010EE101A0846FDF77EFF41EC1C0BB0EEE1
:102620004B1AF0EE6B1AB0EE4C0AF0EE6C0A02F0A8
:10263000FFFDB0EE40AAF0EE60AA9FED0F0B53EC49
:10264000102B51EC1A0BFDF774FE41EC190B9FEDAA
:102650000C0B53EC102BFDF7DEFE41EC180BFDF7D5
:102660009DFF00EE100A84ED020ABDEC108B10BD38
:102670009C0800203001002000000000008066401F
:1026800000000060FB21094010B530216A2000F0F5
:1026900017FD0A2002F0DAFF0D21242000F010FDC2
:1026A0000A2002F0D3FF0E21282000F009FD0A20A5
:1026B00002F0CCFF8E21312000F002FD0A2002F052
:1026C000C5FF01210B2000F075F8002000F055F83F
:1026D000102801D0012010BD0A2002F0B7FF002110
:1026E0000A2000F067F80A2000F047F808B102203D
:1026F000F1E70A2002F0AAFF00210B2000F05AF8AF
:102700000B2000F03AF808B10320E4E70A2002F0B9
:102710009DFF2421412000F04DF8412000F02DF8CC
:10272000242801D00420D6E70A2002F08FFFC02120
:10273000422000F03FF8422000F01FF8C02801D0EE
:102740000520C8E70A2002F081FF00212A2000F0BE
:10275000B7FC0A2002F07AFF0021342000F0B0FC20
:102760000A2002F073FF062203210E2000F008FD6C
:10277000642002F06BFF0020ADE770B504462146EF
:10278000322000F09DFC0A2002F060FF80213420FE
:1027900000F096FC0A2002F059FF352000F03EFCC4
:1027A00005460021342000F08BFC0A2002F04EFF89
:1027B000284670BD70B504460D4600212A2000F061
:1027C0007FFC022002F042FF2146292000F078FC25
:1027D000022002F03BFF2946642000F071FC022039
:1027E00002F034FF81212A2000F06AFC0A2002F066
:1027F0002DFF70BD40B52DED048B002C45DA002D6A
:1028000043DA94FBF5F63046FDF774FE41EC190B04
:10281000B0EE490AF0EE690A02F002FEB0EE408A1C
:10282000F0EE608A9FED860B53EC102B51EC180BE9
:10283000FDF79CFE14D89FED840A844880ED000AC1
:102840009FED830A834880ED000A9FED830A834849
:1028500080ED000A9FED820A824880ED000AEBE0DD
:102860009FED810A794880ED000A9FED800A794842
:1028700080ED000A9FED7E0A784880ED000A9FED0A
:102880007D0A784880ED000AD6E0002C45DA002D5C
:1028900043DD94FBF5F63046FDF72CFE41EC190BB9
:1028A000B0EE490AF0EE690A02F0BAFDB0EE408AD5
:1028B000F0EE608A9FED620B53EC102B51EC180B7D
:1028C000FDF754FE14D89FED6C0A604880ED000AB5
:1028D0009FED5F0A5F4880ED000A9FED680A5F4840
:1028E00080ED000A9FED660A5E4880ED000AA3E0D5
:1028F0009FED610A554880ED000A9FED620A554838
:1029000080ED000A9FED600A544880ED000A9FEDBB
:102910005F0A544880ED000A8EE0002C45DD002D52
:1029200043DD94FBF5F63046FDF7E4FD41EC190B71
:10293000B0EE490AF0EE690A02F072FDB0EE408A8C
:10294000F0EE608A9FED3E0B53EC102B51EC180B10
:10295000FDF70CFE14D89FED4E0A3C4880ED000AAE
:102960009FED460A3B4880ED000A9FED390A3B483F
:1029700080ED000A9FED340A3A4880ED000A5BE0E2
:102980009FED440A314880ED000A9FED3F0A31482F
:1029900080ED000A9FED3B0A304880ED000A9FED74
:1029A0003D0A304880ED000A46E0002C44DD002D51
:1029B00042DA94FBF5F63046FDF79CFD41EC190B2D
:1029C000B0EE490AF0EE690A02F02AFDB0EE408A44
:1029D000F0EE608A9FED1A0B53EC102B51EC180BA4
:1029E000FDF7C4FD14D89FED2C0A184880ED000AAD
:1029F0009FED2A0A174880ED000A9FED150A174837
:102A000080ED000A9FED260A164880ED000A13E0CB
:102A10009FED210A0D4880ED000A9FED150A0D4833
:102A200080ED000A9FED1F0A0C4880ED000A9FED23
:102A30001E0A0C4880ED000ABDEC048B40BD00006E
:102A4000000000000000F03F0AD7A3BBD000002028
:102A5000A8C64BBED4000020BE9F7A3FD8000020FD
:102A60004ED111BCDC0000206F1203BC7B140EBFE2
:102A7000E17A543F6F1203BB0AD7A33B355E7ABF9E
:102A8000A69B443C68910DBFE17A54BF99BB16BB2D
:102A900052499D3A99BB163B0AD7233B355E7A3F94
:102AA0006F12033C295C0FBFBC74933B1CB5012122
:102AB000202000F07FFE0121102000F07BFE01218C
:102AC000402000F077FE8020009001208DF8040067
:102AD00000208DF8060003208DF805006946164891
:102AE000FEF73AFE4FF48040009001208DF804007C
:102AF00000208DF8060003208DF8050069460F4878
:102B0000FEF72AFE4FF40050009002208DF80400DA
:102B100000208DF8060003208DF80500694608485E
:102B2000FEF71AFE80210448FEF783FE4FF4804131
:102B30000248FEF77EFE1CBD001002400014024059
:102B4000001802400021016070470000F8B50446FB
:102B50000D4616461F4600EE104AB8EEC00A6848F9
:102B600080ED000A674890ED000A654880ED010A93
:102B700000EE105AB8EEC00A634880ED000A6348C0
:102B800090ED000A604880ED010A00EE106AB8EE90
:102B9000C00A5F4880ED000A5E4890ED000A5C487C
:102BA00080ED010A00EE107AB8EEC00A5A4880EDB6
:102BB000000A5A4890ED000A574880ED010A504833
:102BC00000F0E2FC504800F0DFFC514800F0DCFC73
:102BD000514800F0D9FC4A4890ED0E0ADFED500A4A
:102BE000B4EEE00AF1EE10FA03DB9FED4D0A80ED42
:102BF0000E0A434890ED0E0ADFED4A0AB4EEE00AF1
:102C0000F1EE10FA03D89FED470A80ED0E0A3E4818
:102C100090ED0E0ADFED420AB4EEE00AF1EE10FA92
:102C200003DB9FED3F0A80ED0E0A374890ED0E0A58
:102C3000DFED3C0AB4EEE00AF1EE10FA03D89FEDA6
:102C4000390A80ED0E0A324890ED0E0ADFED340AA3
:102C5000B4EEE00AF1EE10FA03DB9FED310A80EDED
:102C60000E0A2B4890ED0E0ADFED2E0AB4EEE00AB4
:102C7000F1EE10FA03D89FED2B0A80ED0E0A2648DC
:102C800090ED0E0ADFED260AB4EEE00AF1EE10FA3E
:102C900003DB9FED230A80ED0E0A1F4890ED0E0A1C
:102CA000DFED200AB4EEE00AF1EE10FA03D89FED52
:102CB0001D0A80ED0E0A184890ED0E0ABDEEC00AFE
:102CC00010EE100A00B20090114890ED0E0ABDEE11
:102CD000C00A10EE100A03B20B4890ED0E0ABDEECA
:102CE000C00A10EE100A02B2054890ED0E0ABDEEC1
:102CF000C00A10EE100A01B20B4801F085F9F8BDC8
:102D00004003002098000020940300209C00002035
:102D1000E8030020A00000203C040020A4000020C4
:102D200000409C4500409CC5006400402DE9F043F4
:102D300004460D46DDE9076700200021012041E03F
:102D4000DFF8D8C13CF81080A0F1010CDFF8CC917D
:102D500029F81C8009F1160C3CF81090A0F1010C28
:102D6000DFF8B88108F1160828F81C9008F1160C55
:102D70003CF81090A0F1010C08F1160828F81C90FE
:102D800008F1160C3CF81090A0F1010C08F116089F
:102D900028F81C9008F1160C3CF81090A0F1010CDA
:102DA00008F1160828F81C9008F1160C3CF8109051
:102DB000A0F1010C08F1160828F81C9000F1010C94
:102DC0000CF0FF000A28BBDBDFF850C1ACF8124062
:102DD000ACF82850ACF83E20ACF85430ACF86A603F
:102DE000ACF88070002008E0DFF830C13CF910C07A
:102DF000614400F1010C0CF0FF000A28F4DB4FF0F5
:102E00000A0C91FBFCFC0FFA8CFCDFF81081A8F88F
:102E100014C0002100200AE0DFF800C10CF1160CFC
:102E20003CF910C0614400F1010C0CF0FF000A28CD
:102E3000F2DB4FF00A0C91FBFCFC0FFA8CF8DFF888
:102E4000DCC0ACF82A80002100200AE0DFF8CCC00A
:102E50000CF12C0C3CF910C0614400F1010C0CF099
:102E6000FF000A28F2DB4FF00A0C91FBFCFC0FFA82
:102E70008CF8DFF8A8C0ACF84080002100200AE000
:102E8000DFF898C00CF1420C3CF910C0614400F12D
:102E9000010C0CF0FF000A28F2DB4FF00A0C91FB4A
:102EA000FCFC0FFA8CF8DFF874C0ACF856800021F7
:102EB00000200AE0DFF864C00CF1580C3CF910C0A7
:102EC000614400F1010C0CF0FF000A28F2DB4FF026
:102ED0000A0C91FBFCFC0FFA8CF8DFF840C0ACF850
:102EE0006C80002100200AE0DFF830C00CF16E0C8D
:102EF0003CF910C0614400F1010C0CF0FF000A28FD
:102F0000F2DB4FF00A0C91FBFCFC0FFA8CF8DFF8B7
:102F10000CC0ACF88280BDE8F0830000E00800201F
:102F200010B588B04020069001208DF81C000020CC
:102F30008DF81E008DF81F0003208DF81D0006A9D6
:102F40001348FEF709FCFFF79FFB002418221149E4
:102F50006846FDF735F9642002F078FB752000F033
:102F60005DF80D49087000BF0CE06A4602EB4402B0
:102F700051781DF8140000F0A3F8012002F066FB60
:102F8000601CC4B20C2CF0DB002008B010BD0000A7
:102F900000140240845900083901002000B585B0B2
:102FA0000121880300F036FC0121102000F002FC12
:102FB0000220039000208DF810008DF812000120EF
:102FC0008DF8130002208DF8110003A91248FEF7B6
:102FD000C3FB0121042000F067FF022000900020C5
:102FE0008DF804000C208DF8050001208DF80600F6
:102FF0006846FEF75FFB07208DF8080002208DF879
:10300000090000208DF80A0001208DF80B0002A8AD
:1030100000F074FA05B000BD0010024010B504467F
:1030200040210D48FEF703FC44F080000B49087076
:103030000846007800F0E2FE094908700748007869
:1030400000F0DCFE0649087040210348FEF7F1FB62
:103050000348007810BD0000001402403C0100202D
:103060003B0100202DE9F04105460E46174600249D
:1030700040211048FEF7DBFB45F080000E49087048
:10308000084600780D4908700B48007800F0B6FE3D
:1030900000BF05E00949085D00F0B0FE3055641C32
:1030A000BC42F7DB40210348FEF7C3FB0020BDE82C
:1030B000F0810000001402403D0100203E0100208C
:1030C00070B505460C4640210A48FEF7B0FB05F0F6
:1030D0007F00094908700846007800F08FFE064816
:1030E0000470007800F08AFE40210248FEF7A1FB40
:1030F000002070BD001402403A0100202DE9FC4779
:1031000004460D4616461F46DDE90A890020194986
:103110000870FFF7B1F81848B0F90C001649B1F97A
:103120000A10DFF854C0CDE90010BCF90830BCF932
:103130000420BCF90210BCF90000FFF7F7FD0F48AE
:10314000808A20800D48408D28800C48B0F84000CF
:1031500030800A48B0F8560038800848B0F86C0053
:10316000A8F800000548B0F88200A9F80000BDE802
:10317000FC87000038010020B8080020E00800208B
:1031800070B504460E46154621462820FFF798FFE5
:10319000022002F05BFA0A212920FFF791FF0220AA
:1031A00002F054FA01216420FFF78AFF022002F0A6
:1031B0004DFA44F080012520FFF782FF022002F043
:1031C00045FA31462620FFF77BFF022002F03EFA47
:1031D00003213420FFF774FF022002F037FA0321A5
:1031E0006720FFF76DFF022002F030FA81212A20CC
:1031F000FFF766FF062002F029FA45F0800127203C
:10320000FFF75EFF072002F021FA70BD00BFFEE766
:1032100070B504460D46FEF7EBFB002878D0287801
:1032200000F0100040B14FF42570664908804FF45B
:1032300048706549088007E04FF4FA7061490880DA
:103240004FF42F7060490880287800F0010090B199
:103250005E48016988475B48008800EE900AF8EEF6
:10326000600A20EE200ABDEEC00A10EE100A00B27D
:10327000574908801AE0287800F0020098B15348B6
:10328000016988474F480088404200EE900AF8EEF6
:10329000E00A20EE200ABDEEC00A10EE100A00B2CD
:1032A0004B49088002E0002049490880287800F056
:1032B000040098B147480169884743480088404264
:1032C00000EE900AF8EEE00A20EE200ABDEEC00AF9
:1032D00010EE100A00B23E49488019E0287800F04C
:1032E000080090B13B48016988473748008800EEE4
:1032F000900AF8EE600A20EE200ABDEEC00A10EE39
:10330000100A00B23249488002E00020304948806B
:10331000FEF76EFB02283CD1B4F9000010F1960FC5
:1033200003DC6FF09500208005E0B4F900009628DA
:1033300001DB96202080B4F9020010F1960F03DC27
:103340006FF09500608005E0B4F90200962801DB7B
:1033500096206080204890ED000AB4F9020000EE4B
:10336000900AF8EEE00A9FED1D1A00EEC10A1A4815
:1033700080ED000A90ED010AB4F9000000EE900A19
:10338000F8EEE00A9FED151A00EE810A124880ED72
:10339000010AB4F9020000EE100AB8EEC00A0E48A5
:1033A00080ED040AB4F9000000EE100AB8EEC00A7D
:1033B000094880ED050AFEF725FB204600F010F8CD
:1033C00070BD0000BC050020BE0500209405002053
:1033D0004005002070050020840B0020CDCCCC3CA3
:1033E00070B5044600253F48007820B1012812D06E
:1033F000022873D14FE0E07960B9607A012809D1E1
:10340000002000F085FD3848816988470120354952
:103410000870002562E0607A012802D1681C05B2BC
:1034200000E00025322D0FDD00202E4908704FF4FA
:103430007A702E490860091D08602B488169884709
:10344000002000F065FD25E0274801698847DFED91
:10345000280A9FED281A41EE000ABCEEE00A10EEA1
:10346000100A22490860204801698847DFED200AD8
:103470009FED201A41EE000ABCEEE00A10EE100AA1
:103480001A49091D08601848016A884710B10220CE
:103490001449087022E0607A012802D1681C05B244
:1034A00000E00025322D0FDD00200E4908704FF49A
:1034B0007A700E490860091D08600B4881698847C9
:1034C000002000F025FD08E0207A012802D100F05C
:1034D0001FFD02E0002000F01BFD00BF00BF607A6E
:1034E000E07170BD480500204C050020340C004000
:1034F00000007A44000016447047000070B50021B7
:1035000000230F22C4781CB3174C246804F4E06431
:10351000C4F5E064C4F30721C1F10404E3B20A4135
:1035200044789C40E1B28478144021430C07210E7A
:103530000E4C05786155047804F01F050124AC4059
:1035400005786D11AD0005F1E025C5F8004109E0F1
:10355000047804F01F050124AC40054D067876116F
:1035600045F8264070BD00000CED00E000E400E0EE
:1035700080E100E002490143024A11607047000007
:103580000000FA050CED00E090ED030A80ED020A60
:1035900090ED000AD0ED010A30EE600A80ED030ADA
:1035A00090ED040AD0ED030A30EE200A80ED040A03
:1035B00090ED060AD0ED0C0AF1EE600AB4EEE00AD6
:1035C000F1EE10FA06D890ED0C0AB1EE400A80ED4B
:1035D000060A0CE090ED060AD0ED0C0AB4EEE00A03
:1035E000F1EE10FA03DB90ED0C0A80ED060A90ED87
:1035F000050AD0ED030A20EE200AD0ED060A90ED70
:10360000041A00EE810AD0ED030A90ED021A70EE62
:10361000C10A90ED071A01EE200A80ED0E0A90ED26
:103620000E0AD0ED0F0AF1EE600AB4EEE00AF1EEF8
:1036300010FA06D890ED0F0AB1EE400A80ED0E0A9E
:103640000CE090ED0E0AD0ED0F0AB4EEE00AF1EEB8
:1036500010FA03DB90ED0F0A80ED0E0A70470000B0
:103660009FED080A80ED020A9FED060A80ED030A2D
:103670009FED040A80ED040A9FED020A80ED0E0A18
:10368000704700000000000000B58BB00121084623
:1036900000F090F80121082000F09CF801210804B6
:1036A00000F0B8F80720099002208DF828000320C8
:1036B0008DF8290009A93B48FEF74EF802220021A7
:1036C0003848FEF791F8022201213648FEF78CF8BF
:1036D000032202213348FEF787F85320ADF8180083
:1036E0000020ADF81A0044F6206007900020ADF8E5
:1036F000200006A92C4800F093FEA720ADF8180082
:103700000020ADF81A004FF47A7007900020ADF851
:10371000200006A9254800F083FE7020ADF80400C3
:103720000120ADF806000020ADF808004FF47A70D3
:1037300003900220ADF810000020ADF81200ADF8A3
:1037400014004FF48070ADF8160001A9164800F07F
:10375000BFFD01A9144800F003FE0020039001A959
:10376000124800F0B5FD08210F4800F0EFFD0821D8
:103770000D4800F047FE08210C4800F0E7FD01214C
:10378000094800F06DFD0121084800F069FD0121A4
:10379000054800F077FD0121044800F073FD0BB0EF
:1037A00000BD000000000240000C0040004001404D
:1037B0007047000029B1064A12680243044B1A60A0
:1037C00004E0034A12688243014B1A60704700000C
:1037D0003038024029B1064A12680243044B1A608D
:1037E00004E0034A12688243014B1A6070470000EC
:1037F0004038024029B1064A12680243044B1A605D
:1038000004E0034A12688243014B1A6070470000CB
:103810002038024029B1064A12680243044B1A605C
:1038200004E0034A12688243014B1A6070470000AB
:103830004438024029B1064A12680243044B1A6018
:1038400004E0034A12688243014B1A60704700008B
:1038500024380240F0B50021002200240225002671
:103860000223324F3F6807F00C0121B1042905D033
:10387000082937D105E02E4F076036E02D4F07604D
:1038800033E02A4F3F1F3F68C7F38056274F3F1F43
:103890003F6807F03F036EB1264FB7FBF3F7DFF841
:1038A0008CC0ACF1040CDCF800C0CCF3881C07FB26
:1038B0000CF40CE01E4FB7FBF3F7DFF870C0ACF16F
:1038C000040CDCF800C0CCF3881C07FB0CF4174F89
:1038D0003F1F3F68C7F301477F1C7D00B4FBF5F72E
:1038E000076002E0124F076000BF00BF0F4F3F6844
:1038F00007F0F0010909104F7A5C0768D74047606C
:103900000A4F3F6807F4E051890A0B4F7A5C476819
:10391000D7408760054F3F6807F46041490B064F69
:103920007A5C4768D740C760F0BD000008380240A5
:103930000024F400001BB700B40000200168491CFB
:103940000160D0E9001291420ADA90ED000AF8EE27
:10395000C00A90ED010AB8EEC01A80EE810A7047E5
:10396000B7EE000AFBE770470146D1E9000290423A
:1039700001DA002070470120FCE700210160704758
:10398000016070474160704710B50446FEF730F89B
:10399000B8B3B4F90200A0F5806000EE100AB8EEEA
:1039A000C00AF7EE000A20EE200ABDEEC00A10EEB3
:1039B000100A00B268490880B4F90000A0F58060E0
:1039C00000EE100AB8EEC00AF7EE000A20EE200A58
:1039D000BDEEC00A10EE100A00B24880B4F904002F
:1039E000A0F5806000EE100AB8EEC00AF7EE000AFB
:1039F00020EE200ABDEEC00A10EE100A00B2C88008
:103A000004E0FFE70020544908804880FDF7F0FFFC
:103A1000022842D1514890ED000AB4F90600A0F501
:103A2000806000EE900AF8EEE00A9FED4D1A00EE7D
:103A3000810A4A4880ED000A4A48007A02286DD07F
:103A4000494890ED100ADFED490AB4EEE00AF1EEC4
:103A500010FA23DDB4F90400A0F5806000EE100A2E
:103A6000B8EEC00ADFED3E0A20EE200AB5EEC00A2D
:103A7000F1EE10FA52DD394890ED010AB4F9040074
:103A8000A0F5806000EE900AF8EEE00A9FED341A8F
:103A900000EE810A314880ED010A3FE0324890EDA6
:103AA000100ADFED330AB4EEE00AF1EE10FA23D289
:103AB000B4F90400A0F5806000EE100AB8EEC00A68
:103AC000DFED270A20EE200AB5EEC00AF1EE10FA6B
:103AD00024D2224890ED010AB4F90400A0F58060D8
:103AE00000EE900AF8EEE00A9FED1D1A00EE810A42
:103AF0001A4880ED010A11E0184890ED010AB4F966
:103B00000400A0F5806000EE900AF8EEE00A9FED58
:103B1000141A00EE810A114880ED010AB4F906007A
:103B2000A0F5806000EE100AB8EEC00A0B4880EDE8
:103B3000040AB4F90400A0F5806000EE100AB8EEA3
:103B4000C00A064880ED050AFDF75CFF217A0948A6
:103B500000F07EF810BD000040050020840B00201E
:103B60006F12833B6C0B0020BC0A002000007042E7
:103B7000000070C29C0B002010B5044604B910BDB3
:103B80002078617840EA0120C0F30A002F490880BC
:103B90006078C010A17840EA4110C0F30A002B49B8
:103BA0004880A0788011E17840EA8100217940EADC
:103BB0008120C0F30A00254988802079401061796E
:103BC00040EAC110C0F30A002049C88060790011A2
:103BD000800808726079C0F301104872A079E17919
:103BE00040EA012000B219494881207A617A40EA0E
:103BF000012001B215488181A07AE17A40EA0120D2
:103C000001B21248C181217B8174617BC174A07BA8
:103C10000E498882084600F067F9FDF715FE012875
:103C200004D002280DD003280CD103E00748FFF789
:103C3000ABFE07E005491431A1F10A00FFF7E8FAED
:103C400000E000BF00BF00BF99E700006C0B002040
:103C500070B504460D4629462046FDF78BFE3748D1
:103C6000007820B101280FD0022865D146E06078A5
:103C70000D2808D1002000F04BF9314881698847B0
:103C800001202E49087057E060780D280FD10020E0
:103C900000F03EF94FF47A702A490860091D086067
:103CA00000202649087026488169884725E0244875
:103CB00001698847DFED240A9FED241A41EE000ACE
:103CC000BCEEE00A10EE100A1E4908601C480169AB
:103CD0008847DFED1D0A9FED1D1A41EE000ABCEE7C
:103CE000E00A10EE100A1749091D08601448016A1D
:103CF000884710B10220114908701DE060780D2836
:103D00000FD100200D4908704FF47A700D490860FA
:103D1000091D08600A4881698847002000F0F8F80A
:103D200009E02078022803D1012000F0F1F802E038
:103D3000002000F0EDF800BF00BF70BD4805002076
:103D40004C050020340C004000007A44000016446A
:103D500000B587B001212020FFF72CFD01210805C7
:103D6000FFF758FD4FF46070059002208DF81800A1
:103D700000208DF81A0003208DF8190000208DF81E
:103D80001B0005A91B48FDF7E7FC05220721194880
:103D9000FDF72AFD052208211648FDF725FD05221D
:103DA00009211448FDF720FD0020ADF800004FF474
:103DB0008270ADF802000020ADF80400ADF80600F6
:103DC000ADF808004FF40070ADF80A003820ADF8E7
:103DD0000C000020ADF80E000A20ADF81000694676
:103DE000054800F041F80121034800F023F807B02E
:103DF00000BD0000001402400050014010B5044610
:103E000000BF02210A4800F021F80028F9D021461D
:103E1000074800F027F800BF0121054800F016F818
:103E20000028F9D0024800F01AF8C0B210BD000016
:103E30000050014021B1028842F04002028004E0BB
:103E400002884FF6BF731A40028070470246002076
:103E500013890B400BB1012000E0002070470146A0
:103E6000888970478181704710B50022028802F46A
:103E700041520B884C8823438C882343CC882343AE
:103E80000C8923434C8923438C892343CC892343C6
:103E90001A430280838B4FF2FF74234083830B8A83
:103EA000038210BD7047000030B500228B071C0F45
:103EB0000F2303FA04F20B4B8C1053F82430934376
:103EC000084C8D1044F8253023468C1053F82430CC
:103ED0008C07240F00FA04F42343024C8D1044F89D
:103EE000253030BD08380140417A012902D1074A06
:103EF00011700AE0417A032902D1044A117004E0EA
:103F0000417A022901D1014A117070474A05002007
:103F10000149087070470000490500200CB50020D9
:103F2000019000903448006840F4803032490860C5
:103F300000BF3148006800F4003000900198401C38
:103F40000190009818B90198B0F5A04FF1D12A4816
:103F5000006800F4003010B10120009001E0002062
:103F600000900098012846D123484030006840F076
:103F700080502149403108602048006840F44040AA
:103F80001E4908601C48083000681B490831086059
:103F90000846006840F4004008600846006840F4A5
:103FA000A05008601648091F0860081F006840F00C
:103FB0008070091F086000BF0F48006800F00070A3
:103FC0000028F9D040F205600E4908600A48083020
:103FD000006820F0030008490831086008460068BE
:103FE00040F00200086000BF03480830006800F09D
:103FF0000C000828F8D10CBD0038024000700040C9
:104000000C544007003C02402DE9F04186B0804648
:104010000C4615461E460C9F4FF400700190002080
:104020008DF80C008DF80D0008208DF80E00200A88
:104030008DF80F008DF81040290A8DF811108DF8B9
:104040001250310A8DF813108DF81460390A8DF86A
:1040500015108DF8167001A94046FDF7CAF806B094
:10406000BDE8F08110B51548006840F470001349B0
:1040700008601348006840F0010011490860002002
:104080000F49083108600E4800680E4908400C4985
:1040900008600D48091D0860081F006820F4802092
:1040A000091F0860002006490C310860FFF736FF41
:1040B0004FF0006001498039086010BD88ED00E0D4
:1040C00000380240FFFFF6FE103000240EB501213B
:1040D0000846FFF77FFB4FF0FF300190A720ADF8B7
:1040E00000000020ADF80200ADF8080001218807AB
:1040F00000F0B6F869464FF0804000F091F90121D8
:10410000880700F0BFF80EBD10B50121880700F048
:10411000C5F838B10121880700F0B1F801218807FE
:1041200000F0AAF810BD00001FB501210420FFF720
:1041300051FB1E208DF8000001208DF801008DF844
:1041400002008DF803006846FFF7D8F940F2E73027
:1041500002905320ADF804000020ADF80600ADF841
:104160000C0001A9064800F05BF901221146044841
:1041700000F0A5F80121024800F084F81FBD0000FE
:104180000008004010B501210D4800F087F8A8B1E3
:104190000C480068012807D10B480068401C0A49F8
:1041A000086001F045FB01E001F0E3FB0121044858
:1041B00000F065F80121024800F05EF810BD000033
:1041C0000008004060010020480000201FB50121C8
:1041D0001020FFF7FFFA36208DF8000001208DF83F
:1041E000010000208DF8020001208DF803006846D0
:1041F000FFF784F940F2E73002905320ADF8040055
:104200000020ADF80600ADF80C0001A9014800F04F
:1042100007F91FBD0010004010B50121064800F04D
:104220003DF838B10121044800F029F80121024885
:1042300000F022F810BD00000010004010B5012170
:10424000064800F01FF801221146044800F037F834
:104250000121024800F010F810BD000000100040DD
:1042600021B1028842F08002028004E002884FF609
:104270007F731A4002807047CA4302827047CA4364
:104280000282704721B1028842F00102028004E0FC
:1042900002884FF6FE731A400280704730B502461E
:1042A000002000230024158A05EA0103958905EA08
:1042B000010413B10CB1012000E0002030BD1AB19F
:1042C00083890B43838102E083898B438381704719
:1042D00070B5002400220023058C4FF6FE76354091
:1042E0000584028C8388048B4FF68F752C40B51E95
:1042F0002C400D882C43751E2A408D892A434D88F9
:104300002A43104DA84202D00F4DA84213D14FF6B8
:10431000F7752A40CD892A434FF6FB752A408D88D0
:104320002A434FF6FF652B404FF6FF552B400D8A71
:104330002B434D8A2B43838004838D68456302841D
:1043400070BD000000000140000401400A46002149
:10435000018B4FF6F773194011430183704700003A
:1043600070B5002400220023058C4FF6EF7635400F
:104370000584028C8388048B48F6FF752C404FF629
:10438000FF452C400D884FF6FF7606EA05252C43A5
:104390004FF6DF752A408D8906EA05152A434D88B8
:1043A00006EA05152A43154DA84202D0144DA8422D
:1043B0001DD14FF67F752A40CD894FF6FF7606EA6C
:1043C00005152A434FF6BF752A408D8806EA051564
:1043D0002A434FF6FF352B404FF2FF752B400D8AD5
:1043E00006EA85052B434D8A06EA85052B43838023
:1043F00004838D688563028470BD00000000014065
:10440000000401400A460021018B4FF2FF7319405E
:104410004FF6FF7303EA022319430183704700003C
:1044200000220288184B98420ED0184B98420BD0AD
:10443000B0F1804F08D0164B984205D0154B9842EA
:1044400002D0154B984204D14FF68F731A404B8817
:104450001A43124B984207D0114B984204D04FF6A2
:10446000FF431A400B891A4302804B68C3620B88D2
:104470000385054B984202D0044B984201D18B7AB8
:10448000038601238382704700000140000401403D
:104490000004004000080040000C004000100040F4
:1044A0000014004000B597B001210220FFF782F907
:1044B00001218805FFF77EF901211020FFF7AAF9F5
:1044C000072211464248FDF78FF915A8FDF7B3F909
:1044D0008020159002208DF8580000208DF859009A
:1044E00001208DF85B0015A93948FDF735F93948E9
:1044F00000F038FA11A800F059FB3748119000205D
:10450000ADF84800ADF84A004FF48060ADF84C00BB
:104510000420ADF84E000020ADF8500011A92D4840
:1045200000F0D6FA012240212A4800F011FA2B4867
:10453000FCF706FF01A8FDF701F84FF000600190BD
:104540002448001D029026480390002004901E205D
:104550000590002006904FF480600790002008909E
:1045600009904FF480700A9000020B9000200C908C
:104570000D900E900F9001A91848FCF7B3FF002290
:1045800017491E311548FCF792FF01211348FCF72B
:1045900083FF01211148FCF7C8FE25208DF840005B
:1045A00000208DF841008DF8420001208DF8430075
:1045B00010A8FEF7A3FF012240F22441054800F0B5
:1045C00062FA0121034800F0B7F917B000BD0000FE
:1045D0000004024000100140A08601004064024037
:1045E000FA07002010B540F224412E4800F021FACD
:1045F000002855D02B4800882A4880882A48FCF794
:1046000066FF30BB00212848FCF78FFE2648FCF7E8
:104610005AFFC0F11E00254908601E202249091DCD
:104620000860081F006840F40020091F086001218D
:104630001D48FCF77AFE1D480068122830D11C483E
:10464000FFF79AFA0020FDF705F90446FEF77AFA1B
:1046500026E000211448FCF768FE1348FCF733FFFE
:10466000C0F11E00114908601E200F49091D086095
:10467000081F006820F40020091F086001210A4873
:10468000FCF753FE09480068122809D108481E307B
:10469000FFF772FA0020FDF7DDF80446FEF752FA44
:1046A00010BD000000100140406402406400002082
:1046B000FA07002000B587B001210820FFF77AF83B
:1046C00001214804FFF786F8072205212248FDF75B
:1046D0008BF8072206212048FDF786F86020059018
:1046E00002208DF818008DF8190000208DF81A00AE
:1046F0008DF81B0005A91848FDF72EF84FF4E1309E
:1047000001900020ADF80800ADF80A00ADF80C00EB
:10471000ADF810000C20ADF80E0001A90F4800F014
:10472000D7F901210D4800F007F9012240F2255187
:104730000A4800F0A8F926208DF8000002208DF824
:1047400001008DF8020001208DF803006846FEF795
:10475000D5FE07B000BD0000000C02400044004040
:1047600010B52348008800F0080020B12049091D39
:104770000988C8B200BF1E48008800F08000F0B170
:104780001B480C30008800F08000C0B11948017847
:104790000078401C174A10701748405C1449091DE6
:1047A00008801046007815490978884207D11048DA
:1047B0000C30008820F080000D490C3108800C4836
:1047C000008800F0200038B10948001D0088C4B2FC
:1047D0002046FCF7C5FE00BF0821054800F0E2F9BD
:1047E00000BF4021024800F017F90128F9D110BD9F
:1047F0000044004008060020E50B002009060020C8
:1048000000B587B001210820FEF7D4FF01218804FC
:10481000FEF7E0FF072208212248FCF7E5FF072208
:1048200009212048FCF7E0FF4FF44070059002207A
:104830008DF818008DF8190000208DF81A008DF8F9
:104840001B0005A91748FCF787FF4FF4E1300190E2
:104850000020ADF80800ADF80A00ADF80C00ADF886
:1048600010000C20ADF80E0001A90F4800F030F93F
:1048700001210D4800F060F8012240F225510A485C
:1048800000F001F927208DF8000003208DF80100C9
:104890008DF8020001208DF803006846FEF72EFE19
:1048A00007B000BD000C02400048004010B51E4893
:1048B000008800F0080020B11B49091D0988C8B212
:1048C00000BF1948008800F08000F0B116480C3095
:1048D000008800F08000C0B1144801780078401CC6
:1048E000124A10701248405C0F49091D088010469A
:1048F000007810490978884207D10B480C300088AD
:1049000020F0800008490C3108800748008800F03A
:10491000200038B10448001D0088C4B22046FCF7CE
:104920001FFE00BF10BD0000004800400806002028
:10493000E50B00200906002021B1828942F40052D3
:10494000828104E082894DF6FF731A4082817047AC
:104950001AB1838A0B43838202E0838A8B4383826A
:104960007047000010B504462548844208D1012153
:104970001020FEF75FFF00211020FEF75BFF3EE0F6
:104980002048844209D101214804FEF733FF002169
:104990004FF40030FEF72EFF31E01B48844209D16E
:1049A00001218804FEF726FF00214FF48020FEF746
:1049B00021FF24E01548844209D10121C804FEF7F3
:1049C00019FF00214FF40020FEF714FF17E01048F4
:1049D000844209D101210805FEF70CFF00214FF4A4
:1049E0008010FEF707FF0AE00A48844207D1012140
:1049F0002020FEF71FFF00212020FEF71BFF10BD27
:104A0000001001400044004000480040004C0040BD
:104A1000005000400014014002460020B1F5007F24
:104A200000D100BF13880B400BB1012000E0002033
:104A3000704770B50246002400230025002040F690
:104A40006A16B14200D100BFC1F3421501F01F0345
:104A5000012606FA03F3012D02D19689334006E0C0
:104A6000022D02D1168A334001E0968A33400C129F
:104A7000012606FA04F41688344013B10CB1012063
:104A800000E0002070BDF0B503460024002600259C
:104A9000002040F66A17B94200D100BF1846C1F3A2
:104AA000421401F01F06012707FA06F5012C01D177
:104AB0000C3004E0022C01D1103000E014301AB1A7
:104AC00007682F43076002E00768AF430760F0BD47
:104AD0002DE9FF4705460E460024A14600BFA0462B
:104AE000B08900B100BF2C8A24F44054F0880443FC
:104AF0002C82AC8941F20C608443B0883189084330
:104B0000718908430443AC81AC8A24F44074B089B1
:104B10000443AC826846FEF79DFE2048854202D0E1
:104B20001F48854202D1DDF80C9001E0DDF80890C5
:104B3000A88900F4004040B109EBC90000EB09105E
:104B400031684900B0FBF1F707E009EBC90000EB61
:104B5000091031688900B0FBF1F76420B7FBF0F071
:104B600004012009642101FB1078A88900F40040A9
:104B700040B1322000EBC800B0FBF1F000F00700BC
:104B8000044308E0322000EB08106421B0FBF1F090
:104B900000F00F0004432C81BDE8FF8700100140A6
:104BA00000140140C1F30802828070474FF416518F
:104BB000016000218180C18001810C21418100219F
:104BC0008181704700BFFEE703B40198410000985F
:104BD00050EAC12018BF04204A0D18BF40F0010060
:104BE00040F2FF72B2EB515F08BF40F002000128B3
:104BF00008BF052002B0704770B5C1482DED020B0B
:104C00002DED0E8B82B0119D25F000449FEDBEDB93
:104C10009FEDBFEB84423EDBA4F140511098A1F11F
:104C20007F6108430FD0BC48844202DC28D1109831
:104C300030B39DED100B02B0BDEC0E8B02B0BDE8A1
:104C4000704000F0B0BC9DED100B53EC1D2B51ECEF
:104C5000100BFBF76EFB9DED100B41EC180B53ECAA
:104C60001E2B51EC100BFBF764FB53EC182BFBF7DE
:104C7000B9FA41EC100B02B0BDEC0E8B02B070BD66
:104C8000012000F0D5FC02B0BDEC0E8B02B0BDE8F7
:104C9000704000F09DBCA1489FEDA18B844256DA84
:104CA0009DED100BB4F1795F0ADA51EC100BFFF7B0
:104CB0008BFF042808BF00F09BFC9DED100BDAE78A
:104CC00053EC102B51EC100BFBF733FB41EC190BA1
:104CD00095480621B0EE490AF0EE690A784400F0E2
:104CE000E6FB53EC192B51EC100BFBF722FB41ECCC
:104CF0001A0B8E48B0EE490AF0EE690A0421784496
:104D000000F0D5FB53EC192B51EC100BFBF711FB0A
:104D100053EC182BFBF766FA41EC100B51EC1A0B15
:104D200053EC102BFBF777FBCDE900019DED000B59
:104D300053EC102B9DED100B51EC100BFBF7F9FA17
:104D40009DED101B53EC112BFBF74CFAD2E09DEDBF
:104D5000100B51EC100B00F087FC53EC182BFBF7F9
:104D6000E5FA9FED730BCDE9000153EC102B9DED9F
:104D7000000B51EC100BFBF7DCFA41EC190B6E4801
:104D80000621B0EE490AF0EE690A784400F08FFB84
:104D900053EC192B51EC100BFBF7CBFA41EC1B0B2E
:104DA0006648B0EE490AF0EE690A0421784400F042
:104DB0007EFB53EC192B51EC100BFBF7BAFA53ECBA
:104DC000182BFBF70FFA41EC1C0B51EC190B00F000
:104DD00099FD41EC180B5A489FED5BABA04222DCD9
:104DE00053EC1C2B51EC1B0BFBF715FBCDE9000121
:104DF0009DED000B51EC180B53EC102BFBF799FABF
:104E000053EC182BFBF7EEF953EC1A2BFBF791FA46
:104E100053EC1D2BFBF787FA53EC1E2BFBF786FA9E
:104E200041EC100B5FE08DED008B002000909DEDBC
:104E3000000B51EC180B53EC102BFBF7D3F99DED45
:104E4000000B41EC1E0B53EC102B51EC100BFBF73D
:104E500070FA53EC192BFBF769FA53EC1E2BFBF796
:104E6000DAFA41EC190B53EC1C2B51EC1B0BFBF742
:104E7000D2FA41EC1B0B53EC1A2B51EC190BFBF73C
:104E800058FA53EC1D2BFBF751FA41EC190B53EC7C
:104E90001A2B51EC180BFBF74CFA53EC1B2BFBF7BE
:104EA00048FA53EC192BFBF73EFA9DED000B41EC51
:104EB000180B53EC1A2B51EC100BFBF73AFA9FED41
:104EC000249B53EC192BFBF731FA41EC100B51ECFE
:104ED000180B53EC102BFBF726FA53EC192BFBF7AE
:104EE00025FA41EC100B002D3FF7C5AE51EC100B2D
:104EF00081F0004141EC100BBDE600000000000015
:104F00000000F03F00000000075C143326A6913C2F
:104F1000182D4454FB21F93F0000F07F0000E03FD2
:104F2000000000000000F03FC00C0000CE0C0000AC
:104F3000000000000000E03F120C0000200C000008
:104F40003333EF3F0000000000000000000000408D
:104F5000182D4454FB21E93F70B59B482DED020B01
:104F60002DED068B079D25F00044A04218DC9748E4
:104F7000844202DC0AD1069840B19DED060BBDECDF
:104F8000068B02B0BDE8704000F00DBB002DCCBF19
:104F90009FED8F0B9FED900BBDEC068B02B070BDAB
:104FA0008F48A04215DD8F48A042D8BF4FF0FF3494
:104FB00058DD9DED060B51EC100BFFF705FE0428A4
:104FC00008BF00F015FB9DED060BBDEC068B02B093
:104FD00070BD9DED060B51EC100B00F045FBCDE9CB
:104FE000060181489FED828BA0423CDD8248A042B1
:104FF0001FDD00249FED82AB9DED060B53EC1A2BB9
:1050000051EC100BFBF7EEF89DED060B41EC190B84
:1050100053EC1A2B51EC100BFBF78BF953EC182BBC
:10502000FBF781F953EC192BFBF7F5F9CDE90601F4
:1050300049E09DED060B012453EC182B51EC100BAD
:10504000FBF7D0F89DED060B41EC190B53EC182B38
:1050500051EC100BFBF767F953EC192BFBF7DBF95D
:10506000CDE906012FE06848A0421FDD02249FED34
:10507000689B9DED060B53EC192B51EC100BFBF7C5
:1050800058F953EC182BFBF7ADF89DED060B41ECEE
:10509000180B53EC192B51EC100BFBF744F953ECA4
:1050A000182BFBF7B8F9CDE906010CE09DED060BD6
:1050B000032453EC102B9FED580B51EC100BFBF716
:1050C000AAF9CDE906019DED060B53EC102B51EC2E
:1050D000100BFBF72EF941EC180B53EC182BFBF7D8
:1050E00028F941EC190B4E480621B0EE490AF0EEC2
:1050F000690A784400F0DBF953EC182B51EC100BE3
:10510000FBF717F941EC180B4648B0EE490AF0EEF0
:10511000690A0521784400F0CAF953EC192B51ECC7
:10512000100BFBF706F941EC100B51EC180B53EC8C
:10513000102B002C0EDAFBF755F89DED061B53ECF7
:10514000112BFBF7F6F89DED061B53EC112BFBF72B
:10515000EDF835E0FBF746F89DED061B53EC112BFF
:10516000FBF7E7F841EC100B2F48784400EBC40044
:1051700090ED001B51EC100B53EC112BFBF7D3F807
:105180009DED061B53EC112BFBF7CDF841EC100BFA
:105190002648784400EBC40090ED001B51EC100B46
:1051A00053EC112BFBF7C2F841EC100B002DA2BF02
:1051B000BDEC068B02B070BD51EC100B81F00041CC
:1051C00041EC100B01E70000000010440000F07FEC
:1051D000182D4454FB21F93F182D4454FB21F9BFED
:1051E0000000DC3F0000203E0000F33F0000000014
:1051F000000000000000F03F0000E63F000000005B
:10520000000000000000004000800340000000009B
:10521000000000000000F83F000000000000F0BFA8
:105220006209000018090000A20800005A080000E6
:1052300070B56B4E2DED040B2DED028B82B0DDF8B9
:105240001CC0DDE905235C422CF000411C4341EA0F
:10525000D474049D22F00040B44205D86C422C4323
:1052600040EAD474B4420BD99DED061B9DED040BAE
:1052700002B0BDEC028B04B0BDE8704000F09DB9F7
:10528000ACF14054A4F17F641C430BD0022404EA27
:10529000AC7444EAD27405439FED538B9FED542BBD
:1052A00007D015E09DED040B51EC100B00F0C6F992
:1052B00042E0002C11BF012C9DED040B02B0BDECAF
:1052C000028B04BF04B070BD022C38D0032C3BD03D
:1052D0000B439FED491B9FED4A0B0AD0B14218D1F9
:1052E000B04209D121F0804120F080400791059023
:1052F0000FE0002A15DA10E0434B7B44002C08BF76
:1053000093ED000B0DD0012C10D0022C17D0032CE4
:105310001AD0B0421DD1002A03DAB0EE410AF0EEF5
:10532000610A02B0BDEC028B04B070BD93ED000BBE
:1053300051EC100B81F0004141EC100BF1E7B0EEA5
:10534000480AF0EE680AECE7B0EE420AF0EE620AB4
:10535000E7E7401A00153C28C8BF8DED000B19DCAB
:10536000BCF1000FBEBF10F13C0F9FED290B8DED7E
:10537000000B0FDB9DED060B53EC102B9DED040B8A
:1053800051EC100BFBF747F800F06EF900F056F9FE
:10539000CDE90001002C08BF9DED000BC1D0012C10
:1053A00010D0022C9FED1C0B53EC102B9DED000B2D
:1053B00051EC100B0DD0FAF7B6FF53EC182BFAF79F
:1053C000B2FFB9E7019880F0004001909DED000B1D
:1053D000A7E7FAF7A8FF53EC182BFAF7A7FFABE7FC
:1053E0000000F07F00000000182D4454FB2109400C
:1053F000182D4454FB2109C0182D4454FB21F9BF3A
:10540000182D4454FB21F93F8A07000000000000DA
:105410000000000000000000075C143326A6A13C39
:105420002DED020B019820F0004001909DED000B46
:1054300002B0704700B52DED048BB0EE409AF0EE4F
:10544000609A83B051EC190BFBF789F941EC180B0A
:1054500018EE100A18EE901A8DED008B002818BF78
:105460000120084320F00040C0F17F6000F1E040DF
:10547000C00F14D019EE101A19EE900A8DED009B92
:10548000002918BF0121084320F00040C0F17F60CF
:1054900000F1E040C00F04BF012000F0C9F8B0EEF9
:1054A000480A03B0F0EE680ABDEC048B00BD70B58D
:1054B00004462DED028B4D1E00EBC500B0EE408A78
:1054C000F0EE608A90ED000B35F0060017D053EC3B
:1054D000182B51EC100BFAF72CFF41EC100B6D1E42
:1054E00004EBC50090ED001B51EC100B53EC112B9D
:1054F000FAF778FE41EC100B35F00600E7D1022DEB
:1055000036D0042D1CD0062D1CBFBDEC028B70BD07
:1055100053EC182B51EC100BFAF70BFF94ED0A1B10
:1055200053EC112BFAF75EFE53EC182BFAF701FF40
:1055300094ED081B53EC112BFAF754FE41EC100BC1
:1055400053EC182B51EC100BFAF7F3FE94ED061BFD
:1055500053EC112BFAF746FE53EC182BFAF7E9FE41
:1055600094ED040B53EC102BFAF73CFE41EC100BBE
:1055700053EC182B51EC100BFAF7DBFE94ED021BE9
:1055800053EC112BFAF72EFE53EC182BFAF7D1FE41
:1055900094ED001B53EC112BFAF724FEBDEC028BAB
:1055A00041EC100B70BD10B553EC102B51EC100BEF
:1055B000FAF718FE41EC100B10BD10B553EC112B8F
:1055C00051EC100BFAF70EFE41EC100B10BD000071
:1055D0009FED050B10B553EC102B51EC100BFAF7A7
:1055E0001AFF41EC100B10BD00000000000000008D
:1055F0009FED050B10B553EC102B51EC100BFAF787
:1056000098FE41EC100B10BD0000000000000010DF
:1056100002E008C8121F08C1002AFAD1704770477B
:10562000002001E001C1121F002AFBD170470000D9
:1056300001490860704700001006002010B541ECD9
:10564000100BFFF789FC51EC100B10BD10B50021B9
:1056500007E04AF2104200BF131EA2F10102FBD183
:10566000491C8142F5D310BD82B0CDE9000121F083
:10567000004001909DED000B02B051EC100B704703
:10568000F0EE400AF6EE001A60EEA11AB0EE611AD2
:10569000B0EE600A10EE100A0749A1EB600000EEC0
:1056A000100A21EE002AF7EE081A42EE401A61EEC7
:1056B000801AB0EE610A7047DF59375F2DED028B1B
:1056C000002500BF00BF00BF00BF00BF00BF00BF7C
:1056D000002440F21310454908807D204449088089
:1056E000FBF7CBF84FF400514248FCF7A2F84248D0
:1056F000FDF7B6FF4148FDF7B3FF4FF4487040494E
:105700000860091D08604FF49670FFF79FFFFDF7D2
:1057100007FCFCF7B9FFFDF76DF8FEF78FFD394880
:10572000FCF786FE40F6B830FFF790FF00BF03E0BD
:105730003448FCF77DFE6D1C322DF9DB314890EDCD
:10574000000A314880ED000A4EE02E48FCF770FE5A
:105750001E2C08DA2B4890ED000A2C4800EB840040
:1057600080ED000A641C294890ED140AD0ED130A5C
:1057700030EE600A264880ED000A0068FAF7CBFE9A
:1057800041EC180B9FED230B53EC102BFAF7D6FED0
:105790000CD31F480068FAF7BEFE41EC180B9FEDD2
:1057A0001F0B53EC102BFAF7E1FE04D29FED1D0AFC
:1057B000174880ED000A1C4890ED000A1448D0ED0F
:1057C000000A30EE200A184880ED000A1E2C00D195
:1057D00000240C4890ED000A1348D0ED000A30EE8A
:1057E000200A124880ED000AAFE700001E000020EA
:1057F00020000020001802409C01002044020020EC
:10580000340C0040AC08002058000020380600206E
:105810005C000020FCA9F1D24D6250BFFCA9F1D27E
:105820004D62503F000000003000002024000020A6
:1058300010B52A48B0F90000A0F58060284908603A
:105840002648B0F90600A0F5806026490860234884
:10585000B0F90400A0F58060234908601F48B0F942
:105860000200A0F58060214908601C4890F90800FA
:105870001F490860194890F909001E4908601C4832
:105880000068012824D11C4908701C48006840F2B7
:10589000DC51884214DB19480068490088420FDC5B
:1058A000174B1A4619461846FDF750F91348006879
:1058B00040F6B831884210D10020104908600CE051
:1058C0004FF47A731A4619461846FDF73FF904E07B
:1058D00000200949087000F04CF810BD6C0B002046
:1058E0005401002050010020580100205C010020DC
:1058F00060010020640100206000002048000020BA
:1059000018FCFFFF00B52DED048B83B041EC190BA3
:10591000FAF725FF41EC180B18EE100A18EE901A52
:105920008DED008B002818BF0120084320F00040B7
:10593000C0F17F6000F1E040C00F14D019EE101AE2
:1059400019EE900A8DED009B002918BF0121084334
:1059500020F00040C0F17F6000F1E040C00F04BFC4
:105960000120FFF765FE51EC180B03B0BDEC048B72
:1059700000BD10B500231A4619461846FDF7E6F893
:1059800010BD00006B806B036C001A031B101C0120
:105990001D026A20370238010000000000000000EC
:1059A000555555555555C53F7D6FEB0312D6D4BFA0
:1059B0005544880E55C1C93F3B8F68B52882A4BFA6
:1059C00088B20175E0EF493F09F7FD0DE13D023F67
:1059D0004B2D8A1C273A03C0C88A599CE52A0040EF
:1059E00059018D1B6C06E6BF82922EB1C5B8B33F3C
:1059F0004FBB610567ACDD3F182D4454FB21E93FE7
:105A00009BF681D20B73EF3F182D4454FB21F93FD5
:105A1000E2652F227F2B7A3C075C143326A6813C5B
:105A2000BDCBF07A8807703C075C143326A6913C06
:105A3000C4EB98999999C9BF711623FEC671BCBF72
:105A40006D9A74AFF2B0B3BF9AFDDE522DDEADBFDA
:105A50002F6C6A2C44B4A2BF0D5555555555D53FF2
:105A6000FF8300922449C23F6E204CC5CD45B73F0D
:105A7000513DD0A0660DB13FEB0D76244B7BA93F85
:105A800011DA22E33AAD903F000000000000000070
:105A9000B05A000800000020140600002408000886
:105AA0007C5B0008140600203C1100002056000812
:105AB000011C021C6124401CC51B2042042241021F
:105AC00071012D0102030404E506070809036A8039
:105AD0003F023AFF0411C0C1450422409FC02790F5
