:020000040800F2
:10000000001A00209D010008E53D00082128000895
:10001000593B0008E9060008AD5600080000000042
:10002000000000000000000000000000FD48000883
:10003000B91D000800000000E1410008B5010008FA
:10004000B7010008B7010008B7010008B7010008B0
:10005000B7010008B7010008B7010008BD1D00087E
:10006000B7010008B7010008B7010008B701000890
:10007000B7010008B7010008B7010008B701000880
:10008000B7010008B7010008B7010008B701000870
:10009000E1070008B7010008B7010008B701000830
:1000A000B7010008B7010008B7010008B701000850
:1000B000E94D0008B7010008B7010008B7010008C2
:1000C000B7010008B7010008B7010008B701000830
:1000D000B7010008F1510008C1520008955300080B
:1000E000B7010008B7010008B7010008B701000810
:1000F000B7010008B7010008B7010008B701000800
:10010000B7010008B7010008B7010008B7010008EF
:10011000B7010008B7010008554E0008B7010008F4
:10012000B7010008B7010008B7010008B7010008CF
:10013000B7010008B7010008B7010008B7010008BF
:10014000350C0008B7010008B7010008B701000826
:10015000B7010008B7010008B7010008B70100089F
:10016000B7010008B7010008B7010008B70100088F
:10017000B7010008B7010008B7010008B70100087F
:10018000B7010008B7010008DFF80CD000F0EAF86A
:10019000004800470D5A0008001A00200648804712
:1001A00006480047FEE7FEE7FEE7FEE7FEE7FEE75C
:1001B000FEE7FEE7FEE7FEE7454D0008890100087F
:1001C00040EA01039B0703D009E008C9121F08C0D9
:1001D000042AFAD203E011F8013B00F8013B521E59
:1001E000F9D270470EB5C10F80EAE0700844CA0723
:1001F000002140F233438DE80E000A460B4600F022
:1002000062F803B000BD00F0004230F000400AD0B8
:10021000C10D01F56071C0F3160042EA0151C20838
:1002200040071143704700200146704730B5041E57
:1002300071F1000404DB4FF00044404264EB010123
:10024000141E73F1000405DB1C464FF000435242BC
:1002500063EB0403994208BF904230BD30B50B46B2
:10026000014600202022012409E021FA02F59D42E6
:1002700005D303FA02F5491B04FA02F52844151EBA
:10028000A2F10102F1DC30BD202A04DB203A21FA80
:1002900002F00021704721FA02F3D040C2F120029F
:1002A000914008431946704710B5141E73F10004BD
:1002B00008DA401C41F1000192185B411A4301D158
:1002C00020F0010010BD2DE9F04D92469B4611B182
:1002D000B1FA81F202E0B0FA80F22032904600F0EA
:1002E00053F804460F4640EA0A0041EA0B01534620
:1002F0005A46084313D0114653EA010019D0C8F1F9
:1003000040025046FFF7C0FF05460E46504659468C
:10031000424600F039F8084305D0012004E02046A9
:100320003946BDE8F08D0020054346EAE0762C43CF
:1003300037430A986305E40AA0EB08000022FD0A8F
:1003400044EA47540A3002D500200146E9E7010596
:1003500010196941DDE9084500196941BDE8F04D12
:10036000A2E70000064C074D06E0E06840F00103FC
:1003700094E8070098471034AC42F6D3FFF708FF23
:10038000C85D0008E85D0008202A04DB203A00FA76
:1003900002F1002070479140C2F1200320FA03F3DC
:1003A00019439040704770B58C1810F8015B15F038
:1003B000070301D110F8013B2A1106D110F8012BD7
:1003C00003E010F8016B01F8016B5B1EF9D12B07FC
:1003D00005D40023521E0DD401F8013BFAE710F8B2
:1003E000013BCB1A921C03E013F8015B01F8015B9F
:1003F000521EF9D5A142D8D3002070BD00B59BB0E4
:100400006822434901A8FFF7DBFE9DF804005A2843
:1004100010D19DF80D005A280CD19DF814005A28CF
:1004200008D101203B490870672201A93A48FFF72B
:10043000C7FE07E00020374908703749C1F80100BE
:100440005A2008703448407A5A2808D0002132488F
:100450004172A0F8071000202F49A1F805002E488E
:10046000007C5A2809D000212B48017400202A4919
:100470004881002128488181C181274890F82300C4
:100480005A2820D00021244880F823100020224937
:10049000A1F8110000212048A0F81310A0F81510B1
:1004A000B7EE000A10EE100A1B49C1F81700B7EEAC
:1004B000000A10EE100AC1F81B00B7EE000A10EE99
:1004C000100AC1F81F00144890F836005A281DD0B1
:1004D0000021114880F8361000200F49888400213F
:1004E0000D48C1840185B7EE000A10EE100A0A49D2
:1004F000C1F82A00B7EE000A10EE100AC1F82E006B
:10050000B7EE000A10EE100AC1F832001BB000BDB1
:1005100000000E0824080020120D002010B5012450
:1005200067220349034800F057F80446204610BDEF
:10053000120D002000000E0801461C48814201D225
:10054000002070471A48814201D20820F9E7194873
:10055000814201D21020F4E71748814201D21820CD
:10056000EFE71648814201D22020EAE71448814291
:1005700001D22820E5E71348814201D23020E0E78C
:100580001148814201D23820DBE71048814201D274
:100590004020D6E70E48814201D24820D1E70D48DD
:1005A000814201D25020CCE75820CAE70040000821
:1005B0000080000800C000080000010800000208D8
:1005C00000000408000006080000080800000A08EF
:1005D00000000C0800000E082DE9FC5F04460D46E3
:1005E00090464FF008090120019000264FF0000AC4
:1005F00000274FF0000B00200090B4F1006F01D2F3
:10060000BDE8FC9F01F02CFD002001F07FFC264698
:1006100004EB080A3046FFF78FFF83465046FFF78A
:100620008BFF00901648864211D25F460BE00221F4
:10063000384601F07DFC8146B9F1080F02D0002058
:10064000019003E0083700988742F0D900BFB9F164
:10065000080F0ED10AE02978204601F0DBFC0828BB
:1006600002D00020019003E0641C6D1C5445F2D3BD
:1006700000BF012001F04AFC01F0C2FC0198BFE775
:100680000000FF1F10B54FF4A06003F0E9FB03F07A
:1006900013FD02F0C7FD0421124801F0BEFD082140
:1006A000104801F0BAFD10210E4801F0B6FD2021DE
:1006B0000C4801F0B2FD04F079FB04F075F803F08A
:1006C000BBF804F0A1FB00F011F800F039FA04F0D7
:1006D000EFFC04F009FE642005F050F901F00EFC77
:1006E00010BD0000001C024000BFFEE700B58BB04B
:1006F0000121082003F076FD0121480603F082FD68
:100700000320099002208DF8280000208DF82A008F
:1007100003208DF8290001208DF82B0009A92E480F
:1007200001F00EFD092201212B4801F051FD0922A3
:100730000021294801F04CFD00208DF81E008DF8A5
:100740001F008DF8200001208DF8210000208DF879
:1007500022008DF823008DF81A008DF81B0005206B
:100760008DF81C0006208DF81D000320ADF8180040
:1007700006A91A4800F0B1FC00208DF812008DF88F
:10078000130001208DF814000020ADF80800ADF82A
:100790000A00ADF80C00ADF80E00ADF81000012015
:1007A0008DF8150002A800F07BFB012202210B4806
:1007B00000F08AFC14208DF8040001208DF805005B
:1007C00000208DF8060001208DF8070001A803F035
:1007D0000BFB0BB000BD0000000C024000640040A9
:1007E00000B585B0BD480068401CBC4908600221C6
:1007F000BB4800F0D9FB00287ED00221B84800F0A9
:10080000FBFA6A460021B64800F0F1FCB5490098B1
:1008100008609DF80B00B44908709DF80C00B349BE
:1008200008709DF80D00B24908709DF80E00B1499E
:1008300008709DF80F00B04908709DF81000AF498E
:1008400008709DF81100AE4908709DF81200AD497E
:100850000870A6480078A449097840EA0120AA490E
:100860000860A4480078A249097840EA0120A74915
:100870000880A2480078A049097840EA0120A449EC
:100880000880A248008800F40040A2490860084699
:100890000068C01308609D480088C0F30C009E49A2
:1008A00008809A4800884FF6FF71081A9B49088013
:1008B0008C48006840F2012188421BD1964800888C
:1008C00000EE100AB8EE400A954880ED000A914803
:1008D000006801280ED19148008800EE100AB8EE99
:1008E000400A8F4880ED000A90ED000AB1EE400A00
:1008F00080ED000A7B4800E0EAE0006840F2022157
:1009000088421BD18448008800EE100AB8EE400AE5
:10091000844880ED000A7F48006801280ED17F4896
:10092000008800EE100AB8EE400A7E4880ED000A0A
:1009300090ED000AB1EE400A80ED000A69480068B7
:1009400040F2032188421BD17348008800EE100A50
:10095000B8EE400A744880ED000A6E48006801282D
:100960000ED16E48008800EE100AB8EE400A6E48BC
:1009700080ED000A90ED000AB1EE400A80ED000A19
:1009800058480068B0F5017F1BD16348008800EE2D
:10099000100AB8EE400A654880ED000A5D4800681C
:1009A00001280ED15D48008800EE100AB8EE400A1A
:1009B0005E4880ED000A90ED000AB1EE400A80ED3D
:1009C000000A4848006840F2052188421BD152487D
:1009D000008800EE100AB8EE400A554880ED000A83
:1009E0004C48006801280ED14C48008800EE100ADF
:1009F000B8EE400A4E4880ED000A90ED000AB1EED4
:100A0000400A80ED000A3748006840F2062188421B
:100A10001BD14148008800EE100AB8EE400A454854
:100A200080ED000A3B48006801280ED13B48008851
:100A300000EE100AB8EE400A3E4880ED000A90ED44
:100A4000000AB1EE400A80ED000A2648006840F234
:100A5000072188421BD13048008800EE100AB8EE0A
:100A6000400A354880ED000A2A48006801280ED166
:100A70002A48008800EE100AB8EE400A2E4880EDA1
:100A8000000A90ED000AB1EE400A80ED000A154818
:100A90000068B0F5027F1BD11F48008800EE100AE5
:100AA000B8EE400A254880ED000A1A48006801287F
:100AB0000ED11A48008800EE100AB8EE400A1F480E
:100AC00080ED000A90ED000AB1EE400A80ED000AC8
:100AD000012004F053FF05B000BD00000400002019
:100AE000006400401C0000201400002015000020BD
:100AF0001600002017000020180000201900002018
:100B00001A0000201B000020240000200C00002000
:100B100012000020200000200A0000200800002011
:100B2000280000202C00002030000020340000208D
:100B3000380000203C00002040000020440000203D
:100B400000B58BB00121022003F04CFB0121880687
:100B500003F058FB4FF44050099002208DF8280014
:100B600000208DF82A0003208DF8290001208DF83F
:100B70002B0009A92D4801F0E3FA09220D212B4889
:100B800001F026FB09220C21284801F021FB00205E
:100B90008DF81E008DF81F008DF8200001208DF8C3
:100BA000210000208DF822008DF823008DF81A0016
:100BB0008DF81B0005208DF81C0006208DF81D0007
:100BC0000320ADF8180006A9194800F086FA0E2097
:100BD0008DF8120000208DF8130001208DF814000C
:100BE0000020ADF80800ADF80A00ADF80C00ADF833
:100BF0000E00ADF8100001208DF8150002A800F0DD
:100C00004FF9012202210A4800F05EFA40208DF8D7
:100C1000040002208DF8050001208DF806008DF8F3
:100C2000070001A803F0E0F80BB000BD000402408B
:100C30000068004000B585B002215B4800F0B4F9BF
:100C400000287DD00221584800F0D6F86A460021DD
:100C5000554800F0CCFA5549009808609DF80B0003
:100C6000534908709DF80C00524908709DF80D001A
:100C7000514908709DF80E00504908709DF80F000A
:100C80004F4908709DF810004E4908709DF81100FA
:100C90004D4908709DF812004C490870454800788D
:100CA0004349097840EA01204949086043480078EF
:100CB0004149097840EA01204649088008460088F1
:100CC00000F400404449086008460068C01308600A
:100CD00040480088C0F30C00404908803D48008827
:100CE0004FF6FF71081A3E4908803048006840F20C
:100CF000012188421BD13948008800EE100AB8EE65
:100D0000400A384880ED000A3348006801280ED1B7
:100D10003348008800EE100AB8EE400A314880EDF2
:100D2000000A90ED000AB1EE400A80ED000A1F486B
:100D3000006840F20221884234D12B48006800E06C
:100D400030E0401C2849086028480068401C2749BA
:100D5000086008460068322804DC6946244801F02F
:100D60006DFA03E06946224801F05CF81B480088F0
:100D700000EE100AB8EE400A1E4880ED000A164840
:100D8000006801280ED11648008800EE100AB8EE5F
:100D9000400A184880ED000A90ED000AB1EE400AC2
:100DA00080ED000A05B000BD00680040680000202A
:100DB000140000201500002016000020170000205D
:100DC00018000020190000201A0000201B0000203D
:100DD000240000200C000020200000200A00002039
:100DE0000800002070000020540000206C0000204B
:100DF000C409002074000020B1F5007F3AD00FDC58
:100E0000202928D006DC01291CD004291DD008295E
:100E100040D11DE0402921D0B1F5807F3AD126E0B4
:100E2000B1F5004F31D006DCB1F5806F25D0B1F5BA
:100E3000006F2FD124E0B1F5803F12D0B1F5003F13
:100E400028D111E0154A826025E00822C26022E024
:100E50001022C2601FE0082202611CE01022026121
:100E600019E00822426016E01022426013E00422DA
:100E7000426010E0042242600DE0042242600AE079
:100E8000002282610422426005E000228261042285
:100E9000426000E000BF00BF704700000101010098
:100EA00010B50021837A012202FA03F13D4A12684B
:100EB00042F001023B4B1A603A4A1C3212688A43E4
:100EC000384B1C331A60027BCAB9364A0C3212689E
:100ED0008A43344B0C331A604288C38842EA034386
:100EE000304A4032847A42F834300288838842EAB9
:100EF00003432C4A4032847A02EBC4025360027BE3
:100F0000012A19D1274A0C3212680A43254B0C33A7
:100F10001A604288038842EA0343224A4032847AB4
:100F200042F83430C288838842EA03431D4A403283
:100F3000847A02EBC4025360C27A3AB9194A121D8C
:100F400012688A43174B1B1D1A6006E0154A121DD2
:100F500012680A43134B1B1D1A60028932B9114AE9
:100F6000143212688A430F4B14331A600289012A23
:100F700006D10C4A143212680A430A4B14331A6021
:100F8000427B012A06D1074A1C3212680A43054BEC
:100F90001C331A60034A126822F00102014B1A60E6
:100FA00010BD00000066004070B504460D460026E6
:100FB00060692840002871D0B5F5807F5CD010DCD6
:100FC000082D35D006DC012D20D0022D24D0042D93
:100FD00072D127E0102D31D0202D35D0402D6BD18E
:100FE00038E0B5F5004F60D009DCB5F5007F49D099
:100FF000B5F5806F4CD0B5F5006F5DD14FE0B5F51C
:10100000803F2DD0B5F5003F56D12FE0A0682D4987
:1010100000F06EFC064651E0E068032100F068FC39
:1010200006464BE0E068082100F062FC064645E019
:10103000E068102100F05CFC06463FE020690321D7
:1010400000F056FC064639E02069082100F050FC0B
:10105000064633E02069102100F04AFC06462DE0E8
:101060006068082100F044FC064627E06068102113
:1010700000F03EFC064621E0A069012100F038FCAA
:1010800006461BE0A069022100F032FC064615E08E
:10109000A069042100F02CFC06460FE00FE0A069D7
:1010A000702100F025FC064608E06068042100F08D
:1010B0001FFC064602E0FFE7002600BF00E0002616
:1010C000304670BD010101001AB143690B43436111
:1010D00002E043698B434361704730B5024600200C
:1010E0000023146824F002041460146844F001041E
:1010F000146000E05B1C546804F001041CB94FF656
:10110000FF74A342F6D1546804F001040CB9002026
:101110006CE08C79012C04D1146844F080041460D4
:1011200003E0146824F080041460CC79012C04D10D
:10113000146844F04004146003E0146824F0400490
:1011400014600C7A012C04D1146844F0200414605B
:1011500003E0146824F0200414604C7A012C04D1BC
:10116000146844F01004146003E0146824F01004C0
:1011700014608C7A012C04D1146844F008041460C3
:1011800003E0146824F008041460CC7A012C04D124
:10119000146844F00404146003E0146824F00404A8
:1011A00014608C78A407CD7844EA05640D7944EA8C
:1011B00005444D7944EA05540D886D1E2C43D461D5
:1011C000146824F001041460002300E05B1C5468E0
:1011D00004F001041CB14FF6FF74A342F6D1546829
:1011E00004F001040CB1002000E0012030BD10B576
:1011F00000F5D87303EB01131B6803F004031372AB
:10120000137A53B900F5D87303EB01131B6840F24E
:10121000FF7404EA5353136009E000F5D87303EB3D
:1012200001131B686FF0604404EAD303536000F5B8
:10123000D87303EB01131B6803F00203537200F52C
:10124000D87303EB01135B6803F00F03937200F58F
:10125000D87303EB01135B681B0AD37400F5D873D2
:1012600003EB01139B68D37200F5D87303EB0113F2
:101270009B681C0A147300F5D87303EB01139B6879
:101280001C0C547300F5D87303EB01139B681B0E01
:10129000937300F5D87303EB0113DB68D37300F588
:1012A000D87303EB0113DB681C0A147400F5D873C0
:1012B00003EB0113DB681C0C547400F5D87303EBCB
:1012C0000113DB681B0E937421B9C36843F020033C
:1012D000C36003E0036943F02003036110BD10B550
:1012E00002460020936803F08063B3F1806F00D161
:1012F00010E0936803F00063B3F1006F01D10120A7
:1013000008E0936803F08053B3F1805F01D10220BD
:1013100000E00420042874D002F5C07303EB00132E
:101320001B6803F0010402F5C07303EB00131C609B
:101330000B7A7BB94B7A0C8843EA445302F5C074AC
:1013400004EB00142468234302F5C07404EB00147A
:10135000236010E00B7A4C6843EAC4034C7A2343C1
:1013600002F5C07404EB00142468234302F5C07432
:1013700004EB001423608B7A03F00F038B7202F5E9
:10138000C07303EB00135B6823F00F0402F5C07316
:1013900003EB00135C6002F5C07303EB00135B68A2
:1013A0008C7A234302F5C07404EB001463608B7BDA
:1013B0001C064B7B44EA03440B7B44EA0323CC7AB0
:1013C000234302F5C07404EB0014A3608B7C1C065D
:1013D0004B7C44EA03440B7C44EA0323CC7B234349
:1013E00002F5C07404EB0014E36002F5C07303EB74
:1013F00000131B6843F0010402F5C07303EB0013F4
:101400001C6010BD08B501F015F818B90020E849B6
:10141000888016E09FEDE70AE74880ED000AE7487C
:1014200090ED100AE44880ED010AC16C8847E2485B
:1014300090ED0E0ABDEEC00A10EE100A00B2DC49B3
:101440008880DB48B0F900004042C0EBC000D849BA
:10145000B1F90210C1EBC101084400EE100AB8EE68
:10146000C00AD74880ED000AD148B0F90000C0EBAF
:10147000C000CF49B1F90210C1EBC101084400EE30
:10148000100AB8EEC00ACF4880ED000AC848B0F98B
:101490000000C0EBC000C649B1F90210C1EBC101A8
:1014A000401A00EE100AB8EEC00AC74880ED000AE4
:1014B000BF48B0F900004042C0EBC000BC49B1F9E0
:1014C0000210C1EBC101401A00EE100AB8EEC00ACA
:1014D000BE4880ED000ABE48007A022844D1B848D0
:1014E000D0ED000AB248B0F9060000EB400000EE73
:1014F000100AB8EEC00A30EE800AB14880ED000A4A
:10150000B048D0ED000AAA48B0F9060000EB400050
:1015100000EE100AB8EEC00A30EE800AA94880ED4D
:10152000000AA948D0ED000AA148B0F9060000EB76
:10153000400000EE100AB8EEC00A30EE800AA24861
:1015400080ED000AA148D0ED000A9948B0F90600E4
:1015500000EB400000EE100AB8EEC00A30EE800A40
:101560009A4880ED000A47E09548D0ED000A90487F
:10157000B0F9040000EB8000800000EE100AB8EE25
:10158000C00A30EE800A8E4880ED000A8D48D0ED0A
:10159000000A8748B0F9040000EB8000800000EEEC
:1015A000100AB8EEC00A30EE800A864880ED000AC4
:1015B0008548D0ED000A7E48B0F9040000EB8000B9
:1015C000800000EE100AB8EEC00A30EE800A7E48B5
:1015D00080ED000A7D48D0ED000A7548B0F904009E
:1015E00000EB8000800000EE100AB8EEC00A30EE7A
:1015F000800A764880ED000A7648B0F9000000EED7
:10160000100AB8EEC00A6E4880ED010A7248B0F9BF
:10161000000000EE100AB8EEC00A6A4880ED010A28
:101620006E48B0F9000000EE100AB8EEC00A664835
:1016300080ED010A6A48B0F9000000EE100AB8EE29
:10164000C00A624880ED010A5D48C16C88475D4868
:10165000C16C88475C48C16C88475C48C16C88474E
:10166000574890ED0E0ADFED5F0AB4EEE00AF1EEA6
:1016700010FA0CDD90ED0E0ADFED5B0AB4EEE00A25
:10168000F1EE10FA03D29FED4B0A80ED0E0A4D48A1
:1016900090ED0E0ADFED530AB4EEE00AF1EE10FA17
:1016A0000CDD90ED0E0ADFED500AB4EEE00AF1EE2B
:1016B00010FA03D29FED3F0A80ED0E0A424890EDEA
:1016C0000E0ADFED480AB4EEE00AF1EE10FA0CDD86
:1016D00090ED0E0ADFED440AB4EEE00AF1EE10FAE6
:1016E00003D29FED340A80ED0E0A384890ED0E0AC1
:1016F000DFED3C0AB4EEE00AF1EE10FA0CDD90EDFD
:101700000E0ADFED390AB4EEE00AF1EE10FA03D268
:101710009FED280A80ED0E0A00F08CFE032809D008
:1017200001F07DFB30B900F085FE042802D000F006
:1017300081FE40B9002003460246014600902B4836
:1017400003F052FA33E0214890ED0E0AF7EE000A5A
:1017500020EE200ABDEEC00A10EE100A00B2009082
:10176000194890ED0E0AF7EE000A20EE200ABDEEB1
:10177000C00A10EE100A03B2124890ED0E0AF7EEFE
:10178000000A20EE200ABDEEC00A10EE100A02B2D6
:101790000B4890ED0E0AF7EE000A20EE200ABDEE8F
:1017A000C00A10EE100A01B2104803F01DFA08BD7D
:1017B0004C080020000000001C0300204C0C0020FE
:1017C00070030020C4030020180400206C040020D3
:1017D0001C0E0020D40C0020DE0C0020E80C0020A1
:1017E000F20C002000002FC400002F4400640040D1
:1017F00010B5022001F07CFA18B1022002F0CCFFF3
:101800006AE0042001F074FA90B100F06FFF044622
:10181000002C61D0012C5FD0022C5DD12F4803F049
:1018200007F92F4803F06CF8042002F0B5FF53E0ED
:10183000402001F05DFA18B1402002F0ADFF4BE00E
:10184000802001F055FA90B100F058FE0446002CBB
:1018500042D0012C40D0022C3ED1224803F0ACF8FB
:101860001F4803F04DF8802002F096FF34E010206E
:1018700001F03EFA58B102F05FF9044664B3012C5E
:101880002AD0022C28D1102002F086FF24E020204C
:1018900001F02EFA88B102F005F90446E4B1012CFA
:1018A0001AD0022C18D1104803F0E6F80C4803F0C7
:1018B00027F8202002F070FF0EE04FF4807001F056
:1018C00017FA48B1094803F0E5F8054803F018F89D
:1018D0004FF4807002F060FF10BD0000DC070020B4
:1018E000120D0020E3070020790D00208C0D002050
:1018F0000246002002EA01030BB1012000E00020B3
:101900007047000010B510480068401C0E49086080
:1019100003F0CEFE0C480068642801D201F08CF878
:1019200000F03EFE00F0C0FB00F0F0FB03F052F8C8
:10193000FFF75EFF0448007800F0030018B9FFF7D6
:1019400061FD03F0D3F910BDAC07002010B50020F5
:1019500041490860FEF752FD404802F0D1FF0020E7
:1019600003F03CF93E484FF4FA61C26990473D48A4
:101970004FF4FA61C269904739488169884739480C
:10198000816988479FED380A384880ED000A9FED4D
:10199000360A80ED010A002000F06AFC044601F0DE
:1019A00059FD012000F064FC044601F053FD0220C3
:1019B00000F05EFC044601F04DFD032000F058FCF1
:1019C000044601F047FD042000F052FC044601F0FB
:1019D00041FD052000F04CFC044601F03BFD0620D3
:1019E00000F046FC044601F035FD072000F040FC05
:1019F000044601F02FFD082000F03AFC044601F0F7
:101A000029FD092000F034FC044601F023FD0A20E2
:101A100000F02EFC044601F01DFD1548016D8847BD
:101A20001448016D88471448016D88471348016DBB
:101A300088471348016D88471248016D884712484E
:101A4000016D88471148016D88471148016D88472D
:101A50001048016D884710BDAC070020120D002012
:101A6000640700208807002000000000340E0020DA
:101A7000C0040020CC0100202002002074020020BD
:101A8000C80200201C03002070030020C4030020B3
:101A9000180400206C04002021B1026842F0010209
:101AA000026003E0026822F0010202607047000059
:101AB000016821F001010160002101604160816045
:101AC000C1600161212141614A49884204D13D211F
:101AD000484A103A91608CE046491831884205D155
:101AE0004FF47461434A103A916082E041493031C9
:101AF000884205D14FF474113E4A103A916078E063
:101B00003C494831884205D14FF07461394A103A56
:101B100091606EE037496031884204D13649354AD8
:101B2000103AD16065E033497831884204D13349B5
:101B3000304A103AD1605CE02E499031884204D19D
:101B40002F492C4A103AD16053E02A49A8318842E3
:101B500005D14FF03D51274A103AD16049E029495B
:101B6000884204D13D21274A083A116041E02549C5
:101B70001831884205D14FF47461224A083A116045
:101B800037E020493031884205D14FF474111D4AA5
:101B9000083A11602DE01B494831884205D14FF0C9
:101BA0007461184A083A116023E01649603188428E
:101BB00004D11149134A121F11601AE011497831FA
:101BC000884204D10D490F4A121F116011E00D49DE
:101BD0009031884204D10A490A4A121F116008E074
:101BE0000849A831884204D14FF03D51054A121FDF
:101BF00011607047106002403D000020400F00203F
:101C000000003D201064024021B1026842F48022AD
:101C1000026003E0026822F480220260704722B171
:101C2000036843F40023036003E0036823F4002304
:101C30000360016170470146486880B27047014601
:101C400000200A6802F400220AB1012000E000200E
:101C50007047000010B500220268134B1A40CC6890
:101C60000B6823434C6923438C692343CC6923438A
:101C70000C6A23434C6A23438C6A23434C6B2343F3
:101C80008C6B23431A430260426922F00702D1E9B8
:101C90000B3423431A4342610B6943604B688360F2
:101CA0008B68C36010BD00003F801CF00021016004
:101CB00041608160C160016141618161C161016216
:101CC00041628162C16201634163816370470000C8
:101CD0003449097859B9AA2846D13349334A127888
:101CE00001EB4211087001212E4A11703CE02D4990
:101CF000097801290FD1AF2809D12B492B4A127835
:101D000001EB421148700221264A11702CE000219B
:101D1000244A117028E023490978022909D122496F
:101D2000224A127801EB4211887003211D4A11707A
:101D30001AE01C490978032909D11B491B4A12786A
:101D400001EB4211C8700421164A11700CE01649CB
:101D5000164A127801EB4211124A1278885411493E
:101D60000978491C0F4A11700F49104A127801EB8B
:101D70004211C978491D0B4A1278914211D10021B4
:101D8000084A11700949097831B10021074A1170D8
:101D90000121074A117004E00121044A1170054A2B
:101DA000117070473F090020840900203E0900207F
:101DB00041090020400900207047000010B50220B2
:101DC00000F01CF850B1022000F00CF8022000F0E6
:101DD0000FF801200249087000F056FA10BD00000B
:101DE000F80000200149086070470000143C0140E1
:101DF0000149086070470000143C01400146002082
:101E00000022074B1B6803EA0102054B14331B68D1
:101E10000B4013B10AB1012000E000207047000020
:101E2000003C014070B500220023046844600C7B34
:101E3000CD7A44EA0524046004684568641BC460E4
:101E4000C4682B4DAC4207DA846B641C8463C4689D
:101E500004F50054C4610EE0C46841F64C55AC4230
:101E600007DD846B641E8463C468A4F50054C461F8
:101E700001E0C468C4610568846B05EB4434846088
:101E800004688569641B00EE104AB8EEC00ADFEDF5
:101E9000190A20EE200A9FED181AC0EE010A846B81
:101EA0004FF4B4756C4300EE104AB8EEC00A30EE41
:101EB000800A80ED100AC669047D651C057500F175
:101EC000200545F82460047D062C01D1002404750A
:101ED000002205E000F1200454F822402344521C63
:101EE000062AF7DB062493FBF4F4C46370BD0000FC
:101EF000B4E2FFFF0000B4430000004647F6FF7065
:101F000001490860704700002404004030B10749CF
:101F1000096841F48061054A116005E003490968D8
:101F200021F48061014A116070470000003C0240CA
:101F300070B504460A460026082502B909E0012AC0
:101F400001D1160205E0022A01D1160201E04FF488
:101F5000407600F097F80546082D28D1154800680E
:101F600020F4407013490860084600683043086058
:101F70000846006820F0F80008600846006844F051
:101F8000020108430B4908600846006840F48030AD
:101F9000086000F077F805460648006820F0020067
:101FA000044908600846006820F0F80008602846E8
:101FB00070BD0000103C024008201049096801F47F
:101FC0008031B1F5803F01D1012015E00B4909684E
:101FD00001F0100109B105200EE00849096801F07F
:101FE000EF0109B1062007E00449096801F0020188
:101FF00009B1072000E00820704700000C3C0240B7
:102000000348006840F00040014908607047000044
:10201000103C024030B502460C46082500F032F86C
:102020000546082D17D10D48006820F440700B4973
:1020300008600846006808600846006840F0010033
:102040000860147000F01EF805460448006820F08F
:10205000010002490860284630BD0000103C0240E3
:102060000548006800F0004028B1044802490C39D6
:102070000860034808607047103C02402301674530
:10208000AB89EFCD08B508200090FFF795FF0090D1
:1020900002E0FFF791FF00909DF800000128F8D0C2
:1020A0009DF8000008BD000010B5124890ED000A30
:1020B000B1EE400A104880ED000A104801698847D7
:1020C0000F48D0ED100A20EE200A0B4880ED010ADF
:1020D000C16C8847084890ED0E0A0A4880ED000A56
:1020E000094890ED050A074880ED010AC16C884750
:1020F00010BD0000340E0020CC0100206407002039
:10210000900C002020020020080B002010B5094888
:10211000C16C8847074890ED0E0A074880ED000A19
:10212000064890ED060A044880ED010AC16C884714
:1021300010BD000074020020C8020020080B00201F
:10214000F0B50A4600210023002400BF3DE0012530
:1021500005FA01F3156805EA03049C4234D10568C9
:102160004F000326BE40B543056015794E00B540CB
:102170000668354305601579012D02D01579022DC9
:1021800016D185684F000326BE40B543856055795A
:102190004E00B540866835438560456801268E400F
:1021A000B5434560456896798E40B6B23543456083
:1021B000C5684F000326BE40B543C560D5794E00C3
:1021C000B540C6683543C560491C1029BFD3F0BD72
:1021D000F0B5002300244D07ED0E02FA05F3CE10F2
:1021E00000F1200555F826504E07F70E0F26BE4089
:1021F000B543CF1000F1200646F82750CE1000F16D
:10220000200555F8265045EA0304CE1000F12005BC
:1022100045F82640F0BD41837047018370474FF673
:10222000FF7101600021017141718171C1717047BD
:102230000148006870470000280800200A7BCB7A1C
:1022400042EA032282618269826082694260026995
:10225000521C02617047000001480078704700007E
:1022600054080020014800787047000056080020FC
:1022700001460B2903D2034800EB81007047002080
:10228000FCE70000CC080020324890ED030A3248F9
:1022900080ED040A2F4890ED040AB1EE400A2E4862
:1022A00080ED050A2B4890ED050A2B4880ED060AC3
:1022B0002A4890ED000A2A4880ED000A294890ED4E
:1022C000000A264880ED000A90ED000A2448D0ED6F
:1022D000000A30EE600ADFED240AB4EEE00AF1EE07
:1022E00010FA05DB21480068401E2049086013E011
:1022F0001A4890ED000A1A48D0ED000A30EE600A44
:10230000DFED1B0AB4EEE00AF1EE10FA04D817482C
:102310000068401C15490860144800684FF4B47107
:10232000484300EE100AB8EEC00A0C48D0ED000A8F
:1023300030EE200A0F4880ED000A0A4890ED010AAD
:102340000D4880ED000A074890ED020A0B4880ED29
:10235000000A7047080A0020080B0020D000002067
:10236000DC0000203C0A00200000A543F40000200F
:102370000000A5C3E8000020EC000020F0000020D1
:10238000002108480068A0F5FE41FF3947F6FF70BC
:10239000044A106004480078012801D108467047BB
:1023A0004842FCE7240400404C00002010B50170B6
:1023B0000378047D021D1355037DD35C447D125DBB
:1023C00043EA82024270027D521C02F00F028275C3
:1023D0004378847D021D125D43EA02128270037D00
:1023E000021DD35C447D125D934205D10D4A1268F3
:1023F000521C0C4B1A6002E000220A4B1A60094A78
:102400001268282A03D3037D021DD25CC270027DAC
:102410004275027D521C0275027D102A01D10022F4
:10242000027510BDC4080020014800787047000004
:10243000550800200148007870470000610700201F
:10244000014602480068084070470000F808002074
:10245000274890ED000AFBEE030AB4EEE00AF1EE25
:1024600010FA04D8BBEE030A80ED000A0DE0204804
:1024700090ED000AF3EE030AB4EEE00AF1EE10FA72
:1024800003DBB3EE030A80ED000A194890ED010A60
:102490001848D0ED010A9FED181A70EEC10AB4EE8B
:1024A000E00AF1EE10FA09D890ED010ADFED120A08
:1024B00030EE600A0E4880ED010A17E00C4890EDFE
:1024C000010A0C48D0ED010A9FED0B1A70EE810A4B
:1024D000B4EEE00AF1EE10FA08DB90ED010ADFED50
:1024E000060A30EE200A024880ED010A704700001B
:1024F000340E0020740200200000704210B58020CD
:1025000000F082FC20B94FF4807000F07DFC08B12F
:10251000002010BD1B4801680068401C194A10606B
:102520001948006881420FD21848006818490968A4
:1025300008441749086017480068174909680844A3
:10254000154908600120E4E7114800680E49096850
:10255000B0FBF1F000B2114948800F4800680A4909
:102560000968B0FBF1F000B20C4908805A200871EC
:1025700000200749086008490860024908600220F5
:10258000C7E700002C08002030080020900C002035
:10259000340800204C0C002038080020E3070020FD
:1025A00010B5FFF747FF05281FD2DFE800F003450D
:1025B0001F8586009FED420A424880ED000A42488E
:1025C000016988474148D0ED100AF1EE600A20EE1B
:1025D000200A3C4880ED010A3D4890ED000A3D4844
:1025E00080ED000A01203C49087067E03A48007815
:1025F00001280ED1002038490870012037490870A1
:10260000344890ED000A364880ED010A0020354933
:102610000860334890ED010A2A4880ED000A2C48F2
:1026200090ED000A274880ED010A294890ED000A44
:10263000284880ED000A41E02A480068401C2949EA
:102640000860084600682849884212D2244890ED64
:10265000010A1C4880ED000A1D4890ED000A194847
:1026600080ED010A1A4890ED000A1A4880ED000A30
:1026700021E01A48007801280BD100201749087082
:10268000012015490870134890ED000A144880EDA8
:10269000010A134890ED010A0A4880ED000A0C482F
:1026A00090ED000A074880ED010A094890ED000A04
:1026B000084880ED000A01E000E000BF00BF10BD47
:1026C0000000000074020020880700204C0C00204D
:1026D000E8000020B8070020B3070020B207002060
:1026E000340E0020B4070020A086010000B585B09C
:1026F00000200290039004902F4908804880888031
:10270000022000F081FB10B1002005B000BD2B4875
:1027100001880088401C294A10802948008881428D
:1027200021DA0DF1120004A9031F03AACDE900105C
:10273000891F02A801F02EF9BDF90E002149096890
:10274000084420490860BDF910001F490968084481
:102750001D490860BDF912001C49096808441B495D
:1027600008600120D1E7174800681549098890FBE7
:10277000F1F000B216490880134800681049098832
:1027800090FBF1F000B212494880104800680C49F3
:10279000098890FBF1F000B20D4988805A208871B9
:1027A0000020084908600849086008490860034992
:1027B00008800220A9E70000ED0700203C08002067
:1027C0003E0800204008002044080020480800205F
:1027D000DC07002010B5044600EE104AB8EEC00A2F
:1027E0000C4880ED000A0C4890ED100A094880ED75
:1027F000010A01F0BFFB074890ED0E0ABDEEC00ACA
:1028000010EE100A01B2054802F01CFA012003F094
:10281000B5F810BD0C070020C40900200068004076
:1028200000BFFEE71FB50E2269463B2001F066F8A7
:102830009DF801009DF8001040EA012000B22149F6
:1028400008809DF803009DF8021040EA012000B2C4
:102850001C4948809DF805009DF8041040EA0120BD
:1028600000B2184988809DF807009DF8061040EADC
:10287000012000B21349C8809DF809001249098956
:10288000401A9DF8081040EA012000B20D49088165
:102890009DF80B000C494989401A9DF80A1040EA3E
:1028A000012000B2074948819DF80D000649898939
:1028B000401A9DF80C1040EA012000B201498881BD
:1028C0001FBD0000480A00205C0A002010B530211E
:1028D0006A2001F041F80A2003F050F80D2124206D
:1028E00001F03AF80A2003F049F80E21282001F0FF
:1028F00033F80A2003F042F88E21312001F02CF841
:102900000A2003F03BF801210B2000F075F80020AD
:1029100000F055F8102801D0012010BD0A2003F066
:102920002DF800210A2000F067F80A2000F047F88F
:1029300008B10220F1E70A2003F020F800210B2063
:1029400000F05AF80B2000F03AF808B10320E4E751
:102950000A2003F013F82421412000F04DF8412013
:1029600000F02DF8242801D00420D6E70A2003F037
:1029700005F8C021422000F03FF8422000F01FF887
:10298000C02801D00520C8E70A2002F0F7FF002187
:102990002A2000F0E1FF0A2002F0F0FF002134209D
:1029A00000F0DAFF0A2002F0E9FF062203210E20E0
:1029B00001F032F8642002F0E1FF0020ADE770B5CD
:1029C00004462146322000F0C7FF0A2002F0D6FF5D
:1029D0008021342000F0C0FF0A2002F0CFFF352014
:1029E00000F068FF05460021342000F0B5FF0A2002
:1029F00002F0C4FF284670BD70B504460D460021A4
:102A00002A2000F0A9FF022002F0B8FF2146292069
:102A100000F0A2FF022002F0B1FF2946642000F07E
:102A20009BFF022002F0AAFF81212A2000F094FFE0
:102A30000A2002F0A3FF70BD40B52DED048B002CE1
:102A400045DA002D43DA94FBF5F63046FDF7CAFB74
:102A500041EC190BB0EE490AF0EE690A02F0CAFE29
:102A6000B0EE408AF0EE608A9FED860B53EC102B9F
:102A700051EC180BFDF7DAFB14D89FED840A84485B
:102A800080ED000A9FED830A834880ED000A9FEDE8
:102A9000830A834880ED000A9FED820A824880ED18
:102AA000000AEBE09FED810A794880ED000A9FED76
:102AB000800A794880ED000A9FED7E0A784880ED13
:102AC000000A9FED7D0A784880ED000AD6E0002CD0
:102AD00045DA002D43DD94FBF5F63046FDF782FB29
:102AE00041EC190BB0EE490AF0EE690A02F082FEE1
:102AF000B0EE408AF0EE608A9FED620B53EC102B33
:102B000051EC180BFDF792FB14D89FED6C0A60484E
:102B100080ED000A9FED5F0A5F4880ED000A9FED9F
:102B2000680A5F4880ED000A9FED660A5E4880ED06
:102B3000000AA3E09FED610A554880ED000A9FED71
:102B4000620A554880ED000A9FED600A544880ED06
:102B5000000A9FED5F0A544880ED000A8EE0002CC9
:102B600045DD002D43DD94FBF5F63046FDF73AFBDD
:102B700041EC190BB0EE490AF0EE690A02F03AFE98
:102B8000B0EE408AF0EE608A9FED3E0B53EC102BC6
:102B900051EC180BFDF74AFB14D89FED4E0A3C4848
:102BA00080ED000A9FED460A3B4880ED000A9FED4C
:102BB000390A3B4880ED000A9FED340A3A4880ED1F
:102BC000000A5BE09FED440A314880ED000A9FED6A
:102BD0003F0A314880ED000A9FED3B0A304880ED06
:102BE000000A9FED3D0A304880ED000A46E0002CC7
:102BF00044DD002D42DA94FBF5F63046FDF7F2FA9B
:102C000041EC190BB0EE490AF0EE690A02F0F2FD50
:102C1000B0EE408AF0EE608A9FED1A0B53EC102B59
:102C200051EC180BFDF702FB14D89FED2C0A184845
:102C300080ED000A9FED2A0A174880ED000A9FEDFB
:102C4000150A174880ED000A9FED260A164880ED08
:102C5000000A13E09FED210A0D4880ED000A9FED68
:102C6000150A0D4880ED000A9FED1F0A0C4880ED03
:102C7000000A9FED1E0A0C4880ED000ABDEC048B93
:102C800040BD0000000000000000F03F0AD7A3BBD9
:102C900094000020A8C64BBE98000020BE9F7A3F3B
:102CA0009C0000204ED111BCA00000206F1203BC7C
:102CB0007B140EBFE17A543F6F1203BB0AD7A33BCC
:102CC000355E7ABFA69B443C68910DBFE17A54BF44
:102CD00099BB16BB52499D3A99BB163B0AD7233B79
:102CE000355E7A3F6F12033C295C0FBFBC74933B87
:102CF000014604480068084008B1012070470020E0
:102D0000FCE700002808002010B52DED048B3A499F
:102D1000B1F90000FDF766FA41EC190BB0EE490A73
:102D2000F0EE690A02F066FDB0EE408AF0EE608ACD
:102D30009FED320B53EC102B51EC180BFDF776FA8C
:102D400053D92D49B1F90200FDF74CFA41EC190BAA
:102D5000B0EE490AF0EE690A02F04CFDB0EE408A8E
:102D6000F0EE608A9FED250B53EC102B51EC180B05
:102D7000FDF75CFA39D9234890ED050A10EE101AD8
:102D80000846FDF740FA41EC190BB0EE490AF0EEA7
:102D9000690A02F02FFDB0EE408AF0EE608A9FEDE6
:102DA000170B53EC102B51EC180BFDF73FFA1CD905
:102DB000144890ED040A10EE101A0846FDF723FAA5
:102DC00041EC190BB0EE490AF0EE690A02F012FD6F
:102DD000B0EE408AF0EE608A9FED080B53EC102BAA
:102DE00051EC180BFDF722FA03D80120BDEC048B3F
:102DF00010BD0020FAE700004C0800200000000091
:102E000000002440340E002000B502461046FFF7B3
:102E100017FB904201D1012000BD0020FCE70020FB
:102E2000704700002DE9FF5F05460E46174698469D
:102E3000DDE9129A119C4FF0000B002003900290E4
:102E40000190CA480078B8B104F04000402813D17E
:102E5000C748007818B10220C649087002E0012076
:102E6000C4490870C2480078C0F10100C049087028
:102E70000020BE49087006E004F04000402802D05F
:102E80000120BA490870BC480078B8B104F00400C9
:102E9000042813D1B948007818B10220B849087045
:102EA00002E00120B6490870B4480078C0F1010082
:102EB000B24908700020B049087006E004F0040030
:102EC000042802D00120AC490870AE480078B8B19F
:102ED00004F00200022813D1AB48007818B1022098
:102EE000AA49087002E00120A8490870A6480078A5
:102EF000C0F10100A44908700020A249087006E052
:102F000004F00200022802D001209E490870A04867
:102F10000078B0B104F0010098B19E48007818B173
:102F200002209D49087002E001209B4908709948E1
:102F30000078C0F10100974908700020944908709A
:102F400005E004F0010010B9012091490870934890
:102F50000078B8B104F08000802813D19048007840
:102F600018B102208F49087002E001208D490870D5
:102F70008B480078C0F1010089490870002087491A
:102F8000087006E004F08000802802D00120834908
:102F9000087085480078B8B104F00800082813D1FB
:102FA0008248007818B101208149087002E00220AF
:102FB0007F4908707D480078C0F101007B490870A6
:102FC00000207949087006E004F00800082802D0C3
:102FD00001207549087077480078B8B104F01000F6
:102FE000102813D17448007818B101207349087073
:102FF00002E00220714908706F480078C0F10100BA
:103000006D49087000206B49087006E004F010005C
:10301000102802D001206749087069480078B8B1CB
:1030200004F02000202813D16648007818B1012050
:103030006549087002E00220634908706148007821
:10304000C0F101005F49087000205D49087006E08A
:1030500004F01000202802D00120594908705B4874
:10306000B0F9000000F5A5705949B1F90010401AF7
:103070000BFB00815548B0F9000000F5A570544ADB
:10308000B2F90020821A039800FB121000B25149D5
:10309000C8804E48B0F9000000F5A5704C49B1F960
:1030A0000010411A029800FB01714848B0F9000075
:1030B00000F5A570464AB2F90020821A019800FB7B
:1030C000121000B2434988800AEBCA00304400B2B3
:1030D000488009EBC900284400B208800846B0F9CE
:1030E000060000900846B0F90430B0F90220B0F9AB
:1030F000001039A002F06EFB3F4890F900103FA08D
:1031000002F068FB40A0DDE9151202F063FB2146E6
:1031100040A002F05FFB384890F900002D4988720A
:103120001D4890F90000C8723D4890F900000873EE
:103130001F4890F9000048730E4890F9000088730A
:103140000F4890F90000C873164890F90000887481
:103150000E4890F900004874184890F90000C874AF
:10316000194890F900000875BDE8FF9FC2070020CC
:10317000C8070020D4070020C5070020CB07002087
:10318000D5070020C6070020CC070020D707002065
:10319000C3070020C9070020D1070020C407002072
:1031A000CA070020D6070020C7070020CD0700204F
:1031B000D3070020C0070020CE070020D80700203A
:1031C000C1070020CF070020D9070020BC0700203E
:1031D000BE070020FC0C00206368303A25642C6395
:1031E00068313A25642C6368323A25642C6368336D
:1031F0003A25640D0A000000D0070020636F6D3A85
:1032000025640D0A000000006C3A25642C723A25F2
:10321000640D0A006B65793A25640D0A0000000010
:10322000D20700201CB50121202000F0DBFF012186
:10323000102000F0D7FF8020009001208DF80400BE
:1032400000208DF8060003208DF8050069467C48B3
:10325000FEF776FF4FF48040009001208DF80400C7
:1032600000208DF8060003208DF80500694675489A
:10327000FEF766FF80217248FEF7CFFF4FF48041D2
:103280007048FEF7CAFF0121802000F0ABFF042048
:10329000009001208DF8040000208DF80600032026
:1032A0008DF8050069466848FEF74AFF082000903F
:1032B00001208DF8040000208DF8060003208DF811
:1032C000050069466048FEF73BFF10200090012092
:1032D0008DF8040000208DF8060003208DF805000D
:1032E00069465948FEF72CFF2020009001208DF8F8
:1032F000040000208DF8060003208DF805006946C3
:103300005148FEF71DFF0121202000F06BFF012135
:10331000102000F067FF0121080200F063FF012187
:10332000042000F05FFF0121084600F05BFF40F23F
:103330000340009001208DF804008DF80600032062
:103340008DF8050001208DF8070069463D48FEF71D
:10335000F7FE41F27000009001208DF804008DF816
:10336000060003208DF8050001208DF8070069464E
:103370003348FEF7E5FE4FF40070009001208DF811
:1033800004008DF8060003208DF8050001208DF85B
:10339000070069462D48FEF7D3FE0C20009001205F
:1033A0008DF804008DF8060003208DF8050001203B
:1033B0008DF8070069462648FEF7C2FE33200090CC
:1033C00000208DF8040003208DF8050002208DF800
:1033D000070069461E48FEF7B3FE02211948FEF7B2
:1033E0001CFF01211748FEF718FF10211448FEF7B3
:1033F00014FF20211248FEF710FF40211048FEF76D
:103400000CFF4FF480510E48FEF707FF04211048CF
:10341000FEF703FF08210E48FEF7FFFE10210C48BF
:10342000FEF7F9FE20210A48FEF7F5FE02210848C2
:10343000FEF7F1FE01210648FEF7EDFE1CBD00007F
:103440000010024000140240001C02400020024014
:10345000000802400021016070470000F8B50446F2
:103460000D4616461F4600EE104AB8EEC00A6A48DE
:1034700080ED000A694890ED000A674880ED010A76
:1034800000EE105AB8EEC00A654880ED000A6548A3
:1034900090ED000A624880ED010A00EE106AB8EE75
:1034A000C00A614880ED000A604890ED000A5E485D
:1034B00080ED010A00EE107AB8EEC00A5C4880ED9B
:1034C000000A5C4890ED000A594880ED010A524814
:1034D00000F0D0FC524800F0CDFC534800F0CAFC8C
:1034E000534800F0C7FC4C4890ED0E0ADFED520A3D
:1034F000B4EEE00AF1EE10FA03DB9FED4F0A80ED27
:103500000E0A454890ED0E0ADFED4C0AB4EEE00AD3
:10351000F1EE10FA03D89FED490A80ED0E0A4048FB
:1035200090ED0E0ADFED440AB4EEE00AF1EE10FA77
:1035300003DB9FED410A80ED0E0A394890ED0E0A3B
:10354000DFED3E0AB4EEE00AF1EE10FA03D89FED8B
:103550003B0A80ED0E0A344890ED0E0ADFED360A84
:10356000B4EEE00AF1EE10FA03DB9FED330A80EDD2
:103570000E0A2D4890ED0E0ADFED300AB4EEE00A97
:10358000F1EE10FA03D89FED2D0A80ED0E0A2848BF
:1035900090ED0E0ADFED280AB4EEE00AF1EE10FA23
:1035A00003DB9FED250A80ED0E0A214890ED0E0AFF
:1035B000DFED220AB4EEE00AF1EE10FA03D89FED37
:1035C0001F0A80ED0E0A1A4890ED0E0ABDEEC00AE1
:1035D00010EE100A00B20090134890ED0E0ABDEEF6
:1035E000C00A10EE100A03B20D4890ED0E0ABDEEAF
:1035F000C00A10EE100A02B2074890ED0E0ABDEEA6
:10360000C00A10EE100A01B20D4801F0EDFA0520D3
:1036100002F0B4F9F8BD000070030020280000207B
:10362000C40300202C0000201804002030000020DB
:103630006C040020340000200000FA450000FAC5A8
:10364000006400402DE9F04304460D46DDE90767BC
:1036500000200021012041E0DFF8D8C13CF81080B3
:10366000A0F1010CDFF8CC9129F81C8009F1160CAF
:103670003CF81090A0F1010CDFF8B88108F11608B1
:1036800028F81C9008F1160C3CF81090A0F1010CE1
:1036900008F1160828F81C9008F1160C3CF8109058
:1036A000A0F1010C08F1160828F81C9008F1160C7E
:1036B0003CF81090A0F1010C08F1160828F81C90B5
:1036C00008F1160C3CF81090A0F1010C08F1160856
:1036D00028F81C9000F1010C0CF0FF000A28BBDB5D
:1036E000DFF850C1ACF81240ACF82850ACF83E20DE
:1036F000ACF85430ACF86A60ACF88070002008E098
:10370000DFF830C13CF910C0614400F1010C0CF04D
:10371000FF000A28F4DB4FF00A0C91FBFCFC0FFAC7
:103720008CFCDFF81081A8F814C0002100200AE00A
:10373000DFF800C10CF1160C3CF910C0614400F137
:10374000010C0CF0FF000A28F2DB4FF00A0C91FB91
:10375000FCFC0FFA8CF8DFF8DCC0ACF82A80002102
:1037600000200AE0DFF8CCC00CF12C0C3CF910C0B2
:10377000614400F1010C0CF0FF000A28F2DB4FF06D
:103780000A0C91FBFCFC0FFA8CF8DFF8A8C0ACF82F
:103790004080002100200AE0DFF898C00CF1420CC4
:1037A0003CF910C0614400F1010C0CF0FF000A2844
:1037B000F2DB4FF00A0C91FBFCFC0FFA8CF8DFF8FF
:1037C00074C0ACF85680002100200AE0DFF864C025
:1037D0000CF1580C3CF910C0614400F1010C0CF0E4
:1037E000FF000A28F2DB4FF00A0C91FBFCFC0FFAF9
:1037F0008CF8DFF840C0ACF86C80002100200AE0B3
:10380000DFF830C00CF16E0C3CF910C0614400F1DF
:10381000010C0CF0FF000A28F2DB4FF00A0C91FBC0
:10382000FCFC0FFA8CF8DFF80CC0ACF88280BDE825
:10383000F0830000700A002010B588B04020069088
:1038400001208DF81C0000208DF81E008DF81F004F
:1038500003208DF81D0006A91348FEF771FCFFF741
:1038600035F80024182211496846FCF7A9FC6420A9
:1038700002F084F8752000F01DF80D49087000BFB3
:103880000CE06A4602EB440251781DF8140000F087
:1038900063F8012002F072F8601CC4B20C2CF0DB5B
:1038A000002008B010BD000000140240B05D000808
:1038B000F900002010B5044640210D48FEF7ABFC8E
:1038C00044F080000B4908700846007800F0C2FF01
:1038D000094908700748007800F0BCFF06490870E5
:1038E00040210348FEF799FC0348007810BD000012
:1038F00000140240FC000020FB0000202DE9F041F4
:1039000005460E461746002440211048FEF783FC6A
:1039100045F080000E490870084600780D4908708F
:103920000B48007800F096FF00BF05E00949085DEC
:1039300000F090FF3055641CBC42F7DB4021034887
:10394000FEF76BFC0020BDE8F0810000001402408F
:10395000FD000020FE00002070B505460C46402109
:103960000A48FEF758FC05F07F0009490870084630
:10397000007800F06FFF06480470007800F06AFFDE
:1039800040210248FEF749FC002070BD00140240AF
:10399000FA0000202DE9FC4704460D4616461F4656
:1039A000DDE90A89002019490870FEF73BFF184835
:1039B000B0F90C001649B1F90A10DFF854C0CDE98E
:1039C0000010BCF90830BCF90420BCF90210BCF9A5
:1039D0000000FFF737FE0F48808A20800D48408D99
:1039E00028800C48B0F8400030800A48B0F85600F3
:1039F00038800848B0F86C00A8F800000548B0F816
:103A00008200A9F80000BDE8FC870000F800002053
:103A1000480A0020700A002070B504460E4615467C
:103A200021462820FFF798FF022001F0A7FF0A2176
:103A30002920FFF791FF022001F0A0FF012164205F
:103A4000FFF78AFF022001F099FF44F08001252052
:103A5000FFF782FF022001F091FF31462620FFF799
:103A60007BFF022001F08AFF03213420FFF774FF5F
:103A7000022001F083FF03216720FFF76DFF022082
:103A800001F07CFF81212A20FFF766FF062001F06C
:103A900075FF45F080012720FFF75EFF072001F04A
:103AA0006DFF70BD10B50220FFF7AEF908B1002020
:103AB00010BD1F49B1F900101D4AB2F9062088183F
:103AC00000EBD071491009B21A4A11801849B1F9B6
:103AD0000210174AB2F90820881800EBD07149107B
:103AE00009B2144A51801249B1F90410104AB2F9CE
:103AF0000A20881800EBD071491009B20D4A918054
:103B0000B7EE000A10EE100A1146C1F80600B7EE33
:103B1000000A10EE100AC1F80A00B7EE000A10EE13
:103B2000100AC1F80E005A2088740220C0E7000075
:103B3000300B0020790D00204FF4704005490880BB
:103B4000488088804FF48050C880088148810220D6
:103B500070470000300B002000BFFEE770B5044640
:103B60000D46FEF767FC002878D0287800F010009A
:103B700040B14FF42570664908804FF4487065499C
:103B8000088007E04FF4FA70614908804FF42F7005
:103B900060490880287800F0010090B15E48016912
:103BA00088475B48008800EE900AF8EE600A20EE35
:103BB000200ABDEEC00A10EE100A00B25749088074
:103BC0001AE0287800F0020098B15348016988474C
:103BD0004F480088404200EE900AF8EEE00A20EEDE
:103BE000200ABDEEC00A10EE100A00B24B49088050
:103BF00002E0002049490880287800F0040098B1CC
:103C000047480169884743480088404200EE900ACF
:103C1000F8EEE00A20EE200ABDEEC00A10EE100A0F
:103C200000B23E49488019E0287800F0080090B1C1
:103C30003B48016988473748008800EE900AF8EE53
:103C4000600A20EE200ABDEEC00A10EE100A00B293
:103C50003249488002E0002030494880FEF7EAFB04
:103C600002283CD1B4F9000010F1960F03DC6FF08C
:103C70009500208005E0B4F90000962801DB96202D
:103C80002080B4F9020010F1960F03DC6FF095006C
:103C9000608005E0B4F90200962801DB9620608080
:103CA000204890ED000AB4F9020000EE900AF8EE08
:103CB000E00A9FED1D1A00EEC10A1A4880ED000AC5
:103CC00090ED010AB4F9000000EE900AF8EEE00A67
:103CD0009FED151A00EE810A124880ED010AB4F931
:103CE000020000EE100AB8EEC00A0E4880ED040A89
:103CF000B4F9000000EE100AB8EEC00A094880EDE1
:103D0000050AFEF7A5FB204600F010F870BD000084
:103D1000C8080020CA080020A00800204C08002085
:103D20007C080020340E0020CDCCCC3C70B504467D
:103D300000252A48007820B1012812D0022848D155
:103D40002AE0E07960B9607A012809D1002000F00A
:103D5000C9FE234881698847012020490870002551
:103D600037E0607A012802D1681C05B200E0002526
:103D7000322D09DD002019490870194881698847EA
:103D8000002000F0AFFE06E01548016A884710B138
:103D90000220124908701CE0607A012802D1681CD8
:103DA00005B200E00025322D09DD00200B49087026
:103DB0000B4881698847002000F094FE08E0207AD3
:103DC000012802D100F08EFE02E0002000F08AFE01
:103DD00000BF00BF607AE07170BD00005408002091
:103DE000580800207047000070B5002100230F2202
:103DF000C4781CB3174C246804F4E064C4F5E06490
:103E0000C4F30721C1F10404E3B20A4144789C40A1
:103E1000E1B28478144021430C07210E0E4C057842
:103E20006155047804F01F050124AC4005786D113C
:103E3000AD0005F1E025C5F8004109E0047804F083
:103E40001F050124AC40054D0678761145F8264043
:103E500070BD00000CED00E000E400E080E100E057
:103E600002490143024A1160704700000000FA0550
:103E70000CED00E090ED030A80ED020A90ED000ADF
:103E8000D0ED010A30EE600A80ED030A90ED040ADD
:103E9000D0ED030A30EE200A80ED040A90ED060A08
:103EA000D0ED0C0AF1EE600AB4EEE00AF1EE10FA81
:103EB00006D890ED0C0AB1EE400A80ED060A0CE03F
:103EC00090ED060AD0ED0C0AB4EEE00AF1EE10FA1D
:103ED00003DB90ED0C0A80ED060A90ED050AD0EDAB
:103EE000030A20EE200AD0ED060A90ED041A00EE37
:103EF000810AD0ED030A90ED021A70EEC10A90ED2E
:103F0000071A01EE200A80ED0E0A90ED0E0AD0EDA0
:103F10000F0AF1EE600AB4EEE00AF1EE10FA06D8EC
:103F200090ED0F0AB1EE400A80ED0E0A0CE090ED24
:103F30000E0AD0ED0F0AB4EEE00AF1EE10FA03DB40
:103F400090ED0F0A80ED0E0A704700009FED080A01
:103F500080ED020A9FED060A80ED030A9FED040A38
:103F600080ED040A9FED020A80ED0E0A7047000002
:103F70000000000090ED030A80ED020A90ED000AB7
:103F8000D0ED010A30EE600A80ED030A90ED040ADC
:103F9000D0ED030A30EE200A80ED040A90ED030A0A
:103FA0003A49D1ED000A20EE200AD0ED040A384942
:103FB00091ED001A01EE200AD0ED030A90ED021AED
:103FC00070EEC10A334991ED001A01EE200A324920
:103FD00081ED000A314991ED000A314981ED000A75
:103FE0002D4991ED000A2F49D1ED000A30EE600A0B
:103FF0002A4981ED000A2C4991ED000A2749D1EDAB
:10400000000A30EE200A284981ED000A274991ED87
:10401000000A2249D1ED000A20EE200A2449D1ED00
:10402000000A214991ED001A00EE810A1B49D1EDE9
:10403000000A1B4991ED001A70EEC10A1D4991ED6D
:10404000001A01EE200A80ED0E0A90ED0E0AD0ED66
:104050000F0AF1EE600AB4EEE00AF1EE10FA06D8AB
:1040600090ED0F0AB1EE400A80ED0E0A0CE090EDE3
:104070000E0AD0ED0F0AB4EEE00AF1EE10FA03DBFF
:1040800090ED0F0A80ED0E0A70470000080900202D
:104090000C09002010090020200900202809002018
:1040A00024090020740000202C090020140900209D
:1040B000180900201C09002000B58BB0012108461A
:1040C00000F090F80121082000F09CF8012108047C
:1040D00000F0B8F80720099002208DF8280003208E
:1040E0008DF8290009A93B48FEF72AF80222002191
:1040F0003848FEF76DF8022201213648FEF768F8CD
:10410000032202213348FEF763F85320ADF818006C
:104110000020ADF81A0044F6206007900020ADF8AA
:10412000200006A92C4800F081FFA720ADF8180058
:104130000020ADF81A004FF47A7007900020ADF817
:10414000200006A9254800F071FF7020ADF804009A
:104150000120ADF806000020ADF808004FF47A7099
:1041600003900220ADF810000020ADF81200ADF869
:1041700014004FF48070ADF8160001A9164800F045
:10418000ADFE01A9144800F0F1FE0020039001A942
:10419000124800F0A3FE08210F4800F0DDFE0821C0
:1041A0000D4800F035FF08210C4800F0D5FE012134
:1041B000094800F063FE0121084800F05FFE01217C
:1041C000054800F06DFE0121044800F069FE0BB0C7
:1041D00000BD000000000240000C00400040014013
:1041E0007047000029B1064A12680243044B1A6066
:1041F00004E0034A12688243014B1A6070470000D2
:104200003038024029B1064A12680243044B1A6052
:1042100004E0034A12688243014B1A6070470000B1
:104220004038024029B1064A12680243044B1A6022
:1042300004E0034A12688243014B1A607047000091
:104240002038024029B1064A12680243044B1A6022
:1042500004E0034A12688243014B1A607047000071
:104260004438024029B1064A12680243044B1A60DE
:1042700004E0034A12688243014B1A607047000051
:1042800024380240F0B50021002200240225002637
:104290000223324F3F6807F00C0121B1042905D0F9
:1042A000082937D105E02E4F076036E02D4F076013
:1042B00033E02A4F3F1F3F68C7F38056274F3F1F09
:1042C0003F6807F03F036EB1264FB7FBF3F7DFF807
:1042D0008CC0ACF1040CDCF800C0CCF3881C07FBEC
:1042E0000CF40CE01E4FB7FBF3F7DFF870C0ACF135
:1042F000040CDCF800C0CCF3881C07FB0CF4174F4F
:104300003F1F3F68C7F301477F1C7D00B4FBF5F7F3
:10431000076002E0124F076000BF00BF0F4F3F6809
:1043200007F0F0010909104F7A5C0768D740476031
:104330000A4F3F6807F4E051890A0B4F7A5C4768DF
:10434000D7408760054F3F6807F46041490B064F2F
:104350007A5C4768D740C760F0BD0000083802406B
:104360000024F400001BB700780000200168491CFD
:104370000160D0E9001291420ADA90ED000AF8EEED
:10438000C00A90ED010AB8EEC01A80EE810A7047AB
:10439000B7EE000AFBE770470146D1E90002904200
:1043A00001DA002070470120FCE70021016070471E
:1043B000016070474160704710B50446FEF73AF857
:1043C000B8B3B4F90200A0F5806000EE100AB8EEB0
:1043D000C00AF7EE000A20EE200ABDEEC00A10EE79
:1043E000100A00B268490880B4F90000A0F58060A6
:1043F00000EE100AB8EEC00AF7EE000A20EE200A1E
:10440000BDEEC00A10EE100A00B24880B4F90400F4
:10441000A0F5806000EE100AB8EEC00AF7EE000AC0
:1044200020EE200ABDEEC00A10EE100A00B2C880CD
:1044300004E0FFE70020544908804880FDF7FAFFB8
:10444000022842D1514890ED000AB4F90600A0F5C7
:10445000806000EE900AF8EEE00A9FED4D1A00EE43
:10446000810A4A4880ED000A4A48007A02286DD045
:10447000494890ED100ADFED490AB4EEE00AF1EE8A
:1044800010FA23DDB4F90400A0F5806000EE100AF4
:10449000B8EEC00ADFED3E0A20EE200AB5EEC00AF3
:1044A000F1EE10FA52DD394890ED010AB4F904003A
:1044B000A0F5806000EE900AF8EEE00A9FED341A55
:1044C00000EE810A314880ED010A3FE0324890ED6C
:1044D000100ADFED330AB4EEE00AF1EE10FA23D24F
:1044E000B4F90400A0F5806000EE100AB8EEC00A2E
:1044F000DFED270A20EE200AB5EEC00AF1EE10FA31
:1045000024D2224890ED010AB4F90400A0F580609D
:1045100000EE900AF8EEE00A9FED1D1A00EE810A07
:104520001A4880ED010A11E0184890ED010AB4F92B
:104530000400A0F5806000EE900AF8EEE00A9FED1E
:10454000141A00EE810A114880ED010AB4F9060040
:10455000A0F5806000EE100AB8EEC00A0B4880EDAE
:10456000040AB4F90400A0F5806000EE100AB8EE69
:10457000C00A064880ED050AFDF76AFF217A09485E
:1045800000F086F810BD00004C080020340E00201A
:104590006F12833B1C0E00204C0C00200000704268
:1045A000000070C24C0E002010B5044604B910BDC6
:1045B0002078617840EA0120C0F30A00334908807E
:1045C0006078C010A17840EA4110C0F30A002F497A
:1045D0004880A0788011E17840EA8100217940EAA2
:1045E0008120C0F30A002949888020794010617930
:1045F00040EAC110C0F30A002449C8806079001164
:10460000800808726079C0F301104872A079E179DE
:1046100040EA012000B21D494881207A617A40EACF
:10462000012001B219488181A07AE17A40EA012093
:1046300001B21648C181217B8174617BC174A07B6A
:1046400012498882207C617C40EA0120C0F30A0084
:104650000E49C882084600F0FBF9FDF703FE012869
:1046600004D002280DD003280CD103E00748FFF73F
:10467000A3FE07E005491431A1F10A00FFF76EFA25
:1046800000E000BF00BF00BF91E700001C0E00204B
:1046900070B504460D4629462046FDF787FE2248A0
:1046A000007820B101280FD002283AD121E06078AB
:1046B0000D2808D1002000F015FA1C4881698847B0
:1046C0000120194908702CE060780D2809D10020DC
:1046D00000F008FA002014490870144881698847DE
:1046E00006E01248016A884710B102200E4908709E
:1046F00017E060780D2809D100200B4908700B489D
:1047000081698847002000F0EDF909E0207802284F
:1047100003D1012000F0E6F902E0002000F0E2F908
:1047200000BF00BF70BD00005408002058080020E2
:1047300010B513486421C269904712483221C269FA
:10474000904711483C21C26990470D4881698847CC
:104750000C48816988470C48816988479FED0B0A9E
:104760000B4880ED000A9FED090A80ED010A002048
:10477000084908804880888000F018F910BD0000C2
:10478000580800207C080020A0080020000000003D
:10479000340E00204C080020024909688143014A78
:1047A000116070472808002000B587B00121202043
:1047B000FFF718FD01210805FFF744FD4FF4607075
:1047C000059002208DF8180000208DF81A000320B3
:1047D0008DF8190000208DF81B0005A91B48FDF776
:1047E000AFFC052207211948FDF7F2FC052208213C
:1047F0001648FDF7EDFC052209211448FDF7E8FCF9
:104800000020ADF800004FF48270ADF802000020E7
:10481000ADF80400ADF80600ADF808004FF40070E4
:10482000ADF80A003820ADF80C000020ADF80E00FD
:104830000A20ADF810006946054800F041F8012152
:10484000034800F023F807B000BD00000014024048
:104850000050014010B5044600BF02210A4800F094
:1048600021F80028F9D02146074800F027F800BFBA
:104870000121054800F016F80028F9D0024800F0A0
:104880001AF8C0B210BD00000050014021B10288EA
:1048900042F04002028004E002884FF6BF731A40E3
:1048A000028070470246002013890B400BB10120A3
:1048B00000E0002070470146888970478181704779
:1048C00010B50022028802F441520B884C88234321
:1048D0008C882343CC8823430C8923434C8923436E
:1048E0008C892343CC8923431A430280838B4FF264
:1048F000FF74234083830B8A038210BD704700003E
:1049000010B50446132204F124011D48FBF758FC9E
:104910001C48E41DD4F803100160B4F8071081802E
:10492000617A8171184854F8021C0160A178017104
:104930001648216B0160616B41601548A16B0160F5
:10494000E16B41601348216C0160616C4160124869
:10495000A16C0160E16C41601048216D0160616DE6
:1049600041600F48A16D0160E16DE41F41604FF4AB
:10497000D7500C49886140F2E6500B49886110BD60
:10498000060E0020ED070020E8070020F4070020B5
:10499000FC070020040800200C0800201408002058
:1049A0001C080020900C00204C0C002001490870CD
:1049B000704700005408002010B504463CB104487C
:1049C0002168C0F8051021794172FBF7A7FD10BDE1
:1049D000120D002010B5FDF72DFD032806D0FEF7BF
:1049E0001EFA18B9FDF726FD042805D1002211464C
:1049F0000C4800F051F913E00B4890ED0E0ABDEEA3
:104A0000C00A10EE100A404202B2084890ED0E0AA9
:104A1000BDEEC00A10EE100A01B2024800F03CF9E7
:104A200010BD00000064004020020020C8020020E9
:104A300010B504464CB105482168C0F80A10A18899
:104A4000C181A1790174FBF769FD10BD120D002031
:104A5000417A012902D1074A11700AE0417A0329FB
:104A600002D1044A117004E0417A022901D1014ABD
:104A7000117070475608002010B5044634B1132257
:104A800021460348FBF79CFBFBF748FD10BD0000E7
:104A9000360D002010B504460CB3114854F8371FEA
:104AA0000160616841600830A1680160E1684160AF
:104AB000083021690160616941600830A1690160C5
:104AC000E16941600830216A0160616A4160083033
:104AD000A16A0160E16A373C4160FBF71FFD10BD30
:104AE000490D00200149087070470000550800205A
:104AF0000CB50020019000903448006840F48030EC
:104B00003249086000BF3148006800F4003000906E
:104B10000198401C0190009818B90198B0F5A04F79
:104B2000F1D12A48006800F4003010B10120009053
:104B300001E0002000900098012846D12348403031
:104B4000006840F0805021494031086020480068EA
:104B500040F440401E4908601C48083000681B496A
:104B6000083108600846006840F4004008600846C4
:104B7000006840F4A05008601648091F0860081F2C
:104B8000006840F08070091F086000BF0F4800688F
:104B900000F000700028F9D040F205600E4908606E
:104BA0000A480830006820F003000849083108600E
:104BB0000846006840F00200086000BF0348083063
:104BC000006800F00C000828F8D10CBD0038024045
:104BD000007000400C544007003C0240014908703E
:104BE00070470000610700202DE9F04186B0804643
:104BF0000C4615461E460C9F4FF400700190002095
:104C00008DF80C008DF80D0008208DF80E00200A9C
:104C10008DF80F008DF81040290A8DF811108DF8CD
:104C20001250310A8DF813108DF81460390A8DF87E
:104C300015108DF8167001A94046FCF750FB06B020
:104C4000BDE8F08130B585B005460C464FF40070E4
:104C5000009000208DF808008DF8090008208DF8DC
:104C60000A0000208DF80B0000218DF80C10210A9D
:104C70008DF80D10E1B28DF80E1000218DF80F1097
:104C80008DF810108DF811108DF812106946284615
:104C9000FCF725FB05B030BD70B586B006460C4666
:104CA000154640F2FF10019000208DF80C008DF8A1
:104CB0000D0008208DF80E00200A8DF80F008DF8E9
:104CC0001040290A8DF811108DF8125000218DF82E
:104CD00013108DF814108DF815108DF8161001A909
:104CE0003046FCF7FCFA06B070BD000010B5FDF7C9
:104CF0009BFB012805D19FED100A104880ED000AAA
:104D000004E09FED0D0A0D4880ED000AFDF738FB29
:104D100000EE100AB8EEC00A084880ED010AC16C26
:104D20008847064890ED0E0ABCEEC00A10EE100A45
:104D30000349486310BD000000000000C0040020CB
:104D40000040014010B51548006840F47000134958
:104D500008601348006840F0010011490860002015
:104D60000F49083108600E4800680E4908400C4998
:104D700008600D48091D0860081F006820F48020A5
:104D8000091F0860002006490C310860FFF7B0FEDB
:104D90004FF0006001498039086010BD88ED00E0E7
:104DA00000380240FFFFF6FE103000240EB501214E
:104DB0000846FFF727FA4FF0FF300190A720ADF823
:104DC00000000020ADF80200ADF8080001218807BE
:104DD00000F054F869464FF0804000F027F90121B7
:104DE000880700F05DF80EBD10B50121880700F0BE
:104DF00063F838B10121880700F04FF801218807D6
:104E000000F048F810BD00001FB501211020FFF789
:104E1000F9F936208DF8000001208DF801000020FE
:104E20008DF8020001208DF803006846FEF7DCFFD4
:104E300040F2E73002905320ADF804000020ADF8B6
:104E40000600ADF80C0001A9014800F0EFF81FBD05
:104E50000010004010B50121074800F02DF848B1BE
:104E60000121054800F019F80121034800F012F86B
:104E7000FCF748FD10BD00000010004021B1028881
:104E800042F08002028004E002884FF67F731A40ED
:104E900002807047CA4302827047CA430282704749
:104EA00021B1028842F00102028004E002884FF63C
:104EB000FE731A400280704730B50246002000237E
:104EC0000024158A05EA0103958905EA010413B156
:104ED0000CB1012000E0002030BD000070B50024BE
:104EE00000220023058C4FF6FE7635400584028CA7
:104EF0008388048B4FF68F752C40B51E2C400D888F
:104F00002C43751E2A408D892A434D882A43104D13
:104F1000A84202D00F4DA84213D14FF6F7752A4090
:104F2000CD892A434FF6FB752A408D882A434FF6D8
:104F3000FF652B404FF6FF552B400D8A2B434D8AC2
:104F40002B43838004838D684563028470BD000019
:104F500000000140000401400A460021018B4FF689
:104F6000F7731940114301837047000070B50024A6
:104F700000220023058C4FF6EF7635400584028C25
:104F80008388048B48F6FF752C404FF6FF452C4074
:104F90000D884FF6FF7606EA05252C434FF6DF75A0
:104FA0002A408D8906EA05152A434D8806EA05152B
:104FB0002A43154DA84202D0144DA8421DD14FF6E8
:104FC0007F752A40CD894FF6FF7606EA05152A43FC
:104FD0004FF6BF752A408D8806EA05152A434FF61D
:104FE000FF352B404FF2FF752B400D8A06EA8505F1
:104FF0002B434D8A06EA85052B43838004838D6805
:105000008563028470BD000000000140000401407F
:105010000A460021018B4FF2FF7319404FF6FF73D0
:1050200003EA02231943018370470000002202882B
:10503000184B98420ED0184B98420BD0B0F1804FCD
:1050400008D0164B984205D0154B984202D0154B0C
:10505000984204D14FF68F731A404B881A43124B73
:10506000984207D0114B984204D04FF6FF431A40A4
:105070000B891A4302804B68C3620B880385054B7A
:10508000984202D0044B984201D18B7A03860123C7
:10509000838270470000014000040140000400408A
:1050A00000080040000C00400010004000140040C8
:1050B00000B597B001210220FFF794F8012188057F
:1050C000FFF790F801211020FFF7BCF807221146E6
:1050D0004248FDF77DF815A8FDF7A1F8802015904E
:1050E00002208DF8580000208DF8590001208DF81D
:1050F0005B0015A93948FDF723F8394800F0A6F9F7
:1051000011A800F0C7FA374811900020ADF8480008
:10511000ADF84A004FF48060ADF84C000420ADF8C3
:105120004E000020ADF8500011A92D4800F044FABF
:10513000012240212A4800F07FF92B48FCF7B8FCF7
:1051400001A8FCF7B3FD4FF0006001902448001D5A
:10515000029026480390002004901E200590002015
:1051600006904FF4806007900020089009904FF45B
:1051700080700A9000020B9000200C900D900E9011
:105180000F9001A91848FCF765FD002217491E3150
:105190001548FCF744FD01211348FCF735FD0121BA
:1051A0001148FCF779FC25208DF8400000208DF88F
:1051B00041008DF8420001208DF8430010A8FEF751
:1051C00013FE012240F22441054800F0D0F90121EC
:1051D000034800F025F917B000BD000000040240AC
:1051E00000100140A08601004064024048090020F0
:1051F00010B540F224412E4800F08FF9002855D018
:105200002B4800882A4880882A48FCF718FD30BBC4
:1052100000212848FCF740FC2648FCF70CFDC0F1B3
:105220001E00254908601E202249091D0860081F2C
:10523000006840F40020091F086001211D48FCF7A8
:105240002BFC1D480068122830D11C48FFF7ACF930
:105250000020FDF70DF80446FEF7FCF826E00021DB
:105260001448FCF719FC1348FCF7E5FCC0F11E00DC
:10527000114908601E200F49091D0860081F0068B9
:1052800020F40020091F086001210A48FCF704FCF3
:1052900009480068122809D108481E30FFF784F930
:1052A0000020FCF7E5FF0446FEF7D4F810BD00002F
:1052B0000010014040640240000000204809002026
:1052C00010B540F22771064800F027F938B10548BB
:1052D00030F81410024800F0D9F9601C84B210BDF7
:1052E000004400404E00002000B587B00121082096
:1052F000FEF778FF01218804FEF784FF07220821CA
:105300002248FCF765FF072209212048FCF760FFCF
:105310004FF44070059002208DF818008DF81900A8
:1053200000208DF81A008DF81B0005A91748FCF71E
:1053300007FF4FF4E13001900020ADF80800ADF810
:105340000A00ADF80C00ADF810000C20ADF80E000E
:1053500001A90F4800F030F901210D4800F060F874
:10536000012240F225510A4800F001F927208DF86A
:10537000000003208DF801008DF8020001208DF857
:1053800003006846FEF730FD07B000BD000C024088
:105390000048004010B51E48008800F0080020B109
:1053A0001B49091D0988C8B200BF1948008800F0D0
:1053B0008000F0B116480C30008800F08000C0B1C9
:1053C000144801780078401C124A10701248405C62
:1053D0000F49091D08801046007810490978884255
:1053E00007D10B480C30008820F0800008490C31B0
:1053F00008800748008800F0200038B10448001DEC
:105400000088C4B22046FCF763FC00BF10BD00005A
:10541000004800403C090020950E00203D09002076
:1054200021B1828942F40052828104E082894DF6E2
:10543000FF731A40828170471AB1838A0B438382BB
:1054400002E0838A8B4383827047000010B50446D4
:105450002548844208D101211020FEF703FF0021D6
:105460001020FEF7FFFE3EE02048844209D10121D2
:105470004804FEF7D7FE00214FF40030FEF7D2FEBD
:1054800031E01B48844209D101218804FEF7CAFE9D
:1054900000214FF48020FEF7C5FE24E01548844229
:1054A00009D10121C804FEF7BDFE00214FF4002000
:1054B000FEF7B8FE17E01048844209D10121080523
:1054C000FEF7B0FE00214FF48010FEF7ABFE0AE0BD
:1054D0000A48844207D101212020FEF7C3FE0021A3
:1054E0002020FEF7BFFE10BD001001400044004028
:1054F00000480040004C00400050004000140140B3
:1055000002460020B1F5007F00D100BF13880B4098
:105510000BB1012000E00020704770B50246002466
:1055200000230025002040F66A16B14200D100BFDA
:10553000C1F3421501F01F03012606FA03F3012D02
:1055400002D19689334006E0022D02D1168A3340FB
:1055500001E0968A33400C12012606FA04F41688FC
:10556000344013B10CB1012000E0002070BDF0B553
:105570000346002400260025002040F66A17B942A1
:1055800000D100BF1846C1F3421401F01F060127E5
:1055900007FA06F5012C01D10C3004E0022C01D1F0
:1055A000103000E014301AB107682F43076002E0A2
:1055B0000768AF430760F0BD2DE9FF4705460E467B
:1055C0000024A14600BFA046B08900B100BF2C8ACC
:1055D00024F44054F08804432C82AC8941F20C60DE
:1055E0008443B08831890843718908430443AC81FE
:1055F000AC8A24F44074B0890443AC826846FEF758
:1056000041FE2048854202D01F48854202D1DDF884
:105610000C9001E0DDF80890A88900F4004040B14A
:1056200009EBC90000EB091031684900B0FBF1F744
:1056300007E009EBC90000EB091031688900B0FBF5
:10564000F1F76420B7FBF0F004012009642101FBAD
:105650001078A88900F4004040B1322000EBC80067
:10566000B0FBF1F000F00700044308E0322000EB4B
:1056700008106421B0FBF1F000F00F0004432C810E
:10568000BDE8FF870010014000140140C1F308028B
:10569000828070474FF41651016000218180C180E3
:1056A00001810C21418100218181704700BFFEE70B
:1056B00010B53B4800783B49087039480078052808
:1056C00068D2DFE800F003301E515C00FCF7CAFD31
:1056D000022802D0FDF7A3FB18B10320304908705F
:1056E0000EE0FCF7A5FD18B104202D49087007E075
:1056F0002D480068B0F57A6F02D902202849087059
:1057000049E0FCF7AFFD022802D0FDF788FB18B195
:1057100003202349087005E0FCF78AFD10B104203E
:105720001F49087037E0FCF79DFD022802D0FDF705
:1057300076FB18B103201A49087014E0FCF778FDD5
:1057400018B10420164908700DE0FDF7DDFA38B9EC
:10575000FCF76AFE012803D0FCF77EFD012802D188
:1057600002200F49087016E0FCF77CFD022805D0E6
:10577000FDF755FB10B90020094908700BE0FCF754
:1057800071FD022802D0FDF74AFB10B10320044945
:10579000087000E000BF00BF00F008F810BD000076
:1057A0006107002060070020AC07002010B5074803
:1057B000007807490978884206D00548007818B96A
:1057C000FCF7C4F8FEF7B4FF10BD0000600700202E
:1057D000610700200FB4054B10B503A9044A0298D5
:1057E00000F022F810BC5DF814FB0000E959000835
:1057F000440900202DED020B019820F0004001909B
:105800009DED000B02B0704702E008C8121F08C1EE
:10581000002AFAD170477047002001E001C1121F31
:10582000002AFBD1704700002DE9FF4F89B09B464D
:105830000446002506E025280BD05A460B999047D0
:10584000641C6D1C20780028F5D10DB02846BDE8F9
:10585000F08F0027B8460122474900E0074314F8BB
:10586000013F203B02FA03F00842F7D120782E28AE
:1058700019D114F8010F47F004072A280ED06FF051
:105880002F022078A0F1300109290CD808EB8801FB
:1058900002EB410100EB0108641CF2E70A98641C6A
:1058A00050F8048B0A9020780028CED0642808D0C5
:1058B000692806D075281ED05A460B9990476D1C52
:1058C00058E00A994FF00A0901C90A91002802DA42
:1058D00040422D2102E0390504D52B218DF82010FE
:1058E000012103E0F90704D02021F7E78A4608AE3A
:1058F0000DE00021FAE70A994FF00A0901C90A915F
:10590000F7E74946FAF7AAFC303106F8011D0028EE
:10591000F7D1ADEB060000F12009780701D44FF074
:105920000108C84502DDA8EB090000E00020804620
:10593000002706E008A85A46C05D0B9990476D1CE9
:105940007F1C5745F6DB04E030205A460B99904700
:105950006D1CB8F10001A8F10108F5DC05E016F8AE
:10596000010B5A460B9990476D1CB9F10001A9F142
:105970000109F4DC641C65E70928010010B5002169
:1059800007E04AF2104200BF131EA2F10102FBD150
:10599000491C8142F5D310BD00EE100AB8EEC00AD2
:1059A0000D4981ED000A414200EE101AB8EEC00A1E
:1059B0000A4981ED000A00EE100AB8EEC00A084953
:1059C00081ED000A414200EE101AB8EEC00A054906
:1059D00081ED000A7047000070030020C40300201E
:1059E000180400206C04002070B504460D4600BF6A
:1059F00040210548FFF784FD0028F9D0E1B20248B4
:105A0000FFF744FE204670BD00480040FAF73AFE1A
:105A1000FEF752FB40F2AA500C49086040F2DC50FD
:105A2000091D08600A48FEF791FA0A48FEF78EFA47
:105A300040F6B830FFF7A2FFFDF7FEFEFCF746FF89
:105A4000FCF7FAFF01E000F03DF8FCE7340C004001
:105A5000CC010020740200201649D1ED000A00EEAE
:105A6000100AB8EEC00A30EE800A81ED000A124931
:105A7000D1ED000A00EE100AB8EEC00A30EE800A3E
:105A800081ED000A0D49D1ED000A00EE100AB8EED2
:105A9000C00A30EE800A81ED000A0949D1ED000A02
:105AA00000EE100AB8EEC00A30EE800A81ED000A5E
:105AB0007047000070030020C40300201804002079
:105AC0006C04002030B589B08A48C07C8949897C43
:105AD000884AB2F90E20874BB3F90C30CDE9053274
