:020000040800F2
:10000000181600209D0100080D350008BD1A0008D3
:1000100021320008970800082D4F0008000000005A
:100020000000000000000000000000000540000883
:100030002715000800000000C5370008B5010008BA
:10004000B7010008B7010008B7010008B7010008B0
:10005000B7010008B7010008B7010008291500081A
:10006000B7010008B7010008B7010008B701000890
:10007000B7010008B7010008B7010008B701000880
:10008000B7010008B7010008B7010008B701000870
:1000900091090008B7010008B7010008B70100087E
:1000A000B7010008B7010008B7010008B701000850
:1000B000BD420008B701000839430008B701000835
:1000C000B7010008B7010008B7010008B701000830
:1000D000B70100083D4800083D4A0008B94B000838
:1000E000B7010008B7010008B7010008B701000810
:1000F000B7010008B7010008B7010008B701000800
:10010000B7010008B7010008B7010008B7010008EF
:10011000B7010008B701000871440008B7010008E2
:10012000B7010008B7010008B7010008B7010008CF
:10013000B7010008B7010008B7010008B7010008BF
:10014000B7010008B7010008B7010008B7010008AF
:10015000B7010008B7010008B70100083D4C0008CE
:10016000B7010008B7010008B7010008B70100088F
:10017000B7010008B7010008B7010008B70100087F
:10018000B7010008B7010008DFF80CD000F000FB51
:1001900000480047ED5B000818160020064880471D
:1001A00006480047FEE7FEE7FEE7FEE7FEE7FEE75C
:1001B000FEE7FEE7FEE7FEE71942000889010008B6
:1001C00040EA01039B0703D009E008C9121F08C0D9
:1001D000042AFAD203E011F8013B00F8013B521E59
:1001E000F9D270472DE9FE4F81EA030404F0004480
:1001F00021F0004100944FF0000B23F0004350EA3F
:1002000001045ED052EA03045BD0C3F30A54C1F385
:100210000A552C44A4F2F3340194A0FB0254C1F318
:10022000130141F48011C3F3130343F4801301FB62
:10023000024400FB034E840A970A44EA815447EAC9
:100240008357A4FB076802958D0A05FB07854FEAD3
:10025000932C04FB0C542705029D4FEA065847EAED
:100260001637B5EB08056EEB070C870E920E47EAC2
:10027000811742EA8312A7FB0201B6EB0B0164EB84
:1002800000042B0D43EA0C335E1844EB1C50DA4695
:100290005146E7FB0201C5F313044FEA0B3343EA6F
:1002A00014534FEA0432019C43EA0603A4F10C0400
:1002B0000294009CCDE900B400F024F903B0BDE83D
:1002C000F08F00200146F9E72DE9F04D81EA0304A3
:1002D00004F0004B21F0004514464FF0000A23F0D3
:1002E000004150EA050220D054EA01021DD0C5F3B6
:1002F0000A570246C5F31303C1F31300C1F30A56AC
:1003000040F4801543F48013A7EB0608101BD64673
:1003100008F2FD3873EB050002D308F1010801E093
:1003200092185B41B8F1000F03DA00200146BDE8E6
:10033000F08D00204FF48011064684460EE0171B16
:1003400073EB050705D3121B63EB050306434CEA69
:10035000010C49084FEA300092185B4150EA01074E
:10036000EDD152EA030012D082EA040083EA0501CB
:10037000084305D0101BAB4106D20122002306E042
:1003800000224FF0004302E06FF0010253101AEB1D
:1003900006004CEB085110EB0A0041EB0B01BDE8E5
:1003A000F04D00F0A0B80EB5C10F80EAE07008442F
:1003B000CA07002140F233438DE80E000A460B467F
:1003C00000F0A0F803B000BD00F0004230F00040A3
:1003D0000AD0C10D01F56071C0F3160042EA015167
:1003E000C2084007114370470020014670470000D3
:1003F00030B5041E71F1000404DB4FF000444042AC
:1004000064EB0101141E73F1000405DB1C464FF080
:100410000043524263EB0403994208BF904230BD4F
:1004200001F0004330B421F0004150EA010206D04F
:100430000A0DA2F56072C1F31301002A02DC30BC80
:1004400000207047440F44EAC104C100E01830BCEA
:1004500000EBC25000F010B8202A04DB203A21FA49
:1004600002F00021704721FA02F3D040C2F12002CD
:1004700091400843194670470029A8BF7047401CA7
:10048000490008BF20F00100704710B4B0FA80FCAA
:1004900000FA0CF050EA010404BF10BC704749B1E7
:1004A000CCF1200421FA04F411FA0CF118BF012157
:1004B00021430843A3EB0C01CB1D4FEA00614FEA37
:1004C000102042BF002010BC704700EBC350104406
:1004D0000029A4BF10BC7047401C490008BF20F091
:1004E000010010BC704710B5141E73F1000408DA47
:1004F000401C41F1000192185B411A4301D120F0E8
:10050000010010BD2DE9F04D92469B4611B1B1FAA4
:1005100081F202E0B0FA80F22032904600F04AF90F
:1005200004460F4640EA0A0041EA0B0153465A4688
:10053000084313D0114653EA010019D0C8F1400214
:100540005046FFF789FF05460E465046594642463B
:1005500000F030F9084305D0012004E02046394678
:10056000BDE8F08D0020054346EAE0762C43374392
:100570000A986305E40AA0EB08000022FD0A44EA99
:1005800047540A3002D500200146E9E70105101959
:100590006941DDE9084500196941BDE8F04DA2E770
:1005A0002DE9FE4F804681EA0300C00F0C46009003
:1005B00021F0004123F00045B8EB0200A94105D22B
:1005C0004046214690461C460B46024623F000401A
:1005D000104347D0270DC7F30A00C3F30A51029016
:1005E000401A019040286BDAC3F3130040F4801BDB
:1005F0000098924620B10023D2EB030A63EB0B0B69
:1006000001985946C0F14002504600F0D3F8064622
:100610000D4650465946019A00F0DBF810EB0800F1
:100620006141002487EA115284EAE7731A4340D0FB
:10063000009A62B3019A012A4FEA075215DC001BA7
:1006400061EB02014FF0004202EA0752CDE900429D
:10065000001C41F5801132462B46FFF753FF03B0D3
:10066000BDE8F08F40462146F9E7001B61EB02012F
:10067000001C41F5801300185B412018A2F50017FB
:1006800047EB030140EAD570B6196D4111E06D08E2
:100690004FEA360645EAC0754FEA0752001B61EB88
:1006A0000201001C41F5801149084FEA3000001991
:1006B000514132462B4603B0BDE8F04FFFF713BF60
:1006C0000098012240000023D0EB020263EBE073AC
:1006D000009821464FEAE074B8EB000061EB04019A
:1006E000E9E783F000435BE781F0004158E72DE93B
:1006F000F04D00231A461B1A8A4103DB00200146F5
:10070000BDE8F08DC1F30A52C1F3130141F4801525
:100710004FF0000BD10702D100186D41521E002787
:10072000044640F2FF11384601EB620A3E4680461D
:10073000024600204FF48011FFF78EFEC21971416E
:10074000BB1846EB0100B4EB030C75EB000C04D3B3
:10075000E41A65EB000517460E46241908F101005E
:100760006D4180463428E3DDF91946EB0600091B8C
:10077000A84103D24FF0FF32134601E00022134696
:100780001BEB070046EB0A51BDE8F04DFFF7ABBE8F
:10079000064C074D06E0E06840F0010394E80700CE
:1007A00098471034AC42F6D3FFF7F2FC1062000811
:1007B00030620008202A04DB203A00FA02F100200F
:1007C00070479140C2F1200320FA03F3194390408F
:1007D0007047202A06DBCB17203A41FA02F043EAA1
:1007E000E07306E041FA02F3D040C2F120029140EA
:1007F00008431946704770B58C1810F8015B15F066
:10080000070301D110F8013B2A1106D110F8012B82
:1008100003E010F8016B01F8016B5B1EF9D12B07A7
:1008200005D40023521E0DD401F8013BFAE710F85D
:10083000013BCB1A921C03E013F8015B01F8015B4A
:10084000521EF9D5A142D8D3002070BD10B54FF487
:10085000A06002F099FE02F021FF02F01FF903F000
:100860000FFD03F025FB02F065FB02F0A1FB03F096
:10087000D9FD00F013F803F041FF04F047F904F04C
:1008800045F8642005F052F900F0CCFE03F026FD97
:1008900002F08EFB10BD00BFFEE7000000B58BB07C
:1008A0000121082003F036F80121480603F042F840
:1008B0000320099002208DF8280000208DF82A00DE
:1008C00003208DF8290001208DF82B0009A92E485E
:1008D00000F00CFF092201212B4800F04FFF0922F4
:1008E0000021294800F04AFF00208DF81E008DF8F5
:1008F0001F008DF8200001208DF8210000208DF8C8
:1009000022008DF823008DF81A008DF81B000520B9
:100910008DF81C0006208DF81D000320ADF818008E
:1009200006A91A4800F047FB00208DF812008DF848
:10093000130001208DF814000020ADF80800ADF878
:100940000A00ADF80C00ADF80E00ADF81000012063
:100950008DF8150002A800F011FA012202210B48BF
:1009600000F020FB14208DF8040001208DF8050014
:1009700000208DF8060001208DF8070001A802F084
:10098000C7FD0BB000BD0000000C02400064004039
:1009900000B585B00221B34800F074FA002878D081
:1009A0000221B04800F096F96A460021AD4800F0F7
:1009B0008CFBAD49009808609DF80B00AB490870AE
:1009C0009DF80C00AA4908709DF80D00A94908700F
:1009D0009DF80E00A84908709DF80F00A7490870FF
:1009E0009DF81000A64908709DF81100A5490870EF
:1009F0009DF81200A44908709D4800789B49097829
:100A000040EA0120A14908609B480078994909788B
:100A100040EA01209E4908800846008800F4004012
:100A20009C49086008460068C01308609848008820
:100A3000C0F30C0098490880954800884FF6FF7174
:100A4000081A964908808848006840F205218842C3
:100A50002AD18E4890ED000AB8EEC00A904880ED89
:100A6000000A90ED000ADFED8F0A20EE200ADFED8C
:100A70008E0A80EE201A8D4880ED001A83480068A7
:100A800040F6FF71884205DB8021894800F09BFE1B
:100A90000AE0E4E07D48006840F6FF71884203DA2E
:100AA0008021834800F08DFE6F48006840F20621E7
:100AB00088422BD1754890ED000AB8EEC00A7D48F7
:100AC00080ED000A90ED000ADFED760A20EE200AA4
:100AD000DFED750A80EE201A774880ED001A6B482A
:100AE000006840F29221884205DB4FF48041734850
:100AF00000F067FE0AE06548006840F292218842F3
:100B000004DA4FF480416D4800F05DFE56480068FD
:100B100040F2012188421BD15F48008800EE100A94
:100B2000B8EE400A664880ED000A5A48006801287D
:100B30000ED15A48008800EE100AB8EE400A60480C
:100B400080ED000A90ED000AB1EE400A80ED000A47
:100B50004548006840F2022188421BD14E48008877
:100B600000EE100AB8EE400A564880ED000A4948E7
:100B7000006801280ED14948008800EE100AB8EE3E
:100B8000400A504880ED000A90ED000AB1EE400A9C
:100B900080ED000A3448006840F2032188421BD1EE
:100BA0003D48008800EE100AB8EE400A464880ED45
:100BB000000A3848006801280ED13848008800EE45
:100BC000100AB8EE400A404880ED000A90ED000A95
:100BD000B1EE400A80ED000A23480068B0F5017FBD
:100BE0001BD12D48008800EE100AB8EE400A3748A5
:100BF00080ED000A2748006801280ED127480088A8
:100C000000EE100AB8EE400A304880ED000A90ED80
:100C1000000AB1EE400A80ED000A1348006840F275
:100C2000072188421BD11C48008800EE100AB8EE4C
:100C3000400A274880ED000A1648006801280ED1B6
:100C40001648008800EE100AB8EE400A204880EDF1
:100C5000000A90ED000AB1EE400A80ED000A05B0EE
:100C600000BD000000640040640000205C00002023
:100C70005D0000205E0000205F000020600000207A
:100C80006100002062000020630000206C00002052
:100C9000480000206800002046000020440000209A
:100CA000500000200000B44300000046580000201F
:100CB000001002404C0000205400002000140240AC
:100CC0007000002074000020780000207C000020CC
:100CD00080000020B1F5007F3AD00FDC202928D019
:100CE00006DC01291CD004291DD0082940D11DE0B3
:100CF000402921D0B1F5807F3AD126E0B1F5004FEF
:100D000031D006DCB1F5806F25D0B1F5006F2FD161
:100D100024E0B1F5803F12D0B1F5003F28D111E0B9
:100D2000154A826025E00822C26022E01022C260DB
:100D30001FE0082202611CE01022026119E0082273
:100D4000426016E01022426013E00422426010E08C
:100D5000042242600DE0042242600AE00022826127
:100D60000422426005E0002282610422426000E029
:100D700000BF00BF704700000101010010B5002155
:100D8000837A012202FA03F13D4A126842F001021D
:100D90003B4B1A603A4A1C3212688A43384B1C3368
:100DA0001A60027BCAB9364A0C3212688A43344B45
:100DB0000C331A604288C38842EA0343304A403207
:100DC000847A42F834300288838842EA03432C4A0A
:100DD0004032847A02EBC4025360027B012A19D1AB
:100DE000274A0C3212680A43254B0C331A6042889A
:100DF000038842EA0343224A4032847A42F834307C
:100E0000C288838842EA03431D4A4032847A02EB57
:100E1000C4025360C27A3AB9194A121D12688A4351
:100E2000174B1B1D1A6006E0154A121D12680A4373
:100E3000134B1B1D1A60028932B9114A1432126811
:100E40008A430F4B14331A600289012A06D10C4AD7
:100E5000143212680A430A4B14331A60427B012A87
:100E600006D1074A1C3212680A43054B1C331A602C
:100E7000034A126822F00102014B1A6010BD000003
:100E80000066004070B504460D46002660692840A3
:100E9000002871D0B5F5807F5CD010DC082D35D0EE
:100EA00006DC012D20D0022D24D0042D72D127E0A4
:100EB000102D31D0202D35D0402D6BD138E0B5F537
:100EC000004F60D009DCB5F5007F49D0B5F5806FE3
:100ED0004CD0B5F5006F5DD14FE0B5F5803F2DD01A
:100EE000B5F5003F56D12FE0A0682D4900F0F8F984
:100EF000064651E0E068032100F0F2F906464BE0B7
:100F0000E068082100F0ECF9064645E0E0681021B1
:100F100000F0E6F906463FE02069032100F0E0F921
:100F2000064639E02069082100F0DAF9064633E088
:100F30002069102100F0D4F906462DE060680821F0
:100F400000F0CEF9064627E06068102100F0C8F9ED
:100F5000064621E0A069012100F0C2F906461BE027
:100F6000A069022100F0BCF9064615E0A069042141
:100F700000F0B6F906460FE00FE0A069702100F01E
:100F8000AFF9064608E06068042100F0A9F90646BA
:100F900002E0FFE7002600BF00E00026304670BDFB
:100FA000010101001AB143690B43436102E0436947
:100FB0008B434361704730B502460020002314681C
:100FC00024F002041460146844F00104146000E08A
:100FD0005B1C546804F001041CB94FF6FF74A34273
:100FE000F6D1546804F001040CB900206CE08C794F
:100FF000012C04D1146844F08004146003E01468E8
:1010000024F080041460CC79012C04D1146844F0DD
:101010004004146003E0146824F0400414600C7A67
:10102000012C04D1146844F02004146003E0146817
:1010300024F0200414604C7A012C04D1146844F08C
:101040001004146003E0146824F0100414608C7A17
:10105000012C04D1146844F00804146003E01468FF
:1010600024F008041460CC7A012C04D1146844F0F4
:101070000404146003E0146824F0040414608C7801
:10108000A407CD7844EA05640D7944EA05444D7916
:1010900044EA05540D886D1E2C43D461146824F075
:1010A00001041460002300E05B1C546804F0010498
:1010B0001CB14FF6FF74A342F6D1546804F001044A
:1010C0000CB1002000E0012030BD10B500F5D87350
:1010D00003EB01131B6803F004031372137A53B973
:1010E00000F5D87303EB01131B6840F2FF7404EAA8
:1010F0005353136009E000F5D87303EB01131B6829
:101100006FF0604404EAD303536000F5D87303EB37
:1011100001131B6803F00203537200F5D87303EB4D
:1011200001135B6803F00F03937200F5D87303EBB0
:1011300001135B681B0AD37400F5D87303EB01132A
:101140009B68D37200F5D87303EB01139B681C0AEC
:10115000147300F5D87303EB01139B681C0C5473D4
:1011600000F5D87303EB01139B681B0E937300F516
:10117000D87303EB0113DB68D37300F5D87303EB6B
:101180000113DB681C0A147400F5D87303EB011318
:10119000DB681C0C547400F5D87303EB0113DB6897
:1011A0001B0E937421B9C36843F02003C36003E0AE
:1011B000036943F02003036110BD10B5024600200F
:1011C000936803F08063B3F1806F00D110E09368FF
:1011D00003F00063B3F1006F01D1012008E09368D0
:1011E00003F08053B3F1805F01D1022000E00420BE
:1011F000042874D002F5C07303EB00131B6803F0DE
:10120000010402F5C07303EB00131C600B7A7BB979
:101210004B7A0C8843EA445302F5C07404EB001483
:101220002468234302F5C07404EB0014236010E02B
:101230000B7A4C6843EAC4034C7A234302F5C0742A
:1012400004EB00142468234302F5C07404EB00147B
:1012500023608B7A03F00F038B7202F5C07303EBEC
:1012600000135B6823F00F0402F5C07303EB001357
:101270005C6002F5C07303EB00135B688C7A234358
:1012800002F5C07404EB001463608B7B1C064B7B7F
:1012900044EA03440B7B44EA0323CC7A234302F55C
:1012A000C07404EB0014A3608B7C1C064B7C44EAE6
:1012B00003440B7C44EA0323CC7B234302F5C07434
:1012C00004EB0014E36002F5C07303EB00131B682A
:1012D00043F0010402F5C07303EB00131C6010BD62
:1012E0000246002002EA01030BB1012000E00020C9
:1012F000704721B1026842F00102026003E0026817
:1013000022F0010202607047016821F001010160D2
:101310000021016041608160C16001612121416162
:101320004A49884204D13D21484A103A91608CE0F4
:1013300046491831884205D14FF47461434A103A46
:10134000916082E041493031884205D14FF47411F7
:101350003E4A103A916078E03C494831884205D1D4
:101360004FF07461394A103A91606EE0374960314C
:10137000884204D13649354A103AD16065E0334994
:101380007831884204D13349304A103AD1605CE068
:101390002E499031884204D12F492C4A103AD1600D
:1013A00053E02A49A831884205D14FF03D51274AE0
:1013B000103AD16049E02949884204D13D21274AA9
:1013C000083A116041E025491831884205D14FF4AF
:1013D0007461224A083A116037E02049303188426E
:1013E00005D14FF474111D4A083A11602DE01B49D4
:1013F0004831884205D14FF07461184A083A1160AB
:1014000023E016496031884204D11149134A121F62
:1014100011601AE011497831884204D10D490F4A10
:10142000121F116011E00D499031884204D10A4920
:101430000A4A121F116008E00849A831884204D105
:101440004FF03D51054A121F116070471060024075
:101450003D000020400F002000003D2010640240AD
:1014600021B1026842F48022026003E0026822F4A3
:1014700080220260704722B1036843F400230360B6
:1014800003E0036823F40023036001617047014611
:10149000486880B27047014600200A6802F40022C2
:1014A0000AB1012000E000207047000010B50022C2
:1014B0000268134B1A40CC680B6823434C692343E2
:1014C0008C692343CC6923430C6A23434C6A23432E
:1014D0008C6A23434C6B23438C6B23431A43026077
:1014E000426922F00702D1E90B3423431A434261D7
:1014F0000B6943604B6883608B68C36010BD00005C
:101500003F801CF00021016041608160C160016189
:1015100041618161C161016241628162C1620163B5
:10152000416381637047704710B5022000F01CF8DA
:1015300050B1022000F00CF8022000F00FF801205A
:101540000249087000F05CF910BD00002401002081
:101550000149086070470000143C014001490860DF
:1015600070470000143C0140014600200022074B58
:101570001B6803EA0102054B14331B680B4013B1CF
:101580000AB1012000E0002070470000003C01404B
:10159000002123498279002A3AD00A46126803685A
:1015A0009A430B461A600A1D126803689A430B1D82
:1015B0001A60027911440A6803681A430A60184ADB
:1015C0000832126803689A43154B08331A601A1DD3
:1015D000126803689A43124B0C331A604279102A3E
:1015E0000ED11A1F126803681A430D4B08331A6094
:1015F0001A1D126803681A43094B0C331A600DE078
:101600000749427911440A6803681A430A6005E0F1
:10161000027911440A6803689A430A60704700001F
:10162000003C014047F6FF70014908607047000028
:101630002404004010B5044600EE104AB8EEC00A7B
:10164000234880ED000A234890ED000A204880EDF1
:10165000010A01F0A3FF1E4890ED0E0ADFED1E0AFD
:10166000B4EEE00AF1EE10FA03DB9FED1B0A80ED09
:101670000E0A174890ED0E0ADFED180AB4EEE00AE4
:10168000F1EE10FA03D89FED150A80ED0E0A10480E
:1016900090ED0E0ABDEEC00A10EE100A03B210481B
:1016A00090ED0E0ABDEEC00A10EE100A404202B2E2
:1016B0000C4890ED0E0ABDEEC00A10EE100A404232
:1016C00001B2094802F050FD012004F02FFA10BDCC
:1016D000780400208000002000007A4500007AC5D0
:1016E000840100202C02002000640040F0B50A466E
:1016F00000210023002400BF3DE0012505FA01F38D
:10170000156805EA03049C4234D105684F0003269E
:10171000BE40B543056015794E00B54006683543B7
:1017200005601579012D02D01579022D16D1856835
:101730004F000326BE40B543856055794E00B54045
:10174000866835438560456801268E40B54345600F
:10175000456896798E40B6B235434560C5684F00FE
:101760000326BE40B543C560D5794E00B540C66876
:101770003543C560491C1029BFD3F0BDF0B5002327
:1017800000244D07ED0E02FA05F3CE1000F12005FE
:1017900055F826504E07F70E0F26BE40B543CF1022
:1017A00000F1200646F82750CE1000F1200555F82C
:1017B000265045EA0304CE1000F1200545F82640E6
:1017C000F0BD41837047018370474FF6FF710160A0
:1017D0000021017141718171C17170470148007828
:1017E000704700003205002001460B2903D2034850
:1017F00000EB810070470020FCE70000A8050020F6
:1018000000BF364890ED030A354880ED040A33489E
:1018100090ED040AB1EE400A314880ED050A2F48E8
:1018200090ED050A2E4880ED060A2E4890ED000A3C
:101830002D4880ED000A2D4890ED000A294880EDE2
:10184000000A2A4890ED000A264890ED000A264832
:10185000D0ED000A30EE600ADFED250AB4EEE00AB2
:10186000F1EE10FA05DB23480068401E21490860AC
:1018700013E01C4890ED000A1B48D0ED000A30EE42
:10188000600ADFED1D0AB4EEE00AF1EE10FA04D8AA
:1018900018480068401C17490860164800684FF453
:1018A000B471484300EE100AB8EEC00A0D48D0EDFE
:1018B000000AB7EE001A01EE200A104880ED000A77
:1018C0000A4890ED010A0E4880ED000A074890EDA5
:1018D000020A0C4880ED000A70470000440700200F
:1018E00044080020FC0000200801002078070020A8
:1018F0000000A543200100200000A5C31401002022
:10190000180100201C01002010B501700378047D2F
:10191000021D1355037DD35C447D125D43EA8202B0
:101920004270027D521C02F00F0282754378847D62
:10193000021D125D43EA02128270037D021DD35C18
:10194000447D125D934205D10D4A1268521C0C4B26
:101950001A6002E000220A4B1A60094A1268282A1B
:1019600003D3037D021DD25CC270027D4275027DED
:10197000521C0275027D102A01D10022027510BD91
:10198000A00500200148007870470000CD04002029
:101990004FF08040406A7047274890ED000AFBEE08
:1019A000030AB4EEE00AF1EE10FA04D8BBEE030A23
:1019B00080ED000A0DE0204890ED000AF3EE030AE6
:1019C000B4EEE00AF1EE10FA03DBB3EE030A80EDA9
:1019D000000A194890ED010A1848D0ED010A9FED60
:1019E000181A70EEC10AB4EEE00AF1EE10FA09D846
:1019F00090ED010ADFED120A30EE600A0E4880ED2C
:101A0000010A17E00C4890ED010A0C48D0ED010ADC
:101A10009FED0B1A70EE810AB4EEE00AF1EE10FAB7
:101A200008DB90ED010ADFED060A30EE200A0248DD
:101A300080ED010A70470000500A00202C020020AF
:101A40000000704210B52DED068BF0EE40AAB0EE0E
:101A5000608AF0EE418AB0EE619AF0EE429AB0EE02
:101A600062AAB0EE691AF0EE680AB0EE6A0A01F0F6
:101A7000ABFE00B20E490880B0EE4A1AF0EE490AF9
:101A8000B0EE480A03F054FA00B20A490880084848
:101A9000B0F9002008460088404201B2064802F032
:101AA00091FB012004F042F8BDEC068B10BD000054
:101AB000F8050020FA0500200064004000BFFEE7A2
:101AC00000B52DED108B93B0FE4890ED000AD0EDDF
:101AD000000A20EE200A8DED080A90ED000AFA486F
:101AE000D0ED000A20EE200AB0EE40FAF54890ED65
:101AF000000AF648D0ED000A20EE200AF0EE40AAD7
:101B0000F04890ED000AF248D0ED000A20EE200ADD
:101B10008DED070AEC4890ED000AD0ED000A20EEAA
:101B2000200AF0EE40FA90ED000AE848D0ED000AF5
:101B300020EE200A8DED060AE34890ED000AE44805
:101B4000D0ED000A20EE200AB0EE40BADF4890ED5A
:101B5000000AD0ED000A20EE200AF0EE40BA90ED27
:101B6000000ADB48D0ED000A20EE200A8DED050AC0
:101B700090ED000AD0ED000A20EE200A8DED040A57
:101B8000D44890ED030ADFEDD40A20EE200ADFED01
:101B9000D30A80EE201AD24880ED001ACD4890ED8D
:101BA000040ADFEDCD0A20EE200ADFEDCC0A80EE3C
:101BB000201ACC4880ED001AC64890ED050ADFEDEA
:101BC000C60A20EE200ADFEDC50A80EE201AC648BC
:101BD00080ED001ABF4890ED000AC44880ED000A6D
:101BE000BC4890ED010AC24880ED000AB94890ED6A
:101BF000020AC04880ED000AB64890ED060ABE48C9
:101C000080ED000AB34890ED070ABC4880ED000A59
:101C1000B04890ED080ABA4880ED000AFFF7B8FE18
:101C2000B849086008460068B749096888420CD37B
:101C3000B4480068B4490968401A00EE100AB8EECA
:101C4000400ADFEDB20AC0EE208AAE480068AE4915
:101C50000860A648D0ED000A90ED001A60EE810AF7
:101C6000A34890ED001AD0ED001A41EE210AA148D8
:101C700090ED001AD0ED001A41EE210AB0EE600A94
:101C800003F096FFB0EE408A984890ED000A20EEEF
:101C9000080A80ED000A964890ED000A20EE080A36
:101CA00080ED000A934890ED000A20EE080A80EDCE
:101CB000000A9148D0ED000A90ED001A60EE810A0A
:101CC0008E4890ED001AD0ED001A41EE210A8C48A2
:101CD00090ED001AD0ED001A41EE210AB0EE600A34
:101CE00003F066FFB0EE408A834890ED000A20EED4
:101CF000080A80ED000A814890ED000A20EE080AEB
:101D000080ED000A7E4890ED000A20EE080A80ED82
:101D1000000A794890ED000AF0EE000A60EE200A11
:101D2000B6EE000A30EE6B1A9DED040A31EE400A61
:101D300020EE800A7148D0ED000AB0EE001A60EE85
:101D4000811ADDED060A9DED071A70EEC10A01EE5B
:101D5000A00A6B48D0ED000AB0EE001A60EE810ACE
:101D60003BEE2A1A00EE810A8DED110A624890EDD1
:101D7000000AF0EE000A20EE201A9DED060ADDEDC5
:101D8000070A30EE200A21EE000A5C48D0ED000A76
:101D9000B0EE001A20EE811AF6EE000A70EEEF1A8D
:101DA000DDED040A71EEE00A01EE200A5448D0EDA0
:101DB000000AB0EE001A20EE811ADDED050A70EE81
:101DC000CF0A01EE200A8DED100A4B4890ED000A73
:101DD000F0EE000A20EE200A7BEE6A0A60EE200A8E
:101DE000464890ED000AB0EE001A20EE011A9DED73
:101DF000050A70EE0F1AB0EE600A01EE210A4048A3
:101E0000D0ED000AB0EE001A60EE810AB6EE001ABC
:101E100031EE6F1A31EE6B1AB0EE409A00EE819AF5
:101E20009DED110A60EE000A9DED100A40EE000AD9
:101E300010EE901A0846FEF7C7FACDE900019DEDB5
:101E4000000B03F067FD8DED020B9DED020B51ECD5
:101E5000100BFEF7E5FA09EE900AB0EE49AA3BEE48
:101E60006A0AF0EE000A20EE200A8DED0F0A9DEDC1
:101E7000050A3FEE000AF0EE000A20EE200A8DED82
:101E80000E0A9DED080A30EE6F0A70EE6B0A9DEDAA
:101E9000040A30EE800A8DED0D0AB0EE000A69EEFC
:101EA000800AB6EE000A30EE6B1A9DED040A31EEA0
:101EB000400A20EE800AB0EE4A9AF0EE000A69EE7F
:101EC000200A25E0C0000020C4000020C800002037
:101ED000CC00002044070020DB0F494000003443C1
:101EE000D0000020D4000020D8000020DC0000201A
:101EF000E0000020E4000020E8000020EC000020CA
:101F0000F0000020F8000020F40000200024F44934
:101F10003BEE6A1A00EE810A8DED0C0AB0EE000A63
:101F200029EE801A9DED060ADDED070A30EE600A03
:101F300021EE000AB0EE4A9AF0EE000A29EE201ACD
:101F4000DDED050A7FEE200A01EE200A8DED0B0A79
:101F5000B0EE000A29EE800A7AEE8B0A20EE200A03
:101F6000B0EE4A9AF0EE000A69EE200AB6EE001AC8
:101F700031EE6F1A31EE6B1A00EE810A8DED0A0A0E
:101F8000AF48D0ED000A9DED0D0A60EE800AAD4825
:101F900090ED001A9DED0E0A41EE400AAA4890ED20
:101FA000001A9DED0A0A21EE001AA848D0ED001A89
:101FB0009DED0B0A01EEC01A30EE81CAA148D0EDAA
:101FC000000A9DED0F0A60EE800AA14890ED001A0C
:101FD0009DED0D0A41EE400A9C4890ED001A9DEDE2
:101FE0000C0A21EE001A9B48D0ED001A9DED0A0A5A
:101FF00001EEC01A70EE81CA9548D0ED000A9DED41
:102000000E0A60EE800A8E4890ED001A9DED0F0AD0
:1020100041EE400A8F4890ED001A9DED0B0A21EE2B
:10202000001A8948D0ED001A9DED0C0A01EEC01A85
:1020300030EE81DAB5EEC0CAF1EE10FA57D0F5EE07
:10204000C0CAF1EE10FA52D0B5EEC0DAF1EE10FAD5
:102050004DD09FED810A6CEE000A804890ED000A99
:1020600000EEA80A80ED000A9FED7B0A6CEE800A64
:102070007B4890ED000A00EEA80A80ED000A9FED73
:10208000760A6DEE000A774890ED000A00EEA80A85
:1020900080ED000A744890ED000AF0EE000A00EEB0
:1020A0008C0A6E48D0ED000A30EE200A6E4880EDB2
:1020B000000A6E4890ED000AF0EE000A00EEAC0A4D
:1020C0006748D0ED000A30EE200A684880ED000A2B
:1020D000674890ED000AF0EE000A00EE8D0A6148B4
:1020E000D0ED000A30EE200A614880ED000A614818
:1020F00090ED000AB1EE400A5B48D0ED000A20EEF8
:10210000200A5D48D0ED000A584890ED001A00EE14
:10211000C10A5A4890ED001A5548D0ED001AF0EE69
:10212000400A41EE610A564890ED000A00EEA80A06
:102130008DED090A90ED000A4B48D0ED000A20EE23
:10214000200A4D48D0ED000A494890ED001A00EEF3
:10215000810A4A48D0ED000A444890ED001A00EE8A
:10216000C10A4448D0ED000AF0EE60DA40EE28DA09
:10217000434890ED000A3D48D0ED000A20EE200AC9
:102180003C48D0ED000A3A4890ED001A00EEC10A32
:102190003A48D0ED000A344890ED001A00EE810A6A
:1021A0003548D0ED000AB0EE60EA00EE28EA344887
:1021B00090ED000A2E48D0ED000A20EE200A2D48AE
:1021C000D0ED000A294890ED001A00EE810A2A4855
:1021D000D0ED000A244890ED001A00EEC10A27480D
:1021E000D0ED000AF0EE60EA40EE28EADDED090AE3
:1021F00060EEA00A4DEEAD0A4EEE0E0A4EEEAE0AAD
:10220000B0EE600A03F0D4FCB0EE408A9DED090AFE
:1022100020EE080A1A4880ED000A2DEE880A1548BB
:1022200080ED000A2EEE080A134880ED000A2EEE1B
:10223000880A124880ED000A13B0BDEC108B00BD77
:10224000E0000020E4000020EC000020F00000206E
:10225000DC000020E80000200AD7233CB400002066
:10226000B8000020BC000020D0000020D4000020D6
:10227000D8000020C4000020C8000020CC000020AE
:10228000C00000201FB50E2269463B2000F0F4FE7E
:102290009DF801009DF8001040EA012000B221499C
:1022A00008809DF803009DF8021040EA012000B26A
:1022B0001C4948809DF805009DF8041040EA012063
:1022C00000B2184988809DF807009DF8061040EA82
:1022D000012000B21349C8809DF8090012490989FC
:1022E000401A9DF8081040EA012000B20D4908810B
:1022F0009DF80B000C494989401A9DF80A1040EAE4
:10230000012000B2074948819DF80D0006498989DE
:10231000401A9DF80C1040EA012000B20149888162
:102320001FBD0000840700209807002010B5044658
:102330000C4800F021F8FFF7C3FB0B4890ED000AB2
:1023400084ED000A094890ED000A84ED010A08486E
:1023500090ED000A84ED020A064890ED000A84ED33
:10236000030A10BD44070020C0000020C400002064
:10237000C8000020CC00002030B585B005460DF126
:10238000120004A9031F03AACDE90010891F02A8A7
:1023900000F0BEFEBDF8080026490880BDF80A001E
:1023A0004880BDF80C008880BDF80E000881BDF89B
:1023B00010004881BDF81200888195ED060ABDEE37
:1023C000C00A10EE100A00B2C88195ED070ABDEEF2
:1023D000C00A10EE100A00B2088295ED080ABDEEA0
:1023E000C00A10EE100A00B2488200241DE0032C3F
:1023F0000BDA02A830F9140000EE100AB8EEC00A99
:1024000005EB840080ED000A0EE002A830F914000C
:1024100000EE100AB8EEC00ADFED070A80EE201ABF
:1024200005EB840080ED001A641C062CDFDB05B090
:1024300030BD0000300800203333034210B52DEDCD
:102440000C8B04468748FFF771FF864890ED020A1F
:10245000F8EE000A20EE200AD0ED020A20EE200A53
:10246000D0ED030AB0EE001A60EE810A90ED031A77
:1024700000EEC10AF7EE000A30EE200A10EE101A44
:102480000846FDF7A1FF41EC1C0B764890ED010AD0
:10249000F0EE000A20EE200AD0ED020A20EE200A1B
:1024A000D0ED000AB0EE001A60EE810A90ED031A3A
:1024B00000EE810A10EE101A0846FDF785FF41EC88
:1024C0001D0BB0EE4C1AF0EE6C1AB0EE4D0AF0EEA9
:1024D0006D0A03F01DF9B0EE40BAF0EE60BA51ECAF
:1024E0001B0B81F0004141EC1A0B9FED5F0B53EC8D
:1024F000102BFDF777FE41EC190B9FED5D0B53ECB4
:10250000102BFDF7E1FE41EC180BFDF789FF00EE03
:10251000100A84ED000A534890ED010AF8EE000A13
:1025200020EE200AD0ED030A20EE200AD0ED000AAA
:10253000B0EE001A60EE810A90ED021A00EE810AF8
:1025400010EE101A0846FDF73FFF41EC1C0BB0EEF1
:102550004C0AF0EE6C0A02F0BFFDB0EE40BAF0EEAD
:1025600060BA51EC1B0B81F0004141EC1A0B9FED5E
:102570003E0B53EC102BFDF735FE41EC190B9FED94
:102580003C0B53EC102BFDF79FFE41EC180BFDF7B5
:1025900047FF00EE100A84ED010A324890ED010A6F
:1025A000F8EE000A20EE200AD0ED010A20EE200A03
:1025B000D0ED020AB0EE001A60EE810A90ED021A28
:1025C00000EEC10AF7EE000A30EE200A10EE101AF3
:1025D0000846FDF7F9FE41EC1B0B224890ED020A7C
:1025E000F0EE000A20EE200AD0ED030A20EE200AC9
:1025F000D0ED000AB0EE001A60EE810A90ED011AEB
:1026000000EE810A10EE101A0846FDF7DDFE41ECDF
:102610001C0BB0EE4B1AF0EE6B1AB0EE4C0AF0EE5B
:102620006C0A03F075F8B0EE40AAF0EE60AA9FEDD8
:102630000E0B53EC102B51EC1A0BFDF7D3FD41ECB4
:10264000190B9FED0B0B53EC102BFDF73DFE41ECEE
:10265000180BFDF7E5FE00EE100A84ED020ABDEC52
:102660000C8B10BD68070020000000000080664051
:1026700000000060FB21094010B530216A2000F005
:1026800029FD0A2003F052FA0D21242000F022FD3A
:102690000A2003F04BFA0E21282000F01BFD0A202F
:1026A00003F044FA8E21312000F014FD0A2003F0DB
:1026B0003DFA01210B2000F075F8002000F055F8DC
:1026C000102801D0012010BD0A2003F02FFA0021AC
:1026D0000A2000F067F80A2000F047F808B102204D
:1026E000F1E70A2003F022FA00210B2000F05AF84B
:1026F0000B2000F03AF808B10320E4E70A2003F0C9
:1027000015FA2421412000F04DF8412000F02DF869
:10271000242801D00420D6E70A2003F007FAC021BC
:10272000422000F03FF8422000F01FF8C02801D0FE
:102730000520C8E70A2003F0F9F900212A2000F05B
:10274000C9FC0A2003F0F2F90021342000F0C2FC99
:102750000A2003F0EBF9062203210E2000F01AFDF7
:10276000642003F0E3F90020ADE770B5044621468C
:10277000322000F0AFFC0A2003F0D8F98021342089
:1027800000F0A8FC0A2003F0D1F9352000F050FC3D
:1027900005460021342000F09DFC0A2003F0C6F914
:1027A000284670BD70B504460D4600212A2000F071
:1027B00091FC022003F0BAF92146292000F08AFC9E
:1027C000022003F0B3F92946642000F083FC0220C4
:1027D00003F0ACF981212A2000F07CFC0A2003F0F0
:1027E000A5F970BD40B52DED048B002C45DA002D08
:1027F00043DA94FBF5F63046FDF7D5FD41EC190BB5
:10280000B0EE490AF0EE690A03F07AF8B0EE408AB9
:10281000F0EE608A9FED860B53EC102B51EC180BF9
:10282000FDF7E6FD14D89FED840A844880ED000A88
:102830009FED830A834880ED000A9FED830A834859
:1028400080ED000A9FED820A824880ED000AEBE0ED
:102850009FED810A794880ED000A9FED800A794852
:1028600080ED000A9FED7E0A784880ED000A9FED1A
:102870007D0A784880ED000AD6E0002C45DA002D6C
:1028800043DD94FBF5F63046FDF78DFD41EC190B69
:10289000B0EE490AF0EE690A03F032F8B0EE408A71
:1028A000F0EE608A9FED620B53EC102B51EC180B8D
:1028B000FDF79EFD14D89FED6C0A604880ED000A7C
:1028C0009FED5F0A5F4880ED000A9FED680A5F4850
:1028D00080ED000A9FED660A5E4880ED000AA3E0E5
:1028E0009FED610A554880ED000A9FED620A554848
:1028F00080ED000A9FED600A544880ED000A9FEDCC
:102900005F0A544880ED000A8EE0002C45DD002D62
:1029100043DD94FBF5F63046FDF745FD41EC190B20
:10292000B0EE490AF0EE690A02F0EAFFB0EE408A22
:10293000F0EE608A9FED3E0B53EC102B51EC180B20
:10294000FDF756FD14D89FED4E0A3C4880ED000A75
:102950009FED460A3B4880ED000A9FED390A3B484F
:1029600080ED000A9FED340A3A4880ED000A5BE0F2
:102970009FED440A314880ED000A9FED3F0A31483F
:1029800080ED000A9FED3B0A304880ED000A9FED84
:102990003D0A304880ED000A46E0002C44DD002D61
:1029A00042DA94FBF5F63046FDF7FDFC41EC190BDD
:1029B000B0EE490AF0EE690A02F0A2FFB0EE408ADA
:1029C000F0EE608A9FED1A0B53EC102B51EC180BB4
:1029D000FDF70EFD14D89FED2C0A184880ED000A73
:1029E0009FED2A0A174880ED000A9FED150A174847
:1029F00080ED000A9FED260A164880ED000A13E0DC
:102A00009FED210A0D4880ED000A9FED150A0D4843
:102A100080ED000A9FED1F0A0C4880ED000A9FED33
:102A20001E0A0C4880ED000ABDEC048B40BD00007E
:102A3000000000000000F03F0AD7A3BBC000002048
:102A4000A8C64BBEC4000020BE9F7A3FC80000202D
:102A50004ED111BCCC0000206F1203BC7B140EBF02
:102A6000E17A543F6F1203BB0AD7A33B355E7ABFAE
:102A7000A69B443C68910DBFE17A54BF99BB16BB3D
:102A800052499D3A99BB163B0AD7233B355E7A3FA4
:102A90006F12033C295C0FBFBC74933B1CB5012132
:102AA000202000F037FF0121102000F033FF01212A
:102AB000402000F02FFF8020009001208DF80400BE
:102AC00000208DF8060003208DF8050069461648A1
:102AD000FEF70CFE4FF48040009001208DF80400BA
:102AE00000208DF8060003208DF8050069460F4888
:102AF000FEF7FCFD4FF40050009002208DF804001A
:102B000000208DF8060003208DF80500694608486E
:102B1000FEF7ECFD80210448FEF755FE4FF480419E
:102B20000248FEF750FE1CBD001002400014024097
:102B300000180240002101607047000010B50446F3
:102B400004B910BD2078FF2825D1207AFE2822D193
:102B50006078A17840EA0120C0F520700F49088014
:102B6000E078217940EA01200D4908804FF4804146
:102B70000C48FEF726FE0948008840F2762188427C
:102B800002DD08460549088004480088062802DA64
:102B900006200249088000BFD3E700008A00002019
:102BA0008E000020001402402DE9F04104460D463D
:102BB00016461F4600EE104AB8EEC00A564880ED91
:102BC000000A564890ED000A534880ED010A00EED5
:102BD000105AB8EEC00A524880ED000A514890EDF4
:102BE000000A4F4880ED010A00EE106AB8EEC00AF4
:102BF0004D4880ED000A4D4890ED000A4A4880EDAE
:102C0000010A00EE107AB8EEC00A494880ED000AC9
:102C1000484890ED000A464880ED010A3E4800F021
:102C2000BDFC3F4800F0BAFC3F4800F0B7FC40480C
:102C300000F0B4FC384890ED0E0ADFED3F0AB4EE28
:102C4000E00AF1EE10FA03DB9FED3B0A80ED0E0A7D
:102C5000314890ED0E0ADFED390AB4EEE00AF1EEEC
:102C600010FA03D89FED350A80ED0E0A2C4890ED3E
:102C70000E0ADFED310AB4EEE00AF1EE10FA03DBE2
:102C80009FED2D0A80ED0E0A254890ED0E0ADFED2E
:102C90002B0AB4EEE00AF1EE10FA03D89FED270AF2
:102CA00080ED0E0A204890ED0E0ADFED230AB4EE07
:102CB000E00AF1EE10FA03DB9FED1F0A80ED0E0A29
:102CC000194890ED0E0ADFED1D0AB4EEE00AF1EEB0
:102CD00010FA03D89FED190A80ED0E0A144890ED02
:102CE0000E0ADFED150AB4EEE00AF1EE10FA03DB8E
:102CF0009FED110A80ED0E0A0D4890ED0E0ADFEDF2
:102D00000F0AB4EEE00AF1EE10FA03D89FED0B0AB9
:102D100080ED0E0ABDE8F08128030020700000203D
:102D20007C03002074000020D003002078000020E5
:102D3000240400207C00002000409C4500409CC5ED
:102D40002DE9F04304460D46DDE907670020002128
:102D5000012041E0DFF8D8C13CF81080A0F1010C5F
:102D6000DFF8CC9129F81C8009F1160C3CF8109082
:102D7000A0F1010CDFF8B88108F1160828F81C90C2
:102D800008F1160C3CF81090A0F1010C08F116089F
:102D900028F81C9008F1160C3CF81090A0F1010CDA
:102DA00008F1160828F81C9008F1160C3CF8109051
:102DB000A0F1010C08F1160828F81C9008F1160C77
:102DC0003CF81090A0F1010C08F1160828F81C90AE
:102DD00000F1010C0CF0FF000A28BBDBDFF850C14A
:102DE000ACF81240ACF82850ACF83E20ACF85430A7
:102DF000ACF86A60ACF88070002008E0DFF830C101
:102E00003CF910C0614400F1010C0CF0FF000A28ED
:102E1000F4DB4FF00A0C91FBFCFC0FFA8CFCDFF8A2
:102E20001081A8F814C0002100200AE0DFF800C1DA
:102E30000CF1160C3CF910C0614400F1010C0CF0CF
:102E4000FF000A28F2DB4FF00A0C91FBFCFC0FFAA2
:102E50008CF8DFF8DCC0ACF82A80002100200AE002
:102E6000DFF8CCC00CF12C0C3CF910C0614400F12F
:102E7000010C0CF0FF000A28F2DB4FF00A0C91FB6A
:102E8000FCFC0FFA8CF8DFF8A8C0ACF840800021F9
:102E900000200AE0DFF898C00CF1420C3CF910C0A9
:102EA000614400F1010C0CF0FF000A28F2DB4FF046
:102EB0000A0C91FBFCFC0FFA8CF8DFF874C0ACF83C
:102EC0005680002100200AE0DFF864C00CF1580CA5
:102ED0003CF910C0614400F1010C0CF0FF000A281D
:102EE000F2DB4FF00A0C91FBFCFC0FFA8CF8DFF8D8
:102EF00040C0ACF86C80002100200AE0DFF830C050
:102F00000CF16E0C3CF910C0614400F1010C0CF0A6
:102F1000FF000A28F2DB4FF00A0C91FBFCFC0FFAD1
:102F20008CF8DFF80CC0ACF88280BDE8F0830000BC
:102F3000AC07002010B588B04020069001208DF825
:102F40001C0000208DF81E008DF81F0003208DF856
:102F50001D0006A91348FEF7C9FBFFF78DFB0024EF
:102F6000182211496846FDF72BF9642002F0DEFDB6
:102F7000752000F05DF80D49087000BF0CE06A464E
:102F800002EB440251781DF8140000F0A3F8012070
:102F900002F0CCFD601CC4B20C2CF0DB002008B0A9
:102FA00010BD000000140240086100082501002047
:102FB00000B585B00121880300F0DCFC0121102060
:102FC00000F0A8FC0220039000208DF810008DF87E
:102FD000120001208DF8130002208DF8110003A9C2
:102FE0001248FEF783FB0121042001F00DF80220B6
:102FF000009000208DF804000C208DF805000120C1
:103000008DF806006846FEF7C3FA07208DF8080021
:1030100002208DF8090000208DF80A0001208DF8AB
:103020000B0002A800F074FA05B000BD00100240C9
:1030300010B5044640210D48FEF7C3FB44F0800064
:103040000B4908700846007800F088FF09490870AD
:103050000748007800F082FF0649087040210348C5
:10306000FEF7B1FB0348007810BD000000140240D9
:1030700028010020270100202DE9F04105460E46D9
:103080001746002440211048FEF79BFB45F08000C6
:103090000E490870084600780D4908700B48007802
:1030A00000F05CFF00BF05E00949085D00F056FF35
:1030B0003055641CBC42F7DB40210348FEF783FB1C
:1030C0000020BDE8F081000000140240290100202A
:1030D0002A01002070B505460C4640210A48FEF73B
:1030E00070FB05F07F00094908700846007800F081
:1030F00035FF06480470007800F030FF4021024898
:10310000FEF761FB002070BD001402402601002084
:103110002DE9FC4704460D4616461F46DDE90A899F
:10312000002019490870FFF7ADF81848B0F90C00F5
:103130001649B1F90A10DFF854C0CDE90010BCF906
:103140000830BCF90420BCF90210BCF90000FFF7FC
:10315000F7FD0F48808A20800D48408D28800C485C
:10316000B0F8400030800A48B0F85600388008486F
:10317000B0F86C00A8F800000548B0F88200A9F883
:103180000000BDE8FC870000240100208407002027
:10319000AC07002070B504460E461546214628208F
:1031A000FFF798FF022002F0C1FC0A212920FFF757
:1031B00091FF022002F0BAFC01216420FFF78AFF90
:1031C000022002F0B3FC44F080012520FFF782FFCB
:1031D000022002F0ABFC31462620FFF77BFF0220E5
:1031E00002F0A4FC03213420FFF774FF022002F058
:1031F0009DFC03216720FFF76DFF022002F096FC83
:1032000081212A20FFF766FF062002F08FFC45F09F
:1032100080012720FFF75EFF072002F087FC70BDCA
:1032200000BFFEE770B504460D46FEF7ABFB002875
:1032300078D0287800F0100040B14FF4257066492E
:1032400008804FF448706549088007E04FF4FA7031
:10325000614908804FF42F7060490880287800F099
:10326000010090B15E48016988475B48008800EE24
:10327000900AF8EE600A20EE200ABDEEC00A10EEB9
:10328000100A00B2574908801AE0287800F00200BE
:1032900098B15348016988474F480088404200EE82
:1032A000900AF8EEE00A20EE200ABDEEC00A10EE09
:1032B000100A00B24B49088002E00020494908800A
:1032C000287800F0040098B14748016988474348CE
:1032D0000088404200EE900AF8EEE00A20EE200A54
:1032E000BDEEC00A10EE100A00B23E49488019E057
:1032F000287800F0080090B13B48016988473748BA
:10330000008800EE900AF8EE600A20EE200ABDEE7A
:10331000C00A10EE100A00B23249488002E00020D4
:1033200030494880FEF72EFB02283CD1B4F900005A
:1033300010F1960F03DC6FF09500208005E0B4F9E2
:103340000000962801DB96202080B4F9020010F1DD
:10335000960F03DC6FF09500608005E0B4F9020081
:10336000962801DB96206080204890ED000AB4F991
:10337000020000EE900AF8EEE00A9FED1D1A00EE42
:10338000C10A1A4880ED000A90ED010AB4F9000064
:1033900000EE900AF8EEE00A9FED151A00EE810AA1
:1033A000124880ED010AB4F9020000EE100AB8EEEE
:1033B000C00A0E4880ED040AB4F9000000EE100ABD
:1033C000B8EEC00A094880ED050AFEF7E5FA204686
:1033D00000F010F870BD0000A4050020A605002034
:1033E0007C0500202805002058050020500A0020F8
:1033F000CDCCCC3C70B5044600253F48007820B1C8
:10340000012812D0022873D14FE0E07960B9607AC8
:10341000012809D1002000F02BFE38488169884737
:10342000012035490870002562E0607A012802D148
:10343000681C05B200E00025322D0FDD00202E496A
:1034400008704FF47A702E490860091D08602B48F7
:1034500081698847002000F00BFE25E027480169BC
:103460008847DFED280A9FED281A41EE000ABCEEDE
:10347000E00A10EE100A22490860204801698847D6
:10348000DFED200A9FED201A41EE000ABCEEE00AB3
:1034900010EE100A1A49091D08601848016A884789
:1034A00010B102201449087022E0607A012802D18C
:1034B000681C05B200E00025322D0FDD00200E490A
:1034C00008704FF47A700E490860091D08600B48B7
:1034D00081698847002000F0CBFD08E0207A0128B0
:1034E00002D100F0C5FD02E0002000F0C1FD00BFE8
:1034F00000BF607AE07170BD300500203405002007
:10350000340C004000007A4400001644704700006C
:1035100070B5002100230F22C4781CB3174C246817
:1035200004F4E064C4F5E064C4F30721C1F10404C9
:10353000E3B20A4144789C40E1B2847814402143CC
:103540000C07210E0E4C05786155047804F01F0518
:103550000124AC4005786D11AD0005F1E025C5F8FA
:10356000004109E0047804F01F050124AC40054D3A
:103570000678761145F8264070BD00000CED00E09D
:1035800000E400E080E100E002490143024A1160EA
:10359000704700000000FA050CED00E090ED030A12
:1035A00080ED020A90ED000AD0ED010A30EE600ACB
:1035B00080ED030A90ED040AD0ED030A30EE200AF4
:1035C00080ED040A90ED060AD0ED0C0AF1EE600AD7
:1035D000B4EEE00AF1EE10FA06D890ED0C0AB1EE66
:1035E000400A80ED060A0CE090ED060AD0ED0C0AC8
:1035F000B4EEE00AF1EE10FA03DB90ED0C0A80ED78
:10360000060A90ED050AD0ED030A20EE200AD0ED5F
:10361000060A90ED041A00EE810AD0ED030A90ED3F
:10362000021A70EEC10A90ED071A01EE200A80ED31
:103630000E0A90ED0E0AD0ED0F0AF1EE600AB4EE1C
:10364000E00AF1EE10FA06D890ED0F0AB1EE400A4A
:1036500080ED0E0A0CE090ED0E0AD0ED0F0AB4EEEC
:10366000E00AF1EE10FA03DB90ED0F0A80ED0E0A8E
:10367000704700009FED080A80ED020A9FED060AE0
:1036800080ED030A9FED040A80ED040A9FED020A13
:1036900080ED0E0A704700000000000000B58BB0FE
:1036A0000121084600F036F90121082000F042F916
:1036B0000121080400F05EF90720099002208DF82E
:1036C000280003208DF8290009A93B48FEF70EF8D1
:1036D000022200213848FEF751F802220121364823
:1036E000FEF74CF8032202213348FEF747F8532037
:1036F000ADF818000020ADF81A0044F620600790DD
:103700000020ADF8200006A92C4800F0B5FFA72046
:10371000ADF818000020ADF81A004FF47A70079049
:103720000020ADF8200006A9254800F0A5FF702074
:10373000ADF804000120ADF806000020ADF8080047
:103740004FF47A7003900220ADF810000020ADF81D
:103750001200ADF814004FF48070ADF8160001A906
:10376000164800F0E1FE01A9144800F025FF0020F2
:10377000039001A9124800F0D7FE08210F4800F07D
:1037800011FF08210D4800F069FF08210C4800F0E6
:1037900009FF0121094800F08FFE0121084800F0CF
:1037A0008BFE0121054800F099FE0121044800F03C
:1037B00095FE0BB000BD000000000240000C004070
:1037C000004001407047000071EE401A414991ED00
:1037D000002A71EE821AC1ED001AD1ED001A9FED98
:1037E0003E2AF4EEC21AF1EE10FA04DDDFED3A1AC9
:1037F000C1ED001A0DE03749D1ED001A9FED372ACF
:10380000F4EEC21AF1EE10FA03D2DFED341AC1ED74
:10381000001A3349D1ED001A71EE611A3149C1ED38
:10382000001A71EE401A304991ED002A61EE821AB9
:103830002E4991ED002A2749D1ED002A42EE221AA5
:103840002B4991ED002A2749D1ED002A42EE221A98
:103850002849C1ED001A224981ED001A2549D1ED10
:10386000001AB0EE0C2A40EE821A234991ED002A8C
:1038700061EE821A2149C1ED001A2149D1ED001AE9
:1038800070EEE11A1F4991ED002A61EE821A1E497D
:10389000C1ED001A1949D1ED001A1B4991ED002A1A
:1038A00071EE821A1949C1ED001A1549C1ED000ADD
:1038B0001649D1ED001AFDEEE11A11EE901A08B288
:1038C000B0F5965F01DB4FF4965010F5965F00DC83
:1038D0000F487047FC05002000007A4400007AC4BD
:1038E00000060020040600200C0600201006002020
:1038F0001406002008060020240600201C060020D4
:103900002C0600202806002020060020300600207B
:1039100040EDFFFF29B1064A12680243044B1A60CA
:1039200004E0034A12688243014B1A6070470000AA
:103930003038024029B1064A12680243044B1A602B
:1039400004E0034A12688243014B1A60704700008A
:103950004038024029B1064A12680243044B1A60FB
:1039600004E0034A12688243014B1A60704700006A
:103970002038024029B1064A12680243044B1A60FB
:1039800004E0034A12688243014B1A60704700004A
:103990004438024029B1064A12680243044B1A60B7
:1039A00004E0034A12688243014B1A60704700002A
:1039B00024380240F0B50021002200240225002610
:1039C0000223324F3F6807F00C0121B1042905D0D2
:1039D000082937D105E02E4F076036E02D4F0760EC
:1039E00033E02A4F3F1F3F68C7F38056274F3F1FE2
:1039F0003F6807F03F036EB1264FB7FBF3F7DFF8E0
:103A00008CC0ACF1040CDCF800C0CCF3881C07FBC4
:103A10000CF40CE01E4FB7FBF3F7DFF870C0ACF10D
:103A2000040CDCF800C0CCF3881C07FB0CF4174F27
:103A30003F1F3F68C7F301477F1C7D00B4FBF5F7CC
:103A4000076002E0124F076000BF00BF0F4F3F68E2
:103A500007F0F0010909104F7A5C0768D74047600A
:103A60000A4F3F6807F4E051890A0B4F7A5C4768B8
:103A7000D7408760054F3F6807F46041490B064F08
:103A80007A5C4768D740C760F0BD00000838024044
:103A90000024F400001BB700A40000200168491CAA
:103AA0000160D0E9001291420ADA90ED000AF8EEC6
:103AB000C00A90ED010AB8EEC01A80EE810A704784
:103AC000B7EE000AFBE770470146D1E900029042D9
:103AD00001DA002070470120FCE7002101607047F7
:103AE000016070474160704710B50446FDF74AFF1A
:103AF000B8B3B4F90200A0F5806000EE100AB8EE89
:103B0000C00AF7EE000A20EE200ABDEEC00A10EE51
:103B1000100A00B268490880B4F90000A0F580607E
:103B200000EE100AB8EEC00AF7EE000A20EE200AF6
:103B3000BDEEC00A10EE100A00B24880B4F90400CD
:103B4000A0F5806000EE100AB8EEC00AF7EE000A99
:103B500020EE200ABDEEC00A10EE100A00B2C880A6
:103B600004E0FFE70020544908804880FDF70AFF81
:103B7000022842D1514890ED000AB4F90600A0F5A0
:103B8000806000EE900AF8EEE00A9FED4D1A00EE1C
:103B9000810A4A4880ED000A4A48007A02286DD01E
:103BA000494890ED100ADFED490AB4EEE00AF1EE63
:103BB00010FA23DDB4F90400A0F5806000EE100ACD
:103BC000B8EEC00ADFED3E0A20EE200AB5EEC00ACC
:103BD000F1EE10FA52DD394890ED010AB4F9040013
:103BE000A0F5806000EE900AF8EEE00A9FED341A2E
:103BF00000EE810A314880ED010A3FE0324890ED45
:103C0000100ADFED330AB4EEE00AF1EE10FA23D227
:103C1000B4F90400A0F5806000EE100AB8EEC00A06
:103C2000DFED270A20EE200AB5EEC00AF1EE10FA09
:103C300024D2224890ED010AB4F90400A0F5806076
:103C400000EE900AF8EEE00A9FED1D1A00EE810AE0
:103C50001A4880ED010A11E0184890ED010AB4F904
:103C60000400A0F5806000EE900AF8EEE00A9FEDF7
:103C7000141A00EE810A114880ED010AB4F9060019
:103C8000A0F5806000EE100AB8EEC00A0B4880ED87
:103C9000040AB4F90400A0F5806000EE100AB8EE42
:103CA000C00A064880ED050AFDF776FE217A09482C
:103CB00000F07EF810BD000028050020500A00200A
:103CC0006F12833B380A00208809002000007042F0
:103CD000000070C2680A002010B5044604B910BD87
:103CE0002078617840EA0120C0F30A002F4908805B
:103CF0006078C010A17840EA4110C0F30A002B4957
:103D00004880A0788011E17840EA8100217940EA7A
:103D10008120C0F30A00254988802079401061790C
:103D200040EAC110C0F30A002049C8806079001140
:103D3000800808726079C0F301104872A079E179B7
:103D400040EA012000B219494881207A617A40EAAC
:103D5000012001B215488181A07AE17A40EA012070
:103D600001B21248C181217B8174617BC174A07B47
:103D70000E498882084600F067F9FDF72FFD0128FB
:103D800004D002280DD003280CD103E00748FFF728
:103D9000ABFE07E005491431A1F10A00FFF742FA32
:103DA00000E000BF00BF00BF99E70000380A002014
:103DB00070B504460D4629462046FDF7A5FD374857
:103DC000007820B101280FD0022865D146E0607844
:103DD0000D2808D1002000F04BF93148816988474F
:103DE00001202E49087057E060780D280FD100207F
:103DF00000F03EF94FF47A702A490860091D086006
:103E000000202649087026488169884725E0244813
:103E100001698847DFED240A9FED241A41EE000A6C
:103E2000BCEEE00A10EE100A1E4908601C48016949
:103E30008847DFED1D0A9FED1D1A41EE000ABCEE1A
:103E4000E00A10EE100A1749091D08601448016ABB
:103E5000884710B10220114908701DE060780D28D4
:103E60000FD100200D4908704FF47A700D49086099
:103E7000091D08600A4881698847002000F0F8F8A9
:103E800009E02078022803D1012000F0F1F802E0D7
:103E9000002000F0EDF800BF00BF70BD300500202D
:103EA00034050020340C004000007A440000164421
:103EB00000B587B001212020FFF72CFD0121080566
:103EC000FFF758FD4FF46070059002208DF8180040
:103ED00000208DF81A0003208DF8190000208DF8BD
:103EE0001B0005A91B48FDF701FC05220721194805
:103EF000FDF744FC052208211648FDF73FFC05228A
:103F000009211448FDF73AFC0020ADF800004FF4F9
:103F10008270ADF802000020ADF80400ADF8060094
:103F2000ADF808004FF40070ADF80A003820ADF885
:103F30000C000020ADF80E000A20ADF81000694614
:103F4000054800F041F80121034800F023F807B0CC
:103F500000BD0000001402400050014010B50446AE
:103F600000BF02210A4800F021F80028F9D02146BC
:103F7000074800F027F800BF0121054800F016F8B7
:103F80000028F9D0024800F01AF8C0B210BD0000B5
:103F90000050014021B1028842F04002028004E05A
:103FA00002884FF6BF731A40028070470246002015
:103FB00013890B400BB1012000E00020704701463F
:103FC000888970478181704710B50022028802F409
:103FD00041520B884C8823438C882343CC8823434D
:103FE0000C8923434C8923438C892343CC89234365
:103FF0001A430280838B4FF2FF74234083830B8A22
:10400000038210BD7047000030B500228B071C0FE3
:104010000F2303FA04F20B4B8C1053F82430934314
:10402000084C8D1044F8253023468C1053F824306A
:104030008C07240F00FA04F42343024C8D1044F83B
:10404000253030BD08380140417A012902D1074AA4
:1040500011700AE0417A032902D1044A117004E088
:10406000417A022901D1014A1170704732050020BE
:104070000149087070470000310500200CB5002090
:10408000019000903448006840F480303249086064
:1040900000BF3148006800F4003000900198401CD7
:1040A0000190009818B90198B0F5A04FF1D12A48B5
:1040B000006800F4003010B10120009001E0002001
:1040C00000900098012846D123484030006840F015
:1040D00080502149403108602048006840F4404049
:1040E0001E4908601C48083000681B4908310860F8
:1040F0000846006840F4004008600846006840F444
:10410000A05008601648091F0860081F006840F0AA
:104110008070091F086000BF0F48006800F0007041
:104120000028F9D040F205600E4908600A480830BE
:10413000006820F00300084908310860084600685C
:1041400040F00200086000BF03480830006800F03B
:104150000C000828F8D10CBD003802400070004067
:104160000C544007003C0240F0B585B007460C46B1
:1041700015461E4640F2FF10009000208DF8080002
:104180008DF8090008208DF80A00200A8DF80B0030
:10419000E1B28DF80C10290A8DF80D10E9B28DF8F6
:1041A0000E10310A8DF80F10F1B28DF810100021A9
:1041B0008DF811108DF8121069463846FCF7FDFF96
:1041C00005B0F0BD70B586B006460C46154640F207
:1041D000FF10019000208DF80C008DF80D000820D4
:1041E0008DF80E00200A8DF80F008DF81040290A76
:1041F0008DF811108DF8125000218DF813108DF8E4
:1042000014108DF815108DF8161001A93046FCF722
:10421000D4FF06B070BD000010B51548006840F42A
:104220007000134908601348006840F0010011490C
:10423000086000200F49083108600E4800680E49E8
:1042400008400C4908600D48091D0860081F0068F7
:1042500020F48020091F0860002006490C31086006
:10426000FFF70CFF4FF0006001498039086010BD76
:1042700088ED00E000380240FFFFF6FE1030002419
:104280000EB501210846FFF755FB4FF0FF300190B6
:10429000A720ADF800000020ADF80200ADF808003E
:1042A0000121880700F008F969464FF0804000F0CE
:1042B000E3F90121880700F011F90EBD10B50121C5
:1042C000880700F017F938B10121880700F003F9D9
:1042D0000121880700F0FCF810BD00001FB5012186
:1042E0000420FFF727FB1E208DF8000001208DF829
:1042F00001008DF802008DF803006846FFF708F909
:1043000040F2E73002905320ADF804000020ADF8F1
:104310000600ADF80C0001A9064800F0ADF9012235
:104320001146044800F0F7F80121024800F0D6F8E1
:104330001FBD00000008004010B50121304800F00A
:10434000D9F800285BD001F055FD2E4890ED000A09
:10435000DFED2D0AB4EEE00AF1EE10FA03DD9FED79
:104360002A0A80ED000A274890ED000ADFED270AAF
:10437000B4EEE00AF1EE10FA03D29FED240A80EDCC
:10438000000A234890ED000ADFED220AB4EEE00AAD
:10439000F1EE10FA03DD9FED1F0A80ED000A1C48C4
:1043A00090ED000ADFED180AB4EEE00AF1EE10FA23
:1043B00003D29FED150A80ED000A174890ED060A1A
:1043C000F0EE401A90ED050AB0EE401A1348D0ED19
:1043D000002A134890ED002A0A48D0ED000A0C4844
:1043E00090ED000AFDF72EFB022001F09FFB01215A
:1043F000034800F070F80121014800F069F810BD91
:10440000000800401C00002000005C430000024344
:1044100020000020000082434408002058000020B3
:10442000540000201FB501211020FFF783FA362029
:104430008DF8000001208DF8010000208DF80200A9
:1044400001208DF803006846FFF762F840F2E7307C
:1044500002905320ADF804000020ADF80600ADF83E
:104460000C0001A9014800F007F91FBD0010004031
:1044700010B50121064800F03DF838B1012104488B
:1044800000F029F80121024800F022F810BD0000D8
:104490000010004010B50121064800F01FF801226D
:1044A0001146044800F037F80121024800F010F8E6
:1044B00010BD00000010004021B1028842F08002CF
:1044C000028004E002884FF67F731A400280704732
:1044D000CA4302827047CA430282704721B10288F0
:1044E00042F00102028004E002884FF6FE731A4097
:1044F0000280704730B50246002000230024158A50
:1045000005EA0103958905EA010413B10CB1012004
:1045100000E0002030BD1AB183890B43838102E0A3
:1045200083898B438381704770B500240022002368
:10453000058C4FF6FE7635400584028C8388048B0B
:104540004FF68F752C40B51E2C400D882C43751EE0
:104550002A408D892A434D882A43104DA84202D013
:104560000F4DA84213D14FF6F7752A40CD892A4343
:104570004FF6FB752A408D882A434FF6FF652B4086
:104580004FF6FF552B400D8A2B434D8A2B438380DA
:1045900004838D684563028470BD00000000014003
:1045A000000401400A460021018B4FF6F7731940C1
:1045B000114301837047000070B5002400220023DE
:1045C000058C4FF6EF7635400584028C8388048B8A
:1045D00048F6FF752C404FF6FF452C400D884FF6EE
:1045E000FF7606EA05252C434FF6DF752A408D89B4
:1045F00006EA05152A434D8806EA05152A43154D96
:10460000A84202D0144DA8421DD14FF67F752A4012
:10461000CD894FF6FF7606EA05152A434FF6BF759A
:104620002A408D8806EA05152A434FF6FF352B40B0
:104630004FF2FF752B400D8A06EA85052B434D8A04
:1046400006EA85052B43838004838D688563028495
:1046500070BD000000000140000401400A46002136
:10466000018B4FF2FF7319404FF6FF7303EA0223E9
:10467000194301837047000000220288184B9842BA
:104680000ED0184B98420BD0B0F1804F08D0164B8B
:10469000984205D0154B984202D0154B984204D150
:1046A0004FF68F731A404B881A43124B984207D02B
:1046B000114B984204D04FF6FF431A400B891A431E
:1046C00002804B68C3620B880385054B984202D079
:1046D000044B984201D18B7A038601238382704771
:1046E00000000140000401400004004000080040B8
:1046F000000C0040001000400014004000B597B0CE
:1047000001210220FFF706F901218805FFF702F9D0
:1047100001211020FFF72EF9072211464248FDF72C
:104720002DF815A8FDF751F88020159002208DF87E
:10473000580000208DF8590001208DF85B0015A964
:104740003948FCF7D3FF394800F0D0FA11A800F03F
:10475000E1FB374811900020ADF84800ADF84A0061
:104760004FF48060ADF84C000420ADF84E000020FE
:10477000ADF8500011A92D4800F062FB0122402144
:104780002A4800F0A9FA2B48FCF7BEFD01A8FCF767
:10479000B9FE4FF0006001902448001D02902648A9
:1047A0000390002004901E200590002006904FF4F6
:1047B000806007900020089009904FF480700A9064
:1047C00000020B9000200C900D900E900F9001A90C
:1047D0001848FCF76BFE002217491E311548FCF7FC
:1047E0004AFE01211348FCF73BFE01211148FCF76A
:1047F00080FD25208DF8400000208DF841008DF8C7
:10480000420001208DF8430010A8FEF781FE01222E
:1048100040F22441054800F0EDFA0121034800F080
:104820004FFA17B000BD0000000402400010014024
:10483000A0860100406402409806002010B540F2B6
:1048400024412E4800F0ACFA002855D02B480088AF
:104850002A4880882A48FCF71EFE30BB00212848E1
:10486000FCF747FD2648FCF712FEC0F11E00254963
:1048700008601E202249091D0860081F006840F4D6
:104880000020091F086001211D48FCF732FD1D486A
:104890000068122830D11C48FFF71EFA0020FCF7F0
:1048A000A3FF0446FEF746F926E000211448FCF772
:1048B00020FD1348FCF7EBFDC0F11E001149086014
:1048C0001E200F49091D0860081F006820F4002001
:1048D000091F086001210A48FCF70BFD0948006820
:1048E000122809D108481E30FFF7F6F90020FCF71E
:1048F0007BFF0446FEF71EF910BD000000100140CA
:1049000040640240400000209806002000B597B0A7
:1049100001210820FEF7FEFF01214804FFF70AF8F5
:1049200001214805FEF7F6FF072205213F48FCF765
:1049300025FF072206213D48FCF720FF6020159047
:1049400002208DF858008DF8590000208DF85A008B
:104950008DF85B0015A93548FCF7C8FE4FF4E1302F
:1049600011900020ADF84800ADF84A00ADF84C00B9
:10497000ADF850000C20ADF84E0011A92C4800F005
:104980005FFA26208DF8400002208DF841008DF856
:10499000420001208DF8430010A8FEF7B9FD012266
:1049A0004021234800F098F92248FCF7ADFC01A80B
:1049B000FCF7A8FD4FF0006001901D48001D02901B
:1049C0001D480390002004901220059000200690BE
:1049D0004FF4806007900020089009904FF4807099
:1049E0000A9000020B9000200C900D900E900F90FA
:1049F00001A91048FCF75AFD00220F4912310D4859
:104A0000FCF739FD01210B48FCF72AFD012109487B
:104A1000FCF76FFC0121064800F052F9012240F238
:104A20002441034800F0E6F917B000BD000C024035
:104A30000044004088600240D406002010B52E4893
:104A40000068401C2C49086040F224412B4800F0CB
:104A5000A7F900284FD0294800882848001D008861
:104A60002748FCF718FD002845D100212448FCF711
:104A700040FC2348FCF70BFDC0F1120021490860FF
:104A800012201F49091D08601D488838D0F8880089
:104A900040F40020091F086001211948FCF729FC97
:104AA00018480068092803D11748FEF747F822E0A4
:104AB00000211348FCF71DFC1148FCF7E8FCC0F18D
:104AC00012001049086012200D49091D08600C48A9
:104AD0008838D0F8880020F40020091F08600121E0
:104AE0000748FCF706FC07480068092803D1064878
:104AF0001230FEF723F810BD94000020004400405F
:104B000088600240A0000020D406002000B587B0D5
:104B100001210820FEF7FEFE01218804FEF70AFFAE
:104B2000072208212248FCF729FE072209212048F4
:104B3000FCF724FE4FF44070059002208DF8180019
:104B40008DF8190000208DF81A008DF81B0005A9BA
:104B50001748FCF7CBFD4FF4E13001900020ADF891
:104B60000800ADF80A00ADF80C00ADF810000C20FC
:104B7000ADF80E0001A90F4800F062F901210D48BF
:104B800000F09EF8012240F225510A4800F032F967
:104B900027208DF8000003208DF801008DF8020019
:104BA00001208DF803006846FEF7B2FC07B000BD97
:104BB000000C0240004800401C48008800F008003B
:104BC00020B11A49091D0988C8B200BF17480088DA
:104BD00000F08000F0B115480C30008800F0800033
:104BE000C0B1134801780078401C114A1070114878
:104BF000405C0E49091D0880104600780E4909786E
:104C0000884207D109480C30008820F0800007490D
:104C10000C3108800548008800F0200020B10349CD
:104C2000091D0988C8B200BF704700000048004055
:104C3000F0050020B10A0020F10500201C48008882
:104C400000F0080020B11A49091D0988C8B200BF48
:104C50001748008800F08000F0B115480C3000883B
:104C600000F08000C0B1134801780078401C114A60
:104C700010701148405C0E49091D088010460078EC
:104C80000E490978884207D109480C30008820F085
:104C9000800007490C3108800548008800F020009A
:104CA00020B10349091D0988C8B200BF7047000040
:104CB00000140140F0050020B10A0020F105002099
:104CC00021B1828942F40052828104E082894DF64A
:104CD000FF731A40828170471AB1838A0B43838223
:104CE00002E0838A8B4383827047000010B504463C
:104CF0002548844208D101211020FEF74BFE0021F7
:104D00001020FEF747FE3EE02048844209D10121F1
:104D10004804FEF71FFE00214FF40030FEF71AFE94
:104D200031E01B48844209D101218804FEF712FEBC
:104D300000214FF48020FEF70DFE24E01548844248
:104D400009D10121C804FEF705FE00214FF400201F
:104D5000FEF700FE17E01048844209D10121080542
:104D6000FEF7F8FD00214FF48010FEF7F3FD0AE096
:104D70000A48844207D101212020FEF70BFE0021C2
:104D80002020FEF707FE10BD001001400044004047
:104D900000480040004C004000500040001401401A
:104DA00070B50246002400230025002040F66A1654
:104DB000B14200D100BFC1F3421501F01F0301262B
:104DC00006FA03F3012D02D19689334006E0022D45
:104DD00002D1168A334001E0968A33400C12012634
:104DE00006FA04F41688344013B10CB1012000E037
:104DF000002070BDF0B503460024002600250020E9
:104E000040F66A17B94200D100BF1846C1F34214F8
:104E100001F01F06012707FA06F5012C01D10C301D
:104E200004E0022C01D1103000E014301AB1076800
:104E30002F43076002E00768AF430760F0BD000042
:104E40002DE9FF4705460E460024A14600BFA046B7
:104E5000B08900B100BF2C8A24F44054F088044388
:104E60002C82AC8941F20C608443B08831890843BC
:104E7000718908430443AC81AC8A24F44074B0893E
:104E80000443AC826846FEF795FD2048854202D077
:104E90001F48854202D1DDF80C9001E0DDF8089052
:104EA000A88900F4004040B109EBC90000EB0910EB
:104EB00031684900B0FBF1F707E009EBC90000EBEE
:104EC000091031688900B0FBF1F76420B7FBF0F0FE
:104ED00004012009642101FB1078A88900F4004036
:104EE00040B1322000EBC800B0FBF1F000F0070049
:104EF000044308E0322000EB08106421B0FBF1F01D
:104F000000F00F0004432C81BDE8FF870010014032
:104F1000001401404FF41651016000218180C180CE
:104F200001810C21418100218181704700BFFEE792
:104F300071EE401A4B4991ED002A71EE821AC1EDD3
:104F4000001AD1ED001A9FED482AF4EEC21AF1EED4
:104F500010FA04DDDFED441AC1ED001A0DE04149FD
:104F6000D1ED001A9FED412AF4EEC21AF1EE10FACB
:104F700003D2DFED3E1AC1ED001A3D49D1ED001A12
:104F800071EE611A3B49C1ED001A71EE401A3A49BF
:104F900091ED002A61EE821A384991ED002A3149DB
:104FA000D1ED002A42EE221A354991ED002A31490D
:104FB000D1ED002A42EE221A3249C1ED001A2C49E5
:104FC00081ED001A2F49D1ED001AB0EE0C2A40EE07
:104FD000821A2D4991ED002A61EE821A2B49C1ED0A
:104FE000001A2B49D1ED001A70EEE11A294991ED12
:104FF000002A61EE821A2849C1ED001A2349D1ED39
:10500000001A254991ED002A71EE821A2349C1ED5B
:10501000001A1F49C1ED000A2049D1ED001A9FED89
:10502000202AF4EEC21AF1EE10FA03DDDFED1C1AAD
:10503000C1ED001A1949D1ED001A9FED1A2AF4EEBC
:10504000C21AF1EE10FA03D2DFED161AC1ED001A02
:105050001249D1ED001AFDEEE11A11EE901A08B2D4
:10506000704700003406002000007A4400007AC433
:10507000380600203C060020440600204806002098
:105080004C06002040060020640600205806002040
:10509000700600206C0600206006002074060020C8
:1050A0000050C3460050C3C603B4019841000098A5
:1050B00050EAC12018BF04204A0D18BF40F001007B
:1050C00040F2FF72B2EB515F08BF40F002000128CE
:1050D00008BF052002B0704770B5C1482DED020B26
:1050E0002DED0E8B82B0119D25F000449FEDBEDBAF
:1050F0009FEDBFEB84423EDBA4F140511098A1F13B
:105100007F6108430FD0BC48844202DC28D110984C
:1051100030B39DED100B02B0BDEC0E8B02B0BDE8BC
:10512000704000F0B0BC9DED100B53EC1D2B51EC0A
:10513000100BFBF757F89DED100B41EC180B53ECDF
:105140001E2B51EC100BFBF74DF853EC182BFBF713
:1051500027FA41EC100B02B0BDEC0E8B02B070BD13
:10516000012000F0D5FC02B0BDEC0E8B02B0BDE812
:10517000704000F09DBCA1489FEDA18B844256DA9F
:105180009DED100BB4F1795F0ADA51EC100BFFF7CB
:105190008BFF042808BF00F09BFC9DED100BDAE7A5
:1051A00053EC102B51EC100BFBF71CF841EC190BD6
:1051B00095480621B0EE490AF0EE690A784400F0FD
:1051C000E6FB53EC192B51EC100BFBF70BF841EC01
:1051D0001A0B8E48B0EE490AF0EE690A04217844B1
:1051E00000F0D5FB53EC192B51EC100BFAF7FAFF3A
:1051F00053EC182BFBF7D4F941EC100B51EC1A0BC4
:1052000053EC102BFBF760F8CDE900019DED000B8E
:1052100053EC102B9DED100B51EC100BFAF7E2FF45
:105220009DED101B53EC112BFBF7BAF9D2E09DED6D
:10523000100B51EC100B00F087FC53EC182BFBF714
:1052400053FA9FED730BCDE9000153EC102B9DED4C
:10525000000B51EC100BFAF7C5FF41EC190B6E482F
:105260000621B0EE490AF0EE690A784400F08FFB9F
:1052700053EC192B51EC100BFAF7B4FF41EC1B0B5C
:105280006648B0EE490AF0EE690A0421784400F05D
:105290007EFB53EC192B51EC100BFAF7A3FF53ECE8
:1052A000182BFBF77DF941EC1C0B51EC190B00F0AE
:1052B000EBFE41EC180B5A489FED5BABA04222DCA1
:1052C00053EC1C2B51EC1B0BFAF7FEFFCDE9000150
:1052D0009DED000B51EC180B53EC102BFAF782FFED
:1052E00053EC182BFBF75CF953EC1A2BFAF77AFF07
:1052F00053EC1D2BFBF7F5F953EC1E2BFBF7F4F9E0
:1053000041EC100B5FE08DED008B002000909DEDD7
:10531000000B51EC180B53EC102BFBF741F99DEDF2
:10532000000B41EC1E0B53EC102B51EC100BFAF759
:1053300059FF53EC192BFBF7D7F953EC1E2BFAF757
:10534000C3FF41EC190B53EC1C2B51EC1B0BFAF770
:10535000BBFF41EC1B0B53EC1A2B51EC190BFAF76A
:1053600041FF53EC1D2BFBF7BFF941EC190B53EC3C
:105370001A2B51EC180BFAF735FF53EC1B2BFAF7ED
:1053800031FF53EC192BFBF7ACF99DED000B41EC11
:10539000180B53EC1A2B51EC100BFAF723FF9FED6F
:1053A000249B53EC192BFBF79FF941EC100B51ECAC
:1053B000180B53EC102BFBF794F953EC192BFBF75C
:1053C00093F941EC100B002D3FF7C5AE51EC100BDB
:1053D00081F0004141EC100BBDE600000000000030
:1053E0000000F03F00000000075C143326A6913C4B
:1053F000182D4454FB21F93F0000F07F0000E03FEE
:10540000000000000000F03F600F00006E0F000081
:10541000000000000000E03FB20E0000C00E0000DF
:105420003333EF3F000000000000000000000040A8
:10543000182D4454FB21E93F70B59B482DED020B1C
:105440002DED068B079D25F00044A04218DC9748FF
:10545000844202DC0AD1069840B19DED060BBDECFA
:10546000068B02B0BDE8704000F00DBB002DCCBF34
:105470009FED8F0B9FED900BBDEC068B02B070BDC6
:105480008F48A04215DD8F48A042D8BF4FF0FF34AF
:1054900058DD9DED060B51EC100BFFF705FE0428BF
:1054A00008BF00F015FB9DED060BBDEC068B02B0AE
:1054B00070BD9DED060B51EC100B00F045FBCDE9E6
:1054C000060181489FED828BA0423CDD8248A042CC
:1054D0001FDD00249FED82AB9DED060B53EC1A2BD4
:1054E00051EC100BFBF75CF89DED060B41EC190B32
:1054F00053EC1A2B51EC100BFAF774FE53EC182BEB
:10550000FBF7EFF853EC192BFAF7DEFECDE90601B5
:1055100049E09DED060B012453EC182B51EC100BC8
:10552000FBF73EF89DED060B41EC190B53EC182BE5
:1055300051EC100BFBF7D5F853EC192BFAF7C4FE1E
:10554000CDE906012FE06848A0421FDD02249FED4F
:10555000689B9DED060B53EC192B51EC100BFAF7E1
:1055600041FE53EC182BFBF71BF89DED060B41ECAD
:10557000180B53EC192B51EC100BFBF7B2F853EC52
:10558000182BFAF7A1FECDE906010CE09DED060B04
:10559000032453EC102B9FED580B51EC100BFAF732
:1055A00093FECDE906019DED060B53EC102B51EC5B
:1055B000100BFAF717FE41EC180B53EC182BFAF707
:1055C00011FE41EC190B4E480621B0EE490AF0EEEF
:1055D000690A784400F0DBF953EC182B51EC100BFE
:1055E000FAF700FE41EC180B4648B0EE490AF0EE1F
:1055F000690A0521784400F0CAF953EC192B51ECE3
:10560000100BFAF7EFFD41EC100B51EC180B53ECBB
:10561000102B002C0EDAFAF7C3FF9DED061B53EC9E
:10562000112BFAF7DFFD9DED061B53EC112BFBF759
:105630005BF835E0FAF7B4FF9DED061B53EC112B38
:10564000FAF7D0FD41EC100B2F48784400EBC40072
:1056500090ED001B51EC100B53EC112BFBF741F8B4
:105660009DED061B53EC112BFBF73BF841EC100BA7
:105670002648784400EBC40090ED001B51EC100B61
:1056800053EC112BFBF730F841EC100B002DA2BFAF
:10569000BDEC068B02B070BD51EC100B81F00041E7
:1056A00041EC100B01E70000000010440000F07F07
:1056B000182D4454FB21F93F182D4454FB21F9BF08
:1056C0000000DC3F0000203E0000F33F000000002F
:1056D000000000000000F03F0000E63F0000000076
:1056E00000000000000000400080034000000000B7
:1056F000000000000000F83F000000000000F0BFC4
:10570000020C0000B80B0000420B0000FA0A000077
:1057100070B56B4E2DED040B2DED028B82B0DDF8D4
:105720001CC0DDE905235C422CF000411C4341EA2A
:10573000D474049D22F00040B44205D86C422C433E
:1057400040EAD474B4420BD99DED061B9DED040BC9
:1057500002B0BDEC028B04B0BDE8704000F09DB912
:10576000ACF14054A4F17F641C430BD0022404EA42
:10577000AC7444EAD27405439FED538B9FED542BD8
:1057800007D015E09DED040B51EC100B00F0C6F9AD
:1057900042E0002C11BF012C9DED040B02B0BDECCA
:1057A000028B04BF04B070BD022C38D0032C3BD058
:1057B0000B439FED491B9FED4A0B0AD0B14218D114
:1057C000B04209D121F0804120F08040079105903E
:1057D0000FE0002A15DA10E0434B7B44002C08BF91
:1057E00093ED000B0DD0012C10D0022C17D0032C00
:1057F0001AD0B0421DD1002A03DAB0EE410AF0EE11
:10580000610A02B0BDEC028B04B070BD93ED000BD9
:1058100051EC100B81F0004141EC100BF1E7B0EEC0
:10582000480AF0EE680AECE7B0EE420AF0EE620ACF
:10583000E7E7401A00153C28C8BF8DED000B19DCC6
:10584000BCF1000FBEBF10F13C0F9FED290B8DED99
:10585000000B0FDB9DED060B53EC102B9DED040BA5
:1058600051EC100BFAF730FD00F06EF900F056F92C
:10587000CDE90001002C08BF9DED000BC1D0012C2B
:1058800010D0022C9FED1C0B53EC102B9DED000B48
:1058900051EC100B0DD0FAF724FF53EC182BFAF74C
:1058A00020FFB9E7019880F0004001909DED000BCA
:1058B000A7E7FAF716FF53EC182BFAF715FFABE73B
:1058C0000000F07F00000000182D4454FB21094027
:1058D000182D4454FB2109C0182D4454FB21F9BF55
:1058E000182D4454FB21F93F2A0A00000000000053
:1058F0000000000000000000075C143326A6A13C55
:105900002DED020B019820F0004001909DED000B61
:1059100002B0704700B52DED048BB0EE409AF0EE6A
:10592000609A83B051EC190BFAF7E1FE41EC180BC9
:1059300018EE100A18EE901A8DED008B002818BF93
:105940000120084320F00040C0F17F6000F1E040FA
:10595000C00F14D019EE101A19EE900A8DED009BAD
:10596000002918BF0121084320F00040C0F17F60EA
:1059700000F1E040C00F04BF012000F0C9F8B0EE14
:10598000480A03B0F0EE680ABDEC048B00BD70B5A8
:1059900004462DED028B4D1E00EBC500B0EE408A93
:1059A000F0EE608A90ED000B35F0060017D053EC56
:1059B000182B51EC100BFAF715FC41EC100B6D1E77
:1059C00004EBC50090ED001B51EC100B53EC112BB8
:1059D000FAF7E6FD41EC100B35F00600E7D1022D99
:1059E00036D0042D1CD0062D1CBFBDEC028B70BD23
:1059F00053EC182B51EC100BFAF7F4FB94ED0A1B47
:105A000053EC112BFAF7CCFD53EC182BFAF7EAFB09
:105A100094ED081B53EC112BFAF7C2FD41EC100B6F
:105A200053EC182B51EC100BFAF7DCFB94ED061B32
:105A300053EC112BFAF7B4FD53EC182BFAF7D2FB09
:105A400094ED040B53EC102BFAF7AAFD41EC100B6C
:105A500053EC182B51EC100BFAF7C4FB94ED021B1E
:105A600053EC112BFAF79CFD53EC182BFAF7BAFB09
:105A700094ED001B53EC112BFAF792FDBDEC028B59
:105A800041EC100B70BD10B553EC102B51EC100B0A
:105A9000FAF786FD41EC100B10BD10B553EC112B3D
:105AA00051EC100BFAF77CFD41EC100B10BD00001F
:105AB0009FED050B10B553EC102B51EC100BFAF7C2
:105AC00003FC41EC100B10BD0000000000000000C2
:105AD0009FED050B10B553EC102B51EC100BFAF7A2
