:020000040800F2
:10000000201700209D010008013D0008B11F0008D5
:10001000153A0008E1080008175700080000000022
:100020000000000000000000000000003948000847
:10003000191A000800000000B93F0008B5010008C7
:10004000B7010008B7010008B7010008B7010008B0
:10005000B7010008B7010008B70100081D1A000821
:10006000B7010008B7010008B7010008B701000890
:10007000B7010008B7010008B7010008B701000880
:10008000B7010008B7010008B7010008B701000870
:10009000D9090008B7010008B7010008B701000836
:1000A000B7010008B7010008B7010008B701000850
:1000B0009D4B0008B7010008B7010008B701000810
:1000C000B7010008B7010008B7010008B701000830
:1000D000B7010008D15000084D520008055400082F
:1000E000B7010008B7010008B7010008B701000810
:1000F000B7010008B7010008B7010008B701000800
:10010000B7010008B7010008B7010008B7010008EF
:10011000B7010008B70100080D4C0008B70100083E
:10012000B7010008B7010008B7010008B7010008CF
:10013000B7010008B7010008B7010008B7010008BF
:100140009D0F0008B7010008B7010008B7010008BB
:10015000B7010008B7010008B7010008B70100089F
:10016000B7010008B7010008B7010008B70100088F
:10017000B7010008B7010008B7010008B70100087F
:10018000B7010008B7010008DFF80CD000F046FB0B
:1001900000480047356600082017002006488047C1
:1001A00006480047FEE7FEE7FEE7FEE7FEE7FEE75C
:1001B000FEE7FEE7FEE7FEE7354B00088901000891
:1001C00040EA01039B0703D009E008C9121F08C0D9
:1001D000042AFAD203E011F8013B00F8013B521E59
:1001E000F9D270472DE9FE4F804681EA0300C00F27
:1001F0000C46009021F0004123F00045B8EB0200CE
:10020000A94105D24046214690461C460B4602466F
:1002100023F00040104347D0270DC7F30A00C3F373
:100220000A510290401A019040286BDAC3F3130080
:1002300040F4801B0098924620B10023D2EB030AC1
:1002400063EB0B0B01985946C0F14002504600F099
:10025000CFF906460D4650465946019A00F0E7F997
:1002600010EB08006141002487EA115284EAE77329
:100270001A4340D0009A62B3019A012A4FEA07520A
:1002800015DC001B61EB02014FF0004202EA07524D
:10029000CDE90042001C41F5801132462B4600F0AA
:1002A0001EFA03B0BDE8F08F40462146F9E7001B77
:1002B00061EB0201001C41F5801300185B4120181E
:1002C000A2F5001747EB030140EAD570B6196D415E
:1002D00011E06D084FEA360645EAC0754FEA07524D
:1002E000001B61EB0201001C41F5801149084FEA37
:1002F00030000019514132462B4603B0BDE8F04FA3
:1003000000F0DEB90098012240000023D0EB020289
:1003100063EBE073009821464FEAE074B8EB00000D
:1003200061EB0401E9E783F000435BE781F0004102
:1003300058E72DE9FE4F81EA030404F0004421F060
:10034000004100944FF0000B23F0004350EA0104F9
:100350005ED052EA03045BD0C3F30A54C1F30A55DA
:100360002C44A4F2F3340194A0FB0254C1F3130112
:1003700041F48011C3F3130343F4801301FB0244DF
:1003800000FB034E840A970A44EA815447EA8357E4
:10039000A4FB076802958D0A05FB07854FEA932C9D
:1003A00004FB0C542705029D4FEA065847EA16370E
:1003B000B5EB08056EEB070C870E920E47EA811726
:1003C00042EA8312A7FB0201B6EB0B0164EB0004C7
:1003D0002B0D43EA0C335E1844EB1C50DA465146B1
:1003E000E7FB0201C5F313044FEA0B3343EA14534E
:1003F0004FEA0432019C43EA0603A4F10C04029480
:10040000009CCDE900B400F06AF903B0BDE8F08FBC
:1004100000200146F9E72DE9F04D81EA030404F0DC
:10042000004B21F0004514464FF0000A23F0004134
:1004300050EA050220D054EA01021DD0C5F30A5744
:100440000246C5F31303C1F31300C1F30A5640F487
:10045000801543F48013A7EB0608101BD64608F25C
:10046000FD3873EB050002D308F1010801E0921892
:100470005B41B8F1000F03DA00200146BDE8F08DC2
:1004800000204FF48011064684460EE0171B73EBE4
:10049000050705D3121B63EB050306434CEA010C69
:1004A00049084FEA300092185B4150EA0107EDD14C
:1004B00052EA030012D082EA040083EA05010843ED
:1004C00005D0101BAB4106D20122002306E000221A
:1004D0004FF0004302E06FF0010253101AEB0600E8
:1004E0004CEB085110EB0A0041EB0B01BDE8F04D5D
:1004F00000F0E6B80EB5C10F80EAE0700844CA0704
:10050000002140F233438DE80E000A460B4600F00E
:10051000E6F803B000BD0EB540F233410291002170
:10052000CDE900110A460B4600F0D9F803B000BD32
:10053000C1F30A5210B5C1F3130140F2FF3341F485
:1005400080119A4201DA002010BD40F233439A42F2
:10055000A2F2334203DC524200F059F810BD904041
:1005600010BD00F0004230F000400AD0C10D01F58E
:100570006071C0F3160042EA0151C20840071143FE
:10058000704700200146704730B5041E71F1000429
:1005900004DB4FF00044404264EB0101141E73F190
:1005A000000405DB1C464FF00043524263EB04039A
:1005B000994208BF904230BD01F0004330B421F0B1
:1005C000004150EA010206D00A0DA2F56072C1F3A3
:1005D0001301002A02DC30BC00207047440F44EABB
:1005E000C104C100E01830BC00EBC25000F031B8CB
:1005F000202A04DB203A00FA02F1002070479140E3
:10060000C2F1200320FA03F3194390407047202AD7
:1006100004DB203A21FA02F00021704721FA02F3AC
:10062000D040C2F120029140084319467047202A69
:1006300006DBCB17203A41FA02F043EAE07306E00A
:1006400041FA02F3D040C2F120029140084319461A
:1006500070470029A8BF7047401C490008BF20F020
:100660000100704710B4B0FA80FC00FA0CF050EAB8
:10067000010404BF10BC704749B1CCF1200421FA39
:1006800004F411FA0CF118BF012121430843A3EB34
:100690000C01CB1D4FEA00614FEA102042BF002041
:1006A00010BC704700EBC35010440029A4BF10BC1D
:1006B0007047401C490008BF20F0010010BC704783
:1006C00010B5141E73F1000408DA401C41F100015A
:1006D00092185B411A4301D120F0010010BD2DE9B1
:1006E000F04D92469B4611B1B1FA81F202E0B0FAA8
:1006F00080F220329046FFF77BFF04460F4640EA27
:100700000A0041EA0B0153465A46084313D01146EA
:1007100053EA010019D0C8F140025046FFF777FFB5
:1007200005460E46504659464246FFF761FF0843CC
:1007300005D0012004E020463946BDE8F08D0020B8
:10074000054346EAE0762C4337430A986305E40AFA
:10075000A0EB08000022FD0A44EA47540A3002D503
:1007600000200146E9E7010510196941DDE9084566
:1007700000196941BDE8F04DA2E72DE9F04D0023D5
:100780001A461B1A8A4103DB00200146BDE8F08DA2
:10079000C1F30A52C1F3130141F480154FF0000B6D
:1007A000D10702D100186D41521E0027044640F2C5
:1007B000FF11384601EB620A3E46804602460020A1
:1007C0004FF48011FFF723FFC2197141BB1846EBAC
:1007D0000100B4EB030C75EB000C04D3E41A65EBD9
:1007E000000517460E46241908F101006D418046A8
:1007F0003428E3DDF91946EB0600091BA84103D2B2
:100800004FF0FF32134601E0002213461BEB0700B6
:1008100046EB0A51BDE8F04DFFF752BF064C074DBD
:1008200006E0E06840F0010394E8070098471034C0
:10083000AC42F6D3FFF7ACFC106D0008306D000839
:1008400070B58C1810F8015B15F0070301D110F892
:10085000013B2A1106D110F8012B03E010F8016BBF
:1008600001F8016B5B1EF9D12B0705D40023521E42
:100870000DD401F8013BFAE710F8013BCB1A921CAA
:1008800003E013F8015B01F8015B521EF9D5A142A8
:10089000D8D3002070BD10B54FF4A06003F06EFAFD
:1008A00003F0F6FA02F0FEFC03F01CFF02F03CFF3E
:1008B00002F078FF00F016F800F0F6FA04F068FB9A
:1008C00004F04AFD04F06CFC642005F055FD01F0D5
:1008D00023F902F067FF04F071F905F093FE10BDF3
:1008E00000BFFEE700B58BB00121082003F024FC17
:1008F0000121480603F030FC0320099002208DF806
:10090000280000208DF82A0003208DF829000120FE
:100910008DF82B0009A92E4801F03CF9092201218C
:100920002B4801F07FF909220021294801F07AF9CA
:1009300000208DF81E008DF81F008DF8200001208A
:100940008DF8210000208DF822008DF823008DF80D
:100950001A008DF81B0005208DF81C0006208DF86C
:100960001D000320ADF8180006A91A4800F027FD65
:1009700000208DF812008DF8130001208DF814006E
:100980000020ADF80800ADF80A00ADF80C00ADF895
:100990000E00ADF8100001208DF8150002A800F03F
:1009A000F1FB012202210B4800F000FD14208DF81C
:1009B000040001208DF8050000208DF806000120BC
:1009C0008DF8070001A803F09DF90BB000BD0000F1
:1009D000000C02400064004000B585B00221FE48D2
:1009E00000F054FC00287DD00221FB4800F076FB8B
:1009F0006A460021F84800F06CFDF849009808604C
:100A00009DF80B00F64908709DF80C00F549087038
:100A10009DF80D00F44908709DF80E00F349087028
:100A20009DF80F00F24908709DF81000F149087018
:100A30009DF81100F04908709DF81200EF49087008
:100A4000E8480078E649097840EA0120EC49086066
:100A5000E6480078E449097840EA0120E94908803D
:100A60000846008800F40040E7490860084600682E
:100A7000C0130860E3480088C0F30C00E349088015
:100A8000E04800884FF6FF71081AE1490880D9480C
:100A90000078D749097840EA0120C0F30E00DD490B
:100AA00008800846008800EE100AB8EE400ADA48CE
:100AB00080ED000AC9480068B0F5007F10D9C7482A
:100AC0000068B0F5017F0BD8D34890ED000AC34809
:100AD0000068A0F20120D14901EB800080ED000AFE
:100AE000BE4800E076E1006840F20521884229D145
:100AF000C34890ED000AB8EEC00AC94880ED000A6C
:100B000090ED000ADFEDC70A20EE200ADFEDC60AED
:100B100080EE201AC54880ED001AB948006840F6FA
:100B2000FF71884204DB8021C14801F0A7F809E089
:100B3000B348006840F6FF71884203DA8021BC4860
:100B400001F09EF8A548006840F2062188422BD1AA
:100B5000AB4890ED000AB8EEC00AB64880ED000A36
:100B600090ED000ADFEDAF0A20EE200ADFEDAE0ABD
:100B700080EE201AB04880ED001AA148006840F2CB
:100B80009221884205DB4FF48041AC4801F076F8B1
:100B90000AE09B48006840F29221884204DA4FF450
:100BA0008041A64801F06CF88C48006840F20121B1
:100BB00088421BD19548008800EE100AB8EE400A22
:100BC0009F4880ED000A9048006801280ED19048A7
:100BD000008800EE100AB8EE400A994880ED000A3D
:100BE00090ED000AB1EE400A80ED000A7B480068F3
:100BF00040F2022188421BD18448008800EE100A8E
:100C0000B8EE400A8F4880ED000A7F48006801284E
:100C10000ED17F48008800EE100AB8EE400A8948DD
:100C200080ED000A90ED000AB1EE400A80ED000A66
:100C30006A48006840F2032188421BD1734800884B
:100C400000EE100AB8EE400A7F4880ED000A6E48B8
:100C5000006801280ED16E48008800EE100AB8EE38
:100C6000400A794880ED000A90ED000AB1EE400A92
:100C700080ED000A59480068B0F5017F1BD1634838
:100C8000008800EE100AB8EE400A704880ED000AB5
:100C90005D48006801280ED15D48008800EE100A0A
:100CA000B8EE400A694880ED000A90ED000AB1EE06
:100CB000400A80ED000A4948006840F20721884256
:100CC0001BD15248008800EE100AB8EE400A604876
:100CD00080ED000A4C48006801280ED14C4800887D
:100CE00000EE100AB8EE400A594880ED000A90ED77
:100CF000000AB1EE400A80ED000A38480068B0F5FD
:100D0000027F67D14148008800EE100AB8EE400A21
:100D1000504880ED000A3C48006801280ED13C484C
:100D2000008800EE100AB8EE400A4A4880ED000A3A
:100D300090ED000AB1EE400A80ED000A30490968E2
:100D40004FF4B47201FB02F0C11700EBD14149131B
:100D500000EE101AB8EEC00A3F4981ED000A3F4884
:100D6000006800BB264800683D49086000203D49F6
:100D700008603B4800683C490968884203DA3A4801
:100D80000068374908603848006842F20801081ACC
:100D900033490968884206DA3348006842F208019C
:100DA000081A2F490860164800682D4909688842CA
:100DB0000ADA2E48006838B12A480068401C2949E0
:100DC00008600020294908600D4800682449096826
:100DD00088424DE05FE000000064004074000020A5
:100DE0006C0000206D0000206E0000206F000020CD
:100DF00070000020710000207200002073000020AD
:100E00007C0000204C000020780000204A000020D8
:100E10004800002064000020680000201008002026
:100E2000540000200000B443000000465C00002095
:100E30000010024050000020580000200014024022
:100E40008C000020900000209400002098000020DA
:100E5000A0000020A400002060000020200000204E
:100E60008800002080000020A800002084000020CE
:100E700006DD0A480068012802D001200749086001
:100E800007480068022806DD00200549086005497A
:100E900008600249086005B000BD00008400002021
:100EA000800000202000002000B58BB0012102202E
:100EB00003F042F90121880603F04EF94FF4405047
:100EC000099002208DF8280000208DF82A000320C8
:100ED0008DF8290001208DF82B0009A92D4800F07C
:100EE00059FE09220D212B4800F09CFE09220C21FD
:100EF000284800F097FE00208DF81E008DF81F0096
:100F00008DF8200001208DF8210000208DF82200AE
:100F10008DF823008DF81A008DF81B0005208DF840
:100F20001C0006208DF81D000320ADF8180006A94E
:100F3000194800F044FA0E208DF8120000208DF8B8
:100F4000130001208DF814000020ADF80800ADF862
:100F50000A00ADF80C00ADF80E00ADF8100001204D
:100F60008DF8150002A800F00DF9012202210A48AF
:100F700000F01CFA40208DF8040002208DF80500D6
:100F800001208DF806008DF8070001A802F0BAFED6
:100F90000BB000BD000402400068004000B585B001
:100FA00002213E4800F072F9002874D002213B482B
:100FB00000F094F86A460021384800F08AFA38496F
:100FC000009808609DF80B00364908709DF80C00E9
:100FD000354908709DF80D00344908709DF80E00E1
:100FE000334908709DF80F00324908709DF81000D1
:100FF000314908709DF81100304908709DF81200C1
:101000002F490870284800782649097840EA0120CD
:101010002C490860264800782449097840EA0120D4
:10102000294908800846008800F4004027490860E4
:1010300008460068C013086023480088C0F30C000D
:1010400023490880204800884FF6FF71081A21497B
:1010500008801348006840F2072188421BD11C48D1
:10106000008800EE100AB8EE400A1B4880ED000A26
:101070001648006801280ED11648008800EE100AB4
:10108000B8EE400A144880ED000A90ED000AB1EE77
:10109000400A80ED000A05B000BD00000068004075
:1010A000B00000206C0000206D0000206E000020C9
:1010B0006F000020700000207100002072000020EE
:1010C000730000207C0000204C00002078000020ED
:1010D0004A00002048000020B4000020B1F5007F45
:1010E0003AD00FDC202928D006DC01291CD00429A5
:1010F0001DD0082940D11DE0402921D0B1F5807FC5
:101100003AD126E0B1F5004F31D006DCB1F5806F61
:1011100025D0B1F5006F2FD124E0B1F5803F12D07A
:10112000B1F5003F28D111E0154A826025E0082280
:10113000C26022E01022C2601FE0082202611CE0AF
:101140001022026119E00822426016E0102242607B
:1011500013E00422426010E0042242600DE0042209
:1011600042600AE0002282610422426005E000221F
:1011700082610422426000E000BF00BF70470000AF
:101180000101010010B50021837A012202FA03F166
:101190003D4A126842F001023B4B1A603A4A1C3247
:1011A00012688A43384B1C331A60027BCAB9364A2C
:1011B0000C3212688A43344B0C331A604288C3885D
:1011C00042EA0343304A4032847A42F8343002889B
:1011D000838842EA03432C4A4032847A02EBC402F9
:1011E0005360027B012A19D1274A0C3212680A4344
:1011F000254B0C331A604288038842EA0343224A93
:101200004032847A42F83430C288838842EA034309
:101210001D4A4032847A02EBC4025360C27A3AB962
:10122000194A121D12688A43174B1B1D1A6006E0EB
:10123000154A121D12680A43134B1B1D1A600289BE
:1012400032B9114A143212688A430F4B14331A60B0
:101250000289012A06D10C4A143212680A430A4B49
:1012600014331A60427B012A06D1074A1C321268E5
:101270000A43054B1C331A60034A126822F001022C
:10128000014B1A6010BD00000066004070B50446B6
:101290000D46002660692840002871D0B5F5807F92
:1012A0005CD010DC082D35D006DC012D20D0022DBD
:1012B00024D0042D72D127E0102D31D0202D35D02F
:1012C000402D6BD138E0B5F5004F60D009DCB5F5A5
:1012D000007F49D0B5F5806F4CD0B5F5006F5DD17A
:1012E0004FE0B5F5803F2DD0B5F5003F56D12FE04A
:1012F000A0682D4900F0F8F9064651E0E0680321A6
:1013000000F0F2F906464BE0E068082100F0ECF945
:10131000064645E0E068102100F0E6F906463FE0A9
:101320002069032100F0E0F9064639E02069082130
:1013300000F0DAF9064633E02069102100F0D4F914
:1013400006462DE06068082100F0CEF9064627E049
:101350006068102100F0C8F9064621E0A06901216B
:1013600000F0C2F906461BE0A069022100F0BCF9BA
:10137000064615E0A069042100F0B6F906460FE024
:101380000FE0A069702100F0AFF9064608E0606840
:10139000042100F0A9F9064602E0FFE7002600BF9D
:1013A00000E00026304670BD010101001AB143691A
:1013B0000B43436102E043698B434361704730B59F
:1013C000024600200023146824F00204146014680C
:1013D00044F00104146000E05B1C546804F0010454
:1013E0001CB94FF6FF74A342F6D1546804F001040F
:1013F0000CB900206CE08C79012C04D1146844F005
:101400008004146003E0146824F080041460CC7934
:10141000012C04D1146844F04004146003E0146803
:1014200024F0400414600C7A012C04D1146844F0B8
:101430002004146003E0146824F0200414604C7A43
:10144000012C04D1146844F01004146003E0146803
:1014500024F0100414608C7A012C04D1146844F038
:101460000804146003E0146824F008041460CC7AC3
:10147000012C04D1146844F00404146003E01468DF
:1014800024F0040414608C78A407CD7844EA056441
:101490000D7944EA05444D7944EA05540D886D1EE2
:1014A0002C43D461146824F001041460002300E08C
:1014B0005B1C546804F001041CB14FF6FF74A34296
:1014C000F6D1546804F001040CB1002000E00120C2
:1014D00030BD10B500F5D87303EB01131B6803F0A2
:1014E00004031372137A53B900F5D87303EB011395
:1014F0001B6840F2FF7404EA5353136009E000F5DF
:10150000D87303EB01131B686FF0604404EAD30344
:10151000536000F5D87303EB01131B6803F002035B
:10152000537200F5D87303EB01135B6803F00F03EC
:10153000937200F5D87303EB01135B681B0AD37435
:1015400000F5D87303EB01139B68D37200F5D873D1
:1015500003EB01139B681C0A147300F5D87303EBAB
:1015600001139B681C0C547300F5D87303EB011333
:101570009B681B0E937300F5D87303EB0113DB68B4
:10158000D37300F5D87303EB0113DB681C0A1474E2
:1015900000F5D87303EB0113DB681C0C547400F5E1
:1015A000D87303EB0113DB681B0E937421B9C36876
:1015B00043F02003C36003E0036943F020030361A9
:1015C00010BD10B502460020936803F08063B3F1AC
:1015D000806F00D110E0936803F00063B3F1006FF7
:1015E00001D1012008E0936803F08053B3F1805FDC
:1015F00001D1022000E00420042874D002F5C07359
:1016000003EB00131B6803F0010402F5C07303EB46
:1016100000131C600B7A7BB94B7A0C8843EA445365
:1016200002F5C07404EB00142468234302F5C0746F
:1016300004EB0014236010E00B7A4C6843EAC40307
:101640004C7A234302F5C07404EB0014246823434E
:1016500002F5C07404EB001423608B7A03F00F03CF
:101660008B7202F5C07303EB00135B6823F00F0469
:1016700002F5C07303EB00135C6002F5C07303EB6B
:1016800000135B688C7A234302F5C07404EB0014EA
:1016900063608B7B1C064B7B44EA03440B7B44EA70
:1016A0000323CC7A234302F5C07404EB0014A36037
:1016B0008B7C1C064B7C44EA03440B7C44EA0323EA
:1016C000CC7B234302F5C07404EB0014E36002F505
:1016D000C07303EB00131B6843F0010402F5C073F1
:1016E00003EB00131C6010BD0246002002EA010358
:1016F0000BB1012000E00020704721B1026842F0E8
:101700000102026003E0026822F0010202607047F9
:10171000016821F0010101600021016041608160E8
:10172000C1600161212141614A49884204D13D21C2
:10173000484A103A91608CE046491831884205D1F8
:101740004FF47461434A103A916082E0414930316C
:10175000884205D14FF474113E4A103A916078E006
:101760003C494831884205D14FF07461394A103AFA
:1017700091606EE037496031884204D13649354A7C
:10178000103AD16065E033497831884204D1334959
:10179000304A103AD1605CE02E499031884204D141
:1017A0002F492C4A103AD16053E02A49A831884287
:1017B00005D14FF03D51274A103AD16049E02949FF
:1017C000884204D13D21274A083A116041E0254969
:1017D0001831884205D14FF47461224A083A1160E9
:1017E00037E020493031884205D14FF474111D4A49
:1017F000083A11602DE01B494831884205D14FF06D
:101800007461184A083A116023E016496031884231
:1018100004D11149134A121F11601AE0114978319D
:10182000884204D10D490F4A121F116011E00D4981
:101830009031884204D10A490A4A121F116008E017
:101840000849A831884204D14FF03D51054A121F82
:1018500011607047106002403D000020400F0020E2
:1018600000003D201064024021B1026842F4802251
:10187000026003E0026822F480220260704722B115
:10188000036843F40023036003E0036823F40023A8
:101890000360016170470146486880B270470146A5
:1018A00000200A6802F400220AB1012000E00020B2
:1018B0007047000010B500220268134B1A40CC6834
:1018C0000B6823434C6923438C692343CC6923432E
:1018D0000C6A23434C6A23438C6A23434C6B234397
:1018E0008C6B23431A430260426922F00702D1E95C
:1018F0000B3423431A4342610B6943604B68836096
:101900008B68C36010BD00003F801CF000210160A7
:1019100041608160C160016141618161C1610162B9
:1019200041628162C162016341638163704700006B
:101930003449097859B9AA2846D13349334A12782B
:1019400001EB4211087001212E4A11703CE02D4933
:10195000097801290FD1AF2809D12B492B4A1278D8
:1019600001EB421148700221264A11702CE000213F
:10197000244A117028E023490978022909D1224913
:10198000224A127801EB4211887003211D4A11701E
:101990001AE01C490978032909D11B491B4A12780E
:1019A00001EB4211C8700421164A11700CE016496F
:1019B000164A127801EB4211124A127888541149E2
:1019C0000978491C0F4A11700F49104A127801EB2F
:1019D0004211C978491D0B4A1278914211D1002158
:1019E000084A11700949097831B10021074A11707C
:1019F0000121074A117004E00121044A1170054ACF
:101A000011707047FB060020D0070020FA06002066
:101A1000FD060020FC0600207047000010B50220E3
:101A200000F01CF850B1022000F00CF8022000F089
:101A30000FF801200249087000F040F910BD0000C5
:101A40003C0100200149086070470000143C01403F
:101A50000149086070470000143C01400146002025
:101A60000022074B1B6803EA0102054B14331B6875
:101A70000B4013B10AB1012000E0002070470000C4
:101A8000003C0140002123498279002A3AD00A46CD
:101A9000126803689A430B461A600A1D12680368AD
:101AA0009A430B1D1A60027911440A6803681A43AD
:101AB0000A60184A0832126803689A43154B0833C3
:101AC0001A601A1D126803689A43124B0C331A608D
:101AD0004279102A0ED11A1F126803681A430D4B5F
:101AE00008331A601A1D126803681A43094B0C3335
:101AF0001A600DE00749427911440A6803681A43E5
:101B00000A6005E0027911440A6803689A430A6092
:101B100070470000003C014047F6FF700149086033
:101B2000704700002404004010B5044600EE104A3F
:101B3000B8EEC00A134880ED000A134890ED000A81
:101B4000104880ED010A02F023F90E4890ED0E0ACC
:101B5000DFED0E0AB4EEE00AF1EE10FA03DB9FEDC2
:101B60000B0A80ED0E0A074890ED0E0ADFED080A19
:101B7000B4EEE00AF1EE10FA03D89FED050A80ED0D
:101B80000E0A10BD80050020A400002000007A4548
:101B900000007AC5F0B50A4600210023002400BFEA
:101BA0003DE0012505FA01F3156805EA03049C42AE
:101BB00034D105684F000326BE40B5430560157952
:101BC0004E00B5400668354305601579012D02D0F9
:101BD0001579022D16D185684F000326BE40B54306
:101BE000856055794E00B540866835438560456807
:101BF00001268E40B5434560456896798E40B6B261
:101C000035434560C5684F000326BE40B543C560F7
:101C1000D5794E00B540C6683543C560491C1029CA
:101C2000BFD3F0BDF0B5002300244D07ED0E02FA3E
:101C300005F3CE1000F1200555F826504E07F70E9B
:101C40000F26BE40B543CF1000F1200646F82750BE
:101C5000CE1000F1200555F8265045EA0304CE10B9
:101C600000F1200545F82640F0BD0246002013692A
:101C70000B400BB1012000E000207047418370470A
:101C8000018370474FF6FF710160002101714171BE
:101C90008171C171704700000148007870470000F1
:101CA0003A06002001460B2903D2034800EB8100CD
:101CB00070470020FCE70000B00600204B4890ED84
:101CC000030A4B4880ED040A484890ED040AB1EE3F
:101CD000400A474880ED050A444890ED050A44480B
:101CE00080ED060A434890ED000A434880ED000A63
:101CF000424890ED000A3F4880ED000A90ED000A4E
:101D00003D48D0ED000A30EE600ADFED3D0AB4EE4A
:101D1000E00AF1EE10FA05DB3A480068401E394946
:101D2000086013E0334890ED000A3348D0ED000A14
:101D300030EE600ADFED340AB4EEE00AF1EE10FA9C
:101D400004D830480068401C2E4908602D480068BF
:101D50004FF4B471484300EE100AB8EEC00A2548AB
:101D6000D0ED000AB7EE001A01EE200A274880EDF8
:101D7000000A224890ED010A254880ED000A254816
:101D800090ED000A244880ED000A1C4890ED020AFC
:101D9000224880ED000A1F4890ED000A1E48D0ED51
:101DA000000A30EE600ADFED160AB4EEE00AF1EE4A
:101DB00010FA05DB1A480068401E1949086013E054
:101DC000144890ED000A1448D0ED000A30EE600A85
:101DD000DFED0D0AB4EEE00AF1EE10FA04D8104877
:101DE0000068401C0E490860704700004008002051
:101DF00040090020100100201C0100207408002070
:101E00000000A543340100200000A5C328010020E4
:101E10002C010020180100202401002030010020A6
:101E20003801002010B501700378047D021D1355A0
:101E3000037DD35C447D125D43EA82024270027DE1
:101E4000521C02F00F0282754378847D021D125DE0
:101E500043EA02128270037D021DD35C447D125D51
:101E6000934205D10D4A1268521C0C4B1A6002E0D5
:101E700000220A4B1A60094A1268282A03D3037DFC
:101E8000021DD25CC270027D4275027D521C027539
:101E9000027D102A01D10022027510BDA806002083
:101EA0000148007870470000D50500204FF08040C1
:101EB000406A7047274890ED000AFBEE030AB4EE33
:101EC000E00AF1EE10FA04D8BBEE030A80ED000A36
:101ED0000DE0204890ED000AF3EE030AB4EEE00AAC
:101EE000F1EE10FA03DBB3EE030A80ED000A1948A5
:101EF00090ED010A1848D0ED010A9FED181A70EE16
:101F0000C10AB4EEE00AF1EE10FA09D890ED010A28
:101F1000DFED120A30EE600A0E4880ED010A17E08C
:101F20000C4890ED010A0C48D0ED010A9FED0B1A08
:101F300070EE810AB4EEE00AF1EE10FA08DB90EDE3
:101F4000010ADFED060A30EE200A024880ED010AA0
:101F500070470000580B00208C02002000007042E7
:101F600000B5F0EE405AB0EE603AF0EE413AB0EE15
:101F7000614AF0EE424AB0EE625AB0EE641AF0EEF8
:101F8000630AB0EE650A02F019F800B2064908804B
:101F9000B0EE451AF0EE440AB0EE430A03F0BEFB81
:101FA00000B20249088000BD00070020020700209F
:101FB00000BFFEE700B52DED108B93B0FE4890ED0D
:101FC000000AD0ED000A20EE200A8DED080A90EDFF
:101FD000000AFA48D0ED000A20EE200AB0EE40FADE
:101FE000F54890ED000AF648D0ED000A20EE200AF0
:101FF000F0EE40AAF04890ED000AF248D0ED000A59
:1020000020EE200A8DED070AEC4890ED000AD0ED95
:10201000000A20EE200AF0EE40FA90ED000AE848AF
:10202000D0ED000A20EE200A8DED060AE34890ED7F
:10203000000AE448D0ED000A20EE200AB0EE40BAD3
:10204000DF4890ED000AD0ED000A20EE200AF0EE05
:1020500040BA90ED000ADB48D0ED000A20EE200ADD
:102060008DED050A90ED000AD0ED000A20EE200A61
:102070008DED040AD44890ED030ADFEDD40A20EE7A
:10208000200ADFEDD30A80EE201AD24880ED001A34
:10209000CD4890ED040ADFEDCD0A20EE200ADFEDF9
:1020A000CC0A80EE201ACC4880ED001AC64890ED8C
:1020B000050ADFEDC60A20EE200ADFEDC50A80EE34
:1020C000201AC64880ED001ABF4890ED000AC448A7
:1020D00080ED000ABC4890ED010AC24880ED000A7C
:1020E000B94890ED020AC04880ED000AB64890ED6C
:1020F000060ABE4880ED000AB34890ED070ABC48C6
:1021000080ED000AB04890ED080ABA4880ED000A58
:10211000FFF7CCFEB849086008460068B74909686F
:1021200088420CD3B4480068B4490968401A00EEEC
:10213000100AB8EE400ADFEDB20AC0EE208AAE48BF
:102140000068AE490860A648D0ED000A90ED001A7C
:1021500060EE810AA34890ED001AD0ED001A41EE1E
:10216000210AA14890ED001AD0ED001A41EE210A93
:10217000B0EE600A04F028FAB0EE408A984890ED7C
:10218000000A20EE080A80ED000A964890ED000A49
:1021900020EE080A80ED000A934890ED000A20EE38
:1021A000080A80ED000A9148D0ED000A90ED001A6F
:1021B00060EE810A8E4890ED001AD0ED001A41EED3
:1021C000210A8C4890ED001AD0ED001A41EE210A48
:1021D000B0EE600A04F0F8F9B0EE408A834890ED62
:1021E000000A20EE080A80ED000A814890ED000AFE
:1021F00020EE080A80ED000A7E4890ED000A20EEED
:10220000080A80ED000A794890ED000AF0EE000A15
:1022100060EE200AB6EE000A30EE6B1A9DED040A5D
:1022200031EE400A20EE800A7148D0ED000AB0EE8F
:10223000001A60EE811ADDED060A9DED071A70EEB8
:10224000C10A01EEA00A6B48D0ED000AB0EE001AF8
:1022500060EE810A3BEE2A1A00EE810A8DED110A2A
:10226000624890ED000AF0EE000A20EE201A9DED83
:10227000060ADDED070A30EE200A21EE000A5C486E
:10228000D0ED000AB0EE001A20EE811AF6EE000A38
:1022900070EEEF1ADDED040A71EEE00A01EE200A9D
:1022A0005448D0ED000AB0EE001A20EE811ADDEDA0
:1022B000050A70EECF0A01EE200A8DED100A4B4898
:1022C00090ED000AF0EE000A20EE200A7BEE6A0A8A
:1022D00060EE200A464890ED000AB0EE001A20EEAB
:1022E000011A9DED050A70EE0F1AB0EE600A01EEBC
:1022F000210A4048D0ED000AB0EE001A60EE810AD3
:10230000B6EE001A31EE6F1A31EE6B1AB0EE409A4B
:1023100000EE819A9DED110A60EE000A9DED100A13
:1023200040EE000A10EE901A0846FEF71AF9CDE9C1
:1023300000019DED000B03F0E5FE8DED020B9DED20
:10234000020B51EC100BFEF737F909EE900AB0EED4
:1023500049AA3BEE6A0AF0EE000A20EE200A8DED53
:102360000F0A9DED050A3FEE000AF0EE000A20EE8E
:10237000200A8DED0E0A9DED080A30EE6F0A70EE10
:102380006B0A9DED040A30EE800A8DED0D0AB0EE69
:10239000000A69EE800AB6EE000A30EE6B1A9DED77
:1023A000040A31EE400A20EE800AB0EE4A9AF0EEBE
:1023B000000A69EE200A25E0D4000020D8000020A1
:1023C000DC000020E000002040080020DB0F494036
:1023D00000003443E4000020E8000020EC0000206E
:1023E000F0000020F4000020F8000020FC00002095
:1023F00000010020040100200C0100200801002041
:102400000024F4493BEE6A1A00EE810A8DED0C0AB5
:10241000B0EE000A29EE801A9DED060ADDED070AEE
:1024200030EE600A21EE000AB0EE4A9AF0EE000AA1
:1024300029EE201ADDED050A7FEE200A01EE200AC2
:102440008DED0B0AB0EE000A29EE800A7AEE8B0AB7
:1024500020EE200AB0EE4A9AF0EE000A69EE200A59
:10246000B6EE001A31EE6F1A31EE6B1A00EE810AE9
:102470008DED0A0AAF48D0ED000A9DED0D0A60EE21
:10248000800AAD4890ED001A9DED0E0A41EE400A1B
:10249000AA4890ED001A9DED0A0A21EE001AA848FC
:1024A000D0ED001A9DED0B0A01EEC01A30EE81CA84
:1024B000A148D0ED000A9DED0F0A60EE800AA14808
:1024C00090ED001A9DED0D0A41EE400A9C4890EDFA
:1024D000001A9DED0C0A21EE001A9B48D0ED001A5F
:1024E0009DED0A0A01EEC01A70EE81CA9548D0ED42
:1024F000000A9DED0E0A60EE800A8E4890ED001AEB
:102500009DED0F0A41EE400A8F4890ED001A9DEDB7
:102510000B0A21EE001A8948D0ED001A9DED0C0A35
:1025200001EEC01A30EE81DAB5EEC0CAF1EE10FA53
:1025300057D0F5EEC0CAF1EE10FA52D0B5EEC0DABF
:10254000F1EE10FA4DD09FED810A6CEE000A804842
:1025500090ED000A00EEA80A80ED000A9FED7B0ACC
:102560006CEE800A7B4890ED000A00EEA80A80ED30
:10257000000A9FED760A6DEE000A774890ED000A9A
:1025800000EEA80A80ED000A744890ED000AF0EE13
:10259000000A00EE8C0A6E48D0ED000A30EE200AE8
:1025A0006E4880ED000A6E4890ED000AF0EE000AD9
:1025B00000EEAC0A6748D0ED000A30EE200A684809
:1025C00080ED000A674890ED000AF0EE000A00EE88
:1025D0008D0A6148D0ED000A30EE200A614880ED96
:1025E000000A614890ED000AB1EE400A5B48D0ED68
:1025F000000A20EE200A5D48D0ED000A584890ED10
:10260000001A00EEC10A5A4890ED001A5548D0ED64
:10261000001AF0EE400A41EE610A564890ED000AB9
:1026200000EEA80A8DED090A90ED000A4B48D0EDA6
:10263000000A20EE200A4D48D0ED000A494890EDEE
:10264000001A00EE810A4A48D0ED000A444890ED95
:10265000001A00EEC10A4448D0ED000AF0EE60DA3C
:1026600040EE28DA434890ED000A3D48D0ED000ADC
:1026700020EE200A3C48D0ED000A3A4890ED001ABE
:1026800000EEC10A3A48D0ED000A344890ED001A35
:1026900000EE810A3548D0ED000AB0EE60EA00EEA7
:1026A00028EA344890ED000A2E48D0ED000A20EECA
:1026B000200A2D48D0ED000A294890ED001A00EEBE
:1026C000810A2A48D0ED000A244890ED001A00EE55
:1026D000C10A2748D0ED000AF0EE60EA40EE28EA91
:1026E000DDED090A60EEA00A4DEEAD0A4EEE0E0ACF
:1026F0004EEEAE0AB0EE600A03F066FFB0EE408A1E
:102700009DED090A20EE080A1A4880ED000A2DEE18
:10271000880A154880ED000A2EEE080A134880ED5D
:10272000000A2EEE880A124880ED000A13B0BDECB4
:10273000108B00BDF4000020F800002000010020F4
:1027400004010020F0000020FC0000200AD7233CF8
:10275000C8000020CC000020D0000020E4000020B1
:10276000E8000020EC000020D8000020DC00002061
:10277000E0000020D40000201FB50E2269463B2057
:1027800001F074F89DF801009DF8001040EA012066
:1027900000B2214908809DF803009DF8021040EA2C
:1027A000012000B21C4948809DF805009DF80410E6
:1027B00040EA012000B2184988809DF807009DF882
:1027C000061040EA012000B21349C8809DF80900B4
:1027D00012490989401A9DF8081040EA012000B208
:1027E0000D4908819DF80B000C494989401A9DF854
:1027F0000A1040EA012000B2074948819DF80D0007
:1028000006498989401A9DF80C1040EA012000B25F
:10281000014988811FBD0000800800209408002025
:1028200010B504460C4800F021F8FFF7C3FB0B4835
:1028300090ED000A84ED000A094890ED000A84ED4D
:10284000010A084890ED000A84ED020A064890ED5E
:10285000000A84ED030A10BD40080020D4000020C7
:10286000D8000020DC000020E000002030B585B05A
:1028700005460DF1120004A9031F03AACDE90010BB
:10288000891F02A801F03EF8BDF80800264908801B
:10289000BDF80A004880BDF80C008880BDF80E0025
:1028A0000881BDF810004881BDF81200888195EDBF
:1028B000060ABDEEC00A10EE100A00B2C88195EDFE
:1028C000070ABDEEC00A10EE100A00B2088295EDAC
:1028D000080ABDEEC00A10EE100A00B248820024B9
:1028E0001DE0032C0BDA02A830F9140000EE100AE8
:1028F000B8EEC00A05EB840080ED000A0EE002A8E5
:1029000030F9140000EE100AB8EEC00ADFED070A35
:1029100080EE201A05EB840080ED001A641C062C62
:10292000DFDB05B030BD00002C090020333303424B
:1029300010B52DED0C8B04468748FFF771FF8648D4
:1029400090ED020AF8EE000A20EE200AD0ED020A0D
:1029500020EE200AD0ED030AB0EE001A60EE810AE4
:1029600090ED031A00EEC10AF7EE000A30EE200ADD
:1029700010EE101A0846FDF7F4FD41EC1C0B7648EA
:1029800090ED010AF0EE000A20EE200AD0ED020AD6
:1029900020EE200AD0ED000AB0EE001A60EE810AA7
:1029A00090ED031A00EE810A10EE101A0846FDF7AA
:1029B000D8FD41EC1D0BB0EE4C1AF0EE6C1AB0EEE7
:1029C0004D0AF0EE6D0A03F09BFAB0EE40BAF0EE5D
:1029D00060BA51EC1B0B81F0004141EC1A0B9FEDEA
:1029E0005F0B53EC102BFDF7A4FC41EC190B9FED92
:1029F0005D0B53EC102BFDF70EFD41EC180BFDF7B2
:102A0000DBFD00EE100A84ED000A534890ED010A48
:102A1000F8EE000A20EE200AD0ED030A20EE200A8C
:102A2000D0ED000AB0EE001A60EE810A90ED021AB5
:102A300000EE810A10EE101A0846FDF792FD41ECF7
:102A40001C0BB0EE4C0AF0EE6C0A02F03DFFB0EE4B
:102A500040BAF0EE60BA51EC1B0B81F0004141EC42
:102A60001A0B9FED3E0B53EC102BFDF762FC41EC73
:102A7000190B9FED3C0B53EC102BFDF7CCFC41ECFC
:102A8000180BFDF799FD00EE100A84ED010A32489B
:102A900090ED010AF8EE000A20EE200AD0ED010ABE
:102AA00020EE200AD0ED020AB0EE001A60EE810A94
:102AB00090ED021A00EEC10AF7EE000A30EE200A8D
:102AC00010EE101A0846FDF74CFD41EC1B0B224896
:102AD00090ED020AF0EE000A20EE200AD0ED030A83
:102AE00020EE200AD0ED000AB0EE001A60EE810A56
:102AF00090ED011A00EE810A10EE101A0846FDF75B
:102B000030FD41EC1C0BB0EE4B1AF0EE6B1AB0EE40
:102B10004C0AF0EE6C0A03F0F3F9B0EE40AAF0EEC6
:102B200060AA9FED0E0B53EC102B51EC1A0BFDF726
:102B300000FC41EC190B9FED0B0B53EC102BFDF738
:102B40006AFC41EC180BFDF737FD00EE100A84ED2E
:102B5000020ABDEC0C8B10BD6408002000000000D0
:102B60000080664000000060FB21094010B5302164
:102B70006A2000F0A9FE0A2003F0FEFB0D212420AC
:102B800000F0A2FE0A2003F0F7FB0E21282000F03F
:102B90009BFE0A2003F0F0FB8E21312000F094FE12
:102BA0000A2003F0E9FB01210B2000F075F800205A
:102BB00000F055F8102801D0012010BD0A2003F0C4
:102BC000DBFB00210A2000F067F80A2000F047F83C
:102BD00008B10220F1E70A2003F0CEFB00210B2010
:102BE00000F05AF80B2000F03AF808B10320E4E7AF
:102BF0000A2003F0C1FB2421412000F04DF84120C0
:102C000000F02DF8242801D00420D6E70A2003F094
:102C1000B3FBC021422000F03FF8422000F01FF833
:102C2000C02801D00520C8E70A2003F0A5FB002139
:102C30002A2000F049FE0A2003F09EFB00213420E8
:102C400000F042FE0A2003F097FB062203210E202B
:102C500000F09AFE642003F08FFB0020ADE770B512
:102C600004462146322000F02FFE0A2003F084FBA8
:102C70008021342000F028FE0A2003F07DFB35205F
:102C800000F0D0FD05460021342000F01DFE0A2092
:102C900003F072FB284670BD70B504460D46002156
:102CA0002A2000F011FE022003F066FB21462920B5
:102CB00000F00AFE022003F05FFB2946642000F0CA
:102CC00003FE022003F058FB81212A2000F0FCFDC6
:102CD0000A2003F051FB70BD40B52DED048B002C94
:102CE00045DA002D43DA94FBF5F63046FDF702FC99
:102CF00041EC190BB0EE490AF0EE690A03F0F8F95D
:102D0000B0EE408AF0EE608A9FED860B53EC102BFC
:102D100051EC180BFDF738FC14D89FED840A844859
:102D200080ED000A9FED830A834880ED000A9FED45
:102D3000830A834880ED000A9FED820A824880ED75
:102D4000000AEBE09FED810A794880ED000A9FEDD3
:102D5000800A794880ED000A9FED7E0A784880ED70
:102D6000000A9FED7D0A784880ED000AD6E0002C2D
:102D700045DA002D43DD94FBF5F63046FDF7BAFB4E
:102D800041EC190BB0EE490AF0EE690A03F0B0F914
:102D9000B0EE408AF0EE608A9FED620B53EC102B90
:102DA00051EC180BFDF7F0FB14D89FED6C0A60484E
:102DB00080ED000A9FED5F0A5F4880ED000A9FEDFD
:102DC000680A5F4880ED000A9FED660A5E4880ED64
:102DD000000AA3E09FED610A554880ED000A9FEDCF
:102DE000620A554880ED000A9FED600A544880ED64
:102DF000000A9FED5F0A544880ED000A8EE0002C27
:102E000045DD002D43DD94FBF5F63046FDF772FB02
:102E100041EC190BB0EE490AF0EE690A03F068F9CB
:102E2000B0EE408AF0EE608A9FED3E0B53EC102B23
:102E300051EC180BFDF7A8FB14D89FED4E0A3C4847
:102E400080ED000A9FED460A3B4880ED000A9FEDA9
:102E5000390A3B4880ED000A9FED340A3A4880ED7C
:102E6000000A5BE09FED440A314880ED000A9FEDC7
:102E70003F0A314880ED000A9FED3B0A304880ED63
:102E8000000A9FED3D0A304880ED000A46E0002C24
:102E900044DD002D42DA94FBF5F63046FDF72AFBBF
:102EA00041EC190BB0EE490AF0EE690A03F020F983
:102EB000B0EE408AF0EE608A9FED1A0B53EC102BB7
:102EC00051EC180BFDF760FB14D89FED2C0A184845
:102ED00080ED000A9FED2A0A174880ED000A9FED59
:102EE000150A174880ED000A9FED260A164880ED66
:102EF000000A13E09FED210A0D4880ED000A9FEDC6
:102F0000150A0D4880ED000A9FED1F0A0C4880ED60
:102F1000000A9FED1E0A0C4880ED000ABDEC048BF0
:102F200040BD0000000000000000F03F0AD7A3BB36
:102F3000D4000020A8C64BBED8000020BE9F7A3F18
:102F4000DC0000204ED111BCE00000206F1203BC59
:102F50007B140EBFE17A543F6F1203BB0AD7A33B29
:102F6000355E7ABFA69B443C68910DBFE17A54BFA1
:102F700099BB16BB52499D3A99BB163B0AD7233BD6
:102F8000355E7A3F6F12033C295C0FBFBC74933BE4
:102F90002DE9F05F2DED0C8B05460F461646984641
:102FA000DDE916949DED188ADDE919AB9FEDB40AB1
:102FB000F0EE408A9FEDB20AB0EE409A9FEDB00A63
:102FC000F0EE409ADDE91B01401A40B2AD490870AD
:102FD000B9F1110F75D00ADCB9F10B0F72D2DFE82D
:102FE00009F0DC2126ED2B3547ED303E5000B9F1DC
:102FF000810F68D00CDCB9F1400F4BD0B9F1410F13
:1030000062D0B9F1420F75D0B9F1800F5AD14DE0BD
:10301000B9F1820F6FD0B9F5807F6DD0B9F5806FAF
:10302000F4D1B0E0B7EE000AF0EE408AC7E0BFEEA0
:10303000000AF0EE408AC2E0BFEE000AB0EE409A0D
:10304000BDE0B7EE000AB0EE409AB8E0BEEE000A6E
:10305000B0EE409AB6EE000AF0EE408AAFE0B6EE6F
:10306000000AB0EE409AB6EE000AF0EE408AA6E002
:10307000BEEE000AB0EE409ABEEE000AF0EE408AC4
:103080009DE0B6EE000AB0EE409ABEEE000AF0EE09
:10309000408A94E0604200EE100AB8EEC00AF6EEF4
:1030A000000A20EE200AF0EE409A88E000EE104A76
:1030B000B8EEC00AF6EE000A20EE200AF0EE409AC2
:1030C0007DE065E07AE018E0B6EE000AF0EE408AB6
:1030D0002046FDF70FFA41EC1B0B9FED6B0B53ECF9
:1030E000102BFDF726F941EC1A0BFDF765FA09EEF6
:1030F000900A64E017E02CE041E0B6EE000AF0EE42
:10310000408A2046FDF7F6F941EC1B0B9FED600B62
:1031100053EC102BFDF70DF941EC1A0BFDF74CFAAF
:1031200009EE900A4BE0BEEE000AF0EE408A20461F
:10313000FDF7E0F941EC1B0B9FED530B53EC102B0B
:10314000FDF7F7F841EC1A0BFDF736FA09EE900A95
:1031500035E0BEEE000AF0EE408A2046FDF7CAF9DF
:1031600041EC1B0B9FED4A0B53EC102BFDF7E1F8E4
:1031700041EC1A0BFDF720FA09EE900A1FE001203E
:10318000454908721BE0022043490872487216E064
:10319000B7EE080AF0EE408A11E09FED390AF0EE32
:1031A000408A9FED370AB0EE409A9FED350AF0EE67
:1031B000409A012038490872487200E000BF00BF01
:1031C00000EE104AB8EEC00A28EE800A10EE101A7F
:1031D0000846FDF7C6F99FED310B53EC102BFDF7B8
:1031E0001AF941EC1B0B4046FDF795F953EC1B2BEC
:1031F000FCF7F8FFFDF79CF92749C88000EE106A3C
:10320000B8EE400AF8EEC80A09EE200ABCEEC00A81
:1032100010EE100A8880CAF1000000EBC0003844AC
:10322000488000EE105AB8EE400AF0EE080A09EEA7
:10323000A00A0BEBCB0000EE900AF8EEE00A30EEAD
:10324000200ABCEEC00A10EE100A0880084640882A
:1032500040F29461884202DB08460F4948800E48DC
:103260004088B0F5B67F03DC4FF4B6700A49488059
:10327000044890F90000BDEC0C8BBDE8F09F000005
:1032800000000000DC010020000000000000E0BFA2
:10329000000000000000E03F340B00209A9999994B
:1032A0009999E93F1CB50121202000F045FF01213B
:1032B000102000F041FF0121402000F03DFF802060
:1032C000009001208DF8040000208DF806000320F6
:1032D0008DF8050069461948FEF75CFC4FF4804004
:1032E000009001208DF8040000208DF806000320D6
:1032F0008DF8050069461248FEF74CFC4FF400506B
:10330000009002208DF8040000208DF806000320B4
:103310008DF8050069460B48FEF73CFC4FF4005160
:103320000848FEF7ADFC80210448FEF7A9FC4FF4E5
:1033300080410348FEF7A4FC1CBD000000100240C1
:103340000014024000180240002101607047000094
:10335000F8B504460D4616461F4600EE104AB8EE74
:10336000C00A684880ED000A674890ED000A654889
:1033700080ED010A00EE105AB8EEC00A634880EDF5
:10338000000A634890ED000A604880ED010A00EEF3
:10339000106AB8EEC00A5F4880ED000A5E4890ED02
:1033A000000A5C4880ED010A00EE107AB8EEC00A0F
:1033B0005A4880ED000A5A4890ED000A574880EDBF
:1033C000010A504800F0E4FC504800F0E1FC51488C
:1033D00000F0DEFC514800F0DBFC4A4890ED0E0A9C
:1033E000DFED500AB4EEE00AF1EE10FA03DB9FEDD8
:1033F0004D0A80ED0E0A434890ED0E0ADFED4A0AB1
:10340000B4EEE00AF1EE10FA03D89FED470A80ED22
:103410000E0A3E4890ED0E0ADFED420AB4EEE00AD5
:10342000F1EE10FA03DB9FED3F0A80ED0E0A3748FC
:1034300090ED0E0ADFED3C0AB4EEE00AF1EE10FA70
:1034400003D89FED390A80ED0E0A324890ED0E0A3E
:10345000DFED340AB4EEE00AF1EE10FA03DB9FED83
:10346000310A80ED0E0A2B4890ED0E0ADFED2E0A90
:10347000B4EEE00AF1EE10FA03D89FED2B0A80EDCE
:103480000E0A264890ED0E0ADFED260AB4EEE00A99
:10349000F1EE10FA03DB9FED230A80ED0E0A1F48C0
:1034A00090ED0E0ADFED210AB4EEE00AF1EE10FA1B
:1034B00003D89FED1E0A80ED0E0A184890ED0E0A03
:1034C000BDEEC00A10EE100A00B20090114890ED57
:1034D0000E0ABDEEC00A10EE100A03B20B4890EDC2
:1034E0000E0ABDEEC00A10EE100A02B2054890EDB9
:1034F0000E0ABDEEC00A10EE100A01B20C4801F02F
:103500004DFAF8BD880300208C000020DC03002069
:10351000900000203004002094000020840400204B
:103520009800002000409C4500409CC5005043C7C7
:10353000006400402DE9F04304460D46DDE90767CD
:1035400000200021012041E0DFF8D8C13CF81080C4
:10355000A0F1010CDFF8CC9129F81C8009F1160CC0
:103560003CF81090A0F1010CDFF8B88108F11608C2
:1035700028F81C9008F1160C3CF81090A0F1010CF2
:1035800008F1160828F81C9008F1160C3CF8109069
:10359000A0F1010C08F1160828F81C9008F1160C8F
:1035A0003CF81090A0F1010C08F1160828F81C90C6
:1035B00008F1160C3CF81090A0F1010C08F1160867
:1035C00028F81C9000F1010C0CF0FF000A28BBDB6E
:1035D000DFF850C1ACF81240ACF82850ACF83E20EF
:1035E000ACF85430ACF86A60ACF88070002008E0A9
:1035F000DFF830C13CF910C0614400F1010C0CF05F
:10360000FF000A28F4DB4FF00A0C91FBFCFC0FFAD8
:103610008CFCDFF81081A8F814C0002100200AE01B
:10362000DFF800C10CF1160C3CF910C0614400F148
:10363000010C0CF0FF000A28F2DB4FF00A0C91FBA2
:10364000FCFC0FFA8CF8DFF8DCC0ACF82A80002113
:1036500000200AE0DFF8CCC00CF12C0C3CF910C0C3
:10366000614400F1010C0CF0FF000A28F2DB4FF07E
:103670000A0C91FBFCFC0FFA8CF8DFF8A8C0ACF840
:103680004080002100200AE0DFF898C00CF1420CD5
:103690003CF910C0614400F1010C0CF0FF000A2855
:1036A000F2DB4FF00A0C91FBFCFC0FFA8CF8DFF810
:1036B00074C0ACF85680002100200AE0DFF864C036
:1036C0000CF1580C3CF910C0614400F1010C0CF0F5
:1036D000FF000A28F2DB4FF00A0C91FBFCFC0FFA0A
:1036E0008CF8DFF840C0ACF86C80002100200AE0C4
:1036F000DFF830C00CF16E0C3CF910C0614400F1F1
:10370000010C0CF0FF000A28F2DB4FF00A0C91FBD1
:10371000FCFC0FFA8CF8DFF80CC0ACF88280BDE836
:10372000F0830000A808002010B588B04020069063
:1037300001208DF81C0000208DF81E008DF81F0060
:1037400003208DF81D0006A91348FEF723FAFFF7A2
:103750000DFA0024182211496846FCF731FD642057
:1037600002F00AFE752000F05DF80D49087000BFF8
:103770000CE06A4602EB440251781DF8140000F098
:10378000A3F8012002F0F8FD601CC4B20C2CF0DBA1
:10379000002008B010BD000000140240086C0008B2
:1037A0003D01002000B585B00121880300F0F4FC44
:1037B0000121102000F0C0FC0220039000208DF8B1
:1037C00010008DF8120001208DF8130002208DF8F2
:1037D000110003A91248FEF7DDF90121042001F0D0
:1037E0002DF80220009000208DF804000C208DF8A8
:1037F000050001208DF806006846FEF743F9072012
:103800008DF8080002208DF8090000208DF80A00CC
:1038100001208DF80B0002A800F074FA05B000BD7D
:103820000010024010B5044640210D48FEF726FA6C
:1038300044F080000B4908700846007800F0A8FFAB
:10384000094908700748007800F0A2FF064908708F
:1038500040210348FEF714FA0348007810BD000029
:1038600000140240400100203F0100202DE9F041FA
:1038700005460E461746002440211048FEF7FEF983
:1038800045F080000E490870084600780D49087020
:103890000B48007800F07CFF00BF05E00949085D97
:1038A00000F076FF3055641CBC42F7DB4021034832
:1038B000FEF7E6F90020BDE8F081000000140240A8
:1038C000410100204201002070B505460C46402110
:1038D0000A48FEF7D3F905F07F0009490870084649
:1038E000007800F055FF06480470007800F050FFA3
:1038F00040210248FEF7C4F9002070BD00140240C8
:103900003E0100202DE9FC4704460D4616461F46A1
:10391000DDE90A89002019490870FEF72DFF1848D3
:10392000B0F90C001649B1F90A10DFF854C0CDE91E
:103930000010BCF90830BCF90420BCF90210BCF935
:103940000000FFF7F7FD0F48808A20800D48408D6A
:1039500028800C48B0F8400030800A48B0F8560083
:1039600038800848B0F86C00A8F800000548B0F8A6
:103970008200A9F80000BDE8FC8700003C0100209F
:1039800080080020A808002070B504460E461546A1
:1039900021462820FFF798FF022002F0EDFC0A21C3
:1039A0002920FFF791FF022002F0E6FC01216420AC
:1039B000FFF78AFF022002F0DFFC44F0800125209F
:1039C000FFF782FF022002F0D7FC31462620FFF7E6
:1039D0007BFF022002F0D0FC03213420FFF774FFAC
:1039E000022002F0C9FC03216720FFF76DFF0220CF
:1039F00002F0C2FC81212A20FFF766FF062002F0B8
:103A0000BBFC45F080012720FFF75EFF072002F096
:103A1000B3FC70BD00BFFEE770B504460D46FEF76F
:103A20003FFA002878D0287800F0100040B14FF419
:103A30002570664908804FF448706549088007E0A2
:103A40004FF4FA70614908804FF42F706049088084
:103A5000287800F0010090B15E48016988475B4812
:103A6000008800EE900AF8EE600A20EE200ABDEE13
:103A7000C00A10EE100A00B2574908801AE02878F0
:103A800000F0020098B15348016988474F48008808
:103A9000404200EE900AF8EEE00A20EE200ABDEE69
:103AA000C00A10EE100A00B24B49088002E0002064
:103AB00049490880287800F0040098B14748016916
:103AC000884743480088404200EE900AF8EEE00A3A
:103AD00020EE200ABDEEC00A10EE100A00B23E49E8
:103AE000488019E0287800F0080090B13B4801694F
:103AF00088473748008800EE900AF8EE600A20EE0A
:103B0000200ABDEEC00A10EE100A00B23249488009
:103B100002E0002030494880FEF7C2F902283CD17B
:103B2000B4F9000010F1960F03DC6FF095002080CF
:103B300005E0B4F90000962801DB96202080B4F956
:103B4000020010F1960F03DC6FF09500608005E035
:103B5000B4F90200962801DB96206080204890EDA1
:103B6000000AB4F9020000EE900AF8EEE00A9FEDB8
:103B70001D1A00EEC10A1A4880ED000A90ED010AF4
:103B8000B4F9000000EE900AF8EEE00A9FED151A75
:103B900000EE810A124880ED010AB4F9020000EE3D
:103BA000100AB8EEC00A0E4880ED040AB4F900000D
:103BB00000EE100AB8EEC00A094880ED050AFEF7CB
:103BC00079F9204600F010F870BD0000AC06002026
:103BD000AE0600208406002030060020600600208B
:103BE000580B0020CDCCCC3C70B5044600253F4896
:103BF000007820B1012812D0022873D14FE0E0797B
:103C000060B9607A012809D1002000F04BFE3848E5
:103C100081698847012035490870002562E0607A93
:103C2000012802D1681C05B200E00025322D0FDD0D
:103C300000202E4908704FF47A702E490860091D43
:103C400008602B4881698847002000F02BFE25E0A2
:103C5000274801698847DFED280A9FED281A41EEC1
:103C6000000ABCEEE00A10EE100A22490860204863
:103C700001698847DFED200A9FED201A41EE000A16
:103C8000BCEEE00A10EE100A1A49091D0860184837
:103C9000016A884710B102201449087022E0607A56
:103CA000012802D1681C05B200E00025322D0FDD8D
:103CB00000200E4908704FF47A700E490860091D03
:103CC00008600B4881698847002000F0EBFD08E0A0
:103CD000207A012802D100F0E5FD02E0002000F08A
:103CE000E1FD00BF00BF607AE07170BD38060020C2
:103CF0003C060020340C004000007A4400001644CA
:103D00007047000070B5002100230F22C4781CB357
:103D1000174C246804F4E064C4F5E064C4F307219C
:103D2000C1F10404E3B20A4144789C40E1B28478D2
:103D3000144021430C07210E0E4C05786155047880
:103D400004F01F050124AC4005786D11AD0005F1AC
:103D5000E025C5F8004109E0047804F01F050124BE
:103D6000AC40054D0678761145F8264070BD000040
:103D70000CED00E000E400E080E100E002490143D6
:103D8000024A1160704700000000FA050CED00E0E7
:103D900090ED030A80ED020A90ED000AD0ED010AD1
:103DA00030EE600A80ED030A90ED040AD0ED030ABC
:103DB00030EE200A80ED040A90ED060AD0ED0C0AE0
:103DC000F1EE600AB4EEE00AF1EE10FA06D890EDDA
:103DD0000C0AB1EE400A80ED060A0CE090ED060AEE
:103DE000D0ED0C0AB4EEE00AF1EE10FA03DB90ED30
:103DF0000C0A80ED060A90ED050AD0ED030A20EECC
:103E0000200AD0ED060A90ED041A00EE810AD0EDEA
:103E1000030A90ED021A70EEC10A90ED071A01EE46
:103E2000200A80ED0E0A90ED0E0AD0ED0F0AF1EE99
:103E3000600AB4EEE00AF1EE10FA06D890ED0F0A2F
:103E4000B1EE400A80ED0E0A0CE090ED0E0AD0EDC6
:103E50000F0AB4EEE00AF1EE10FA03DB90ED0F0A60
:103E600080ED0E0A704700009FED080A80ED020AFF
:103E70009FED060A80ED030A9FED040A80ED040A17
:103E80009FED020A80ED0E0A70470000000000005E
:103E900000B58BB00121084600F04EF90121082041
:103EA00000F05AF90121080400F076F90720099082
:103EB00002208DF8280003208DF8290009A93B482D
:103EC000FDF768FE022200213848FDF7ABFE022212
:103ED00001213648FDF7A6FE032202213348FDF7F3
:103EE000A1FE5320ADF818000020ADF81A0044F6EA
:103EF000206007900020ADF8200006A92C4801F0B2
:103F000005F8A720ADF818000020ADF81A004FF40E
:103F10007A7007900020ADF8200006A9254800F02F
:103F2000F5FF7020ADF804000120ADF80600002078
:103F3000ADF808004FF47A7003900220ADF810003D
:103F40000020ADF81200ADF814004FF48070ADF809
:103F5000160001A9164800F031FF01A9144800F02D
:103F600075FF0020039001A9124800F027FF0821E7
:103F70000F4800F061FF08210D4800F0B9FF08214B
:103F80000C4800F059FF0121094800F0DFFE012133
:103F9000084800F0DBFE0121054800F0E9FE0121A0
:103FA000044800F0E5FE0BB000BD00000000024038
:103FB000000C0040004001407047000071EE401AC4
:103FC0004C4991ED002A71EE821AC1ED001AD1ED33
:103FD000001A9FED492AF4EEC21AF1EE10FA04DD40
:103FE000DFED451AC1ED001A0DE04249D1ED001A8E
:103FF0009FED422AF4EEC21AF1EE10FA03D2DFED81
:104000003F1AC1ED001A3E49D1ED001A71EE611A56
:104010003C49C1ED001A71EE401A3B4991ED002A6E
:10402000B1EE422A61EE821A384991ED002A3149F7
:10403000D1ED002A42EE221A354991ED002A31498C
:10404000D1ED002A42EE221A3249C1ED001A2C4964
:1040500081ED001A2F49D1ED001AF1EE611AB1EE8F
:10406000022A40EE821A2C4991ED002A61EE821A52
:104070002A49C1ED001A2A49D1ED001A70EEE11A61
:10408000284991ED002A61EE821A2749C1ED001AF4
:104090002249D1ED001A244991ED002A71EE821ACD
:1040A0002249C1ED001AD1ED001A9FED212AF4EE4C
:1040B000C21AF1EE10FA03DBDFED1D1AC1ED001A92
:1040C0001A49D1ED001A9FED1B2AF4EEC21AF1EE47
:1040D00010FA03D8DFED171AC1ED001A1049C1ED2F
:1040E000000A1249D1ED001AFDEEE11A11EE901A04
:1040F00008B270470407002000007A4400007AC428
:10410000080700200C0700201407002018070020D3
:104110001C070020100700202C0700202407002087
:10412000340700203007002028070020380700202F
:1041300000A08C4500A08CC529B1064A1268024334
:10414000044B1A6004E0034A12688243014B1A6070
:10415000704700003038024029B1064A1268024315
:10416000044B1A6004E0034A12688243014B1A6050
:10417000704700004038024029B1064A12680243E5
:10418000044B1A6004E0034A12688243014B1A6030
:10419000704700002038024029B1064A12680243E5
:1041A000044B1A6004E0034A12688243014B1A6010
:1041B000704700004438024029B1064A12680243A1
:1041C000044B1A6004E0034A12688243014B1A60F0
:1041D0007047000024380240F0B50021002200247E
:1041E000022500260223324F3F6807F00C0121B15F
:1041F000042905D0082937D105E02E4F076036E0A5
:104200002D4F076033E02A4F3F1F3F68C7F38056AA
:10421000274F3F1F3F6807F03F036EB1264FB7FBA4
:10422000F3F7DFF88CC0ACF1040CDCF800C0CCF381
:10423000881C07FB0CF40CE01E4FB7FBF3F7DFF80C
:1042400070C0ACF1040CDCF800C0CCF3881C07FB98
:104250000CF4174F3F1F3F68C7F301477F1C7D00D9
:10426000B4FBF5F7076002E0124F076000BF00BF24
:104270000F4F3F6807F0F0010909104F7A5C07689B
:10428000D74047600A4F3F6807F4E051890A0B4F57
:104290007A5C4768D7408760054F3F6807F4604104
:1042A000490B064F7A5C4768D740C760F0BD0000F5
:1042B000083802400024F400001BB700B8000020BA
:1042C0000168491C0160D0E9001291420ADA90EDC0
:1042D000000AF8EEC00A90ED010AB8EEC01A80EEAE
:1042E000810A7047B7EE000AFBE770470146D1E943
:1042F0000002904201DA002070470120FCE7002113
:1043000001607047016070474160704710B5044616
:10431000FDF7C6FDB8B3B4F90200A0F5806000EE69
:10432000100AB8EEC00AF7EE000A20EE200ABDEE31
:10433000C00A10EE100A00B268490880B4F9000003
:10434000A0F5806000EE100AB8EEC00AF7EE000A91
:1043500020EE200ABDEEC00A10EE100A00B248801E
:10436000B4F90400A0F5806000EE100AB8EEC00AAF
:10437000F7EE000A20EE200ABDEEC00A10EE100A89
:1043800000B2C88004E0FFE700205449088048805C
:10439000FDF786FD022842D1514890ED000AB4F99C
:1043A0000600A0F5806000EE900AF8EEE00A9FEDAE
:1043B0004D1A00EE810A4A4880ED000A4A48007A08
:1043C00002286DD0494890ED100ADFED490AB4EE9D
:1043D000E00AF1EE10FA23DDB4F90400A0F58060E4
:1043E00000EE100AB8EEC00ADFED3E0A20EE200A09
:1043F000B5EEC00AF1EE10FA52DD394890ED010A2F
:10440000B4F90400A0F5806000EE900AF8EEE00A2E
:104410009FED341A00EE810A314880ED010A3FE039
:10442000324890ED100ADFED330AB4EEE00AF1EE07
:1044300010FA23D2B4F90400A0F5806000EE100A4F
:10444000B8EEC00ADFED270A20EE200AB5EEC00A5A
:10445000F1EE10FA24D2224890ED010AB4F90400DA
:10446000A0F5806000EE900AF8EEE00A9FED1D1ABC
:1044700000EE810A1A4880ED010A11E0184890ED1B
:10448000010AB4F90400A0F5806000EE900AF8EE8D
:10449000E00A9FED141A00EE810A114880ED010A2E
:1044A000B4F90600A0F5806000EE100AB8EEC00A6C
:1044B0000B4880ED040AB4F90400A0F5806000EE1A
:1044C000100AB8EEC00A064880ED050AFDF7F2FCB6
:1044D000217A094800F086F810BD0000300600205F
:1044E000580B00206F12833B400B0020840A0020F1
:1044F00000007042000070C2700B002010B504462E
:1045000004B910BD2078617840EA0120C0F30A00A8
:10451000334908806078C010A17840EA4110C0F3A8
:104520000A002F494880A0788011E17840EA810094
:10453000217940EA8120C0F30A0029498880207946
:104540004010617940EAC110C0F30A002449C880D4
:1045500060790011800808726079C0F30110487218
:10456000A079E17940EA012000B21D494881207A12
:10457000617A40EA012001B219488181A07AE17A8A
:1045800040EA012001B21648C181217B8174617B20
:10459000C174A07B12498882207C617C40EA0120A2
:1045A000C0F30A000E49C882084600F067F9FDF71B
:1045B00073FB012804D002280DD003280CD103E09E
:1045C0000748FFF7A3FE07E005491431A1F10A00EF
:1045D000FFF722FA00E000BF00BF00BF91E7000034
:1045E000400B002070B504460D4629462046FDF7D5
:1045F00019FC3748007820B101280FD0022865D176
:1046000046E060780D2808D1002000F04BF93148D1
:104610008169884701202E49087057E060780D288D
:104620000FD1002000F03EF94FF47A702A4908605B
:10463000091D0860002026490870264881698847BE
:1046400025E0244801698847DFED240A9FED241AFC
:1046500041EE000ABCEEE00A10EE100A1E490860A6
:104660001C4801698847DFED1D0A9FED1D1A41EEC8
:10467000000ABCEEE00A10EE100A1749091D086096
:104680001448016A884710B10220114908701DE0E2
:1046900060780D280FD100200D4908704FF47A7012
:1046A0000D490860091D08600A4881698847002093
:1046B00000F0F8F809E02078022803D1012000F08A
:1046C000F1F802E0002000F0EDF800BF00BF70BD7F
:1046D000380600203C060020340C004000007A44DC
:1046E0000000164400B587B001212020FFF724FD0B
:1046F00001210805FFF750FD4FF46070059002207E
:104700008DF8180000208DF81A0003208DF819008C
:1047100000208DF81B0005A91B48FDF73BFA052278
:1047200007211948FDF77EFA052208211648FDF7F2
:1047300079FA052209211448FDF774FA0020ADF832
:1047400000004FF48270ADF802000020ADF80400C4
:10475000ADF80600ADF808004FF40070ADF80A009F
:104760003820ADF80C000020ADF80E000A20ADF89E
:1047700010006946054800F041F80121034800F0A7
:1047800023F807B000BD00000014024000500140B3
:1047900010B5044600BF02210A4800F021F80028A5
:1047A000F9D02146074800F027F800BF012105484D
:1047B00000F016F80028F9D0024800F01AF8C0B24C
:1047C00010BD00000050014021B1028842F04002BB
:1047D000028004E002884FF6BF731A4002807047DF
:1047E0000246002013890B400BB1012000E000209D
:1047F00070470146888970478181704710B5002253
:10480000028802F441520B884C8823438C8823434E
:10481000CC8823430C8923434C8923438C8923432D
:10482000CC8923431A430280838B4FF2FF742340C9
:1048300083830B8A038210BD7047000030B50022CD
:104840008B071C0F0F2303FA04F20B4B8C1053F849
:1048500024309343084C8D1044F8253023468C10A7
:1048600053F824308C07240F00FA04F42343024C3D
:104870008D1044F8253030BD08380140417A0129B7
:1048800002D1074A11700AE0417A032902D1044A91
:10489000117004E0417A022901D1014A1170704778
:1048A0003A060020014908707047000039060020D0
:1048B0000CB50020019000903448006840F480302E
:1048C0003249086000BF3148006800F400300090B1
:1048D0000198401C0190009818B90198B0F5A04FBC
:1048E000F1D12A48006800F4003010B10120009096
:1048F00001E0002000900098012846D12348403074
:10490000006840F08050214940310860204800682C
:1049100040F440401E4908601C48083000681B49AC
:10492000083108600846006840F400400860084606
:10493000006840F4A05008601648091F0860081F6E
:10494000006840F08070091F086000BF0F480068D1
:1049500000F000700028F9D040F205600E490860B0
:104960000A480830006820F0030008490831086050
:104970000846006840F00200086000BF03480830A5
:10498000006800F00C000828F8D10CBD0038024087
:10499000007000400C544007003C02402DE9F041FB
:1049A00086B080460C4615461E460C9F4FF400709C
:1049B000019000208DF80C008DF80D0008208DF876
:1049C0000E00200A8DF80F008DF81040290A8DF88E
:1049D00011108DF81250310A8DF813108DF81460F3
:1049E000390A8DF815108DF8167001A94046FCF7AC
:1049F000E8FD06B0BDE8F081F0B585B004460D468F
:104A000016461F4640F2FF10009000208DF8080067
:104A10008DF8090008208DF80A00200A8DF80B0097
:104A2000E1B28DF80C10290A8DF80D10E9B28DF85D
:104A30000E10310A8DF80F10F1B28DF81010390AEE
:104A40008DF81110F9B28DF8121069460248FCF782
:104A5000B8FD05B0F0BD00000064004070B504462C
:104A60000D4600EE104AB8EEC00A2C4880ED000A50
:104A70002B4890ED000A294880ED010A00EE105AFB
:104A8000B8EEC00A274880ED000A274890ED000ADA
:104A9000244880ED010A2148FFF77AF92148FFF701
:104AA00077F91E4890ED0E0ADFED200AB4EEE00A19
:104AB000F1EE10FA03DB9FED1D0A80ED0E0A174898
:104AC00090ED0E0ADFED1A0AB4EEE00AF1EE10FAEC
:104AD00003D89FED170A80ED0E0A124890ED0E0ADA
:104AE000DFED120AB4EEE00AF1EE10FA03DB9FEDFF
:104AF0000F0A80ED0E0A0B4890ED0E0ADFED0C0A4E
:104B0000B4EEE00AF1EE10FA03D89FED090A80ED49
:104B10000E0A012001F030FC70BD0000D804002016
:104B2000B40000202C050020A000002000007A45E1
:104B300000007AC510B51548006840F470001349AC
:104B400008601348006840F0010011490860002027
:104B50000F49083108600E4800680E4908400C49AA
:104B600008600D48091D0860081F006820F48020B7
:104B7000091F0860002006490C310860FFF798FE05
:104B80004FF0006001498039086010BD88ED00E0F9
:104B900000380240FFFFF6FE1030002410B501215E
:104BA000880700F0F1F838B10121880700F0DDF83E
:104BB0000121880700F0D6F810BD00001FB50121C3
:104BC0001020FFF7C9FA36208DF8000001208DF87B
:104BD000010000208DF8020001208DF803006846D6
:104BE000FFF790F840F2E730029042F2CF00ADF8C4
:104BF00004000020ADF80600ADF80C0001A9024841
:104C000000F084F91FBD00000010004010B5012124
:104C1000394800F0B9F800286DD00121364800F07D
:104C2000A4F80121344800F09DF834480068401C85
:104C300032490860324890ED0E0ADFED320AB4EED8
:104C4000E00AF1EE10FA08DC90ED0E0ADFED2E0A14
:104C5000B4EEE00AF1EE10FA16D22C4890ED000AFC
:104C6000F3EE040AB4EEE00AF1EE10FA0CD290ED85
:104C7000000AFBEE040AB4EEE00AF1EE10FA03DDDE
:104C80004FF4FA70224908601C480068092813DDB7
:104C900000201A4908601E480068B0F5FA7F02D06B
:104CA0001C481B4908601C480068042804DA1A489C
:104CB0000068401C184908601748006804281AD189
:104CC000164890ED000AFBEE040AB4EEE00AF1EE9D
:104CD00010FA0CDD90ED000AF3EE040AB4EEE00ADF
:104CE000F1EE10FA03D20E480E49086003E04FF4CB
:104CF0007A700C49086010BD001000404000002090
:104D00008005002000C0734500C073C5A4000020CA
:104D1000200000203CF6FFFF3C000020A000002007
:104D200024FAFFFF3400002010B50121064800F0EE
:104D30001FF801221146044800F037F8012102480B
:104D400000F010F810BD00000010004021B10288F2
:104D500042F08002028004E002884FF67F731A401E
:104D600002807047CA4302827047CA43028270477A
:104D700021B1028842F00102028004E002884FF66D
:104D8000FE731A400280704730B5024600200023AF
:104D90000024158A05EA0103958905EA010413B187
:104DA0000CB1012000E0002030BD1AB183890B4313
:104DB000838102E083898B438381704770B500242F
:104DC00000220023058C4FF6FE7635400584028CC8
:104DD0008388048B4FF68F752C40B51E2C400D88B0
:104DE0002C43751E2A408D892A434D882A43104D35
:104DF000A84202D00F4DA84213D14FF6F7752A40B2
:104E0000CD892A434FF6FB752A408D882A434FF6F9
:104E1000FF652B404FF6FF552B400D8A2B434D8AE3
:104E20002B43838004838D684563028470BD00003A
:104E300000000140000401400A460021018B4FF6AA
:104E4000F7731940114301837047000070B50024C7
:104E500000220023058C4FF6EF7635400584028C46
:104E60008388048B48F6FF752C404FF6FF452C4095
:104E70000D884FF6FF7606EA05252C434FF6DF75C1
:104E80002A408D8906EA05152A434D8806EA05154C
:104E90002A43154DA84202D0144DA8421DD14FF609
:104EA0007F752A40CD894FF6FF7606EA05152A431D
:104EB0004FF6BF752A408D8806EA05152A434FF63E
:104EC000FF352B404FF2FF752B400D8A06EA850512
:104ED0002B434D8A06EA85052B43838004838D6826
:104EE0008563028470BD00000000014000040140A1
:104EF0000A460021018B4FF2FF7319404FF6FF73F2
:104F000003EA02231943018370470000002202884C
:104F1000184B98420ED0184B98420BD0B0F1804FEE
:104F200008D0164B984205D0154B984202D0154B2D
:104F3000984204D14FF68F731A404B881A43124B94
:104F4000984207D0114B984204D04FF6FF431A40C5
:104F50000B891A4302804B68C3620B880385054B9B
:104F6000984202D0044B984201D18B7A03860123E8
:104F700083827047000001400004014000040040AB
:104F800000080040000C00400010004000140040E9
:104F900000B597B001210220FFF7CEF80121880566
:104FA000FFF7CAF801211020FFF7F6F80722114693
:104FB0004248FCF737FE15A8FCF764FE80201590E8
:104FC00002208DF8580000208DF8590001208DF83E
:104FD0005B0015A93948FCF7DDFD394800F076FA89
:104FE00011A800F08CFB374811900020ADF8480064
:104FF000ADF84A004FF48060ADF84C000420ADF8E5
:105000004E000020ADF8500011A92D4800F008FB1B
:10501000012240212A4800F050FA2B48FCF778FB87
:1050200001A8FCF773FC4FF0006001902448001DBC
:10503000029026480390002004901E200590002036
:1050400006904FF4806007900020089009904FF47C
:1050500080700A9000020B9000200C900D900E9032
:105060000F9001A91848FCF725FC002217491E31B2
:105070001548FCF704FC01211348FCF7F5FB01215E
:105080001148FCF73AFB25208DF8400000208DF8F0
:1050900041008DF8420001208DF8430010A8FEF772
:1050A00031FE012240F22441054800F093FA01212B
:1050B000034800F0F6F917B000BD000000040240FC
:1050C00000100140A08601004064024094070020C7
:1050D00010B540F224412E4800F052FA002855D075
:1050E0002B4800882A4880882A48FCF7D8FB30BB28
:1050F00000212848FCF701FB2648FCF7CCFBC0F157
:105100001E00254908601E202249091D0860081F4D
:10511000006840F40020091F086001211D48FCF7C9
:10512000ECFA1D480068122830D11C48FFF7E6F958
:105130000020FCF7B7FD0446FEF706F926E0002143
:105140001448FCF7DAFA1348FCF7A5FBC0F11E007F
:10515000114908601E200F49091D0860081F0068DA
:1051600020F40020091F086001210A48FCF7C5FA55
:1051700009480068122809D108481E30FFF7BEF917
:105180000020FCF78FFD0446FEF7DEF810BD00009E
:1051900000100140406402404400002094070020B9
:1051A00000B587B001210820FEF7C6FF01214804A1
:1051B000FEF7D2FF072205212248FCF733FD072224
:1051C00006212048FCF72EFD6020059002208DF876
:1051D00018008DF8190000208DF81A008DF81B00BA
:1051E00005A91848FCF7D6FC4FF4E13001900020E7
:1051F000ADF80800ADF80A00ADF80C00ADF81000ED
:105200000C20ADF80E0001A90F4800F009FA0121A9
:105210000D4800F046F9012240F225510A4800F0FD
:10522000D9F926208DF8000002208DF801008DF8B4
:10523000020001208DF803006846FEF763FD07B009
:1052400000BD0000000C02400044004010B53D4885
:10525000008800F0080020B14FF458713A4800F07F
:1052600017F940F22551374800F08AF9002868D034
:10527000344800F03FFAC4B23448007848B9A52C4D
:1052800001D0002002E031480078401C2F4908700E
:1052900057E02E480078012809D10E2C01D00020BB
:1052A00002E02A480078401C2849087049E0274855
:1052B0000078022808D10CB1002002E023480078D1
:1052C000401C224908703CE020480078052805DA97
:1052D0001E480078401C1D49087032E01B480078C9
:1052E000052809D1022C01D0002002E017480078DF
:1052F000401C1649087024E014480078062809D19B
:10530000022C01D0002002E010480078401C0F4918
:10531000087016E00D480078062812DD0B4800786A
:10532000C01F0B490C5409480078401C07490870FD
:1053300008460078142804DD002008700120054983
:10534000087010BD0044004000480040AE0000203E
:1053500020080020AC00002000B587B00121082003
:10536000FEF7EAFE01218804FEF7F6FE0722082177
:105370002248FCF757FC072209212048FCF752FC81
:105380004FF44070059002208DF818008DF8190038
:1053900000208DF81A008DF81B0005A91748FCF7AE
:1053A000F9FB4FF4E13001900020ADF80800ADF8B2
:1053B0000A00ADF80C00ADF810000C20ADF80E009E
:1053C00001A90F4800F02CF901210D4800F069F8FF
:1053D000012240F225510A4800F0FCF827208DF800
:1053E000000003208DF801008DF8020001208DF8E7
:1053F00003006846FEF786FC07B000BD000C0240C3
:105400000048004010B51E48008800F0080020B198
:105410001B49091D0988C8B200BF1948008800F05F
:105420008000F0B116480C30008800F08000C0B158
:10543000144801780078401C124A10701248405CF1
:105440000F49091D088010460078104909788842E4
:1054500007D10B480C30008820F0800008490C313F
:1054600008800748008800F0200038B10448001D7B
:105470000088C4B22046FCF75BFA00BF10BD0000F4
:1054800000480040F8060020B90B0020F906002073
:1054900001F40072B2F5007F00D100BFCA43028060
:1054A000704721B1828942F40052828104E08289EE
:1054B0004DF6FF731A40828170471AB1838A0B43FD
:1054C000838202E0838A8B438382704710B504464F
:1054D0002548844208D101211020FEF76DFE0021ED
:1054E0001020FEF769FE3EE02048844209D10121E8
:1054F0004804FEF741FE00214FF40030FEF73CFE69
:1055000031E01B48844209D101218804FEF734FEB2
:1055100000214FF48020FEF72FFE24E0154884423E
:1055200009D10121C804FEF727FE00214FF4002015
:10553000FEF722FE17E01048844209D10121080538
:10554000FEF71AFE00214FF48010FEF715FE0AE068
:105550000A48844207D101212020FEF72DFE0021B8
:105560002020FEF729FE10BD00100140004400403D
:1055700000480040004C0040005000400014014032
:1055800070B50246002400230025002040F66A166C
:10559000B14200D100BFC1F3421501F01F03012643
:1055A00006FA03F3012D02D19689334006E0022D5D
:1055B00002D1168A334001E0968A33400C1201264C
:1055C00006FA04F41688344013B10CB1012000E04F
:1055D000002070BDF0B50346002400260025002001
:1055E00040F66A17B94200D100BF1846C1F3421411
:1055F00001F01F06012707FA06F5012C01D10C3036
:1056000004E0022C01D1103000E014301AB1076818
:105610002F43076002E00768AF430760F0BD00005A
:105620002DE9FF4705460E460024A14600BFA046CF
:10563000B08900B100BF2C8A24F44054F0880443A0
:105640002C82AC8941F20C608443B08831890843D4
:10565000718908430443AC81AC8A24F44074B08956
:105660000443AC826846FEF7B7FD2048854202D06D
:105670001F48854202D1DDF80C9001E0DDF808906A
:10568000A88900F4004040B109EBC90000EB091003
:1056900031684900B0FBF1F707E009EBC90000EB06
:1056A000091031688900B0FBF1F76420B7FBF0F016
:1056B00004012009642101FB1078A88900F400404E
:1056C00040B1322000EBC800B0FBF1F000F0070061
:1056D000044308E0322000EB08106421B0FBF1F035
:1056E00000F00F0004432C81BDE8FF87001001404B
:1056F0000014014001468888C0F3080070474FF449
:105700001651016000218180C18001810C214181FD
:1057100000218181704700BFFEE7000071EE401A52
:105720004B4991ED002A71EE821AC1ED001AD1EDBC
:10573000001A9FED482AF4EEC21AF1EE10FA04DDC9
:10574000DFED441AC1ED001A0DE04149D1ED001A18
:105750009FED412AF4EEC21AF1EE10FA03D2DFED0A
:105760003E1AC1ED001A3D49D1ED001A71EE611AE1
:105770003B49C1ED001A71EE401A3A4991ED002AF9
:1057800061EE821A384991ED002A3149D1ED002AA3
:1057900042EE221A354991ED002A3149D1ED002A15
:1057A00042EE221A3249C1ED001A2C4981ED001A4D
:1057B0002F49D1ED001AB1EE022A40EE821A2D498E
:1057C00091ED002A61EE821A2B49C1ED001A2B4996
:1057D000D1ED001A70EEE11A294991ED002A61EE2F
:1057E000821A2849C1ED001A2349D1ED001A254932
:1057F00091ED002A71EE821A2349C1ED001A1F496A
:10580000C1ED000A1A49D1ED001A9FED202AF4EEED
:10581000C21AF1EE10FA03DBDFED1C1AC1ED001A1B
:105820001349D1ED001A9FED1A2AF4EEC21AF1EED7
:1058300010FA03D8DFED161AC1ED001A0C49D1EDAC
:10584000001AFDEEE11A11EE901A08B2704700003E
:105850003C07002000007A4400007AC44007002082
:10586000440700204C070020500700205407002068
:1058700048070020640700205C0700206C07002018
:1058800068070020600700207007002000A08C45FA
:1058900000A08CC503B401984100009850EAC120D3
:1058A00018BF04204A0D18BF40F0010040F2FF72FB
:1058B000B2EB515F08BF40F00200012808BF05208D
:1058C00002B070470000000070B5C1482DED020B1A
:1058D0002DED0E8B82B0119D25F000449FEDBEDBB7
:1058E0009FEDBFEB84423EDBA4F140511098A1F143
:1058F0007F6108430FD0BC48844202DC28D1109855
:1059000030B39DED100B02B0BDEC0E8B02B0BDE8C4
:10591000704000F0B0BC9DED100B53EC1D2B51EC12
:10592000100BFAF706FD9DED100B41EC180B53EC34
:105930001E2B51EC100BFAF7FCFC53EC182BFAF76A
:1059400051FC41EC100B02B0BDEC0E8B02B070BDEF
:10595000012000F0D5FC02B0BDEC0E8B02B0BDE81A
:10596000704000F09DBCA1489FEDA18B844256DAA7
:105970009DED100BB4F1795F0ADA51EC100BFFF7D3
:1059800089FF042808BF00F09BFC9DED100BDAE7AF
:1059900053EC102B51EC100BFAF7CBFC41EC190B2C
:1059A00095480621B0EE490AF0EE690A784400F005
:1059B000E6FB53EC192B51EC100BFAF7BAFC41EC57
:1059C0001A0B8E48B0EE490AF0EE690A04217844B9
:1059D00000F0D5FB53EC192B51EC100BFAF7A9FC96
:1059E00053EC182BFAF7FEFB41EC100B51EC1A0BA1
:1059F00053EC102BFAF70FFDCDE900019DED000BE4
:105A000053EC102B9DED100B51EC100BFAF791FCA1
:105A10009DED101B53EC112BFAF7E4FBD2E09DED4A
:105A2000100B51EC100B00F0B5FC53EC182BFAF7EF
:105A30007DFC9FED730BCDE9000153EC102B9DED28
:105A4000000B51EC100BFAF774FC41EC190B6E488B
:105A50000621B0EE490AF0EE690A784400F08FFBA7
:105A600053EC192B51EC100BFAF763FC41EC1B0BB8
:105A70006648B0EE490AF0EE690A0421784400F065
:105A80007EFB53EC192B51EC100BFAF752FC53EC44
:105A9000182BFAF7A7FB41EC1C0B51EC190B01F08A
:105AA00073F841EC180B5A489FED5BABA04222DC27
:105AB00053EC1C2B51EC1B0BFAF7ADFCCDE90001AC
:105AC0009DED000B51EC180B53EC102BFAF731FC49
:105AD00053EC182BFAF786FB53EC1A2BFAF729FC38
