:020000040800F2
:10000000601600209D010008093F0008F920000843
:100010001D3C0008E50800084358000800000000E7
:10002000000000000000000000000000094B000874
:10003000A71900080000000089420008B501000867
:10004000B7010008B7010008B7010008B7010008B0
:10005000B7010008B7010008B7010008A919000896
:10006000B7010008B7010008B7010008B701000890
:10007000B7010008B7010008B7010008B701000880
:10008000B7010008B7010008B7010008B701000870
:10009000DD090008B7010008B7010008B701000832
:1000A000B7010008B7010008B7010008B701000850
:1000B000414E0008B7010008B7010008B701000869
:1000C000B7010008B7010008B7010008B701000830
:1000D000B701000879510008B7010008A1530008D2
:1000E000B7010008B7010008B7010008B701000810
:1000F000B7010008B7010008B7010008B701000800
:10010000B7010008B7010008B7010008B7010008EF
:10011000B7010008B7010008614E0008B7010008E8
:10012000B7010008B7010008B7010008B7010008CF
:10013000B7010008B7010008B7010008B7010008BF
:10014000CD0F0008B7010008B7010008B70100088B
:10015000B7010008B7010008B7010008B154000852
:10016000B7010008B7010008B7010008B70100088F
:10017000B7010008B7010008B7010008B70100087F
:10018000B7010008B7010008DFF80CD000F04AFB07
:100190000048004741650008601600200648804777
:1001A00006480047FEE7FEE7FEE7FEE7FEE7FEE75C
:1001B000FEE7FEE7FEE7FEE79D4D00088901000827
:1001C000002800DA4042704740EA01039B0703D051
:1001D00009E008C9121F08C0042AFAD203E011F886
:1001E000013B00F8013B521EF9D270472DE9FE4F4A
:1001F000804681EA0300C00F0C46009021F00041C8
:1002000023F00045B8EB0200A94105D24046214643
:1002100090461C460B46024623F00040104347D050
:10022000270DC7F30A00C3F30A510290401A019048
:1002300040286BDAC3F3130040F4801B0098924609
:1002400020B10023D2EB030A63EB0B0B0198594654
:10025000C0F14002504600F0CFF906460D46504628
:100260005946019A00F0E7F910EB080061410024BB
:1002700087EA115284EAE7731A4340D0009A62B3C6
:10028000019A012A4FEA075215DC001B61EB0201BB
:100290004FF0004202EA0752CDE90042001C41F54E
:1002A000801132462B4600F01EFA03B0BDE8F08FF5
:1002B00040462146F9E7001B61EB0201001C41F5B5
:1002C000801300185B412018A2F5001747EB0301CB
:1002D00040EAD570B6196D4111E06D084FEA360657
:1002E00045EAC0754FEA0752001B61EB0201001C92
:1002F00041F5801149084FEA30000019514132465A
:100300002B4603B0BDE8F04F00F0DEB900980122A3
:1003100040000023D0EB020263EBE073009821461B
:100320004FEAE074B8EB000061EB0401E9E783F009
:1003300000435BE781F0004158E72DE9FE4F81EA79
:10034000030404F0004421F0004100944FF0000B3E
:1003500023F0004350EA01045ED052EA03045BD06C
:10036000C3F30A54C1F30A552C44A4F2F3340194A4
:10037000A0FB0254C1F3130141F48011C3F3130332
:1003800043F4801301FB024400FB034E840A970AE6
:1003900044EA815447EA8357A4FB076802958D0A13
:1003A00005FB07854FEA932C04FB0C542705029D9F
:1003B0004FEA065847EA1637B5EB08056EEB070C0F
:1003C000870E920E47EA811742EA8312A7FB0201C9
:1003D000B6EB0B0164EB00042B0D43EA0C335E1803
:1003E00044EB1C50DA465146E7FB0201C5F3130407
:1003F0004FEA0B3343EA14534FEA0432019C43EAB9
:100400000603A4F10C040294009CCDE900B400F0B2
:100410006AF903B0BDE8F08F00200146F9E72DE945
:10042000F04D81EA030404F0004B21F0004514462E
:100430004FF0000A23F0004150EA050220D054EAB0
:1004400001021DD0C5F30A570246C5F31303C1F3D9
:100450001300C1F30A5640F4801543F48013A7EB50
:100460000608101BD64608F2FD3873EB050002D3D0
:1004700008F1010801E092185B41B8F1000F03DABE
:1004800000200146BDE8F08D00204FF480110646A3
:1004900084460EE0171B73EB050705D3121B63EBB5
:1004A000050306434CEA010C49084FEA3000921854
:1004B0005B4150EA0107EDD152EA030012D082EA13
:1004C000040083EA0501084305D0101BAB4106D2A6
:1004D0000122002306E000224FF0004302E06FF00B
:1004E000010253101AEB06004CEB085110EB0A0006
:1004F00041EB0B01BDE8F04D00F0E6B80EB5C10FC1
:1005000080EAE0700844CA07002140F233438DE8D6
:100510000E000A460B4600F0E6F803B000BD0EB52B
:1005200040F2334102910021CDE900110A460B4609
:1005300000F0D9F803B000BDC1F30A5210B5C1F301
:10054000130140F2FF3341F480119A4201DA002096
:1005500010BD40F233439A42A2F2334203DC5242CE
:1005600000F059F810BD904010BD00F0004230F08E
:1005700000400AD0C10D01F56071C0F3160042EAD7
:100580000151C208400711437047002001467047DF
:1005900030B5041E71F1000404DB4FF0004440420A
:1005A00064EB0101141E73F1000405DB1C464FF0DF
:1005B0000043524263EB0403994208BF904230BDAE
:1005C00001F0004330B421F0004150EA010206D0AE
:1005D0000A0DA2F56072C1F31301002A02DC30BCDF
:1005E00000207047440F44EAC104C100E01830BC49
:1005F00000EBC25000F031B8202A04DB203A00FAA8
:1006000002F1002070479140C2F1200320FA03F369
:10061000194390407047202A04DB203A21FA02F067
:100620000021704721FA02F3D040C2F1200291402C
:10063000084319467047202A06DBCB17203A41FAB7
:1006400002F043EAE07306E041FA02F3D040C2F15F
:10065000200291400843194670470029A8BF7047FF
:10066000401C490008BF20F00100704710B4B0FAE8
:1006700080FC00FA0CF050EA010404BF10BC704783
:1006800049B1CCF1200421FA04F411FA0CF118BF9D
:10069000012121430843A3EB0C01CB1D4FEA00616C
:1006A0004FEA102042BF002010BC704700EBC3503F
:1006B00010440029A4BF10BC7047401C490008BF6B
:1006C00020F0010010BC704710B5141E73F1000437
:1006D00008DA401C41F1000192185B411A4301D134
:1006E00020F0010010BD2DE9F04D92469B4611B15E
:1006F000B1FA81F202E0B0FA80F220329046FFF7C0
:100700007BFF04460F4640EA0A0041EA0B015346CC
:100710005A46084313D0114653EA010019D0C8F1D4
:1007200040025046FFF777FF05460E4650465946B1
:100730004246FFF761FF084305D0012004E0204650
:100740003946BDE8F08D0020054346EAE0762C43AB
:1007500037430A986305E40AA0EB08000022FD0A6B
:1007600044EA47540A3002D500200146E9E7010572
:1007700010196941DDE9084500196941BDE8F04DEE
:10078000A2E72DE9F04D00231A461B1A8A4103DB2C
:1007900000200146BDE8F08DC1F30A52C1F31301F8
:1007A00041F480154FF0000BD10702D100186D41C4
:1007B000521E0027044640F2FF11384601EB620A40
:1007C0003E468046024600204FF48011FFF723FF8B
:1007D000C2197141BB1846EB0100B4EB030C75EB79
:1007E000000C04D3E41A65EB000517460E462419E5
:1007F00008F101006D4180463428E3DDF91946EB2C
:100800000600091BA84103D24FF0FF32134601E056
:10081000002213461BEB070046EB0A51BDE8F04DE2
:10082000FFF752BF064C074D06E0E06840F00103B9
:1008300094E8070098471034AC42F6D3FFF7A8FCC1
:10084000106F0008306F000870B58C1810F8015B4D
:1008500015F0070301D110F8013B2A1106D110F859
:10086000012B03E010F8016B01F8016B5B1EF9D15D
:100870002B0705D40023521E0DD401F8013BFAE7E3
:1008800010F8013BCB1A921C03E013F8015B01F84E
:10089000015B521EF9D5A142D8D3002070BD10B51E
:1008A0004FF4A06003F06EFB03F098FC02F09EFD95
:1008B00004F080F803F03CF803F078F800F014F846
:1008C00000F00AFB04F0B8FB04F014FD04F0BCFCDB
:1008D00004F098FA642005F0D3FD01F04FF903F01D
:1008E00065F810BD00BFFEE700B58BB00121082000
:1008F00003F08AFD0121480603F096FD03200990CC
:1009000002208DF8280000208DF82A0003208DF8A1
:10091000290001208DF82B0009A92E4801F0CEF9FD
:10092000092201212B4801F011FA0922002129484E
:1009300001F00CFA00208DF81E008DF81F008DF8D4
:10094000200001208DF8210000208DF822008DF874
:1009500023008DF81A008DF81B0005208DF81C006F
:1009600006208DF81D000320ADF8180006A91A48CE
:1009700000F061FD00208DF812008DF813000120B9
:100980008DF814000020ADF80800ADF80A00ADF8AD
:100990000C00ADF80E00ADF8100001208DF8150028
:1009A00002A800F02BFC012202210B4800F03AFDC6
:1009B00014208DF8040001208DF8050000208DF82A
:1009C000060001208DF8070001A803F09FFA0BB084
:1009D00000BD0000000C02400064004000B52DED99
:1009E000068B85B00221FE4800F08CFC00287DD0EB
:1009F0000221FB4800F0AEFB6A460021F84800F0F7
:100A0000A4FDF849009808609DF80B00F6490870AD
:100A10009DF80C00F54908709DF80D00F449087028
:100A20009DF80E00F34908709DF80F00F249087018
:100A30009DF81000F14908709DF81100F049087008
:100A40009DF81200EF490870E8480078E6490978F7
:100A500040EA0120EC490860E6480078E44909785A
:100A600040EA0120E94908800846008800F4004077
:100A7000E749086008460068C0130860E34800883A
:100A8000C0F30C00E3490880E04800884FF6FF718E
:100A9000081AE149088042F25570E0490860D748D9
:100AA0000078D549097840EA0120DD4908800846E8
:100AB000008800F40040DB49086008460068C01365
:100AC0000860D7480088C0F30C00D7490880D44894
:100AD00000884FF6FF71081AD4490880D248008870
:100AE000CF490880CF480068012800E077E102D1B3
:100AF000CE4800880880CA48008800EE100AB8EE88
:100B0000400ACB4880ED000AB6480068B0F5007F87
:100B100023D9B4480068B0F5017F1ED8C4480068E6
:100B2000FFF723FD41EC1A0B9FEDC20B53EC102B8A
:100B3000FFF775FC41EC190B9FEDC00B53EC102B2C
:100B4000FFF7FBFB41EC180BFFF73AFDA5490968DD
:100B5000A1F20121BB4A42F82100BA4890ED000AF7
:100B6000D0ED010A30EE200AD0ED020A30EE200A64
:100B7000D0ED030A30EE200AB34880ED000A006889
:100B8000FFF7F3FC41EC190B9FEDB00B53EC102B6E
:100B9000FFF7D3FB41EC180BFFF712FDAD490860DE
:100BA0009048006840F20521884229D1964890ED8E
:100BB000000AB8EEC00AA84880ED000A90ED000ACD
:100BC000DFEDA60A20EE200ADFEDA50A80EE201A4E
:100BD000A44880ED001A8C48006840F6FF718842F6
:100BE00004DB8021A04801F0D4F809E086480068C1
:100BF00040F6FF71884203DA80219B4801F0CBF870
:100C00007848006840F2062188422BD17E4890ED5A
:100C1000000AB8EEC00A954880ED000A90ED000A7F
:100C2000DFED8E0A20EE200ADFED8D0A80EE201A1D
:100C30008F4880ED001A7448006840F29221884283
:100C400005DB4FF480418B4801F0A3F80AE06E48C1
:100C5000006840F29221884204DA4FF480418548CE
:100C600001F099F85F48006840F2012188421BD1E9
:100C70006848008800EE100AB8EE400A7E4880ED11
:100C8000000A6348006801280ED16348008800EE1E
:100C9000100AB8EE400A784880ED000A90ED000A8C
:100CA000B1EE400A80ED000A4E48006840F2022191
:100CB00088421BD15748008800EE100AB8EE400A5F
:100CC0006E4880ED000A5248006801280ED1524853
:100CD000008800EE100AB8EE400A684880ED000A6D
:100CE00090ED000AB1EE400A80ED000A3D48006830
:100CF00040F2032188421BD14648008800EE100ACA
:100D0000B8EE400A5E4880ED000A414800680128BC
:100D10000ED14148008800EE100AB8EE400A58484B
:100D200080ED000A90ED000AB1EE400A80ED000A65
:100D30002C480068B0F5017F1BD13648008800EED2
:100D4000100AB8EE400A4F4880ED000A30480068AB
:100D500001280ED13048008800EE100AB8EE400A93
:100D6000484880ED000A90ED000AB1EE400A80ED9F
:100D7000000A1C48006840F2072188421BD1254820
:100D8000008800EE100AB8EE400A3F4880ED000AE5
:100D90001F48006801280ED11F48008800EE100A85
:100DA000B8EE400A384880ED000A90ED000AB1EE36
:100DB000400A80ED000A6946344800F073FE33486B
:100DC00090ED100A324880ED000A06480068B0F540
:100DD000027F77D10F48008800EE100A5AE071E0D8
:100DE000006400407C00002074000020750000209A
:100DF0007600002077000020780000207900002095
:100E00007A0000207B0000208400002048000020A1
:100E1000800000204600002044000020A4000020A4
:100E200060000020700000204A0000204C000020DC
:100E300064000020000000000000D040000000001E
:100E400000003440900800206C00002000000000EA
:100E50000000384068000020540000200000B44327
:100E6000000000465C0000200010024050000020FE
:100E700058000020001402408C0000209000002048
:100E800094000020980000209C0000209C0B002073
:100E900088000020B8EE400A0C4880ED000A0C489B
:100EA000006801280ED10B48008800EE100AB8EE49
:100EB000400A064880ED000A90ED000AB1EE400AB3
:100EC00080ED000A05B0BDEC068B00BDA00000203F
:100ED000800000204400002000B58BB001210220DA
:100EE00003F092FA0121880603F09EFA4FF4405075
:100EF000099002208DF8280000208DF82A00032098
:100F00008DF8290001208DF82B0009A92D4800F04B
:100F1000D5FE09220D212B4800F018FF09220C21D3
:100F2000284800F013FF00208DF81E008DF81F00E8
:100F30008DF8200001208DF8210000208DF822007E
:100F40008DF823008DF81A008DF81B0005208DF810
:100F50001C0006208DF81D000320ADF8180006A91E
:100F6000194800F068FA0E208DF8120000208DF864
:100F7000130001208DF814000020ADF80800ADF832
:100F80000A00ADF80C00ADF80E00ADF8100001201D
:100F90008DF8150002A800F031F9012202210A485B
:100FA00000F040FA40208DF8040002208DF8050082
:100FB00001208DF806008DF8070001A802F0A6FFB9
:100FC0000BB000BD000402400068004000B585B0D1
:100FD00002214F4800F096F900287CD002214C48AD
:100FE00000F0B8F86A460021494800F0AEFA4949D5
:100FF000009808609DF80B00474908709DF80C00A8
:10100000464908709DF80D00454908709DF80E008E
:10101000444908709DF80F00434908709DF810007E
:10102000424908709DF81100414908709DF812006E
:1010300040490870394800783749097840EA01206A
:101040003D490860374800783549097840EA012071
:101050003A4908800846008800F400403849086092
:1010600008460068C013086034480088C0F30C00CC
:1010700034490880314800884FF6FF71081A324918
:1010800008802448006840F2032188421BD12D4883
:10109000008800EE100AB8EE400A2C4880ED000AE5
:1010A0002748006801280ED12748008800EE100A62
:1010B000B8EE400A254880ED000A90ED000AB1EE36
:1010C000400A80ED000A13480068B0F5017F1DD189
:1010D0001C48008800E019E000EE100AB8EE400A53
:1010E0001B4880ED000A1648006801280ED11648FA
:1010F000008800EE100AB8EE400A154880ED000A9C
:1011000090ED000AB1EE400A80ED000A05B000BD86
:1011100000680040AC000020740000207500002032
:101120007600002077000020780000207900002061
:101130007A0000207B00002084000020480000206E
:10114000800000204600002044000020B000002065
:10115000B4000020B1F5007F3AD00FDC202928D060
:1011600006DC01291CD004291DD0082940D11DE02E
:10117000402921D0B1F5807F3AD126E0B1F5004F6A
:1011800031D006DCB1F5806F25D0B1F5006F2FD1DD
:1011900024E0B1F5803F12D0B1F5003F28D111E035
:1011A000154A826025E00822C26022E01022C26057
:1011B0001FE0082202611CE01022026119E00822EF
:1011C000426016E01022426013E00422426010E008
:1011D000042242600DE0042242600AE000228261A3
:1011E0000422426005E0002282610422426000E0A5
:1011F00000BF00BF704700000101010010B50021D1
:10120000837A012202FA03F13D4A126842F0010298
:101210003B4B1A603A4A1C3212688A43384B1C33E3
:101220001A60027BCAB9364A0C3212688A43344BC0
:101230000C331A604288C38842EA0343304A403282
:10124000847A42F834300288838842EA03432C4A85
:101250004032847A02EBC4025360027B012A19D126
:10126000274A0C3212680A43254B0C331A60428815
:10127000038842EA0343224A4032847A42F83430F7
:10128000C288838842EA03431D4A4032847A02EBD3
:10129000C4025360C27A3AB9194A121D12688A43CD
:1012A000174B1B1D1A6006E0154A121D12680A43EF
:1012B000134B1B1D1A60028932B9114A143212688D
:1012C0008A430F4B14331A600289012A06D10C4A53
:1012D000143212680A430A4B14331A60427B012A03
:1012E00006D1074A1C3212680A43054B1C331A60A8
:1012F000034A126822F00102014B1A6010BD00007F
:101300000066004070B504460D460026606928401E
:10131000002871D0B5F5807F5CD010DC082D35D069
:1013200006DC012D20D0022D24D0042D72D127E01F
:10133000102D31D0202D35D0402D6BD138E0B5F5B2
:10134000004F60D009DCB5F5007F49D0B5F5806F5E
:101350004CD0B5F5006F5DD14FE0B5F5803F2DD095
:10136000B5F5003F56D12FE0A0682D4900F0F8F9FF
:10137000064651E0E068032100F0F2F906464BE032
:10138000E068082100F0ECF9064645E0E06810212D
:1013900000F0E6F906463FE02069032100F0E0F99D
:1013A000064639E02069082100F0DAF9064633E004
:1013B0002069102100F0D4F906462DE0606808216C
:1013C00000F0CEF9064627E06068102100F0C8F969
:1013D000064621E0A069012100F0C2F906461BE0A3
:1013E000A069022100F0BCF9064615E0A0690421BD
:1013F00000F0B6F906460FE00FE0A069702100F09A
:10140000AFF9064608E06068042100F0A9F9064635
:1014100002E0FFE7002600BF00E00026304670BD76
:10142000010101001AB143690B43436102E04369C2
:101430008B434361704730B5024600200023146897
:1014400024F002041460146844F00104146000E005
:101450005B1C546804F001041CB94FF6FF74A342EE
:10146000F6D1546804F001040CB900206CE08C79CA
:10147000012C04D1146844F08004146003E0146863
:1014800024F080041460CC79012C04D1146844F059
:101490004004146003E0146824F0400414600C7AE3
:1014A000012C04D1146844F02004146003E0146893
:1014B00024F0200414604C7A012C04D1146844F008
:1014C0001004146003E0146824F0100414608C7A93
:1014D000012C04D1146844F00804146003E014687B
:1014E00024F008041460CC7A012C04D1146844F070
:1014F0000404146003E0146824F0040414608C787D
:10150000A407CD7844EA05640D7944EA05444D7991
:1015100044EA05540D886D1E2C43D461146824F0F0
:1015200001041460002300E05B1C546804F0010413
:101530001CB14FF6FF74A342F6D1546804F00104C5
:101540000CB1002000E0012030BD10B500F5D873CB
:1015500003EB01131B6803F004031372137A53B9EE
:1015600000F5D87303EB01131B6840F2FF7404EA23
:101570005353136009E000F5D87303EB01131B68A4
:101580006FF0604404EAD303536000F5D87303EBB3
:1015900001131B6803F00203537200F5D87303EBC9
:1015A00001135B6803F00F03937200F5D87303EB2C
:1015B00001135B681B0AD37400F5D87303EB0113A6
:1015C0009B68D37200F5D87303EB01139B681C0A68
:1015D000147300F5D87303EB01139B681C0C547350
:1015E00000F5D87303EB01139B681B0E937300F592
:1015F000D87303EB0113DB68D37300F5D87303EBE7
:101600000113DB681C0A147400F5D87303EB011393
:10161000DB681C0C547400F5D87303EB0113DB6812
:101620001B0E937421B9C36843F02003C36003E029
:10163000036943F02003036110BD10B5024600208A
:10164000936803F08063B3F1806F00D110E093687A
:1016500003F00063B3F1006F01D1012008E093684B
:1016600003F08053B3F1805F01D1022000E0042039
:10167000042874D002F5C07303EB00131B6803F059
:10168000010402F5C07303EB00131C600B7A7BB9F5
:101690004B7A0C8843EA445302F5C07404EB0014FF
:1016A0002468234302F5C07404EB0014236010E0A7
:1016B0000B7A4C6843EAC4034C7A234302F5C074A6
:1016C00004EB00142468234302F5C07404EB0014F7
:1016D00023608B7A03F00F038B7202F5C07303EB68
:1016E00000135B6823F00F0402F5C07303EB0013D3
:1016F0005C6002F5C07303EB00135B688C7A2343D4
:1017000002F5C07404EB001463608B7B1C064B7BFA
:1017100044EA03440B7B44EA0323CC7A234302F5D7
:10172000C07404EB0014A3608B7C1C064B7C44EA61
:1017300003440B7C44EA0323CC7B234302F5C074AF
:1017400004EB0014E36002F5C07303EB00131B68A5
:1017500043F0010402F5C07303EB00131C6010BDDD
:101760000246002002EA01030BB1012000E0002044
:10177000704721B1026842F00102026003E0026892
:1017800022F0010202607047016821F0010101604E
:101790000021016041608160C160016121214161DE
:1017A0004A49884204D13D21484A103A91608CE070
:1017B00046491831884205D14FF47461434A103AC2
:1017C000916082E041493031884205D14FF4741173
:1017D0003E4A103A916078E03C494831884205D150
:1017E0004FF07461394A103A91606EE037496031C8
:1017F000884204D13649354A103AD16065E0334910
:101800007831884204D13349304A103AD1605CE0E3
:101810002E499031884204D12F492C4A103AD16088
:1018200053E02A49A831884205D14FF03D51274A5B
:10183000103AD16049E02949884204D13D21274A24
:10184000083A116041E025491831884205D14FF42A
:101850007461224A083A116037E0204930318842E9
:1018600005D14FF474111D4A083A11602DE01B494F
:101870004831884205D14FF07461184A083A116026
:1018800023E016496031884204D11149134A121FDE
:1018900011601AE011497831884204D10D490F4A8C
:1018A000121F116011E00D499031884204D10A499C
:1018B0000A4A121F116008E00849A831884204D181
:1018C0004FF03D51054A121F1160704710600240F1
:1018D0003D000020400F002000003D201064024029
:1018E00021B1026842F48022026003E0026822F41F
:1018F00080220260704722B1036843F40023036032
:1019000003E0036823F4002303600161704701468C
:10191000486880B27047014600200A6802F400223D
:101920000AB1012000E000207047000010B500223D
:101930000268134B1A40CC680B6823434C6923435D
:101940008C692343CC6923430C6A23434C6A2343A9
:101950008C6A23434C6B23438C6B23431A430260F2
:10196000426922F00702D1E90B3423431A43426152
:101970000B6943604B6883608B68C36010BD0000D7
:101980003F801CF00021016041608160C160016105
:1019900041618161C161016241628162C162016331
:1019A000416381637047704710B5022000F01CF856
:1019B00050B1022000F00CF8022000F00FF80120D6
:1019C0000249087000F004FA10BD00003C0100203C
:1019D0000149086070470000143C0140014908605B
:1019E00070470000143C0140014600200022074BD4
:1019F0001B6803EA0102054B14331B680B4013B14B
:101A00000AB1012000E0002070470000003C0140C6
:101A1000002123498279002A3AD00A4612680368D5
:101A20009A430B461A600A1D126803689A430B1DFD
:101A30001A60027911440A6803681A430A60184A56
:101A40000832126803689A43154B08331A601A1D4E
:101A5000126803689A43124B0C331A604279102AB9
:101A60000ED11A1F126803681A430D4B08331A600F
:101A70001A1D126803681A43094B0C331A600DE0F3
:101A80000749427911440A6803681A430A6005E06D
:101A9000027911440A6803689A430A60704700009B
:101AA000003C014070B500220023046844600C7BB8
:101AB000CD7A44EA0524046004684568641BC46068
:101AC000C4682B4DAC4207DA846B641C8463C46821
:101AD00004F50054C4610EE0C46841F64C55AC42B4
:101AE00007DD846B641E8463C468A4F50054C4617C
:101AF00001E0C468C4610568846B05EB443484600C
:101B000004688569641B00EE104AB8EEC00ADFED78
:101B1000190A20EE200A9FED181AC0EE010A846B04
:101B20004FF4B4756C4300EE104AB8EEC00A30EEC4
:101B3000800A80ED100AC669047D651C057500F1F8
:101B4000200545F82460047D062C01D1002404758D
:101B5000002205E000F1200454F822402344521CE6
:101B6000062AF7DB062493FBF4F4C46370BD00007F
:101B7000B4E2FFFF0000B4430000004647F6FF70E8
:101B800001490860704700002404004038B504464D
:101B90000D4600EE104AB8EEC00A3F4880ED000A3C
:101BA0003E4890ED000A3C4880ED010A00EE105AD4
:101BB000B8EEC00A3A4880ED000A3A4890ED000AB3
:101BC000374880ED010A344802F0E6F9344802F063
:101BD000E3F9314890ED0E0ADFED330AB4EEE00A86
:101BE000F1EE10FA03DB9FED300A80ED0E0A2A4871
:101BF00090ED0E0ADFED2D0AB4EEE00AF1EE10FAD8
:101C000003D89FED2A0A80ED0E0A254890ED0E0AB2
:101C1000DFED250AB4EEE00AF1EE10FA03DB9FEDEA
:101C2000220A80ED0E0A1E4890ED0E0ADFED1F0A13
:101C3000B4EEE00AF1EE10FA03D89FED1C0A80ED35
:101C40000E0A174890ED0E0ABDEEC00A10EE100AFB
:101C500000B20090104890ED0E0ABDEEC00A10EEE2
:101C6000100A03B2124890ED0E0ABDEEC00A10EE43
:101C7000100A404202B20F4890ED0E0ABDEEC00AB3
:101C800010EE100A404201B20B4803F04BF80A2054
:101C900004F0F6FB38BD0000D8050020B00000209D
:101CA0002C060020B400002000007A4500007AC510
:101CB0003C020020E402002000680040F0B50A4623
:101CC00000210023002400BF3DE0012505FA01F3B7
:101CD000156805EA03049C4234D105684F000326C9
:101CE000BE40B543056015794E00B54006683543E2
:101CF00005601579012D02D01579022D16D1856860
:101D00004F000326BE40B543856055794E00B5406F
:101D1000866835438560456801268E40B543456039
:101D2000456896798E40B6B235434560C5684F0028
:101D30000326BE40B543C560D5794E00B540C668A0
:101D40003543C560491C1029BFD3F0BDF0B5002351
:101D500000244D07ED0E02FA05F3CE1000F1200528
:101D600055F826504E07F70E0F26BE40B543CF104C
:101D700000F1200646F82750CE1000F1200555F856
:101D8000265045EA0304CE1000F1200545F8264010
:101D9000F0BD41837047018370474FF6FF710160CA
:101DA0000021017141718171C17170470148007852
:101DB00070470000E606002001460B2903D20348C5
:101DC00000EB810070470020FCE700005C0700206A
:101DD0004B4890ED030A4B4880ED040A484890EDCB
:101DE000040AB1EE400A474880ED050A444890EDE8
:101DF000050A444880ED060A434890ED000A43482E
:101E000080ED000A424890ED000A3F4880ED000A4C
:101E100090ED000A3D48D0ED000A30EE600ADFED9B
:101E20003D0AB4EEE00AF1EE10FA05DB3A4800682C
:101E3000401E3949086013E0334890ED000A3348EA
:101E4000D0ED000A30EE600ADFED340AB4EEE00AAD
:101E5000F1EE10FA04D830480068401C2E490860A2
:101E60002D4800684FF4B471484300EE100AB8EEF4
:101E7000C00A2548D0ED000AB7EE001A01EE200A8C
:101E8000274880ED000A224890ED010A254880EDA0
:101E9000000A254890ED000A244880ED000A1C48FD
:101EA00090ED020A224880ED000A1F4890ED000ADA
:101EB0001E48D0ED000A30EE600ADFED160AB4EEDF
:101EC000E00AF1EE10FA05DB1A480068401E1949D5
:101ED000086013E0144890ED000A1448D0ED000AA1
:101EE00030EE600ADFED0D0AB4EEE00AF1EE10FA12
:101EF00004D810480068401C0E4908607047000074
:101F0000C0080020D0090020100100201C01002082
:101F1000F40800200000A543340100200000A5C300
:101F2000280100202C01002018010020240100209D
:101F3000300100203801002010B501700378047DC5
:101F4000021D1355037DD35C447D125D43EA82027A
:101F50004270027D521C02F00F0282754378847D2C
:101F6000021D125D43EA02128270037D021DD35CE2
:101F7000447D125D934205D10D4A1268521C0C4BF0
:101F80001A6002E000220A4B1A60094A1268282AE5
:101F900003D3037D021DD25CC270027D4275027DB7
:101FA000521C0275027D102A01D10022027510BD5B
:101FB0005407002001480078704700008106002087
:101FC0004FF08040406A7047274890ED000AFBEED2
:101FD000030AB4EEE00AF1EE10FA04D8BBEE030AED
:101FE00080ED000A0DE0204890ED000AF3EE030AB0
:101FF000B4EEE00AF1EE10FA03DBB3EE030A80ED73
:10200000000A194890ED010A1848D0ED010A9FED29
:10201000181A70EEC10AB4EEE00AF1EE10FA09D80F
:1020200090ED010ADFED120A30EE600A0E4880EDF5
:10203000010A17E00C4890ED010A0C48D0ED010AA6
:102040009FED0B1A70EE810AB4EEE00AF1EE10FA81
:1020500008DB90ED010ADFED060A30EE200A0248A7
:1020600080ED010A704700002C0C0020E4020020E3
:102070000000704200B5F0EE405AB0EE603AF0EE6B
:10208000413AB0EE614AF0EE424AB0EE625AB0EE2A
:10209000641AF0EE630AB0EE650A02F0F7F800B2D7
:1020A00006490880B0EE451AF0EE440AB0EE430A45
:1020B00003F0CAFB00B20249088000BDC00700203F
:1020C000C207002010B5044600EE104AB8EEC00A60
:1020D000074880ED000A074890ED000A044880EDAB
:1020E000010A01F0D9FF012004F0CAF910BD000077
:1020F000840500201802002000BFFEE700B52DED8A
:10210000108B93B0FE4890ED000AD0ED000A20EE4F
:10211000200A8DED080A90ED000AFA48D0ED000A79
:1021200020EE200AB0EE40FAF54890ED000AF6489D
:10213000D0ED000A20EE200AF0EE40AAF04890ED23
:10214000000AF248D0ED000A20EE200A8DED070AC1
:10215000EC4890ED000AD0ED000A20EE200AF0EEE7
:1021600040FA90ED000AE848D0ED000A20EE200A7F
:102170008DED060AE34890ED000AE448D0ED000A30
:1021800020EE200AB0EE40BADF4890ED000AD0ED14
:10219000000A20EE200AF0EE40BA90ED000ADB487B
:1021A000D0ED000A20EE200A8DED050A90ED000A20
:1021B000D0ED000A20EE200A8DED040AD44890EDFF
:1021C000030ADFEDD40A20EE200ADFEDD30A80EE09
:1021D000201AD24880ED001ACD4890ED040ADFEDB8
:1021E000CD0A20EE200ADFEDCC0A80EE201ACC4882
:1021F00080ED001AC64890ED050ADFEDC60A20EE14
:10220000200ADFEDC50A80EE201AC64880ED001ACC
:10221000BF4890ED000AC44880ED000ABC4890ED2C
:10222000010AC24880ED000AB94890ED020AC04890
:1022300080ED000AB64890ED060ABE4880ED000A1F
:10224000B34890ED070ABC4880ED000AB04890ED15
:10225000080ABA4880ED000AFFF7B2FEB8490860E4
:1022600008460068B749096888420CD3B44800683A
:10227000B4490968401A00EE100AB8EE400ADFEDD2
:10228000B20AC0EE208AAE480068AE490860A6488F
:10229000D0ED000A90ED001A60EE810AA34890ED9F
:1022A000001AD0ED001A41EE210AA14890ED001A63
:1022B000D0ED001A41EE210AB0EE600A04F022F9D6
:1022C000B0EE408A984890ED000A20EE080A80EDB2
:1022D000000A964890ED000A20EE080A80ED000AF8
:1022E000934890ED000A20EE080A80ED000A91481C
:1022F000D0ED000A90ED001A60EE810A8E4890ED54
:10230000001AD0ED001A41EE210A8C4890ED001A17
:10231000D0ED001A41EE210AB0EE600A04F0F2F8A6
:10232000B0EE408A834890ED000A20EE080A80ED66
:10233000000A814890ED000A20EE080A80ED000AAC
:102340007E4890ED000A20EE080A80ED000A7948E8
:1023500090ED000AF0EE000A60EE200AB6EE000AE8
:1023600030EE6B1A9DED040A31EE400A20EE800A31
:102370007148D0ED000AB0EE001A60EE811ADDED72
:10238000060A9DED071A70EEC10A01EEA00A6B481D
:10239000D0ED000AB0EE001A60EE810A3BEE2A1A78
:1023A00000EE810A8DED110A624890ED000AF0EE10
:1023B000000A20EE201A9DED060ADDED070A30EE38
:1023C000200A21EE000A5C48D0ED000AB0EE001AA7
:1023D00020EE811AF6EE000A70EEEF1ADDED040A27
:1023E00071EEE00A01EE200A5448D0ED000AB0EE8A
:1023F000001A20EE811ADDED050A70EECF0A01EE1B
:10240000200A8DED100A4B4890ED000AF0EE000A0C
:1024100020EE200A7BEE6A0A60EE200A464890ED24
:10242000000AB0EE001A20EE011A9DED050A70EECA
:102430000F1AB0EE600A01EE210A4048D0ED000A02
:10244000B0EE001A60EE810AB6EE001A31EE6F1A95
:1024500031EE6B1AB0EE409A00EE819A9DED110AB2
:1024600060EE000A9DED100A40EE000A10EE901A90
:102470000846FEF77AF8CDE900019DED000B03F068
:10248000D9FE8DED020B9DED020B51EC100BFEF70A
:1024900097F809EE900AB0EE49AA3BEE6A0AF0EE10
:1024A000000A20EE200A8DED0F0A9DED050A3FEE91
:1024B000000AF0EE000A20EE200A8DED0E0A9DEDD6
:1024C000080A30EE6F0A70EE6B0A9DED040A30EEDA
:1024D000800A8DED0D0AB0EE000A69EE800AB6EEB4
:1024E000000A30EE6B1A9DED040A31EE400A20EE30
:1024F000800AB0EE4A9AF0EE000A69EE200A25E062
:10250000D4000020D8000020DC000020E0000020E3
:10251000C0080020DB0F494000003443E4000020E5
:10252000E8000020EC000020F0000020F400002073
:10253000F8000020FC000020000100200401002021
:102540000C010020080100200024F4493BEE6A1A27
:1025500000EE810A8DED0C0AB0EE000A29EE801A19
:102560009DED060ADDED070A30EE600A21EE000A55
:10257000B0EE4A9AF0EE000A29EE201ADDED050AC7
:102580007FEE200A01EE200A8DED0B0AB0EE000A64
:1025900029EE800A7AEE8B0A20EE200AB0EE4A9AE3
:1025A000F0EE000A69EE200AB6EE001A31EE6F1A5C
:1025B00031EE6B1A00EE810A8DED0A0AAF48D0EDBC
:1025C000000A9DED0D0A60EE800AAD4890ED001AFC
:1025D0009DED0E0A41EE400AAA4890ED001A9DEDCD
:1025E0000A0A21EE001AA848D0ED001A9DED0B0A48
:1025F00001EEC01A30EE81CAA148D0ED000A9DED6F
:102600000F0A60EE800AA14890ED001A9DED0D0AB8
:1026100041EE400A9C4890ED001A9DED0C0A21EE17
:10262000001A9B48D0ED001A9DED0A0A01EEC01A6F
:1026300070EE81CA9548D0ED000A9DED0E0A60EE5D
:10264000800A8E4890ED001A9DED0F0A41EE400A77
:102650008F4890ED001A9DED0B0A21EE001A894873
:10266000D0ED001A9DED0C0A01EEC01A30EE81DAB1
:10267000B5EEC0CAF1EE10FA57D0F5EEC0CAF1EED1
:1026800010FA52D0B5EEC0DAF1EE10FA4DD09FED4F
:10269000810A6CEE000A804890ED000A00EEA80A5C
:1026A00080ED000A9FED7B0A6CEE800A7B4890ED7E
:1026B000000A00EEA80A80ED000A9FED760A6DEE92
:1026C000000A774890ED000A00EEA80A80ED000AA3
:1026D000744890ED000AF0EE000A00EE8C0A6E4895
:1026E000D0ED000A30EE200A6E4880ED000A6E48F8
:1026F00090ED000AF0EE000A00EEAC0A6748D0ED5B
:10270000000A30EE200A684880ED000A674890ED24
:10271000000AF0EE000A00EE8D0A6148D0ED000AD2
:1027200030EE200A614880ED000A614890ED000A11
:10273000B1EE400A5B48D0ED000A20EE200A5D4869
:10274000D0ED000A584890ED001A00EEC10A5A4830
:1027500090ED001A5548D0ED001AF0EE400A41EE17
:10276000610A564890ED000A00EEA80A8DED090AAC
:1027700090ED000A4B48D0ED000A20EE200A4D48AB
:10278000D0ED000A494890ED001A00EE810A4A484F
:10279000D0ED000A444890ED001A00EEC10A44480A
:1027A000D0ED000AF0EE60DA40EE28DA434890ED12
:1027B000000A3D48D0ED000A20EE200A3C48D0ED4A
:1027C000000A3A4890ED001A00EEC10A3A48D0EDEE
:1027D000000A344890ED001A00EE810A3548D0ED29
:1027E000000AB0EE60EA00EE28EA344890ED000AF4
:1027F0002E48D0ED000A20EE200A2D48D0ED000A28
:10280000294890ED001A00EE810A2A48D0ED000A0E
:10281000244890ED001A00EEC10A2748D0ED000AC6
:10282000F0EE60EA40EE28EADDED090A60EEA00A6B
:102830004DEEAD0A4EEE0E0A4EEEAE0AB0EE600A56
:1028400003F060FEB0EE408A9DED090A20EE080A12
:102850001A4880ED000A2DEE880A154880ED000A1E
:102860002EEE080A134880ED000A2EEE880A124860
:1028700080ED000A13B0BDEC108B00BDF400002009
:10288000F80000200001002004010020F0000020DA
:10289000FC0000200AD7233CC8000020CC00002008
:1028A000D0000020E4000020E8000020EC00002020
:1028B000D8000020DC000020E0000020D400002030
:1028C0001FB50E2269463B2001F0D4F89DF80100A7
:1028D0009DF8001040EA012000B2214908809DF8CF
:1028E00003009DF8021040EA012000B21C49488014
:1028F0009DF805009DF8041040EA012000B2184937
:1029000088809DF807009DF8061040EA012000B27B
:102910001349C8809DF8090012490989401A9DF899
:10292000081040EA012000B20D4908819DF80B0013
:102930000C494989401A9DF80A1040EA012000B26A
:10294000074948819DF80D0006498989401A9DF87C
:102950000C1040EA012000B2014988811FBD00002F
:10296000100900202409002010B504460C4800F08E
:1029700021F8FFF7C3FB0B4890ED000A84ED000A35
:10298000094890ED000A84ED010A084890ED000A1C
:1029900084ED020A064890ED000A84ED030A10BD9A
:1029A000C0080020D4000020D8000020DC00002057
:1029B000E000002030B585B005460DF1120004A9F5
:1029C000031F03AACDE90010891F02A801F09EF899
:1029D000BDF8080026490880BDF80A004880BDF807
:1029E0000C008880BDF80E000881BDF810004881F9
:1029F000BDF81200888195ED060ABDEEC00A10EE02
:102A0000100A00B2C88195ED070ABDEEC00A10EEAB
:102A1000100A00B2088295ED080ABDEEC00A10EE59
:102A2000100A00B2488200241DE0032C0BDA02A831
:102A300030F9140000EE100AB8EEC00A05EB84006D
:102A400080ED000A0EE002A830F9140000EE100A32
:102A5000B8EEC00ADFED070A80EE201A05EB84000D
:102A600080ED001A641C062CDFDB05B030BD0000D1
:102A7000BC0900203333034210B52DED0C8B044606
:102A80008748FFF771FF864890ED020AF8EE000ACA
:102A900020EE200AD0ED020A20EE200AD0ED030A33
:102AA000B0EE001A60EE810A90ED031A00EEC10A42
:102AB000F7EE000A30EE200A10EE101A0846FDF775
:102AC00054FD41EC1C0B764890ED010AF0EE000A33
:102AD00020EE200AD0ED020A20EE200AD0ED000AF6
:102AE000B0EE001A60EE810A90ED031A00EE810A42
:102AF00010EE101A0846FDF738FD41EC1D0BB0EE44
:102B00004C1AF0EE6C1AB0EE4D0AF0EE6D0A03F0BE
:102B10008FFAB0EE40BAF0EE60BA51EC1B0B81F0C8
:102B2000004141EC1A0B9FED5F0B53EC102BFDF7AE
:102B300004FC41EC190B9FED5D0B53EC102BFDF7E2
:102B40006EFC41EC180BFDF73BFD00EE100A84ED26
:102B5000000A534890ED010AF8EE000A20EE200A20
:102B6000D0ED030A20EE200AD0ED000AB0EE001AE4
:102B700060EE810A90ED021A00EE810A10EE101A42
:102B80000846FDF7F2FC41EC1C0BB0EE4C0AF0EEEF
:102B90006C0A02F031FFB0EE40BAF0EE60BA51ECD0
:102BA0001B0B81F0004141EC1A0B9FED3E0B53ECE7
:102BB000102BFDF7C2FB41EC190B9FED3C0B53ECC6
:102BC000102BFDF72CFC41EC180BFDF7F9FC00EE87
:102BD000100A84ED010A324890ED010AF8EE000A6D
:102BE00020EE200AD0ED010A20EE200AD0ED020AE4
:102BF000B0EE001A60EE810A90ED021A00EEC10AF2
:102C0000F7EE000A30EE200A10EE101A0846FDF723
:102C1000ACFC41EC1B0B224890ED020AF0EE000ADE
:102C200020EE200AD0ED030A20EE200AD0ED000AA3
:102C3000B0EE001A60EE810A90ED011A00EE810AF2
:102C400010EE101A0846FDF790FC41EC1C0BB0EE9C
:102C50004B1AF0EE6B1AB0EE4C0AF0EE6C0A03F071
:102C6000E7F9B0EE40AAF0EE60AA9FED0E0B53EC30
:102C7000102B51EC1A0BFDF760FB41EC190B9FED8B
:102C80000B0B53EC102BFDF7CAFB41EC180BFDF7B7
:102C900097FC00EE100A84ED020ABDEC0C8B10BD0F
:102CA000E408002000000000008066400000006092
:102CB000FB21094010B530216A2000F009FF0A20ED
:102CC00003F0DEFB0D21242000F002FF0A2003F0B8
:102CD000D7FB0E21282000F0FBFE0A2003F0D0FBDA
:102CE0008E21312000F0F4FE0A2003F0C9FB0121FF
:102CF0000B2000F075F8002000F055F8102801D0E6
:102D0000012010BD0A2003F0BBFB00210A2000F0C7
:102D100067F80A2000F047F808B10220F1E70A201E
:102D200003F0AEFB00210B2000F05AF80B2000F05E
:102D30003AF808B10320E4E70A2003F0A1FB2421BC
:102D4000412000F04DF8412000F02DF8242801D05A
:102D50000420D6E70A2003F093FBC021422000F0B4
:102D60003FF8422000F01FF8C02801D00520C8E736
:102D70000A2003F085FB00212A2000F0A9FE0A208A
:102D800003F07EFB0021342000F0A2FE0A2003F0B5
:102D900077FB062203210E2000F0FAFE642003F0E8
:102DA0006FFB0020ADE770B504462146322000F0ED
:102DB0008FFE0A2003F064FB8021342000F088FE9F
:102DC0000A2003F05DFB352000F030FE05460021AF
:102DD000342000F07DFE0A2003F052FB284670BD2F
:102DE00070B504460D4600212A2000F071FE022035
:102DF00003F046FB2146292000F06AFE022003F082
:102E00003FFB2946642000F063FE022003F038FBFC
:102E100081212A2000F05CFE0A2003F031FB70BD06
:102E200040B52DED048B002C45DA002D43DA94FBE0
:102E3000F5F63046FDF762FB41EC190BB0EE490A9E
:102E4000F0EE690A03F0ECF9B0EE408AF0EE608A29
:102E50009FED860B53EC102B51EC180BFDF798FBF4
:102E600014D89FED840A844880ED000A9FED830A00
:102E7000834880ED000A9FED830A834880ED000AB5
:102E80009FED820A824880ED000AEBE09FED810A07
:102E9000794880ED000A9FED800A794880ED000AAC
:102EA0009FED7E0A784880ED000A9FED7D0A784804
:102EB00080ED000AD6E0002C45DA002D43DD94FBBE
:102EC000F5F63046FDF71AFB41EC190BB0EE490A56
:102ED000F0EE690A03F0A4F9B0EE408AF0EE608AE1
:102EE0009FED620B53EC102B51EC180BFDF750FBD0
:102EF00014D89FED6C0A604880ED000A9FED5F0AD0
:102F00005F4880ED000A9FED680A5F4880ED000A87
:102F10009FED660A5E4880ED000AA3E09FED610A1E
:102F2000554880ED000A9FED620A554880ED000A81
:102F30009FED600A544880ED000A9FED5F0A5448F7
:102F400080ED000A8EE0002C45DD002D43DD94FB72
:102F5000F5F63046FDF7D2FA41EC190BB0EE490A0E
:102F6000F0EE690A03F05CF9B0EE408AF0EE608A98
:102F70009FED3E0B53EC102B51EC180BFDF708FBAB
:102F800014D89FED4E0A3C4880ED000A9FED460A9A
:102F90003B4880ED000A9FED390A3B4880ED000A6E
:102FA0009FED340A3A4880ED000A5BE09FED440A49
:102FB000314880ED000A9FED3F0A314880ED000A5C
:102FC0009FED3B0A304880ED000A9FED3D0A3048F6
:102FD00080ED000A46E0002C44DD002D42DA94FB2F
:102FE000F5F63046FDF78AFA41EC190BB0EE490AC6
:102FF000F0EE690A03F014F9B0EE408AF0EE608A50
:103000009FED1A0B53EC102B51EC180BFDF7C0FA87
:1030100014D89FED2C0A184880ED000A9FED2A0A6B
:10302000174880ED000A9FED150A174880ED000A49
:103030009FED260A164880ED000A13E09FED210A55
:103040000D4880ED000A9FED150A0D4880ED000A3D
:103050009FED1F0A0C4880ED000A9FED1E0A0C48E8
:1030600080ED000ABDEC048B40BD000000000000B4
:103070000000F03F0AD7A3BBD4000020A8C64BBE77
:10308000D8000020BE9F7A3FDC0000204ED111BC4A
:10309000E00000206F1203BC7B140EBFE17A543FA6
:1030A0006F1203BB0AD7A33B355E7ABFA69B443C95
:1030B00068910DBFE17A54BF99BB16BB52499D3A46
:1030C00099BB163B0AD7233B355E7A3F6F12033C10
:1030D000295C0FBFBC74933B2DE9F05F2DED0C8B89
:1030E00005460F4616469846DDE916949DED188A6A
:1030F000DDE919AB9FEDB40AF0EE408A9FEDB20A0C
:10310000B0EE409A9FEDB00AF0EE409ADDE91B0167
:10311000401A40B2AD490870B9F1110F75D00ADC00
:10312000B9F10B0F72D2DFE809F0DC2126ED2B3567
:1031300047ED303E5000B9F1810F68D00CDCB9F199
:10314000400F4BD0B9F1410F62D0B9F1420F75D0A9
:10315000B9F1800F5AD14DE0B9F1820F6FD0B9F5B6
:10316000807F6DD0B9F5806FF4D1B0E0B7EE000A82
:10317000F0EE408AC7E0BFEE000AF0EE408AC2E0FF
:10318000BFEE000AB0EE409ABDE0B7EE000AB0EE26
:10319000409AB8E0BEEE000AB0EE409AB6EE000AE1
:1031A000F0EE408AAFE0B6EE000AB0EE409AB6EE1E
:1031B000000AF0EE408AA6E0BEEE000AB0EE409AA9
:1031C000BEEE000AF0EE408A9DE0B6EE000AB0EED8
:1031D000409ABEEE000AF0EE408A94E0604200EEB3
:1031E000100AB8EEC00AF6EE000A20EE200AF0EE51
:1031F000409A88E000EE104AB8EEC00AF6EE000AE7
:1032000020EE200AF0EE409A7DE065E07AE018E0DA
:10321000B6EE000AF0EE408A2046FDF76FF941EC69
:103220001B0B9FED6B0B53EC102BFDF786F841EC5D
:103230001A0BFDF7C5F909EE900A64E017E02CE0DF
:1032400041E0B6EE000AF0EE408A2046FDF756F95E
:1032500041EC1B0B9FED600B53EC102BFDF76DF851
:1032600041EC1A0BFDF7ACF909EE900A4BE0BEEE0B
:10327000000AF0EE408A2046FDF740F941EC1B0BB6
:103280009FED530B53EC102BFDF757F841EC1A0B45
:10329000FDF796F909EE900A35E0BEEE000AF0EE71
:1032A000408A2046FDF72AF941EC1B0B9FED4A0BA3
:1032B00053EC102BFDF741F841EC1A0BFDF780F9A8
:1032C00009EE900A1FE00120454908721BE0022028
:1032D00043490872487216E0B7EE080AF0EE408AD9
:1032E00011E09FED390AF0EE408A9FED370AB0EE0B
:1032F000409A9FED350AF0EE409A01203849087255
:10330000487200E000BF00BF00EE104AB8EEC00AED
:1033100028EE800A10EE101A0846FDF726F99FEDF8
:10332000310B53EC102BFDF77AF841EC1B0B4046A8
:10333000FDF7F5F853EC1B2BFCF758FFFDF7FCF8F5
:103340002749C88000EE106AB8EE400AF8EEC80AB5
:1033500009EE200ABCEEC00A10EE100A8880CAF1FD
:10336000000000EBC0003844488000EE105AB8EE70
:10337000400AF0EE080A09EEA00A0BEBCB0000EEC3
:10338000900AF8EEE00A30EE200ABCEEC00A10EE19
:10339000100A08800846408840F29461884202DBA7
:1033A00008460F4948800E484088B0F5B67F03DCD8
:1033B0004FF4B6700A494880044890F90000BDEC0B
:1033C0000C8BBDE8F09F00000000000034020020DC
:1033D000000000000000E0BF000000000000E03F2F
:1033E000080C00209A9999999999E93F1CB50121F7
:1033F000202001F009F80121102001F005F8012139
:10340000802001F001F80121402000F0FDFF802024
:10341000009001208DF8040000208DF806000320A4
:103420008DF8050069464648FEF748FC04200090E8
:1034300001208DF8040000208DF8060003208DF88F
:10344000050069463F48FEF739FC0820009001203E
:103450008DF8040000208DF8060003208DF805008B
:1034600069463848FEF72AFC1020009001208DF8AC
:10347000040000208DF8060003208DF80500694641
:103480003048FEF71BFC2020009001208DF804003E
:1034900000208DF8060003208DF8050069462948B4
:1034A000FEF70CFC2020009001208DF80400002085
:1034B0008DF8060003208DF8050069462048FEF7C8
:1034C000FDFB4FF48040009001208DF804000020A7
:1034D0008DF8060003208DF8050069461A48FEF7AE
:1034E000EDFB4FF40050009002208DF80400002006
:1034F0008DF8060003208DF8050069461348FEF795
:10350000DDFB04210F48FEF746FC08210D48FEF7BD
:1035100042FC10210B48FEF73EFC20210948FEF733
:103520003AFC4FF400510948FEF735FC802104486D
:10353000FEF731FC4FF480410348FEF72CFC1CBD24
:1035400000100240001C024000140240001802401B
:103550000021016070470000F8B504460D4616468C
:103560001F4600EE104AB8EEC00A694880ED000A16
:10357000684890ED000A664880ED010A00EE105A96
:10358000B8EEC00A644880ED000A644890ED000A75
:10359000614880ED010A00EE106AB8EEC00A60488A
:1035A00080ED000A5F4890ED000A5D4880ED010A59
:1035B00000EE107AB8EEC00A5B4880ED000A5B4866
:1035C00090ED000A584880ED010A514800F0E4FCF3
:1035D000514800F0E1FC524800F0DEFC524800F097
:1035E000DBFC4B4890ED0E0ADFED510AB4EEE00A29
:1035F000F1EE10FA03DB9FED4E0A80ED0E0A44480F
:1036000090ED0E0ADFED4B0AB4EEE00AF1EE10FA8F
:1036100003D89FED480A80ED0E0A3F4890ED0E0A50
:10362000DFED430AB4EEE00AF1EE10FA03DB9FEDA2
:10363000400A80ED0E0A384890ED0E0ADFED3D0A93
:10364000B4EEE00AF1EE10FA03D89FED3A0A80EDED
:103650000E0A334890ED0E0ADFED350AB4EEE00AAB
:10366000F1EE10FA03DB9FED320A80ED0E0A2C48D2
:1036700090ED0E0ADFED2F0AB4EEE00AF1EE10FA3B
:1036800003D89FED2C0A80ED0E0A274890ED0E0A14
:10369000DFED270AB4EEE00AF1EE10FA03DB9FED4E
:1036A000240A80ED0E0A204890ED0E0ADFED210A73
:1036B000B4EEE00AF1EE10FA03D89FED1E0A80ED99
:1036C0000E0A02F0DFFF184890ED0E0ABDEEC00AA8
:1036D00010EE100A00B20090114890ED0E0ABDEEF7
:1036E000C00A10EE100A03B20B4890ED0E0ABDEEB0
:1036F000C00A10EE100A02B2054890ED0E0ABDEEA7
:10370000C00A10EE100A01B20B4801F0AFFAF8BD82
:10371000E00300208C0000203404002090000020F2
:103720008804002094000020DC0400209800002081
:1037300000409C4500409CC5006400402DE9F043DA
:1037400004460D46DDE9076700200021012041E025
:10375000DFF8D8C13CF81080A0F1010CDFF8CC9163
:1037600029F81C8009F1160C3CF81090A0F1010C0E
:10377000DFF8B88108F1160828F81C9008F1160C3B
:103780003CF81090A0F1010C08F1160828F81C90E4
:1037900008F1160C3CF81090A0F1010C08F1160885
:1037A00028F81C9008F1160C3CF81090A0F1010CC0
:1037B00008F1160828F81C9008F1160C3CF8109037
:1037C000A0F1010C08F1160828F81C9000F1010C7A
:1037D0000CF0FF000A28BBDBDFF850C1ACF8124048
:1037E000ACF82850ACF83E20ACF85430ACF86A6025
:1037F000ACF88070002008E0DFF830C13CF910C060
:10380000614400F1010C0CF0FF000A28F4DB4FF0DA
:103810000A0C91FBFCFC0FFA8CFCDFF81081A8F875
:1038200014C0002100200AE0DFF800C10CF1160CE2
:103830003CF910C0614400F1010C0CF0FF000A28B3
:10384000F2DB4FF00A0C91FBFCFC0FFA8CF8DFF86E
:10385000DCC0ACF82A80002100200AE0DFF8CCC0F0
:103860000CF12C0C3CF910C0614400F1010C0CF07F
:10387000FF000A28F2DB4FF00A0C91FBFCFC0FFA68
:103880008CF8DFF8A8C0ACF84080002100200AE0E6
:10389000DFF898C00CF1420C3CF910C0614400F113
:1038A000010C0CF0FF000A28F2DB4FF00A0C91FB30
:1038B000FCFC0FFA8CF8DFF874C0ACF856800021DD
:1038C00000200AE0DFF864C00CF1580C3CF910C08D
:1038D000614400F1010C0CF0FF000A28F2DB4FF00C
:1038E0000A0C91FBFCFC0FFA8CF8DFF840C0ACF836
:1038F0006C80002100200AE0DFF830C00CF16E0C73
:103900003CF910C0614400F1010C0CF0FF000A28E2
:10391000F2DB4FF00A0C91FBFCFC0FFA8CF8DFF89D
:103920000CC0ACF88280BDE8F083000038090020AC
:1039300010B58AB04020089001208DF824000020A6
:103940008DF826008DF8270003208DF8250008A9A2
:103950001348FEF7B3F9FFF7ADF900241C22114913
:1039600001A8FCF731FC642002F08AFD752000F00C
:103970005DF80D49087000BF0DE001AA02EB44029A
:10398000517801AA12F8140000F0A2F8012002F008
:1039900077FD601CC4B20E2CEFDB00200AB010BD16
:1039A00000140240006E00084801002000B585B0F8
:1039B0000121880300F058FD0121102000F024FDB2
:1039C0000220039000208DF810008DF812000120D5
:1039D0008DF8130002208DF8110003A91248FEF79C
:1039E0006DF90121042001F091F8022000900020DF
:1039F0008DF804000C208DF8050001208DF80600DC
:103A00006846FEF705F807208DF8080002208DF8BB
:103A1000090000208DF80A0001208DF80B0002A893
:103A200000F074FA05B000BD0010024010B5044665
:103A300040210D48FEF7ADF944F080000B490870B5
:103A40000846007801F00CF809490870074800782A
:103A500001F006F80649087040210348FEF79BF97B
:103A60000348007810BD0000001402406A010020E5
:103A7000690100202DE9F04105460E461746002455
:103A800040211048FEF785F945F080000E49087086
:103A9000084600780D4908700B48007800F0E0FFF8
:103AA00000BF05E00949085D00F0DAFF3055641CED
:103AB000BC42F7DB40210348FEF76DF90020BDE86A
:103AC000F0810000001402406B0100206C01002016
:103AD00070B505460C4640210A48FEF75AF905F034
:103AE0007F00094908700846007800F0B9FF0648D1
:103AF0000470007800F0B4FF40210248FEF74BF953
:103B0000002070BD00140240680100202DE9FC4730
:103B100004460D4616461F46DDE90A89002019496C
:103B20000870FEF7CDFE1848B0F90C001649B1F93F
:103B30000A10DFF854C0CDE90010BCF90830BCF918
:103B40000420BCF90210BCF90000FFF7F7FD0F4894
:103B5000808A20800D48408D28800C48B0F84000B5
:103B600030800A48B0F8560038800848B0F86C0039
:103B7000A8F800000548B0F88200A9F80000BDE8E8
:103B8000FC8700003C0100201009002038090020BB
:103B900070B504460E46154621462820FFF798FFCB
:103BA000022002F06DFC0A212920FFF791FF02207C
:103BB00002F066FC01216420FFF78AFF022002F078
:103BC0005FFC44F080012520FFF782FF022002F015
:103BD00057FC31462620FFF77BFF022002F050FC05
:103BE00003213420FFF774FF022002F049FC032177
:103BF0006720FFF76DFF022002F042FC81212A209E
:103C0000FFF766FF062002F03BFC45F0800127200D
:103C1000FFF75EFF072002F033FC70BD00BFFEE738
:103C200070B504460D46FEF7C5F9002878D028780F
:103C300000F0100040B14FF42570664908804FF441
:103C400048706549088007E04FF4FA7061490880C0
:103C50004FF42F7060490880287800F0010090B17F
:103C60005E48016988475B48008800EE900AF8EEDC
:103C7000600A20EE200ABDEEC00A10EE100A00B263
:103C8000574908801AE0287800F0020098B153489C
:103C9000016988474F480088404200EE900AF8EEDC
:103CA000E00A20EE200ABDEEC00A10EE100A00B2B3
:103CB0004B49088002E0002049490880287800F03C
:103CC000040098B14748016988474348008840424A
:103CD00000EE900AF8EEE00A20EE200ABDEEC00ADF
:103CE00010EE100A00B23E49488019E0287800F032
:103CF000080090B13B48016988473748008800EECA
:103D0000900AF8EE600A20EE200ABDEEC00A10EE1E
:103D1000100A00B23249488002E000203049488051
:103D2000FEF748F902283CD1B4F9000010F1960FD3
:103D300003DC6FF09500208005E0B4F900009628C0
:103D400001DB96202080B4F9020010F1960F03DC0D
:103D50006FF09500608005E0B4F90200962801DB61
:103D600096206080204890ED000AB4F9020000EE31
:103D7000900AF8EEE00A9FED1D1A00EEC10A1A48FB
:103D800080ED000A90ED010AB4F9000000EE900AFF
:103D9000F8EEE00A9FED151A00EE810A124880ED58
:103DA000010AB4F9020000EE100AB8EEC00A0E488B
:103DB00080ED040AB4F9000000EE100AB8EEC00A63
:103DC000094880ED050AFEF7FFF8204600F010F8DC
:103DD00070BD0000580700205A070020300700205F
:103DE000DC0600200C0700202C0C0020CDCCCC3CA5
:103DF00070B5044600253F48007820B1012812D054
:103E0000022873D14FE0E07960B9607A012809D1C6
:103E1000002000F0AFFE384881698847012035490D
:103E20000870002562E0607A012802D1681C05B2A2
:103E300000E00025322D0FDD00202E4908704FF4E0
:103E40007A702E490860091D08602B4881698847EF
:103E5000002000F08FFE25E0274801698847DFED4C
:103E6000280A9FED281A41EE000ABCEEE00A10EE87
:103E7000100A22490860204801698847DFED200ABE
:103E80009FED201A41EE000ABCEEE00A10EE100A87
:103E90001A49091D08601848016A884710B10220B4
:103EA0001449087022E0607A012802D1681C05B22A
:103EB00000E00025322D0FDD00200E4908704FF480
:103EC0007A700E490860091D08600B4881698847AF
:103ED000002000F04FFE08E0207A012802D100F017
:103EE00049FE02E0002000F045FE00BF00BF607AFE
:103EF000E07170BDE4060020E8060020340C0040AC
:103F000000007A44000016447047000070B500219C
:103F100000230F22C4781CB3174C246804F4E06417
:103F2000C4F5E064C4F30721C1F10404E3B20A411B
:103F300044789C40E1B28478144021430C07210E60
:103F40000E4C05786155047804F01F050124AC403F
:103F500005786D11AD0005F1E025C5F8004109E0D7
:103F6000047804F01F050124AC40054D0678761155
:103F700045F8264070BD00000CED00E000E400E0D4
:103F800080E100E002490143024A116070470000ED
:103F90000000FA050CED00E090ED030A80ED020A46
:103FA00090ED000AD0ED010A30EE600A80ED030AC0
:103FB00090ED040AD0ED030A30EE200A80ED040AE9
:103FC00090ED060AD0ED0C0AF1EE600AB4EEE00ABC
:103FD000F1EE10FA06D890ED0C0AB1EE400A80ED31
:103FE000060A0CE090ED060AD0ED0C0AB4EEE00AE9
:103FF000F1EE10FA03DB90ED0C0A80ED060A90ED6D
:10400000050AD0ED030A20EE200AD0ED060A90ED55
:10401000041A00EE810AD0ED030A90ED021A70EE48
:10402000C10A90ED071A01EE200A80ED0E0A90ED0C
:104030000E0AD0ED0F0AF1EE600AB4EEE00AF1EEDE
:1040400010FA06D890ED0F0AB1EE400A80ED0E0A84
:104050000CE090ED0E0AD0ED0F0AB4EEE00AF1EE9E
:1040600010FA03DB90ED0F0A80ED0E0A7047000096
:104070009FED080A80ED020A9FED060A80ED030A13
:104080009FED040A80ED040A9FED020A80ED0E0AFE
:10409000704700000000000090ED030A80ED020A66
:1040A00090ED000AD0ED010A30EE600A80ED030ABF
:1040B00090ED040AD0ED030A30EE200A80ED040AE8
:1040C00090ED030A3A49D1ED000A20EE200AD0ED26
:1040D000040A384991ED001A01EE600AD0ED030A96
:1040E00090ED021A70EEC10A334991ED001A01EE0B
:1040F000200A324981ED000A314991ED000A314927
:1041000081ED000A2D4991ED000A2F49D1ED000AF9
:1041100030EE600A2A4981ED000A2C4991ED000A2F
:104120002749D1ED000A30EE200A284981ED000A26
:10413000274991ED000A2249D1ED000A20EE200A1C
:104140002449D1ED000A214991ED001A00EE810ABF
:104150001B49D1ED000A1B4991ED001A70EEC10A0E
:104160001D4991ED001A01EE200A80ED0E0A90ED36
:104170000E0AD0ED0F0AF1EE600AB4EEE00AF1EE9D
:1041800010FA06D890ED0F0AB1EE400A80ED0E0A43
:104190000CE090ED0E0AD0ED0F0AB4EEE00AF1EE5D
:1041A00010FA03DB90ED0F0A80ED0E0A7047000055
:1041B000980700209C070020A0070020B0070020DF
:1041C000B8070020B40700209C000020BC07002096
:1041D000A4070020A8070020AC07002000B58BB082
:1041E0000121080200F010F90121082000F01CF95B
:1041F0000120099002208DF8280003208DF8290065
:1042000000208DF82A0001208DF82B0009A91C48F8
:10421000FDF754FD022200211948FDF797FD40F2F9
:104220004730ADF818000020ADF81A0040F2CF700A
:1042300007900020ADF8200006A9124800F0BAFE51
:104240007020ADF804000120ADF8060000200390B6
:104250000220ADF8100001A90A4800F061FE00201C
:1042600003900821074800F097FE0121054800F05F
:104270001FFE0121034800F02DFE0BB000BD000021
:1042800000200240000C00407047000071EE401A10
:104290004C4991ED002A71EE821AC1ED001AD1ED60
:1042A000001A9FED492AF4EEC21AF1EE10FA04DD6D
:1042B000DFED451AC1ED001A0DE04249D1ED001ABB
:1042C0009FED422AF4EEC21AF1EE10FA03D2DFEDAE
:1042D0003F1AC1ED001A3E49D1ED001A71EE611A84
:1042E0003C49C1ED001A71EE401A3B4991ED002A9C
:1042F00061EE821A394991ED002A3249D1ED002A46
:1043000042EE221A364991ED002A3249D1ED002AB7
:1043100042EE621A3349C1ED001A2D4981ED001AAF
:104320003049D1ED001AF1EE611AB1EE022A40EEE9
:10433000821A2D4991ED002AB1EE422A61EE821ACD
:104340002A49C1ED001A2A49D1ED001A70EEE11A8E
:10435000284991ED002A61EE821A2749C1ED001A21
:104360002249D1ED001A244991ED002A71EE821AFA
:104370002249C1ED001AD1ED001A9FED212AF4EE79
:10438000C21AF1EE10FA03DBDFED1D1AC1ED001ABF
:104390001A49D1ED001A9FED1B2AF4EEC21AF1EE74
:1043A00010FA03D8DFED171AC1ED001A1049C1ED5C
:1043B000000A1249D1ED001AFDEEE11A11EE901A31
:1043C00008B27047C407002000007A4400007AC495
:1043D000C8070020CC070020D4070020D807002001
:1043E000DC070020D0070020EC070020E4070020B5
:1043F000F4070020F0070020E8070020F80700205D
:1044000000C0DA4600C0DAC629B1064A1268024383
:10441000044B1A6004E0034A12688243014B1A609D
:10442000704700003038024029B1064A1268024342
:10443000044B1A6004E0034A12688243014B1A607D
:10444000704700004038024029B1064A1268024312
:10445000044B1A6004E0034A12688243014B1A605D
:10446000704700002038024029B1064A1268024312
:10447000044B1A6004E0034A12688243014B1A603D
:10448000704700004438024029B1064A12680243CE
:10449000044B1A6004E0034A12688243014B1A601D
:1044A0007047000024380240F0B5002100220024AB
:1044B000022500260223324F3F6807F00C0121B18C
:1044C000042905D0082937D105E02E4F076036E0D2
:1044D0002D4F076033E02A4F3F1F3F68C7F38056D8
:1044E000274F3F1F3F6807F03F036EB1264FB7FBD2
:1044F000F3F7DFF88CC0ACF1040CDCF800C0CCF3AF
:10450000881C07FB0CF40CE01E4FB7FBF3F7DFF839
:1045100070C0ACF1040CDCF800C0CCF3881C07FBC5
:104520000CF4174F3F1F3F68C7F301477F1C7D0006
:10453000B4FBF5F7076002E0124F076000BF00BF51
:104540000F4F3F6807F0F0010909104F7A5C0768C8
:10455000D74047600A4F3F6807F4E051890A0B4F84
:104560007A5C4768D7408760054F3F6807F4604131
:10457000490B064F7A5C4768D740C760F0BD000022
:10458000083802400024F400001BB700B8000020E7
:104590000168491C0160D0E9001291420ADA90EDED
:1045A000000AF8EEC00A90ED010AB8EEC01A80EEDB
:1045B000810A7047B7EE000AFBE770470146D1E970
:1045C0000002904201DA002070470120FCE7002140
:1045D00001607047016070474160704710B5044644
:1045E000FDF7E8FCB8B3B4F90200A0F5806000EE76
:1045F000100AB8EEC00AF7EE000A20EE200ABDEE5F
:10460000C00A10EE100A00B268490880B4F9000030
:10461000A0F5806000EE100AB8EEC00AF7EE000ABE
:1046200020EE200ABDEEC00A10EE100A00B248804B
:10463000B4F90400A0F5806000EE100AB8EEC00ADC
:10464000F7EE000A20EE200ABDEEC00A10EE100AB6
:1046500000B2C88004E0FFE7002054490880488089
:10466000FDF7A8FC022842D1514890ED000AB4F9A8
:104670000600A0F5806000EE900AF8EEE00A9FEDDB
:104680004D1A00EE810A4A4880ED000A4A48007A35
:1046900002286DD0494890ED100ADFED490AB4EECA
:1046A000E00AF1EE10FA23DDB4F90400A0F5806011
:1046B00000EE100AB8EEC00ADFED3E0A20EE200A36
:1046C000B5EEC00AF1EE10FA52DD394890ED010A5C
:1046D000B4F90400A0F5806000EE900AF8EEE00A5C
:1046E0009FED341A00EE810A314880ED010A3FE067
:1046F000324890ED100ADFED330AB4EEE00AF1EE35
:1047000010FA23D2B4F90400A0F5806000EE100A7C
:10471000B8EEC00ADFED270A20EE200AB5EEC00A87
:10472000F1EE10FA24D2224890ED010AB4F9040007
:10473000A0F5806000EE900AF8EEE00A9FED1D1AE9
:1047400000EE810A1A4880ED010A11E0184890ED48
:10475000010AB4F90400A0F5806000EE900AF8EEBA
:10476000E00A9FED141A00EE810A114880ED010A5B
:10477000B4F90600A0F5806000EE100AB8EEC00A99
:104780000B4880ED040AB4F90400A0F5806000EE47
:10479000100AB8EEC00A064880ED050AFDF714FCC1
:1047A000217A094800F086F810BD0000DC060020E0
:1047B0002C0C00206F12833B140C0020140B0020E3
:1047C00000007042000070C2440C002010B5044686
:1047D00004B910BD2078617840EA0120C0F30A00D6
:1047E000334908806078C010A17840EA4110C0F3D6
:1047F0000A002F494880A0788011E17840EA8100C2
:10480000217940EA8120C0F30A0029498880207973
:104810004010617940EAC110C0F30A002449C88001
:1048200060790011800808726079C0F30110487245
:10483000A079E17940EA012000B21D494881207A3F
:10484000617A40EA012001B219488181A07AE17AB7
:1048500040EA012001B21648C181217B8174617B4D
:10486000C174A07B12498882207C617C40EA0120CF
:10487000C0F30A000E49C882084600F067F9FDF748
:1048800095FA012804D002280DD003280CD103E0AA
:104890000748FFF7A3FE07E005491431A1F10A001C
:1048A000FFF7BEF900E000BF00BF00BF91E70000C6
:1048B000140C002070B504460D4629462046FDF72D
:1048C0003BFB3748007820B101280FD0022865D182
:1048D00046E060780D2808D1002000F04BF93148FF
:1048E0008169884701202E49087057E060780D28BB
:1048F0000FD1002000F03EF94FF47A702A49086089
:10490000091D0860002026490870264881698847EB
:1049100025E0244801698847DFED240A9FED241A29
:1049200041EE000ABCEEE00A10EE100A1E490860D3
:104930001C4801698847DFED1D0A9FED1D1A41EEF5
:10494000000ABCEEE00A10EE100A1749091D0860C3
:104950001448016A884710B10220114908701DE00F
:1049600060780D280FD100200D4908704FF47A703F
:104970000D490860091D08600A48816988470020C0
:1049800000F0F8F809E02078022803D1012000F0B7
:10499000F1F802E0002000F0EDF800BF00BF70BDAC
:1049A000E4060020E8060020340C004000007A44B1
:1049B0000000164400B587B001212020FFF724FD38
:1049C00001210805FFF750FD4FF4607005900220AB
:1049D0008DF8180000208DF81A0003208DF81900BA
:1049E00000208DF81B0005A91B48FDF767F905227B
:1049F00007211948FDF7AAF9052208211648FDF7F5
:104A0000A5F9052209211448FDF7A0F90020ADF809
:104A100000004FF48270ADF802000020ADF80400F1
:104A2000ADF80600ADF808004FF40070ADF80A00CC
:104A30003820ADF80C000020ADF80E000A20ADF8CB
:104A400010006946054800F041F80121034800F0D4
:104A500023F807B000BD00000014024000500140E0
:104A600010B5044600BF02210A4800F021F80028D2
:104A7000F9D02146074800F027F800BF012105487A
:104A800000F016F80028F9D0024800F01AF8C0B279
:104A900010BD00000050014021B1028842F04002E8
:104AA000028004E002884FF6BF731A40028070470C
:104AB0000246002013890B400BB1012000E00020CA
:104AC00070470146888970478181704710B5002280
:104AD000028802F441520B884C8823438C8823437C
:104AE000CC8823430C8923434C8923438C8923435B
:104AF000CC8923431A430280838B4FF2FF742340F7
:104B000083830B8A038210BD7047000030B50022FA
:104B10008B071C0F0F2303FA04F20B4B8C1053F876
:104B200024309343084C8D1044F8253023468C10D4
:104B300053F824308C07240F00FA04F42343024C6A
:104B40008D1044F8253030BD08380140417A0129E4
:104B500002D1074A11700AE0417A032902D1044ABE
:104B6000117004E0417A022901D1014A11707047A5
:104B7000E60600200149087070470000E5060020A5
:104B80000CB50020019000903448006840F480305B
:104B90003249086000BF3148006800F400300090DE
:104BA0000198401C0190009818B90198B0F5A04FE9
:104BB000F1D12A48006800F4003010B101200090C3
:104BC00001E0002000900098012846D123484030A1
:104BD000006840F08050214940310860204800685A
:104BE00040F440401E4908601C48083000681B49DA
:104BF000083108600846006840F400400860084634
:104C0000006840F4A05008601648091F0860081F9B
:104C1000006840F08070091F086000BF0F480068FE
:104C200000F000700028F9D040F205600E490860DD
:104C30000A480830006820F003000849083108607D
:104C40000846006840F00200086000BF03480830D2
:104C5000006800F00C000828F8D10CBD00380240B4
:104C6000007000400C544007003C02402DE9F04128
:104C700086B080460C4615461E460C9F4FF40070C9
:104C8000019000208DF80C008DF80D0008208DF8A3
:104C90000E00200A8DF80F008DF81040290A8DF8BB
:104CA00011108DF81250310A8DF813108DF8146020
:104CB000390A8DF815108DF8167001A94046FCF7D9
:104CC000BCFC06B0BDE8F0812DE9F04186B080461D
:104CD0000C4615461E460C9F40F2FF100190002026
:104CE0008DF80C008DF80D0008208DF80E00200ABC
:104CF0008DF80F008DF81040290A8DF811108DF8ED
:104D00001250310A8DF813108DF81460390A8DF89D
:104D100015108DF8167001A94046FCF78EFC06B000
:104D2000BDE8F0812DE9F04186B080460C4615467D
:104D30001E460C9F17480068401C164908604FF437
:104D40000070019000208DF80C008DF80D000820F7
:104D50008DF80E00200A8DF80F008DF81040290AFA
:104D60008DF811108DF81250310A8DF813108DF84E
:104D70001460390A8DF815108DF8167001A9404697
:104D8000FCF75BFC04480068401C0349086006B05F
:104D9000BDE8F081B4010020B801002010B515482D
:104DA000006840F47000134908601348006840F040
:104DB00001001149086000200F49083108600E48C1
:104DC00000680E4908400C4908600D48091D08603C
:104DD000081F006820F48020091F08600020064991
:104DE0000C310860FFF7CCFE4FF0006001498039BC
:104DF000086010BD88ED00E000380240FFFFF6FEBD
:104E0000103000240EB501210846FFF70DFB4FF0CE
:104E1000FF300190A720ADF800000020ADF802009F
:104E2000ADF808000121880700F042F869464FF00C
:104E3000804000F0BFF80121880700F04BF80EBD5C
:104E400010B50121880700F051F838B10121880719
:104E500000F03DF80121880700F036F810BD000091
:104E600010B50121074800F041F850B108E04FF4B7
:104E70007A7001F005FB04480088401C0249088054
:104E8000F5E710BD001000403000002010B50121F2
:104E9000064800F01FF801221146044800F037F8D8
:104EA0000121024800F010F810BD00000010004081
:104EB00021B1028842F08002028004E002884FF6AD
:104EC0007F731A4002807047CA4302827047CA4308
:104ED0000282704721B1028842F00102028004E0A0
:104EE00002884FF6FE731A400280704730B50246C2
:104EF000002000230024158A05EA0103958905EAAC
:104F0000010413B10CB1012000E0002030BD1AB142
:104F100083890B43838102E083898B4383817047BC
:104F200070B5002200230024058C4EF6FF76354034
:104F30000584038C8488828B48F6FF752A404FF6DF
:104F4000FF452A400D884FF6FF7606EA05252A43DD
:104F50004DF6FF752B408D8906EA05352B434D88AC
:104F600006EA05352B430A4DA84202D0094DA84256
:104F700008D14BF6FF752C400D8A4FF6FF7606EAF6
:104F800085152C43848082838D680564038470BDFD
:104F900000000140000401400A460021818B4FF2CD
:104FA000FF7319404FF6FF7303EA0223194381830D
:104FB0007047000000220288184B98420ED0184B10
:104FC00098420BD0B0F1804F08D0164B984205D0D4
:104FD000154B984202D0154B984204D14FF68F736F
:104FE0001A404B881A43124B984207D0114B9842F3
:104FF00004D04FF6FF431A400B891A4302804B68D6
:10500000C3620B880385054B984202D0044B98423B
:1050100001D18B7A0386012383827047000001400F
:10502000000401400004004000080040000C004063
:10503000001000400014004000B597B0012102208C
:10504000FFF7E2F901218805FFF7DEF901211020C1
:10505000FFF70AFA072211464248FCF777FE15A827
:10506000FCF79BFE8020159002208DF85800002050
:105070008DF8590001208DF85B0015A93948FCF71F
:105080001DFE394800F0B8FA11A800F0CEFB3748F1
:1050900011900020ADF84800ADF84A004FF4806050
:1050A000ADF84C000420ADF84E000020ADF85000E3
:1050B00011A92D4800F04AFB012240212A4800F0A6
:1050C00092FA2B48FCF760FB01A8FCF75BFC4FF061
:1050D000006001902448001D0290264803900020A3
:1050E00004901E200590002006904FF480600790E9
:1050F0000020089009904FF480700A9000020B90F5
:1051000000200C900D900E900F9001A91848FCF70C
:105110000DFC002217491E311548FCF7ECFB01215C
:105120001348FCF7DDFB01211148FCF722FB252089
:105130008DF8400000208DF841008DF842000120DC
:105140008DF8430010A8FEF7E1FE012240F2244151
:10515000054800F0D5FA0121034800F038FA17B0ED
:1051600000BD00000004024000100140A0860100C4
:10517000406402405408002010B540F224412E48FB
:1051800000F094FA002855D02B4800882A488088DF
:105190002A48FCF7C0FB30BB00212848FCF7E9FA9D
:1051A0002648FCF7B4FBC0F11E00254908601E200C
:1051B0002249091D0860081F006840F40020091FEB
:1051C000086001211D48FCF7D4FA1D480068122828
:1051D00030D11C48FFF7FAFA0020FCF7EDFD044639
:1051E000FEF7B6F926E000211448FCF7C2FA13488E
:1051F000FCF78DFBC0F11E00114908601E200F490D
:10520000091D0860081F006820F40020091F0860BD
:1052100001210A48FCF7ADFA09480068122809D1B3
:1052200008481E30FFF7D2FA0020FCF7C5FD0446FF
:10523000FEF78EF910BD00000010014040640240EE
:10524000340000205408002000B587B00121402020
:10525000FFF7DAF801212020FFF706F908220E21D6
:105260002248FCF773FD082209212048FCF76EFD57
:105270004FF48440059002208DF818008DF8190035
:1052800000208DF81A008DF81B0005A91748FCF7BF
:1052900015FD4FF4E13001900020ADF80800ADF8A5
:1052A0000A00ADF80C00ADF810000C20ADF80E00AF
:1052B00001A90F4800F04AFA01210D4800F087F9D2
:1052C000012240F225510A4800F01AFA47208DF8D1
:1052D000000002208DF801008DF8020001208DF8F9
:1052E00003006846FEF712FE07B000BD001802403A
:1052F0000014014000B587B001210820FFF784F8B1
:1053000001218804FFF790F8072208212248FCF7C2
:105310001DFD072209212048FCF718FD4FF44070BD
:10532000059002208DF818008DF8190000208DF8E6
:105330001A008DF81B0005A91748FCF7BFFC4FF4B5
:10534000E13001900020ADF80800ADF80A00ADF89A
:105350000C00ADF810000C20ADF80E0001A90F48AC
:1053600000F0F4F901210D4800F031F9012240F27A
:1053700025510A4800F0C4F927208DF800000320C9
:105380008DF801008DF8020001208DF803006846B9
:10539000FEF7BCFD07B000BD000C02400048004015
:1053A00010B53C48008800F0080020B14FF4587157
:1053B000384800F003F940F22551364800F076F9FC
:1053C000002865D0344800F02BFAC4B23348007886
:1053D00048B9B52C01D0002002E030480078401CCC
:1053E0002E49087054E02D480078012808D10CB1EE
:1053F000002002E029480078401C2849087047E056
:1054000026480078022815D1012C08D10120244912
:10541000087022480078401C2049087038E0022CAF
:1054200036D101201F4908701C480078401C1B49D8
:1054300008702DE019480078022829DD1848007806
:1054400088B116480078C01E17490C5413480078DC
:10545000401C1249087008460078062803DD002029
:1054600008700F4908700F48007888B10B48007821
:10547000C01E0E490C5409480078401C07490870AA
:1054800008460078042803DD0020087005490870EC
:1054900010BD0000004800400044004040000020D3
:1054A0003E0000203F000020380000203C0000208B
:1054B00010B53D48008800F0080020B14FF4587145
:1054C0003A4800F07BF840F22551374800F0EEF8FA
:1054D000002868D0344800F0A3F9C4B234480078FA
:1054E00048B9A52C01D0002002E031480078401CCA
:1054F0002F49087057E02E480078012809D10E2C5A
:1055000001D0002002E02A480078401C2849087099
:1055100049E027480078022808D10CB1002002E0B9
:1055200023480078401C224908703CE0204800785D
:10553000052805DA1E480078401C1D49087032E035
:105540001B480078052809D1022C01D0002002E078
:1055500017480078401C1649087024E01448007869
:10556000062809D1022C01D0002002E01048007862
:10557000401C0F49087016E00D480078062812DD1F
:105580000B480078C01F0B490C5409480078401C98
:105590000749087008460078142804DD00200870C8
:1055A00001200549087010BD00140140004800406A
:1055B000A9000020A0080020A800002001F400722B
:1055C000B2F5007F00D100BFCA430280704721B10D
:1055D000828942F40052828104E082894DF6FF7391
:1055E0001A40828170471AB1838A0B43838202E09A
:1055F000838A8B438382704710B5044625488442D2
:1056000008D101211020FEF73FFF00211020FEF7F6
:105610003BFF3EE02048844209D101214804FEF7C7
:1056200013FF00214FF40030FEF70EFF31E01B485E
:10563000844209D101218804FEF706FF00214FF4BE
:105640008020FEF701FF24E01548844209D10121A2
:10565000C804FEF7F9FE00214FF40020FEF7F4FE27
:1056600017E01048844209D101210805FEF7ECFE3D
:1056700000214FF48010FEF7E7FE0AE00A4884425A
:1056800007D101212020FEF7FFFE00212020FEF798
:10569000FBFE10BD001001400044004000480040E7
:1056A000004C0040005000400014014070B502461C
:1056B000002400230025002040F66A16B14200D1E4
:1056C00000BFC1F3421501F01F03012606FA03F3E0
:1056D000012D02D19689334006E0022D02D1168AAF
:1056E000334001E0968A33400C12012606FA04F496
:1056F0001688344013B10CB1012000E0002070BDC9
:10570000F0B50346002400260025002040F66A1765
:10571000B94200D100BF1846C1F3421401F01F0680
:10572000012707FA06F5012C01D10C3004E0022C08
:1057300001D1103000E014301AB107682F43076020
:1057400002E00768AF430760F0BD00002DE9FF47A6
:1057500005460E460024A14600BFA046B08900B110
:1057600000BF2C8A24F44054F08804432C82AC8976
:1057700041F20C608443B088318908437189084341
:105780000443AC81AC8A24F44074B0890443AC82F5
:105790006846FEF789FE2048854202D01F488542B0
:1057A00002D1DDF80C9001E0DDF80890A88900F442
:1057B000004040B109EBC90000EB09103168490015
:1057C000B0FBF1F707E009EBC90000EB0910316805
:1057D0008900B0FBF1F76420B7FBF0F00401200969
:1057E000642101FB1078A88900F4004040B1322008
:1057F00000EBC800B0FBF1F000F00700044308E044
:10580000322000EB08106421B0FBF1F000F00F0033
:1058100004432C81BDE8FF870010014000140140C3
:1058200001468888C0F3080070474FF416510160A4
:1058300000218180C18001810C2141810021818171
:10584000704700BFFEE7000071EE401A4C4991ED31
:10585000002A71EE821AC1ED001AD1ED001A9FEDF7
:10586000492AF4EEC21AF1EE10FA04DDDFED451A12
:10587000C1ED001A0DE04249D1ED001A9FED422A18
:10588000F4EEC21AF1EE10FA03D2DFED3F1AC1EDC9
:10589000001A3E49D1ED001A71EE611A3C49C1ED82
:1058A000001A71EE401A3B4991ED002AB1EE422AEE
:1058B00061EE821A384991ED002A3149D1ED002A72
:1058C00042EE221A354991ED002A3149D1ED002AE4
:1058D00042EE221A3249C1ED001A2C4981ED001A1C
:1058E0002F49D1ED001AB0EE0C2A40EEC21A2D4914
:1058F00091ED002A61EE821A2B49C1ED001A2B4965
:10590000D1ED001A70EEE11A294991ED002A61EEFD
:10591000821A2849C1ED001A2349D1ED001A254900
:1059200091ED002A71EE821A2349C1ED001A1F4938
:10593000C1ED000A2049D1ED001A9FED202AF4EEB6
:10594000C21AF1EE10FA03DBDFED1C1AC1ED001AEA
:105950001949D1ED001A9FED1A2AF4EEC21AF1EEA0
:1059600010FA03D8DFED161AC1ED001A1249D1ED75
:10597000001AFDEEE11A11EE901A08B2704700000D
:10598000FC07002000007A4400007AC400080020D0
:10599000040800200C080020100800201408002033
:1059A00008080020240800201C0800202C080020E3
:1059B00028080020200800203008002000C0DA4617
:1059C00000C0DAC603B401984100009850EAC12033
:1059D00018BF04204A0D18BF40F0010040F2FF72CA
:1059E000B2EB515F08BF40F00200012808BF05205C
:1059F00002B070470000000070B5C1482DED020BE9
:105A00002DED0E8B82B0119D25F000449FEDBEDB85
:105A10009FEDBFEB84423EDBA4F140511098A1F111
:105A20007F6108430FD0BC48844202DC28D1109823
:105A300030B39DED100B02B0BDEC0E8B02B0BDE893
:105A4000704000F0B0BC9DED100B53EC1D2B51ECE1
:105A5000100BFAF772FC9DED100B41EC180B53EC98
:105A60001E2B51EC100BFAF768FC53EC182BFAF7CD
:105A7000BDFB41EC100B02B0BDEC0E8B02B070BD53
:105A8000012000F0D5FC02B0BDEC0E8B02B0BDE8E9
:105A9000704000F09DBCA1489FEDA18B844256DA76
:105AA0009DED100BB4F1795F0ADA51EC100BFFF7A2
:105AB00089FF042808BF00F09BFC9DED100BDAE77E
:105AC00053EC102B51EC100BFAF737FC41EC190B8F
:105AD00095480621B0EE490AF0EE690A784400F0D4
