:020000040800F2
:10000000901700209D010008A91F0008E9150008AD
:10001000BD1C0008F9030008693600080000000054
:10002000000000000000000000000000092A000895
:10003000591100080000000015230008B501000850
:10004000B7010008B7010008B7010008B7010008B0
:10005000B7010008B7010008B70100088D110008BA
:10006000B7010008B7010008B7010008B701000890
:10007000B7010008B7010008B7010008B701000880
:10008000B7010008B7010008B7010008B701000870
:10009000F1040008B7010008B7010008B701000823
:1000A000B7010008B7010008B7010008B701000850
:1000B000112C0008B7010008B7010008B7010008BB
:1000C000B7010008B7010008B7010008B701000830
:1000D000B701000815300008913100081D320008F2
:1000E000B7010008B7010008B7010008B701000810
:1000F000B7010008B7010008B7010008B701000800
:10010000B7010008B7010008B7010008B7010008EF
:10011000B7010008B70100087D2C0008B7010008EE
:10012000B7010008B7010008B7010008B7010008CF
:10013000B7010008B7010008B7010008B7010008BF
:10014000B7010008B7010008B7010008B7010008AF
:10015000B7010008B7010008B701000851330008D3
:10016000B7010008B7010008B7010008B70100088F
:10017000B7010008B7010008B7010008B70100087F
:10018000B7010008B7010008DFF80CD000F0D0F884
:1001900000480047BD3600089017002006488047F9
:1001A00006480047FEE7FEE7FEE7FEE7FEE7FEE75C
:1001B000FEE7FEE7FEE7FEE76D2B00088901000879
:1001C00040EA01039B0703D009E008C9121F08C0D9
:1001D000042AFAD203E011F8013B00F8013B521E59
:1001E000F9D270470EB5C10F80EAE0700844CA0723
:1001F000002140F233438DE80E000A460B4600F022
:1002000049F803B000BD000030B5041E71F10004D0
:1002100004DB4FF00044404264EB0101141E73F113
:10022000000405DB1C464FF00043524263EB04031D
:10023000994208BF904230BD202A04DB203A00FAE0
:1002400002F1002070479140C2F1200320FA03F32D
:10025000194390407047202A04DB203A21FA02F02B
:100260000021704721FA02F3D040C2F120029140F0
:1002700008431946704710B5141E73F1000408DADC
:10028000401C41F1000192185B411A4301D120F05A
:10029000010010BD2DE9F04D92469B4611B1B1FA17
:1002A00081F202E0B0FA80F220329046FFF7C4FFFC
:1002B00004460F4640EA0A0041EA0B0153465A46FB
:1002C000084313D0114653EA010019D0C8F1400287
:1002D0005046FFF7C0FF05460E4650465946424677
:1002E000FFF7AAFF084305D0012004E02046394665
:1002F000BDE8F08D0020054346EAE0762C43374305
:100300000A986305E40AA0EB08000022FD0A44EA0B
:1003100047540A3002D500200146E9E701051019CB
:100320006941DDE9084500196941BDE8F04DA2E7E2
:10033000064C074D06E0E06840F0010394E8070032
:1003400098471034AC42F6D3FFF722FF2C37000851
:100350004C37000870B58C1810F8015B15F00703D6
:1003600001D110F8013B2A1106D110F8012B03E04E
:1003700010F8016B01F8016B5B1EF9D12B0705D456
:100380000023521E0DD401F8013BFAE710F8013B9F
:10039000CB1A921C03E013F8015B01F8015B521EBB
:1003A000F9D5A142D8D3002070BD10B54FF4A0609C
:1003B00001F038FE01F0C0FE01F052FF01F028FB11
:1003C00002F008FC02F076FA01F072FB01F0AEFBDD
:1003D00002F02EFC00F012F802F07CFD02F082FE2A
:1003E000642003F05CF900F04FFF01F09FFB02F086
:1003F00059FF00F0B3FE10BD00BFFEE700B58BB0A3
:100400000121082001F088FF0121480601F094FF36
:100410000320099002208DF8280000208DF82A0082
:1004200003208DF8290001208DF82B0009A92E4802
:1004300000F032FF092201212B4800F075FF09224C
:100440000021294800F070FF00208DF81E008DF873
:100450001F008DF8200001208DF8210000208DF86C
:1004600022008DF823008DF81A008DF81B0005205E
:100470008DF81C0006208DF81D000320ADF8180033
:1004800006A91A4800F053FB00208DF812008DF8E1
:10049000130001208DF814000020ADF80800ADF81D
:1004A0000A00ADF80C00ADF80E00ADF81000012008
:1004B0008DF8150002A800F01DFA012202210B4858
:1004C00000F02CFB14208DF8040001208DF80500AD
:1004D00000208DF8060001208DF8070001A801F02A
:1004E00065FD0BB000BD0000000C02400064004040
:1004F00000B585B00221B84800F080FA002878D015
:100500000221B54800F0A2F96A460021B24800F085
:1005100098FBB249009808609DF80B00B04908703C
:100520009DF80C00AF4908709DF80D00AE490870A9
:100530009DF80E00AD4908709DF80F00AC49087099
:100540009DF81000AB4908709DF81100AA49087089
:100550009DF81200A9490870A2480078A0490978BE
:1005600040EA0120A6490860A04800789E49097821
:1005700040EA0120A34908800846008800F40040B2
:10058000A149086008460068C01308609D480088BB
:10059000C0F30C009D4908809A4800884FF6FF710F
:1005A000081A9B4908808D48006840F2052188425E
:1005B0002AD1934890ED000AB8EEC00A954880ED24
:1005C000000A90ED000ADFED940A20EE200ADFED2C
:1005D000930A80EE201A924880ED001A884800683D
:1005E00040F6FF71884205DB80218E4800F0C1FE95
:1005F0000AE0EEE08248006840F6FF71884203DAC4
:100600008021884800F0B3FE7448006840F206215B
:10061000884235D17A4890ED000AB8EEC00A824887
:1006200080ED000A7748008800EE100AB8EE400A14
:100630007E4880ED000A7C4890ED000ADFED760AE6
:1006400020EE200ADFED750A80EE201A784880ED52
:10065000001A6B48006840F29221884205DB4FF493
:100660008041744800F083FE0AE06548006840F26B
:100670009221884204DA4FF480416E4800F079FEFE
:100680005648006840F2012188421BD15F4800882B
:1006900000EE100AB8EE400A674880ED000A5A489A
:1006A000006801280ED15A48008800EE100AB8EE02
:1006B000400A614880ED000A90ED000AB1EE400A60
:1006C00080ED000A4548006840F2022188421BD1B3
:1006D0004E48008800EE100AB8EE400A574880EDF8
:1006E000000A4948006801280ED14948008800EEF8
:1006F000100AB8EE400A514880ED000A90ED000A59
:10070000B1EE400A80ED000A3448006840F203214F
:1007100088421BD13D48008800EE100AB8EE400A1E
:10072000474880ED000A3848006801280ED1384853
:10073000008800EE100AB8EE400A414880ED000A39
:1007400090ED000AB1EE400A80ED000A23480068EF
:10075000B0F5017F1BD12D48008800EE100AB8EEDD
:10076000400A384880ED000A2748006801280ED169
:100770002748008800EE100AB8EE400A314880EDA4
:10078000000A90ED000AB1EE400A80ED000A13481D
:10079000006840F2072188421BD11C48008800EE07
:1007A000100AB8EE400A284880ED000A1648006892
:1007B00001280ED11648008800EE100AB8EE400A53
:1007C000214880ED000A90ED000AB1EE400A80ED6C
:1007D000000A05B000BD000000640040B800002021
:1007E000B0000020B1000020B2000020B3000020C3
:1007F000B4000020B5000020B6000020B7000020A3
:10080000C000002098000020BC00002096000020BE
:1008100094000020A00000200000B4430000004627
:10082000A8000020001002409C000020AC00002026
:10083000A400002000140240C4000020C8000020D2
:10084000CC000020D0000020D4000020B1F5007FB3
:100850003AD00FDC202928D006DC01291CD004293D
:100860001DD0082940D11DE0402921D0B1F5807F5D
:100870003AD126E0B1F5004F31D006DCB1F5806FFA
:1008800025D0B1F5006F2FD124E0B1F5803F12D013
:10089000B1F5003F28D111E0154A826025E0082219
:1008A000C26022E01022C2601FE0082202611CE048
:1008B0001022026119E00822426016E01022426014
:1008C00013E00422426010E0042242600DE00422A2
:1008D00042600AE0002282610422426005E00022B8
:1008E00082610422426000E000BF00BF7047000048
:1008F0000101010010B50021837A012202FA03F1FF
:100900003D4A126842F001023B4B1A603A4A1C32DF
:1009100012688A43384B1C331A60027BCAB9364AC4
:100920000C3212688A43344B0C331A604288C388F5
:1009300042EA0343304A4032847A42F83430028833
:10094000838842EA03432C4A4032847A02EBC40291
:100950005360027B012A19D1274A0C3212680A43DC
:10096000254B0C331A604288038842EA0343224A2B
:100970004032847A42F83430C288838842EA0343A2
:100980001D4A4032847A02EBC4025360C27A3AB9FB
:10099000194A121D12688A43174B1B1D1A6006E084
:1009A000154A121D12680A43134B1B1D1A60028957
:1009B00032B9114A143212688A430F4B14331A6049
:1009C0000289012A06D10C4A143212680A430A4BE2
:1009D00014331A60427B012A06D1074A1C3212687E
:1009E0000A43054B1C331A60034A126822F00102C5
:1009F000014B1A6010BD00000066004070B504464F
:100A00000D46002660692840002871D0B5F5807F2A
:100A10005CD010DC082D35D006DC012D20D0022D55
:100A200024D0042D72D127E0102D31D0202D35D0C7
:100A3000402D6BD138E0B5F5004F60D009DCB5F53D
:100A4000007F49D0B5F5806F4CD0B5F5006F5DD112
:100A50004FE0B5F5803F2DD0B5F5003F56D12FE0E2
:100A6000A0682D4900F065F9064651E0E0680321D1
:100A700000F05FF906464BE0E068082100F059F904
:100A8000064645E0E068102100F053F906463FE0D5
:100A90002069032100F04DF9064639E0206908215C
:100AA00000F047F9064633E02069102100F041F9D3
:100AB00006462DE06068082100F03BF9064627E075
:100AC0006068102100F035F9064621E0A069012197
:100AD00000F02FF906461BE0A069022100F029F979
:100AE000064615E0A069042100F023F906460FE050
:100AF0000FE0A069702100F01CF9064608E060686C
:100B0000042100F016F9064602E0FFE7002600BFC8
:100B100000E00026304670BD010101001AB14369B2
:100B20000B43436102E043698B434361704730B537
:100B3000024600200023146824F0020414601468A4
:100B400044F00104146000E05B1C546804F00104EC
:100B50001CB94FF6FF74A342F6D1546804F00104A7
:100B60000CB900206CE08C79012C04D1146844F09D
:100B70008004146003E0146824F080041460CC79CD
:100B8000012C04D1146844F04004146003E014689C
:100B900024F0400414600C7A012C04D1146844F051
:100BA0002004146003E0146824F0200414604C7ADC
:100BB000012C04D1146844F01004146003E014689C
:100BC00024F0100414608C7A012C04D1146844F0D1
:100BD0000804146003E0146824F008041460CC7A5C
:100BE000012C04D1146844F00404146003E0146878
:100BF00024F0040414608C78A407CD7844EA0564DA
:100C00000D7944EA05444D7944EA05540D886D1E7A
:100C10002C43D461146824F001041460002300E024
:100C20005B1C546804F001041CB14FF6FF74A3422E
:100C3000F6D1546804F001040CB1002000E001205A
:100C400030BD10B500F5D87303EB01131B6803F03A
:100C500004031372137A53B900F5D87303EB01132D
:100C60001B6840F2FF7404EA5353136009E000F577
:100C7000D87303EB01131B686FF0604404EAD303DD
:100C8000536000F5D87303EB01131B6803F00203F4
:100C9000537200F5D87303EB01135B6803F00F0385
:100CA000937200F5D87303EB01135B681B0AD374CE
:100CB00000F5D87303EB01139B68D37200F5D8736A
:100CC00003EB01139B681C0A147300F5D87303EB44
:100CD00001139B681C0C547300F5D87303EB0113CC
:100CE0009B681B0E937300F5D87303EB0113DB684D
:100CF000D37300F5D87303EB0113DB681C0A14747B
:100D000000F5D87303EB0113DB681C0C547400F579
:100D1000D87303EB0113DB681B0E937421B9C3680E
:100D200043F02003C36003E0036943F02003036141
:100D300010BD0246002002EA01030BB1012000E0D1
:100D40000020704718490A780978491C164B197019
:100D5000164988540978552903D000211A46117084
:100D60007047114909780B2900DAF9E70F494978EA
:100D7000512902D0532910D107E00D490B4A921C8A
:100D800013680B6052684A6007E00A49074A921CE0
:100D900013680B6052684A6000BF00BF0021024A1E
:100DA000117000BFDCE7000046060020940C002014
:100DB00044000020540000201A490A780978491C90
:100DC000184B1970184988540978552903D0002107
:100DD0001A4611707047134909780B2900DAF9E7B0
:100DE00011494978512902D0532915D107E00F49FB
:100DF0000D4A921C13680B6052684A600CE00C4963
:100E0000094A921C13680B6052684A6009490968D4
:100E1000491C084A116000BF00BF0021014A11703F
:100E200000BFD7E790000020C40600204400002047
:100E3000540000208C00002021B1026842F0010221
:100E4000026003E0026822F00102026070470000C5
:100E5000016821F0010101600021016041608160B1
:100E6000C1600161212141614A49884204D13D218B
:100E7000484A103A91608CE046491831884205D1C1
:100E80004FF47461434A103A916082E04149303135
:100E9000884205D14FF474113E4A103A916078E0CF
:100EA0003C494831884205D14FF07461394A103AC3
:100EB00091606EE037496031884204D13649354A45
:100EC000103AD16065E033497831884204D1334922
:100ED000304A103AD1605CE02E499031884204D10A
:100EE0002F492C4A103AD16053E02A49A831884250
:100EF00005D14FF03D51274A103AD16049E02949C8
:100F0000884204D13D21274A083A116041E0254931
:100F10001831884205D14FF47461224A083A1160B1
:100F200037E020493031884205D14FF474111D4A11
:100F3000083A11602DE01B494831884205D14FF035
:100F40007461184A083A116023E0164960318842FA
:100F500004D11149134A121F11601AE01149783166
:100F6000884204D10D490F4A121F116011E00D494A
:100F70009031884204D10A490A4A121F116008E0E0
:100F80000849A831884204D14FF03D51054A121F4B
:100F900011607047106002403D000020400F0020AB
:100FA00000003D201064024021B1026842F480221A
:100FB000026003E0026822F480220260704722B1DE
:100FC000036843F40023036003E0036823F4002371
:100FD0000360016170470146486880B2704701466E
:100FE00000200A6802F400220AB1012000E000207B
:100FF0007047000010B500220268134B1A40CC68FD
:101000000B6823434C6923438C692343CC692343F6
:101010000C6A23434C6A23438C6A23434C6B23435F
:101020008C6B23431A430260426922F00702D1E924
:101030000B3423431A4342610B6943604B6883605E
:101040008B68C36010BD00003F801CF00021016070
:1010500041608160C160016141618161C161016282
:1010600041628162C1620163416381637047000034
:101070003449097859B9AA2846D13349334A1278F4
:1010800001EB4211087001212E4A11703CE02D49FC
:10109000097801290FD1AF2809D12B492B4A1278A1
:1010A00001EB421148700221264A11702CE0002108
:1010B000244A117028E023490978022909D12249DC
:1010C000224A127801EB4211887003211D4A1170E7
:1010D0001AE01C490978032909D11B491B4A1278D7
:1010E00001EB4211C8700421164A11700CE0164938
:1010F000164A127801EB4211124A127888541149AB
:101100000978491C0F4A11700F49104A127801EBF7
:101110004211C978491D0B4A1278914211D1002120
:10112000084A11700949097831B10021074A117044
:101130000121074A117004E00121044A1170054A97
:1011400011707047430600208406002042060020EC
:101150004506002044060020704700001CB5012110
:10116000102001F0D9F82020009000208DF8040014
:1011700003208DF8050002208DF80700694602481B
:1011800000F08AF81CBD00000010024010B50220DB
:1011900000F01CF850B1022000F00CF8022000F022
:1011A0000FF801200249087000F000F910BD00009E
:1011B000650100200149086070470000143C0140AF
:1011C0000149086070470000143C014001460020BE
:1011D0000022074B1B6803EA0102054B14331B680E
:1011E0000B4013B10AB1012000E00020704700005D
:1011F000003C0140002123498279002A3AD00A4666
:10120000126803689A430B461A600A1D1268036845
:101210009A430B1D1A60027911440A6803681A4345
:101220000A60184A0832126803689A43154B08335B
:101230001A601A1D126803689A43124B0C331A6025
:101240004279102A0ED11A1F126803681A430D4BF7
:1012500008331A601A1D126803681A43094B0C33CD
:101260001A600DE00749427911440A6803681A437D
:101270000A6005E0027911440A6803689A430A602B
:1012800070470000003C014047F6FF7001490860CC
:101290007047000024040040F0B50A4600210023F6
:1012A000002400BF3DE0012505FA01F3156805EAB9
:1012B00003049C4234D105684F000326BE40B54369
:1012C000056015794E00B54006683543056015790F
:1012D000012D02D01579022D16D185684F00032605
:1012E000BE40B543856055794E00B54086683543AC
:1012F0008560456801268E40B5434560456896790E
:101300008E40B6B235434560C5684F000326BE40E7
:10131000B543C560D5794E00B540C6683543C56054
:10132000491C1029BFD3F0BDF0B5002300244D07A0
:10133000ED0E02FA05F3CE1000F1200555F8265007
:101340004E07F70E0F26BE40B543CF1000F1200622
:1013500046F82750CE1000F1200555F8265045EAF2
:101360000304CE1000F1200545F82640F0BD41836E
:101370007047018370474FF6FF71016000210171D2
:1013800041718171C1717047014800787047000058
:101390008205002001460B2903D2034800EB81009F
:1013A00070470020FCE70000F805002000BF364829
:1013B00090ED030A354880ED040A334890ED040AA5
:1013C000B1EE400A314880ED050A2F4890ED050A3C
:1013D0002E4880ED060A2E4890ED000A2D4880ED3B
:1013E000000A2D4890ED000A294880ED000A2A489D
:1013F00090ED000A264890ED000A2648D0ED000A3C
:1014000030EE600ADFED250AB4EEE00AF1EE10FAE4
:1014100005DB23480068401E2149086013E01C4892
:1014200090ED000A1B48D0ED000A30EE600ADFEDB7
:101430001D0AB4EEE00AF1EE10FA04D8184800686C
:10144000401C17490860164800684FF4B4714843BF
:1014500000EE100AB8EEC00A0D48D0ED000AB7EE53
:10146000001A01EE200A104880ED000A0A4890EDAB
:10147000010A0E4880ED000A074890ED020A0C4868
:1014800080ED000A70470000C0070020C00800205F
:101490003801002044010020F40700200000A5438B
:1014A000600100200000A5C350010020540100206D
:1014B0005801002010B501700378047D021D1355FA
:1014C000037DD35C447D125D43EA82024270027D5B
:1014D000521C02F00F0282754378847D021D125D5A
:1014E00043EA02128270037D021DD35C447D125DCB
:1014F000934205D10D4A1268521C0C4B1A6002E04F
:1015000000220A4B1A60094A1268282A03D3037D75
:10151000021DD25CC270027D4275027D521C0275B2
:10152000027D102A01D10022027510BDF0050020B5
:1015300001480078704700001D050020274890ED05
:10154000000AFBEE030AB4EEE00AF1EE10FA04D84A
:10155000BBEE030A80ED000A0DE0204890ED000A82
:10156000F3EE030AB4EEE00AF1EE10FA03DBB3EE99
:10157000030A80ED000A194890ED010A1848D0EDE1
:10158000010A9FED181A70EEC10AB4EEE00AF1EEFE
:1015900010FA09D890ED010ADFED120A30EE600A68
:1015A0000E4880ED010A17E00C4890ED010A0C4846
:1015B000D0ED010A9FED0B1A70EE810AB4EEE00A3D
:1015C000F1EE10FA08DB90ED010ADFED060A30EECD
:1015D000200A024880ED010A70470000CC0A002072
:1015E0007C0200200000704200BFFEE710B53021F1
:1015F0006A2000F0FFFA0A2002F051F80D212420A1
:1016000000F0F8FA0A2002F04AF80E21282000F033
:10161000F1FA0A2002F043F88E21312000F0EAFAB4
:101620000A2002F03CF801210B2000F075F80020A0
:1016300000F055F8102801D0012010BD0A2002F05A
:101640002EF800210A2000F067F80A2000F047F881
:1016500008B10220F1E70A2002F021F800210B2056
:1016600000F05AF80B2000F03AF808B10320E4E744
:101670000A2002F014F82421412000F04DF8412006
:1016800000F02DF8242801D00420D6E70A2002F02B
:1016900006F8C021422000F03FF8422000F01FF879
:1016A000C02801D00520C8E70A2001F0F8FF00217A
:1016B0002A2000F09FFA0A2001F0F1FF00213420D7
:1016C00000F098FA0A2001F0EAFF062203210E201A
:1016D00000F0AEFA642001F0E2FF0020ADE770B543
:1016E00004462146322000F085FA0A2001F0D7FF97
:1016F0008021342000F07EFA0A2001F0D0FF35204E
:1017000000F054FA05460021342000F073FA0A2054
:1017100001F0C5FF284670BD70B504460D46002196
:101720002A2000F067FA022001F0B9FF21462920A3
:1017300000F060FA022001F0B2FF2946642000F0B8
:1017400059FA022001F0ABFF81212A2000F052FA61
:101750000A2001F0A4FF70BD40B52DED048B002CD4
:1017600045DA002D43DA94FBF5F63046FEF73AFDF4
:1017700041EC190BB0EE490AF0EE690A01F076FF70
:10178000B0EE408AF0EE608A9FED860B53EC102B92
:1017900051EC180BFEF738FD14D89FED840A8448ED
:1017A00080ED000A9FED830A834880ED000A9FEDDB
:1017B000830A834880ED000A9FED820A824880ED0B
:1017C000000AEBE09FED810A794880ED000A9FED69
:1017D000800A794880ED000A9FED7E0A784880ED06
:1017E000000A9FED7D0A784880ED000AD6E0002CC3
:1017F00045DA002D43DD94FBF5F63046FEF7F2FCAA
:1018000041EC190BB0EE490AF0EE690A01F02EFF27
:10181000B0EE408AF0EE608A9FED620B53EC102B25
:1018200051EC180BFEF7F0FC14D89FED6C0A6048E1
:1018300080ED000A9FED5F0A5F4880ED000A9FED92
:10184000680A5F4880ED000A9FED660A5E4880EDF9
:10185000000AA3E09FED610A554880ED000A9FED64
:10186000620A554880ED000A9FED600A544880EDF9
:10187000000A9FED5F0A544880ED000A8EE0002CBC
:1018800045DD002D43DD94FBF5F63046FEF7AAFC5E
:1018900041EC190BB0EE490AF0EE690A01F0E6FEE0
:1018A000B0EE408AF0EE608A9FED3E0B53EC102BB9
:1018B00051EC180BFEF7A8FC14D89FED4E0A3C48DB
:1018C00080ED000A9FED460A3B4880ED000A9FED3F
:1018D000390A3B4880ED000A9FED340A3A4880ED12
:1018E000000A5BE09FED440A314880ED000A9FED5D
:1018F0003F0A314880ED000A9FED3B0A304880EDF9
:10190000000A9FED3D0A304880ED000A46E0002CB9
:1019100044DD002D42DA94FBF5F63046FEF762FC1A
:1019200041EC190BB0EE490AF0EE690A01F09EFE97
:10193000B0EE408AF0EE608A9FED1A0B53EC102B4C
:1019400051EC180BFEF760FC14D89FED2C0A1848D8
:1019500080ED000A9FED2A0A174880ED000A9FEDEE
:10196000150A174880ED000A9FED260A164880EDFB
:10197000000A13E09FED210A0D4880ED000A9FED5B
:10198000150A0D4880ED000A9FED1F0A0C4880EDF6
:10199000000A9FED1E0A0C4880ED000ABDEC048B86
:1019A00040BD0000000000000000F03F0AD7A3BBCC
:1019B000FC000020A8C64BBE00010020BE9F7A3F5D
:1019C000040100204ED111BC080100206F1203BC9D
:1019D0007B140EBFE17A543F6F1203BB0AD7A33BBF
:1019E000355E7ABFA69B443C68910DBFE17A54BF37
:1019F00099BB16BB52499D3A99BB163B0AD7233B6C
:101A0000355E7A3F6F12033C295C0FBFBC74933B79
:101A10001CB50121202000F07FFC0121102000F0E6
:101A20007BFC0121402000F077FC80200090012009
:101A30008DF8040000208DF8060003208DF80500C5
:101A400069461648FFF728FC4FF4804000900120BB
:101A50008DF8040000208DF8060003208DF80500A5
:101A600069460F48FFF718FC4FF400500090022021
:101A70008DF8040000208DF8060003208DF8050085
:101A800069460848FFF708FC80210448FFF771FC0D
:101A90004FF480410248FFF76CFC1CBD001002406F
:101AA000001402400018024000210160704700004D
:101AB00010B588B04020069001208DF81C00002051
:101AC0008DF81E008DF81F0003208DF81D0006A95B
:101AD0001348FFF7E1FBFFF789FD002418221149A5
:101AE0006846FEF76DFB642001F0D9FD752000F01B
:101AF0005DF80D49087000BF0CE06A4602EB440235
:101B000051781DF8140000F075F8012001F0C7FDB0
:101B1000601CC4B20C2CF0DB002008B010BD00002B
:101B200000140240143700086601002000B585B09B
:101B30000121880300F020FC0121102000F0ECFBC3
:101B40000220039000208DF810008DF81200012073
:101B50008DF8130002208DF8110003A91248FFF739
:101B60009BFB0121042000F051FF02200090002087
:101B70008DF804000C208DF8050001208DF806007A
:101B80006846FFF737FB07208DF8080002208DF824
:101B9000090000208DF80A0001208DF80B0002A832
:101BA00000F004FA05B000BD0010024010B5044674
:101BB00040210D48FFF7DBFB44F080000B49087023
:101BC0000846007800F0CCFE094908700748007804
:101BD00000F0C6FE0649087040210348FFF7C9FB24
:101BE0000348007810BD0000001402406901002085
:101BF0006801002070B505460C4640210A48FFF7F1
:101C0000B6FB05F07F00094908700846007800F02F
:101C1000A7FE06480470007800F0A2FE40210248AA
:101C2000FFF7A7FB002070BD0014024067010020F1
:101C300070B504460E46154621462820FFF7DAFF08
:101C4000022001F02CFD0A212920FFF7D3FF0220FA
:101C500001F025FD01216420FFF7CCFF022001F0F7
:101C60001EFD44F080012520FFF7C4FF022001F093
:101C700016FD31462620FFF7BDFF022001F00FFDC3
:101C800003213420FFF7B6FF022001F008FD0321F5
:101C90006720FFF7AFFF022001F001FD81212A201C
:101CA000FFF7A8FF062001F0FAFC45F0800127208D
:101CB000FFF7A0FF072001F0F2FC70BD00BFFEE7B8
:101CC00070B504460D46FFF733FC002878D028781D
:101CD00000F0100040B14FF42570664908804FF4C1
:101CE00048706549088007E04FF4FA706149088040
:101CF0004FF42F7060490880287800F0010090B1FF
:101D00005E48016988475B48008800EE900AF8EE5B
:101D1000600A20EE200ABDEEC00A10EE100A00B2E2
:101D2000574908801AE0287800F0020098B153481B
:101D3000016988474F480088404200EE900AF8EE5B
:101D4000E00A20EE200ABDEEC00A10EE100A00B232
:101D50004B49088002E0002049490880287800F0BB
:101D6000040098B1474801698847434800884042C9
:101D700000EE900AF8EEE00A20EE200ABDEEC00A5E
:101D800010EE100A00B23E49488019E0287800F0B1
:101D9000080090B13B48016988473748008800EE49
:101DA000900AF8EE600A20EE200ABDEEC00A10EE9E
:101DB000100A00B23249488002E0002030494880D1
:101DC000FFF7B6FB02283CD1B4F9000010F1960FE2
:101DD00003DC6FF09500208005E0B4F90000962840
:101DE00001DB96202080B4F9020010F1960F03DC8D
:101DF0006FF09500608005E0B4F90200962801DBE1
:101E000096206080204890ED000AB4F9020000EEB0
:101E1000900AF8EEE00A9FED1D1A00EEC10A1A487A
:101E200080ED000A90ED010AB4F9000000EE900A7E
:101E3000F8EEE00A9FED151A00EE810A124880EDD7
:101E4000010AB4F9020000EE100AB8EEC00A0E480A
:101E500080ED040AB4F9000000EE100AB8EEC00AE2
:101E6000094880ED050AFFF769FB204600F010F8ED
:101E700070BD0000F4050020F6050020CC05002010
:101E800078050020A8050020CC0A0020CDCCCC3C51
:101E900070B5044600253F48007820B1012812D0D3
:101EA000022873D14FE0E07960B9607A012809D146
:101EB000002000F0DFFD384881698847012035495E
:101EC0000870002562E0607A012802D1681C05B222
:101ED00000E00025322D0FDD00202E4908704FF460
:101EE0007A702E490860091D08602B48816988476F
:101EF000002000F0BFFD25E0274801698847DFED9D
:101F0000280A9FED281A41EE000ABCEEE00A10EE06
:101F1000100A22490860204801698847DFED200A3D
:101F20009FED201A41EE000ABCEEE00A10EE100A06
:101F30001A49091D08601848016A884710B1022033
:101F40001449087022E0607A012802D1681C05B2A9
:101F500000E00025322D0FDD00200E4908704FF4FF
:101F60007A700E490860091D08600B48816988472E
:101F7000002000F07FFD08E0207A012802D100F067
:101F800079FD02E0002000F075FD00BF00BF607A1F
:101F9000E07170BD8005002084050020340C0040F5
:101FA00000007A44000016447047000070B500211C
:101FB00000230F22C4781CB3174C246804F4E06497
:101FC000C4F5E064C4F30721C1F10404E3B20A419B
:101FD00044789C40E1B28478144021430C07210EE0
:101FE0000E4C05786155047804F01F050124AC40BF
:101FF00005786D11AD0005F1E025C5F8004109E057
:10200000047804F01F050124AC40054D06787611D4
:1020100045F8264070BD00000CED00E000E400E053
:1020200080E100E002490143024A1160704700006C
:102030000000FA050CED00E090ED030A80ED020AC5
:1020400090ED000AD0ED010A30EE600A80ED030A3F
:1020500090ED040AD0ED030A30EE200A80ED040A68
:1020600090ED060AD0ED0C0AF1EE600AB4EEE00A3B
:10207000F1EE10FA06D890ED0C0AB1EE400A80EDB0
:10208000060A0CE090ED060AD0ED0C0AB4EEE00A68
:10209000F1EE10FA03DB90ED0C0A80ED060A90EDEC
:1020A000050AD0ED030A20EE200AD0ED060A90EDD5
:1020B000041A00EE810AD0ED030A90ED021A70EEC8
:1020C000C10A90ED071A01EE200A80ED0E0A90ED8C
:1020D0000E0AD0ED0F0AF1EE600AB4EEE00AF1EE5E
:1020E00010FA06D890ED0F0AB1EE400A80ED0E0A04
:1020F0000CE090ED0E0AD0ED0F0AB4EEE00AF1EE1E
:1021000010FA03DB90ED0F0A80ED0E0A7047000015
:102110009FED080A80ED020A9FED060A80ED030A92
:102120009FED040A80ED040A9FED020A80ED0E0A7D
:10213000704700000000000000B58BB00121084688
:1021400000F0EAF80121082000F0F6F80121080467
:1021500000F012F90720099002208DF828000320D2
:102160008DF8290009A93B48FFF796F802220021C3
:102170003848FFF7D9F8022201213648FFF7D4F892
:10218000032202213348FFF7CFF85320ADF818009F
:102190000020ADF81A0044F6206007900020ADF84A
:1021A000200006A92C4800F053FEA720ADF8180027
:1021B0000020ADF81A004FF47A7007900020ADF8B7
:1021C000200006A9254800F043FE7020ADF8040069
:1021D0000120ADF806000020ADF808004FF47A7039
:1021E00003900220ADF810000020ADF81200ADF809
:1021F00014004FF48070ADF8160001A9164800F0E5
:102200007FFD01A9144800F0C3FD0020039001A93F
:10221000124800F075FD08210F4800F0AFFD0821BD
:102220000D4800F007FE08210C4800F0A7FD012131
:10223000094800F035FD0121084800F031FD012179
:10224000054800F03FFD0121044800F03BFD0BB0C4
:1022500000BD000000000240000C004000400140B2
:1022600000B58BB00121082000F056F801210420B0
:1022700000F062F84FF48050099002208DF8280099
:1022800003208DF8290009A92048FFF705F802224C
:102290000C211E48FFF748F85320ADF81800002025
:1022A000ADF81A0044F6206007900020ADF8200039
:1022B00006A9174800F0CCFD7020ADF804000120FD
:1022C000ADF806000020ADF808004FF47A700390D6
:1022D0000220ADF810000020ADF81200ADF8140097
:1022E0004FF48070ADF8160001A9094800F008FD10
:1022F0000821074800F042FD0121054800F0D0FC0C
:102300000121034800F0DEFC0BB000BD000C0240D0
:10231000000800407047000029B1064A12680243D5
:10232000044B1A6004E0034A12688243014B1A60AE
:10233000704700003038024029B1064A1268024353
:10234000044B1A6004E0034A12688243014B1A608E
:10235000704700004038024029B1064A1268024323
:10236000044B1A6004E0034A12688243014B1A606E
:10237000704700002038024029B1064A1268024323
:10238000044B1A6004E0034A12688243014B1A604E
:10239000704700004438024029B1064A12680243DF
:1023A000044B1A6004E0034A12688243014B1A602E
:1023B0007047000024380240F0B5002100220024BC
:1023C000022500260223324F3F6807F00C0121B19D
:1023D000042905D0082937D105E02E4F076036E0E3
:1023E0002D4F076033E02A4F3F1F3F68C7F38056E9
:1023F000274F3F1F3F6807F03F036EB1264FB7FBE3
:10240000F3F7DFF88CC0ACF1040CDCF800C0CCF3BF
:10241000881C07FB0CF40CE01E4FB7FBF3F7DFF84A
:1024200070C0ACF1040CDCF800C0CCF3881C07FBD6
:102430000CF4174F3F1F3F68C7F301477F1C7D0017
:10244000B4FBF5F7076002E0124F076000BF00BF62
:102450000F4F3F6807F0F0010909104F7A5C0768D9
:10246000D74047600A4F3F6807F4E051890A0B4F95
:102470007A5C4768D7408760054F3F6807F4604142
:10248000490B064F7A5C4768D740C760F0BD000033
:10249000083802400024F400001BB700E0000020D0
:1024A0000168491C0160D0E9001291420ADA90EDFE
:1024B000000AF8EEC00A90ED010AB8EEC01A80EEEC
:1024C000810A7047B7EE000AFBE770470146D1E981
:1024D0000002904201DA002070470120FCE7002151
:1024E00001607047016070474160704710B5044655
:1024F000FFF71EF8B8B3B4F90200A0F5806000EE53
:10250000100AB8EEC00AF7EE000A20EE200ABDEE6F
:10251000C00A10EE100A00B268490880B4F9000041
:10252000A0F5806000EE100AB8EEC00AF7EE000ACF
:1025300020EE200ABDEEC00A10EE100A00B248805C
:10254000B4F90400A0F5806000EE100AB8EEC00AED
:10255000F7EE000A20EE200ABDEEC00A10EE100AC7
:1025600000B2C88004E0FFE700205449088048809A
:10257000FEF7DEFF022842D1514890ED000AB4F97F
:102580000600A0F5806000EE900AF8EEE00A9FEDEC
:102590004D1A00EE810A4A4880ED000A4A48007A46
:1025A00002286DD0494890ED100ADFED490AB4EEDB
:1025B000E00AF1EE10FA23DDB4F90400A0F5806022
:1025C00000EE100AB8EEC00ADFED3E0A20EE200A47
:1025D000B5EEC00AF1EE10FA52DD394890ED010A6D
:1025E000B4F90400A0F5806000EE900AF8EEE00A6D
:1025F0009FED341A00EE810A314880ED010A3FE078
:10260000324890ED100ADFED330AB4EEE00AF1EE45
:1026100010FA23D2B4F90400A0F5806000EE100A8D
:10262000B8EEC00ADFED270A20EE200AB5EEC00A98
:10263000F1EE10FA24D2224890ED010AB4F9040018
:10264000A0F5806000EE900AF8EEE00A9FED1D1AFA
:1026500000EE810A1A4880ED010A11E0184890ED59
:10266000010AB4F90400A0F5806000EE900AF8EECB
:10267000E00A9FED141A00EE810A114880ED010A6C
:10268000B4F90600A0F5806000EE100AB8EEC00AAA
:102690000B4880ED040AB4F90400A0F5806000EE58
:1026A000100AB8EEC00A064880ED050AFEF746FF9C
:1026B000217A094800F07EF810BD0000780500205E
:1026C000CC0A00206F12833BB40A0020040A0020C9
:1026D00000007042000070C2E40A002010B50446F9
:1026E00004B910BD2078617840EA0120C0F30A00E7
:1026F0002F4908806078C010A17840EA4110C0F3EB
:102700000A002B494880A0788011E17840EA8100D6
:10271000217940EA8120C0F30A0025498880207988
:102720004010617940EAC110C0F30A002049C88016
:1027300060790011800808726079C0F30110487256
:10274000A079E17940EA012000B219494881207A54
:10275000617A40EA012001B215488181A07AE17ACC
:1027600040EA012001B21248C181217B8174617B62
:10277000C174A07B0E498882084600F067F9FEF715
:1027800003FE012804D002280DD003280CD103E059
:102790000748FFF7ABFE07E005491431A1F10A0035
:1027A000FFF78EFA00E000BF00BF00BF99E700000E
:1027B000B40A002070B504460D4629462046FEF7AF
:1027C00079FE3748007820B101280FD0022865D162
:1027D00046E060780D2808D1002000F04BF9314820
:1027E0008169884701202E49087057E060780D28DC
:1027F0000FD1002000F03EF94FF47A702A490860AA
:10280000091D08600020264908702648816988470C
:1028100025E0244801698847DFED240A9FED241A4A
:1028200041EE000ABCEEE00A10EE100A1E490860F4
:102830001C4801698847DFED1D0A9FED1D1A41EE16
:10284000000ABCEEE00A10EE100A1749091D0860E4
:102850001448016A884710B10220114908701DE030
:1028600060780D280FD100200D4908704FF47A7060
:102870000D490860091D08600A48816988470020E1
:1028800000F0F8F809E02078022803D1012000F0D8
:10289000F1F802E0002000F0EDF800BF00BF70BDCD
:1028A0008005002084050020340C004000007A449C
:1028B0000000164400B587B001212020FFF72CFD51
:1028C00001210805FFF758FD4FF4607005900220C4
:1028D0008DF8180000208DF81A0003208DF81900DB
:1028E00000208DF81B0005A91B48FEF7D5FC05222A
:1028F00007211948FEF718FD052208211648FEF7A2
:1029000013FD052209211448FEF70EFD0020ADF845
:1029100000004FF48270ADF802000020ADF8040012
:10292000ADF80600ADF808004FF40070ADF80A00ED
:102930003820ADF80C000020ADF80E000A20ADF8EC
:1029400010006946054800F041F80121034800F0F5
:1029500023F807B000BD0000001402400050014001
:1029600010B5044600BF02210A4800F021F80028F3
:10297000F9D02146074800F027F800BF012105489B
:1029800000F016F80028F9D0024800F01AF8C0B29A
:1029900010BD00000050014021B1028842F0400209
:1029A000028004E002884FF6BF731A40028070472D
:1029B0000246002013890B400BB1012000E00020EB
:1029C00070470146888970478181704710B50022A1
:1029D000028802F441520B884C8823438C8823439D
:1029E000CC8823430C8923434C8923438C8923437C
:1029F000CC8923431A430280838B4FF2FF74234018
:102A000083830B8A038210BD7047000030B500221B
:102A10008B071C0F0F2303FA04F20B4B8C1053F897
:102A200024309343084C8D1044F8253023468C10F5
:102A300053F824308C07240F00FA04F42343024C8B
:102A40008D1044F8253030BD08380140417A012905
:102A500002D1074A11700AE0417A032902D1044ADF
:102A6000117004E0417A022901D1014A11707047C6
:102A70008205002001490870704700008105002090
:102A80000CB50020019000903448006840F480307C
:102A90003249086000BF3148006800F400300090FF
:102AA0000198401C0190009818B90198B0F5A04F0A
:102AB000F1D12A48006800F4003010B101200090E4
:102AC00001E0002000900098012846D123484030C2
:102AD000006840F08050214940310860204800687B
:102AE00040F440401E4908601C48083000681B49FB
:102AF000083108600846006840F400400860084655
:102B0000006840F4A05008601648091F0860081FBC
:102B1000006840F08070091F086000BF0F4800681F
:102B200000F000700028F9D040F205600E490860FE
:102B30000A480830006820F003000849083108609E
:102B40000846006840F00200086000BF03480830F3
:102B5000006800F00C000828F8D10CBD00380240D5
:102B6000007000400C544007003C024010B515486E
:102B7000006840F47000134908601348006840F092
:102B800001001149086000200F49083108600E4813
:102B900000680E4908400C4908600D48091D08608E
:102BA000081F006820F48020091F086000200649E3
:102BB0000C310860FFF764FF4FF000600149803975
:102BC000086010BD88ED00E000380240FFFFF6FE0F
:102BD000103000240EB501210846FFF7ADFB4FF081
:102BE000FF300190A720ADF800000020ADF80200F2
:102BF000ADF808000121880700F052F869464FF04F
:102C0000804000F025F90121880700F05BF80EBD37
:102C100010B50121880700F061F838B1012188075B
:102C200000F04DF80121880700F046F810BD0000C3
:102C30001FB501211020FFF77FFB36208DF8000023
:102C400001208DF8010000208DF8020001208DF890
:102C500003006846FFF7AAF940F2E73002905320DC
:102C6000ADF804000020ADF80600ADF80C0001A995
:102C7000014800F0EDF81FBD0010004010B5012123
:102C8000064800F02BF838B10121044800F017F88D
:102C90000121024800F010F810BD000000100040B3
:102CA00021B1028842F08002028004E002884FF6DF
:102CB0007F731A4002807047CA4302827047CA433A
:102CC0000282704721B1028842F00102028004E0D2
:102CD00002884FF6FE731A400280704730B50246F4
:102CE000002000230024158A05EA0103958905EADE
:102CF000010413B10CB1012000E0002030BD000040
:102D000070B5002400220023058C4FF6FE76354076
:102D10000584028C8388048B4FF68F752C40B51E7A
:102D20002C400D882C43751E2A408D892A434D88DE
:102D30002A43104DA84202D00F4DA84213D14FF69E
:102D4000F7752A40CD892A434FF6FB752A408D88B6
:102D50002A434FF6FF652B404FF6FF552B400D8A57
:102D60002B434D8A2B43838004838D684563028403
:102D700070BD000000000140000401400A4600212F
:102D8000018B4FF6F7731940114301837047000020
:102D900070B5002400220023058C4FF6EF763540F5
:102DA0000584028C8388048B48F6FF752C404FF60F
:102DB000FF452C400D884FF6FF7606EA05252C438B
:102DC0004FF6DF752A408D8906EA05152A434D889E
:102DD00006EA05152A43154DA84202D0144DA84213
:102DE0001DD14FF67F752A40CD894FF6FF7606EA52
:102DF00005152A434FF6BF752A408D8806EA05154A
:102E00002A434FF6FF352B404FF2FF752B400D8ABA
:102E100006EA85052B434D8A06EA85052B43838008
:102E200004838D688563028470BD0000000001404A
:102E3000000401400A460021018B4FF2FF73194044
:102E40004FF6FF7303EA0223194301837047000022
:102E500000220288184B98420ED0184B98420BD093
:102E6000B0F1804F08D0164B984205D0154B9842D0
:102E700002D0154B984204D14FF68F731A404B88FD
:102E80001A43124B984207D0114B984204D04FF688
:102E9000FF431A400B891A4302804B68C3620B88B8
:102EA0000385054B984202D0044B984201D18B7A9E
:102EB0000386012383827047000001400004014023
:102EC0000004004000080040000C004000100040DA
:102ED0000014004000B597B001210220FFF71CFA52
:102EE00001218805FFF718FA01211020FFF744FAA5
:102EF000072211464248FEF717FA15A8FEF73BFADB
:102F00008020159002208DF8580000208DF859007F
:102F100001208DF85B0015A93948FEF7BDF9394845
:102F200000F07EFA11A800F093FB374811900020C2
:102F3000ADF84800ADF84A004FF48060ADF84C00A1
:102F40000420ADF84E000020ADF8500011A92D4826
:102F500000F010FB012240212A4800F058FA2B48CB
:102F6000FDF776FF01A8FEF771F84FF000600190C1
:102F70002448001D029026480390002004901E2043
:102F80000590002006904FF4806007900020089084
:102F900009904FF480700A9000020B9000200C9072
:102FA0000D900E900F9001A91848FEF723F800220B
:102FB00017491E311548FEF702F801211348FDF7A5
:102FC000F3FF01211148FDF737FF25208DF8400060
:102FD00000208DF841008DF8420001208DF843005B
:102FE00010A8FEF7E3FF012240F22441054800F05B
:102FF0009BFA0121034800F0FEF917B000BD000064
:103000000004024000100140A0860100406402401C
:103010004806002010B540F224412E4800F05AFA2C
:10302000002855D02B4800882A4880882A48FDF778
:10303000D6FF30BB00212848FDF7FEFE2648FDF7ED
:10304000CAFFC0F11E00254908601E202249091D43
:103050000860081F006840F40020091F0860012173
:103060001D48FDF7E9FE1D480068122830D11C48B4
:10307000FFF734FB0020FEF78DF90446FEF714FD40
:1030800026E000211448FDF7D7FE1348FDF7A3FF03
:10309000C0F11E00114908601E200F49091D08607B
:1030A000081F006820F40020091F086001210A4859
:1030B000FDF7C2FE09480068122809D108481E30F1
:1030C000FFF70CFB0020FEF765F90446FEF7ECFC69
:1030D00010BD000000100140406402403800002094
:1030E0004806002000B587B001210820FFF714F939
:1030F00001214804FFF720F9072205212248FEF7A5
:1031000013F9072206212048FEF70EF960200590EA
:1031100002208DF818008DF8190000208DF81A0093
:103120008DF81B0005A91848FEF7B6F84FF4E130FA
:1031300001900020ADF80800ADF80A00ADF80C00D1
:10314000ADF810000C20ADF80E0001A90F4800F0FA
:1031500011FA01210D4800F04EF9012240F22551EB
:103160000A4800F0E1F926208DF8000002208DF8D1
:1031700001008DF8020001208DF803006846FEF77B
:1031800015FF07B000BD0000000C024000440040E5
:1031900010B51E48008800F0080020B11B49091D29
:1031A0000988C8B200BF1948008800F08000F0B15B
:1031B00016480C30008800F08000C0B11448017837
:1031C0000078401C124A10701248405C0F49091DDB
:1031D00008801046007810490978884207D10B48CA
:1031E0000C30008820F0800008490C310880074826
:1031F000008800F0200038B10448001D0088C4B2E7
:103200002046FDF735FF00BF10BD00000044004020
:10321000400600202D0B00204106002010B540F292
:1032200027711C4800F056F9E0B11B48027800787D
:10323000401C194B18701948815C164800F004FABC
:1032400040F22771134800F0C7F81348007814497A
:103250000978884217D1002240F227710D4800F00A
:1032600063F910E040F225510A4800F033F950B1FB
:103270000849091D0988C8B2FDF79EFD40F2255195
:10328000044800F0A9F84FF45871024800F0A4F87F
:1032900010BD000000480040400600202D0B00201B
:1032A0004106002000B587B001214020FFF734F827
:1032B00001212020FFF760F808220E212248FEF7A6
:1032C00033F8082209212048FEF72EF84FF48440F5
:1032D000059002208DF818008DF8190000208DF857
:1032E0001A008DF81B0005A91748FDF7D5FF4FF40C
:1032F000E13001900020ADF80800ADF80A00ADF80B
:103300000C00ADF810000C20ADF80E0001A90F481C
:1033100000F030F901210D4800F06DF8012240F273
:1033200025510A4800F000F947208DF800000220DE
:103330008DF801008DF8020001208DF80300684629
:10334000FEF734FE07B000BD001802400014014033
:1033500010B540F227711C4800F0BCF8E0B11B48E2
:1033600002780078401C194B18701948815C164887
:1033700000F06AF940F22771134800F02DF8134865
:10338000007814490978884217D1002240F2277149
:103390000D4800F0C9F810E040F225510A4800F04D
:1033A00099F850B10849091D0988C8B2FDF7CAFC4F
:1033B00040F22551044800F00FF84FF458710248CC
:1033C00000F00AF810BD0000001401404006002083
:1033D0002D0B00204106002010B50022002340F6EE
:1033E0006A14A14200D100BF0A1201249440A3B282
:1033F000DC43048010BD21B1828942F400528281F5
:1034000004E082894DF6FF731A40828170471AB139
:10341000838A0B43838202E0838A8B4383827047D3
:1034200010B504462548844208D101211020FEF73A
:10343000B3FF00211020FEF7AFFF3EE0204884429A
:1034400009D101214804FEF787FF00214FF4003025
:10345000FEF782FF31E01B48844209D10121880434
:10346000FEF77AFF00214FF48020FEF775FF24E07D
:103470001548844209D10121C804FEF76DFF0021DF
:103480004FF40020FEF768FF17E01048844209D18E
:1034900001210805FEF760FF00214FF48010FEF7C0
:1034A0005BFF0AE00A48844207D101212020FEF791
:1034B00073FF00212020FEF76FFF10BD00100140B8
:1034C0000044004000480040004C004000500040D4
:1034D0000014014070B5024600240023002500209E
:1034E00040F66A16B14200D100BFC1F3421501F0A7
:1034F0001F03012606FA03F3012D02D196893340FA
:1035000006E0022D02D1168A334001E0968A33404C
:103510000C12012606FA04F41688344013B10CB1DB
:10352000012000E0002070BDF0B503460024002615
:103530000025002040F66A17B94200D100BF1846A6
:10354000C1F3421401F01F06012707FA06F5012C0A
:1035500001D10C3004E0022C01D1103000E0143015
:103560001AB107682F43076002E00768AF4307609E
:10357000F0BD00002DE9FF4705460E460024A14698
:1035800000BFA046B08900B100BF2C8A24F440548B
:10359000F08804432C82AC8941F20C608443B088EB
:1035A00031890843718908430443AC81AC8A24F40F
:1035B0004074B0890443AC826846FEF7FDFE2048A3
:1035C000854202D01F48854202D1DDF80C9001E00F
:1035D000DDF80890A88900F4004040B109EBC9006B
:1035E00000EB091031684900B0FBF1F707E009EB87
:1035F000C90000EB091031688900B0FBF1F76420C5
:10360000B7FBF0F004012009642101FB1078A889C0
:1036100000F4004040B1322000EBC800B0FBF1F0F4
:1036200000F00700044308E0322000EB081064219A
:10363000B0FBF1F000F00F0004432C81BDE8FF87E0
:103640000010014000140140C1F30802828070475D
:103650004FF41651016000218180C18001810C214D
:10366000418100218181704700BFFEE72DED020BF3
:10367000019820F0004001909DED000B02B07047D2
:1036800002E008C8121F08C1002AFAD1704770472B
:10369000002001E001C1121F002AFBD1704710B5C4
:1036A000002107E04AF2104200BF131EA2F10102FE
:1036B000FBD1491C8142F5D310BD0000FCF775FE1B
:1036C0004FF448700E490860091D08604FF4967069
:1036D000FFF7E5FFFEF740F811E00A48B0F90400F3
:1036E00000EE100AB8EEC00ADFED070A80EE201ADD
:1036F0009FED060A21EE000A054880ED000AECE77E
:10370000340C004054000020000000470000344307
:10371000040000206B806B036C001A031B101C015B
:103720001D026A2037023801000000004C370008F3
:10373000000000204806000054030008103800086C
:10374000480600204811000090360008013403AEFE
:1037500008072D0102030404E506070809036B802E
:103760003F023EFF2372431A34043164409FC0037A
:103770002A82422790410AD7233CD3C8412420996A
:1037800045137A448C80BB4410A1133920140811CE
:103790002102160837C0406F12833A094954274066
:1037A0004117B7D1380A49705403150442093B54F4
:1037B0000B238040540B2F409C54FDCDCC4C3E54E9
:1037C0007CC05A45540CFD60EA46540925541162E8
:1037D000413A405CA11A7A4C23484353C8420C2218
:1037E000B09A455413CB241B08A1041AE5041ADF30
:1037F000041AE9041ACD04092924021201C9130983
:1038000041640923240B28D007040312FFFFF20AA6
:040000050800018965
:00000001FF
