:020000040800F2
:10000000E81500209D01000839450008552B00081F
:100010004D420008470B000831670008000000004F
:10002000000000000000000000000000C94F0008B0
:10003000B9200008000000000D480008B5010008C4
:10004000B7010008B7010008B7010008B7010008B0
:10005000B7010008B7010008B7010008BD2000087B
:10006000B7010008B7010008B7010008B701000890
:10007000B7010008B7010008B7010008B701000880
:10008000B7010008B7010008B7010008710C0008AB
:10009000410C0008B7010008B7010008B7010008CB
:1000A000B7010008B7010008B7010008B701000850
:1000B000355E0008B7010008B7010008B701000865
:1000C000B7010008B7010008B7010008B701000830
:1000D000B701000871620008B7010008ED6300086D
:1000E000B7010008B7010008B7010008B701000810
:1000F000B7010008B7010008B7010008B701000800
:10010000B7010008B7010008B7010008B7010008EF
:10011000B7010008B7010008A15E0008B701000898
:10012000B7010008B7010008B7010008B7010008CF
:10013000B7010008B7010008B7010008B7010008BF
:10014000B7010008B7010008B7010008B7010008AF
:10015000B7010008B7010008B7010008B70100089F
:10016000B7010008B7010008B7010008B70100088F
:10017000B7010008B7010008B7010008B70100087F
:10018000B7010008B7010008DFF80CD000F018FB39
:100190000048004779730008E815002006488047AA
:1001A00006480047FEE7FEE7FEE7FEE7FEE7FEE75C
:1001B000FEE7FEE7FEE7FEE7915D00088901000823
:1001C00040EA01039B0703D009E008C9121F08C0D9
:1001D000042AFAD203E011F8013B00F8013B521E59
:1001E000F9D270472DE9FE4F81EA030404F0004480
:1001F00021F0004100944FF0000B23F0004350EA3F
:1002000001045ED052EA03045BD0C3F30A54C1F385
:100210000A552C44A4F2F3340194A0FB0254C1F318
:10022000130141F48011C3F3130343F4801301FB62
:10023000024400FB034E840A970A44EA815447EAC9
:100240008357A4FB076802958D0A05FB07854FEAD3
:10025000932C04FB0C542705029D4FEA065847EAED
:100260001637B5EB08056EEB070C870E920E47EAC2
:10027000811742EA8312A7FB0201B6EB0B0164EB84
:1002800000042B0D43EA0C335E1844EB1C50DA4695
:100290005146E7FB0201C5F313044FEA0B3343EA6F
:1002A00014534FEA0432019C43EA0603A4F10C0400
:1002B0000294009CCDE900B400F03CF903B0BDE825
:1002C000F08F00200146F9E72DE9F04D81EA0304A3
:1002D00004F0004B21F0004514464FF0000A23F0D3
:1002E000004150EA050220D054EA01021DD0C5F3B6
:1002F0000A570246C5F31303C1F31300C1F30A56AC
:1003000040F4801543F48013A7EB0608101BD64673
:1003100008F2FD3873EB050002D308F1010801E093
:1003200092185B41B8F1000F03DA00200146BDE8E6
:10033000F08D00204FF48011064684460EE0171B16
:1003400073EB050705D3121B63EB050306434CEA69
:10035000010C49084FEA300092185B4150EA01074E
:10036000EDD152EA030012D082EA040083EA0501CB
:10037000084305D0101BAB4106D20122002306E042
:1003800000224FF0004302E06FF0010253101AEB1D
:1003900006004CEB085110EB0A0041EB0B01BDE8E5
:1003A000F04D00F0B8B80EB5C10F80EAE070084417
:1003B000CA07002140F233438DE80E000A460B467F
:1003C00000F0B8F803B000BDC1F30A5210B5C1F394
:1003D000130140F2FF3341F480119A4201DA002008
:1003E00010BD40F233439A42A2F2334203DC524240
:1003F00000F04AF810BD904010BD00F0004230F00F
:1004000000400AD0C10D01F56071C0F3160042EA48
:100410000151C20840071143704700200146704750
:1004200030B5041E71F1000404DB4FF0004440427B
:1004300064EB0101141E73F1000405DB1C464FF050
:100440000043524263EB0403994208BF904230BD1F
:1004500001F0004330B421F0004150EA010206D01F
:100460000A0DA2F56072C1F31301002A02DC30BC50
:1004700000207047440F44EAC104C100E01830BCBA
:1004800000EBC25000F010B8202A04DB203A21FA19
:1004900002F00021704721FA02F3D040C2F120029D
:1004A00091400843194670470029A8BF7047401C77
:1004B000490008BF20F00100704710B4B0FA80FC7A
:1004C00000FA0CF050EA010404BF10BC704749B1B7
:1004D000CCF1200421FA04F411FA0CF118BF012127
:1004E00021430843A3EB0C01CB1D4FEA00614FEA07
:1004F000102042BF002010BC704700EBC3501044D6
:100500000029A4BF10BC7047401C490008BF20F060
:10051000010010BC704710B5141E73F1000408DA16
:10052000401C41F1000192185B411A4301D120F0B7
:10053000010010BD2DE9F04D92469B4611B1B1FA74
:1005400081F202E0B0FA80F22032904600F04AF9DF
:1005500004460F4640EA0A0041EA0B0153465A4658
:10056000084313D0114653EA010019D0C8F14002E4
:100570005046FFF789FF05460E465046594642460B
:1005800000F030F9084305D0012004E02046394648
:10059000BDE8F08D0020054346EAE0762C43374362
:1005A0000A986305E40AA0EB08000022FD0A44EA69
:1005B00047540A3002D500200146E9E70105101929
:1005C0006941DDE9084500196941BDE8F04DA2E740
:1005D0002DE9FE4F804681EA0300C00F0C460090D3
:1005E00021F0004123F00045B8EB0200A94105D2FB
:1005F0004046214690461C460B46024623F00040EA
:10060000104347D0270DC7F30A00C3F30A510290E5
:10061000401A019040286BDAC3F3130040F4801BAA
:100620000098924620B10023D2EB030A63EB0B0B38
:1006300001985946C0F14002504600F0D3F80646F2
:100640000D4650465946019A00F0DBF810EB0800C1
:100650006141002487EA115284EAE7731A4340D0CB
:10066000009A62B3019A012A4FEA075215DC001B77
:1006700061EB02014FF0004202EA0752CDE900426D
:10068000001C41F5801132462B46FFF753FF03B0A3
:10069000BDE8F08F40462146F9E7001B61EB0201FF
:1006A000001C41F5801300185B412018A2F50017CB
:1006B00047EB030140EAD570B6196D4111E06D08B2
:1006C0004FEA360645EAC0754FEA0752001B61EB58
:1006D0000201001C41F5801149084FEA3000001961
:1006E000514132462B4603B0BDE8F04FFFF713BF30
:1006F0000098012240000023D0EB020263EBE0737C
:10070000009821464FEAE074B8EB000061EB040169
:10071000E9E783F000435BE781F0004158E72DE90A
:10072000F04D00231A461B1A8A4103DB00200146C4
:10073000BDE8F08DC1F30A52C1F3130141F48015F5
:100740004FF0000BD10702D100186D41521E002757
:10075000044640F2FF11384601EB620A3E468046ED
:10076000024600204FF48011FFF78EFEC21971413E
:10077000BB1846EB0100B4EB030C75EB000C04D383
:10078000E41A65EB000517460E46241908F101002E
:100790006D4180463428E3DDF91946EB0600091B5C
:1007A000A84103D24FF0FF32134601E00022134666
:1007B0001BEB070046EB0A51BDE8F04DFFF7ABBE5F
:1007C000064C074D06E0E06840F0010394E807009E
:1007D00098471034AC42F6D3FFF7DAFC28750008CE
:1007E00048750008202A04DB203A00FA02F10020B4
:1007F00070479140C2F1200320FA03F3194390405F
:100800007047202A06DBCB17203A41FA02F043EA70
:10081000E07306E041FA02F3D040C2F120029140B9
:1008200008431946704770B58C1810F8015B15F035
:10083000070301D110F8013B2A1106D110F8012B52
:1008400003E010F8016B01F8016B5B1EF9D12B0777
:1008500005D40023521E0DD401F8013BFAE710F82D
:10086000013BCB1A921C03E013F8015B01F8015B1A
:10087000521EF9D5A142D8D3002070BD00B59BB05F
:100880006822434901A8FFF79BFC9DF804005A2801
:1008900010D19DF80D005A280CD19DF814005A284B
:1008A00008D101203B490870672201A93A48FFF7A7
:1008B00087FC07E00020374908703749C1F801007C
:1008C0005A2008703448407A5A2808D0002132480B
:1008D0004172A0F8071000202F49A1F805002E480A
:1008E000007C5A2809D000212B48017400202A4995
:1008F0004881002128488181C181274890F8230040
:100900005A2820D00021244880F8231000202249B2
:10091000A1F8110000212048A0F81310A0F815102C
:10092000B7EE000A10EE100A1B49C1F81700B7EE27
:10093000000A10EE100AC1F81B00B7EE000A10EE14
:10094000100AC1F81F00144890F836005A281DD02C
:100950000021114880F8361000200F4988840021BA
:100960000D48C1840185B7EE000A10EE100A0A494D
:10097000C1F82A00B7EE000A10EE100AC1F82E00E6
:10098000B7EE000A10EE100AC1F832001BB000BD2D
:1009900000000E0890040020FC08002010B501247F
:1009A00067220349034800F057F80446204610BD6B
:1009B000FC08002000000E0801461C48814201D2BC
:1009C000002070471A48814201D20820F9E71948EF
:1009D000814201D21020F4E71748814201D2182049
:1009E000EFE71648814201D22020EAE7144881420D
:1009F00001D22820E5E71348814201D23020E0E708
:100A00001148814201D23820DBE71048814201D2EF
:100A10004020D6E70E48814201D24820D1E70D4858
:100A2000814201D25020CCE75820CAE7004000089C
:100A30000080000800C00008000001080000020853
:100A400000000408000006080000080800000A086A
:100A500000000C0800000E082DE9FC5F04460D465E
:100A600090464FF008090120019000264FF0000A3F
:100A700000274FF0000B00200090B4F1006F01D26E
:100A8000BDE8FC9F01F0B6FC002001F009FC264601
:100A900004EB080A3046FFF78FFF83465046FFF706
:100AA0008BFF00901648864211D25F460BE0022170
:100AB000384601F007FC8146B9F1080F02D000204A
:100AC000019003E0083700988742F0D900BFB9F1E0
:100AD000080F0ED10AE02978204601F065FC0828AD
:100AE00002D00020019003E0641C6D1C5445F2D339
:100AF00000BF012001F0D4FB01F04CFC0198BFE7DE
:100B00000000FF1F10B54FF4A06003F053FD03F089
:100B1000E9FD03F091F805F06FF904F0ABF903F08B
:100B2000C5F903F001FA05F095F900F00FF805F0AA
:100B3000FFFA05F005FC642006F0D0FB01F0A8FBED
:100B400005F0C2F910BD00BFFEE7000000B58BB094
:100B50000121082003F084FE0121480603F090FEE5
:100B60000320099002208DF8280000208DF82A002B
:100B700003208DF8290001208DF82B0009A92E48AB
:100B800001F0A8FC092201212B4801F0EBFC09220D
:100B90000021294801F0E6FC00208DF81E008DF8A8
:100BA0001F008DF8200001208DF8210000208DF815
:100BB00022008DF823008DF81A008DF81B00052007
:100BC0008DF81C0006208DF81D000320ADF81800DC
:100BD00006A91A4800F0CBF900208DF812008DF814
:100BE000130001208DF814000020ADF80800ADF8C6
:100BF0000A00ADF80C00ADF80E00ADF810000120B1
:100C00008DF8150002A800F095F8012202210B488A
:100C100000F0A4F914208DF8040001208DF80500DF
:100C200000208DF8060001208DF8070001A803F0D0
:100C300085FC0BB000BD0000000C024000640040C9
:100C400000B585B00221094800F0F8F858B102213A
:100C5000064800F01BF86A460021044800F011FA2B
:100C6000684600F08FFD05B000BD00000064004044
:100C700010B50121044800F0E1F818B10121024843
:100C800000F004F810BD000000640040B1F5007FE2
:100C90003AD00FDC202928D006DC01291CD00429F9
:100CA0001DD0082940D11DE0402921D0B1F5807F19
:100CB0003AD126E0B1F5004F31D006DCB1F5806FB6
:100CC00025D0B1F5006F2FD124E0B1F5803F12D0CF
:100CD000B1F5003F28D111E0154A826025E00822D5
:100CE000C26022E01022C2601FE0082202611CE004
:100CF0001022026119E00822426016E010224260D0
:100D000013E00422426010E0042242600DE004225D
:100D100042600AE0002282610422426005E0002273
:100D200082610422426000E000BF00BF7047000003
:100D30000101010010B50021837A012202FA03F1BA
:100D40003D4A126842F001023B4B1A603A4A1C329B
:100D500012688A43384B1C331A60027BCAB9364A80
:100D60000C3212688A43344B0C331A604288C388B1
:100D700042EA0343304A4032847A42F834300288EF
:100D8000838842EA03432C4A4032847A02EBC4024D
:100D90005360027B012A19D1274A0C3212680A4398
:100DA000254B0C331A604288038842EA0343224AE7
:100DB0004032847A42F83430C288838842EA03435E
:100DC0001D4A4032847A02EBC4025360C27A3AB9B7
:100DD000194A121D12688A43174B1B1D1A6006E040
:100DE000154A121D12680A43134B1B1D1A60028913
:100DF00032B9114A143212688A430F4B14331A6005
:100E00000289012A06D10C4A143212680A430A4B9D
:100E100014331A60427B012A06D1074A1C32126839
:100E20000A43054B1C331A60034A126822F0010280
:100E3000014B1A6010BD00000066004070B504460A
:100E40000D46002660692840002871D0B5F5807FE6
:100E50005CD010DC082D35D006DC012D20D0022D11
:100E600024D0042D72D127E0102D31D0202D35D083
:100E7000402D6BD138E0B5F5004F60D009DCB5F5F9
:100E8000007F49D0B5F5806F4CD0B5F5006F5DD1CE
:100E90004FE0B5F5803F2DD0B5F5003F56D12FE09E
:100EA000A0682D4900F06EFD064651E0E068032180
:100EB00000F068FD06464BE0E068082100F062FDA6
:100EC000064645E0E068102100F05CFD06463FE084
:100ED0002069032100F056FD064639E0206908210B
:100EE00000F050FD064633E02069102100F04AFD75
:100EF00006462DE06068082100F044FD064627E024
:100F00006068102100F03EFD064621E0A069012145
:100F100000F038FD06461BE0A069022100F032FD1A
:100F2000064615E0A069042100F02CFD06460FE0FE
:100F30000FE0A069702100F025FD064608E060681A
:100F4000042100F01FFD064602E0FFE7002600BF77
:100F500000E00026304670BD010101001AB143696E
:100F60000B43436102E043698B434361704730B5F3
:100F7000024600200023146824F002041460146860
:100F800044F00104146000E05B1C546804F00104A8
:100F90001CB94FF6FF74A342F6D1546804F0010463
:100FA0000CB900206CE08C79012C04D1146844F059
:100FB0008004146003E0146824F080041460CC7989
:100FC000012C04D1146844F04004146003E0146858
:100FD00024F0400414600C7A012C04D1146844F00D
:100FE0002004146003E0146824F0200414604C7A98
:100FF000012C04D1146844F01004146003E0146858
:1010000024F0100414608C7A012C04D1146844F08C
:101010000804146003E0146824F008041460CC7A17
:10102000012C04D1146844F00404146003E0146833
:1010300024F0040414608C78A407CD7844EA056495
:101040000D7944EA05444D7944EA05540D886D1E36
:101050002C43D461146824F001041460002300E0E0
:101060005B1C546804F001041CB14FF6FF74A342EA
:10107000F6D1546804F001040CB1002000E0012016
:1010800030BD10B500F5D87303EB01131B6803F0F6
:1010900004031372137A53B900F5D87303EB0113E9
:1010A0001B6840F2FF7404EA5353136009E000F533
:1010B000D87303EB01131B686FF0604404EAD30399
:1010C000536000F5D87303EB01131B6803F00203B0
:1010D000537200F5D87303EB01135B6803F00F0341
:1010E000937200F5D87303EB01135B681B0AD3748A
:1010F00000F5D87303EB01139B68D37200F5D87326
:1011000003EB01139B681C0A147300F5D87303EBFF
:1011100001139B681C0C547300F5D87303EB011387
:101120009B681B0E937300F5D87303EB0113DB6808
:10113000D37300F5D87303EB0113DB681C0A147436
:1011400000F5D87303EB0113DB681C0C547400F535
:10115000D87303EB0113DB681B0E937421B9C368CA
:1011600043F02003C36003E0036943F020030361FD
:1011700010BD10B502460020936803F08063B3F100
:10118000806F00D110E0936803F00063B3F1006F4B
:1011900001D1012008E0936803F08053B3F1805F30
:1011A00001D1022000E00420042874D002F5C073AD
:1011B00003EB00131B6803F0010402F5C07303EB9B
:1011C00000131C600B7A7BB94B7A0C8843EA4453BA
:1011D00002F5C07404EB00142468234302F5C074C4
:1011E00004EB0014236010E00B7A4C6843EAC4035C
:1011F0004C7A234302F5C07404EB001424682343A3
:1012000002F5C07404EB001423608B7A03F00F0323
:101210008B7202F5C07303EB00135B6823F00F04BD
:1012200002F5C07303EB00135C6002F5C07303EBBF
:1012300000135B688C7A234302F5C07404EB00143E
:1012400063608B7B1C064B7B44EA03440B7B44EAC4
:101250000323CC7A234302F5C07404EB0014A3608B
:101260008B7C1C064B7C44EA03440B7C44EA03233E
:10127000CC7B234302F5C07404EB0014E36002F559
:10128000C07303EB00131B6843F0010402F5C07345
:1012900003EB00131C6010BD08B501F087FA18B904
:1012A0000020E849888016E09FEDE70AE74880EDD6
:1012B000000AE74890ED100AE44880ED010AC16C8D
:1012C0008847E24890ED0E0ABDEEC00A10EE100A03
:1012D00000B2DC498880DB48B0F900004042C0EB36
:1012E000C000D849B1F90210C1EBC101084400EEB9
:1012F000100AB8EEC00AD74880ED000AD148B0F90C
:101300000000C0EBC000CF49B1F90210C1EBC10130
:10131000084400EE100AB8EEC00ACF4880ED000A7B
:10132000C848B0F90000C0EBC000C649B1F90210CE
:10133000C1EBC101401A00EE100AB8EEC00AC7485E
:1013400080ED000ABF48B0F900004042C0EBC00089
:10135000BC49B1F90210C1EBC101401A00EE100AFC
:10136000B8EEC00ABE4880ED000ABE48007A0228E6
:1013700044D1B848D0ED000AB248B0F9060000EBFD
:10138000400000EE100AB8EEC00A30EE800AB14804
:1013900080ED000AB048D0ED000AAA48B0F9060076
:1013A00000EB400000EE100AB8EEC00A30EE800AF2
:1013B000A94880ED000AA948D0ED000AA148B0F97B
:1013C000060000EB400000EE100AB8EEC00A30EE56
:1013D000800AA24880ED000AA148D0ED000A994891
:1013E000B0F9060000EB400000EE100AB8EEC00AAB
:1013F00030EE800A9A4880ED000A47E09548D0ED2B
:10140000000A9048B0F9040000EB8000800000EE74
:10141000100AB8EEC00A30EE800A8E4880ED000A4D
:101420008D48D0ED000A8748B0F9040000EB800039
:10143000800000EE100AB8EEC00A30EE800A86483E
:1014400080ED000A8548D0ED000A7E48B0F904001E
:1014500000EB8000800000EE100AB8EEC00A30EE0B
:10146000800A7E4880ED000A7D48D0ED000A75486C
:10147000B0F9040000EB8000800000EE100AB8EE26
:10148000C00A30EE800A764880ED000A7648B0F94E
:10149000000000EE100AB8EEC00A6E4880ED010AA6
:1014A0007248B0F9000000EE100AB8EEC00A6A48AF
:1014B00080ED010A6E48B0F9000000EE100AB8EEA7
:1014C000C00A664880ED010A6A48B0F9000000EEE3
:1014D000100AB8EEC00A624880ED010A5D48C16C8E
:1014E00088475D48C16C88475C48C16C88475C4848
:1014F000C16C8847574890ED0E0ADFED5F0AB4EEE5
:10150000E00AF1EE10FA0CDD90ED0E0ADFED5B0A59
:10151000B4EEE00AF1EE10FA03D29FED4B0A80ED33
:101520000E0A4D4890ED0E0ADFED530AB4EEE00AC4
:10153000F1EE10FA0CDD90ED0E0ADFED500AB4EE7C
:10154000E00AF1EE10FA03D29FED3F0A80ED0E0A99
:10155000424890ED0E0ADFED480AB4EEE00AF1EEE3
:1015600010FA0CDD90ED0E0ADFED440AB4EEE00A4D
:10157000F1EE10FA03D29FED340A80ED0E0A3848DE
:1015800090ED0E0ADFED3C0AB4EEE00AF1EE10FA3F
:101590000CDD90ED0E0ADFED390AB4EEE00AF1EE53
:1015A00010FA03D29FED280A80ED0E0A01F0FEF832
:1015B000032809D002F03DFB30B901F0F7F8042808
:1015C00002D001F0F3F840B900200346024601467C
:1015D00000902B4804F058FB33E0214890ED0E0AB0
:1015E000F7EE000A20EE200ABDEEC00A10EE100A47
:1015F00000B20090194890ED0E0AF7EE000A20EEB6
:10160000200ABDEEC00A10EE100A03B2124890ED97
:101610000E0AF7EE000A20EE200ABDEEC00A10EE18
:10162000100A02B20B4890ED0E0AF7EE000A20EE07
:10163000200ABDEEC00A10EE100A01B2104804F0F4
:1016400023FB08BDB804002000000000F4010020C6
:101650004C080020480200209C020020F0020020DC
:1016600044030020040A0020D4080020DE080020E3
:10167000E8080020F208002000002FC400002F44DA
:101680000064004010B5022002F03CFA18B10220BC
:1016900003F0E8FB6AE0042002F034FA90B101F0B4
:1016A000E5F90446002C61D0012C5FD0022C5DD1FD
:1016B0002F4804F00DFA2F4804F06AF9042003F0D3
:1016C000D1FB53E0402002F01DFA18B1402003F096
:1016D000C9FB4BE0802002F015FA90B101F0CEF882
:1016E0000446002C42D0012C40D0022C3ED122488E
:1016F00004F0B2F91F4804F04BF9802003F0B2FB6C
:1017000034E0102002F0FEF958B102F08FFD0446DB
:1017100064B3012C2AD0022C28D1102003F0A2FBA4
:1017200024E0202002F0EEF988B102F035FD0446F5
:10173000E4B1012C1AD0022C18D1104804F0ECF9B5
:101740000C4804F025F9202003F08CFB0EE04FF448
:10175000807002F0D7F948B1094804F0EBF9054868
:1017600004F016F94FF4807003F07CFB10BD00000C
:1017700048040020FC0800204F04002063090020DA
:101780007609002070B52DED048B04467148006881
:10179000401C704908602068B0F5017F32D007DC3A
:1017A000A0F2012068B1012816D002287DD11EE0E8
:1017B000A0F2052088B301285CD0B0F5FE7FF5D1FA
:1017C00080E0032000F010FF054602F06BFA21468E
:1017D000614805F09DFD92E0042000F005FF0546FC
:1017E00002F060FA21465D4805F092FD87E0052091
:1017F00000F0FAFE054602F055FA2146584805F079
:1018000087FD7CE0062000F0EFFE054602F04AFA74
:101810002146544805F07CFD71E0FFE7072000F009
:10182000E3FE054602F03EFA21464F4800F0C4FCB4
:1018300000F0BCFFE8B94C4880694B498968401A00
:1018400010F57A6F0ADA4948B0F9050000F5005042
:101850004549886142F2E65088610AE04248806961
:1018600041498968401AB0F57A6F02DD40483E4927
:10187000886144E0082000F0B7FE054602F012FA45
:1018800021463C4800F098FC32480068642818D88B
:101890003848806937498968401A10F57A6F05DA47
:1018A00043F6E020334988610BE027E03148806946
:1018B00030498968401AB0F57A6F02DD2E482D490B
:1018C00088611CE0022000F08FFE054602F0EAF974
:1018D000E07A0106207B41EA0041607B41EA00207A
:1018E000A17B084300EE100AB8EEC00ADFED230A20
:1018F00020EE200A224880ED000A00E000BF00BF71
:10190000194890ED100A10EE101A0846FEF775FD02
:1019100041EC190BB0EE490AF0EE690A05F0C8FB7C
:10192000B0EE408AF0EE608A51EC180BFEF74CFDE9
:101930000546462102F0B9F918B100F037FF032837
:1019400005D1092000F050FE054602F0ABF9BDECD0
:10195000048B70BD9C000020D4080020DE0800200D
:10196000E8080020F20800204C080020FC080020B5
:10197000E6E5FFFF90080020E0FAFFFF0AD723BC4E
:10198000A00000200246002002EA01030BB1012062
:1019900000E000207047000010B510480068401CAF
:1019A0000E49086004F0C6FE0C480068642801D2A5
:1019B00001F04CFF00F0B4FF00F040FD00F070FDBE
:1019C00004F058F8FFF75EFE0448007800F00300CA
:1019D00018B9FFF761FC04F0AFF910BD380400201E
:1019E00010B5002041490860FEF748FF404803F069
:1019F000CFFF002004F042F93E484FF4FA61C2697B
:101A000090473D484FF4FA61C2699047394881696F
:101A100088473948816988479FED380A384880ED02
:101A2000000A9FED360A80ED010A002000F0DCFD7F
:101A3000044602F037F9012000F0D6FD044602F01A
:101A400031F9022000F0D0FD044602F02BF903200A
:101A500000F0CAFD044602F025F9042000F0C4FDA0
:101A6000044602F01FF9052000F0BEFD044602F016
:101A700019F9062000F0B8FD044602F013F907201A
:101A800000F0B2FD044602F00DF9082000F0ACFDB4
:101A9000044602F007F9092000F0A6FD044602F012
:101AA00001F90A2000F0A0FD044602F0FBF81548F9
:101AB000016D88471448016D88471448016D8847B7
:101AC0001348016D88471348016D88471248016D1E
:101AD00088471248016D88471148016D88471148B1
:101AE000016D88471048016D884710BD38040020FB
:101AF000FC080020F0030020140400200000000077
:101B00001C0A002098030020A4000020F8000020F8
:101B10004C010020A0010020F40100204802002018
:101B20009C020020F00200204403002021B1026842
:101B300042F00102026003E0026822F0010202604A
:101B400070470000016821F001010160002101607F
:101B500041608160C1600161212141614A4988423F
:101B600004D13D21484A103A91608CE04649183131
:101B7000884205D14FF47461434A103A916082E083
:101B800041493031884205D14FF474113E4A103A30
:101B9000916078E03C494831884205D14FF074614A
:101BA000394A103A91606EE037496031884204D179
:101BB0003649354A103AD16065E033497831884278
:101BC00004D13349304A103AD1605CE02E4990315B
:101BD000884204D12F492C4A103AD16053E02A4957
:101BE000A831884205D14FF03D51274A103AD160C3
:101BF00049E02949884204D13D21274A083A116029
:101C000041E025491831884205D14FF47461224AD8
:101C1000083A116037E020493031884205D14FF44D
:101C200074111D4A083A11602DE01B494831884261
:101C300005D14FF07461184A083A116023E0164943
:101C40006031884204D11149134A121F11601AE011
:101C500011497831884204D10D490F4A121F116091
:101C600011E00D499031884204D10A490A4A121FF5
:101C7000116008E00849A831884204D14FF03D5175
:101C8000054A121F11607047106002403D0000209D
:101C9000400F002000003D201064024021B1026886
:101CA00042F48022026003E0026822F48022026093
:101CB000704722B1036843F40023036003E0036824
:101CC00023F400230360016170470146486880B235
:101CD0007047014600200A6802F400220AB1012080
:101CE00000E000207047000010B500220268134B8E
:101CF0001A40CC680B6823434C6923438C69234307
:101D0000CC6923430C6A23434C6A23438C6A2343E4
:101D10004C6B23438C6B23431A430260426922F0CD
:101D20000702D1E90B3423431A4342610B69436034
:101D30004B6883608B68C36010BD00003F801CF05F
:101D40000021016041608160C16001614161816188
:101D5000C161016241628162C16201634163816369
:101D60007047000010B51C48007860B100201A4987
:101D700008701A4890F82300401DC1B2174820305F
:101D800000F032F80CE01648007848B10020144901
:101D900008701248C078401DC1B2104800F024F805
:101DA00010480078012804D100200E49087003F083
:101DB0005DFA0C484078012804D100200949487098
:101DC00003F050FB07488078012804D10020054922
:101DD000887003F043FC10BD85050020C805002075
:101DE000840500207405002070B504460D460026C9
:101DF000002004E0215C3144CEB2411CC8B2691E0F
:101E00008142F7DC601910F8010CB04200D070BDBF
:101E10002078AA2802D16078AF2800D0F7E7A07810
:101E2000012815D12079022803D1042003F006FEF1
:101E3000EDE72079042803D1202003F0FFFDE6E739
:101E40002079052803D1802003F0F8FDDFE7DEE7E5
:101E5000A078022808D12079012804D15A490870B5
:101E600048708870D3E7D2E7A07810284CD1207949
:101E7000000200B2617908435449A1F83900A07901
:101E8000000200B2E17908435049A1F83B00207AF2
:101E9000000200B2617A08434C49A1F83D00A07AE3
:101EA000000200B2E17A08434849A1F84100207BD2
:101EB000000200B2617B08434449A1F84300A07BC3
:101EC000000200B2E17B08434049A1F84500207CB4
:101ED000000200B2617C08433C49A1F84900A07CA3
:101EE000000200B2E17C08433849A1F84B00207D94
:101EF000000200B2617D08433449A1F84D0031462B
:101F0000102003F029F982E7A078112853D1207915
:101F1000000200B2617908432C49A1F85100A07970
:101F2000000200B2E17908432849A1F85300207A61
:101F3000000200B2617A08432449A1F85500A07A52
:101F4000000200B2E17A08432049A1F85900207B41
:101F5000000200B2617B08431C49A1F85B00A07B32
:101F6000000200B2E17B08431849A1F85D00207C23
:101F7000000200B2617C08431449A1F86100A07C12
:101F8000000200B2E17C08431049A1F86300207D03
:101F9000000200B2617D08430C49A1F8650031469A
:101FA000112003F0D9F8094802F00EFB4FF48070BD
:101FB00003F044FD2BE7A078142803D1314603F049
:101FC000CBF824E700BF22E7740500207D0B00203A
:101FD0003449097859B9AA2846D13349334A127885
:101FE00001EB4211087001212E4A11703CE02D498D
:101FF000097801290FD1AF2809D12B492B4A127832
:1020000001EB421148700221264A11702CE0002198
:10201000244A117028E023490978022909D122496C
:10202000224A127801EB4211887003211D4A117077
:102030001AE01C490978032909D11B491B4A127867
:1020400001EB4211C8700421164A11700CE01649C8
:10205000164A127801EB4211124A1278885411493B
:102060000978491C0F4A11700F49104A127801EB88
:102070004211C978491D0B4A1278914211D10021B1
:10208000084A11700949097831B10021074A1170D5
:102090000121074A117004E00121044A1170054A28
:1020A0001170704783050020C805002082050020BC
:1020B00085050020840500207047000010B502202F
:1020C00000F01CF850B1022000F00CF8022000F0E3
:1020D0000FF801200249087000F092FA10BD0000CC
:1020E000880000200149086070470000143C01404E
:1020F0000149086070470000143C0140014600207F
:102100000022074B1B6803EA0102054B14331B68CE
:102110000B4013B10AB1012000E00020704700001D
:10212000003C0140002123498279002A3AD00A4626
:10213000126803689A430B461A600A1D1268036806
:102140009A430B1D1A60027911440A6803681A4306
:102150000A60184A0832126803689A43154B08331C
:102160001A601A1D126803689A43124B0C331A60E6
:102170004279102A0ED11A1F126803681A430D4BB8
:1021800008331A601A1D126803681A43094B0C338E
:102190001A600DE00749427911440A6803681A433E
:1021A0000A6005E0027911440A6803689A430A60EC
:1021B00070470000003C014070B500220023046815
:1021C00044600C7BCD7A44EA0524046004684568C9
:1021D000641BC460C4682B4DAC4207DA846B641C7A
:1021E0008463C46804F50054C4610EE0C46841F619
:1021F0004C55AC4207DD846B641E8463C468A4F54F
:102200000054C46101E0C468C4610568846B05EBD7
:102210004434846004688569641B00EE104AB8EE9B
:10222000C00ADFED190A20EE200A9FED181AC0EE51
:10223000010A846B4FF4B4756C4300EE104AB8EE9B
:10224000C00A30EE800A80ED100AC669047D651C64
:10225000057500F1200545F82460047D062C01D1A8
:1022600000240475002205E000F1200454F8224007
:102270002344521C062AF7DB062493FBF4F4C463C0
:1022800070BD0000B4E2FFFF0000B4430000004650
:1022900047F6FF70014908607047000024040040C1
:1022A00030B10749096841F48061054A116005E0D1
:1022B0000349096821F48061014A116070470000F8
:1022C000003C024070B504460A460026082502B9C3
:1022D00009E0012A01D1160205E0022A01D1160205
:1022E00001E04FF4407600F097F80546082D28D11C
:1022F0001548006820F440701349086008460068DB
:10230000304308600846006820F0F800086008467E
:10231000006844F0020108430B4908600846006861
:1023200040F48030086000F077F805460648006801
:1023300020F00200044908600846006820F0F80018
:102340000860284670BD0000103C0240082010497B
:10235000096801F48031B1F5803F01D1012015E019
:102360000B49096801F0100109B105200EE0084988
:10237000096801F0EF0109B1062007E00449096886
:1023800001F0020109B1072000E0082070470000B9
:102390000C3C02400348006840F0004001490860DE
:1023A00070470000103C024030B502460C4608253C
:1023B00000F032F80546082D17D10D48006820F4CA
:1023C00040700B49086008460068086008460068CD
:1023D00040F001000860147000F01EF80546044843
:1023E000006820F0010002490860284630BD000066
:1023F000103C02400548006800F0004028B1044845
:1024000002490C390860034808607047103C0240DC
:1024100023016745AB89EFCD08B508200090FFF791
:1024200095FF009002E0FFF791FF00909DF80000FB
:102430000128F8D09DF8000008BD000010B5124832
:1024400090ED000AB1EE400A104880ED000A1048F5
:10245000016988470F48D0ED100A20EE200A0B488A
:1024600080ED010AC16C8847084890ED0E0A0A48C1
:1024700080ED000A094890ED050A074880ED010A41
:10248000C16C884710BD00001C0A0020A400002079
:10249000F003002090080020F8000020080700202A
:1024A00010B50948C16C8847074890ED0E0A0748E7
:1024B00080ED000A064890ED060A044880ED010A06
:1024C000C16C884710BD00004C010020A001002015
:1024D00008070020F0B50A4600210023002400BFB1
:1024E0003DE0012505FA01F3156805EA03049C4265
:1024F00034D105684F000326BE40B5430560157909
:102500004E00B5400668354305601579012D02D0AF
:102510001579022D16D185684F000326BE40B543BC
:10252000856055794E00B5408668354385604568BD
:1025300001268E40B5434560456896798E40B6B217
:1025400035434560C5684F000326BE40B543C560AE
:10255000D5794E00B540C6683543C560491C102981
:10256000BFD3F0BDF0B5002300244D07ED0E02FAF5
:1025700005F3CE1000F1200555F826504E07F70E52
:102580000F26BE40B543CF1000F1200646F8275075
:10259000CE1000F1200555F8265045EA0304CE1070
:1025A00000F1200545F82640F0BD418370470183C6
:1025B00070474FF6FF710160002101714171817117
:1025C000C171704701480068704700009404002002
:1025D0000148007870470000C004002001480078DE
:1025E00070470000C204002001460B2903D20348B3
:1025F00000EB810070470020FCE700003805002058
:10260000324890ED030A324880ED040A2F4890EDDD
:10261000040AB1EE400A2E4880ED050A2B4890EDE1
:10262000050A2B4880ED060A2A4890ED000A2A4840
:1026300080ED000A294890ED000A264880ED000A46
:1026400090ED000A2448D0ED000A30EE600ADFED7C
:10265000240AB4EEE00AF1EE10FA05DB2148006826
:10266000401E2049086013E01A4890ED000A1A48FD
:10267000D0ED000A30EE600ADFED1B0AB4EEE00A8E
:10268000F1EE10FA04D817480068401C154908609C
:10269000144800684FF4B471484300EE100AB8EED5
:1026A000C00A0C48D0ED000A30EE200A0F4880ED39
:1026B000000A0A4890ED010A0D4880ED000A07481B
:1026C00090ED020A0B4880ED000A704708060020D2
:1026D00008070020600000206C0000203C0600205D
:1026E0000000A543840000200000A5C3780000205E
:1026F0007C00002080000020002108480068A0F530
:10270000FE41FF3947F6FF70044A10600448007824
:10271000012801D1084670474842FCE724040040E4
:102720000400002010B501700378047D021D1355CC
:10273000037DD35C447D125D43EA82024270027DD8
:10274000521C02F00F0282754378847D021D125DD7
:1027500043EA02128270037D021DD35C447D125D48
:10276000934205D10D4A1268521C0C4B1A6002E0CC
:1027700000220A4B1A60094A1268282A03D3037DF3
:10278000021DD25CC270027D4275027D521C027530
:10279000027D102A01D10022027510BD30050020F3
:1027A0000148007870470000C1040020014800780B
:1027B00070470000ED030020014602480068084011
:1027C00070470000640500204FF08040406A704769
:1027D000274890ED000AFBEE030AB4EEE00AF1EEA2
:1027E00010FA04D8BBEE030A80ED000A0DE0204881
:1027F00090ED000AF3EE030AB4EEE00AF1EE10FAEF
:1028000003DBB3EE030A80ED000A194890ED010ADC
:102810001848D0ED010A9FED181A70EEC10AB4EE07
:10282000E00AF1EE10FA09D890ED010ADFED120A84
:1028300030EE600A0E4880ED010A17E00C4890ED7A
:10284000010A0C48D0ED010A9FED0B1A70EE810AC7
:10285000B4EEE00AF1EE10FA08DB90ED010ADFEDCC
:10286000060A30EE200A024880ED010A7047000097
:102870001C0A00204C0100200000704210B580208E
:1028800001F0CCF920B94FF4807001F0C7F908B11C
:10289000002010BD1B4801680068401C194A1060E8
:1028A0001948006881420FD2184800681849096821
:1028B0000844174908601748006817490968084420
:1028C000154908600120E4E7114800680E490968CD
:1028D000B0FBF1F000B2114948800F4800680A4986
:1028E0000968B0FBF1F000B20C4908805A20087169
:1028F0000020074908600849086002490860022072
:10290000C7E70000980400209C04002090080020E5
:10291000A00400204C080020A40400204F04002044
:1029200010B5FFF743FF05281FD2DFE800F003458D
:102930001F8586009FED420A424880ED000A42480A
:10294000016988474148D0ED100AF1EE600A20EE97
:10295000200A3C4880ED010A3D4890ED000A3D48C0
:1029600080ED000A01203C49087067E03A48007891
:1029700001280ED10020384908700120374908701D
:10298000344890ED000A364880ED010A00203549B0
:102990000860334890ED010A2A4880ED000A2C486F
:1029A00090ED000A274880ED010A294890ED000AC1
:1029B000284880ED000A41E02A480068401C294967
:1029C0000860084600682849884212D2244890EDE1
:1029D000010A1C4880ED000A1D4890ED000A1948C4
:1029E00080ED010A1A4890ED000A1A4880ED000AAD
:1029F00021E01A48007801280BD1002017490870FF
:102A0000012015490870134890ED000A144880ED24
:102A1000010A134890ED010A0A4880ED000A0C48AB
:102A200090ED000A074880ED010A094890ED000A80
:102A3000084880ED000A01E000E000BF00BF10BDC3
:102A4000000000004C010020140400204C0800206D
:102A500078000020440400203F0400203E040020B1
:102A60001C0A002040040020A086010000B585B0AB
:102A700000200290039004902F49088048808880AD
:102A8000022001F0CBF810B1002005B000BD2B48AA
:102A900001880088401C294A10802948008881420A
:102AA00021DA0DF1120004A9031F03AACDE90010D9
:102AB000891F02A801F0E8FABDF90E002149096852
:102AC000084420490860BDF910001F4909680844FE
:102AD0001D490860BDF912001C49096808441B49DA
:102AE00008600120D1E7174800681549098890FB64
:102AF000F1F000B2164908801348006810490988AF
:102B000090FBF1F000B212494880104800680C496F
:102B1000098890FBF1F000B20D4988805A20887135
:102B2000002008490860084908600849086003490E
:102B300008800220A9E7000059040020A804002012
:102B4000AA040020AC040020B0040020B40400203B
:102B50004804002000BFFEE700B52DED108B93B0B8
:102B6000FE4890ED000AD0ED000A20EE200A8DED1F
:102B7000080A90ED000AFA48D0ED000A20EE200A7B
:102B8000B0EE40FAF54890ED000AF648D0ED000AA4
:102B900020EE200AF0EE40AAF04890ED000AF2483C
:102BA000D0ED000A20EE200A8DED070AEC4890EDEA
:102BB000000AD0ED000A20EE200AF0EE40FA90ED77
:102BC000000AE848D0ED000A20EE200A8DED060A42
:102BD000E34890ED000AE448D0ED000A20EE200A18
:102BE000B0EE40BADF4890ED000AD0ED000A20EECA
:102BF000200AF0EE40BA90ED000ADB48D0ED000A62
:102C000020EE200A8DED050A90ED000AD0ED000AB5
:102C100020EE200A8DED040AD44890ED030ADFED82
:102C2000D40A20EE200ADFEDD30A80EE201AD24823
:102C300080ED001ACD4890ED040ADFEDCD0A20EEBC
:102C4000200ADFEDCC0A80EE201ACC4880ED001A75
:102C5000C64890ED050ADFEDC60A20EE200ADFED3A
:102C6000C50A80EE201AC64880ED001ABF4890EDD4
:102C7000000AC44880ED000ABC4890ED010AC24831
:102C800080ED000AB94890ED020AC04880ED000AC4
:102C9000B64890ED060ABE4880ED000AB34890EDB4
:102CA000070ABC4880ED000AB04890ED080ABA480F
:102CB00080ED000AFFF788FDB84908600846006803
:102CC000B749096888420CD3B4480068B449096818
:102CD000401A00EE100AB8EE400ADFEDB20AC0EE6C
:102CE000208AAE480068AE490860A648D0ED000AC8
:102CF00090ED001A60EE810AA34890ED001AD0ED25
:102D0000001A41EE210AA14890ED001AD0ED001AF8
:102D100041EE210AB0EE600A04F010FBB0EE408AEA
:102D2000984890ED000A20EE080A80ED000A9648C7
:102D300090ED000A20EE080A80ED000A934890ED1D
:102D4000000A20EE080A80ED000A9148D0ED000A42
:102D500090ED001A60EE810A8E4890ED001AD0EDD9
:102D6000001A41EE210A8C4890ED001AD0ED001AAD
:102D700041EE210AB0EE600A04F0E0FAB0EE408ABB
:102D8000834890ED000A20EE080A80ED000A814891
:102D900090ED000A20EE080A80ED000A7E4890EDD2
:102DA000000A20EE080A80ED000A794890ED000A3A
:102DB000F0EE000A60EE200AB6EE000A30EE6B1A62
:102DC0009DED040A31EE400A20EE800A7148D0EDF4
:102DD000000AB0EE001A60EE811ADDED060A9DEDE4
:102DE000071A70EEC10A01EEA00A6B48D0ED000A86
:102DF000B0EE001A60EE810A3BEE2A1A00EE810A5C
:102E00008DED110A624890ED000AF0EE000A20EE06
:102E1000201A9DED060ADDED070A30EE200A21EEAC
:102E2000000A5C48D0ED000AB0EE001A20EE811ACC
:102E3000F6EE000A70EEEF1ADDED040A71EEE00A1C
:102E400001EE200A5448D0ED000AB0EE001A20EE40
:102E5000811ADDED050A70EECF0A01EE200A8DED34
:102E6000100A4B4890ED000AF0EE000A20EE200A0E
:102E70007BEE6A0A60EE200A464890ED000AB0EE4A
:102E8000001A20EE011A9DED050A70EE0F1AB0EE41
:102E9000600A01EE210A4048D0ED000AB0EE001AA7
:102EA00060EE810AB6EE001A31EE6F1A31EE6B1A3F
:102EB000B0EE409A00EE819A9DED110A60EE000A94
:102EC0009DED100A40EE000A10EE901A0846FDF73C
:102ED00094FACDE900019DED000B04F0F3F88DEDBF
:102EE000020B9DED020B51EC100BFDF7B1FA09EE50
:102EF000900AB0EE49AA3BEE6A0AF0EE000A20EE14
:102F0000200A8DED0F0A9DED050A3FEE000AF0EE56
:102F1000000A20EE200A8DED0E0A9DED080A30EE23
:102F20006F0A70EE6B0A9DED040A30EE800A8DED9B
:102F30000D0AB0EE000A69EE800AB6EE000A30EE25
:102F40006B1A9DED040A31EE400A20EE800AB0EEC5
:102F50004A9AF0EE000A69EE200A25E024000020DB
:102F6000280000202C00002030000020080600204F
:102F7000DB0F4940000034433400002038000020BB
:102F80003C000020400000204400002048000020B9
:102F90004C00002050000020540000205C00002065
:102FA000580000200024F4493BEE6A1A00EE810A22
:102FB0008DED0C0AB0EE000A29EE801A9DED060A8E
:102FC000DDED070A30EE600A21EE000AB0EE4A9A03
:102FD000F0EE000A29EE201ADDED050A7FEE200A48
:102FE00001EE200A8DED0B0AB0EE000A29EE800AF0
:102FF0007AEE8B0A20EE200AB0EE4A9AF0EE000A32
:1030000069EE200AB6EE001A31EE6F1A31EE6B1A35
:1030100000EE810A8DED0A0AAF48D0ED000A9DED61
:103020000D0A60EE800AAD4890ED001A9DED0E0A83
:1030300041EE400AAA4890ED001A9DED0A0A21EEE1
:10304000001AA848D0ED001A9DED0B0A01EEC01A37
:1030500030EE81CAA148D0ED000A9DED0F0A60EE66
:10306000800AA14890ED001A9DED0D0A41EE400A3C
:103070009C4890ED001A9DED0C0A21EE001A9B4829
:10308000D0ED001A9DED0A0A01EEC01A70EE81CA59
:103090009548D0ED000A9DED0E0A60EE800A8E483C
:1030A00090ED001A9DED0F0A41EE400A8F4890ED19
:1030B000001A9DED0B0A21EE001A8948D0ED001A86
:1030C0009DED0C0A01EEC01A30EE81DAB5EEC0CAF1
:1030D000F1EE10FA57D0F5EEC0CAF1EE10FA52D068
:1030E000B5EEC0DAF1EE10FA4DD09FED810A6CEE2C
:1030F000000A804890ED000A00EEA80A80ED000A60
:103100009FED7B0A6CEE800A7B4890ED000A00EE92
:10311000A80A80ED000A9FED760A6DEE000A774856
:1031200090ED000A00EEA80A80ED000A744890EDC8
:10313000000AF0EE000A00EE8C0A6E48D0ED000A9C
:1031400030EE200A6E4880ED000A6E4890ED000ACD
:10315000F0EE000A00EEAC0A6748D0ED000A30EE4F
:10316000200A684880ED000A674890ED000AF0EEFA
:10317000000A00EE8D0A6148D0ED000A30EE200A08
:10318000614880ED000A614890ED000AB1EE400A06
:103190005B48D0ED000A20EE200A5D48D0ED000A21
:1031A000584890ED001A00EEC10A5A4890ED001AF6
:1031B0005548D0ED001AF0EE400A41EE610A56483B
:1031C00090ED000A00EEA80A8DED090A90ED000AC4
:1031D0004B48D0ED000A20EE200A4D48D0ED000A01
:1031E000494890ED001A00EE810A4A48D0ED000AE5
:1031F000444890ED001A00EEC10A4448D0ED000AA0
:10320000F0EE60DA40EE28DA434890ED000A3D48DF
:10321000D0ED000A20EE200A3C48D0ED000A3A48E2
:1032200090ED001A00EEC10A3A48D0ED000A344889
:1032300090ED001A00EE810A3548D0ED000AB0EE9C
:1032400060EA00EE28EA344890ED000A2E48D0EDFE
:10325000000A20EE200A2D48D0ED000A294890ED02
:10326000001A00EE810A2A48D0ED000A244890EDA9
:10327000001A00EEC10A2748D0ED000AF0EE60EA1D
:1032800040EE28EADDED090A60EEA00A4DEEAD0A37
:103290004EEE0E0A4EEEAE0AB0EE600A04F04EF8A4
:1032A000B0EE408A9DED090A20EE080A1A4880ED2A
:1032B000000A2DEE880A154880ED000A2EEE080A55
:1032C000134880ED000A2EEE880A124880ED000AAD
:1032D00013B0BDEC108B00BD44000020480000205E
:1032E0005000002054000020400000204C0000202E
:1032F0000AD7233C180000201C00002020000020DA
:1033000034000020380000203C000020280000206D
:103310002C00002030000020240000201FB50E22C9
:1033200069463B2000F064FE9DF801009DF8001006
:1033300040EA012000B2214908809DF803009DF871
:10334000021040EA012000B21C4948809DF80500A7
:103350009DF8041040EA012000B2184988809DF8C9
:1033600007009DF8061040EA012000B21349C8800A
:103370009DF8090012490989401A9DF8081040EA91
:10338000012000B20D4908819DF80B000C494989C4
:10339000401A9DF80A1040EA012000B2074948810E
:1033A0009DF80D0006498989401A9DF80C1040EAE5
:1033B000012000B2014988811FBD0000480600209D
:1033C0005C06002010B504460C4800F021F8FFF719
:1033D000C3FB0B4890ED000A84ED000A094890ED0C
:1033E000000A84ED010A084890ED000A84ED020A03
:1033F000064890ED000A84ED030A10BD080600207F
:1034000024000020280000202C0000203000002094
:1034100030B585B005460DF1120004A9031F03AABB
:10342000CDE90010891F02A800F02EFEBDF80800AB
:103430001A490880BDF80A004880BDF80C00888051
:10344000BDF80E000881BDF810004881BDF81200DB
:10345000888100241DE0032C0BDA02A830F9140047
:1034600000EE100AB8EEC00A05EB840080ED000AF9
:103470000EE002A830F9140000EE100AB8EEC00AFF
:10348000DFED070A80EE201A05EB840080ED001ABC
:10349000641C062CDFDB05B030BD0000F406002004
:1034A0003333034210B52DED0C8B04468748FFF7EC
:1034B00089FF864890ED020AF8EE000A20EE200A05
:1034C000D0ED020A20EE200AD0ED030AB0EE001A79
:1034D00060EE810A90ED031A00EEC10AF7EE000AD1
:1034E00030EE200A10EE101A0846FCF786FF41EC79
:1034F0001C0B764890ED010AF0EE000A20EE200A3F
:10350000D0ED020A20EE200AD0ED000AB0EE001A3B
:1035100060EE810A90ED031A00EE810A10EE101A97
:103520000846FCF76AFF41EC1D0BB0EE4C1AF0EEBA
:103530006C1AB0EE4D0AF0EE6D0A03F0C1FCB0EE6D
:1035400040BAF0EE60BA51EC1B0B81F0004141EC47
:103550001A0B9FED5F0B53EC102BFCF743FE41EC75
:10356000190B9FED5D0B53EC102BFCF7ADFE41ECFE
:10357000180BFCF76DFF00EE100A84ED000A5348AB
:1035800090ED010AF8EE000A20EE200AD0ED030AC1
:1035900020EE200AD0ED000AB0EE001A60EE810A9B
:1035A00090ED021A00EE810A10EE101A0846FCF7A0
:1035B00024FF41EC1C0BB0EE4C0AF0EE6C0A03F059
:1035C00063F9B0EE40BAF0EE60BA51EC1B0B81F03B
:1035D000004141EC1A0B9FED3E0B53EC102BFCF716
:1035E00001FE41EC190B9FED3C0B53EC102BFCF74B
:1035F0006BFE41EC180BFCF72BFF00EE100A84ED7C
:10360000010A324890ED010AF8EE000A20EE200A85
:10361000D0ED010A20EE200AD0ED020AB0EE001A29
:1036200060EE810A90ED021A00EEC10AF7EE000A80
:1036300030EE200A10EE101A0846FCF7DEFE41ECD0
:103640001B0B224890ED020AF0EE000A20EE200A41
:10365000D0ED030A20EE200AD0ED000AB0EE001AE9
:1036600060EE810A90ED011A00EE810A10EE101A48
:103670000846FCF7C2FE41EC1C0BB0EE4B1AF0EE14
:103680006B1AB0EE4C0AF0EE6C0A03F019FCB0EEC7
:1036900040AAF0EE60AA9FED0E0B53EC102B51ECFC
:1036A0001A0BFCF79FFD41EC190B9FED0B0B53EC34
:1036B000102BFCF709FE41EC180BFCF7C9FE00EEDD
:1036C000100A84ED020ABDEC0C8B10BD2C06002004
:1036D000000000000080664000000060FB210940FF
:1036E00010B530216A2000F0B1FC0A2003F0F6FD8D
:1036F0000D21242000F0AAFC0A2003F0EFFD0E218A
:10370000282000F0A3FC0A2003F0E8FD8E213120E0
:1037100000F09CFC0A2003F0E1FD01210B2000F0E9
:1037200075F8002000F055F8102801D0012010BDD8
:103730000A2003F0D3FD00210A2000F067F80A20D8
:1037400000F047F808B10220F1E70A2003F0C6FDB7
:1037500000210B2000F05AF80B2000F03AF808B1D5
:103760000320E4E70A2003F0B9FD2421412000F002
:103770004DF8412000F02DF8242801D00420D6E790
:103780000A2003F0ABFDC021422000F03FF84220A8
:1037900000F01FF8C02801D00520C8E70A2003F078
:1037A0009DFD00212A2000F051FC0A2003F096FD27
:1037B0000021342000F04AFC0A2003F08FFD06228D
:1037C00003210E2000F0A2FC642003F087FD0020FE
:1037D000ADE770B504462146322000F037FC0A20E0
:1037E00003F07CFD8021342000F030FC0A2003F03F
:1037F00075FD352000F0D8FB05460021342000F08F
:1038000025FC0A2003F06AFD284670BD70B5044609
:103810000D4600212A2000F019FC022003F05EFD75
:103820002146292000F012FC022003F057FD294612
:10383000642000F00BFC022003F050FD81212A20BF
:1038400000F004FC0A2003F049FD70BD40B52DEDE9
:10385000048B002C45DA002D43DA94FBF5F6304654
:10386000FCF7A1FD41EC190BB0EE490AF0EE690A34
:1038700003F01EFCB0EE408AF0EE608A9FED860BEE
:1038800053EC102B51EC180BFCF7CAFD14D89FED2C
:10389000840A844880ED000A9FED830A834880ED06
:1038A000000A9FED830A834880ED000A9FED820A9B
:1038B000824880ED000AEBE09FED810A794880EDB7
:1038C000000A9FED800A794880ED000A9FED7E0A8C
:1038D000784880ED000A9FED7D0A784880ED000A67
:1038E000D6E0002C45DA002D43DD94FBF5F630469A
:1038F000FCF759FD41EC190BB0EE490AF0EE690AEC
:1039000003F0D6FBB0EE408AF0EE608A9FED620BCA
:1039100053EC102B51EC180BFCF782FD14D89FEDE3
:103920006C0A604880ED000A9FED5F0A5F4880EDF9
:10393000000A9FED680A5F4880ED000A9FED660A65
:103940005E4880ED000AA3E09FED610A554880EDD6
:10395000000A9FED620A554880ED000A9FED600A5B
:10396000544880ED000A9FED5F0A544880ED000A3C
:103970008EE0002C45DD002D43DD94FBF5F630464E
:10398000FCF711FD41EC190BB0EE490AF0EE690AA3
:1039900003F08EFBB0EE408AF0EE608A9FED3E0BA6
:1039A00053EC102B51EC180BFCF73AFD14D89FED9B
:1039B0004E0A3C4880ED000A9FED460A3B4880EDE8
:1039C000000A9FED390A3B4880ED000A9FED340A5A
:1039D0003A4880ED000A5BE09FED440A314880EDF3
:1039E000000A9FED3F0A314880ED000A9FED3B0A37
:1039F000304880ED000A9FED3D0A304880ED000A16
:103A000046E0002C44DD002D42DA94FBF5F630460A
:103A1000FCF7C9FC41EC190BB0EE490AF0EE690A5B
:103A200003F046FBB0EE408AF0EE608A9FED1A0B81
:103A300053EC102B51EC180BFCF7F2FC14D89FED53
:103A40002C0A184880ED000A9FED2A0A174880EDDD
:103A5000000A9FED150A174880ED000A9FED260A1F
:103A6000164880ED000A13E09FED210A0D4880ED15
:103A7000000A9FED150A0D4880ED000A9FED1F0A10
:103A80000C4880ED000A9FED1E0A0C4880ED000AEC
:103A9000BDEC048B40BD0000000000000000F03FC2
:103AA0000AD7A3BB24000020A8C64BBE28000020D4
:103AB000BE9F7A3F2C0000204ED111BC3000002068
:103AC0006F1203BC7B140EBFE17A543F6F1203BB2D
:103AD0000AD7A33B355E7ABFA69B443C68910DBFD5
:103AE000E17A54BF99BB16BB52499D3A99BB163B2C
:103AF0000AD7233B355E7A3F6F12033C295C0FBF28
:103B0000BC74933B014604480068084008B101209A
:103B100070470020FCE700009404002010B52DED54
:103B2000048B3A49B1F90000FCF73DFC41EC190B5C
:103B3000B0EE490AF0EE690A03F0BAFAB0EE408A34
:103B4000F0EE608A9FED320B53EC102B51EC180B0A
:103B5000FCF766FC53D92D49B1F90200FCF723FCB0
:103B600041EC190BB0EE490AF0EE690A03F0A0FA35
:103B7000B0EE408AF0EE608A9FED250B53EC102BDF
:103B800051EC180BFCF74CFC39D9234890ED050A91
:103B900010EE101A0846FCF730FC41EC190BB0EEA1
:103BA000490AF0EE690A03F083FAB0EE408AF0EEBB
:103BB000608A9FED170B53EC102B51EC180BFCF7A0
:103BC0002FFC1CD9144890ED040A10EE101A084678
:103BD000FCF713FC41EC190BB0EE490AF0EE690A50
:103BE00003F066FAB0EE408AF0EE608A9FED080BB3
:103BF00053EC102B51EC180BFCF712FC03D80120EE
:103C0000BDEC048B10BD0020FAE70000B8040020D2
:103C100000000000000024401C0A002000B50246FD
:103C20001046FEF7C9FD904201D1012000BD0020E1
:103C3000FCE70020704700001CB50121202000F0A7
:103C40000FFE0121102000F00BFE802000900120CB
:103C50008DF8040000208DF8060003208DF8050083
:103C600069460E48FEF736FC4FF480400090012074
:103C70008DF8040000208DF8060003208DF8050063
:103C800069460748FEF726FC80210448FEF78FFCB2
:103C90004FF480410248FEF78AFC1CBD0010024030
:103CA0000014024000210160704702468A4201D29E
:103CB000002070470120FCE72DE9F04304460D4643
:103CC000DDE9076700200021012041E0DFF8D8C1CD
:103CD0003CF81080A0F1010CDFF8CC9129F81C8091
:103CE00009F1160C3CF81090A0F1010CDFF8B88136
:103CF00008F1160828F81C9008F1160C3CF81090F2
:103D0000A0F1010C08F1160828F81C9008F1160C17
:103D10003CF81090A0F1010C08F1160828F81C904E
:103D200008F1160C3CF81090A0F1010C08F11608EF
:103D300028F81C9008F1160C3CF81090A0F1010C2A
:103D400008F1160828F81C9000F1010C0CF0FF0097
:103D50000A28BBDBDFF850C1ACF81240ACF82850A1
:103D6000ACF83E20ACF85430ACF86A60ACF8807027
:103D7000002008E0DFF830C13CF910C0614400F1D8
:103D8000010C0CF0FF000A28F4DB4FF00A0C91FB49
:103D9000FCFC0FFA8CFCDFF81081A8F814C000219D
:103DA00000200AE0DFF800C10CF1160C3CF910C04D
:103DB000614400F1010C0CF0FF000A28F2DB4FF027
:103DC0000A0C91FBFCFC0FFA8CF8DFF8DCC0ACF8B5
:103DD0002A80002100200AE0DFF8CCC00CF12C0C76
:103DE0003CF910C0614400F1010C0CF0FF000A28FE
:103DF000F2DB4FF00A0C91FBFCFC0FFA8CF8DFF8B9
:103E0000A8C0ACF84080002100200AE0DFF898C08C
:103E10000CF1420C3CF910C0614400F1010C0CF0B3
:103E2000FF000A28F2DB4FF00A0C91FBFCFC0FFAB2
:103E30008CF8DFF874C0ACF85680002100200AE04E
:103E4000DFF864C00CF1580C3CF910C0614400F17B
:103E5000010C0CF0FF000A28F2DB4FF00A0C91FB7A
:103E6000FCFC0FFA8CF8DFF840C0ACF86C80002145
:103E700000200AE0DFF830C00CF16E0C3CF910C0F5
:103E8000614400F1010C0CF0FF000A28F2DB4FF056
:103E90000A0C91FBFCFC0FFA8CF8DFF80CC0ACF8B4
:103EA0008280BDE8F08300007006002010B588B065
:103EB0004020069001208DF81C0000208DF81E0087
:103EC0008DF81F0003208DF81D0006A91348FEF78A
:103ED00001FBFFF705FC0024182211496846FCF796
:103EE0006FF9642003F0FAF9752000F05DF80D49D0
:103EF000087000BF0CE06A4602EB440251781DF8DE
:103F0000140000F0A3F8012003F0E8F9601CC4B22B
:103F10000C2CF0DB002008B010BD000000140240A3
:103F20001C7400088900002000B585B001218803B9
:103F300000F0C6FC0121102000F092FC022003904A
:103F400000208DF810008DF8120001208DF813006C
:103F500002208DF8110003A91248FEF7BBFA0121D7
:103F6000042001F033F80220009000208DF80400B6
:103F70000C208DF8050001208DF806006846FEF73C
:103F8000D1F807208DF8080002208DF809000020E4
:103F90008DF80A0001208DF80B0002A800F0CEFA7F
:103FA00005B000BD0010024010B5044640210D4888
:103FB000FEF7FBFA44F080000B49087008460078D1
:103FC00000F0AEFF094908700748007800F0A8FF2C
:103FD0000649087040210348FEF7E9FA03480078D3
:103FE00010BD0000001402408C0000208B00002057
:103FF0002DE9F04105460E461746002440211048A1
:10400000FEF7D3FA45F080000E49087008460078A4
:104010000D4908700B48007800F082FF00BF05E0F2
:104020000949085D00F07CFF3055641CBC42F7DB99
:1040300040210348FEF7BBFA0020BDE8F0810000F4
:10404000001402408D0000208E00002070B505464F
:104050000C4640210A48FEF7A8FA05F07F000949FE
:1040600008700846007800F05BFF0648047000788E
:1040700000F056FF40210248FEF799FA002070BD7B
:10408000001402408A0000202DE9FC4704460D463A
:1040900016461F46DDE90A89002019490870FFF716
:1040A0003DF91848B0F90C001649B1F90A10DFF8CB
:1040B00054C0CDE90010BCF90830BCF90420BCF9AB
:1040C0000210BCF90000FFF7F7FD0F48808A20803E
:1040D0000D48408D28800C48B0F8400030800A48D8
:1040E000B0F8560038800848B0F86C00A8F8000016
:1040F0000548B0F88200A9F80000BDE8FC87000080
:1041000088000020480600207006002070B5044694
:104110000E46154621462820FFF798FF022003F09F
:10412000DDF80A212920FFF791FF022003F0D6F8DD
:1041300001216420FFF78AFF022003F0CFF844F04A
:1041400080012520FFF782FF022003F0C7F83146E7
:104150002620FFF77BFF022003F0C0F80321342064
:10416000FFF774FF022003F0B9F803216720FFF77F
:104170006DFF022003F0B2F881212A20FFF766FFCD
:10418000062003F0ABF845F080012720FFF75EFF23
:10419000072003F0A3F870BD10B50220FFF73EFD25
:1041A00008B1002010BD1F49B1F900101D4AB2F935
:1041B0000620881800EBD071491009B21A4A118004
:1041C0001849B1F90210174AB2F90820881800EB13
:1041D000D071491009B2144A51801249B1F9041042
:1041E000104AB2F90A20881800EBD071491009B2C0
:1041F0000D4A9180B7EE000A10EE100A1146C1F880
:104200000600B7EE000A10EE100AC1F80A00B7EE79
:10421000000A10EE100AC1F80E005A20887402201D
:10422000C0E7000030070020630900204FF4704011
:1042300005490880488088804FF48050C8800881F4
:1042400048810220704700003007002000BFFEE7D1
:1042500070B504460D46FEF7A9FA002878D02878F4
:1042600000F0100040B14FF42570664908804FF40B
:1042700048706549088007E04FF4FA70614908808A
:104280004FF42F7060490880287800F0010090B149
:104290005E48016988475B48008800EE900AF8EEA6
:1042A000600A20EE200ABDEEC00A10EE100A00B22D
:1042B000574908801AE0287800F0020098B1534866
:1042C000016988474F480088404200EE900AF8EEA6
:1042D000E00A20EE200ABDEEC00A10EE100A00B27D
:1042E0004B49088002E0002049490880287800F006
:1042F000040098B147480169884743480088404214
:1043000000EE900AF8EEE00A20EE200ABDEEC00AA8
:1043100010EE100A00B23E49488019E0287800F0FB
:10432000080090B13B48016988473748008800EE93
:10433000900AF8EE600A20EE200ABDEEC00A10EEE8
:10434000100A00B23249488002E00020304948801B
:10435000FEF72CFA02283CD1B4F9000010F1960FB8
:1043600003DC6FF09500208005E0B4F9000096288A
:1043700001DB96202080B4F9020010F1960F03DCD7
:104380006FF09500608005E0B4F90200962801DB2B
:1043900096206080204890ED000AB4F9020000EEFB
:1043A000900AF8EEE00A9FED1D1A00EEC10A1A48C5
:1043B00080ED000A90ED010AB4F9000000EE900AC9
:1043C000F8EEE00A9FED151A00EE810A124880ED22
:1043D000010AB4F9020000EE100AB8EEC00A0E4855
:1043E00080ED040AB4F9000000EE100AB8EEC00A2D
:1043F000094880ED050AFEF7EBF9204600F010F8B9
:1044000070BD000034050020360500200C0500209A
:10441000B8040020E80400201C0A0020CDCCCC3CCD
:1044200070B5044600253F48007820B1012812D01D
:10443000022873D14FE0E07960B9607A012809D190
:10444000002001F09FFB38488169884701203549E9
:104450000870002562E0607A012802D1681C05B26C
:1044600000E00025322D0FDD00202E4908704FF4AA
:104470007A702E490860091D08602B4881698847B9
:10448000002001F07FFB25E0274801698847DFED28
:10449000280A9FED281A41EE000ABCEEE00A10EE51
:1044A000100A22490860204801698847DFED200A88
:1044B0009FED201A41EE000ABCEEE00A10EE100A51
:1044C0001A49091D08601848016A884710B102207E
:1044D0001449087022E0607A012802D1681C05B2F4
:1044E00000E00025322D0FDD00200E4908704FF44A
:1044F0007A700E490860091D08600B488169884779
:10450000002001F03FFB08E0207A012802D101F0F1
:1045100039FB02E0002001F035FB00BF00BF607AEC
:10452000E07170BDC0040020C4040020340C0040C1
:1045300000007A44000016447047000070B5002166
:1045400000230F22C4781CB3174C246804F4E064E1
:10455000C4F5E064C4F30721C1F10404E3B20A41E5
:1045600044789C40E1B28478144021430C07210E2A
:104570000E4C05786155047804F01F050124AC4009
:1045800005786D11AD0005F1E025C5F8004109E0A1
:10459000047804F01F050124AC40054D067876111F
:1045A00045F8264070BD00000CED00E000E400E09E
:1045B00080E100E002490143024A116070470000B7
:1045C0000000FA050CED00E010B5044634B1672296
:1045D00021460348FBF7F4FD022010BD0220FCE752
:1045E0007609002090ED030A80ED020A90ED000AA2
:1045F000D0ED010A30EE600A80ED030A90ED040A66
:10460000D0ED030A30EE200A80ED040A90ED060A90
:10461000D0ED0C0AF1EE600AB4EEE00AF1EE10FA09
:1046200006D890ED0C0AB1EE400A80ED060A0CE0C7
:1046300090ED060AD0ED0C0AB4EEE00AF1EE10FAA5
:1046400003DB90ED0C0A80ED060A90ED050AD0ED33
:10465000030A20EE200AD0ED060A90ED041A00EEBF
:10466000810AD0ED030A90ED021A70EEC10A90EDB6
:10467000071A01EE200A80ED0E0A90ED0E0AD0ED29
:104680000F0AF1EE600AB4EEE00AF1EE10FA06D875
:1046900090ED0F0AB1EE400A80ED0E0A0CE090EDAD
:1046A0000E0AD0ED0F0AB4EEE00AF1EE10FA03DBC9
:1046B00090ED0F0A80ED0E0A704700009FED080A8A
:1046C00080ED020A9FED060A80ED030A9FED040AC1
:1046D00080ED040A9FED020A80ED0E0A704700008B
:1046E0000000000000B58BB00121084600F0B8F8CA
:1046F0000121082000F0C4F80121080400F0E0F8CE
:104700000720099002208DF8280003208DF8290049
:1047100009A93B48FDF7DEFE022200213848FDF7DB
:1047200021FF022201213648FDF71CFF032202214E
:104730003348FDF717FF5320ADF818000020ADF8FF
:104740001A0040F6C41007900020ADF8200006A91A
:104750002C4801F0ABFCA720ADF818000020ADF804
:104760001A004FF47A7007900020ADF8200006A9D7
:10477000254801F09BFC7020ADF804000120ADF845
:1047800006000020ADF808004FF47A700390022074
:10479000ADF810000020ADF81200ADF814004FF491
:1047A0008070ADF8160001A9164801F0D7FB01A9E9
:1047B000144801F01BFC0020039001A9124801F0ED
:1047C000CDFB08210F4801F007FC08210D4801F03E
:1047D0005FFC08210C4801F0FFFB0121094801F0B2
:1047E00085FB0121084801F081FB0121054801F00A
:1047F0008FFB0121044801F08BFB0BB000BD0000D2
:1048000000000240000C00400040014070470000E2
:1048100010B5FDF7D9FF0F490968401A0E4909681C
:104820000E4AB2FBF1F1884210D9FDF7CDFF0949DC
:10483000086000F0D7FF01F001F800F00FFF00F072
:10484000E5FB00F0ABFC012002F048FDFDF78AFA21
:1048500010BD00007C0500207805002040420F00BC
:1048600029B1064A12680243044B1A6004E0034A65
:1048700012688243014B1A607047000030380240D2
:1048800029B1064A12680243044B1A6004E0034A45
:1048900012688243014B1A607047000040380240A2
:1048A00029B1064A12680243044B1A6004E0034A25
:1048B00012688243014B1A607047000020380240A2
:1048C00029B1064A12680243044B1A6004E0034A05
:1048D00012688243014B1A6070470000443802405E
:1048E00029B1064A12680243044B1A6004E0034AE5
:1048F00012688243014B1A6070470000243802405E
:10490000F0B5002100220024022500260223324FA8
:104910003F6807F00C0121B1042905D0082937D1DF
:1049200005E02E4F076036E02D4F076033E02A4F39
:104930003F1F3F68C7F38056274F3F1F3F6807F070
:104940003F036EB1264FB7FBF3F7DFF88CC0ACF135
:10495000040CDCF800C0CCF3881C07FB0CF40CE062
:104960001E4FB7FBF3F7DFF870C0ACF1040CDCF8B6
:1049700000C0CCF3881C07FB0CF4174F3F1F3F68A7
:10498000C7F301477F1C7D00B4FBF5F7076002E029
:10499000124F076000BF00BF0F4F3F6807F0F001E4
:1049A0000909104F7A5C0768D74047600A4F3F6893
:1049B00007F4E051890A0B4F7A5C4768D74087605B
:1049C000054F3F6807F46041490B064F7A5C476822
:1049D000D740C760F0BD0000083802400024F40052
:1049E000001BB700050000200168491C0160D0E9E8
:1049F000001291420ADA90ED000AF8EEC00A90ED3A
:104A0000010AB8EEC01A80EE810A7047B7EE000ABC
:104A1000FBE770470146D1E90002904201DA00202D
:104A200070470120FCE7002101607047016070477A
:104A30004160704710B50446FDF7B8FEB8B3B4F94D
:104A40000200A0F5806000EE100AB8EEC00AF7EE92
:104A5000000A20EE200ABDEEC00A10EE100A00B2D5
:104A600068490880B4F90000A0F5806000EE100AE3
:104A7000B8EEC00AF7EE000A20EE200ABDEEC00A2A
:104A800010EE100A00B24880B4F90400A0F580606E
:104A900000EE100AB8EEC00AF7EE000A20EE200A77
:104AA000BDEEC00A10EE100A00B2C88004E0FFE7B5
:104AB0000020544908804880FDF778FE022842D142
:104AC000514890ED000AB4F90600A0F5806000EEB0
:104AD000900AF8EEE00A9FED4D1A00EE810A4A486E
:104AE00080ED000A4A48007A02286DD0494890EDCE
:104AF000100ADFED490AB4EEE00AF1EE10FA23DD08
:104B0000B4F90400A0F5806000EE100AB8EEC00A07
:104B1000DFED3E0A20EE200AB5EEC00AF1EE10FAF3
:104B200052DD394890ED010AB4F90400A0F5806027
:104B300000EE900AF8EEE00A9FED341A00EE810ACA
:104B4000314880ED010A3FE0324890ED100ADFED78
:104B5000330AB4EEE00AF1EE10FA23D2B4F90400FD
:104B6000A0F5806000EE100AB8EEC00ADFED270A5B
:104B700020EE200AB5EEC00AF1EE10FA24D2224847
:104B800090ED010AB4F90400A0F5806000EE900AEF
:104B9000F8EEE00A9FED1D1A00EE810A1A4880ED3A
:104BA000010A11E0184890ED010AB4F90400A0F5DB
:104BB000806000EE900AF8EEE00A9FED141A00EE15
:104BC000810A114880ED010AB4F90600A0F5806061
:104BD00000EE100AB8EEC00A0B4880ED040AB4F9E2
:104BE0000400A0F5806000EE100AB8EEC00A064886
:104BF00080ED050AFDF7ECFD217A094800F07EF80A
:104C000010BD0000B80400201C0A00206F12833B76
:104C1000040A00204C08002000007042000070C20E
:104C2000340A002010B5044604B910BD207861781C
:104C300040EA0120C0F30A002F4908806078C010C4
:104C4000A17840EA4110C0F30A002B494880A078BF
:104C50008011E17840EA8100217940EA8120C0F3A7
:104C60000A002549888020794010617940EAC11006
:104C7000C0F30A002049C8806079001180080872DA
:104C80006079C0F301104872A079E17940EA01200F
:104C900000B219494881207A617A40EA012001B2C4
:104CA00015488181A07AE17A40EA012001B21248D8
:104CB000C181217B8174617BC174A07B0E49888294
:104CC000084600F015FFFDF789FC012804D00228F2
:104CD0000DD003280CD103E00748FFF7ABFE07E037
:104CE00005491431A1F10A00FFF7B2FA00E000BF54
:104CF00000BF00BF99E70000040A002070B5044619
:104D00000D4629462046FDF70DFD3748007820B1B5
:104D100001280FD0022865D146E060780D2808D11F
:104D2000002000F02FFF31488169884701202E497B
:104D3000087057E060780D280FD1002000F022FFA6
:104D40004FF47A702A490860091D0860002026493E
:104D5000087026488169884725E02448016988470A
:104D6000DFED240A9FED241A41EE000ABCEEE00AB2
:104D700010EE100A1E4908601C4801698847DFEDE3
:104D80001D0A9FED1D1A41EE000ABCEEE00A10EE6E
:104D9000100A1749091D08601448016A884710B1B4
:104DA0000220114908701DE060780D280FD1002005
:104DB0000D4908704FF47A700D490860091D0860AC
:104DC0000A4881698847002000F0DCFE09E020786D
:104DD000022803D1012000F0D5FE02E0002000F0FF
:104DE000D1FE00BF00BF70BDC0040020C40400207D
:104DF000340C004000007A440000164410B51348FB
:104E00006421C269904712483221C2699047114813
:104E10003C21C26990470D48816988470C488169E7
:104E200088470C48816988479FED0B0A0B4880ED45
:104E3000000A9FED090A80ED010A00200849088058
:104E40004880888000F002FE10BD0000C4040020ED
:104E5000E80400200C050020000000001C0A0020CF
:104E6000B8040020024909688143014A1160704773
:104E70009404002000B587B001212020FFF7F0FC4A
:104E800001210805FFF71CFD4FF46070059002201A
:104E90008DF8180000208DF81A0003208DF81900F5
:104EA00000208DF81B0005A91B48FDF713FB052208
:104EB00007211948FDF756FB052208211648FDF782
:104EC00051FB052209211448FDF74CFB0020ADF8E9
:104ED00000004FF48270ADF802000020ADF804002D
:104EE000ADF80600ADF808004FF40070ADF80A0008
:104EF0003820ADF80C000020ADF80E000A20ADF807
:104F000010006946054800F041F80121034800F00F
:104F100023F807B000BD000000140240005001401B
:104F200010B5044600BF02210A4800F021F800280D
:104F3000F9D02146074800F027F800BF01210548B5
:104F400000F016F80028F9D0024800F01AF8C0B2B4
:104F500010BD00000050014021B1028842F0400223
:104F6000028004E002884FF6BF731A400280704747
:104F70000246002013890B400BB1012000E0002005
:104F800070470146888970478181704710B50022BB
:104F9000028802F441520B884C8823438C882343B7
:104FA000CC8823430C8923434C8923438C89234396
:104FB000CC8923431A430280838B4FF2FF74234032
:104FC00083830B8A038210BD7047000030B5002236
:104FD0008B071C0F0F2303FA04F20B4B8C1053F8B2
:104FE00024309343084C8D1044F8253023468C1010
:104FF00053F824308C07240F00FA04F42343024CA6
:105000008D1044F8253030BD0838014070B50024BB
:10501000AA222146641C4E4842542146641C425434
:1050200003222146641C425400222146641C42543F
:105030004848C2792146641C454842544548827913
:105040002146641C42484254424842792146641C2D
:105050003F4842543F4802792046611CCCB23C494B
:105060000A543C4842782046611CCCB238490A5464
:10507000384802782046611CCCB235490A5435487C
:10508000C2782046611CCCB231490A54314882783A
:105090002046611CCCB22E490A5400222046611CD5
:1050A000CCB22B490A542B48027A2046611CCCB260
:1050B00027490A5400222046611CCCB224490A54D4
:1050C0002448427A2046611CCCB221490A5400226D
:1050D0002046611CCCB21E490A542046611CCCB249
:1050E0001B490A542046611CCCB219490A54204677
:1050F000611CCCB216490A542046611CCCB214493A
:105100000A542046611CCCB211490A542046611C45
:10511000CCB20F490A542046611CCCB20C490A5447
:10512000201FC8700025002005E00949095C2944BA
:10513000CDB2411CC8B2A042F7DB2046611CCCB204
:1051400003490D542146024801F0CCFA70BD00001D
:105150004B0A0020040A002070B504460D46AA2020
:105160000D4908704870EF2088700220C87008460A
:10517000047145710026002005E00749095C3144AF
:10518000CEB2411CC8B20628F7DB0348867107215E
:1051900001F0A8FA70BD00004B0A002070B5002491
:1051A000AA222146641C2C4842542146641C4254C5
:1051B00006222146641C425400222146641C4254AB
:1051C000264842782146641C2348425423480278EA
:1051D0002146641C20484254214842782146641CE0
:1051E0001D4842541E4802782146601CC4B21A4829
:1051F00042541C4842782046611CCCB216490A54DD
:10520000184802782046611CCCB213490A5416484B
:1052100042782046611CCCB20F490A5412480278E9
:105220002046611CCCB20C490A54201FC8700025CE
:10523000002005E00849095C2944CDB2411CC8B2F0
:10524000A042F7DB2046611CCCB203490D54214635
:10525000014801F047FA70BD4B0A0020D408002035
:10526000DE080020E8080020F208002038B50024FD
:10527000AA222146641C774842542146641C4254A9
:1052800010222146641C425400222146641C4254D0
:10529000714890ED050ABDEEC00A10EE100A00B28A
:1052A00000909DF801202146641C6A4842549DF8F4
:1052B00000202146641C4254674890ED060ABDEE6A
:1052C000C00A10EE100A00B200909DF8012021469D
:1052D000641C604842549DF800202046611CCCB2FA
:1052E0005C490A545C4890ED070ABDEEC00A10EE16
:1052F000100A00B200909DF801202046611CCCB23B
:1053000054490A549DF800202046611CCCB25149F2
:105310000A54524890ED050ABDEEC00A10EE100A7C
:1053200000B200909DF801202046611CCCB2494992
:105330000A549DF800202046611CCCB245490A540D
:10534000464890ED060ABDEEC00A10EE100A00B203
:1053500000909DF801202146601CC4B23D48425493
:105360009DF800202046611CCCB23A490A543B48C3
:1053700090ED070ABDEEC00A10EE100A00B20090D0
:105380009DF801202046611CCCB232490A549DF898
:1053900000202046611CCCB22E490A54304890EDC2
:1053A000050ABDEEC00A10EE100A00B200909DF88A
:1053B00001202046611CCCB226490A549DF80020E9
:1053C0002046611CCCB223490A54254890ED060AB8
:1053D000BDEEC00A10EE100A00B200909DF8012048
:1053E0002046611CCCB21B490A549DF8002020467F
:1053F000611CCCB217490A54194890ED070ABDEE5A
:10540000C00A10EE100A00B200909DF8012020465C
:10541000611CCCB20F490A549DF800202046611C43
:10542000CCB20C490A54201FC8700025002005E0AA
:105430000849095C2944CDB2411CC8B2A042F7DB3F
:105440002046611CCCB203490D542146014801F0AD
:1054500049F938BD4B0A0020A4000020F8000020C4
:105460004C01002038B50024AA222146641C77484C
:1054700042542146641C425411222146641C425469
:1054800000222146641C4254714890ED050ABDEE8D
:10549000C00A10EE100A00B200909DF801202146CB
:1054A000641C6A4842549DF800202146641C425402
:1054B000674890ED060ABDEEC00A10EE100A00B271
:1054C00000909DF801202146641C604842549DF8DC
:1054D00000202046611CCCB25C490A545C4890ED27
:1054E000070ABDEEC00A10EE100A00B200909DF847
:1054F00001202046611CCCB254490A549DF800207A
:105500002046611CCCB251490A54524890ED050A1C
:10551000BDEEC00A10EE100A00B200909DF8012006
:105520002046611CCCB249490A549DF8002020460F
:10553000611CCCB245490A54464890ED060ABDEEBE
:10554000C00A10EE100A00B200909DF8012021461A
:10555000601CC4B23D4842549DF800202046611CA6
:10556000CCB23A490A543B4890ED070ABDEEC00A56
:1055700010EE100A00B200909DF801202046611C38
:10558000CCB232490A549DF800202046611CCCB2AE
:105590002E490A54304890ED050ABDEEC00A10EEBF
:1055A000100A00B200909DF801202046611CCCB288
:1055B00026490A549DF800202046611CCCB223499C
:1055C0000A54254890ED060ABDEEC00A10EE100AF6
:1055D00000B200909DF801202046611CCCB21B490E
:1055E0000A549DF800202046611CCCB217490A5489
:1055F000194890ED070ABDEEC00A10EE100A00B27D
:1056000000909DF801202046611CCCB20F490A543D
:105610009DF800202046611CCCB20C490A54201F82
:10562000C8700025002005E00849095C2944CDB276
:10563000411CC8B2A042F7DB2046611CCCB2034932
:105640000D542146014801F04DF838BD4B0A0020A9
:10565000A0010020F40100204802002038B50024F9
:10566000AA222146641C5C4842542146641C4254D0
:1056700014222146641C425400222146641C4254D8
:1056800056480068C0B200909DF801202146641C75
:10569000514842549DF800202146641C42544F4812
:1056A0008069C0B200909DF801202146641C4A48E0
:1056B00042549DF800202046611CCCB246490A5451
:1056C000002000909DF801202046611CCCB2424988
:1056D0000A549DF800202046611CCCB23E490A5471
:1056E0003F480068C0B200909DF801202046611C30
:1056F000CCB239490A549DF800202046611CCCB236
:1057000035490A5436488069C0B200909DF801209E
:105710002046611CCCB230490A549DF80020214635
:10572000601CC4B22C484254002000909DF8012017
:105730002046611CCCB228490A549DF8002020461E
:10574000611CCCB224490A54002000909DF801202D
:105750002046611CCCB220490A549DF80020204606
:10576000611CCCB21C490A54002000909DF8012015
:105770002046611CCCB218490A549DF800202046EE
:10578000611CCCB214490A54002000909DF80120FD
:105790002046611CCCB210490A549DF800202046D6
:1057A000611CCCB20C490A54201FC870002500208F
:1057B00005E00949095C2944CDB2411CC8B2A042A8
:1057C000F7DB2046611CCCB203490D542146024848
:1057D00000F088FF38BD00004B0A00209008002030
:1057E0004C08002070B50024AA222146641C1248EF
:1057F00042542146641C425402222146641C4254F5
:1058000000222146641C4254201F0B49C870002509
:1058100000BF05E00849095C2944CDB2411CC8B26B
:10582000A042F7DB2046611CCCB203490D5421464F
:10583000014800F057FF70BD4B0A00207CB50024E2
:1058400000200090AA222146641C4C484254214664
:10585000641C425401222146641C42540022214609
:10586000641C4254464890ED000ADFED460A20EEE3
:10587000200ABDEEC00A10EE100A00B201909DF899
:1058800005202146641C3D4842549DF804202146D1
:10589000641C42543C4890ED000ADFED3A0A20EEC9
:1058A000200ABDEEC00A10EE100A00B201909DF869
:1058B00005202146641C314842549DF804202046AE
:1058C000611CCCB22D490A54304890ED000ADFED3E
:1058D0002D0A20EE200ABDEEC00A10EE100A00B21A
:1058E00001909DF805202046611CCCB223490A5442
:1058F0009DF804202046611CCCB220490A549DF832
:1059000003202046611CCCB21C490A549DF8022099
:105910002046611CCCB219490A549DF80120214649
:10592000601CC4B2154842549DF800202046611CFA
:10593000CCB212490A5400252046611CCCB20F4952
:105940000D5400BF2046611CCCB20C490D54201FE1
:10595000C8700026002005E00849095C3144CEB239
:10596000411CC8B2A042F7DB2046611CCCB20349FF
:105970000E542146014800F0B5FE7CBD4B0A0020C4
:105980007C0000200000C842800000207800002039
:1059900010B50446132204F124011D48FAF710FC47
:1059A0001C48E41DD4F803100160B4F8071081808E
:1059B000617A8171184854F8021C0160A178017164
:1059C0001648216B0160616B41601548A16B016055
:1059D000E16B41601348216C0160616C41601248C9
:1059E000A16C0160E16C41601048216D0160616D46
:1059F00041600F48A16D0160E16DE41F41604FF40B
:105A0000D7500C49886140F2E6500B49886110BDBF
:105A1000F0090020590400205404002060040020F4
:105A20006804002070040020780400208004002016
:105A300088040020900800204C08002002490968D2
:105A40000143014A11607047940400200149087025
:105A500070470000C004002010B504463CB1044863
:105A60002168C0F8051021794172FAF797FF10BD3F
:105A7000FC08002010B5FCF799FE032806D0FEF7BD
:105A8000D8F818B9FCF792FE042805D10022114677
:105A90000C4800F027F913E00B4890ED0E0ABDEE1C
:105AA000C00A10EE100A404202B2084890ED0E0AF9
:105AB000BDEEC00A10EE100A01B2024800F012F961
:105AC00010BD000000640040F8000020A00100208C
:105AD00010B504464CB105482168C0F80A10A188E9
