:020000040800F2
:10000000F81400209D010008893B0008891D0008A4
:100010009D380008DD0800082F5600080000000089
:10002000000000000000000000000000C5460008BD
:10003000C316000800000000413E0008B50100089A
:10004000B7010008B7010008B7010008B7010008B0
:10005000B7010008B7010008B7010008C51600087D
:10006000B7010008B7010008B7010008B701000890
:10007000B7010008B7010008B7010008B701000880
:10008000B7010008B7010008B7010008B701000870
:10009000D5090008B7010008B7010008B70100083A
:1000A000B7010008B7010008B7010008B701000850
:1000B000D9490008B7010008F9490008B70100084C
:1000C000B7010008B7010008B7010008B701000830
:1000D000B7010008154F000815510008915200089B
:1000E000B7010008B7010008B7010008B701000810
:1000F000B7010008B7010008B7010008B701000800
:10010000B7010008B7010008B7010008B7010008EF
:10011000B7010008B70100087D4B0008B7010008CF
:10012000B7010008B7010008B7010008B7010008CF
:10013000B7010008B7010008B7010008B7010008BF
:10014000B7010008B7010008B7010008B7010008AF
:10015000B7010008B7010008B7010008B70100089F
:10016000B7010008B7010008B7010008B70100088F
:10017000B7010008B7010008B7010008B70100087F
:10018000B7010008B7010008DFF80CD000F046FB0B
:1001900000480047E9640008F8140020064880473A
:1001A00006480047FEE7FEE7FEE7FEE7FEE7FEE75C
:1001B000FEE7FEE7FEE7FEE7354900088901000893
:1001C00040EA01039B0703D009E008C9121F08C0D9
:1001D000042AFAD203E011F8013B00F8013B521E59
:1001E000F9D270472DE9FE4F804681EA0300C00F27
:1001F0000C46009021F0004123F00045B8EB0200CE
:10020000A94105D24046214690461C460B4602466F
:1002100023F00040104347D0270DC7F30A00C3F373
:100220000A510290401A019040286BDAC3F3130080
:1002300040F4801B0098924620B10023D2EB030AC1
:1002400063EB0B0B01985946C0F14002504600F099
:10025000CFF906460D4650465946019A00F0E7F997
:1002600010EB08006141002487EA115284EAE77329
:100270001A4340D0009A62B3019A012A4FEA07520A
:1002800015DC001B61EB02014FF0004202EA07524D
:10029000CDE90042001C41F5801132462B4600F0AA
:1002A0001EFA03B0BDE8F08F40462146F9E7001B77
:1002B00061EB0201001C41F5801300185B4120181E
:1002C000A2F5001747EB030140EAD570B6196D415E
:1002D00011E06D084FEA360645EAC0754FEA07524D
:1002E000001B61EB0201001C41F5801149084FEA37
:1002F00030000019514132462B4603B0BDE8F04FA3
:1003000000F0DEB90098012240000023D0EB020289
:1003100063EBE073009821464FEAE074B8EB00000D
:1003200061EB0401E9E783F000435BE781F0004102
:1003300058E72DE9FE4F81EA030404F0004421F060
:10034000004100944FF0000B23F0004350EA0104F9
:100350005ED052EA03045BD0C3F30A54C1F30A55DA
:100360002C44A4F2F3340194A0FB0254C1F3130112
:1003700041F48011C3F3130343F4801301FB0244DF
:1003800000FB034E840A970A44EA815447EA8357E4
:10039000A4FB076802958D0A05FB07854FEA932C9D
:1003A00004FB0C542705029D4FEA065847EA16370E
:1003B000B5EB08056EEB070C870E920E47EA811726
:1003C00042EA8312A7FB0201B6EB0B0164EB0004C7
:1003D0002B0D43EA0C335E1844EB1C50DA465146B1
:1003E000E7FB0201C5F313044FEA0B3343EA14534E
:1003F0004FEA0432019C43EA0603A4F10C04029480
:10040000009CCDE900B400F06AF903B0BDE8F08FBC
:1004100000200146F9E72DE9F04D81EA030404F0DC
:10042000004B21F0004514464FF0000A23F0004134
:1004300050EA050220D054EA01021DD0C5F30A5744
:100440000246C5F31303C1F31300C1F30A5640F487
:10045000801543F48013A7EB0608101BD64608F25C
:10046000FD3873EB050002D308F1010801E0921892
:100470005B41B8F1000F03DA00200146BDE8F08DC2
:1004800000204FF48011064684460EE0171B73EBE4
:10049000050705D3121B63EB050306434CEA010C69
:1004A00049084FEA300092185B4150EA0107EDD14C
:1004B00052EA030012D082EA040083EA05010843ED
:1004C00005D0101BAB4106D20122002306E000221A
:1004D0004FF0004302E06FF0010253101AEB0600E8
:1004E0004CEB085110EB0A0041EB0B01BDE8F04D5D
:1004F00000F0E6B80EB5C10F80EAE0700844CA0704
:10050000002140F233438DE80E000A460B4600F00E
:10051000E6F803B000BD0EB540F233410291002170
:10052000CDE900110A460B4600F0D9F803B000BD32
:10053000C1F30A5210B5C1F3130140F2FF3341F485
:1005400080119A4201DA002010BD40F233439A42F2
:10055000A2F2334203DC524200F059F810BD904041
:1005600010BD00F0004230F000400AD0C10D01F58E
:100570006071C0F3160042EA0151C20840071143FE
:10058000704700200146704730B5041E71F1000429
:1005900004DB4FF00044404264EB0101141E73F190
:1005A000000405DB1C464FF00043524263EB04039A
:1005B000994208BF904230BD01F0004330B421F0B1
:1005C000004150EA010206D00A0DA2F56072C1F3A3
:1005D0001301002A02DC30BC00207047440F44EABB
:1005E000C104C100E01830BC00EBC25000F031B8CB
:1005F000202A04DB203A00FA02F1002070479140E3
:10060000C2F1200320FA03F3194390407047202AD7
:1006100004DB203A21FA02F00021704721FA02F3AC
:10062000D040C2F120029140084319467047202A69
:1006300006DBCB17203A41FA02F043EAE07306E00A
:1006400041FA02F3D040C2F120029140084319461A
:1006500070470029A8BF7047401C490008BF20F020
:100660000100704710B4B0FA80FC00FA0CF050EAB8
:10067000010404BF10BC704749B1CCF1200421FA39
:1006800004F411FA0CF118BF012121430843A3EB34
:100690000C01CB1D4FEA00614FEA102042BF002041
:1006A00010BC704700EBC35010440029A4BF10BC1D
:1006B0007047401C490008BF20F0010010BC704783
:1006C00010B5141E73F1000408DA401C41F100015A
:1006D00092185B411A4301D120F0010010BD2DE9B1
:1006E000F04D92469B4611B1B1FA81F202E0B0FAA8
:1006F00080F220329046FFF77BFF04460F4640EA27
:100700000A0041EA0B0153465A46084313D01146EA
:1007100053EA010019D0C8F140025046FFF777FFB5
:1007200005460E46504659464246FFF761FF0843CC
:1007300005D0012004E020463946BDE8F08D0020B8
:10074000054346EAE0762C4337430A986305E40AFA
:10075000A0EB08000022FD0A44EA47540A3002D503
:1007600000200146E9E7010510196941DDE9084566
:1007700000196941BDE8F04DA2E72DE9F04D0023D5
:100780001A461B1A8A4103DB00200146BDE8F08DA2
:10079000C1F30A52C1F3130141F480154FF0000B6D
:1007A000D10702D100186D41521E0027044640F2C5
:1007B000FF11384601EB620A3E46804602460020A1
:1007C0004FF48011FFF723FFC2197141BB1846EBAC
:1007D0000100B4EB030C75EB000C04D3E41A65EBD9
:1007E000000517460E46241908F101006D418046A8
:1007F0003428E3DDF91946EB0600091BA84103D2B2
:100800004FF0FF32134601E0002213461BEB0700B6
:1008100046EB0A51BDE8F04DFFF752BF064C074DBD
:1008200006E0E06840F0010394E8070098471034C0
:10083000AC42F6D3FFF7ACFCE86C0008086D00088A
:1008400070B58C1810F8015B15F0070301D110F892
:10085000013B2A1106D110F8012B03E010F8016BBF
:1008600001F8016B5B1EF9D12B0705D40023521E42
:100870000DD401F8013BFAE710F8013BCB1A921CAA
:1008800003E013F8015B01F8015B521EF9D5A142A8
:10089000D8D3002070BD10B54FF4A06003F0B2F9BA
:1008A00003F03AFA02F0EAFB03F062FE02F080FE87
:1008B00002F0BCFE00F014F804F08CFA04F092FC94
:1008C00004F090FB04F034F904F068F8642005F0BB
:1008D000B1FC00F0E1FF02F0A9FE10BD00BFFEE791
:1008E00000B58BB00121082003F06CFB0121480604
:1008F00003F078FB0320099002208DF828000020E7
:100900008DF82A0003208DF8290001208DF82B0096
:1009100009A92E4801F024F8092201212B4801F0F1
:1009200067F809220021294801F062F800208DF8BB
:100930001E008DF81F008DF8200001208DF8210089
:1009400000208DF822008DF823008DF81A008DF814
:100950001B0005208DF81C0006208DF81D000320CB
:10096000ADF8180006A91A4800F0F3FB00208DF836
:1009700012008DF8130001208DF814000020ADF84E
:100980000800ADF80A00ADF80C00ADF80E00ADF8A7
:10099000100001208DF8150002A800F0BDFA012218
:1009A00002210B4800F0CCFB14208DF8040001203C
:1009B0008DF8050000208DF8060001208DF8070055
:1009C00001A803F0E3F80BB000BD0000000C0240EA
:1009D0000064004000B52DED068B85B00221F8487B
:1009E00000F01EFB00287DD00221F54800F040FAFF
:1009F0006A460021F24800F036FCF249009808608F
:100A00009DF80B00F04908709DF80C00EF49087044
:100A10009DF80D00EE4908709DF80E00ED49087034
:100A20009DF80F00EC4908709DF81000EB49087024
:100A30009DF81100EA4908709DF81200E949087014
:100A4000E2480078E049097840EA0120E649086078
:100A5000E0480078DE49097840EA0120E34908804F
:100A60000846008800F40040E14908600846006834
:100A7000C0130860DD480088C0F30C00DD49088021
:100A8000DA4800884FF6FF71081ADB49088042F205
:100A90005570DA490860D1480078CF49097840EAB2
:100AA0000120D74908800846008800F40040D54955
:100AB000086008460068C0130860D1480088C0F389
:100AC0000C00D1490880CE4800884FF6FF71081A03
:100AD000CE490880CC480088C9490880C9480068C8
:100AE000012800E067E102D1C84800880880C448B6
:100AF000008800EE100AB8EE400AC54880ED000AF2
:100B0000B0480068B0F5007F23D9AE480068B0F562
:100B1000017F1ED8BE480068FFF723FD41EC1A0B89
:100B20009FEDBC0B53EC102BFFF775FC41EC190B40
:100B30009FEDBA0B53EC102BFFF7FBFB41EC180BAE
:100B4000FFF73AFD9F490968A1F20121B54A42F831
:100B50002100B44890ED000AD0ED010A30EE200AE1
:100B6000D0ED020A30EE200AD0ED030A30EE200A62
:100B7000AD4880ED000A0068FFF7F3FC41EC190B6B
:100B80009FEDAA0B53EC102BFFF7D3FB41EC180B96
:100B9000FFF712FDA74908608A48006840F2052166
:100BA000884229D1904890ED000AB8EEC00AA248C8
:100BB00080ED000A90ED000ADFEDA00A20EE200A89
:100BC000DFED9F0A80EE201A9E4880ED001A8648CD
:100BD000006840F6FF71884204DB80219A4800F0EB
:100BE0002AFF09E08048006840F6FF71884203DA76
:100BF0008021954800F021FF7248006840F20621EC
:100C000088422FD16946914800F0DAFD764890ED90
:100C1000000AB8EEC00A8E4880ED000A90ED000A86
:100C2000DFED860A20EE200ADFED850A80EE201A2D
:100C3000884880ED001A6C48006840F29221884292
:100C400005DB4FF48041844800F0F5FE0AE0664879
:100C5000006840F29221884204DA4FF480417E48D5
:100C600000F0EBFE5748006840F2012188421BD19A
:100C70006048008800EE100AB8EE400A774880ED20
:100C8000000A5B48006801280ED15B48008800EE2E
:100C9000100AB8EE400A714880ED000A90ED000A93
:100CA000B1EE400A80ED000A4648006840F2022199
:100CB00088421BD14F48008800EE100AB8EE400A67
:100CC000674880ED000A4A48006801280ED14A486A
:100CD000008800EE100AB8EE400A614880ED000A74
:100CE00090ED000AB1EE400A80ED000A3548006838
:100CF00040F2032188421BD13E48008800EE100AD2
:100D0000B8EE400A574880ED000A394800680128CB
:100D10000ED13948008800EE100AB8EE400A51485A
:100D200080ED000A90ED000AB1EE400A80ED000A65
:100D300024480068B0F5017F1BD12E48008800EEE2
:100D4000100AB8EE400A484880ED000A28480068BA
:100D500001280ED12848008800EE100AB8EE400A9B
:100D6000414880ED000A90ED000AB1EE400A80EDA6
:100D7000000A1448006840F2072188421BD11D4830
:100D8000008800EE100AB8EE400A384880ED000AEC
:100D90001748006801280ED11748008800EE100A95
:100DA000B8EE400A314880ED000A90ED000AB1EE3D
:100DB000400A80ED000A05B0BDEC068B00BD0000C6
:100DC00000640040940000208C0000208D00002072
:100DD0008E0000208F000020900000209100002055
:100DE00092000020930000209C0000206000002062
:100DF000980000205E0000205C000020B800002069
:100E0000780000208800002062000020640000209C
:100E10007C000020000000000000D0400000000026
:100E2000000034402C070020840000200000000057
:100E300000003840800000206C0000200000B44317
:100E4000000000467400002000100240340A002018
:100E5000680000207000002000140240A000002064
:100E6000A4000020A8000020AC000020B00000205A
:100E7000B1F5007F3AD00FDC202928D006DC01290B
:100E80001CD004291DD0082940D11DE0402921D0C3
:100E9000B1F5807F3AD126E0B1F5004F31D006DCC4
:100EA000B1F5806F25D0B1F5006F2FD124E0B1F5F9
:100EB000803F12D0B1F5003F28D111E0154A826081
:100EC00025E00822C26022E01022C2601FE0082252
:100ED00002611CE01022026119E00822426016E063
:100EE0001022426013E00422426010E004224260BB
:100EF0000DE0042242600AE0002282610422426086
:100F000005E0002282610422426000E000BF00BFD1
:100F1000704700000101010010B50021837A012211
:100F200002FA03F13D4A126842F001023B4B1A609B
:100F30003A4A1C3212688A43384B1C331A60027BCF
:100F4000CAB9364A0C3212688A43344B0C331A60E1
:100F50004288C38842EA0343304A4032847A42F8E6
:100F600034300288838842EA03432C4A4032847A30
:100F700002EBC4025360027B012A19D1274A0C32CA
:100F800012680A43254B0C331A604288038842EAF0
:100F90000343224A4032847A42F83430C28883883C
:100FA00042EA03431D4A4032847A02EBC402536092
:100FB000C27A3AB9194A121D12688A43174B1B1D8F
:100FC0001A6006E0154A121D12680A43134B1B1DD6
:100FD0001A60028932B9114A143212688A430F4BDF
:100FE00014331A600289012A06D10C4A143212689D
:100FF0000A430A4B14331A60427B012A06D1074A7E
:101000001C3212680A43054B1C331A60034A1268EB
:1010100022F00102014B1A6010BD00000066004082
:1010200070B504460D46002660692840002871D03E
:10103000B5F5807F5CD010DC082D35D006DC012DA5
:1010400020D0022D24D0042D72D127E0102D31D0D4
:10105000202D35D0402D6BD138E0B5F5004F60D054
:1010600009DCB5F5007F49D0B5F5806F4CD0B5F5FA
:10107000006F5DD14FE0B5F5803F2DD0B5F5003F55
:1010800056D12FE0A0682D4900F0F8F9064651E04E
:10109000E068032100F0F2F906464BE0E068082121
:1010A00000F0ECF9064645E0E068102100F0E6F9B2
:1010B00006463FE02069032100F0E0F9064639E0EA
:1010C0002069082100F0DAF9064633E02069102192
:1010D00000F0D4F906462DE06068082100F0CEF952
:1010E000064627E06068102100F0C8F9064621E0B6
:1010F000A069012100F0C2F906461BE0A0690221A7
:1011000000F0BCF9064615E0A069042100F0B6F92C
:1011100006460FE00FE0A069702100F0AFF9064627
:1011200008E06068042100F0A9F9064602E0FFE744
:10113000002600BF00E00026304670BD010101001E
:101140001AB143690B43436102E043698B43436136
:10115000704730B5024600200023146824F00204D2
:101160001460146844F00104146000E05B1C5468CF
:1011700004F001041CB94FF6FF74A342F6D1546881
:1011800004F001040CB900206CE08C79012C04D12E
:10119000146844F08004146003E0146824F08004B0
:1011A0001460CC79012C04D1146844F0400414601C
:1011B00003E0146824F0400414600C7A012C04D17C
:1011C000146844F02004146003E0146824F0200440
:1011D00014604C7A012C04D1146844F0100414609B
:1011E00003E0146824F0100414608C7A012C04D1FC
:1011F000146844F00804146003E0146824F0080440
:101200001460CC7A012C04D1146844F004041460F6
:1012100003E0146824F0040414608C78A407CD78EB
:1012200044EA05640D7944EA05444D7944EA0554DD
:101230000D886D1E2C43D461146824F001041460E1
:10124000002300E05B1C546804F001041CB14FF65D
:10125000FF74A342F6D1546804F001040CB10020DD
:1012600000E0012030BD10B500F5D87303EB011389
:101270001B6803F004031372137A53B900F5D87393
:1012800003EB01131B6840F2FF7404EA535313602D
:1012900009E000F5D87303EB01131B686FF060449D
:1012A00004EAD303536000F5D87303EB01131B6802
:1012B00003F00203537200F5D87303EB01135B686C
:1012C00003F00F03937200F5D87303EB01135B680F
:1012D0001B0AD37400F5D87303EB01139B68D37218
:1012E00000F5D87303EB01139B681C0A147300F517
:1012F000D87303EB01139B681C0C547300F5D8736F
:1013000003EB01139B681B0E937300F5D87303EB7B
:101310000113DB68D37300F5D87303EB0113DB68AB
:101320001C0A147400F5D87303EB0113DB681C0C62
:10133000547400F5D87303EB0113DB681B0E937430
:1013400021B9C36843F02003C36003E0036943F09D
:101350002003036110BD10B502460020936803F01E
:101360008063B3F1806F00D110E0936803F00063F5
:10137000B3F1006F01D1012008E0936803F08053BE
:10138000B3F1805F01D1022000E00420042874D072
:1013900002F5C07303EB00131B6803F0010402F5B0
:1013A000C07303EB00131C600B7A7BB94B7A0C887B
:1013B00043EA445302F5C07404EB00142468234349
:1013C00002F5C07404EB0014236010E00B7A4C6843
:1013D00043EAC4034C7A234302F5C07404EB0014BF
:1013E0002468234302F5C07404EB001423608B7A55
:1013F00003F00F038B7202F5C07303EB00135B68FD
:1014000023F00F0402F5C07303EB00135C6002F5D8
:10141000C07303EB00135B688C7A234302F5C0743E
:1014200004EB001463608B7B1C064B7B44EA034493
:101430000B7B44EA0323CC7A234302F5C07404EB0C
:101440000014A3608B7C1C064B7C44EA03440B7C99
:1014500044EA0323CC7B234302F5C07404EB00145D
:10146000E36002F5C07303EB00131B6843F0010453
:1014700002F5C07303EB00131C6010BD0246002090
:1014800002EA01030BB1012000E00020704721B106
:10149000026842F00102026003E0026822F00102E9
:1014A00002607047016821F00101016000210160C4
:1014B00041608160C1600161212141614A498842E6
:1014C00004D13D21484A103A91608CE046491831D8
:1014D000884205D14FF47461434A103A916082E02A
:1014E00041493031884205D14FF474113E4A103AD7
:1014F000916078E03C494831884205D14FF07461F1
:10150000394A103A91606EE037496031884204D11F
:101510003649354A103AD16065E03349783188421E
:1015200004D13349304A103AD1605CE02E49903101
:10153000884204D12F492C4A103AD16053E02A49FD
:10154000A831884205D14FF03D51274A103AD16069
:1015500049E02949884204D13D21274A083A1160CF
:1015600041E025491831884205D14FF47461224A7F
:10157000083A116037E020493031884205D14FF4F4
:1015800074111D4A083A11602DE01B494831884208
:1015900005D14FF07461184A083A116023E01649EA
:1015A0006031884204D11149134A121F11601AE0B8
:1015B00011497831884204D10D490F4A121F116038
:1015C00011E00D499031884204D10A490A4A121F9C
:1015D000116008E00849A831884204D14FF03D511C
:1015E000054A121F11607047106002403D00002044
:1015F000400F002000003D201064024021B102682D
:1016000042F48022026003E0026822F48022026039
:10161000704722B1036843F40023036003E00368CA
:1016200023F400230360016170470146486880B2DB
:101630007047014600200A6802F400220AB1012026
:1016400000E000207047000010B500220268134B34
:101650001A40CC680B6823434C6923438C692343AD
:10166000CC6923430C6A23434C6A23438C6A23438B
:101670004C6B23438C6B23431A430260426922F074
:101680000702D1E90B3423431A4342610B694360DB
:101690004B6883608B68C36010BD00003F801CF006
:1016A0000021016041608160C1600161416181612F
:1016B000C161016241628162C16201634163816310
:1016C0007047704710B5022000F01CF850B102209E
:1016D00000F00CF8022000F00FF801200249087019
:1016E00000F0C8F910BD00005C010020014908604D
:1016F00070470000143C0140014908607047000039
:10170000143C0140014600200022074B1B6803EAFD
:101710000102054B14331B680B4013B10AB10120C1
:1017200000E0002070470000003C014000212349F8
:101730008279002A3AD00A46126803689A430B4617
:101740001A600A1D126803689A430B1D1A60027919
:1017500011440A6803681A430A60184A083212687A
:1017600003689A43154B08331A601A1D1268036800
:101770009A43124B0C331A604279102A0ED11A1F69
:10178000126803681A430D4B08331A601A1D126859
:1017900003681A43094B0C331A600DE0074942797C
:1017A00011440A6803681A430A6005E0027911448B
:1017B0000A6803689A430A6070470000003C0140D1
:1017C00070B500220023046844600C7BCD7A44EAA3
:1017D0000524046004684568641BC460C4682B4D1C
:1017E000AC4207DA846B641C8463C46804F500545B
:1017F000C4610EE0C46841F64C55AC4207DD846B11
:10180000641E8463C468A4F50054C46101E0C46824
:10181000C4610568846B05EB4434846004688569A1
:10182000641B00EE104AB8EEC00ADFED190A20EE84
:10183000200A9FED181AC0EE010A846B4FF4B475AC
:101840006C4300EE104AB8EEC00A30EE800A80ED1C
:10185000100AC669047D651C057500F1200545F870
:101860002460047D062C01D100240475002205E0CB
:1018700000F1200454F822402344521C062AF7DBCE
:10188000062493FBF4F4C46370BD0000B4E2FFFFD0
:101890000000B4430000004647F6FF7001490860AD
:1018A000704700002404004010B5044600EE104AC2
:1018B000B8EEC00A234880ED000A234890ED000AE4
:1018C000204880ED010A02F0A7F91E4890ED0E0AAB
:1018D000DFED1E0AB4EEE00AF1EE10FA03DB9FED35
:1018E0001B0A80ED0E0A174890ED0E0ADFED180A6C
:1018F000B4EEE00AF1EE10FA03D89FED150A80ED80
:101900000E0A104890ED0E0ABDEEC00A10EE100A45
:1019100003B2104890ED0E0ABDEEC00A10EE100A98
:10192000404202B20C4890ED0E0ABDEEC00A10EE25
:10193000100A404201B2094802F0A4FF012004F05D
:1019400079FC10BDF0040020B000002000007A45B2
:1019500000007AC5FC010020A402002000640040C1
:10196000F0B50A4600210023002400BF3DE0012518
:1019700005FA01F3156805EA03049C4234D10568B1
:101980004F000326BE40B543056015794E00B540B3
:101990000668354305601579012D02D01579022DB1
:1019A00016D185684F000326BE40B5438560557942
:1019B0004E00B540866835438560456801268E40F7
:1019C000B5434560456896798E40B6B2354345606B
:1019D000C5684F000326BE40B543C560D5794E00AB
:1019E000B540C6683543C560491C1029BFD3F0BD5A
:1019F000F0B5002300244D07ED0E02FA05F3CE10DA
:101A000000F1200555F826504E07F70E0F26BE4070
:101A1000B543CF1000F1200646F82750CE1000F154
:101A2000200555F8265045EA0304CE1000F12005A4
:101A300045F82640F0BD41837047018370474FF65B
:101A4000FF7101600021017141718171C1717047A5
:101A50000148007870470000AA05002001460B29C4
:101A600003D2034800EB810070470020FCE7000030
:101A7000200600204B4890ED030A4B4880ED040AF5
:101A8000484890ED040AB1EE400A474880ED050A47
:101A9000444890ED050A444880ED060A434890ED1D
:101AA000000A434880ED000A424890ED000A3F4892
:101AB00080ED000A90ED000A3D48D0ED000A30EEBE
:101AC000600ADFED3D0AB4EEE00AF1EE10FA05DB44
:101AD0003A480068401E3949086013E0334890EDE9
:101AE000000A3348D0ED000A30EE600ADFED340A18
:101AF000B4EEE00AF1EE10FA04D830480068401C59
:101B00002E4908602D4800684FF4B471484300EE38
:101B1000100AB8EEC00A2548D0ED000AB7EE001A48
:101B200001EE200A274880ED000A224890ED010AC4
:101B3000254880ED000A254890ED000A244880EDF4
:101B4000000A1C4890ED020A224880ED000A1F4856
:101B500090ED000A1E48D0ED000A30EE600ADFED7D
:101B6000160AB4EEE00AF1EE10FA05DB1A48006836
:101B7000401E1949086013E0144890ED000A14480B
:101B8000D0ED000A30EE600ADFED0D0AB4EEE00A97
:101B9000F1EE10FA04D810480068401C0E490860A5
:101BA00070470000AC070020AC0800203001002086
:101BB0003C010020E00700200000A5435401002064
:101BC0000000A5C3480100204C010020380100207E
:101BD00044010020500100205801002010B5017080
:101BE0000378047D021D1355037DD35C447D125D93
:101BF00043EA82024270027D521C02F00F0282759B
:101C00004378847D021D125D43EA02128270037DD7
:101C1000021DD35C447D125D934205D10D4A1268CA
:101C2000521C0C4B1A6002E000220A4B1A60094A4F
:101C30001268282A03D3037D021DD25CC270027D84
:101C40004275027D521C0275027D102A01D10022CC
:101C5000027510BD1806002001480078704700008A
:101C6000450500204FF08040406A7047274890EDBE
:101C7000000AFBEE030AB4EEE00AF1EE10FA04D813
:101C8000BBEE030A80ED000A0DE0204890ED000A4B
:101C9000F3EE030AB4EEE00AF1EE10FA03DBB3EE62
:101CA000030A80ED000A194890ED010A1848D0EDAA
:101CB000010A9FED181A70EEC10AB4EEE00AF1EEC7
:101CC00010FA09D890ED010ADFED120A30EE600A31
:101CD0000E4880ED010A17E00C4890ED010A0C480F
:101CE000D0ED010A9FED0B1A70EE810AB4EEE00A06
:101CF000F1EE10FA08DB90ED010ADFED060A30EE96
:101D0000200A024880ED010A70470000C40A002042
:101D1000A40200200000704210B52DED068BF0EEFD
:101D200040AAB0EE608AF0EE418AB0EE619AF0EE21
:101D3000429AB0EE62AAB0EE691AF0EE680AB0EE0E
:101D40006A0A02F07FF800B20C490880B0EE4A1A25
:101D5000F0EE490AB0EE480A03F06CFC00B2084904
:101D600008800648B0F9002008460088404201B2C9
:101D7000044802F0B5FDBDEC068B10BD5C060020EA
:101D80005E0600200064004000BFFEE700B52DEDB8
:101D9000108B93B0FE4890ED000AD0ED000A20EEC3
:101DA000200A8DED080A90ED000AFA48D0ED000AED
:101DB00020EE200AB0EE40FAF54890ED000AF64811
:101DC000D0ED000A20EE200AF0EE40AAF04890ED97
:101DD000000AF248D0ED000A20EE200A8DED070A35
:101DE000EC4890ED000AD0ED000A20EE200AF0EE5B
:101DF00040FA90ED000AE848D0ED000A20EE200AF3
:101E00008DED060AE34890ED000AE448D0ED000AA3
:101E100020EE200AB0EE40BADF4890ED000AD0ED87
:101E2000000A20EE200AF0EE40BA90ED000ADB48EE
:101E3000D0ED000A20EE200A8DED050A90ED000A93
:101E4000D0ED000A20EE200A8DED040AD44890ED72
:101E5000030ADFEDD40A20EE200ADFEDD30A80EE7C
:101E6000201AD24880ED001ACD4890ED040ADFED2B
:101E7000CD0A20EE200ADFEDCC0A80EE201ACC48F5
:101E800080ED001AC64890ED050ADFEDC60A20EE87
:101E9000200ADFEDC50A80EE201AC64880ED001A40
:101EA000BF4890ED000AC44880ED000ABC4890EDA0
:101EB000010AC24880ED000AB94890ED020AC04804
:101EC00080ED000AB64890ED060ABE4880ED000A93
:101ED000B34890ED070ABC4880ED000AB04890ED89
:101EE000080ABA4880ED000AFFF7BCFEB84908604E
:101EF00008460068B749096888420CD3B4480068AE
:101F0000B4490968401A00EE100AB8EE400ADFED45
:101F1000B20AC0EE208AAE480068AE490860A64802
:101F2000D0ED000A90ED001A60EE810AA34890ED12
:101F3000001AD0ED001A41EE210AA14890ED001AD6
:101F4000D0ED001A41EE210AB0EE600A04F0AEFABC
:101F5000B0EE408A984890ED000A20EE080A80ED25
:101F6000000A964890ED000A20EE080A80ED000A6B
:101F7000934890ED000A20EE080A80ED000A91488F
:101F8000D0ED000A90ED001A60EE810A8E4890EDC7
:101F9000001AD0ED001A41EE210A8C4890ED001A8B
:101FA000D0ED001A41EE210AB0EE600A04F07EFA8C
:101FB000B0EE408A834890ED000A20EE080A80EDDA
:101FC000000A814890ED000A20EE080A80ED000A20
:101FD0007E4890ED000A20EE080A80ED000A79485C
:101FE00090ED000AF0EE000A60EE200AB6EE000A5C
:101FF00030EE6B1A9DED040A31EE400A20EE800AA5
:102000007148D0ED000AB0EE001A60EE811ADDEDE5
:10201000060A9DED071A70EEC10A01EEA00A6B4890
:10202000D0ED000AB0EE001A60EE810A3BEE2A1AEB
:1020300000EE810A8DED110A624890ED000AF0EE83
:10204000000A20EE201A9DED060ADDED070A30EEAB
:10205000200A21EE000A5C48D0ED000AB0EE001A1A
:1020600020EE811AF6EE000A70EEEF1ADDED040A9A
:1020700071EEE00A01EE200A5448D0ED000AB0EEFD
:10208000001A20EE811ADDED050A70EECF0A01EE8E
:10209000200A8DED100A4B4890ED000AF0EE000A80
:1020A00020EE200A7BEE6A0A60EE200A464890ED98
:1020B000000AB0EE001A20EE011A9DED050A70EE3E
:1020C0000F1AB0EE600A01EE210A4048D0ED000A76
:1020D000B0EE001A60EE810AB6EE001A31EE6F1A09
:1020E00031EE6B1AB0EE409A00EE819A9DED110A26
:1020F00060EE000A9DED100A40EE000A10EE901A04
:102100000846FEF72EFACDE900019DED000B03F025
:1021100085FF8DED020B9DED020B51EC100BFEF7D0
:102120004BFA09EE900AB0EE49AA3BEE6A0AF0EECD
:10213000000A20EE200A8DED0F0A9DED050A3FEE04
:10214000000AF0EE000A20EE200A8DED0E0A9DED49
:10215000080A30EE6F0A70EE6B0A9DED040A30EE4D
:10216000800A8DED0D0AB0EE000A69EE800AB6EE27
:10217000000A30EE6B1A9DED040A31EE400A20EEA3
:10218000800AB0EE4A9AF0EE000A69EE200A25E0D5
:10219000F4000020F8000020FC00002000010020D6
:1021A000AC070020DB0F494000003443040100204D
:1021B000080100200C010020100100201401002063
:1021C000180100201C010020200100202401002013
:1021D0002C010020280100200024F4493BEE6A1A5B
:1021E00000EE810A8DED0C0AB0EE000A29EE801A8D
:1021F0009DED060ADDED070A30EE600A21EE000AC9
:10220000B0EE4A9AF0EE000A29EE201ADDED050A3A
:102210007FEE200A01EE200A8DED0B0AB0EE000AD7
:1022200029EE800A7AEE8B0A20EE200AB0EE4A9A56
:10223000F0EE000A69EE200AB6EE001A31EE6F1ACF
:1022400031EE6B1A00EE810A8DED0A0AAF48D0ED2F
:10225000000A9DED0D0A60EE800AAD4890ED001A6F
:102260009DED0E0A41EE400AAA4890ED001A9DED40
:102270000A0A21EE001AA848D0ED001A9DED0B0ABB
:1022800001EEC01A30EE81CAA148D0ED000A9DEDE2
:102290000F0A60EE800AA14890ED001A9DED0D0A2C
:1022A00041EE400A9C4890ED001A9DED0C0A21EE8B
:1022B000001A9B48D0ED001A9DED0A0A01EEC01AE3
:1022C00070EE81CA9548D0ED000A9DED0E0A60EED1
:1022D000800A8E4890ED001A9DED0F0A41EE400AEB
:1022E0008F4890ED001A9DED0B0A21EE001A8948E7
:1022F000D0ED001A9DED0C0A01EEC01A30EE81DA25
:10230000B5EEC0CAF1EE10FA57D0F5EEC0CAF1EE44
:1023100010FA52D0B5EEC0DAF1EE10FA4DD09FEDC2
:10232000810A6CEE000A804890ED000A00EEA80ACF
:1023300080ED000A9FED7B0A6CEE800A7B4890EDF1
:10234000000A00EEA80A80ED000A9FED760A6DEE05
:10235000000A774890ED000A00EEA80A80ED000A16
:10236000744890ED000AF0EE000A00EE8C0A6E4808
:10237000D0ED000A30EE200A6E4880ED000A6E486B
:1023800090ED000AF0EE000A00EEAC0A6748D0EDCE
:10239000000A30EE200A684880ED000A674890ED98
:1023A000000AF0EE000A00EE8D0A6148D0ED000A46
:1023B00030EE200A614880ED000A614890ED000A85
:1023C000B1EE400A5B48D0ED000A20EE200A5D48DD
:1023D000D0ED000A584890ED001A00EEC10A5A48A4
:1023E00090ED001A5548D0ED001AF0EE400A41EE8B
:1023F000610A564890ED000A00EEA80A8DED090A20
:1024000090ED000A4B48D0ED000A20EE200A4D481E
:10241000D0ED000A494890ED001A00EE810A4A48C2
:10242000D0ED000A444890ED001A00EEC10A44487D
:10243000D0ED000AF0EE60DA40EE28DA434890ED85
:10244000000A3D48D0ED000A20EE200A3C48D0EDBD
:10245000000A3A4890ED001A00EEC10A3A48D0ED61
:10246000000A344890ED001A00EE810A3548D0ED9C
:10247000000AB0EE60EA00EE28EA344890ED000A67
:102480002E48D0ED000A20EE200A2D48D0ED000A9B
:10249000294890ED001A00EE810A2A48D0ED000A82
:1024A000244890ED001A00EEC10A2748D0ED000A3A
:1024B000F0EE60EA40EE28EADDED090A60EEA00ADF
:1024C0004DEEAD0A4EEE0E0A4EEEAE0AB0EE600ACA
:1024D00003F0ECFFB0EE408A9DED090A20EE080AF9
:1024E0001A4880ED000A2DEE880A154880ED000A92
:1024F0002EEE080A134880ED000A2EEE880A1248D4
:1025000080ED000A13B0BDEC108B00BD140100205B
:1025100018010020200100202401002010010020CB
:102520001C0100200AD7233CE8000020EC0000201A
:10253000F000002004010020080100200C01002010
:10254000F8000020FC00002000010020F400002022
:102550001FB50E2269463B2001F0CCF89DF8010022
:102560009DF8001040EA012000B2214908809DF842
:1025700003009DF8021040EA012000B21C49488087
:102580009DF805009DF8041040EA012000B21849AA
:1025900088809DF807009DF8061040EA012000B2EF
:1025A0001349C8809DF8090012490989401A9DF80D
:1025B000081040EA012000B20D4908819DF80B0087
:1025C0000C494989401A9DF80A1040EA012000B2DE
:1025D000074948819DF80D0006498989401A9DF8F0
:1025E0000C1040EA012000B2014988811FBD0000A3
:1025F000EC0700200008002010B504460C4800F04D
:1026000021F8FFF7C3FB0B4890ED000A84ED000AA8
:10261000094890ED000A84ED010A084890ED000A8F
:1026200084ED020A064890ED000A84ED030A10BD0D
:10263000AC070020F4000020F8000020FC0000207F
:102640000001002030B585B005460DF1120004A947
:10265000031F03AACDE90010891F02A801F096F814
:10266000BDF8080026490880BDF80A004880BDF87A
:102670000C008880BDF80E000881BDF8100048816C
:10268000BDF81200888195ED060ABDEEC00A10EE75
:10269000100A00B2C88195ED070ABDEEC00A10EE1F
:1026A000100A00B2088295ED080ABDEEC00A10EECD
:1026B000100A00B2488200241DE0032C0BDA02A8A5
:1026C00030F9140000EE100AB8EEC00A05EB8400E1
:1026D00080ED000A0EE002A830F9140000EE100AA6
:1026E000B8EEC00ADFED070A80EE201A05EB840081
:1026F00080ED001A641C062CDFDB05B030BD000045
:10270000980800203333034210B52DED0C8B04469E
:102710008748FFF771FF864890ED020AF8EE000A3D
:1027200020EE200AD0ED020A20EE200AD0ED030AA6
:10273000B0EE001A60EE810A90ED031A00EEC10AB5
:10274000F7EE000A30EE200A10EE101A0846FDF7E8
:1027500008FF41EC1C0B764890ED010AF0EE000AF0
:1027600020EE200AD0ED020A20EE200AD0ED000A69
:10277000B0EE001A60EE810A90ED031A00EE810AB5
:1027800010EE101A0846FDF7ECFE41EC1D0BB0EE02
:102790004C1AF0EE6C1AB0EE4D0AF0EE6D0A03F032
:1027A0003BFBB0EE40BAF0EE60BA51EC1B0B81F08F
:1027B000004141EC1A0B9FED5F0B53EC102BFDF722
:1027C000B8FD41EC190B9FED5D0B53EC102BFDF7A1
:1027D00022FE41EC180BFDF7EFFE00EE100A84ED2F
:1027E000000A534890ED010AF8EE000A20EE200A94
:1027F000D0ED030A20EE200AD0ED000AB0EE001A58
:1028000060EE810A90ED021A00EE810A10EE101AB5
:102810000846FDF7A6FE41EC1C0BB0EE4C0AF0EEAC
:102820006C0A02F0DDFFB0EE40BAF0EE60BA51EC97
:102830001B0B81F0004141EC1A0B9FED3E0B53EC5A
:10284000102BFDF776FD41EC190B9FED3C0B53EC83
:10285000102BFDF7E0FD41EC180BFDF7ADFE00EE8F
:10286000100A84ED010A324890ED010AF8EE000AE0
:1028700020EE200AD0ED010A20EE200AD0ED020A57
:10288000B0EE001A60EE810A90ED021A00EEC10A65
:10289000F7EE000A30EE200A10EE101A0846FDF797
:1028A00060FE41EC1B0B224890ED020AF0EE000A9C
:1028B00020EE200AD0ED030A20EE200AD0ED000A17
:1028C000B0EE001A60EE810A90ED011A00EE810A66
:1028D00010EE101A0846FDF744FE41EC1C0BB0EE5A
:1028E0004B1AF0EE6B1AB0EE4C0AF0EE6C0A03F0E5
:1028F00093FAB0EE40AAF0EE60AA9FED0E0B53ECF7
:10290000102B51EC1A0BFDF714FD41EC190B9FED48
:102910000B0B53EC102BFDF77EFD41EC180BFDF774
:102920004BFE00EE100A84ED020ABDEC0C8B10BDCC
:10293000D00700200000000000806640000000601A
:10294000FB21094010B530216A2000F001FF0A2068
:1029500003F070FC0D21242000F0FAFE0A2003F0A1
:1029600069FC0E21282000F0F3FE0A2003F062FC2F
:102970008E21312000F0ECFE0A2003F05BFC0121E7
:102980000B2000F075F8002000F055F8102801D059
:10299000012010BD0A2003F04DFC00210A2000F0A8
:1029A00067F80A2000F047F808B10220F1E70A2092
:1029B00003F040FC00210B2000F05AF80B2000F03F
:1029C0003AF808B10320E4E70A2003F033FC24219D
:1029D000412000F04DF8412000F02DF8242801D0CE
:1029E0000420D6E70A2003F025FCC021422000F095
:1029F0003FF8422000F01FF8C02801D00520C8E7AA
:102A00000A2003F017FC00212A2000F0A1FE0A2072
:102A100003F010FC0021342000F09AFE0A2003F09D
:102A200009FC062203210E2000F0F2FE642003F0D0
:102A300001FC0020ADE770B504462146322000F0CD
:102A400087FE0A2003F0F6FB8021342000F080FE90
:102A50000A2003F0EFFB352000F028FE0546002198
:102A6000342000F075FE0A2003F0E4FB284670BD18
:102A700070B504460D4600212A2000F069FE0220B0
:102A800003F0D8FB2146292000F062FE022003F06B
:102A9000D1FB2946642000F05BFE022003F0CAFB54
:102AA00081212A2000F054FE0A2003F0C3FB70BDF0
:102AB00040B52DED048B002C45DA002D43DA94FB54
:102AC000F5F63046FDF716FD41EC190BB0EE490A5C
:102AD000F0EE690A03F098FAB0EE408AF0EE608AF0
:102AE0009FED860B53EC102B51EC180BFDF74CFDB2
:102AF00014D89FED840A844880ED000A9FED830A74
:102B0000834880ED000A9FED830A834880ED000A28
:102B10009FED820A824880ED000AEBE09FED810A7A
:102B2000794880ED000A9FED800A794880ED000A1F
:102B30009FED7E0A784880ED000A9FED7D0A784877
:102B400080ED000AD6E0002C45DA002D43DD94FB31
:102B5000F5F63046FDF7CEFC41EC190BB0EE490A14
:102B6000F0EE690A03F050FAB0EE408AF0EE608AA7
:102B70009FED620B53EC102B51EC180BFDF704FD8D
:102B800014D89FED6C0A604880ED000A9FED5F0A43
:102B90005F4880ED000A9FED680A5F4880ED000AFB
:102BA0009FED660A5E4880ED000AA3E09FED610A92
:102BB000554880ED000A9FED620A554880ED000AF5
:102BC0009FED600A544880ED000A9FED5F0A54486B
:102BD00080ED000A8EE0002C45DD002D43DD94FBE6
:102BE000F5F63046FDF786FC41EC190BB0EE490ACC
:102BF000F0EE690A03F008FAB0EE408AF0EE608A5F
:102C00009FED3E0B53EC102B51EC180BFDF7BCFC69
:102C100014D89FED4E0A3C4880ED000A9FED460A0D
:102C20003B4880ED000A9FED390A3B4880ED000AE1
:102C30009FED340A3A4880ED000A5BE09FED440ABC
:102C4000314880ED000A9FED3F0A314880ED000ACF
:102C50009FED3B0A304880ED000A9FED3D0A304869
:102C600080ED000A46E0002C44DD002D42DA94FBA2
:102C7000F5F63046FDF73EFC41EC190BB0EE490A83
:102C8000F0EE690A03F0C0F9B0EE408AF0EE608A17
:102C90009FED1A0B53EC102B51EC180BFDF774FC45
:102CA00014D89FED2C0A184880ED000A9FED2A0ADF
:102CB000174880ED000A9FED150A174880ED000ABD
:102CC0009FED260A164880ED000A13E09FED210AC9
:102CD0000D4880ED000A9FED150A0D4880ED000AB1
:102CE0009FED1F0A0C4880ED000A9FED1E0A0C485C
:102CF00080ED000ABDEC048B40BD00000000000028
:102D00000000F03F0AD7A3BBF4000020A8C64BBECA
:102D1000F8000020BE9F7A3FFC0000204ED111BC7D
:102D2000000100206F1203BC7B140EBFE17A543FF8
:102D30006F1203BB0AD7A33B355E7ABFA69B443C08
:102D400068910DBFE17A54BF99BB16BB52499D3AB9
:102D500099BB163B0AD7233B355E7A3F6F12033C83
:102D6000295C0FBFBC74933B2DE9F05F2DED0C8BFC
:102D700005460F4616469846DDE916949DED188ADD
:102D8000DDE919AB9FEDB40AF0EE408A9FEDB20A7F
:102D9000B0EE409A9FEDB00AF0EE409ADDE91B01DB
:102DA000401A40B2AD490870B9F1110F75D00ADC74
:102DB000B9F10B0F72D2DFE809F0DC2126ED2B35DB
:102DC00047ED303E5000B9F1810F68D00CDCB9F10D
:102DD000400F4BD0B9F1410F62D0B9F1420F75D01D
:102DE000B9F1800F5AD14DE0B9F1820F6FD0B9F52A
:102DF000807F6DD0B9F5806FF4D1B0E0B7EE000AF6
:102E0000F0EE408AC7E0BFEE000AF0EE408AC2E072
:102E1000BFEE000AB0EE409ABDE0B7EE000AB0EE99
:102E2000409AB8E0BEEE000AB0EE409AB6EE000A54
:102E3000F0EE408AAFE0B6EE000AB0EE409AB6EE91
:102E4000000AF0EE408AA6E0BEEE000AB0EE409A1C
:102E5000BEEE000AF0EE408A9DE0B6EE000AB0EE4B
:102E6000409ABEEE000AF0EE408A94E0604200EE26
:102E7000100AB8EEC00AF6EE000A20EE200AF0EEC4
:102E8000409A88E000EE104AB8EEC00AF6EE000A5A
:102E900020EE200AF0EE409A7DE065E07AE018E04E
:102EA000B6EE000AF0EE408A2046FDF723FB41EC27
:102EB0001B0B9FED6B0B53EC102BFDF73AFA41EC1B
:102EC0001A0BFDF779FB09EE900A64E017E02CE09D
:102ED00041E0B6EE000AF0EE408A2046FDF70AFB1C
:102EE00041EC1B0B9FED600B53EC102BFDF721FA0F
:102EF00041EC1A0BFDF760FB09EE900A4BE0BEEEC9
:102F0000000AF0EE408A2046FDF7F4FA41EC1B0B74
:102F10009FED530B53EC102BFDF70BFA41EC1A0B02
:102F2000FDF74AFB09EE900A35E0BEEE000AF0EE2E
:102F3000408A2046FDF7DEFA41EC1B0B9FED4A0B61
:102F400053EC102BFDF7F5F941EC1A0BFDF734FBB0
:102F500009EE900A1FE00120454908721BE002209B
:102F600043490872487216E0B7EE080AF0EE408A4C
:102F700011E09FED390AF0EE408A9FED370AB0EE7E
:102F8000409A9FED350AF0EE409A012038490872C8
:102F9000487200E000BF00BF00EE104AB8EEC00A61
:102FA00028EE800A10EE101A0846FDF7DAFA9FEDB7
:102FB000310B53EC102BFDF72EFA41EC1B0B404666
:102FC000FDF7A9FA53EC1B2BFDF70CF9FDF7B0FA4E
:102FD0002749C88000EE106AB8EE400AF8EEC80A29
:102FE00009EE200ABCEEC00A10EE100A8880CAF171
:102FF000000000EBC0003844488000EE105AB8EEE4
:10300000400AF0EE080A09EEA00A0BEBCB0000EE36
:10301000900AF8EEE00A30EE200ABCEEC00A10EE8C
:10302000100A08800846408840F29461884202DB1A
:1030300008460F4948800E484088B0F5B67F03DC4B
:103040004FF4B6700A494880044890F90000BDEC7E
:103050000C8BBDE8F09F000000000000F401002090
:10306000000000000000E0BF000000000000E03FA2
:10307000A00A00209A9999999999E93F1CB50121D4
:10308000202000F09FFF0121102000F09BFF012174
:10309000802000F097FF0121402000F093FF802066
:1030A000009001208DF8040000208DF80600032018
:1030B0008DF8050069462848FEF752FC082000906C
:1030C00001208DF8040000208DF8060003208DF803
:1030D000050069462148FEF743FC202000900120AE
:1030E0008DF8040000208DF8060003208DF80500FF
:1030F00069461948FEF734FC4FF4804000900120E7
:103100008DF8040000208DF8060003208DF80500DE
:1031100069461348FEF724FC4FF40050009002204B
:103120008DF8040000208DF8060003208DF80500BE
:1031300069460C48FEF714FC4FF400510948FEF7AD
:103140007CFC80210448FEF778FC4FF48041044861
:10315000FEF773FC1CBD000000100240001C024082
:103160000014024000180240002101607047000076
:1031700010B5044604B910BD2078FF2825D1207A67
:10318000FE2822D16078A17840EA0120C0F52070A5
:103190000F490880E078217940EA01200D49088034
:1031A0004FF480410C48FEF746FC0948008840F285
:1031B0007621884202DD08460549088004480088D7
:1031C000062802DA06200249088000BFD3E7000083
:1031D000BE000020C200002000140240F8B50446E2
:1031E0000D4616461F4600EE104AB8EEC00A684863
:1031F00080ED000A674890ED000A654880ED010AFD
:1032000000EE105AB8EEC00A634880ED000A634829
:1032100090ED000A604880ED010A00EE106AB8EEF9
:10322000C00A5F4880ED000A5E4890ED000A5C48E5
:1032300080ED010A00EE107AB8EEC00A5A4880ED1F
:10324000000A5A4890ED000A574880ED010A50489C
:1032500000F0E2FC504800F0DFFC514800F0DCFCDC
:10326000514800F0D9FC4A4890ED0E0ADFED500AB3
:10327000B4EEE00AF1EE10FA03DB9FED4D0A80EDAB
:103280000E0A434890ED0E0ADFED4A0AB4EEE00A5A
:10329000F1EE10FA03D89FED470A80ED0E0A3E4882
:1032A00090ED0E0ADFED420AB4EEE00AF1EE10FAFC
:1032B00003DB9FED3F0A80ED0E0A374890ED0E0AC2
:1032C000DFED3C0AB4EEE00AF1EE10FA03D89FED10
:1032D000390A80ED0E0A324890ED0E0ADFED340A0D
:1032E000B4EEE00AF1EE10FA03DB9FED310A80ED57
:1032F0000E0A2B4890ED0E0ADFED2E0AB4EEE00A1E
:10330000F1EE10FA03D89FED2B0A80ED0E0A264845
:1033100090ED0E0ADFED260AB4EEE00AF1EE10FAA7
:1033200003DB9FED230A80ED0E0A1F4890ED0E0A85
:10333000DFED200AB4EEE00AF1EE10FA03D89FEDBB
:103340001D0A80ED0E0A184890ED0E0ABDEEC00A67
:1033500010EE100A00B20090114890ED0E0ABDEE7A
:10336000C00A10EE100A03B20B4890ED0E0ABDEE33
:10337000C00A10EE100A02B2054890ED0E0ABDEE2A
:10338000C00A10EE100A01B20B4801F04DFAF8BD68
:10339000A0030020A0000020F4030020A4000020CF
:1033A00048040020A80000209C040020AC0000205D
:1033B00000409C4500409CC5006400402DE9F0435E
:1033C00004460D46DDE9076700200021012041E0A9
:1033D000DFF8D8C13CF81080A0F1010CDFF8CC91E7
:1033E00029F81C8009F1160C3CF81090A0F1010C92
:1033F000DFF8B88108F1160828F81C9008F1160CBF
:103400003CF81090A0F1010C08F1160828F81C9067
:1034100008F1160C3CF81090A0F1010C08F1160808
:1034200028F81C9008F1160C3CF81090A0F1010C43
:1034300008F1160828F81C9008F1160C3CF81090BA
:10344000A0F1010C08F1160828F81C9000F1010CFD
:103450000CF0FF000A28BBDBDFF850C1ACF81240CB
:10346000ACF82850ACF83E20ACF85430ACF86A60A8
:10347000ACF88070002008E0DFF830C13CF910C0E3
:10348000614400F1010C0CF0FF000A28F4DB4FF05E
:103490000A0C91FBFCFC0FFA8CFCDFF81081A8F8F9
:1034A00014C0002100200AE0DFF800C10CF1160C66
:1034B0003CF910C0614400F1010C0CF0FF000A2837
:1034C000F2DB4FF00A0C91FBFCFC0FFA8CF8DFF8F2
:1034D000DCC0ACF82A80002100200AE0DFF8CCC074
:1034E0000CF12C0C3CF910C0614400F1010C0CF003
:1034F000FF000A28F2DB4FF00A0C91FBFCFC0FFAEC
:103500008CF8DFF8A8C0ACF84080002100200AE069
:10351000DFF898C00CF1420C3CF910C0614400F196
:10352000010C0CF0FF000A28F2DB4FF00A0C91FBB3
:10353000FCFC0FFA8CF8DFF874C0ACF85680002160
:1035400000200AE0DFF864C00CF1580C3CF910C010
:10355000614400F1010C0CF0FF000A28F2DB4FF08F
:103560000A0C91FBFCFC0FFA8CF8DFF840C0ACF8B9
:103570006C80002100200AE0DFF830C00CF16E0CF6
:103580003CF910C0614400F1010C0CF0FF000A2866
:10359000F2DB4FF00A0C91FBFCFC0FFA8CF8DFF821
:1035A0000CC0ACF88280BDE8F08300001408002055
:1035B00010B588B04020069001208DF81C00002036
:1035C0008DF81E008DF81F0003208DF81D0006A940
:1035D0001348FEF7C5F9FFF7B5F900241822114981
:1035E0006846FCF7EDFD642002F024FE752000F033
:1035F0005DF80D49087000BF0CE06A4602EB44021A
:1036000051781DF8140000F0A3F8012002F012FE1A
:10361000601CC4B20C2CF0DB002008B010BD000010
:1036200000140240E06B00085D01002000B585B089
:103630000121880300F0F6FC0121102000F0C2FCFB
:103640000220039000208DF810008DF81200012058
:103650008DF8130002208DF8110003A91248FEF71F
:103660007FF90121042001F02FF8022000900020B2
:103670008DF804000C208DF8050001208DF806005F
:103680006846FEF753F807208DF8080002208DF8F1
:10369000090000208DF80A0001208DF80B0002A817
:1036A00000F074FA05B000BD0010024010B50446E9
:1036B00040210D48FEF7BFF944F080000B49087027
:1036C0000846007800F0AAFF09490870074800780A
:1036D00000F0A4FF0649087040210348FEF7ADF949
:1036E0000348007810BD0000001402406001002073
:1036F0005F0100202DE9F04105460E4617460024E3
:1037000040211048FEF797F945F080000E490870F7
:10371000084600780D4908700B48007800F07EFFDD
:1037200000BF05E00949085D00F078FF3055641CD2
:10373000BC42F7DB40210348FEF77FF90020BDE8DB
:10374000F0810000001402406101002062010020AD
:1037500070B505460C4640210A48FEF76CF905F0A5
:103760007F00094908700846007800F057FF0648B6
:103770000470007800F052FF40210248FEF75DF926
:10378000002070BD001402405E0100202DE9FC47BE
:1037900004460D4616461F46DDE90A8900201949F0
:1037A0000870FEF7D5FE1848B0F90C001649B1F9BB
:1037B0000A10DFF854C0CDE90010BCF90830BCF99C
:1037C0000420BCF90210BCF90000FFF7F7FD0F4818
:1037D000808A20800D48408D28800C48B0F8400039
:1037E00030800A48B0F8560038800848B0F86C00BD
:1037F000A8F800000548B0F88200A9F80000BDE86C
:10380000FC8700005C010020EC0700201408002069
:1038100070B504460E46154621462820FFF798FF4E
:10382000022002F007FD0A212920FFF791FF022064
:1038300002F000FD01216420FFF78AFF022002F060
:10384000F9FC44F080012520FFF782FF022002F0FE
:10385000F1FC31462620FFF77BFF022002F0EAFC54
:1038600003213420FFF774FF022002F0E3FC032160
:103870006720FFF76DFF022002F0DCFC81212A2087
:10388000FFF766FF062002F0D5FC45F080012720F7
:10389000FFF75EFF072002F0CDFC70BD00BFFEE722
:1038A00070B504460D46FEF7D7F9002878D0287881
:1038B00000F0100040B14FF42570664908804FF4C5
:1038C00048706549088007E04FF4FA706149088044
:1038D0004FF42F7060490880287800F0010090B103
:1038E0005E48016988475B48008800EE900AF8EE60
:1038F000600A20EE200ABDEEC00A10EE100A00B2E7
:10390000574908801AE0287800F0020098B153481F
:10391000016988474F480088404200EE900AF8EE5F
:10392000E00A20EE200ABDEEC00A10EE100A00B236
:103930004B49088002E0002049490880287800F0BF
:10394000040098B1474801698847434800884042CD
:1039500000EE900AF8EEE00A20EE200ABDEEC00A62
:1039600010EE100A00B23E49488019E0287800F0B5
:10397000080090B13B48016988473748008800EE4D
:10398000900AF8EE600A20EE200ABDEEC00A10EEA2
:10399000100A00B23249488002E0002030494880D5
:1039A000FEF75AF902283CD1B4F9000010F1960F45
:1039B00003DC6FF09500208005E0B4F90000962844
:1039C00001DB96202080B4F9020010F1960F03DC91
:1039D0006FF09500608005E0B4F90200962801DBE5
:1039E00096206080204890ED000AB4F9020000EEB5
:1039F000900AF8EEE00A9FED1D1A00EEC10A1A487F
:103A000080ED000A90ED010AB4F9000000EE900A82
:103A1000F8EEE00A9FED151A00EE810A124880EDDB
:103A2000010AB4F9020000EE100AB8EEC00A0E480E
:103A300080ED040AB4F9000000EE100AB8EEC00AE6
:103A4000094880ED050AFEF711F9204600F010F84C
:103A500070BD00001C0600201E060020F40500209A
:103A6000A0050020D0050020C40A0020CDCCCC3C0D
:103A700070B5044600253F48007820B1012812D0D7
:103A8000022873D14FE0E07960B9607A012809D14A
:103A9000002000F04DFE38488169884701203549F3
:103AA0000870002562E0607A012802D1681C05B226
:103AB00000E00025322D0FDD00202E4908704FF464
:103AC0007A702E490860091D08602B488169884773
:103AD000002000F02DFE25E0274801698847DFED32
:103AE000280A9FED281A41EE000ABCEEE00A10EE0B
:103AF000100A22490860204801698847DFED200A42
:103B00009FED201A41EE000ABCEEE00A10EE100A0A
:103B10001A49091D08601848016A884710B1022037
:103B20001449087022E0607A012802D1681C05B2AD
:103B300000E00025322D0FDD00200E4908704FF403
:103B40007A700E490860091D08600B488169884732
:103B5000002000F0EDFD08E0207A012802D100F0FD
:103B6000E7FD02E0002000F0E3FD00BF00BF607A47
:103B7000E07170BDA8050020AC050020340C0040A9
:103B800000007A44000016447047000070B5002120
:103B900000230F22C4781CB3174C246804F4E0649B
:103BA000C4F5E064C4F30721C1F10404E3B20A419F
:103BB00044789C40E1B28478144021430C07210EE4
:103BC0000E4C05786155047804F01F050124AC40C3
:103BD00005786D11AD0005F1E025C5F8004109E05B
:103BE000047804F01F050124AC40054D06787611D9
:103BF00045F8264070BD00000CED00E000E400E058
:103C000080E100E002490143024A11607047000070
:103C10000000FA050CED00E090ED030A80ED020AC9
:103C200090ED000AD0ED010A30EE600A80ED030A43
:103C300090ED040AD0ED030A30EE200A80ED040A6C
:103C400090ED060AD0ED0C0AF1EE600AB4EEE00A3F
:103C5000F1EE10FA06D890ED0C0AB1EE400A80EDB4
:103C6000060A0CE090ED060AD0ED0C0AB4EEE00A6C
:103C7000F1EE10FA03DB90ED0C0A80ED060A90EDF0
:103C8000050AD0ED030A20EE200AD0ED060A90EDD9
:103C9000041A00EE810AD0ED030A90ED021A70EECC
:103CA000C10A90ED071A01EE200A80ED0E0A90ED90
:103CB0000E0AD0ED0F0AF1EE600AB4EEE00AF1EE62
:103CC00010FA06D890ED0F0AB1EE400A80ED0E0A08
:103CD0000CE090ED0E0AD0ED0F0AB4EEE00AF1EE22
:103CE00010FA03DB90ED0F0A80ED0E0A704700001A
:103CF0009FED080A80ED020A9FED060A80ED030A97
:103D00009FED040A80ED040A9FED020A80ED0E0A81
:103D1000704700000000000000B58BB0012108468C
:103D200000F050F90121082000F05CF9012108049D
:103D300000F078F90720099002208DF82800032070
:103D40008DF8290009A93B48FDF70AFE022200214F
:103D50003848FDF74DFE022201213648FDF748FEA6
:103D6000032202213348FDF743FE5320ADF818002B
:103D70000020ADF81A0044F6206007900020ADF84E
:103D8000200006A92C4800F0E3FFA720ADF818009A
:103D90000020ADF81A004FF47A7007900020ADF8BB
:103DA000200006A9254800F0D3FF7020ADF80400DC
:103DB0000120ADF806000020ADF808004FF47A703D
:103DC00003900220ADF810000020ADF81200ADF80D
:103DD00014004FF48070ADF8160001A9164800F0E9
:103DE0000FFF01A9144800F053FF0020039001A920
:103DF000124800F005FF08210F4800F03FFF08219E
:103E00000D4800F097FF08210C4800F037FF012112
:103E1000094800F0C5FE0121084800F0C1FE01215B
:103E2000054800F0CFFE0121044800F0CBFE0BB0A6
:103E300000BD000000000240000C004000400140B6
:103E40007047000071EE401A4D4991ED002A71EE65
:103E5000821AC1ED001AD1ED001A9FED4A2AF4EE44
:103E6000C21AF1EE10FA04DDDFED461AC1ED001AB8
:103E70000DE04349D1ED001A9FED432AF4EEC21A3A
:103E8000F1EE10FA03D2DFED401AC1ED001A3F49FE
:103E9000D1ED001A71EE611A3D49C1ED001A71EEC3
:103EA000401A3C4991ED002AB1EE422A61EE821A95
:103EB000394991ED002A3249D1ED002A42EE221A09
:103EC000364991ED002A3249D1ED002A42EE221AFC
:103ED0003349C1ED001A2D4981ED001A3049D1ED69
:103EE000001AF1EE611AB1EE022A40EE821A2D4953
:103EF00091ED002A61EE821A2B49C1ED001A2B497F
:103F0000D1ED001A70EEE11A294991ED002A61EE17
:103F1000821A2849C1ED001A2349D1ED001A25491A
:103F200091ED002A71EE821A2349C1ED001A1F4952
:103F3000C1ED000A2049D1ED001A9FED202AF4EED0
:103F4000C21AF1EE10FA03DBDFED1C1AC1ED001A04
:103F50001949D1ED001A9FED1A2AF4EEC21AF1EEBA
:103F600010FA03D8DFED161AC1ED001A1249D1ED8F
:103F7000001AFDEEE11A11EE901A08B27047000027
:103F80006006002000007A4400007AC46406002025
:103F900068060020700600207406002078060020C5
:103FA0006C06002088060020800600209006002075
:103FB0008C060020840600209406002000A08C457A
:103FC00000A08CC529B1064A12680243044B1A604E
:103FD00004E0034A12688243014B1A6070470000F4
:103FE0003038024029B1064A12680243044B1A6075
:103FF00004E0034A12688243014B1A6070470000D4
:104000004038024029B1064A12680243044B1A6044
:1040100004E0034A12688243014B1A6070470000B3
:104020002038024029B1064A12680243044B1A6044
:1040300004E0034A12688243014B1A607047000093
:104040004438024029B1064A12680243044B1A6000
:1040500004E0034A12688243014B1A607047000073
:1040600024380240F0B50021002200240225002659
:104070000223324F3F6807F00C0121B1042905D01B
:10408000082937D105E02E4F076036E02D4F076035
:1040900033E02A4F3F1F3F68C7F38056274F3F1F2B
:1040A0003F6807F03F036EB1264FB7FBF3F7DFF829
:1040B0008CC0ACF1040CDCF800C0CCF3881C07FB0E
:1040C0000CF40CE01E4FB7FBF3F7DFF870C0ACF157
:1040D000040CDCF800C0CCF3881C07FB0CF4174F71
:1040E0003F1F3F68C7F301477F1C7D00B4FBF5F716
:1040F000076002E0124F076000BF00BF0F4F3F682C
:1041000007F0F0010909104F7A5C0768D740476053
:104110000A4F3F6807F4E051890A0B4F7A5C476801
:10412000D7408760054F3F6807F46041490B064F51
:104130007A5C4768D740C760F0BD0000083802408D
:104140000024F400001BB700D80000200168491CBF
:104150000160D0E9001291420ADA90ED000AF8EE0F
:10416000C00A90ED010AB8EEC01A80EE810A7047CD
:10417000B7EE000AFBE770470146D1E90002904222
:1041800001DA002070470120FCE700210160704740
:10419000016070474160704710B50446FDF75CFD53
:1041A000B8B3B4F90200A0F5806000EE100AB8EED2
:1041B000C00AF7EE000A20EE200ABDEEC00A10EE9B
:1041C000100A00B268490880B4F90000A0F58060C8
:1041D00000EE100AB8EEC00AF7EE000A20EE200A40
:1041E000BDEEC00A10EE100A00B24880B4F9040017
:1041F000A0F5806000EE100AB8EEC00AF7EE000AE3
:1042000020EE200ABDEEC00A10EE100A00B2C880EF
:1042100004E0FFE70020544908804880FDF71CFDBA
:10422000022842D1514890ED000AB4F90600A0F5E9
:10423000806000EE900AF8EEE00A9FED4D1A00EE65
:10424000810A4A4880ED000A4A48007A02286DD067
:10425000494890ED100ADFED490AB4EEE00AF1EEAC
:1042600010FA23DDB4F90400A0F5806000EE100A16
:10427000B8EEC00ADFED3E0A20EE200AB5EEC00A15
:10428000F1EE10FA52DD394890ED010AB4F904005C
:10429000A0F5806000EE900AF8EEE00A9FED341A77
:1042A00000EE810A314880ED010A3FE0324890ED8E
:1042B000100ADFED330AB4EEE00AF1EE10FA23D271
:1042C000B4F90400A0F5806000EE100AB8EEC00A50
:1042D000DFED270A20EE200AB5EEC00AF1EE10FA53
:1042E00024D2224890ED010AB4F90400A0F58060C0
:1042F00000EE900AF8EEE00A9FED1D1A00EE810A2A
:104300001A4880ED010A11E0184890ED010AB4F94D
:104310000400A0F5806000EE900AF8EEE00A9FED40
:10432000141A00EE810A114880ED010AB4F9060062
:10433000A0F5806000EE100AB8EEC00A0B4880EDD0
:10434000040AB4F90400A0F5806000EE100AB8EE8B
:10435000C00A064880ED050AFDF788FC217A094865
:1043600000F086F810BD0000A0050020C40A00205F
:104370006F12833BAC0A0020F0090020000070425D
:10438000000070C2DC0A002010B5044604B910BD5C
:104390002078617840EA0120C0F30A0033490880A0
:1043A0006078C010A17840EA4110C0F30A002F499C
:1043B0004880A0788011E17840EA8100217940EAC4
:1043C0008120C0F30A002949888020794010617952
:1043D00040EAC110C0F30A002449C8806079001186
:1043E000800808726079C0F301104872A079E17901
:1043F00040EA012000B21D494881207A617A40EAF2
:10440000012001B219488181A07AE17A40EA0120B5
:1044100001B21648C181217B8174617BC174A07B8C
:1044200012498882207C617C40EA0120C0F30A00A6
:104430000E49C882084600F067F9FDF709FB01281C
:1044400004D002280DD003280CD103E00748FFF761
:10445000A3FE07E005491431A1F10A00FFF720FA95
:1044600000E000BF00BF00BF91E70000AC0A0020E1
:1044700070B504460D4629462046FDF7AFFB374888
:10448000007820B101280FD0022865D146E060787D
:104490000D2808D1002000F04BF931488169884788
:1044A00001202E49087057E060780D280FD10020B8
:1044B00000F03EF94FF47A702A490860091D08603F
:1044C00000202649087026488169884725E024484D
:1044D00001698847DFED240A9FED241A41EE000AA6
:1044E000BCEEE00A10EE100A1E4908601C48016983
:1044F0008847DFED1D0A9FED1D1A41EE000ABCEE54
:10450000E00A10EE100A1749091D08601448016AF4
:10451000884710B10220114908701DE060780D280D
:104520000FD100200D4908704FF47A700D490860D2
:10453000091D08600A4881698847002000F0F8F8E2
:1045400009E02078022803D1012000F0F1F802E010
:10455000002000F0EDF800BF00BF70BDA8050020EE
:10456000AC050020340C004000007A4400001644E2
:1045700000B587B001212020FFF724FD01210805A7
:10458000FFF750FD4FF46070059002208DF8180081
:1045900000208DF81A0003208DF8190000208DF8F6
:1045A0001B0005A91B48FDF7DBF905220721194867
:1045B000FDF71EFA052208211648FDF719FA052213
:1045C00009211448FDF714FA0020ADF800004FF45B
:1045D0008270ADF802000020ADF80400ADF80600CE
:1045E000ADF808004FF40070ADF80A003820ADF8BF
:1045F0000C000020ADF80E000A20ADF8100069464E
:10460000054800F041F80121034800F023F807B005
:1046100000BD0000001402400050014010B50446E7
:1046200000BF02210A4800F021F80028F9D02146F5
:10463000074800F027F800BF0121054800F016F8F0
:104640000028F9D0024800F01AF8C0B210BD0000EE
:104650000050014021B1028842F04002028004E093
:1046600002884FF6BF731A4002807047024600204E
:1046700013890B400BB1012000E000207047014678
:10468000888970478181704710B50022028802F442
:1046900041520B884C8823438C882343CC88234386
:1046A0000C8923434C8923438C892343CC8923439E
:1046B0001A430280838B4FF2FF74234083830B8A5B
:1046C000038210BD7047000030B500228B071C0F1D
:1046D0000F2303FA04F20B4B8C1053F8243093434E
:1046E000084C8D1044F8253023468C1053F82430A4
:1046F0008C07240F00FA04F42343024C8D1044F875
:10470000253030BD08380140417A012902D1074ADD
:1047100011700AE0417A032902D1044A117004E0C1
:10472000417A022901D1014A11707047AA0500207F
:104730000149087070470000A90500200CB5002051
:10474000019000903448006840F48030324908609D
:1047500000BF3148006800F4003000900198401C10
:104760000190009818B90198B0F5A04FF1D12A48EE
:10477000006800F4003010B10120009001E000203A
:1047800000900098012846D123484030006840F04E
:1047900080502149403108602048006840F4404082
:1047A0001E4908601C48083000681B490831086031
:1047B0000846006840F4004008600846006840F47D
:1047C000A05008601648091F0860081F006840F0E4
:1047D0008070091F086000BF0F48006800F000707B
:1047E0000028F9D040F205600E4908600A480830F8
:1047F000006820F003000849083108600846006896
:1048000040F00200086000BF03480830006800F074
:104810000C000828F8D10CBD0038024000700040A0
:104820000C544007003C02402DE9F04186B0804620
:104830000C4615461E460C9F4FF400700190002058
:104840008DF80C008DF80D0008208DF80E00200A60
:104850008DF80F008DF81040290A8DF811108DF891
:104860001250310A8DF813108DF81460390A8DF842
:1048700015108DF8167001A94046FCF76CFD06B0C6
:10488000BDE8F081F0B585B007460C4615461E46DA
:1048900040F2FF10009000208DF808008DF809000C
:1048A00008208DF80A00200A8DF80B00E1B28DF87F
:1048B0000C10290A8DF80D10E9B28DF80E10310A8E
:1048C0008DF80F10F1B28DF8101000218DF8111035
:1048D0008DF8121069463846FCF73DFD05B0F0BD75
:1048E00070B586B006460C46154640F2FF100190A2
:1048F00000208DF80C008DF80D0008208DF80E00BA
:10490000200A8DF80F008DF81040290A8DF811103B
:104910008DF8125000218DF813108DF814108DF8B9
:1049200015108DF8161001A93046FCF714FD06B0DD
:1049300070BD000010B51548006840F470001349C0
:1049400008601348006840F0010011490860002029
:104950000F49083108600E4800680E4908400C49AC
:1049600008600D48091D0860081F006820F48020B9
:10497000091F0860002006490C310860FFF7DEFEC1
:104980004FF0006001498039086010BD88ED00E0FB
:1049900000380240FFFFF6FE103000240EB5012162
:1049A0000846FFF71FFB4FF0FF300190A720ADF83E
:1049B00000000020ADF80200ADF8080001218807D2
:1049C00000F0EEF869464FF0804000F0C1F9012197
:1049D000880700F0F7F80EBD10B50121880700F038
:1049E000FDF838B10121880700F0E9F801218807B6
:1049F00000F0E2F810BD000010B50121404800F0C1
:104A0000EDF800287AD001F0DDFD3E480078E8B3EB
:104A10003D4890ED000ADFED3D0AB4EEE00AF1EE0C
:104A200010FA03DD9FED390A80ED000A364890ED5B
:104A3000000ADFED370AB4EEE00AF1EE10FA03D215
:104A40009FED330A80ED000A324890ED000ADFED59
:104A5000320AB4EEE00AF1EE10FA03DD9FED2E0A01
:104A600080ED000A2B4890ED000ADFED280AB4EE35
:104A7000E00AF1EE10FA03D29FED240A80ED000A5D
:104A8000264890ED060AF0EE401A00E011E090EDA5
:104A9000050AB0EE401A2248D0ED002A214890EDD8
:104AA000002A1948D0ED000A1A4890ED000AFDF7D7
:104AB00033F914480078B0B9184890ED060AF0EEC2
:104AC000401A90ED050AB0EE401A1548D0ED002AC4
:104AD000144890ED002A1448D0ED000A134890EDD8
:104AE000000AFDF719F9022001F0A4FB0121044896
:104AF00000F065F80121024800F05EF810BD0000EA
:104B000000080040440000203C00002000005C43FE
:104B1000000002434000002000008243AC08002057
:104B20007400002070000020DC010020D80100206B
:104B30001FB501211020FFF755FA36208DF800002F
:104B400001208DF8010000208DF8020001208DF871
:104B500003006846FFF71AF840F2E730029053204E
:104B6000ADF804000020ADF80600ADF80C0001A976
:104B7000014800F0EDF81FBD0010004010B5012104
:104B8000064800F02BF838B10121044800F017F86E
:104B90000121024800F010F810BD00000010004094
:104BA00021B1028842F08002028004E002884FF6C0
:104BB0007F731A4002807047CA4302827047CA431B
:104BC0000282704721B1028842F00102028004E0B3
:104BD00002884FF6FE731A400280704730B50246D5
:104BE000002000230024158A05EA0103958905EABF
:104BF000010413B10CB1012000E0002030BD000021
:104C000070B5002400220023058C4FF6FE76354057
:104C10000584028C8388048B4FF68F752C40B51E5B
:104C20002C400D882C43751E2A408D892A434D88BF
:104C30002A43104DA84202D00F4DA84213D14FF67F
:104C4000F7752A40CD892A434FF6FB752A408D8897
:104C50002A434FF6FF652B404FF6FF552B400D8A38
:104C60002B434D8A2B43838004838D6845630284E4
:104C700070BD000000000140000401400A46002110
:104C8000018B4FF6F7731940114301837047000001
:104C900070B5002400220023058C4FF6EF763540D6
:104CA0000584028C8388048B48F6FF752C404FF6F0
:104CB000FF452C400D884FF6FF7606EA05252C436C
:104CC0004FF6DF752A408D8906EA05152A434D887F
:104CD00006EA05152A43154DA84202D0144DA842F4
:104CE0001DD14FF67F752A40CD894FF6FF7606EA33
:104CF00005152A434FF6BF752A408D8806EA05152B
:104D00002A434FF6FF352B404FF2FF752B400D8A9B
:104D100006EA85052B434D8A06EA85052B438380E9
:104D200004838D688563028470BD0000000001402B
:104D3000000401400A460021018B4FF2FF73194025
:104D40004FF6FF7303EA0223194301837047000003
:104D500000220288184B98420ED0184B98420BD074
:104D6000B0F1804F08D0164B984205D0154B9842B1
:104D700002D0154B984204D14FF68F731A404B88DE
:104D80001A43124B984207D0114B984204D04FF669
:104D9000FF431A400B891A4302804B68C3620B8899
:104DA0000385054B984202D0044B984201D18B7A7F
:104DB0000386012383827047000001400004014004
:104DC0000004004000080040000C004000100040BB
:104DD0000014004000B597B001210220FFF7F2F85F
:104DE00001218805FFF7EEF801211020FFF71AF9DD
:104DF000072211464248FCF7FBFD15A8FCF71FFEF1
:104E00008020159002208DF8580000208DF8590060
:104E100001208DF85B0015A93948FCF7A1FD394840
:104E200000F0E0FA11A800F0F6FB374811900020DE
:104E3000ADF84800ADF84A004FF48060ADF84C0082
:104E40000420ADF84E000020ADF8500011A92D4807
:104E500000F072FB012240212A4800F0BAFA2B48E8
:104E6000FCF720FB01A8FCF71BFC4FF00060019051
:104E70002448001D029026480390002004901E2024
:104E80000590002006904FF4806007900020089065
:104E900009904FF480700A9000020B9000200C9053
:104EA0000D900E900F9001A91848FCF7CDFB002241
:104EB00017491E311548FCF7ACFB01211348FCF7DC
:104EC0009DFB01211148FCF7E2FA25208DF84000F6
:104ED00000208DF841008DF8420001208DF843003C
:104EE00010A8FEF753FE012240F22441054800F0CD
:104EF000FDFA0121034800F060FA17B000BD000080
:104F00000004024000100140A086010040640240FD
:104F1000F006002010B540F224412E4800F0BCFA03
:104F2000002855D02B4800882A4880882A48FCF75A
:104F300080FB30BB00212848FCF7A9FA2648FCF783
:104F400074FBC0F11E00254908601E202249091D7E
:104F50000860081F006840F40020091F0860012154
:104F60001D48FCF794FA1D480068122830D11C48EF
:104F7000FFF70AFA0020FCF771FD0446FEF7F4F88B
:104F800026E000211448FCF782FA1348FCF74DFB99
:104F9000C0F11E00114908601E200F49091D08605C
:104FA000081F006820F40020091F086001210A483A
:104FB000FCF76DFA09480068122809D108481E302C
:104FC000FFF7E2F90020FCF749FD0446FEF7CCF8B4
:104FD00010BD000000100140406402404800002065
:104FE000F006002000B597B001210820FEF7EAFF87
:104FF00001214804FEF7F6FF01214805FEF7E2FF14
:10500000072205213F48FCF7F3FC072206213D4813
:10501000FCF7EEFC6020159002208DF858008DF80A
:10502000590000208DF85A008DF85B0015A935480D
:10503000FCF796FC4FF4E13011900020ADF84800E9
:10504000ADF84A00ADF84C00ADF850000C20ADF8BA
:105050004E0011A92C4800F06FFA26208DF8400070
:1050600002208DF841008DF8420001208DF84300A8
:1050700010A8FEF78BFD01224021234800F0A9F97A
:105080002248FCF70FFA01A8FCF70AFB4FF000607A
:1050900001901D48001D02901D48039000200490BF
:1050A00012200590002006904FF4806007900020A9
:1050B000089009904FF480700A9000020B90002035
:1050C0000C900D900E900F9001A91048FCF7BCFABF
:1050D00000220F4912310D48FCF79BFA01210B48C1
:1050E000FCF78CFA01210948FCF7D1F901210648A7
:1050F00000F063F9012240F22441034800F0F6F980
:1051000017B000BD000C024000440040886002401F
:105110003C07002010B52E480068401C2C49086050
:1051200040F224412B4800F0B7F900284FD029481D
:1051300000882848001D00882748FCF77AFA0028D4
:1051400045D100212448FCF7A2F92348FCF76DFA69
:10515000C0F112002149086012201F49091D086092
:105160001D488838D0F8880040F40020091F0860E6
:1051700001211948FCF78BF918480068092803D168
:105180001748FDF7F5FF22E000211348FCF77FF9EF
:105190001148FCF74AFAC0F11200104908601220C9
:1051A0000D49091D08600C488838D0F8880020F4A3
:1051B0000020091F086001210748FCF768F907482B
:1051C0000068092803D106481230FDF7D1FF10BD51
:1051D000C80000200044004088600240D400002045
:1051E0003C07002000B587B001210820FEF7EAFE49
:1051F00001218804FEF7F6FE072208212248FCF769
:10520000F7FB072209212048FCF7F2FB4FF440701E
:10521000059002208DF818008DF8190000208DF8F7
:105220001A008DF81B0005A91748FCF799FB4FF4ED
:10523000E13001900020ADF80800ADF80A00ADF8AB
:105240000C00ADF810000C20ADF80E0001A90F48BD
:1052500000F072F901210D4800F0AFF8012240F290
:1052600025510A4800F042F927208DF8000003205C
:105270008DF801008DF8020001208DF803006846CA
:10528000FEF784FC07B000BD000C0240004800405F
:1052900010B53E48008800F0080020B14FF4587166
:1052A0003A4800F081F840F22551384800F0F4F80F
:1052B00000286AD036480068401C354908603348E9
:1052C00000F0A4F9C4B23348007848B9B52C01D035
:1052D000002002E02F480078401C2E49087054E05E
:1052E0002C480078012808D10CB1002002E02948A0
:1052F0000078401C2749087047E0264800780228BB
:1053000015D1012C08D101202349087021480078CB
:10531000401C2049087038E0022C36D101201F497A
:1053200008701C480078401C1A4908702DE0194884
:105330000078022829DD1848007888B115480078DF
:10534000C01E17490C5413480078401C11490870BE
:1053500008460078062803DD002008700E49087012
:105360000E48007888B10B480078C01E0D490C54D7
:1053700008480078401C074908700846007804284F
:1053800003DD002008700549087010BD004800408A
:10539000540000205800002052000020530000203C
:1053A0004C0000205000002001F40072B2F5007F94
:1053B00000D100BFCA430280704721B1828942F404
:1053C0000052828104E082894DF6FF731A40828187
:1053D00070471AB1838A0B43838202E0838A8B432E
:1053E0008382704710B504462548844208D10121C4
:1053F0001020FEF727FE00211020FEF723FE3EE0DE
:105400002048844209D101214804FEF7FBFD002118
:105410004FF40030FEF7F6FD31E01B48844209D11D
:1054200001218804FEF7EEFD00214FF48020FEF7F5
:10543000E9FD24E01548844209D10121C804FEF7A2
:10544000E1FD00214FF40020FEF7DCFD17E01048DD
:10545000844209D101210805FEF7D4FD00214FF453
:105460008010FEF7CFFD0AE00A48844207D10121EF
:105470002020FEF7E7FD00212020FEF7E3FD10BD10
:10548000001001400044004000480040004C004033
:10549000005000400014014070B502460024002373
:1054A0000025002040F66A16B14200D100BFC1F3CA
:1054B000421501F01F03012606FA03F3012D02D164
:1054C0009689334006E0022D02D1168A334001E06E
:1054D000968A33400C12012606FA04F416883440EA
:1054E00013B10CB1012000E0002070BDF0B50346FF
:1054F000002400260025002040F66A17B94200D19A
:1055000000BF1846C1F3421401F01F06012707FA35
:1055100006F5012C01D10C3004E0022C01D1103031
:1055200000E014301AB107682F43076002E00768F3
:10553000AF430760F0BD00002DE9FF4705460E466A
:105540000024A14600BFA046B08900B100BF2C8A4C
:1055500024F44054F08804432C82AC8941F20C605E
:105560008443B08831890843718908430443AC817E
:10557000AC8A24F44074B0890443AC826846FEF7D8
:1055800071FD2048854202D01F48854202D1DDF8D6
:105590000C9001E0DDF80890A88900F4004040B1CB
:1055A00009EBC90000EB091031684900B0FBF1F7C5
:1055B00007E009EBC90000EB091031688900B0FB76
:1055C000F1F76420B7FBF0F004012009642101FB2E
:1055D0001078A88900F4004040B1322000EBC800E8
:1055E000B0FBF1F000F00700044308E0322000EBCC
:1055F00008106421B0FBF1F000F00F0004432C818F
:10560000BDE8FF8700100140001401400146888872
:10561000C0F3080070474FF41651016000218180EB
:10562000C18001810C21418100218181704700BF2F
:10563000FEE7000071EE401A4B4991ED002A71EE31
:10564000821AC1ED001AD1ED001A9FED482AF4EE3E
:10565000C21AF1EE10FA04DDDFED441AC1ED001AB2
:105660000DE04149D1ED001A9FED412AF4EEC21A36
:10567000F1EE10FA03D2DFED3E1AC1ED001A3D49FA
:10568000D1ED001A71EE611A3B49C1ED001A71EEBD
:10569000401A3A4991ED002A61EE821A384991ED9B
:1056A000002A3149D1ED002A42EE221A354991ED06
:1056B000002A3149D1ED002A42EE221A3249C1EDC9
:1056C000001A2C4981ED001A2F49D1ED001AB0EED5
:1056D0000C2A40EE821A2D4991ED002A61EE821AC1
:1056E0002B49C1ED001A2B49D1ED001A70EEE11AD9
:1056F000294991ED002A61EE821A2849C1ED001A6C
:105700002349D1ED001A254991ED002A71EE821A44
:105710002349C1ED001A1F49C1ED000A2049D1ED0E
:10572000001A9FED202AF4EEC21AF1EE10FA03DB04
:10573000DFED1C1AC1ED001A1949D1ED001A9FEDD9
:105740001A2AF4EEC21AF1EE10FA03D8DFED161A97
:10575000C1ED001A1249D1ED001AFDEEE11A11EE69
:10576000901A08B2704700009806002000007A44A2
:1057700000007AC49C060020A0060020A806002095
:10578000AC060020B0060020A4060020C0060020C1
:10579000B8060020C8060020C4060020BC06002071
:1057A000CC06002000C0DA4600C0DAC603B4019877
:1057B0004100009850EAC12018BF04204A0D18BFCC
:1057C00040F0010040F2FF72B2EB515F08BF40F0C1
:1057D0000200012808BF052002B070470000000049
:1057E00070B5C1482DED020B2DED0E8B82B0119DD1
:1057F00025F000449FEDBEDB9FEDBFEB84423EDB16
:10580000A4F140511098A1F17F6108430FD0BC482A
:10581000844202DC28D1109830B39DED100B02B009
:10582000BDEC0E8B02B0BDE8704000F0B0BC9DED49
:10583000100B53EC1D2B51EC100BFAF77AFD9DED7C
:10584000100B41EC180B53EC1E2B51EC100BFAF71C
:1058500070FD53EC182BFAF7C5FC41EC100B02B0AD
:10586000BDEC0E8B02B070BD012000F0D5FC02B083
:10587000BDEC0E8B02B0BDE8704000F09DBCA148AD
:105880009FEDA18B844256DA9DED100BB4F1795F48
:105890000ADA51EC100BFFF789FF042808BF00F06B
:1058A0009BFC9DED100BDAE753EC102B51EC100B29
:1058B000FAF73FFD41EC190B95480621B0EE490A75
:1058C000F0EE690A784400F0E6FB53EC192B51EC3A
:1058D000100BFAF72EFD41EC1A0B8E48B0EE490A78
:1058E000F0EE690A0421784400F0D5FB53EC192B43
:1058F00051EC100BFAF71DFD53EC182BFAF772FC64
:1059000041EC100B51EC1A0B53EC102BFAF783FD02
:10591000CDE900019DED000B53EC102B9DED100B1C
:1059200051EC100BFAF705FD9DED101B53EC112BFC
:10593000FAF758FCD2E09DED100B51EC100B00F083
:1059400087FC53EC182BFAF7F1FC9FED730BCDE9B4
:10595000000153EC102B9DED000B51EC100BFAF7EE
:10596000E8FC41EC190B6E480621B0EE490AF0EE56
:10597000690A784400F08FFB53EC192B51EC100BA3
:10598000FAF7D7FC41EC1B0B6648B0EE490AF0EE83
:10599000690A0421784400F07EFB53EC192B51EC8A
:1059A000100BFAF7C6FC53EC182BFAF71BFC41EC72
:1059B0001C0B51EC190B01F0D3F841EC180B5A48B1
:1059C0009FED5BABA04222DC53EC1C2B51EC1B0B7C
:1059D000FAF721FDCDE900019DED000B51EC180B0C
:1059E00053EC102BFAF7A5FC53EC182BFAF7FAFB43
:1059F00053EC1A2BFAF79DFC53EC1D2BFAF793FC92
:105A000053EC1E2BFAF792FC41EC100B5FE08DED8E
:105A1000008B002000909DED000B51EC180B53EC17
:105A2000102BFAF7DFFB9DED000B41EC1E0B53EC46
:105A3000102B51EC100BFAF77CFC53EC192BFAF7F6
:105A400075FC53EC1E2BFAF7E6FC41EC190B53ECFA
:105A50001C2B51EC1B0BFAF7DEFC41EC1B0B53EC3F
:105A60001A2B51EC190BFAF764FC53EC1D2BFAF7C7
:105A70005DFC41EC190B53EC1A2B51EC180BFAF7A7
:105A800058FC53EC1B2BFAF754FC53EC192BFAF788
:105A90004AFC9DED000B41EC180B53EC1A2B51EC1A
:105AA000100BFAF746FC9FED249B53EC192BFAF7E9
:105AB0003DFC41EC100B51EC180B53EC102BFAF79A
:105AC00032FC53EC192BFAF731FC41EC100B002D92
:105AD0003FF7C5AE51EC100B81F0004141EC100BCB
