:020000040800F2
:10000000E81600209D01000845270008DD1A0008B9
:10001000B92400086D0300088D3D000800000000B1
:10002000000000000000000000000000E5310008B2
:100030000515000800000000412B0008B50100086C
:10004000B7010008B7010008B7010008B7010008B0
:10005000B7010008B701000809150008B70100083A
:10006000B701000845150008B7010008B7010008EE
:10007000B7010008B7010008B7010008B701000880
:10008000B7010008B7010008B7010008B701000870
:1000900065040008B7010008B701000861150008F1
:1000A000B7010008B7010008B7010008B701000850
:1000B00061340008B7010008B7010008B701000863
:1000C000B7010008B7010008B7010008B701000830
:1000D000B7010008D1380008A1390008753A0008B6
:1000E00025150008B7010008B7010008B70100088E
:1000F000B7010008B7010008B7010008B701000800
:10010000B7010008B7010008B7010008B7010008EF
:10011000B7010008B701000825350008B70100083D
:10012000B7010008B7010008B7010008B7010008CF
:10013000B7010008B7010008B7010008B7010008BF
:10014000B9080008B7010008B7010008B7010008A6
:10015000B7010008B7010008B7010008B70100089F
:10016000B7010008B7010008B7010008B70100088F
:10017000B7010008B7010008B7010008B70100087F
:10018000B7010008B7010008DFF80CD000F040F814
:10019000004800479D410008E816002006488047B7
:1001A00006480047FEE7FEE7FEE7FEE7FEE7FEE75C
:1001B000FEE7FEE7FEE7FEE7F933000889010008E5
:1001C00040EA01039B0703D009E008C9121F08C0D9
:1001D000042AFAD203E011F8013B00F8013B521E59
:1001E000F9D2704730B50B46014600202022012489
:1001F00009E021FA02F59D4205D303FA02F5491BF5
:1002000004FA02F52844151EA2F10102F1DC30BD0A
:10021000064C074D06E0E06840F0010394E8070053
:1002200098471034AC42F6D3FFF7B2FF2C460008D3
:100230004C46000870B58C1810F8015B15F00703E8
:1002400001D110F8013B2A1106D110F8012B03E06F
:1002500010F8016B01F8016B5B1EF9D12B0705D477
:100260000023521E0DD401F8013BFAE710F8013BC0
:10027000CB1A921C03E013F8015B01F8015B521EDC
:10028000F9D5A142D8D3002070BD2DE9F04186B048
:1002900080460C4615461E460C9F40F2FF1001900A
:1002A00000208DF80C008DF80D0008208DF80E0050
:1002B000200A8DF80F008DF81040290A8DF81110D2
:1002C0008DF81250310A8DF813108DF81460390A28
:1002D0008DF815108DF8167001A9404600F041FE0A
:1002E00006B0BDE8F081000010B54FF4A06002F048
:1002F00067FA04211C4801F007FB04211A4801F0A9
:1003000003FB0421184801F0FFFA0421164801F00C
:10031000FBFA02F081FB01F099FE0421124801F082
:10032000F3FA0821104801F0EFFA10210E4801F00D
:10033000EBFA20210C4801F0E7FA02F0A9FE01F0E7
:10034000F5FF03F0C9F800F013F800F03BFA03F0F2
:100350001FFA03F039FB642003F0D8FE01F0CCF95A
:1003600001F0D2F910BD0000001C024000BFFEE702
:1003700000B58BB00121082002F0E4FB0121480602
:1003800002F0F0FB0320099002208DF828000020E5
:100390008DF82A0003208DF8290001208DF82B000C
:1003A00009A92E4801F043FA092201212B4801F046
:1003B00086FA09220021294801F081FA00208DF8EF
:1003C0001E008DF81F008DF8200001208DF82100FF
:1003D00000208DF822008DF823008DF81A008DF88A
:1003E0001B0005208DF81C0006208DF81D00032041
:1003F000ADF8180006A91A4800F0B1FC00208DF8ED
:1004000012008DF8130001208DF814000020ADF8C3
:100410000800ADF80A00ADF80C00ADF80E00ADF81C
:10042000100001208DF8150002A800F07BFB0122CE
:1004300002210B4800F08AFC14208DF804000120F2
:100440008DF8050000208DF8060001208DF80700CA
:1004500001A802F079F90BB000BD0000000C0240C9
:100460000064004000B585B0BD480068401CBC4930
:1004700008600221BB4800F0D9FB00287ED0022191
:10048000B84800F0FBFA6A460021B64800F0F1FCDB
:10049000B549009808609DF80B00B44908709DF8B4
:1004A0000C00B34908709DF80D00B24908709DF822
:1004B0000E00B14908709DF80F00B04908709DF812
:1004C0001000AF4908709DF81100AE4908709DF802
:1004D0001200AD490870A6480078A449097840EA9E
:1004E0000120AA490860A4480078A249097840EA96
:1004F0000120A7490880A2480078A049097840EA6D
:100500000120A4490880A248008800F40040A249C4
:10051000086008460068C01308609D480088C0F362
:100520000C009E4908809A4800884FF6FF71081A0F
:100530009B4908808C48006840F2012188421BD109
:100540009648008800EE100AB8EE400A954880ED03
:10055000000A9148006801280ED19148008800EEF9
:10056000100AB8EE400A8F4880ED000A90ED000AAC
:10057000B1EE400A80ED000A7B4800E0EAE0006846
:1005800040F2022188421BD18448008800EE100A04
:10059000B8EE400A844880ED000A7F4800680128D0
:1005A0000ED17F48008800EE100AB8EE400A7E485F
:1005B00080ED000A90ED000AB1EE400A80ED000ADD
:1005C0006948006840F2032188421BD173480088C3
:1005D00000EE100AB8EE400A744880ED000A6E483A
:1005E000006801280ED16E48008800EE100AB8EEAF
:1005F000400A6E4880ED000A90ED000AB1EE400A14
:1006000080ED000A58480068B0F5017F1BD16348AF
:10061000008800EE100AB8EE400A654880ED000A36
:100620005D48006801280ED15D48008800EE100A80
:10063000B8EE400A5E4880ED000A90ED000AB1EE87
:10064000400A80ED000A4848006840F205218842CF
:100650001BD15248008800EE100AB8EE400A5548F7
:1006600080ED000A4C48006801280ED14C480088F3
:1006700000EE100AB8EE400A4E4880ED000A90EDF8
:10068000000AB1EE400A80ED000A3748006840F2E7
:10069000062188421BD14148008800EE100AB8EEBE
:1006A000400A454880ED000A3B48006801280ED109
:1006B0003B48008800EE100AB8EE400A3E4880ED44
:1006C000000A90ED000AB1EE400A80ED000A2648CB
:1006D000006840F2072188421BD13048008800EEB4
:1006E000100AB8EE400A354880ED000A2A48006832
:1006F00001280ED12A48008800EE100AB8EE400A00
:100700002E4880ED000A90ED000AB1EE400A80ED1F
:10071000000A15480068B0F5027F1BD11F48008809
:1007200000EE100AB8EE400A254880ED000A1A488B
:10073000006801280ED11A48008800EE100AB8EEB1
:10074000400A1F4880ED000A90ED000AB1EE400A11
:1007500080ED000A012003F0D9FC05B000BD0000C7
:1007600004000020006400401C0000201400002051
:10077000150000201600002017000020180000209F
:10078000190000201A0000201B0000202400002077
:100790000C00002012000020200000200A00002091
:1007A00008000020280000202C000020300000203D
:1007B00034000020380000203C00002040000020D1
:1007C0004400002000B58BB00121022002F0BAF9EC
:1007D0000121880602F0C6F94FF44050099002202A
:1007E0008DF8280000208DF82A0003208DF82900BC
:1007F00001208DF82B0009A92D4801F018F80922D5
:100800000D212B4801F05BF809220C21284801F04A
:1008100056F800208DF81E008DF81F008DF820007E
:1008200001208DF8210000208DF822008DF8230092
:100830008DF81A008DF81B0005208DF81C0006208D
:100840008DF81D000320ADF8180006A9194800F026
:1008500086FA0E208DF8120000208DF8130001207A
:100860008DF814000020ADF80800ADF80A00ADF8CE
:100870000C00ADF80E00ADF8100001208DF8150049
:1008800002A800F04FF9012202210A4800F05EFAA6
:1008900040208DF8040002208DF8050001208DF81D
:1008A00006008DF8070001A801F04EFF0BB000BD57
:1008B000000402400068004000B585B002215B489A
:1008C00000F0B4F900287DD00221584800F0D6F895
:1008D0006A460021554800F0CCFA55490098086056
:1008E0009DF80B00534908709DF80C0052490870A0
:1008F0009DF80D00514908709DF80E005049087090
:100900009DF80F004F4908709DF810004E4908707F
:100910009DF811004D4908709DF812004C4908706F
:10092000454800784349097840EA01204949086070
:10093000434800784149097840EA01204649088047
:100940000846008800F400404449086008460068F2
:10095000C013086040480088C0F30C00404908807C
:100960003D4800884FF6FF71081A3E49088030481C
:10097000006840F2012188421BD13948008800EE0E
:10098000100AB8EE400A384880ED000A3348006883
:1009900001280ED13348008800EE100AB8EE400A54
:1009A000314880ED000A90ED000AB1EE400A80ED7A
:1009B000000A1F48006840F20221884234D12B48C7
:1009C000006800E030E0401C2849086028480068C2
:1009D000401C2749086008460068322804DC694644
:1009E000244800F09CFF03E06946224800F030FEF6
:1009F0001B48008800EE100AB8EE400A1E4880ED41
:100A0000000A1648006801280ED11648008800EE3A
:100A1000100AB8EE400A184880ED000A90ED000A6E
:100A2000B1EE400A80ED000A05B000BD006800404C
:100A30006400002014000020150000201600002093
:100A40001700002018000020190000201A000020C4
:100A50001B000020240000200C00002020000020AB
:100A60000A000020080000206C0000205000002038
:100A700068000020E808002070000020B1F5007F29
:100A80003AD00FDC202928D006DC01291CD004290B
:100A90001DD0082940D11DE0402921D0B1F5807F2B
:100AA0003AD126E0B1F5004F31D006DCB1F5806FC8
:100AB00025D0B1F5006F2FD124E0B1F5803F12D0E1
:100AC000B1F5003F28D111E0154A826025E00822E7
:100AD000C26022E01022C2601FE0082202611CE016
:100AE0001022026119E00822426016E010224260E2
:100AF00013E00422426010E0042242600DE0042270
:100B000042600AE0002282610422426005E0002285
:100B100082610422426000E000BF00BF7047000015
:100B20000101010010B50021837A012202FA03F1CC
:100B30003D4A126842F001023B4B1A603A4A1C32AD
:100B400012688A43384B1C331A60027BCAB9364A92
:100B50000C3212688A43344B0C331A604288C388C3
:100B600042EA0343304A4032847A42F83430028801
:100B7000838842EA03432C4A4032847A02EBC4025F
:100B80005360027B012A19D1274A0C3212680A43AA
:100B9000254B0C331A604288038842EA0343224AF9
:100BA0004032847A42F83430C288838842EA034370
:100BB0001D4A4032847A02EBC4025360C27A3AB9C9
:100BC000194A121D12688A43174B1B1D1A6006E052
:100BD000154A121D12680A43134B1B1D1A60028925
:100BE00032B9114A143212688A430F4B14331A6017
:100BF0000289012A06D10C4A143212680A430A4BB0
:100C000014331A60427B012A06D1074A1C3212684B
:100C10000A43054B1C331A60034A126822F0010292
:100C2000014B1A6010BD00000066004070B504461C
:100C30000D46002660692840002871D0B5F5807FF8
:100C40005CD010DC082D35D006DC012D20D0022D23
:100C500024D0042D72D127E0102D31D0202D35D095
:100C6000402D6BD138E0B5F5004F60D009DCB5F50B
:100C7000007F49D0B5F5806F4CD0B5F5006F5DD1E0
:100C80004FE0B5F5803F2DD0B5F5003F56D12FE0B0
:100C9000A0682D4900F0F8F9064651E0E06803210C
:100CA00000F0F2F906464BE0E068082100F0ECF9AC
:100CB000064645E0E068102100F0E6F906463FE010
:100CC0002069032100F0E0F9064639E02069082197
:100CD00000F0DAF9064633E02069102100F0D4F97B
:100CE00006462DE06068082100F0CEF9064627E0B0
:100CF0006068102100F0C8F9064621E0A0690121D2
:100D000000F0C2F906461BE0A069022100F0BCF920
:100D1000064615E0A069042100F0B6F906460FE08A
:100D20000FE0A069702100F0AFF9064608E06068A6
:100D3000042100F0A9F9064602E0FFE7002600BF03
:100D400000E00026304670BD010101001AB1436980
:100D50000B43436102E043698B434361704730B505
:100D6000024600200023146824F002041460146872
:100D700044F00104146000E05B1C546804F00104BA
:100D80001CB94FF6FF74A342F6D1546804F0010475
:100D90000CB900206CE08C79012C04D1146844F06B
:100DA0008004146003E0146824F080041460CC799B
:100DB000012C04D1146844F04004146003E014686A
:100DC00024F0400414600C7A012C04D1146844F01F
:100DD0002004146003E0146824F0200414604C7AAA
:100DE000012C04D1146844F01004146003E014686A
:100DF00024F0100414608C7A012C04D1146844F09F
:100E00000804146003E0146824F008041460CC7A29
:100E1000012C04D1146844F00404146003E0146845
:100E200024F0040414608C78A407CD7844EA0564A7
:100E30000D7944EA05444D7944EA05540D886D1E48
:100E40002C43D461146824F001041460002300E0F2
:100E50005B1C546804F001041CB14FF6FF74A342FC
:100E6000F6D1546804F001040CB1002000E0012028
:100E700030BD10B500F5D87303EB01131B6803F008
:100E800004031372137A53B900F5D87303EB0113FB
:100E90001B6840F2FF7404EA5353136009E000F545
:100EA000D87303EB01131B686FF0604404EAD303AB
:100EB000536000F5D87303EB01131B6803F00203C2
:100EC000537200F5D87303EB01135B6803F00F0353
:100ED000937200F5D87303EB01135B681B0AD3749C
:100EE00000F5D87303EB01139B68D37200F5D87338
:100EF00003EB01139B681C0A147300F5D87303EB12
:100F000001139B681C0C547300F5D87303EB011399
:100F10009B681B0E937300F5D87303EB0113DB681A
:100F2000D37300F5D87303EB0113DB681C0A147448
:100F300000F5D87303EB0113DB681C0C547400F547
:100F4000D87303EB0113DB681B0E937421B9C368DC
:100F500043F02003C36003E0036943F0200303610F
:100F600010BD10B502460020936803F08063B3F112
:100F7000806F00D110E0936803F00063B3F1006F5D
:100F800001D1012008E0936803F08053B3F1805F42
:100F900001D1022000E00420042874D002F5C073BF
:100FA00003EB00131B6803F0010402F5C07303EBAD
:100FB00000131C600B7A7BB94B7A0C8843EA4453CC
:100FC00002F5C07404EB00142468234302F5C074D6
:100FD00004EB0014236010E00B7A4C6843EAC4036E
:100FE0004C7A234302F5C07404EB001424682343B5
:100FF00002F5C07404EB001423608B7A03F00F0336
:101000008B7202F5C07303EB00135B6823F00F04CF
:1010100002F5C07303EB00135C6002F5C07303EBD1
:1010200000135B688C7A234302F5C07404EB001450
:1010300063608B7B1C064B7B44EA03440B7B44EAD6
:101040000323CC7A234302F5C07404EB0014A3609D
:101050008B7C1C064B7C44EA03440B7C44EA032350
:10106000CC7B234302F5C07404EB0014E36002F56B
:10107000C07303EB00131B6843F0010402F5C07357
:1010800003EB00131C6010BD0246002002EA0103BE
:101090000BB1012000E00020704721B1026842F04E
:1010A0000102026003E0026822F001020260704760
:1010B000016821F00101016000210160416081604F
:1010C000C1600161212141614A49884204D13D2129
:1010D000484A103A91608CE046491831884205D15F
:1010E0004FF47461434A103A916082E041493031D3
:1010F000884205D14FF474113E4A103A916078E06D
:101100003C494831884205D14FF07461394A103A60
:1011100091606EE037496031884204D13649354AE2
:10112000103AD16065E033497831884204D13349BF
:10113000304A103AD1605CE02E499031884204D1A7
:101140002F492C4A103AD16053E02A49A8318842ED
:1011500005D14FF03D51274A103AD16049E0294965
:10116000884204D13D21274A083A116041E02549CF
:101170001831884205D14FF47461224A083A11604F
:1011800037E020493031884205D14FF474111D4AAF
:10119000083A11602DE01B494831884205D14FF0D3
:1011A0007461184A083A116023E016496031884298
:1011B00004D11149134A121F11601AE01149783104
:1011C000884204D10D490F4A121F116011E00D49E8
:1011D0009031884204D10A490A4A121F116008E07E
:1011E0000849A831884204D14FF03D51054A121FE9
:1011F00011607047106002403D000020400F002049
:1012000000003D201064024021B1026842F48022B7
:10121000026003E0026822F480220260704722B17B
:10122000036843F40023036003E0036823F400230E
:101230000360016170470146486880B2704701460B
:1012400000200A6802F400220AB1012000E0002018
:101250007047000010B500220268134B1A40CC689A
:101260000B6823434C6923438C692343CC69234394
:101270000C6A23434C6A23438C6A23434C6B2343FD
:101280008C6B23431A430260426922F00702D1E9C2
:101290000B3423431A4342610B6943604B688360FC
:1012A0008B68C36010BD00003F801CF0002101600E
:1012B00041608160C160016141618161C161016220
:1012C00041628162C16201634163816370470000D2
:1012D0001CB50121202001F035FC0121102001F076
:1012E00031FC0121080201F02DFC0121042001F054
:1012F00029FC0121084601F025FC40F20340009042
:1013000001208DF804008DF8060003208DF80500FB
:1013100001208DF8070069463C4800F088FA41F248
:101320007000009001208DF804008DF80600032065
:101330008DF8050001208DF807006946344800F05B
:1013400076FA4FF40070009001208DF804008DF8BB
:10135000060003208DF8050001208DF8070069467E
:101360002C4800F064FA0C20009001208DF8040055
:101370008DF8060003208DF8050001208DF8070088
:101380006946254800F053FA3320009000208DF87C
:10139000040003208DF8050002208DF8070069463F
:1013A0001D4800F044FA0221184800F0ADFA01216E
:1013B000164800F0A9FA1021154800F0A5FA2021DE
:1013C000134800F0A1FA4021114800F09DFA4FF4B3
:1013D00080510F4800F098FA04210F4800F094FA69
:1013E00008210D4800F090FA10210B4800F08AFA0D
:1013F0002021094800F086FA0221074800F082FA0D
:101400000121054800F07EFA1CBD000000140240D6
:1014100000100240002002400008024034490978D0
:1014200059B9AA2846D13349334A127801EB4211FF
:10143000087001212E4A11703CE02D4909780129DC
:101440000FD1AF2809D12B492B4A127801EB421159
:1014500048700221264A11702CE00021244A1170A4
:1014600028E023490978022909D12249224A127821
:1014700001EB4211887003211D4A11701AE01C49CA
:101480000978032909D11B491B4A127801EB421143
:10149000C8700421164A11700CE01649164A1278D9
:1014A00001EB4211124A1278885411490978491CFB
:1014B0000F4A11700F49104A127801EB4211C97896
:1014C000491D0B4A1278914211D10021084A11702E
:1014D0000949097831B10021074A11700121074AF1
:1014E000117004E00121044A1170054A117070471F
:1014F00063080020A808002062080020650800207A
:10150000640800207047000010B5012000F042F888
:1015100028B1002002490860012000F035F810BD14
:101520007800002010B54FF4805000F033F830B14F
:101530000020034908604FF4805000F025F810BDEA
:101540007400002010B5082000F024F828B1012014
:1015500002490860082000F017F810BD7400002050
:1015600010B5202000F016F848B1012004490860A9
:101570008021044800F0C6F9202000F005F810BDD5
:101580007800002000100240014908607047000008
:10159000143C0140014600200022074B1B6803EA6F
:1015A0000102054B14331B680B4013B10AB1012033
:1015B00000E0002070470000003C0140002123496A
:1015C0008279002A3AD00A46126803689A430B4689
:1015D0001A600A1D126803689A430B1D1A6002798B
:1015E00011440A6803681A430A60184A08321268EC
:1015F00003689A43154B08331A601A1D1268036872
:101600009A43124B0C331A604279102A0ED11A1FDA
:10161000126803681A430D4B08331A601A1D1268CA
:1016200003681A43094B0C331A600DE007494279ED
:1016300011440A6803681A430A6005E002791144FC
:101640000A6803689A430A6070470000003C014042
:1016500000BF00BF026842600A7BCB7A42EA0322E5
:10166000026002684368D21AC260C2681F4B9A4285
:1016700007DA826B521C8263C26802F50052C261B3
:101680000EE0C26841F64C539A4207DD826B521E4F
:101690008263C268A2F50052C26101E0C268C26101
:1016A0000368826B03EB4232826002688369D21A5C
:1016B00000EE102AB8EEC00ADFED0D0A20EE200A77
:1016C0009FED0C1AC0EE010A826B4FF4B4735A43BB
:1016D00000EE102AB8EEC00A30EE800AF3EE0B0AD4
:1016E00080EE201A80ED101A70470000B4E2FFFF70
:1016F0000000B4430000004647F6FF70014908604F
:1017000070470000240400400EB50121880301F059
:1017100049FA0121084601F015FA0121080201F0F9
:1017200011FA0121802001F00DFA0021082001F0BA
:101730005BFD0120019000208DF808000C208DF841
:10174000090001208DF80A0001A8FFF737FF0620E5
:101750008DF8000002208DF8010001208DF80200B4
:101760008DF80300684600F0EFFF0321002001F030
:101770003BFD0820019000208DF808000C208DF81A
:10178000090001208DF80A0001A8FFF717FF0920C2
:101790008DF8000002208DF8010001208DF8020074
:1017A0008DF80300684600F0CFFF0521082001F006
:1017B0001BFD2020019000208DF808000C208DF8E2
:1017C000090001208DF80A0001A8FFF7F7FE172095
:1017D0008DF8000002208DF8010001208DF8020034
:1017E0008DF80300684600F0AFFF0C21072001F0E0
:1017F000FBFC4FF48050019000208DF808000C2075
:101800008DF8090001208DF80A0001A8FFF7D6FE27
:1018100028208DF8000002208DF8010001208DF8AD
:1018200002008DF80300684600F08EFF0EBDF0B593
:101830000A4600210023002400BF3DE0012505FAEF
:1018400001F3156805EA03049C4234D105684F0092
:101850000326BE40B543056015794E00B5400668C5
:10186000354305601579012D02D01579022D16D169
:1018700085684F000326BE40B543856055794E000C
:10188000B540866835438560456801268E40B5437E
:101890004560456896798E40B6B235434560C56867
:1018A0004F000326BE40B543C560D5794E00B54014
:1018B000C6683543C560491C1029BFD3F0BDF0B5DB
:1018C000002300244D07ED0E02FA05F3CE1000F1BF
:1018D000200555F826504E07F70E0F26BE40B5439B
:1018E000CF1000F1200646F82750CE1000F1200559
:1018F00055F8265045EA0304CE1000F1200545F8BE
:101900002640F0BD41837047018370474FF6FF7159
:1019100001600021017141718171C17170470A7BC1
:10192000CB7A42EA032282618269826082694260E4
:101930000269521C0261704701480078704700003C
:101940007A07002001460B2903D2034800EB8100EF
:1019500070470020FCE70000F007002010B5017080
:101960000378047D021D1355037DD35C447D125D15
:1019700043EA82024270027D521C02F00F0282751D
:101980004378847D021D125D43EA02128270037D5A
:10199000021DD35C447D125D934205D10D4A12684D
:1019A000521C0C4B1A6002E000220A4B1A60094AD2
:1019B0001268282A03D3037D021DD25CC270027D07
:1019C0004275027D521C0275027D102A01D100224F
:1019D000027510BDE807002001480078704700003C
:1019E000F5060020274890ED000AFBEE030AB4EE4E
:1019F000E00AF1EE10FA04D8BBEE030A80ED000A0B
:101A00000DE0204890ED000AF3EE030AB4EEE00A80
:101A1000F1EE10FA03DBB3EE030A80ED000A194879
:101A200090ED010A1848D0ED010A9FED181A70EEEA
:101A3000C10AB4EEE00AF1EE10FA09D890ED010AFD
:101A4000DFED120A30EE600A0E4880ED010A17E061
:101A50000C4890ED010A0C48D0ED010A9FED0B1ADD
:101A600070EE810AB4EEE00AF1EE10FA08DB90EDB8
:101A7000010ADFED060A30EE200A024880ED010A75
:101A8000704700001C0B002008020020000070427C
:101A900010B5044600EE104AB8EEC00A0C4880EDBE
:101AA000000A0C4890ED100A094880ED010A00F088
:101AB00011FF074890ED0E0ABDEEC00A10EE100AA5
:101AC00001B2054801F06EFC012002F01FFB10BDC1
:101AD000A0060020E80800200068004000BFFEE7E4
:101AE00010B530216A2000F083FC0A2002F00EFBC2
:101AF0000D21242000F07CFC0A2002F007FB0E21BF
:101B0000282000F075FC0A2002F000FB8E21312015
:101B100000F06EFC0A2002F0F9FA01210B2000F01F
:101B200075F8002000F055F8102801D0012010BDF4
:101B30000A2002F0EBFA00210A2000F067F80A20E0
:101B400000F047F808B10220F1E70A2002F0DEFABF
:101B500000210B2000F05AF80B2000F03AF808B1F1
:101B60000320E4E70A2002F0D1FA2421412000F00A
:101B70004DF8412000F02DF8242801D00420D6E7AC
:101B80000A2002F0C3FAC021422000F03FF84220B0
:101B900000F01FF8C02801D00520C8E70A2002F095
:101BA000B5FA00212A2000F023FC0A2002F0AEFA48
:101BB0000021342000F01CFC0A2002F0A7FA0622C3
:101BC00003210E2000F032FC642002F09FFA002076
:101BD000ADE770B504462146322000F009FC0A202A
:101BE00002F094FA8021342000F002FC0A2002F076
:101BF0008DFA352000F0D8FB05460021342000F096
:101C0000F7FB0A2002F082FA284670BD70B5044640
:101C10000D4600212A2000F0EBFB022002F076FAAC
:101C20002146292000F0E4FB022002F06FFA294649
:101C3000642000F0DDFB022002F068FA81212A20F6
:101C400000F0D6FB0A2002F061FA70BD2DE9FF5FBB
:101C500005460E4617469846DDE9129A119C4FF04C
:101C6000000B0020039002900190CA480078B8B1A0
:101C700004F04000402813D1C748007818B1022072
:101C8000C649087002E00120C4490870C2480078C3
:101C9000C0F10100C04908700020BE49087006E08C
:101CA00004F04000402802D00120BA490870BC4826
:101CB0000078B8B104F00400042813D1B9480078C2
:101CC00018B10220B849087002E00120B649087036
:101CD000B4480078C0F10100B24908700020B04952
:101CE000087006E004F00400042802D00120AC498A
:101CF0000870AE480078B8B104F00200022813D191
:101D0000AB48007818B10220AA49087002E001200F
:101D1000A8490870A6480078C0F10100A4490870DD
:101D20000020A249087006E004F00200022802D058
:101D300001209E490870A0480078B0B104F001006D
:101D400098B19E48007818B102209D49087002E0C1
:101D500001209B49087099480078C0F1010097491B
:101D6000087000209449087005E004F0010010B9E3
:101D700001209149087093480078B8B104F08000C0
:101D8000802813D19048007818B102208F4908703C
:101D900002E001208D4908708B480078C0F10100F5
:101DA0008949087000208749087006E004F0800027
:101DB000802802D001208349087085480078B8B196
:101DC00004F00800082813D18248007818B10120D7
:101DD0008149087002E002207F4908707D48007840
:101DE000C0F101007B49087000207949087006E0C5
:101DF00004F00800082802D00120754908707748CF
:101E00000078B8B104F01000102813D1744800789D
:101E100018B101207349087002E00220714908706E
:101E20006F480078C0F101006D49087000206B49CF
:101E3000087006E004F01000102802D00120674965
:101E4000087069480078B8B104F02000202813D148
:101E50006648007818B101206549087002E0022048
:101E60006349087061480078C0F101005F4908705B
:101E700000205D49087006E004F01000202802D020
:101E80000120594908705B48B0F9000000F5A570C1
:101E90005949B1F90010401A0BFB00815548B0F9BF
:101EA000000000F5A570544AB2F90020821A039888
:101EB00000FB121000B25149C8804E48B0F9000032
:101EC00000F5A5704C49B1F90010411A029800FBC9
:101ED00001714848B0F9000000F5A570464AB2F912
:101EE0000020821A019800FB121000B2434988803A
:101EF0000AEBCA00304400B2488009EBC90028440C
:101F000000B208800846B0F9060000900846B0F913
:101F10000430B0F90220B0F9001039A002F02CF81A
:101F20003F4890F900103FA002F026F840A0DDE9FC
:101F3000151202F021F8214640A002F01DF83848A1
:101F400090F900002D4988721D4890F90000C87270
:101F50003D4890F9000008731F4890F9000048734D
:101F60000E4890F9000088730F4890F90000C8737C
:101F7000164890F9000088740E4890F900004874E3
:101F8000184890F90000C874194890F900000875C5
:101F9000BDE8FF9F560700205C070020680700206F
:101FA000590700205F070020690700205A0700201A
:101FB000600700206B070020570700205D07002006
:101FC00065070020580700205E0700206A070020F0
:101FD0005B070020610700206707002054070020EE
:101FE000620700206C0700205507002063070020CF
:101FF0006D0700205007002052070020EC0A002047
:102000006368303A25642C6368313A25642C636830
:10201000323A25642C6368333A25640D0A000000C7
:1020200064070020636F6D3A25640D0A000000000C
:102030006C3A25642C723A25640D0A006B65793A76
:1020400025640D0A00000000660700201CB5012170
:10205000202000F077FD0121102000F073FD80208A
:10206000009001208DF8040000208DF80600032068
:102070008DF8050069462E48FFF7D9FB4FF48040E4
:10208000009001208DF8040000208DF80600032048
:102090008DF8050069462748FFF7C9FB80212448D1
:1020A000FFF732FC4FF480412248FFF72DFC01215D
:1020B000802000F047FD0420009001208DF80400EE
:1020C00000208DF8060003208DF8050069461A48A7
:1020D000FFF7ADFB0820009001208DF804000020E0
:1020E0008DF8060003208DF8050069461248FFF7B9
:1020F0009EFB1020009001208DF8040000208DF838
:10210000060003208DF8050069460B48FFF78FFB9A
:102110002020009001208DF8040000208DF806009A
:1021200003208DF8050069460348FFF780FB1CBDBE
:102130000010024000140240001C02400021016017
:1021400070470000F8B504460D4616461F4600EEDF
:10215000104AB8EEC00A6A4880ED000A694890ED5E
:10216000000A674880ED010A00EE105AB8EEC00A76
:10217000654880ED000A654890ED000A624880EDF0
:10218000010A00EE106AB8EEC00A614880ED000A4C
:10219000604890ED000A5E4880ED010A00EE107A7A
:1021A000B8EEC00A5C4880ED000A5C4890ED000A79
:1021B000594880ED010A524800F00CFB524800F0EB
:1021C00009FB534800F006FB534800F003FB4C4862
:1021D00090ED0E0ADFED520AB4EEE00AF1EE10FACD
:1021E00003DB9FED4F0A80ED0E0A454890ED0E0A85
:1021F000DFED4C0AB4EEE00AF1EE10FA03D89FEDE1
:10220000490A80ED0E0A404890ED0E0ADFED440ABF
:10221000B4EEE00AF1EE10FA03DB9FED410A80ED27
:102220000E0A394890ED0E0ADFED3E0AB4EEE00AE0
:10223000F1EE10FA03D89FED3B0A80ED0E0A344808
:1022400090ED0E0ADFED360AB4EEE00AF1EE10FA78
:1022500003DB9FED330A80ED0E0A2D4890ED0E0A48
:10226000DFED300AB4EEE00AF1EE10FA03D89FED8C
:102270002D0A80ED0E0A284890ED0E0ADFED280A9F
:10228000B4EEE00AF1EE10FA03DB9FED250A80EDD3
:102290000E0A214890ED0E0ADFED220AB4EEE00AA4
:1022A000F1EE10FA03D89FED1F0A80ED0E0A1A48CE
:1022B00090ED0E0ABDEEC00A10EE100A00B20090BA
:1022C000134890ED0E0ABDEEC00A10EE100A03B2DC
:1022D0000D4890ED0E0ABDEEC00A10EE100A02B2D3
:1022E000074890ED0E0ABDEEC00A10EE100A01B2CA
:1022F0000D4801F029F8052001F008FFF8BD0000A5
:102300000403002028000020580300202C00002097
:10231000AC03002030000020000400203400002026
:102320000000FA450000FAC50064004010B588B00E
:102330004020069001208DF81C0000208DF81E0022
:102340008DF81F0003208DF81D0006A91348FFF724
:102350006EFAFFF7C5FB0024182211496846FDF705
:102360002FFF642001F0D2FE752000F01DF80D490A
:10237000087000BF0CE06A4602EB440251781DF879
:10238000140000F035F8012001F0C0FE601CC4B25A
:102390000C2CF0DB002008B010BD0000001402403F
:1023A000144600088C00002010B5044640210D485A
:1023B000FFF7A8FA44F080000B490870084600783F
:1023C00000F0BCFE094908700748007800F0B6FE2E
:1023D0000649087040210348FFF796FA0348007841
:1023E00010BD0000001402408F0000208E0000206D
:1023F00070B505460C4640210A48FFF783FA05F000
:102400007F00094908700846007800F097FE0648EA
:102410000470007800F092FE40210248FFF774FA41
:10242000002070BD001402408D00002070B50446ED
:102430000E46154621462820FFF7DAFF022001F05C
:1024400065FE0A212920FFF7D3FF022001F05EFE7E
:1024500001216420FFF7CCFF022001F057FE44F079
:1024600080012520FFF7C4FF022001F04FFE314616
:102470002620FFF7BDFF022001F048FE0321342093
:10248000FFF7B6FF022001F041FE03216720FFF7AE
:10249000AFFF022001F03AFE81212A20FFF7A8FFBA
:1024A000062001F033FE45F080012720FFF7A0FF52
:1024B000072001F02BFE70BD00BFFEE770B504469B
:1024C0000D46FFF789FA002878D0287800F0100030
:1024D00040B14FF42570664908804FF44870654953
:1024E000088007E04FF4FA70614908804FF42F70BC
:1024F00060490880287800F0010090B15E480169C9
:1025000088475B48008800EE900AF8EE600A20EEEB
:10251000200ABDEEC00A10EE100A00B2574908802A
:102520001AE0287800F0020098B153480169884702
:102530004F480088404200EE900AF8EEE00A20EE94
:10254000200ABDEEC00A10EE100A00B24B49088006
:1025500002E0002049490880287800F0040098B182
:1025600047480169884743480088404200EE900A86
:10257000F8EEE00A20EE200ABDEEC00A10EE100AC6
:1025800000B23E49488019E0287800F0080090B178
:102590003B48016988473748008800EE900AF8EE0A
:1025A000600A20EE200ABDEEC00A10EE100A00B24A
:1025B0003249488002E0002030494880FFF70CFA99
:1025C00002283CD1B4F9000010F1960F03DC6FF043
:1025D0009500208005E0B4F90000962801DB9620E4
:1025E0002080B4F9020010F1960F03DC6FF0950023
:1025F000608005E0B4F90200962801DB9620608037
:10260000204890ED000AB4F9020000EE900AF8EEBE
:10261000E00A9FED1D1A00EEC10A1A4880ED000A7B
:1026200090ED010AB4F9000000EE900AF8EEE00A1D
:102630009FED151A00EE810A124880ED010AB4F9E7
:10264000020000EE100AB8EEC00A0E4880ED040A3F
:10265000B4F9000000EE100AB8EEC00A094880ED97
:10266000050AFFF7BFF9204600F010F870BD000022
:10267000EC070020EE070020C407002070070020B0
:10268000A00700201C0B0020CDCCCC3C70B504462C
:1026900000252A48007820B1012812D0022848D10C
:1026A0002AE0E07960B9607A012809D1002000F0C1
:1026B000CFFD234881698847012020490870002503
:1026C00037E0607A012802D1681C05B200E00025DD
:1026D000322D09DD002019490870194881698847A1
:1026E000002000F0B5FD06E01548016A884710B1EA
:1026F0000220124908701CE0607A012802D1681C8F
:1027000005B200E00025322D09DD00200B490870DC
:102710000B4881698847002000F09AFD08E0207A84
:10272000012802D100F094FD02E0002000F090FDAD
:1027300000BF00BF607AE07170BD00007807002024
:102740007C0700207047000070B5002100230F2295
:10275000C4781CB3174C246804F4E064C4F5E06446
:10276000C4F30721C1F10404E3B20A4144789C4058
:10277000E1B28478144021430C07210E0E4C0578F9
:102780006155047804F01F050124AC4005786D11F3
:10279000AD0005F1E025C5F8004109E0047804F03A
:1027A0001F050124AC40054D0678761145F82640FA
:1027B00070BD00000CED00E000E400E080E100E00E
:1027C00002490143024A1160704700000000FA0507
:1027D0000CED00E090ED030A80ED020A90ED000A96
:1027E000D0ED010A30EE600A80ED030A90ED040A94
:1027F000D0ED030A30EE200A80ED040A90ED060ABF
:10280000D0ED0C0AF1EE600AB4EEE00AF1EE10FA37
:1028100006D890ED0C0AB1EE400A80ED060A0CE0F5
:1028200090ED060AD0ED0C0AB4EEE00AF1EE10FAD3
:1028300003DB90ED0C0A80ED060A90ED050AD0ED61
:10284000030A20EE200AD0ED060A90ED041A00EEED
:10285000810AD0ED030A90ED021A70EEC10A90EDE4
:10286000071A01EE200A80ED0E0A90ED0E0AD0ED57
:102870000F0AF1EE600AB4EEE00AF1EE10FA06D8A3
:1028800090ED0F0AB1EE400A80ED0E0A0CE090EDDB
:102890000E0AD0ED0F0AB4EEE00AF1EE10FA03DBF7
:1028A00090ED0F0A80ED0E0A704700009FED080AB8
:1028B00080ED020A9FED060A80ED030A9FED040AEF
:1028C00080ED040A9FED020A80ED0E0A70470000B9
:1028D0000000000090ED030A80ED020A90ED000A6E
:1028E000D0ED010A30EE600A80ED030A90ED040A93
:1028F000D0ED030A30EE200A80ED040A90ED030AC1
:102900003A49D1ED000A20EE200AD0ED040A3849F8
:1029100091ED001A01EE200AD0ED030A90ED021AA3
:1029200070EEC10A334991ED001A01EE200A3249D6
:1029300081ED000A314991ED000A314981ED000A2B
:102940002D4991ED000A2F49D1ED000A30EE600AC1
:102950002A4981ED000A2C4991ED000A2749D1ED61
:10296000000A30EE200A284981ED000A274991ED3E
:10297000000A2249D1ED000A20EE200A2449D1EDB7
:10298000000A214991ED001A00EE810A1B49D1EDA0
:10299000000A1B4991ED001A70EEC10A1D4991ED24
:1029A000001A01EE200A80ED0E0A90ED0E0AD0ED1D
:1029B0000F0AF1EE600AB4EEE00AF1EE10FA06D862
:1029C00090ED0F0AB1EE400A80ED0E0A0CE090ED9A
:1029D0000E0AD0ED0F0AB4EEE00AF1EE10FA03DBB6
:1029E00090ED0F0A80ED0E0A704700002C080020C1
:1029F0003008002034080020440800204C08002043
:102A000048080020700000205008002038080020EE
:102A10003C0800204008002000B58BB0012108468A
:102A200000F090F80121082000F09CF80121080432
:102A300000F0B8F80720099002208DF82800032044
:102A40008DF8290009A93B48FEF7F1FE022200217A
:102A50003848FEF734FF022201213648FEF72FFFE7
:102A6000032202213348FEF72AFF5320ADF8180055
:102A70000020ADF81A0044F6206007900020ADF861
:102A8000200006A92C4800F041FEA720ADF8180050
:102A90000020ADF81A004FF47A7007900020ADF8CE
:102AA000200006A9254800F031FE7020ADF8040092
:102AB0000120ADF806000020ADF808004FF47A7050
:102AC00003900220ADF810000020ADF81200ADF820
:102AD00014004FF48070ADF8160001A9164800F0FC
:102AE0006BFD01A9144800F0AFFD0020039001A97F
:102AF000124800F061FD08210F4800F09BFD0821FD
:102B00000D4800F0F3FD08210C4800F093FD012171
:102B1000094800F019FD0121084800F015FD0121C8
:102B2000054800F023FD0121044800F01FFD0BB013
:102B300000BD000000000240000C004000400140C9
:102B40007047000029B1064A12680243044B1A601C
:102B500004E0034A12688243014B1A607047000088
:102B60003038024029B1064A12680243044B1A6009
:102B700004E0034A12688243014B1A607047000068
:102B80004038024029B1064A12680243044B1A60D9
:102B900004E0034A12688243014B1A607047000048
:102BA0002038024029B1064A12680243044B1A60D9
:102BB00004E0034A12688243014B1A607047000028
:102BC0004438024029B1064A12680243044B1A6095
:102BD00004E0034A12688243014B1A607047000008
:102BE00024380240F0B500210022002402250026EE
:102BF0000223324F3F6807F00C0121B1042905D0B0
:102C0000082937D105E02E4F076036E02D4F0760C9
:102C100033E02A4F3F1F3F68C7F38056274F3F1FBF
:102C20003F6807F03F036EB1264FB7FBF3F7DFF8BD
:102C30008CC0ACF1040CDCF800C0CCF3881C07FBA2
:102C40000CF40CE01E4FB7FBF3F7DFF870C0ACF1EB
:102C5000040CDCF800C0CCF3881C07FB0CF4174F05
:102C60003F1F3F68C7F301477F1C7D00B4FBF5F7AA
:102C7000076002E0124F076000BF00BF0F4F3F68C0
:102C800007F0F0010909104F7A5C0768D7404760E8
:102C90000A4F3F6807F4E051890A0B4F7A5C476896
:102CA000D7408760054F3F6807F46041490B064FE6
:102CB0007A5C4768D740C760F0BD00000838024022
:102CC0000024F400001BB7007C0000200168491CB0
:102CD0000160D0E9001291420ADA90ED000AF8EEA4
:102CE000C00A90ED010AB8EEC01A80EE810A704762
:102CF000B7EE000AFBE770470146D1E900029042B7
:102D000001DA002070470120FCE7002101607047D4
:102D1000016070474160704710B50446FEF75CFEE5
:102D2000B8B3B4F90200A0F5806000EE100AB8EE66
:102D3000C00AF7EE000A20EE200ABDEEC00A10EE2F
:102D4000100A00B268490880B4F90000A0F580605C
:102D500000EE100AB8EEC00AF7EE000A20EE200AD4
:102D6000BDEEC00A10EE100A00B24880B4F90400AB
:102D7000A0F5806000EE100AB8EEC00AF7EE000A77
:102D800020EE200ABDEEC00A10EE100A00B2C88084
:102D900004E0FFE70020544908804880FEF71CFE4D
:102DA000022842D1514890ED000AB4F90600A0F57E
:102DB000806000EE900AF8EEE00A9FED4D1A00EEFA
:102DC000810A4A4880ED000A4A48007A02286DD0FC
:102DD000494890ED100ADFED490AB4EEE00AF1EE41
:102DE00010FA23DDB4F90400A0F5806000EE100AAB
:102DF000B8EEC00ADFED3E0A20EE200AB5EEC00AAA
:102E0000F1EE10FA52DD394890ED010AB4F90400F0
:102E1000A0F5806000EE900AF8EEE00A9FED341A0B
:102E200000EE810A314880ED010A3FE0324890ED22
:102E3000100ADFED330AB4EEE00AF1EE10FA23D205
:102E4000B4F90400A0F5806000EE100AB8EEC00AE4
:102E5000DFED270A20EE200AB5EEC00AF1EE10FAE7
:102E600024D2224890ED010AB4F90400A0F5806054
:102E700000EE900AF8EEE00A9FED1D1A00EE810ABE
:102E80001A4880ED010A11E0184890ED010AB4F9E2
:102E90000400A0F5806000EE900AF8EEE00A9FEDD5
:102EA000141A00EE810A114880ED010AB4F90600F7
:102EB000A0F5806000EE100AB8EEC00A0B4880ED65
:102EC000040AB4F90400A0F5806000EE100AB8EE20
:102ED000C00A064880ED050AFEF784FD217A0948FC
:102EE00000F086F810BD0000700700201C0B0020C9
:102EF0006F12833B040B00203C0A0020000070424C
:102F0000000070C2340B002010B5044604B910BD97
:102F10002078617840EA0120C0F30A003349088034
:102F20006078C010A17840EA4110C0F30A002F4930
:102F30004880A0788011E17840EA8100217940EA58
:102F40008120C0F30A0029498880207940106179E6
:102F500040EAC110C0F30A002449C880607900111A
:102F6000800808726079C0F301104872A079E17995
:102F700040EA012000B21D494881207A617A40EA86
:102F8000012001B219488181A07AE17A40EA01204A
:102F900001B21648C181217B8174617BC174A07B21
:102FA00012498882207C617C40EA0120C0F30A003B
:102FB0000E49C882084600F037F9FEF7BDFC01282B
:102FC00004D002280DD003280CD103E00748FFF7F6
:102FD000A3FE07E005491431A1F10A00FFF76EFADC
:102FE00000E000BF00BF00BF91E70000040B00201D
:102FF00070B504460D4629462046FEF7AFFC224830
:10300000007820B101280FD002283AD121E0607861
:103010000D2808D1002000F01BF91C488169884761
:103020000120194908702CE060780D2809D1002092
:1030300000F00EF90020144908701448816988478F
:1030400006E01248016A884710B102200E49087054
:1030500017E060780D2809D100200B4908700B4853
:1030600081698847002000F0F3F809E02078022801
:1030700003D1012000F0ECF802E0002000F0E8F8B5
:1030800000BF00BF70BD0000780700207C07002053
:1030900000B587B001212020FFF754FD012108056C
:1030A000FFF780FD4FF46070059002208DF8180046
:1030B00000208DF81A0003208DF8190000208DF8EB
:1030C0001B0005A91B48FEF7B2FB05220721194882
:1030D000FEF7F5FB052208211648FEF7F0FB052256
:1030E00009211448FEF7EBFB0020ADF800004FF477
:1030F0008270ADF802000020ADF80400ADF80600C3
:10310000ADF808004FF40070ADF80A003820ADF8B3
:103110000C000020ADF80E000A20ADF81000694642
:10312000054800F041F80121034800F023F807B0FA
:1031300000BD0000001402400050014010B50446DC
:1031400000BF02210A4800F021F80028F9D02146EA
:10315000074800F027F800BF0121054800F016F8E5
:103160000028F9D0024800F01AF8C0B210BD0000E3
:103170000050014021B1028842F04002028004E088
:1031800002884FF6BF731A40028070470246002043
:1031900013890B400BB1012000E00020704701466D
:1031A000888970478181704710B50022028802F437
:1031B00041520B884C8823438C882343CC8823437B
:1031C0000C8923434C8923438C892343CC89234393
:1031D0001A430280838B4FF2FF74234083830B8A50
:1031E000038210BD7047000030B500228B071C0F12
:1031F0000F2303FA04F20B4B8C1053F82430934343
:10320000084C8D1044F8253023468C1053F8243098
:103210008C07240F00FA04F42343024C8D1044F869
:10322000253030BD08380140417A012902D1074AD2
:1032300011700AE0417A032902D1044A117004E0B6
:10324000417A022901D1014A117070477A070020A2
:103250000149087070470000790700200CB5002074
:10326000019000903448006840F480303249086092
:1032700000BF3148006800F4003000900198401C05
:103280000190009818B90198B0F5A04FF1D12A48E3
:10329000006800F4003010B10120009001E000202F
:1032A00000900098012846D123484030006840F043
:1032B00080502149403108602048006840F4404077
:1032C0001E4908601C48083000681B490831086026
:1032D0000846006840F4004008600846006840F472
:1032E000A05008601648091F0860081F006840F0D9
:1032F0008070091F086000BF0F48006800F0007070
:103300000028F9D040F205600E4908600A480830EC
:10331000006820F00300084908310860084600688A
:1033200040F00200086000BF03480830006800F069
:103330000C000828F8D10CBD003802400070004095
:103340000C544007003C02402DE9F04186B0804615
:103350000C4615461E460C9F4FF40070019000204D
:103360008DF80C008DF80D0008208DF80E00200A55
:103370008DF80F008DF81040290A8DF811108DF886
:103380001250310A8DF813108DF81460390A8DF837
:1033900015108DF8167001A94046FDF7E2FD06B044
:1033A000BDE8F08130B585B005460C464FF400709D
:1033B000009000208DF808008DF8090008208DF895
:1033C0000A0000208DF80B0000218DF80C10210A56
:1033D0008DF80D10E1B28DF80E1000218DF80F1050
:1033E0008DF810108DF811108DF8121069462846CE
:1033F000FDF7B7FD05B030BD10B51548006840F4C5
:103400007000134908601348006840F0010011493A
:10341000086000200F49083108600E4800680E4916
:1034200008400C4908600D48091D0860081F006825
:1034300020F48020091F0860002006490C31086034
:10344000FFF70CFF4FF0006001498039086010BDA4
:1034500088ED00E000380240FFFFF6FE1030002447
:1034600010B50121880700F08DF858B100F018F868
:1034700009480068401C0849086008480068401C6A
:10348000064908600121880700F06DF801218807CE
:1034900000F066F810BD0000E0000020DC00002015
:1034A00010B500214FF0804000F060F800220121AB
:1034B000880700F078F800214FF0804000F023F9F1
:1034C0000121880700F04CF80121024800F04BF878
:1034D00010BD0000000400401FB501211020FFF7BF
:1034E00041FB36208DF8000001208DF801000020FE
:1034F0008DF8020001208DF803006846FFF724F9DB
:1035000040F2E73002905320ADF804000020ADF8FF
:103510000600ADF80C0001A9014800F0F7F81FBD46
:103520000010004010B50121064800F02BF838B11A
:103530000121044800F017F80121024800F010F8BA
:1035400010BD00000010004021B1028842F080024E
:10355000028004E002884FF67F731A4002807047B1
:10356000CA4302827047CA430282704721B102886F
:1035700042F00102028004E002884FF6FE731A4016
:103580000280704730B50246002000230024158ACF
:1035900005EA0103958905EA010413B10CB1012084
:1035A00000E0002030BD1AB183890B43838102E023
:1035B00083898B438381704770B5002400220023E8
:1035C000058C4FF6FE7635400584028C8388048B8B
:1035D0004FF68F752C40B51E2C400D882C43751E60
:1035E0002A408D892A434D882A43104DA84202D093
:1035F0000F4DA84213D14FF6F7752A40CD892A43C3
:103600004FF6FB752A408D882A434FF6FF652B4005
:103610004FF6FF552B400D8A2B434D8A2B43838059
:1036200004838D684563028470BD00000000014082
:10363000000401400A460021018B4FF6F773194040
:10364000114301837047000070B50024002200235D
:10365000058C4FF6EF7635400584028C8388048B09
:1036600048F6FF752C404FF6FF452C400D884FF66D
:10367000FF7606EA05252C434FF6DF752A408D8933
:1036800006EA05152A434D8806EA05152A43154D15
:10369000A84202D0144DA8421DD14FF67F752A4092
:1036A000CD894FF6FF7606EA05152A434FF6BF751A
:1036B0002A408D8806EA05152A434FF6FF352B4030
:1036C0004FF2FF752B400D8A06EA85052B434D8A84
:1036D00006EA85052B43838004838D688563028415
:1036E00070BD000000000140000401400A460021B6
:1036F000018B4FF2FF7319404FF6FF7303EA022369
:10370000194301837047416270470000002202881C
:10371000184B98420ED0184B98420BD0B0F1804F06
:1037200008D0164B984205D0154B984202D0154B45
:10373000984204D14FF68F731A404B881A43124BAC
:10374000984207D0114B984204D04FF6FF431A40DD
:103750000B891A4302804B68C3620B880385054BB3
:10376000984202D0044B984201D18B7A0386012300
:1037700083827047000001400004014000040040C3
:1037800000080040000C0040001000400014004001
:1037900000B597B001210220FFF7D4F90121880577
:1037A000FFF7D0F901211020FFF7FCF9072211469D
:1037B0004248FEF784F815A8FEF7A8F88020159077
:1037C00002208DF8580000208DF8590001208DF856
:1037D0005B0015A93948FEF72AF8394800F0A6F928
:1037E00011A800F0C7FA374811900020ADF8480042
:1037F000ADF84A004FF48060ADF84C000420ADF8FD
:103800004E000020ADF8500011A92D4800F044FAF8
:10381000012240212A4800F07FF92B48FDF748FC9F
:1038200001A8FDF743FD4FF0006001902448001D02
:10383000029026480390002004901E20059000204E
:1038400006904FF4806007900020089009904FF494
:1038500080700A9000020B9000200C900D900E904A
:103860000F9001A91848FDF7F5FC002217491E31F9
:103870001548FDF7D4FC01211348FDF7C5FC0121D3
:103880001148FDF70AFC25208DF8400000208DF836
:1038900041008DF8420001208DF8430010A8FEF78A
:1038A00053FF012240F22441054800F0D0F90121E4
:1038B000034800F025F917B000BD000000040240E5
:1038C00000100140A0860100406402406C08002006
:1038D00010B540F224412E4800F08FF9002855D051
:1038E0002B4800882A4880882A48FDF7A8FC30BB6E
:1038F00000212848FDF7D1FB2648FDF79CFCC0F1CC
:103900001E00254908601E202249091D0860081F65
:10391000006840F40020091F086001211D48FDF7E0
:10392000BCFB1D480068122830D11C48FFF7ECFA98
:103930000020FEF707F80446FEF700FC26E0002111
:103940001448FDF7AAFB1348FDF775FCC0F11E00F3
:10395000114908601E200F49091D0860081F0068F2
:1039600020F40020091F086001210A48FDF795FB9B
:1039700009480068122809D108481E30FFF7C4FA28
:103980000020FDF7DFFF0446FEF7D8FB10BD000066
:103990000010014040640240000000206C0800203C
:1039A00010B540F22771064800F027F938B10548F4
:1039B00030F81410024800F0D9F9601C84B210BD30
:1039C000004400404C00002000B587B001210820D1
:1039D000FFF7B8F801218804FFF7C4F8072208218F
:1039E0002248FDF76CFF072209212048FDF767FFF9
:1039F0004FF44070059002208DF818008DF81900E2
:103A000000208DF81A008DF81B0005A91748FDF756
:103A10000EFF4FF4E13001900020ADF80800ADF842
:103A20000A00ADF80C00ADF810000C20ADF80E0047
:103A300001A90F4800F030F901210D4800F060F8AD
:103A4000012240F225510A4800F001F927208DF8A3
:103A5000000003208DF801008DF8020001208DF890
:103A600003006846FEF770FE07B000BD000C024080
:103A70000048004010B51E48008800F0080020B142
:103A80001B49091D0988C8B200BF1948008800F009
:103A90008000F0B116480C30008800F08000C0B102
:103AA000144801780078401C124A10701248405C9B
:103AB0000F49091D0880104600781049097888428E
:103AC00007D10B480C30008820F0800008490C31E9
:103AD00008800748008800F0200038B10448001D25
:103AE0000088C4B22046FDF799FC00BF10BD00005D
:103AF00000480040600800207D0B00206108002085
:103B000021B1828942F40052828104E082894DF61B
:103B1000FF731A40828170471AB1838A0B438382F4
:103B200002E0838A8B4383827047000010B504460D
:103B30002548844208D101211020FFF743F80021D5
:103B40001020FFF73FF83EE02048844209D10121D0
:103B50004804FFF717F800214FF40030FFF712F880
:103B600031E01B48844209D101218804FFF70AF89B
:103B700000214FF48020FFF705F824E01548844227
:103B800009D10121C804FEF7FDFF00214FF40020F8
:103B9000FEF7F8FF17E01048844209D1012108051B
:103BA000FEF7F0FF00214FF48010FEF7EBFF0AE074
:103BB0000A48844207D101212020FFF703F80021A1
:103BC0002020FEF7FFFF10BD001001400044004020
:103BD00000480040004C00400050004000140140EC
:103BE00002460020B1F5007F00D100BF13880B40D2
:103BF0000BB1012000E00020704770B502460024A0
:103C000000230025002040F66A16B14200D100BF13
:103C1000C1F3421501F01F03012606FA03F3012D3B
:103C200002D19689334006E0022D02D1168A334034
:103C300001E0968A33400C12012606FA04F4168835
:103C4000344013B10CB1012000E0002070BDF0B58C
:103C50000346002400260025002040F66A17B942DA
:103C600000D100BF1846C1F3421401F01F0601271E
:103C700007FA06F5012C01D10C3004E0022C01D129
:103C8000103000E014301AB107682F43076002E0DB
:103C90000768AF430760F0BD2DE9FF4705460E46B4
:103CA0000024A14600BFA046B08900B100BF2C8A05
:103CB00024F44054F08804432C82AC8941F20C6017
:103CC0008443B08831890843718908430443AC8137
:103CD000AC8A24F44074B0890443AC826846FEF791
:103CE00081FF2048854202D01F48854202D1DDF87D
:103CF0000C9001E0DDF80890A88900F4004040B184
:103D000009EBC90000EB091031684900B0FBF1F77D
:103D100007E009EBC90000EB091031688900B0FB2E
:103D2000F1F76420B7FBF0F004012009642101FBE6
:103D30001078A88900F4004040B1322000EBC800A0
:103D4000B0FBF1F000F00700044308E0322000EB84
:103D500008106421B0FBF1F000F00F0004432C8147
:103D6000BDE8FF870010014000140140C1F30802C4
:103D7000828070474FF41651016000218180C1801C
:103D800001810C21418100218181704700BFFEE744
:103D9000F8B504460D4616461F4600EE104AB8EE2A
:103DA000C00A6A4880ED000A694890ED000A674839
:103DB00080ED010A00EE105AB8EEC00A654880EDA9
:103DC000000A654890ED000A624880ED010A00EEA5
:103DD000106AB8EEC00A614880ED000A604890EDB4
:103DE000000A5E4880ED010A00EE107AB8EEC00AC3
:103DF0005C4880ED000A5C4890ED000A594880ED6F
:103E0000010A5648FEF7E6FC5648FEF7E3FC4F4829
:103E1000FEF7E0FC4F48FEF7DDFC4C4890ED0E0A43
:103E2000DFED520AB4EEE00AF1EE10FA03DB9FED8B
:103E30004F0A80ED0E0A454890ED0E0ADFED4C0A60
:103E4000B4EEE00AF1EE10FA03D89FED490A80EDD6
:103E50000E0A404890ED0E0ADFED440AB4EEE00A87
:103E6000F1EE10FA03DB9FED410A80ED0E0A3948AE
:103E700090ED0E0ADFED3E0AB4EEE00AF1EE10FA24
:103E800003D89FED3B0A80ED0E0A344890ED0E0AF0
:103E9000DFED360AB4EEE00AF1EE10FA03DB9FED37
:103EA000330A80ED0E0A2D4890ED0E0ADFED300A40
:103EB000B4EEE00AF1EE10FA03D89FED2D0A80ED82
:103EC0000E0A284890ED0E0ADFED280AB4EEE00A4B
:103ED000F1EE10FA03DB9FED250A80ED0E0A214872
:103EE00090ED0E0ADFED220AB4EEE00AF1EE10FAD0
:103EF00003D89FED1F0A80ED0E0A1A4890ED0E0AB6
:103F0000BDEEC00A10EE100A00B20090134890ED0A
:103F10000E0ABDEEC00A10EE100A03B20D4890ED75
:103F20000E0ABDEEC00A10EE100A02B2074890ED6C
:103F30000E0ABDEEC00A10EE100A01B20D48FCF7E1
:103F4000A4F9012000F0E2F8F8BD0000A40500206B
:103F500038000020500500203C000020A80400206C
:103F600040000020FC0400204400002000409C454C
:103F700000409CC5006400400FB4054B10B503A978
:103F8000044A029800F018F810BC5DF814FB000019
:103F9000794100086808002002E008C8121F08C123
:103FA000002AFAD170477047002001E001C1121FBA
:103FB000002AFBD1704700002DE9FF4F89B09B46D6
:103FC0000446002506E025280BD05A460B99904759
:103FD000641C6D1C20780028F5D10DB02846BDE882
:103FE000F08F0027B8460122474900E0074314F844
:103FF000013F203B02FA03F00842F7D120782E2837
:1040000019D114F8010F47F004072A280ED06FF0D9
:104010002F022078A0F1300109290CD808EB880183
:1040200002EB410100EB0108641CF2E70A98641CF2
:1040300050F8048B0A9020780028CED0642808D04D
:10404000692806D075281ED05A460B9990476D1CDA
:1040500058E00A994FF00A0901C90A91002802DACA
:1040600040422D2102E0390504D52B218DF8201086
:10407000012103E0F90704D02021F7E78A4608AEC2
:104080000DE00021FAE70A994FF00A0901C90A91E7
:10409000F7E74946FCF7A6F8303106F8011D00287D
:1040A000F7D1ADEB060000F12009780701D44FF0FD
:1040B0000108C84502DDA8EB090000E000208046A9
:1040C000002706E008A85A46C05D0B9990476D1C72
:1040D0007F1C5745F6DB04E030205A460B99904789
:1040E0006D1CB8F10001A8F10108F5DC05E016F837
:1040F000010B5A460B9990476D1CB9F10001A9F1CB
:104100000109F4DC641C65E70928010010B50021F1
:1041100007E04AF2104200BF131EA2F10102FBD1D8
:10412000491C8142F5D310BD00EE100AB8EEC00A5A
:104130000D4981ED000A414200EE101AB8EEC00AA6
:104140000A4981ED000A00EE100AB8EEC00A0849DB
:1041500081ED000A414200EE101AB8EEC00A05498E
:1041600081ED000A7047000004030020580300207E
:10417000AC0300200004002070B504460D4600BFCB
:1041800040210548FFF72CFD0028F9D0E1B2024894
:10419000FFF7ECFD204670BD00480040FCF7A4F896
:1041A000FEF73AFC40F2AA501649086040F2DC5093
:1041B000091D08601448FEF779FB1448FEF776FBEA
:1041C000FDF786F84FF49670FFF7A0FF0121104825
:1041D000FDF79AFB02210E48FDF796FB10210D48D2
:1041E000FDF792FB20210B48FDF78EFB402109488B
:1041F000FDF78AFB04E000F045F80120FFF786FF99
:10420000F9E70000340C00406001002008020020A3
:1042100000140240001002401649D1ED000A00EEE1
:10422000100AB8EEC00A30EE800A81ED000A124989
:10423000D1ED000A00EE100AB8EEC00A30EE800A96
:1042400081ED000A0D49D1ED000A00EE100AB8EE2A
:10425000C00A30EE800A81ED000A0949D1ED000A5A
:1042600000EE100AB8EEC00A30EE800A81ED000AB6
:10427000704700000403002058030020AC03002016
:104280000004002070B58AB0B248C17C827CB0F9CD
:104290000E00B04BB3F90C30CDE90530CDE9072164
:1042A000AC48B0F90A20808AAA4991F90910A94BB3
:1042B00093F90830CDE90131CDE90302A548B0F901
:1042C0001600A44D0090B5F90630B5F90420B5F9F3
:1042D0000210B5F90000FDF7B9FC2846B0F900005E
:1042E000A0F580609C4908602846B0F90600A0F55A
:1042F00080609A4908602846B0F90400A0F5806003
:10430000974908602846B0F90200A0F580609549F9
:104310000860284690F9080093490860284690F9FB
:104320000900924908608D48006848B98A480068C9
:1043300030B98B48006818B98A480068002849D00D
:1043400086480068404200EB400044002046FFF7EA
:10435000EBFE8148006800EB400044002046FFF778
:104360005BFF7F48006800EB80004400204600F0BF
:1043700013F97F48407C02280ED07A4A12685242D4
:104380004FF40273C3EBC201764A126803EBC2001A
:1043900000231A46FFF7FCFC764D95ED000ABDEEB2
:1043A000C00A10EE103A744D95ED000ABDEEC00A39
:1043B00010EE102A714D95ED000ABDEEC00A10EE08
:1043C000101A6F4D95ED000ABDEEC00A10EE100AEE
:1043D000FDF7B8FE6048006880B96048006868B9B9
:1043E0005F48006850B95F48006838B900F00AF9C2
:1043F00000231A4663494842FFF7CAFC5B4800683D
:10440000032808D140F2AA505F49086040F2DC500E
:10441000091D086018E055480068022808D140F2DC
:10442000DC505949086040F29E70091D08600BE09D
:104430004E480068012807D140F6980052490860AC
:1044400040F2DC50091D08604948807B012803D1F7
:104450000020FDF71DFB07E04548807B022803D1C3
:104460006FF09500FDF714FB4148C07B012804D193
:1044700002214648FDF748FA07E03D48C07B022884
:1044800003D102214148FDF73DFA3948C07A01289D
:1044900004D101033E48FDF737FA07E03448C07AFB
:1044A000022803D1C1023A48FDF72CFA3048807C3B
:1044B000012804D140213648FDF726FA07E02C48B0
:1044C000807C022803D140213148FDF71BFA28489F
:1044D000407B012808D104212E48FDF715FA082158
:1044E0002C48FDF711FA0BE02148407B022807D148
:1044F00004212848FDF706FA08212648FDF702FAAC
:104500001B48407C012804D101212048FDF7FCF91B
:104510001DE01748407C022819D101211B48FDF7F6
:10452000F1F90F4D2D686D42C5EB05130C4D2D684B
:10453000C5EB05120B4D2D686D424FF40276C6EBAC
:10454000C501084D2D6806EBC500FFF721FC0AB038
:1045500070BD0000040B0020A4000020A00000207B
:10456000A8000020AC000020B0000020B400002013
:10457000EC0A002000040020AC03002058030020B7
:1045800004030020F8FDFFFF340C0040001402403B
:1045900000100240000802401649D1ED000A00EE6A
:1045A000100AB8EEC00A30EEC00A81ED000A1249C6
:1045B000D1ED000A00EE100AB8EEC00A30EE800A13
:1045C00081ED000A0D49D1ED000A00EE100AB8EEA7
:1045D000C00A30EE800A81ED000A0949D1ED000AD7
:1045E00000EE100AB8EEC00A30EEC00A81ED000AF3
:1045F000704700000403002058030020AC03002093
:104600000004002010B500231A4619461846FDF78D
:1046100099FD10BD6B806B036C001A031B101C010D
:104620001D026A2037023801000000004C460008D5
:10463000000000206C080000340200083447000825
:104640006C0800207C0E0000A83F000841027B049B
:104650002D01020304045506070809023FFF041058
:1046600020CB4523A8162730F8FFFF9411290423F7
:10467000A00F100848F4FFFF48E8010B212003A415
:1046800009150C013A63C0405A400869BC1A99BC2C
:10469000137A448C80BB4410A113D5271408AD288D
:1046A0000A1508F90A144117093A5469A811094969
:1046B000A80B500442A8CA80A00916540B29409C9C
:1046C000543AA054FDCDCC4C3E547CC05A45540CB9
:1046D000FD60EA46540925541162413A405CA11A32
:1046E0007A4C23484353C8420CD0B09A45FC09FD8C
:1046F00054099D5413F72C1B08CD0413112D1B08CE
:104700000B041A15041AF910092924C201DA01014F
:10471000191E690AA926094E840923240B28D007EB
:10472000040310FFFF9B20420C42400514CDCC4CEB
:044730003E02130A28
:040000050800018965
:00000001FF
