:020000040800F2
:10000000281A002029460008114600081346000857
:10001000174600081B4600081F46000800000000A5
:10002000000000000000000000000000234600085F
:100030002546000800000000274600084146000849
:10004000434600084346000843460008434600086C
:100050004346000843460008511500086D5A000841
:10006000434600084346000843460008434600084C
:10007000434600084346000843460008434600083C
:10008000434600084346000843460008434600082C
:100090004B0B00084346000843460008434600084F
:1000A000434600084346000843460008434600080C
:1000B0006D06000843460008434600084346000812
:1000C00043460008434600084346000843460008EC
:1000D00043460008DF070008DF130008590900083D
:1000E00043460008434600084346000843460008CC
:1000F00043460008434600084346000843460008BC
:1001000043460008434600084346000843460008AB
:1001100043460008434600088B0600084346000893
:10012000434600084346000843460008434600088B
:10013000434600084346000843460008434600087B
:10014000434600084346000843460008434600086B
:10015000434600084346000843460008434600085B
:10016000434600084346000843460008434600084B
:10017000434600084346000843460008434600083B
:10018000434600084346000800F002F800F05CF81F
:100190000AA090E8000C82448344AAF10107DA45E2
:1001A00001D100F051F8AFF2090EBAE80F0013F0D8
:1001B000010F18BFFB1A43F001031847FCB40000FD
:1001C0001CB500000A444FF0000C10F8013B13F07E
:1001D000070408BF10F8014B1D1108BF10F8015BA0
:1001E000641E05D010F8016B641E01F8016BF9D193
:1001F00013F0080F1EBF10F8014BAD1C0C1B09D1EA
:100200006D1E58BF01F801CBFAD505E014F8016B5B
:1002100001F8016B6D1EF9D59142D6D370470000ED
:100220000023002400250026103A28BF78C1FBD8FF
:10023000520728BF30C148BF0B6070471FB50BF095
:1002400094F91FBD10B510BD09F0BAFD1146FFF7B6
:10025000F5FF00F0C4F809F0D8FD03B4FFF7F2FF92
:1002600003BC09F0D9FD000017B50020AA240346FD
:10027000401C8349CC5405240346401CCC54AF2475
:100280000346401CCC54F1240346401CCC540024AB
:100290000346401CCC549DF801400346401CCC54FE
:1002A0009DF800400346401CCC549DF80540014693
:1002B000431CD8B2724B5C549DF804400146431C69
:1002C000D8B26F4B5C549DF809400146431CD8B22C
:1002D0006B4B5C549DF808400146431CD8B2684BF8
:1002E0005C54411F19710022002105E0644B5B5CE6
:1002F0001344DAB24B1CD9B28142F7DB0146431CEE
:10030000D8B25F4B5A541EBD0CB5DFED5E1AB0EE8D
:10031000611ADFED5C1AB0EE610A5B48D0ED001A9D
:100320009FED5A2A71EEC21ACDED001AD0ED001AD7
:1003300071EEC11ACDED011ADDED001A71EE801AD1
:10034000B0EE610ADFED521AB4EEE10AF1EE10FAF6
:1003500004DDDFED4F1AB0EE610A0AE0DFED4D1A61
:10036000B4EEE10AF1EE10FA03D2DFED4A1AB0EE74
:10037000610ADDED001A484890ED002A61EE821A0C
:10038000464890ED002A42EE001A9DED012A4448AD
:10039000D0ED002AF0EE610A42EE820A3A48D0ED32
:1003A000001AB0EE611ADFED3F1AF4EEE10AF1EE49
:1003B00010FA03DDDFED3B1AF0EE610ADFED3A1AC9
:1003C000F4EEE10AF1EE10FA03D2DFED371AF0EEA7
:1003D000610AFDEEE01A11EE900A01B20CBD002098
:1003E000324908608021324802F0A4FE00BF00BFFD
:1003F00000BF00BF00BF40F213102E4908807D20CF
:100400002D49088000F0A6FE4FF400512B4802F061
:100410008FFE2B4808F014FB2A4808F011FB4FF41C
:10042000487029490860091D08604FF4967000F073
:10043000A1F805F02FFE05F010FC04F071FB00F0B0
:10044000F7F8224805F001F94FF4FA6000F092F84D
:1004500014E01E4805F0F9F81D4890ED060AF0EE8C
:10046000401A1C48D0ED002A9FED062A9FED051A80
:10047000DFED190A9FED030A09F043FBE9E70000ED
:100480003807002000000000280000200000114371
:1004900000007A4400007AC43400002038000020B4
:1004A0003C00002000009645000096C5000000209A
:1004B000001002402200002024000020001802400A
:1004C0009C01002044020020340C00401C08002045
:1004D000E80800205C00002000007A431CB50121E0
:1004E000202002F0D0FB0121102002F0CCFB0121E2
:1004F000402002F0C8FB8020009001208DF804000D
:1005000000208DF8060003208DF805006946164886
:1005100002F092FD4FF48040009001208DF804001D
:1005200000208DF8060003208DF8050069460F486D
:1005300002F082FD4FF40050009002208DF804007C
:1005400000208DF8060003208DF805006946084854
:1005500002F072FD8021044802F0EAFD4FF4804170
:10056000024802F0E5FD1CBD0010024000140240EC
:100570000018024010B5002107E04AF2104200BF07
:100580001300A2F10102FBD1491C8142F5D310BD39
:1005900010B5002106E0282200BF1300A2F10102DD
:1005A000FBD1491C8142F6D310BD00000EB50121DC
:1005B000084602F0AFFB4FF0FF300190A720ADF8E6
:1005C00000000020ADF80200ADF808000121880706
:1005D00001F0FCFB69464FF0804001F08CFB0121EB
:1005E000880701F011FC0EBD1FB50121102002F09B
:1005F00091FB36208DF8000001208DF801000020CD
:100600008DF8020001208DF80300684603F095FF85
:1006100040F2E73002905320ADF804000020ADF81E
:100620000600ADF80C0001A9214801F064FB1FBDD4
:1006300010B501211E4801F0E7FB012211461C48BC
:1006400001F0FAFF01211A4802F00AF810BD10B5B6
:100650000121174801F0D8FB00220121144801F0C4
:10066000EBFF0121124801F0FBFF10BD10B5012185
:10067000880701F0F8FF38B10121880702F004F87B
:100680000121880701F0ECFF10BD10B501210848D9
:1006900001F0E9FF38B10121054801F0F5FF012122
:1006A000034801F0DDFF10BD4FF08040406A704705
:1006B0000010004000B597B00121022002F0E3FADB
:1006C0000121880502F0DFFA0121102002F033FB3E
:1006D00007221146714802F03AFD15A802F0F4FC19
:1006E0008020159002208DF8580000208DF85900C8
:1006F00001208DF85B0015A9684802F09DFC684850
:1007000001F03EF811A801F0EFF8664811900020C2
:10071000ADF84800ADF84A004FF48060ADF84C00E9
:100720000420ADF84E000020ADF8500011A95C483F
:1007300001F074F801224021594801F0A4F95A4807
:1007400003F02AF801A803F0F2F84FF000600190DE
:100750005348001D029055480390002004901E202D
:100760000590002006904FF48060079000200890CC
:1007700009904FF480700A9000020B9000200C90BA
:100780000D900E900F9001A9474803F0A7F80022A2
:1007900046491E31444803F002F90121424803F062
:1007A0000AF90121404803F0D3F825208DF84000D4
:1007B00000208DF841008DF8420001208DF84300A3
:1007C00010A803F0BAFE012240F22441344801F09F
:1007D00063F90121324801F0A9F817B000BD10B546
:1007E00040F224412E4801F092F9002855D02C48BF
:1007F00000882B4880882C4803F0EDF830BB00219E
:10080000294803F0A5F8284803F0C5F8C0F11E00F8
:10081000274908601E202449091D0860081F006838
:1008200040F40020091F086001211F4803F090F8E0
:100830001F480068122830D11C4807F0CBFE00206A
:1008400008F001F8044608F07BF926E0002116487C
:1008500003F07EF8144803F09EF8C0F11E0014491E
:1008600008601E201049091D0860081F006820F458
:100870000020091F086001210B4803F069F80C48AB
:100880000068122809D109481E3007F0A3FE002095
:1008900007F0D9FF044608F053F910BD00040240E8
:1008A00000100140A0860100406402406A07002059
:1008B0004400002000B587B00121082002F0E3F9D0
:1008C0000121880402F026FA072208215F4802F07D
:1008D0003EFC072209215D4802F039FC4FF44070CC
:1008E000059002208DF818008DF8190000208DF871
:1008F0001A008DF81B0005A9544802F09DFB4FF427
:10090000E13001900020ADF80800ADF80A00ADF824
:100910000C00ADF810000C20ADF80E0001A94C48F9
:1009200000F07CFF01214A4801F000F8012240F26A
:100930002551474801F0B0F827208DF8000003202A
:100940008DF801008DF8020001208DF80300684643
:1009500003F0F3FD07B000BD10B53D48008800F07E
:10096000080020B13A49091D0988C8B200BF3848BB
:10097000008800F08000F0B135480C30008800F0AD
:100980008000C0B1334801780078401C314A1070B3
:100990003148405C2E49091D0880104600782F49D7
:1009A0000978884207D12A480C30008820F080005E
:1009B00027490C3108802648008800F0200038B113
:1009C0002348001D0088C4B2204608F0CEFE00BFB8
:1009D00010BD70B504460D4600BF40211C4801F013
:1009E00080F80028F9D0E1B2194800F0CAFF20468B
:1009F00070BD10B5044600BF2021154801F071F804
:100A00000028F9D0124800F0C0FF10BD70B50446B0
:100A10000D4600200AE0225C10490B780978491C39
:100A20000E4E31700C49CA54411CC8B2A842F2DBC8
:100A300007480C30008800F0800028B9012240F2FD
:100A40002771034801F028F870BD0000000C024037
:100A500000480040780600205D0C00207906002048
:100A600000B58BB00121082002F00DF901214806E4
:100A700002F050F90320099002208DF82800002090
:100A80008DF82A0003208DF8290001208DF82B0015
:100A900009A9EB4802F0D0FA09220121E84802F046
:100AA00056FB09220021E64802F051FB00208DF898
:100AB0001E008DF81F008DF8200001208DF8210008
:100AC00000208DF822008DF823008DF81A008DF893
:100AD0001B0005208DF81C0006208DF81D0003204A
:100AE000ADF8180006A9D74803F043F800208DF8A8
:100AF00012008DF8130001208DF814000020ADF8CD
:100B00000800ADF80A00ADF80C00ADF80E00ADF825
:100B1000100001208DF8150002A803F0B4F801229E
:100B20000221C84803F0AEFB14208DF80400012018
:100B30008DF8050000208DF8060001208DF80700D3
:100B400001A803F0FAFC0BB000BD00B585B002218E
:100B5000BC4803F0FFFB00287DD00221B94803F018
:100B600094FC6A460021B74803F071FAB649009830
:100B700008609DF80B00B54908709DF80C00B44959
:100B800008709DF80D00B34908709DF80E00B24939
:100B900008709DF80F00B14908709DF81000B04929
:100BA00008709DF81100AF4908709DF81200AE4919
:100BB0000870A7480078A549097840EA0120AB49A8
:100BC0000860A5480078A349097840EA0120A849AF
:100BD00008800846008800F40040A64908600846DE
:100BE0000068C0130860A2480088C0F30C00A24946
:100BF00008809F4800884FF6FF71081A9F490880B7
:100C00009F480068401C9E4908608F48006840F279
:100C1000052188422AD1954890ED000AB8EEC00A15
:100C2000984880ED000A90ED000ADFED970A20EE6B
:100C3000200ADFED960A80EE201A954880ED001A12
:100C40008A48006840F6FF71884205DB80219148A0
:100C500002F06EFA0AE0E4E08448006840F6FF71B2
:100C6000884203DA80218B4802F064FA76480068F3
:100C700040F2062188422BD17C4890ED000AB8EE64
:100C8000C00A854880ED000A90ED000ADFED7E0A7B
:100C900020EE200ADFED7D0A80EE201A7F4880EDED
:100CA000001A7248006840F29221884205DB4FF436
:100CB00080417B4802F03EFA0AE06C48006840F24E
:100CC0009221884204DA4FF48041754802F030FAEC
:100CD0005D48006840F2012188421BD166480088C7
:100CE00000EE100AB8EE400A6E4880ED000A614836
:100CF000006801280ED16148008800EE100AB8EEA5
:100D0000400A684880ED000A90ED000AB1EE400A02
:100D100080ED000A4C48006840F2022188421BD155
:100D20005548008800EE100AB8EE400A5E4880ED93
:100D3000000A5048006801280ED15048008800EE93
:100D4000100AB8EE400A584880ED000A90ED000AFB
:100D5000B1EE400A80ED000A3B48006840F20321F2
:100D600088421BD14448008800EE100AB8EE400AC1
:100D70004E4880ED000A3F48006801280ED13F48E8
:100D8000008800EE100AB8EE400A484880ED000ADC
:100D900090ED000AB1EE400A80ED000A2A48006892
:100DA000B0F5017F1BD13448008800EE100AB8EE80
:100DB000400A3F4880ED000A2E48006801280ED105
:100DC0002E48008800EE100AB8EE400A384880ED40
:100DD000000A90ED000AB1EE400A80ED000A1A48C0
:100DE000006840F2072188421BD12348008800EEAA
:100DF000100AB8EE400A2F4880ED000A1D4800682E
:100E000001280ED11D48008800EE100AB8EE400AF5
:100E1000284880ED000A90ED000AB1EE400A80ED0E
:100E2000000A05B000BDF0EE402A31EE600A82EE05
:100E3000803A72EE613AB0EE610A03EE230A70471F
:100E4000000C0240006400406800002060000020A8
:100E50006100002062000020630000206400002088
:100E60006500002066000020670000207000002060
:100E70004C0000206C0000204A00002048000020A8
:100E800074000020540000200000B443000000461D
:100E90005C0000200010024050000020580000209C
:100EA00000140240780000207C0000208000002018
:100EB000840000208800002001465048814201D271
:100EC000002070474E48814201D20820F9E74D4882
:100ED000814201D21020F4E74B48814201D2182010
:100EE000EFE74A48814201D22020EAE748488142A0
:100EF00001D22820E5E74748814201D23020E0E7CF
:100F00004548814201D23820DBE74448814201D282
:100F10004020D6E74248814201D24820D1E74148EB
:100F2000814201D25020CCE75820CAE72DE9FC5F6E
:100F300004460D4690464FF0080901200190002616
:100F40004FF0000A00274FF0000B00200090B4F192
:100F5000006F01D2BDE8FC9F02F070F9002002F0A2
:100F600050F9264604EB080A3046FFF7A5FF8346F2
:100F70005046FFF7A1FF00902B48864211D25F46F2
:100F80000BE00221384602F0A5F98146B9F1080FBD
:100F900002D00020019003E0083700988742F0D982
:100FA00000BFB9F1080F0ED10AE02978204602F0FF
:100FB0008CFA082802D00020019003E0641C6D1C0C
:100FC0005445F2D300BF012002F01BF902F043F9AF
:100FD0000198BFE70146087870472DE9F0410746C0
:100FE0000D461646002405E03846FFF7F3FF285566
:100FF0007F1C641CB442F7D3BDE8F08100400008B8
:101000000080000800C0000800000108000002087D
:1010100000000408000006080000080800000A0894
:1010200000000C0800000E080000FF1F00B58BB088
:101030000121084601F027FE0121082001F06AFE87
:101040000121080401F077FE0720099002208DF8A5
:10105000280003208DF8290009A93B4801F0ECFF86
:1010600002220021384802F072F80222012136489B
:1010700002F06DF803220221334802F068F8532091
:10108000ADF818000020ADF81A0044F62060079073
:101090000020ADF8200006A92C4800F02CFEA72067
:1010A000ADF818000020ADF81A004FF47A700790E0
:1010B0000020ADF8200006A9254800F01CFE702095
:1010C000ADF804000120ADF806000020ADF80800DE
:1010D0004FF47A7003900220ADF810000020ADF8B4
:1010E0001200ADF814004FF48070ADF8160001A99D
:1010F000164800F095FE01A9144800F0CAFE002031
:10110000039001A9124800F08BFE08210F4801F05E
:1011100014F808210D4801F019F808210C4801F0D5
:101120000CF80121094800F051FE0121084800F0A7
:101130004DFE0121054800F067FE0121044800F042
:1011400063FE0BB000BD000000000240000C004038
:101150000040014010B54FF4A06003F0E9F9FFF73B
:1011600065FFFFF7BBF9FFF721FA00F067F804F01D
:1011700091FF04F03DFCFFF737FAFFF771FCFFF732
:1011800099FAFFF797FB00F0D9F86420FFF7F2F91E
:1011900000F033F804F02CFC00F0B0F910BD0000B2
:1011A0001CB50121022001F06EFD0121022001F099
:1011B000B1FD3020009003208DF8050002208DF84D
:1011C000040001208DF807006946194801F034FF3A
:1011D00002220521164801F0BAFF02220421144818
:1011E00001F0B5FF02231A460321124801F0F7FA75
:1011F0000121104800F008FE1CBD47F6FF700D49A4
:1012000024310860704700210A4824300068A0F5A6
:10121000FE41FF3947F6FF70064A24321060064847
:101220000078012801D1084670474842FCE70000D9
:1012300000040240000400409400002000B587B084
:101240000121202001F01FFD0121080501F073FD9F
:101250004FF46070059002208DF8180000208DF882
:101260001A0003208DF8190000208DF81B0005A935
:10127000304801F0E1FE052207212E4801F067FF0A
:10128000052208212B4801F062FF05220921294887
:1012900001F05DFF0020ADF800004FF48270ADF862
:1012A00002000020ADF80400ADF80600ADF808001B
:1012B0004FF40070ADF80A003820ADF80C000020A3
:1012C000ADF80E000A20ADF8100069461A4803F088
:1012D00017FA0121184803F00DFB07B000BD10B547
:1012E0000446154800884FF6C77108401249088027
:1012F000084600882043088001210F4803F0FAFACD
:1013000010BD10B5044600BF02210B4803F0BCFB22
:101310000028F9D02146084803F06DFB00BF0121E9
:10132000054803F0B1FB0028F9D0034803F060FB47
:10133000C0B210BD001402400050014000B587B09B
:101340000121082001F09FFC0121480401F0E2FC8A
:1013500007220521644801F0FAFE072206216248AF
:1013600001F0F5FE6020059002208DF818008DF840
:10137000190000208DF81A008DF81B0005A95A48A5
:1013800001F05AFE4FF4E13001900020ADF8080062
:10139000ADF80A00ADF80C00ADF810000C20ADF867
:1013A0000E0001A9514800F039FA01214F4800F020
:1013B000BDFA012240F225514C4800F06DFB262079
:1013C0008DF8000002208DF801008DF80200012048
:1013D0008DF80300684603F0B0F807B000BD10B503
:1013E0004248008800F0080020B14049091D0988E2
:1013F000C8B200BF3D48008800F08000F0B13B4813
:101400000C30008800F08000C0B1394801780078C5
:10141000401C374A10703748405C3449091D088029
:101420001046007834490978884207D12F480C309B
:10143000008820F080002D490C3108802B4800885E
:1014400000F0200038B12948001D0088C4B22046B1
:1014500008F08BF900BF0821244800F092FA00BF81
:101460004021224800F03DFB0128F9D110BD70B5A4
:1014700004460D4600BF40211C4800F032FB002806
:10148000F9D0E1B2194800F07CFA204670BD10B5E1
:10149000044600BF2021154800F023FB0028F9D0A6
:1014A000124800F072FA10BD70B504460D460020D7
:1014B0000AE0225C10490B780978491C0E4E317005
:1014C0000C49CA54411CC8B2A842F2DB07480C3090
:1014D000008800F0800028B9012240F227710348FB
:1014E00000F0DAFA70BD0000000C02400044004039
:1014F000780600205D0C0020790600200EB5012141
:10150000880301F018FC0121042001F0BCFB00213C
:10151000022001F0A3F90120019000208DF80800BD
:101520000C208DF8090001208DF80A0001A802F0B6
:10153000B3F806208DF8000002208DF8010001208C
:101540008DF802008DF80300684602F0F6FF0EBD2C
:1015500010B5012002F006F938B104480068401CBB
:1015600002490860012002F00EF910BD00000020C1
:101570000CB50020019000907648006840F480305F
:101580007449086000BF7348006800F400300090A0
:101590000198401C0190009818B90198B0F5A04F2F
:1015A000F1D16C48006800F4003010B101200090C7
:1015B00001E0002000900098012846D165484030A5
:1015C000006840F08050634940310860624800681C
:1015D00040F44040604908605E48083000685D495A
:1015E000083108600846006840F40040086008467A
:1015F000006840F4A05008605848091F0860081FA0
:10160000006840F08070091F086000BF5148006802
:1016100000F000700028F9D040F2056050490860E1
:101620004C480830006820F003004A49083108603F
:101630000846006840F00200086000BF45480830D6
:10164000006800F00C000828F8D10CBD10B5454822
:10165000006840F47000434908603E48006840F06C
:1016600001003C49086000203A49083108603948C7
:1016700000683D490840374908603C48091D08603A
:10168000081F006820F48020091F086000203149ED
:101690000C310860FFF76CFF4FF000603149803972
:1016A000086010BD70B50020002202230024022132
:1016B000284D08352D6805F00C0020B1042806D00F
:1016C000082834D107E02A4D2A4E356033E02A4DF0
:1016D000284E35602FE01F4D2D1D2D68C5F3805419
:1016E0001C4D2D1D2D6805F03F0154B1224DB5FB59
:1016F000F1F5184E361D3668C6F3881605FB06F25E
:1017000009E01B4DB5FBF1F5124E361D3668C6F3E8
:10171000881605FB06F20F4D2D1D2D68C5F30145FA
:101720006D1C6B00B2FBF3F5124E356003E0104DFB
:10173000104E356000BF00BF064D08352D68C5F35B
:1017400003150E4E705D0B4D2D68C540094E35607A
:1017500070BD000000380240007000400C5440078B
:10176000003C024088ED00E0FFFFF6FE1030002450
:101770000024F40098000020001BB7009C0000200B
:1017800010B50446F748844208D10121102001F029
:1017900027FB0021102001F023FB3EE0F2488442A9
:1017A00009D10121480401F00AFB00214FF4003067
:1017B00001F005FB31E0ED48844209D101218804A4
:1017C00001F0FDFA00214FF4802001F0F8FA24E046
:1017D000E748844209D10121C80401F0F0FA002150
:1017E0004FF4002001F0EBFA17E0E248844209D1FF
:1017F0000121080501F0E3FA00214FF4801001F007
:10180000DEFA0AE0DC48844207D10121202001F001
:10181000E7FA0021202001F0E3FA10BD2DE9FF478F
:1018200005460E460024A14600BFA046B08900B17F
:1018300000BF2C8A24F44054F08804432C82AC89E5
:1018400041F20C608443B0883189084371890843B0
:101850000443AC81AC8A24F44074B0890443AC8264
:10186000684601F03FF9BF48854202D0C248854230
:1018700002D1DDF80C9001E0DDF80890A88900F4B1
:10188000004040B109EBC90000EB09103168490084
:10189000B0FBF1F707E009EBC90000EB0910316874
:1018A0008900B0FBF1F76420B7FBF0F004012009D8
:1018B000642101FB1078A88900F4004040B1322077
:1018C00000EBC800B0FBF1F000F00700044308E0B3
:1018D000322000EB08106421B0FBF1F000F00F00A3
:1018E00004432C81BDE8FF874FF4165101600021AD
:1018F0008180C18001810C2141810021818170475B
:1019000010B502460020108A20F470600B884C88C5
:1019100023438C882343CC8823431843108210BD73
:101920000021018041808180C180704721B182897E
:1019300042F40052828104E082894DF6FF731A401E
:1019400082817047028B02F47F420283028B0A433A
:101950000283704721B1828942F40042828103E010
:101960008289C2F30E028281704721B1828A42F4D9
:101970000062828204E0828A4FF2FF731A40828200
:101980007047C1F308028280704701468888C0F31F
:1019900008007047028A4FF6F0731A400282028AEA
:1019A0000A430282704721B1828942F00202828199
:1019B00004E082894FF6FD731A4082817047828964
:1019C0004FF2FF731A40828182890A4382817047F5
:1019D000028A4FF6DF731A400282028A0A430282A9
:1019E000704721B1028A42F48042028204E0028AF6
:1019F0004BF6FF731A4002827047818941F0010162
:101A00008181704721B1828A42F00802828204E01B
:101A1000828A4FF6F7731A4082827047028BD2B2E5
:101A20000283028B42EA01220283704721B1828A3B
:101A300042F02002828204E0828A4FF6DF731A406D
:101A40008282704721B1828A42F01002828204E0D1
:101A5000828A4FF6EF731A4082827047828A4FF66D
:101A6000FB731A408282828A0A438282704721B1C4
:101A7000828A42F00202828204E0828A4FF6FD737B
:101A80001A40828270471AB1838A0B43838202E034
:101A9000838A8B4383827047F0B503460024002677
:101AA0000025002040F66A17B94200D100BF184651
:101AB000C1F3421401F01F06012707FA06F5012CB5
:101AC00001D10C3004E0022C01D1103000E01430C0
:101AD0001AB107682F43076002E00768AF43076049
:101AE000F0BD02460020B1F5007F00D100BF138891
:101AF0000B400BB1012000E00020704701F40072A0
:101B0000B2F5007F00D100BFCA430280704770B5B4
:101B10000246002400230025002040F66A16B14248
:101B200000D100BFC1F3421501F01F03012606FAE0
:101B300003F3012D02D19689334006E0022D02D134
:101B4000168A334001E0968A33400C12012606FAC9
:101B500004F41688344013B10CB1012000E00020D9
:101B600070BD0000001001400044004000480040EB
:101B7000004C0040005000400014014010B500220D
:101B8000002340F66A14A14200D100BF0A120124CA
:101B90009440A3B2DC43048010BD000010B504469D
:101BA000FE48844208D10121084601F019F90021BC
:101BB000012001F015F99DE0B4F1804F08D1012119
:101BC000084601F0FCF80021012001F0F8F891E04E
:101BD000F348844208D10121022001F0F0F80021ED
:101BE000022001F0ECF885E0EE48844208D10121A2
:101BF000042001F0E4F80021042001F0E0F879E08D
:101C0000E948844208D10121082001F0D8F80021D8
:101C1000082001F0D4F86DE0E448844208D10121A5
:101C2000102001F0CCF80021102001F0C8F861E08C
:101C3000DF48844208D10121202001F0C0F80021B2
:101C4000202001F0BCF855E0DA48844208D1012197
:101C5000022001F0C5F80021022001F0C1F849E09E
:101C6000D548844209D10121080401F0B9F80021C6
:101C70004FF4803001F0B4F83CE0D048844209D100
:101C80000121480401F0ACF800214FF4003001F0CC
:101C9000A7F82FE0CA48844209D10121880401F045
:101CA0009FF800214FF4802001F09AF822E0C54807
:101CB000844208D10121402001F081F80021402018
:101CC00001F07DF816E0C048844208D1012180204F
:101CD00001F075F80021802001F071F80AE0BB489E
:101CE000844207D10121801501F069F80021A01577
:101CF00001F065F810BD00220288A84B98420ED072
:101D0000AC4B98420BD0B0F1804F08D0A44B984216
:101D100005D0A44B984202D0A34B984204D14FF671
:101D20008F731A404B881A43A04B984207D0A04BA0
:101D3000984204D04FF6FF431A400B891A430280A1
:101D40004B68C3620B880385944B984202D0994B31
:101D5000984201D18B7A03860123838270474FF02A
:101D6000FF31416000210180018141808172704713
:101D70000185828270470A46002101884FF68F73E1
:101D8000194011430180704741627047C16270473A
:101D90000146486A70470146088D704721B10288A4
:101DA00042F00202028004E002884FF6FD731A40FE
:101DB0000280704721B1028842F00402028004E0F0
:101DC00002884FF6FB731A400280704721B10288E7
:101DD00042F08002028004E002884FF67F731A40CE
:101DE0000280704702884FF6F7731A40028002881B
:101DF0000A430280704702884FF6FF431A40028070
:101E000002880A430280704721B1028842F0010231
:101E1000028004E002884FF6FE731A400280704789
:101E200070B5002400220023058C4FF6FE76354065
:101E30000584028C8388048B4FF68F752C40B51E69
:101E40002C400D882C43751E2A408D892A434D88CD
:101E50002A43524DA84202D0564DA84213D14FF604
:101E6000F7752A40CD892A434FF6FB752A408D88A5
:101E70002A434FF6FF652B404FF6FF552B400D8A46
:101E80002B434D8A2B43838004838D6845630284F2
:101E900070BD70B5002400220023058C4FF6EF764C
:101EA00035400584028C8388048B48F6FF752C40EE
:101EB0004FF6FF452C400D884FF6FF7606EA0525C4
:101EC0002C434FF6DF752A408D8906EA05152A4313
:101ED0004D8806EA05152A43304DA84202D0354DFB
:101EE000A8421DD14FF67F752A40CD894FF6FF7667
:101EF00006EA05152A434FF6BF752A408D8806EA83
:101F000005152A434FF6FF352B404FF2FF752B4046
:101F10000D8A06EA85052B434D8A06EA85052B4383
:101F2000838004838D688563028470BD70B500244E
:101F300000220023058C4FF6FF6635400584028C95
:101F40008388848B4FF68F752C404FF6FC752C40A0
:101F50000D882C434FF6FF552A408D894FF6FF76AA
:101F600006EA05252A434D8806EA05252A430B4D36
:101F7000A84202D00F4DA84238D14FF2FF752A4037
:101F8000CD894FF6FF7606EA05252A434FF6FF3541
:101F90002A408D8806EA05252A4319E00000014001
:101FA0000004004000080040000C00400010004009
:101FB0000014004000040140004001400044014082
:101FC0000048014000180040001C00400020004074
:101FD0004EF6FF752B404DF6FF752B400D8A06EA35
:101FE00005152B434D8A06EA05152B438380848310
:101FF0008D68C563028470BD70B500220023002483
:10200000058C4EF6FF7635400584038C8488828BE0
:1020100048F6FF752A404FF6FF452A400D884FF6D7
:10202000FF7606EA05252A434DF6FF752B408D897C
:1020300006EA05352B434D8806EA05352B43FE4D50
:10204000A84202D0FD4DA84208D14BF6FF752C40A6
:102050000D8A4FF6FF7606EA85152C43848082832D
:102060008D680564038470BD0021018041808180FA
:1020700081608181C18101824182704770B50346D0
:10208000002000241846183001258D40ACB21D8C6C
:10209000A5431D8409B108290AD100EB6100056838
:1020A0004FF68F76354005600568154305600FE0F3
:1020B0000D1FC5F34E052844056848F6FF763540E8
:1020C000056005684FF6FF7606EA0226354305608F
:1020D00070BD4163704781637047C163704701649D
:1020E00070470A460021018B4FF68F731940114348
:1020F000018370470A460021018B48F6FF7319409F
:102100004FF6FF7303EA02231943018370470A461F
:102110000021818B4FF68F731940114381837047E3
:102120000A460021818B48F6FF7319404FF6FF7372
:1021300003EA02231943818370470A460021018B79
:102140004FF6F77319401143018370470A46002187
:10215000018B4FF2FF7319404FF6FF7303EA02231E
:102160001943018370470A460021818B4FF6F773AC
:1021700019401143818370470A460021818B4FF239
:10218000FF7319404FF6FF7303EA0223194381835B
:1021900070470A460021018B4FF6FB73194011432B
:1021A000018370470A460021018B4FF6FF33194027
:1021B0004FF6FF7303EA02231943018370470A466F
:1021C0000021818B4FF6FB731940114381837047C7
:1021D0000A460021818B4FF6FF3319404FF6FF73FB
:1021E00003EA02231943818370470A460021018BC9
:1021F0004FF67F7319401143018370470A4600214F
:10220000018BC1F30E014FF6FF7303EA022319435A
:10221000018370470A460021818B4FF67F73194076
:102220001143818370470A460021818BC1F30E015F
:102230004FF6FF7303EA02231943818370470A466E
:102240000021018C4FF6FD73194011430184704742
:102250000A460021018C4FF6F7731940114301849F
:1022600070470A460021018C4FF6DF7319404FF684
:10227000FF7303EA02131943018470470A460021E1
:10228000018C4FF67F7319404FF6FF7303EA021378
:102290001943018470470A460021018C4FF6FF5311
:1022A00019404FF6FF7303EA022319430184704774
:1022B0000A460021018C4FF2FF7319404FF6FF735D
:1022C00003EA02231943018470470A460021018C66
:1022D0004DF6FF7319404FF6FF7303EA02331943BB
:1022E0000184704730B5002301248C40A3B2048CD4
:1022F0009C430484048C02FA01F5ADB22C4304849F
:1023000030BD30B5002304248C40A3B2048C9C4320
:102310000484048C02FA01F5ADB22C43048430BD70
:10232000828B4FF2FF331A408283828B4FF6FF730A
:1023300003EA01231A4382837047F0B50C46154621
:10234000002100220026078C4EF6FF7C07EA0C07CE
:102350000784818B028C4FF6FF7707EA043640F63C
:10236000FF4739404FF6FF7707EA052739434FF615
:10237000FF7707EA0337394345F6FF773A4046F4DB
:1023800080573A4381830284F0BD828B4FF6F3730A
:102390001A408283828B0A4382837047F0B50C46D1
:1023A0001546002100220026078C4FF6FF6C07EA35
:1023B0000C070784818B028C4FF6FF7707EA04260F
:1023C0004FF60C7739404FF6FF7707EA03172F4394
:1023D00039434FF2FF573A4046F480773A438183BE
:1023E0000284F0BD028B4FF2FF331A400283028B4E
:1023F0004FF6FF7303EA01231A4302837047F0B5D7
:102400000C461546002100220026078C4FF6EF7C73
:1024100007EA0C070784018B028C4FF6FF7707EA67
:10242000041640F6FF4739404FF6FF7707EA0337B7
:1024300039434FF6FF7703E00000014000040140FC
:1024400007EA052739434FF65F773A4046F0100711
:102450003A4301830284F0BD028B4FF6F3731A40B6
:102460000283028B0A4302837047F0B50C4615467F
:1024700000210022068C4FF6FE773E400684018B39
:10248000028C4FF60C7631407E1C06EA03162E4372
:1024900031434FF6F576324044F001063243018372
:1024A0000284F0BD70B505460C46208850B92389DA
:1024B000A28861882846FFF7D8FFE1882846FFF701
:1024C000CBFF25E0208804280AD12389A2886188CF
:1024D0002846FFF794FFE1882846FFF783FF17E0BF
:1024E000208808280AD12389A28861882846FFF716
:1024F00055FFE1882846FFF748FF09E02389A288B5
:1025000061882846FFF719FFE1882846FFF708FF92
:1025100070BD002101804180012181800021C180A6
:10252000018170472DE9F04105460C460026012740
:10253000608808B9022600E00026A088012801D1A1
:10254000022700E001272088A0B92389A28861889A
:102550002846FFF78AFFE1882846FFF77DFF238999
:102560003A4631462846FFF74AFFE1882846FFF7FA
:1025700039FF13E02389A28861882846FFF73FFFCF
:10258000E1882846FFF72EFF23893A463146284640
:10259000FFF76BFFE1882846FFF75EFFBDE8F0819B
:1025A0000146486B70470146886B70470146C86B0F
:1025B00070470146086C70470A884B881A438B881D
:1025C0001A43CB881A430B891A434B891A438B89C8
:1025D0001A43A0F844207047002101804180818087
:1025E000C180018141818181704731B1B0F84420BF
:1025F00042F40042A0F8442005E0B0F84420C2F3C1
:102600000E02A0F84420704721B1828842F00402F3
:10261000828004E082884FF6FB731A408280704704
:1026200021B1828842F00102828004E082884FF664
:10263000FE731A40828070471AB183890B438381ED
:1026400002E083898B438381704781827047024611
:102650000020138A0B400BB1012000E000207047DE
:10266000CA430282704730B502460020002300248E
:10267000158A05EA0103958905EA010413B10CB135
:10268000012000E0002030BDCA430282704741EAC9
:102690000203A0F8483070471AB183890B43838145
:1026A00002E083898B438381704721B1828842F0A5
:1026B0000802828004E082884FF6F7731A40828015
:1026C000704701894FF6F8721140018170470A4640
:1026D000002101894FF68F73194011430181704722
:1026E00030B504460D4629462046FFF7F0FF208905
:1026F00040F00700208130BD2DE9F04104460D4631
:1027000016461F46602D06D13B4601223146204623
:10271000FFF775FE05E03B46012231462046FFF7F4
:10272000A4FE29462046FFF7D2FF208940F007008B
:102730002081BDE8F08130B50C4600210189C9B285
:102740004FF6FF7505EA032515432543294301810B
:1027500030BD2DE9F04105460E4617469846002447
:1027600043463A4631462846FFF7E5FF2C894FF6A7
:10277000F870044044F007044FF68F70044044F0B2
:1027800070042C81BDE8F081F0B504460D46164674
:102790001F463B46324629462046FFF7CCFF20899C
:1027A00040F480402081F0BD82884FF68F731A403C
:1027B000828082880A438280704702894FF6F873CC
:1027C0001A40028102890A430281704702894FF64A
:1027D0007F731A40028102890A4302817047F0B573
:1027E0000C4615461E460021002200230189028B5B
:1027F000038C4FF6F877394021434FF6FC473A40B7
:1028000040F201173A434FF6DD773B404FF6FF7732
:1028100007EA06172F433B43018102830384F0BD7F
:1028200021B1828842F08002828004E082884FF6E3
:102830007F731A4082807047A0F8501070470000E4
:1028400010B50121880300F0CBFA00214FF480403D
:1028500000F0C6FA10BD1A490860704730B5002272
:102860008B071C0F0F2303FA04F2154B08338C104F
:1028700053F824309343124C08348D1044F825301B
:1028800023468C1053F824308C07240F00FA04F4EC
:1028900023430B4C08348D1044F8253030BD0949D2
:1028A00008607047084908607047002004492031DB
:1028B000096801F4807109B1012000E0002070472F
:1028C00000380140DC00274200042742F648006837
:1028D00040F00100F44908600020F3490831086025
:1028E000F1480068F1490840EF490860F048091DC7
:1028F0000860F048EC4984310860ED481038091D43
:102900000860E948006820F48020E749086000205A
:10291000E5490C310860E4498C31086070470021BA
:10292000E14A921C117011460870704710B50146BB
:102930000022002300204A11012A02D1DA4C236828
:1029400008E0022A03D1D84C7034236802E0D64C48
:102950007434236801F01F02012494401C400CB120
:10296000012000E0002010BD38B5002000900024B8
:10297000002500BF3120FFF7D9FF05460098401C15
:1029800000900098B0F5A04F01D0002DF2D031207A
:10299000FFF7CCFF08B1012400E00024204638BD39
:1029A00001460020C04A106820F0F80040EAC1004B
:1029B00010607047C049086070470021BA4A703201
:1029C00011701170012802D004280AD104E00121FD
:1029D000B54A7032117005E00521B34A70321170AA
:1029E00000E000BF00BF7047B4490860704770B591
:1029F000049C41EA82150126C6EB530645EA0645CA
:102A0000054345EA0465A84E361D356070BDAA49E8
:102A10000866704710B5830143EA016343EA027315
:102A2000A14C8434236010BDA3498866704710B55B
:102A3000830143EA016343EA02739B4C88342360B9
:102A400010BD9D49086770479B49C864704702469E
:102A50000020954B0833186820F0EC6042EA01032F
:102A60001843914B083318607047024600208E4B84
:102A70000833186820F0784042EA010318438A4B73
:102A800008331860704701460020874A08321068F2
:102A900020F0030008431060704783480830006846
:102AA00000F00C007047014600207F4A0832106891
:102AB00020F0F000084310607047014600207A4A79
:102AC0000832106820F4E050084310607047014657
:102AD0000020754A0832106820F4604040EAC100C6
:102AE00010607047F0B50021002200240225002666
:102AF00002236D4F08373F6807F00C0121B104290C
:102B000005D0082937D105E06D4F076036E06D4FDD
:102B1000076033E0644F3F1D3F68C7F38056624F44
:102B20003F1D3F6807F03F036EB1664FB7FBF3F7F9
:102B3000DFF874C10CF1040CDCF800C0CCF3881C85
:102B400007FB0CF40CE05E4FB7FBF3F7DFF858C15E
:102B50000CF1040CDCF800C0CCF3881C07FB0CF46F
:102B6000514F3F1D3F68C7F301477F1C7D00B4FBF9
:102B7000F5F7076002E0524F076000BF00BF4A4F01
:102B800008373F6807F0F00109094F4F7A5C076882
:102B9000D7404760444F08373F6807F4E051890A3F
:102BA000494F7A5C4768D74087603F4F08373F6896
:102BB00007F46041490B444F7A5C4768D740C760CF
:102BC000F0BD002100F44072B2F5407F0AD1364AD0
:102BD0000832116821F4F8113C4A02401143324A8C
:102BE00008321160304A70321268C0F30B031A4386
:102BF0002D4B70331A607047304944390860704774
:102C00002E494039086070473149086070470146D5
:102C10000020254A8C32106820F4401008431060D0
:102C2000704701460020204A8C32106820F4400092
:102C3000084310607047014600201B4A8C32106820
:102C400020F01F004A1E1043174A8C321060704754
:102C500001460020144A8C32106820F4F8504A1EB5
:102C600040EA0220104A8C32106070470146002072
:102C70000D4A8C32106820F44030084310607047D1
:102C800014490860704739B1074A3032126802436C
:102C9000054B30331A6006E0034A30321268824333
:102CA000014B30331A60704700380240FFFFF6EAEC
:102CB000103000240030002000004742800E4742C0
:102CC0000024F400001BB700AC000020FFFCFF0F45
:102CD0005C014742E011474229B1934A126802431E
:102CE000914B1A6004E0904A126882438E4B1A603E
:102CF000704739B18C4A121D126802438A4B1B1D62
:102D00001A6006E0884A121D12688243864B1B1D1A
:102D10001A60704739B1844A0C3212680243824B00
:102D20000C331A6006E0804A0C32126882437E4BF4
:102D30000C331A60704739B17B4A10321268024373
:102D4000794B10331A6006E0774A103212688243DA
:102D5000754B10331A60704739B1734A243A1268C0
:102D60000243714B243B1A6006E06F4A243A126812
:102D700082436D4B243B1A60704739B16A4A203A4E
:102D800012680243684B203B1A6006E0664A203A0C
:102D900012688243644B203B1A60704739B1624A23
:102DA0001C3A12680243604B1C3B1A6006E05E4A04
:102DB0001C3A126882435C4B1C3B1A60704739B165
:102DC000594A143A12680243574B143B1A6006E002
:102DD000554A143A12688243534B143B1A607047A9
:102DE00039B1514A103A126802434F4B103B1A60F6
:102DF00006E04D4A103A126882434B4B103B1A6072
:102E0000704739B1484A1C3212680243464B1C33A2
:102E10001A6006E0444A1C3212688243424B1C335B
:102E20001A60704739B1404A2032126802433E4B63
:102E300020331A6006E03C4A2032126882433A4B43
:102E400020331A60704739B1374A2432126802437E
:102E5000354B24331A6006E0334A24321268824329
:102E6000314B24331A60704739B12F4A2C32126823
:102E700002432D4B2C331A6006E02B4A2C32126889
:102E80008243294B2C331A60704739B1264A3032BD
:102E900012680243244B30331A6006E0224A303273
:102EA00012688243204B30331A607047012808D1E2
:102EB0001D493C31096841F008011B4A3C32116050
:102EC00007E019493C31096821F00801164A3C32F3
:102ED0001160704739B1144A273A12780243124BF5
:102EE000273B1A7006E0104A273A127882430E4BAD
:102EF000273B1A7070470C484030006840F08070E3
:102F0000094940310860704701460020064A283AC6
:102F100012680A400AB1012000E00020704702490F
:102F200026390870704700003438024010B5044656
:102F30009848844208D101210846FFF70DFF00217F
:102F40000120FFF709FF76E09348844208D1012170
:102F50000220FFF701FF00210220FFF7FDFE6AE0DB
:102F60008E48844208D101210420FFF7F5FE00219C
:102F70000420FFF7F1FE5EE08948844208D1012178
:102F80000820FFF7E9FE00210820FFF7E5FE52E0E8
:102F90008448844208D101211020FFF7DDFE002182
:102FA0001020FFF7D9FE46E07F48844208D1012176
:102FB0002020FFF7D1FE00212020FFF7CDFE3AE0D0
:102FC0007A48844208D101214020FFF7C5FE002144
:102FD0004020FFF7C1FE2EE07548844208D1012150
:102FE0008020FFF7B9FE00218020FFF7B5FE22E028
:102FF0007048844208D101218015FFF7ADFE002101
:10300000A015FFF7A9FE16E06B48844208D1012104
:103010004015FFF7A1FE00216015FFF79DFE0AE0B5
:103020006648844207D101210015FFF795FE002173
:103030002015FFF791FE10BDF0B50A4600210023D0
:10304000002400BF3DE0012505FA01F3156805EAFB
:1030500003049C4234D105684F000326BE40B543AB
:10306000056015794E00B540066835430560157951
:10307000012D02D01579022D16D185684F00032647
:10308000BE40B543856055794E00B54086683543EE
:103090008560456801268E40B54345604568967950
:1030A0008E40B6B235434560C5684F000326BE402A
:1030B000B543C560D5794E00B540C6683543C56097
:1030C000491C1029BFD3F0BD4FF6FF7101600021EC
:1030D000017141718171C171704708B54FF480323F
:1030E0000092009A0A430092009AC261C161009A5C
:1030F000C261C2690092C269009208BD0246002006
:1031000013690B400BB1012000E00020704701461D
:10311000086980B270470246002053690B400BB12A
:10312000012000E0002070470146486980B27047E6
:1031300001837047418370470AB1018300E04183F6
:1031400070474161704742694A4042617047F0B53B
:10315000002300244D07ED0E02FA05F3CE1000F116
:10316000200555F826504E07F70E0F26BE40B543F2
:10317000CF1000F1200646F82750CE1000F12005B0
:1031800055F8265045EA0304CE1000F1200545F815
:103190002640F0BD0000024000040240000802404A
:1031A000000C0240001002400014024000180240CF
:1031B000001C02400020024000240240002802407F
:1031C000FE4A1070704730B1FC49096841F48071C3
:1031D000FA4A116005E0F949096821F48071F74A5B
:1031E0001160704730B1F549096841F40071F34A44
:1031F000116005E0F149096821F40071EF4A11609E
:10320000704730B1ED49096841F48061EB4A1160C3
:1032100005E0EA49096821F48061E84A11607047D5
:10322000E648006840F40060E44908607047E348FD
:10323000006840F48050E14908607047DF48103072
:10324000006800F0004028B1DD48DC49091D086035
:10325000DC4808607047D9481030006840F00040F2
:10326000D6491031086070470820D4490C310968EC
:1032700001F48031B1F5803F01D1012018E0CF4940
:103280000C31096801F0100109B1052010E0CB49AB
:103290000C31096801F0EF0109B1062008E0C749C7
:1032A0000C31096801F0020109B1072000E0082093
:1032B000704708B508200090FFF7D6FF009002E0A5
:1032C000FFF7D2FF00909DF800000128F8D09DF88C
:1032D000000008BD70B504460A460026082502B95C
:1032E00009E0012A01D1160205E0022A01D11602E5
:1032F00001E04FF44076FFF7DCFF0546082D2DD1A5
:10330000AE481030006820F44070AC4910310860BD
:1033100008460068304308600846006820F0F8005E
:1033200008600846006844F002010843A3491031D0
:1033300008600846006840F480300860FFF7B9FF75
:1033400005469E481030006820F002009B4910316D
:1033500008600846006820F0F8000860284670BD44
:1033600030B5024600250824FFF7A3FF044602B942
:1033700009E0012A01D1150205E0022A01D1150256
:1033800001E04FF44075082C20D18C4810300068C3
:1033900020F44070894910310860084600682843CD
:1033A00008600846006840F00400086008460068AD
:1033B00040F480300860FFF77CFF04467F481030FF
:1033C000006820F004007D4910310860204630BDBF
:1033D00070B5064614461D460822FFF76AFF0246EE
:1033E000082A1ED175481030006820F440707349D7
:1033F000103108600846006840F4407008600846D4
:10340000006840F00100086034607560FFF751FF0C
:1034100002466A481030006820F001006749103108
:103420000860104670BD30B502460C460825FFF70F
:1034300040FF0546082D1DD160481030006820F47B
:1034400040705E49103108600846006840F4007022
:1034500008600846006840F0010008601460FFF74B
:1034600028FF054655481030006820F001005349F8
:1034700010310860284630BD30B502460C4608259C
:10348000FFF717FF0546082D1DD14C481030006886
:1034900020F440704949103108600846006840F443
:1034A000807008600846006840F0010008601480E1
:1034B000FFF7FFFE054641481030006820F001008C
:1034C0003E4910310860284630BD30B502460C46F2
:1034D0000825FFF7EEFE0546082D1BD137481030B2
:1034E000006820F4407035491031086008460068D3
:1034F00008600846006840F0010008601470FFF79B
:10350000D8FE05462D481030006820F001002B49F8
:1035100010310860284630BD28481430006800F09B
:10352000010028B12848254908310860274808606B
:10353000704722481430006840F001001F491431E0
:103540000860704730B502460C460825FFF7B1FE0B
:103550000546082D10D13CB118481630008890431C
:1035600016491631088007E014481630008891B2D9
:10357000084312491631088030BD10B502460824B0
:10358000FFF797FE0446082C02D10C481530027054
:1035900010BDF0B504460D46FF260827FFF789FE4B
:1035A0000746082F16D105481430007800F00F06A2
:1035B00045EA060010432043004909E0003C024070
:1035C00023016745AB89EFCD3B2A19087F6E5D4C1F
:1035D00014310870F0BD2849097821F00C01264A01
:1035E00011701146097801431170704700B5082227
:1035F0002148007840F002001F490870FFF759FE8B
:103600000246104600BD1C480068C0F347107047D2
:103610001948801C0088704700201749491C097808
:10362000AA2901D0012000E000207047124800784C
:1036300000F00C00704739B10F4A121F12680243A4
:103640000D4B1B1F1A6006E00B4A121F12688243C3
:10365000094B1B1F1A60704701460020064A083AB2
:1036600012680A400AB1012000E0002070470249B8
:103670000839086070470000143C024000204449AB
:103680000860091D0860091D0860091D086041489F
:103690003F4914310860704700213D498279002A72
:1036A0003AD00A46126803689A430B461A600A1D0C
:1036B000126803689A430B1D1A60027911440A6864
:1036C00003681A430A60324A0832126803689A4350
:1036D0002F4B08331A601A1D126803689A432C4B4B
:1036E0000C331A604279102A0ED11A1F126803682F
:1036F0001A43274B08331A601A1D126803681A43CD
:10370000234B0C331A600DE02149427911440A68B9
:1037100003681A430A6005E0027911440A680368E5
:103720009A430A6070470021016001710C214171C8
:103730000021817170471649103109680143144A0C
:1037400010321160704701460020114A143212688D
:103750000A400AB1012000E0002070470C491431F2
:1037600008607047014600200022094B1B6803EAED
:103770000102074B14331B680B4013B10AB101203F
:1037800000E00020704702491431086070470000D3
:10379000003C0140FFFF7F00016821F00101016052
:1037A0000021016041608160C160016121214161AE
:1037B000DB49884204D13D21D94A103A91608CE01E
:1037C000D7491831884205D14FF47461D44A103A70
:1037D000916082E0D2493031884205D14FF47411B2
:1037E000CF4A103A916078E0CD494831884205D1FE
:1037F0004FF07461CA4A103A91606EE0C849603176
:10380000884204D1C749C64A103AD16065E0C4492C
:103810007831884204D1C449C14A103AD1605CE091
:10382000BF499031884204D1C049BD4A103AD160A5
:1038300053E0BB49A831884205D14FF03D51B84A09
:10384000103AD16049E0BA49884204D13D21B84AD2
:10385000083A116041E0B6491831884205D14FF469
:103860007461B34A083A116037E0B1493031884297
:1038700005D14FF47411AE4A083A11602DE0AC49FD
:103880004831884205D14FF07461A94A083A116065
:1038900023E0A7496031884204D1A249A44A121FFB
:1038A00011601AE0A2497831884204D19E49A04AA9
:1038B000121F116011E09E499031884204D19B494A
:1038C0009B4A121F116008E09949A831884204D12F
:1038D0004FF03D51964A121F1160704710B50022FB
:1038E0000268944B1A40CC680B6823434C6923430D
:1038F0008C692343CC6923430C6A23434C6A2343DA
:103900008C6A23434C6B23438C6B23431A43026022
:10391000426922F00702D1E90B3423431A43426182
:103920000B6943604B6883608B68C36010BD0021E6
:10393000016041608160C160016141618161C1617B
:10394000016241628162C1620163416381637047C8
:1039500021B1026842F00102026003E0026822F035
:1039600001020260704721B1026842F40042026025
:1039700003E0026822F400420260704721B102684D
:1039800042F02002026003E0026822F0200202609E
:103990007047416070470146486880B2704722B165
:1039A000036843F40023036003E0036823F4002367
:1039B00003600161704721B1026842F48022026015
:1039C00003E0026822F48022026070470AB10161BC
:1039D00000E0C1607047014600200A6802F400223E
:1039E0000AB1012000E000207047014600200A686B
:1039F00002F001020AB1012000E0002070470146F8
:103A000000204A6902F03800704730B503460A4684
:103A100000200024464DAB4202D24149103901E05A
:103A20004349103902F000550DB14C6800E00C68B4
:103A3000414D2C4004EA02050DB1012000E00020B8
:103A400030BD02463A4B9A4202D23548103801E066
:103A50003748103801F000531BB1374B0B40C3609F
:103A600002E0354B0B408360704710B501F08003D6
:103A70004BB122B1436943F08003436103E04369E2
:103A800023F08003436180290BD02AB1036801F041
:103A90001E042343036004E0036801F01E04A343F3
:103AA000036010BD70B50246002000240025204EA2
:103AB000B24202D21A4B103B01E01D4B103B1F4E8D
:103AC0000E4036B11E2606EAD124166806EA040521
:103AD00002E0566906F0800501F000560EB15C6800
:103AE00000E01C68144E344004EA010616B10DB122
:103AF000012000E0002070BD02460D4B9A4202D228
:103B00000748103801E00A48103801F000531BB193
:103B1000094B0B40C36002E0074B0B4083607047CA
:103B2000106002403D000020400F002000003D20BA
:103B3000106402403F801CF07D0F7D0F3C0F3C0F56
:103B400010B50446FE48844209D101214806FFF71A
:103B500036F900214FF00070FFF731F908E001213C
:103B60008806FFF72CF900214FF08060FFF727F956
:103B700010BD30B5024600200023146824F0020472
:103B80001460146844F00104146000E05B1C546885
:103B900004F001041CB94FF6FF74A342F6D1546837
:103BA00004F001040CB900206CE08C79012C04D1E4
:103BB000146844F08004146003E0146824F0800466
:103BC0001460CC79012C04D1146844F040041460D2
:103BD00003E0146824F0400414600C7A012C04D132
:103BE000146844F02004146003E0146824F02004F6
:103BF00014604C7A012C04D1146844F01004146051
:103C000003E0146824F0100414608C7A012C04D1B1
:103C1000146844F00804146003E0146824F00804F5
:103C20001460CC7A012C04D1146844F004041460AC
:103C300003E0146824F0040414608C78A407CD78A1
:103C400044EA05640D7944EA05444D7944EA055493
:103C50000D886D1E2C43D461146824F00104146097
:103C6000002300E05B1C546804F001041CB14FF613
:103C7000FF74A342F6D1546804F001040CB1002093
:103C800000E0012030BD10B50021837A012202FA44
:103C900003F1AC4A126842F00102AA4B1A60A94A29
:103CA0001C3212688A43A74B1C331A60027BCAB9C4
:103CB000A44A0C3212688A43A24B0C331A60428821
:103CC000C38842EA03439F4A4032847A42F8343040
:103CD0000288838842EA03439A4A4032847A02EB9C
:103CE000C4025360027B012A19D1964A0C32126831
:103CF0000A43944B0C331A604288038842EA034318
:103D0000904A4032847A42F83430C288838842EA4A
:103D100003438C4A4032847A02EBC4025360C27A75
:103D20003AB9884A121D12688A43864B1B1D1A60D5
:103D300006E0844A121D12680A43824B1B1D1A605A
:103D4000028932B97F4A143212688A437D4B143398
:103D50001A600289012A06D17A4A143212680A438B
:103D6000784B14331A60427B012A06D1754A1C3203
:103D700012680A43734B1C331A60724A126822F0AD
:103D80000102704B1A6010BD00218171C171017276
:103D900041728172C1728170C1700321017102216F
:103DA00041710121018070476649096841F00101B4
:103DB000644A11601146096843F60E729143614AE4
:103DC00011601146096841EA002111601146096835
:103DD00021F001011160704721B1026842F4803284
:103DE000026003E0026822F4803202607047E1B1B1
:103DF000026842F0800202604FF4C272125842F42C
:103E000080734FF4C27213504FF4CA72125842F4C6
:103E100080734FF4CA7213504FF4D272125842F4A6
:103E200080734FF4D27213501BE0026822F08002BC
:103E300002604FF4C272125822F480734FF4C272BF
:103E400013504FF4CA72125822F480734FF4CA729E
:103E500013504FF4D272125822F480734FF4D2727E
:103E60001350704710B502460020936803F080633A
:103E7000B3F1806F00D110E0936803F00063B3F1F9
:103E8000006F01D1012008E0936803F08053B3F183
:103E9000805F01D1022000E00420042879D002F5DF
:103EA000C07303EB00131B6803F0010402F5C07339
:103EB00003EB00131C600B7A7BB94B7A0C8843EA46
:103EC000445302F5C07404EB00142468234302F544
:103ED000C07404EB0014236010E00B7A4C6843EAD2
:103EE000C4034C7A234302F5C07404EB0014246825
:103EF000234302F5C07404EB001423608B7A03F0B3
:103F00000F038B7202F5C07303EB00135B6823F0A1
:103F10000F0402F5C07303EB00135C6002F5C0737D
:103F200003EB00135B688C7A234302F5C07404EB47
:103F3000001463608B7B1C064B7B44EA034403E064
:103F400000640040006600400B7B44EA0323CC7A07
:103F5000234302F5C07404EB0014A3608B7C1C06A1
:103F60004B7C44EA03440B7C44EA0323CC7B23438D
:103F700002F5C07404EB0014E36002F5C07303EBB8
:103F800000131B6843F0010402F5C07303EB001338
:103F90001C6010BD10B50246002321B1012907D0D5
:103FA00002290FD109E09068F94C00EA04030BE004
:103FB0009068F84C00EA040306E09068F64C00EACA
:103FC000040301E0002300BF00BFF44C181BA34210
:103FD00016D007DC83B16FF08060184470B10228FE
:103FE00018D111E0B0F5007F10D0ED4C204448B15D
:103FF000B0F5003F0ED10BE002230DE000230BE0F3
:10400000002309E0002307E0012305E0012303E08A
:10401000012301E0002300BF00BFD8B210BD21B1D1
:10402000012907D002290FD109E0826842F08002FD
:1040300082600AE0826842F40042826005E08268A1
:1040400042F40002826000E000BF00BF704710B57C
:1040500000F5D87303EB01131B6803F0040313721C
:10406000137A53B900F5D87303EB01131B6840F2C0
:10407000FF7404EA5353136009E000F5D87303EBAF
:1040800001131B686FF0604404EAD303536000F52A
:10409000D87303EB01131B6803F00203537200F59E
:1040A000D87303EB01135B6803F00F03937200F501
:1040B000D87303EB01135B681B0AD37400F5D87344
:1040C00003EB01139B68D37200F5D87303EB011364
:1040D0009B681C0A147300F5D87303EB01139B68EB
:1040E0001C0C547300F5D87303EB01139B681B0E73
:1040F000937300F5D87303EB0113DB68D37300F5FA
:10410000D87303EB0113DB681C0A147400F5D87331
:1041100003EB0113DB681C0C547400F5D87303EB3C
:104120000113DB681B0E937421B9C36843F02003AD
:10413000C36003E0036943F02003036110BD21B9AC
:10414000C26842F02002C26003E0026942F020022D
:10415000026170470246002019B9D36803F00300DA
:1041600006E0012903D1136903F0030000E00020F9
:10417000704710B502460B4600204FF6FF71BBB9E1
:10418000146824F0020444F00104146000E0491EA5
:10419000546804F00304012C01D00029F7D15468BD
:1041A00004F00304012C01D0002032E0012030E0B3
:1041B000012B13D1146824F00304146000E0491E9D
:1041C000546804F003040CB10029F8D1546804F0D9
:1041D00003040CB100201CE001201AE0022B17D1CF
:1041E000146824F0010444F00204146000E0491E45
:1041F000546804F00304022C01D00029F7D154685C
:1042000004F00304022C01D0002002E0012000E0B1
:10421000002010BD014600200A6822F0010242F091
:1042200002020A604A6802F00302022A00D1012059
:10423000704701464FF6FF7200200B6823F002031F
:104240000B6000E0521E4B6803F00203022B01D109
:10425000002AF7D14B6803F00203022B00D00120A3
:104260007047014600208A6902F0700070470146DD
:1042700000208A69100E7047014600208A69C2F347
:10428000074070471AB143690B43436102E0436939
:104290008B434361704710B50246002001F4700360
:1042A00043B19369C1F3130423400BB101202DE006
:1042B00000202BE001F0807343B15368C1F3130475
:1042C00023400BB1012021E000201FE001F000633A
:1042D00043B19368C1F3130423400BB1012015E0EF
:1042E000002013E001F0007343B1D368C1F313045D
:1042F00023400BB1012009E0002007E01369C1F35E
:10430000130423400BB1012000E0002010BD002267
:10431000244B994202D10023836111E0C1F31302BF
:1043200001F000730BB1C2600AE001F080630BB1D1
:10433000026105E001F000630BB1826000E04260C1
:1043400070470246002002EA01030BB1012000E0A1
:104350000020704770B504460D460026606928406D
:10436000002872D0B5F5807F69D01DDC082D42D0C1
:1043700006DC012D2DD0022D31D0042D7FD134E06B
:10438000102D3ED0202D42D0402D78D145E00000A8
:1043900003000004000300080000031000010008EF
:1043A0000001FFF77000F030B5F5004F61D009DC77
:1043B000B5F5007F4AD0B5F5806F4DD0B5F5006FEB
:1043C0005DD150E0B5F5803F2DD0B5F5003F56D119
:1043D0002FE0A0685549FFF7B4FF064651E0E068BA
:1043E0000321FFF7AEFF06464BE0E0680821FFF728
:1043F000A8FF064645E0E0681021FFF7A2FF064649
:104400003FE020690321FFF79CFF064639E0206961
:104410000821FFF796FF064633E020691021FFF7D9
:1044200090FF06462DE060680821FFF78AFF0646E8
:1044300027E060681021FFF784FF064621E0A069AD
:104440000121FFF77EFF06461BE01BE0A069022169
:10445000FFF777FF064614E0A0690421FFF771FF1C
:1044600006460EE00BE0A0697021FFF76AFF0646E2
:1044700007E060680421FFF764FF064601E00026BC
:1044800000BF00E00026304670BDB1F5007F3AD095
:104490000FDC202928D006DC01291CD004291DD0DE
:1044A000082940D11DE0402921D0B1F5807F3AD1C3
:1044B00026E0B1F5004F31D006DCB1F5806F25D094
:1044C000B1F5006F2FD124E0B1F5803F12D0B1F5E6
:1044D000003F28D111E0154A826025E00822C26021
:1044E00022E01022C2601FE0082202611CE01022BC
:1044F000026119E00822426016E01022426013E0D7
:104500000422426010E0042242600DE00422426076
:104510000AE0002282610422426005E000228261FA
:104520000422426000E000BF00BF704701010100AB
:1045300032490143324A1160704770B500210023AF
:104540000F22C4781CB32E4C246804F4E064C4F534
:10455000E064C4F30721C1F10404E3B20A414478E2
:104560009C40E1B28478144021430C07210E254C75
:1045700005786155047804F01F050124AC400578E6
:104580006D11AD0005F1E025C5F8004109E00478A2
:1045900004F01F050124AC401B4D0678761145F848
:1045A000264070BD194A0A400243154B1B1F1A6072
:1045B000704739B1124A121D12680243104B1B1D7D
:1045C0001A6006E00E4A121D126882430C4B1B1D36
:1045D0001A607047042808D14FF0E021096941F0C2
:1045E00004014FF0E022116107E04FF0E02109697A
:1045F00021F004014FF0E022116170470000FA053C
:104600000CED00E000E400E080E100E080FFFF1F2F
:10461000704700BFFEE700BFFEE700BFFEE700BF38
:10462000FEE77047704770470948804709480047D0
:10463000FEE7FEE7FEE7FEE7FEE7FEE7FEE7FEE752
:10464000FEE7FEE704480549054A064B70470000AF
:104650004D16000889010008280E0020281A0020A5
:10466000281000202810002010B50446FB48844282
:1046700008D101218014FEF7B3FB0021A014FEF73E
:10468000AFFB3CE0F648844208D101210014FEF75C
:1046900096FB00212014FEF792FB30E0F1488442A3
:1046A00008D10121C013FEF78AFB0021E013FEF7B9
:1046B00086FB24E0EC48844208D101214014FEF737
:1046C0008FFB00216014FEF78BFB18E0E748844263
:1046D00009D101210805FEF783FB00214FF480106A
:1046E000FEF77EFB0BE0E248844208D10121480539
:1046F000FEF776FB00214FF40010FEF771FB10BDB2
:1047000010B50022028802F441520B884C882343E2
:104710008C882343CC8823430C8923434C8923432F
:104720008C892343CC8923431A430280838B4FF225
:10473000FF74234083830B8A038210BD2DE9F04F61
:104740000025022300244FF0010900220026002743
:1047500094469046B0F81CA04FF2400B0AEA0B0AB0
:10476000A0F81CA04FF0020AA0F820A0858BD1F879
:1047700008A0BAF1020F01D100BF82E0B1F804A095
:10478000BAF1000F02D14FF0010901E04FF0020928
:10479000DFF8E0A2DAF800A00AF4000ABAF1000F8C
:1047A00009D0DFF8D0A2DAF800A02AF4000ADFF876
:1047B000C4B2CBF800A0DFF8BCA20AF17C0ADAF898
:1047C00000A0CAF3881CDFF8ACA20AF17C0ADAF870
:1047D00000A0CAF30278DFF89CA2AAF1040ADAF872
:1047E00000A00AF03F07DFF88CA2AAF1040ADAF869
:1047F00000A00AF4800ABAF5800F08D1DFF878A289
:10480000BAFBF7FA0AFB0CFABAFBF8F607E0DFF896
:104810006CA2BAFBF7FA0AFB0CFABAFBF8F6B1F88D
:1048200006A0BAF5007F0ED14FEA162A0AEB8A0AD3
:104830004FEA4A0AD1F808B0BAFBFBFA0AF1050AB6
:104840001FFA8AF20FE04FEA491AB6FBFAFA0AEBAE
:104850008A0A4FEA4A0AD1F808B0BAFBFBFA0AF111
:10486000050A1FFA8AF24FF00A0AB2FBFAF202F0C6
:104870000104A2EB040ACAF34F034FF6FF7A0AEAD7
:104880000424022B01DBFF2B01DD02230024B1F8FD
:1048900006A04AEA040A4AEA030AA0F820A0B1F8EE
:1048A00004A0B1F80CB04AEA0B0AB1F802B04AEA27
:1048B0000B0AB1F800B04AEA0B0A4AF4006A4AEA65
:1048C00005058583BDE8F08F00210180418081804E
:1048D000C180018141818181C181072101827047AD
:1048E0000021018041808180C180022181600021FE
:1048F0008181704721B1028842F04002028004E0C9
:1049000002884FF6BF731A400280704721B1828B34
:1049100042F48062828304E0828B4FF6FF331A40B8
:104920008283704702884FF2FF731A400280028828
:104930000A4302807047B1F5804F04D1028842F4E7
:104940008042028004E002884BF6FF731A40028026
:1049500070474FF6FF62914204D0028842F48072A1
:10496000028004E002884FF6FF631A40028070471D
:1049700021B1828842F00402828004E082884FF6EE
:10498000FB731A408280704721B1828842F0100286
:10499000828004E082884FF6EF731A40828070476D
:1049A00030B500220023848B4FF240052C408483D5
:1049B00002240484828B0C88B4F5007F01D00C881B
:1049C00014B94FF4807308E00C88B4F5407F03D02D
:1049D0000C88B4F5807F00D100238C888D892C430E
:1049E0004D882C431C4344F400642243828330BD31
:1049F0000146888970478181704721B1028842F45D
:104A00000052028004E002884DF6FF731A400280D3
:104A10007047018841F480510180704702460020B0
:104A2000012901D0108B00E0908A70470146088A66
:104A300070471AB183880B43838002E083888B43DD
:104A40008380704730B5002400230C110125A54058
:104A5000ABB2AAB185881D43858014E000300140C7
:104A600000380040003C004000340140005001404C
:104A70000054014008380240001BB7000024F40035
:104A800085889D43858030BD0246002013890B40F8
:104A90000BB1012000E000207047CA43028170473B
:104AA000F0B50246002000240023002501F00F0786
:104AB0000126BE40B4B20B1101269E40B3B29688C7
:104AC00006EA03051689264016B10DB1012000E063
:104AD0000020F0BD10B5002201F00F040123A34017
:104AE0009AB2D343038110BDF0EE400AF6EE001AED
:104AF00060EEA11AB0EE611AB0EE600A10EE100A74
:104B0000FE49A1EB600000EE100A21EE002AF7EE4C
:104B1000081A42EE401A61EE801AB0EE610A704740
:104B200040B52DED048B002C45DA002D43DA94FBC3
:104B3000F5F6304606F05FF941EC190BB0EE490A84
:104B4000F0EE690A05F09CFDB0EE408AF0EE608A56
:104B50009FEDEB0B53EC102B51EC180B06F09CFA6D
:104B600014D89FEDE90AE94880ED000A9FEDE80AB4
:104B7000E84880ED000A9FEDE80AE84880ED000A69
:104B80009FEDE70AE74880ED000AEBE09FEDE60ABB
:104B9000DE4880ED000A9FEDE50ADE4880ED000A60
:104BA0009FEDE30ADD4880ED000A9FEDE20ADD4853
:104BB00080ED000AD6E0002C45DA002D43DD94FBA1
:104BC000F5F6304606F017F941EC190BB0EE490A3C
:104BD000F0EE690A05F054FDB0EE408AF0EE608A0E
:104BE0009FEDC70B53EC102B51EC180B06F054FA49
:104BF00014D89FEDD10AC54880ED000A9FEDC40A84
:104C0000C44880ED000A9FEDCD0AC44880ED000A3B
:104C10009FEDCB0AC34880ED000AA3E09FEDC60AD2
:104C2000BA4880ED000A9FEDC70ABA4880ED000A35
:104C30009FEDC50AB94880ED000A9FEDC40AB94846
:104C400080ED000A8EE0002C45DD002D43DD94FB55
:104C5000F5F6304606F0CFF841EC190BB0EE490AF4
:104C6000F0EE690A05F00CFDB0EE408AF0EE608AC5
:104C70009FEDA30B53EC102B51EC180B06F00CFA24
:104C800014D89FEDB30AA14880ED000A9FEDAB0A4E
:104C9000A04880ED000A9FED9E0AA04880ED000A22
:104CA0009FED990A9F4880ED000A5BE09FEDA90AFD
:104CB000964880ED000A9FEDA40A964880ED000A10
:104CC0009FEDA00A954880ED000A9FEDA20A954845
:104CD00080ED000A46E0002C44DD002D42DA94FB12
:104CE000F5F6304606F087F841EC190BB0EE490AAC
:104CF000F0EE690A05F0C4FCB0EE408AF0EE608A7E
:104D00009FED7F0B53EC102B51EC180B06F0C4F900
:104D100014D89FED910A7D4880ED000A9FED8F0A1F
:104D20007C4880ED000A9FED7A0A7C4880ED000AFD
:104D30009FED8B0A7B4880ED000A13E09FED860A09
:104D4000724880ED000A9FED7A0A724880ED000AF1
:104D50009FED840A714880ED000A9FED830A714837
:104D600080ED000ABDEC048B40BD30B585B0054632
:104D70000DF1120004A9031F03AACDE90010891F39
:104D800002A801F04CF9BDF8080078490880BDF888
:104D90000A004880BDF80C008880BDF80E0008812C
:104DA000BDF810004881BDF81200888195ED060A13
:104DB000BDEEC00A10EE100A00B2C88195ED070AD8
:104DC000BDEEC00A10EE100A00B2088295ED080A86
:104DD000BDEEC00A10EE100A00B2488200241DE0A9
:104DE000032C0BDA02A830F9140000EE100AB8EE1A
:104DF000C00A05EB840080ED000A0EE002A830F93D
:104E0000140000EE100AB8EEC00ADFED590A80EE79
:104E1000201A05EB840080ED001A641C062CDFDBF1
:104E200005B030BD00B52DED108B93B0374890ED37
:104E3000000AD0ED000A20EE200A8DED080A90ED60
:104E4000000A3448D0ED000A20EE200AB0EE40FA05
:104E50002E4890ED000A3148D0ED000A20EE200ADD
:104E6000F0EE40AA294890ED000A2E48D0ED000A45
:104E700020EE200A8DED070A264890ED000AD0EDBD
:104E8000000A20EE200AF0EE40FA90ED000A2348D6
:104E9000D0ED000A20EE200A8DED060A1D4890EDA7
:104EA000000A2048D0ED000A20EE200AB0EE40BAF9
:104EB0001A4890ED000AD0ED000A20EE200AF0EE2C
:104EC00040BA90ED000A1748D0ED000A20EE200A03
:104ED0008DED050A90ED000AD0ED000A20EE200AC3
:104EE0008DED040A234890ED030ADFED230A20EE3E
:104EF000200ADFED220A80EE201A41E0DF59375FF9
:104F0000000000000000F03F0AD7A3BBC80000204B
:104F1000A8C64BBECC000020BE9F7A3FD000002028
:104F20004ED111BCD40000206F1203BC7B140EBF05
:104F3000E17A543F6F1203BB0AD7A33B355E7ABFB9
:104F4000A69B443C68910DBFE17A54BF99BB16BB48
:104F500052499D3A99BB163B0AD7233B355E7A3FAF
:104F60006F12033C295C0FBFBC74933BD408002034
:104F700033330342E8070020DB0F4940000034438D
:104F8000FE4880ED001AFE4890ED040A5FED060A27
:104F900020EE200A5FED070A80EE201AF94880ED26
:104FA000001AF74890ED050A5FED0D0A20EE200A81
:104FB0005FED0E0A80EE201AF34880ED001AF048EB
:104FC00090ED000AF14880ED000AED4890ED010AED
:104FD000EF4880ED000AEA4890ED020AED4880EDC6
:104FE000000AE74890ED060AEB4880ED000AE44825
:104FF00090ED070AE94880ED000AE14890ED080AC3
:10500000E74880ED000AFBF74FFBE64908600846D9
:105010000068E549096888420CD3E2480068E24923
:105020000968401A00EE100AB8EE400ADFEDDF0A08
:10503000C0EE208ADB480068DB490860D348D0ED29
:10504000000A90ED001A60EE810AD14890ED001A36
:10505000D0ED001A41EE210ACE4890ED001AD0EDB5
:10506000001A41EE210AB0EE600AFFF73DFDB0EEF6
:10507000408AC64890ED000A20EE080A80ED000A3A
:10508000C34890ED000A20EE080A80ED000AC148EE
:1050900090ED000A20EE080A80ED000ABE48D0ED2F
:1050A000000A90ED001A60EE810ABC4890ED001AEB
:1050B000D0ED001A41EE210AB94890ED001AD0ED6A
:1050C000001A41EE210AB0EE600AFFF70DFDB0EEC6
:1050D000408AB14890ED000A20EE080A80ED000AEF
:1050E000AE4890ED000A20EE080A80ED000AAC48B8
:1050F00090ED000A20EE080A80ED000AA64890ED27
:10510000000AF0EE000A60EE200AB6EE000A30EE69
:105110006B1A9DED040A31EE400A20EE800A9F488A
:10512000D0ED000AB0EE001A60EE811ADDED060A3D
:105130009DED071A70EEC10A01EEA00A9848D0ED65
:10514000000AB0EE001A60EE810A3BEE2A1A00EE69
:10515000810A8DED110A904890ED000AF0EE000AE8
:1051600020EE201A9DED060ADDED070A30EE200A3A
:1051700021EE000A8948D0ED000AB0EE001A20EEB8
:10518000811AF6EE000A70EEEF1ADDED040A71EEF8
:10519000E00A01EE200A8248D0ED000AB0EE001AC3
:1051A00020EE811ADDED050A70EECF0A01EE200A2D
:1051B0008DED100A784890ED000AF0EE000A20EE1E
:1051C000200A7BEE6A0A60EE200A744890ED000A1D
:1051D000B0EE001A20EE011A9DED050A70EE0F1ACE
:1051E000B0EE600A01EE210A6D48D0ED000AB0EE83
:1051F000001A60EE810AB6EE001A31EE6F1A31EE37
:105200006B1AB0EE409A00EE819A9DED110A60EEA5
:10521000000A9DED100A40EE000A10EE901A0846B2
:1052200006F032F9CDE900019DED000B05F032FAF0
:105230008DED020B9DED020B51EC100B05F070FB98
:1052400009EE900AB0EE49AA3BEE6A0AF0EE000AB7
:1052500020EE200A8DED0F0A9DED050A3FEE000AB3
:10526000F0EE000A20EE200A8DED0E0A9DED080AF0
:1052700030EE6F0A70EE6B0A9DED040A30EE800A84
:105280008DED0D0AB0EE000A69EE800AB6EE000A56
:1052900030EE6B1A9DED040A31EE400A20EE800AD2
:1052A000B0EE4A9AF0EE000A69EE200A3BEE6A1A66
:1052B00000EE810A8DED0C0AB0EE000A29EE801A8C
:1052C0009DED060ADDED070A30EE600A21EE000AC8
:1052D000B0EE4A9AF0EE000A29EE201ADDED050A3A
:1052E0007FEE200A01EE200A8DED0B0AB0EE000AD7
:1052F00029EE800A7AEE8B0A20EE200AB0EE4A9A56
:10530000F0EE000A69EE200AB6EE001A31EE6F1ACE
:1053100031EE6B1A00EE810A8DED0A0A1C48D0EDC1
:10532000000A9DED0D0A60EE800A1A4890ED001A01
:105330009DED0E0A41EE400A184890ED001A9DEDD1
:105340000A0A21EE001A1648D0ED001A9DED0B0A4C
:1053500001EEC01A30EE81CA0E48D0ED000A9DED74
:105360000F0A60EE800A094890ED001A9DED0D0AC3
:1053700041EE400A0A4890ED001A19E0D8000020DA
:10538000E8070020DC000020E0000020E40000200E
:10539000E8000020EC000020F0000020F4000020D5
:1053A000F800002000010020FC0000200024F44947
:1053B0009DED0C0A21EE001AFE48D0ED001A9DED7D
:1053C0000A0A01EEC01A70EE81CAFB48D0ED000A4D
:1053D0009DED0E0A60EE800AF84890ED001A9DEDF2
:1053E0000F0A41EE400AF34890ED001A9DED0B0ABA
:1053F00021EE001AF248D0ED001A9DED0C0A01EEE4
:10540000C01A30EE81DAB5EEC0CAF1EE10FA57D00C
:10541000F5EEC0CAF1EE10FA52D0B5EEC0DAF1EEF8
:1054200010FA4DD09FEDE70A6CEE000AE64890EDC9
:10543000000A00EEA80A80ED000A9FEDE20A6CEE79
:10544000800AE24890ED000A00EEA80A80ED000A0A
:105450009FEDDC0A6DEE000ADD4890ED000A00EEDB
:10546000A80A80ED000ADB4890ED000AF0EE000A81
:1054700000EE8C0AD448D0ED000A30EE200AD54860
:1054800080ED000AD44890ED000AF0EE000A00EE2C
:10549000AC0ACE48D0ED000A30EE200ACE4880EDAE
:1054A000000ACE4890ED000AF0EE000A00EE8D0AE8
:1054B000C748D0ED000A30EE200AC84880ED000A47
:1054C000C74890ED000AB1EE400AC248D0ED000A8C
:1054D00020EE200AC348D0ED000ABF4890ED001A24
:1054E00000EEC10AC04890ED001ABC48D0ED001A89
:1054F000F0EE400A41EE610ABC4890ED000A00EE71
:10550000A80A8DED090A90ED000AB248D0ED000A14
:1055100020EE200AB348D0ED000AB04890ED001A02
:1055200000EE810AB048D0ED000AAB4890ED001AB9
:1055300000EEC10AAA48D0ED000AF0EE60DA40EEB3
:1055400028DAAA4890ED000AA348D0ED000A20EE20
:10555000200AA348D0ED000AA04890ED001A00EE02
:10556000C10AA148D0ED000A9A4890ED001A00EE59
:10557000810A9C48D0ED000AB0EE60EA00EE28EA0D
:105580009A4890ED000A9548D0ED000A20EE200AD6
:105590009348D0ED000A904890ED001A00EE810A81
:1055A0009048D0ED000A8B4890ED001A00EEC10A39
:1055B0008D48D0ED000AF0EE60EA40EE28EADDED1D
:1055C000090A60EEA00A4DEEAD0A4EEE0E0A4EEE4E
:1055D000AE0AB0EE600AFFF787FAB0EE408A9DEDA2
:1055E000090A20EE080A814880ED000A2DEE880A9B
:1055F0007B4880ED000A2EEE080A7A4880ED000A0A
:105600002EEE880A784880ED000A13B0BDEC108BAE
:1056100000BD10B504467648FFF7A7FBFFF702FC74
:10562000724890ED000A84ED000A6D4890ED000A82
:1056300084ED010A6B4890ED000A84ED020A6A4885
:1056400090ED000A84ED030A10BD10B52DED108B0E
:1056500004466848FFF7DDFF6748006805F014FF5F
:1056600041EC190B634890ED020AF8EE000A20EEB7
:10567000200AD0ED020A20EE200AD0ED030AB0EE97
:10568000001A60EE810A90ED031A00EEC10AF7EEEF
:10569000000A30EE200A10EE101A084605F0F4FE5B
:1056A00041EC1E0B534890ED010AF0EE000A20EE8B
:1056B000200AD0ED020A20EE200AD0ED000AB0EE5A
:1056C000001A60EE810A90ED031A00EE810A10EED6
:1056D000101A084605F0D8FE41EC1F0BB0EE4E1A2A
:1056E000F0EE6E1AB0EE4F0AF0EE6F0A04F0D0FE44
:1056F000B0EE40DAF0EE60DA51EC1D0B05F003F984
:1057000041EC1C0B9FED3D0B53EC102B05F0C6FB41
:1057100041EC1B0B9FED3B0B53EC102B05F0E6F916
:1057200041EC1A0B53EC192B05F02CF941EC180B3A
:1057300005F0F6F800EE100A84ED000A2D4890ED11
:10574000010AF8EE000A20EE200AD0ED030A20EE4E
:10575000200AD0ED000AB0EE001A60EE810A90ED4A
:10576000021A00EE810A10EE101A084605F08CFEAF
:1057700041EC1C0BB0EE4C0AF0EE6C0A04F06CFB32
:10578000B0EE40BAF0EE60BA51EC1B0B05F0BBF87E
:1057900041EC1A0B9FED190B53EC102B05F07EFB1F
:1057A00041EC190B9FED170B53EC102B05F09EF9F4
:1057B0002CE00000F0000020E4000020E8000020C1
:1057C000F40000200AD7233CBC000020C0000020C9
:1057D000C4000020D8000020DC000020E0000020F1
:1057E000CC000020D0000020D4000020C800002001
:1057F000E80700200C08002028010020000000001D
:105800000080664000000060FB21094041EC180B5D
:1058100005F086F800EE100A84ED010A684890ED64
:10582000010AF8EE000A20EE200AD0ED010A20EE6F
:10583000200AD0ED020AB0EE001A60EE810A90ED67
:10584000021A00EEC10AF7EE000A30EE200A10EE4E
:10585000101A084605F018FE41EC1B0B584890ED55
:10586000020AF0EE000A20EE200AD0ED030A20EE34
:10587000200AD0ED000AB0EE001A60EE810A90ED29
:10588000011A00EE810A10EE101A084605F0FCFD20
:1058900041EC1C0BB0EE4B1AF0EE6B1AB0EE4C0A5A
:1058A000F0EE6C0A04F0F4FDB0EE40AAF0EE60AA4F
:1058B0001FED2E0B53EC102B51EC1A0B05F0EEFAEA
:1058C00041EC190B1FED310B53EC102B05F00EF9C9
:1058D00041EC180B05F024F800EE100A84ED020AE2
:1058E000BDEC108B10BD00BF364890ED030A364862
:1058F00080ED040A334890ED040AB1EE400A3248C4
:1059000080ED050A2F4890ED050A2F4880ED060A24
:105910002E4890ED000A2E4880ED000A2D4890EDAB
:10592000000A2A4880ED000A2A4890ED000A27481C
:1059300090ED000A2648D0ED000A30EE600ADFED57
:10594000260AB4EEE00AF1EE10FA05DB23480068FF
:10595000401E2249086013E01C4890ED000A1C48D4
:10596000D0ED000A30EE600ADFED1D0AB4EEE00A69
:10597000F1EE10FA04D819480068401C1749086075
:10598000164800684FF4B471484300EE100AB8EEB0
:10599000C00A0E48D0ED000AB7EE001A01EE200A48
:1059A000104880ED000A0B4890ED010A0E4880ED8A
:1059B000000A084890ED020A0C4880ED000A704782
:1059C0000C080020E8070020E8080020040100205F
:1059D000100100201C0800200000A5432C0100201D
:1059E0000000A5C31C01002020010020240100208C
:1059F00000B585B001218803FDF79DF90121102034
:105A0000FDF741F90220039000208DF810008DF879
:105A1000120001208DF8130002208DF8110003A957
:105A20001B48FDF709FB01210420FCF717FF0220AA
:105A3000009000208DF804000C208DF80500012056
:105A40008DF806006846FDF727FE07208DF8080050
:105A500002208DF8090000208DF80A0001208DF841
:105A60000B0002A8FEF769FD05B000BD10B50220CD
:105A7000FDF778FE50B10220FDF770FE0220FDF721
:105A800082FE012003490870FFF72DFF10BD0000C2
:105A9000001002403001002070B505460C46402140
:105AA000FE48FDF747FB05F07F00FD4908700846FA
:105AB0000078FBF726FCFA4804700078FBF721FC1D
:105AC0004021F648FDF734FB002070BD10B50446B8
:105AD0004021F248FDF72EFB44F08000F1490870A8
