:020000040800F2
:10000000401600209D010008D12C00083D1F00086B
:10001000E52900083D0800085349000800000000D9
:10002000000000000000000000000000F53900089A
:100030005F1700080000000071310008B5010008DA
:10004000B7010008B7010008B7010008B7010008B0
:10005000B7010008B7010008B701000861170008E0
:10006000B7010008B7010008B7010008B701000890
:10007000B7010008B7010008B7010008B701000880
:10008000B7010008B7010008B7010008B701000870
:1000900035090008B7010008B7010008B7010008DA
:1000A000B7010008B7010008B7010008B701000850
:1000B000FD3C0008B70100081D3D0008B70100081D
:1000C000B7010008B7010008B7010008B701000830
:1000D000B70100083942000839440008B545000856
:1000E000B7010008B7010008B7010008B701000810
:1000F000B7010008B7010008B7010008B701000800
:10010000B7010008B7010008B7010008B7010008EF
:10011000B7010008B7010008A13E0008B7010008B8
:10012000B7010008B7010008B7010008B7010008CF
:10013000B7010008B7010008B7010008B7010008BF
:10014000B7010008B7010008B7010008B7010008AF
:10015000B7010008B7010008B7010008B70100089F
:10016000B7010008B7010008B7010008B70100088F
:10017000B7010008B7010008B7010008B70100087F
:10018000B7010008B7010008DFF80CD000F0F6FA5C
:1001900000480047214B00084016002006488047D1
:1001A00006480047FEE7FEE7FEE7FEE7FEE7FEE75C
:1001B000FEE7FEE7FEE7FEE7593C0008890100087C
:1001C00040EA01039B0703D009E008C9121F08C0D9
:1001D000042AFAD203E011F8013B00F8013B521E59
:1001E000F9D270472DE9FE4F804681EA0300C00F27
:1001F0000C46009021F0004123F00045B8EB0200CE
:10020000A94105D24046214690461C460B4602466F
:1002100023F00040104347D0270DC7F30A00C3F373
:100220000A510290401A019040286BDAC3F3130080
:1002300040F4801B0098924620B10023D2EB030AC1
:1002400063EB0B0B01985946C0F14002504600F099
:10025000CFF906460D4650465946019A00F0E7F997
:1002600010EB08006141002487EA115284EAE77329
:100270001A4340D0009A62B3019A012A4FEA07520A
:1002800015DC001B61EB02014FF0004202EA07524D
:10029000CDE90042001C41F5801132462B4600F0AA
:1002A0001EFA03B0BDE8F08F40462146F9E7001B77
:1002B00061EB0201001C41F5801300185B4120181E
:1002C000A2F5001747EB030140EAD570B6196D415E
:1002D00011E06D084FEA360645EAC0754FEA07524D
:1002E000001B61EB0201001C41F5801149084FEA37
:1002F00030000019514132462B4603B0BDE8F04FA3
:1003000000F0DEB90098012240000023D0EB020289
:1003100063EBE073009821464FEAE074B8EB00000D
:1003200061EB0401E9E783F000435BE781F0004102
:1003300058E72DE9FE4F81EA030404F0004421F060
:10034000004100944FF0000B23F0004350EA0104F9
:100350005ED052EA03045BD0C3F30A54C1F30A55DA
:100360002C44A4F2F3340194A0FB0254C1F3130112
:1003700041F48011C3F3130343F4801301FB0244DF
:1003800000FB034E840A970A44EA815447EA8357E4
:10039000A4FB076802958D0A05FB07854FEA932C9D
:1003A00004FB0C542705029D4FEA065847EA16370E
:1003B000B5EB08056EEB070C870E920E47EA811726
:1003C00042EA8312A7FB0201B6EB0B0164EB0004C7
:1003D0002B0D43EA0C335E1844EB1C50DA465146B1
:1003E000E7FB0201C5F313044FEA0B3343EA14534E
:1003F0004FEA0432019C43EA0603A4F10C04029480
:10040000009CCDE900B400F06AF903B0BDE8F08FBC
:1004100000200146F9E72DE9F04D81EA030404F0DC
:10042000004B21F0004514464FF0000A23F0004134
:1004300050EA050220D054EA01021DD0C5F30A5744
:100440000246C5F31303C1F31300C1F30A5640F487
:10045000801543F48013A7EB0608101BD64608F25C
:10046000FD3873EB050002D308F1010801E0921892
:100470005B41B8F1000F03DA00200146BDE8F08DC2
:1004800000204FF48011064684460EE0171B73EBE4
:10049000050705D3121B63EB050306434CEA010C69
:1004A00049084FEA300092185B4150EA0107EDD14C
:1004B00052EA030012D082EA040083EA05010843ED
:1004C00005D0101BAB4106D20122002306E000221A
:1004D0004FF0004302E06FF0010253101AEB0600E8
:1004E0004CEB085110EB0A0041EB0B01BDE8F04D5D
:1004F00000F0E6B80EB5C10F80EAE0700844CA0704
:10050000002140F233438DE80E000A460B4600F00E
:10051000E6F803B000BD0EB540F233410291002170
:10052000CDE900110A460B4600F0D9F803B000BD32
:10053000C1F30A5210B5C1F3130140F2FF3341F485
:1005400080119A4201DA002010BD40F233439A42F2
:10055000A2F2334203DC524200F059F810BD904041
:1005600010BD00F0004230F000400AD0C10D01F58E
:100570006071C0F3160042EA0151C20840071143FE
:10058000704700200146704730B5041E71F1000429
:1005900004DB4FF00044404264EB0101141E73F190
:1005A000000405DB1C464FF00043524263EB04039A
:1005B000994208BF904230BD01F0004330B421F0B1
:1005C000004150EA010206D00A0DA2F56072C1F3A3
:1005D0001301002A02DC30BC00207047440F44EABB
:1005E000C104C100E01830BC00EBC25000F031B8CB
:1005F000202A04DB203A00FA02F1002070479140E3
:10060000C2F1200320FA03F3194390407047202AD7
:1006100004DB203A21FA02F00021704721FA02F3AC
:10062000D040C2F120029140084319467047202A69
:1006300006DBCB17203A41FA02F043EAE07306E00A
:1006400041FA02F3D040C2F120029140084319461A
:1006500070470029A8BF7047401C490008BF20F020
:100660000100704710B4B0FA80FC00FA0CF050EAB8
:10067000010404BF10BC704749B1CCF1200421FA39
:1006800004F411FA0CF118BF012121430843A3EB34
:100690000C01CB1D4FEA00614FEA102042BF002041
:1006A00010BC704700EBC35010440029A4BF10BC1D
:1006B0007047401C490008BF20F0010010BC704783
:1006C00010B5141E73F1000408DA401C41F100015A
:1006D00092185B411A4301D120F0010010BD2DE9B1
:1006E000F04D92469B4611B1B1FA81F202E0B0FAA8
:1006F00080F220329046FFF77BFF04460F4640EA27
:100700000A0041EA0B0153465A46084313D01146EA
:1007100053EA010019D0C8F140025046FFF777FFB5
:1007200005460E46504659464246FFF761FF0843CC
:1007300005D0012004E020463946BDE8F08D0020B8
:10074000054346EAE0762C4337430A986305E40AFA
:10075000A0EB08000022FD0A44EA47540A3002D503
:1007600000200146E9E7010510196941DDE9084566
:1007700000196941BDE8F04DA2E70000064C074DA5
:1007800006E0E06840F0010394E807009847103461
:10079000AC42F6D3FFF7FCFC9C4C0008BC4C0008B4
:1007A00070B58C1810F8015B15F0070301D110F833
:1007B000013B2A1106D110F8012B03E010F8016B60
:1007C00001F8016B5B1EF9D12B0705D40023521EE3
:1007D0000DD401F8013BFAE710F8013BCB1A921C4B
:1007E00003E013F8015B01F8015B521EF9D5A14249
:1007F000D8D3002070BD10B54FF4A06002F0A6FA67
:1008000002F022FC01F038FF03F04AF801F0E4FFA7
:1008100002F020F800F014F803F06EFC03F074FE10
:1008200003F072FD03F016FB03F04AFA642004F0B3
:1008300068F901F07FF802F00DF810BD00BFFEE787
:1008400000B58BB00121082002F054FD01214806BB
:1008500002F060FD0320099002208DF8280000209E
:100860008DF82A0003208DF8290001208DF82B0037
:1008700009A92E4801F0C2F8092201212B4801F0F4
:1008800005F909220021294801F000F900208DF81E
:100890001E008DF81F008DF8200001208DF821002A
:1008A00000208DF822008DF823008DF81A008DF8B5
:1008B0001B0005208DF81C0006208DF81D0003206C
:1008C000ADF8180006A91A4800F091FC00208DF838
:1008D00012008DF8130001208DF814000020ADF8EF
:1008E0000800ADF80A00ADF80C00ADF80E00ADF848
:1008F000100001208DF8150002A800F05BFB01221A
:1009000002210B4800F06AFC14208DF8040001203D
:100910008DF8050000208DF8060001208DF80700F5
:1009200001A802F0D7F90BB000BD0000000C024096
:100930000064004000B52DED068B85B00221FE4815
:1009400000F0BCFB00287DD00221FB4800F0DEFA5D
:100950006A460021F84800F0D4FCF8490098086085
:100960009DF80B00F64908709DF80C00F5490870D9
:100970009DF80D00F44908709DF80E00F3490870C9
:100980009DF80F00F24908709DF81000F1490870B9
:100990009DF81100F04908709DF81200EF490870A9
:1009A000E8480078E649097840EA0120EC49086007
:1009B000E6480078E449097840EA0120E9490880DE
:1009C0000846008800F40040E749086008460068CF
:1009D000C0130860E3480088C0F30C00E3490880B6
:1009E000E04800884FF6FF71081AE149088042F29A
:1009F0005570E0490860D148006840F20121884202
:100A00003BD1D74890ED000AB8EEC00ADA4880ED35
:100A1000000A90ED000ADFEDD90A80EE201A9FED62
:100A2000D80A21EE000A80ED000A6946D54800F098
:100A300015FFD44890ED100AD34880ED000ACB484A
:100A4000008800E04DE200EE100AB8EE400ACF4800
:100A500080ED000AC448006801280ED1C44800880F
:100A600000EE100AB8EE400AC84880ED000A90ED8A
:100A7000000AB1EE400A80ED000AB048006840F27A
:100A80000221884239D1B64890ED000AB8EEC00A7A
:100A9000BF4880ED000A90ED000ADFEDB80A80EE55
:100AA000201A9FEDB70A21EE000A80ED000A694680
:100AB000B84800F0D3FEB74890ED100AB64880ED74
:100AC000000AAA48008800EE100AB8EE400AB348AF
:100AD00080ED000AA448006801280ED1A4480088CF
:100AE00000EE100AB8EE400AAC4880ED000A90ED26
:100AF000000AB1EE400A80ED000A96480078944959
:100B0000097840EA0120A64908800846008800F4D8
:100B10000040A449086008460068C0130860A04867
:100B20000088C0F30C00A04908809D4800884FF65B
:100B3000FF71081A9D4908809B48008898490880E1
:100B400098480068012802D1984800880880944895
:100B5000008800EE100AB8EE400A954880ED000AC1
:100B600076480068B0F5007F23D974480068B0F576
:100B7000017F1ED88E480068FFF7F3FC41EC1A0B8A
:100B80009FED8C0B53EC102BFFF745FC41EC190B40
:100B90009FED8A0B53EC102BFFF7CBFB41EC180BAE
:100BA000FFF70AFD65490968A1F20121854A42F86B
:100BB0002100844890ED000AD0ED010A30EE200AB1
:100BC000D0ED020A30EE200AD0ED030A30EE200A02
:100BD0007D4880ED000A0068FFF7C3FC41EC190B6B
:100BE0009FED7A0B53EC102BFFF7A3FB41EC180B96
:100BF000FFF7E2FC774908605048006840F20521A1
:100C0000884229D1564890ED000AB8EEC00A7248D1
:100C100080ED000A90ED000ADFED590A20EE200A6F
:100C2000DFED6E0A80EE201A6D4880ED001A4C4808
:100C3000006840F6FF71884204DB8021694800F0BB
:100C400048FF09E04648006840F6FF71884203DA31
:100C50008021644800F03FFF3848006840F20621D8
:100C600088422FD16946604800F0F8FD3C4890ED7D
:100C7000000AB8EEC00A5D4880ED000A90ED000A57
:100C8000DFED3F0A20EE200ADFED540A80EE201A45
:100C9000574880ED001A3248006840F2922188429D
:100CA00005DB4FF48041534800F013FF0AE02C4865
:100CB000006840F29221884204DA4FF480414D48A6
:100CC00000F009FF1D48006840F2012188421BD155
:100CD0002648008800EE100AB8EE400A464880ED2B
:100CE000000A2148006801280ED12148008800EE42
:100CF000100AB8EE400A404880ED000A90ED000A64
:100D0000B1EE400A80ED000A0C48006840F2022172
:100D1000884275D11548008800EE100AB8EE400AE6
:100D2000364880ED000A10480068012874D1104848
:100D3000008800EE100A64E0006400409800002083
:100D400090000020910000209200002093000020DD
:100D500094000020950000209600002097000020BD
:100D6000A0000020640000209C0000206200002001
:100D700060000020DC000020A400002000F8FF45F7
:100D80000000B443380B0020AC000020C800002055
:100D9000A80000207C0B0020B0000020CC00002028
:100DA0007C0000208C0000206600002068000020ED
:100DB00080000020000000000000D0400000000083
:100DC00000003440EC0700208800002000000000F4
:100DD0000000384084000020700000200000004621
:100DE0007800002000100240F40A00206C0000206F
:100DF0007400002000140240B4000020B80000205D
:100E00000AE0B8EE400A394880ED000A90ED000A89
:100E1000B1EE400A80ED000A3548006840F2032137
:100E200088421BD13348008800EE100AB8EE400A11
:100E3000314880ED000A3148006801280ED1304861
:100E4000008800EE100AB8EE400A2B4880ED000A38
:100E500090ED000AB1EE400A80ED000A24480068D7
:100E6000B0F5017F1BD12348008800EE100AB8EED0
:100E7000400A244880ED000A2048006801280ED16D
:100E80001F48008800EE100AB8EE400A1D4880EDA9
:100E9000000A90ED000AB1EE400A80ED000A144805
:100EA000006840F2072188421BD11248008800EEFA
:100EB000100AB8EE400A144880ED000A0F48006896
:100EC00001280ED10E48008800EE100AB8EE400A44
:100ED0000D4880ED000A90ED000AB1EE400A80ED69
:100EE000000A05B0BDEC068B00BD0000B800002074
:100EF0009800002062000020BC0000209C00002020
:100F000060000020C0000020C4000020B1F5007F78
:100F10003AD00FDC202928D006DC01291CD0042976
:100F20001DD0082940D11DE0402921D0B1F5807F96
:100F30003AD126E0B1F5004F31D006DCB1F5806F33
:100F400025D0B1F5006F2FD124E0B1F5803F12D04C
:100F5000B1F5003F28D111E0154A826025E0082252
:100F6000C26022E01022C2601FE0082202611CE081
:100F70001022026119E00822426016E0102242604D
:100F800013E00422426010E0042242600DE00422DB
:100F900042600AE0002282610422426005E00022F1
:100FA00082610422426000E000BF00BF7047000081
:100FB0000101010010B50021837A012202FA03F138
:100FC0003D4A126842F001023B4B1A603A4A1C3219
:100FD00012688A43384B1C331A60027BCAB9364AFE
:100FE0000C3212688A43344B0C331A604288C3882F
:100FF00042EA0343304A4032847A42F8343002886D
:10100000838842EA03432C4A4032847A02EBC402CA
:101010005360027B012A19D1274A0C3212680A4315
:10102000254B0C331A604288038842EA0343224A64
:101030004032847A42F83430C288838842EA0343DB
:101040001D4A4032847A02EBC4025360C27A3AB934
:10105000194A121D12688A43174B1B1D1A6006E0BD
:10106000154A121D12680A43134B1B1D1A60028990
:1010700032B9114A143212688A430F4B14331A6082
:101080000289012A06D10C4A143212680A430A4B1B
:1010900014331A60427B012A06D1074A1C321268B7
:1010A0000A43054B1C331A60034A126822F00102FE
:1010B000014B1A6010BD00000066004070B5044688
:1010C0000D46002660692840002871D0B5F5807F64
:1010D0005CD010DC082D35D006DC012D20D0022D8F
:1010E00024D0042D72D127E0102D31D0202D35D001
:1010F000402D6BD138E0B5F5004F60D009DCB5F577
:10110000007F49D0B5F5806F4CD0B5F5006F5DD14B
:101110004FE0B5F5803F2DD0B5F5003F56D12FE01B
:10112000A0682D4900F0F8F9064651E0E068032177
:1011300000F0F2F906464BE0E068082100F0ECF917
:10114000064645E0E068102100F0E6F906463FE07B
:101150002069032100F0E0F9064639E02069082102
:1011600000F0DAF9064633E02069102100F0D4F9E6
:1011700006462DE06068082100F0CEF9064627E01B
:101180006068102100F0C8F9064621E0A06901213D
:1011900000F0C2F906461BE0A069022100F0BCF98C
:1011A000064615E0A069042100F0B6F906460FE0F6
:1011B0000FE0A069702100F0AFF9064608E0606812
:1011C000042100F0A9F9064602E0FFE7002600BF6F
:1011D00000E00026304670BD010101001AB14369EC
:1011E0000B43436102E043698B434361704730B571
:1011F000024600200023146824F0020414601468DE
:1012000044F00104146000E05B1C546804F0010425
:101210001CB94FF6FF74A342F6D1546804F00104E0
:101220000CB900206CE08C79012C04D1146844F0D6
:101230008004146003E0146824F080041460CC7906
:10124000012C04D1146844F04004146003E01468D5
:1012500024F0400414600C7A012C04D1146844F08A
:101260002004146003E0146824F0200414604C7A15
:10127000012C04D1146844F01004146003E01468D5
:1012800024F0100414608C7A012C04D1146844F00A
:101290000804146003E0146824F008041460CC7A95
:1012A000012C04D1146844F00404146003E01468B1
:1012B00024F0040414608C78A407CD7844EA056413
:1012C0000D7944EA05444D7944EA05540D886D1EB4
:1012D0002C43D461146824F001041460002300E05E
:1012E0005B1C546804F001041CB14FF6FF74A34268
:1012F000F6D1546804F001040CB1002000E0012094
:1013000030BD10B500F5D87303EB01131B6803F073
:1013100004031372137A53B900F5D87303EB011366
:101320001B6840F2FF7404EA5353136009E000F5B0
:10133000D87303EB01131B686FF0604404EAD30316
:10134000536000F5D87303EB01131B6803F002032D
:10135000537200F5D87303EB01135B6803F00F03BE
:10136000937200F5D87303EB01135B681B0AD37407
:1013700000F5D87303EB01139B68D37200F5D873A3
:1013800003EB01139B681C0A147300F5D87303EB7D
:1013900001139B681C0C547300F5D87303EB011305
:1013A0009B681B0E937300F5D87303EB0113DB6886
:1013B000D37300F5D87303EB0113DB681C0A1474B4
:1013C00000F5D87303EB0113DB681C0C547400F5B3
:1013D000D87303EB0113DB681B0E937421B9C36848
:1013E00043F02003C36003E0036943F0200303617B
:1013F00010BD10B502460020936803F08063B3F17E
:10140000806F00D110E0936803F00063B3F1006FC8
:1014100001D1012008E0936803F08053B3F1805FAD
:1014200001D1022000E00420042874D002F5C0732A
:1014300003EB00131B6803F0010402F5C07303EB18
:1014400000131C600B7A7BB94B7A0C8843EA445337
:1014500002F5C07404EB00142468234302F5C07441
:1014600004EB0014236010E00B7A4C6843EAC403D9
:101470004C7A234302F5C07404EB00142468234320
:1014800002F5C07404EB001423608B7A03F00F03A1
:101490008B7202F5C07303EB00135B6823F00F043B
:1014A00002F5C07303EB00135C6002F5C07303EB3D
:1014B00000135B688C7A234302F5C07404EB0014BC
:1014C00063608B7B1C064B7B44EA03440B7B44EA42
:1014D0000323CC7A234302F5C07404EB0014A36009
:1014E0008B7C1C064B7C44EA03440B7C44EA0323BC
:1014F000CC7B234302F5C07404EB0014E36002F5D7
:10150000C07303EB00131B6843F0010402F5C073C2
:1015100003EB00131C6010BD0246002002EA010329
:101520000BB1012000E00020704721B1026842F0B9
:101530000102026003E0026822F0010202607047CB
:10154000016821F0010101600021016041608160BA
:10155000C1600161212141614A49884204D13D2194
:10156000484A103A91608CE046491831884205D1CA
:101570004FF47461434A103A916082E0414930313E
:10158000884205D14FF474113E4A103A916078E0D8
:101590003C494831884205D14FF07461394A103ACC
:1015A00091606EE037496031884204D13649354A4E
:1015B000103AD16065E033497831884204D133492B
:1015C000304A103AD1605CE02E499031884204D113
:1015D0002F492C4A103AD16053E02A49A831884259
:1015E00005D14FF03D51274A103AD16049E02949D1
:1015F000884204D13D21274A083A116041E025493B
:101600001831884205D14FF47461224A083A1160BA
:1016100037E020493031884205D14FF474111D4A1A
:10162000083A11602DE01B494831884205D14FF03E
:101630007461184A083A116023E016496031884203
:1016400004D11149134A121F11601AE0114978316F
:10165000884204D10D490F4A121F116011E00D4953
:101660009031884204D10A490A4A121F116008E0E9
:101670000849A831884204D14FF03D51054A121F54
:1016800011607047106002403D000020400F0020B4
:1016900000003D201064024021B1026842F4802223
:1016A000026003E0026822F480220260704722B1E7
:1016B000036843F40023036003E0036823F400237A
:1016C0000360016170470146486880B27047014677
:1016D00000200A6802F400220AB1012000E0002084
:1016E0007047000010B500220268134B1A40CC6806
:1016F0000B6823434C6923438C692343CC69234300
:101700000C6A23434C6A23438C6A23434C6B234368
:101710008C6B23431A430260426922F00702D1E92D
:101720000B3423431A4342610B6943604B68836067
:101730008B68C36010BD00003F801CF00021016079
:1017400041608160C160016141618161C16101628B
:1017500041628162C1620163416381637047704786
:1017600010B5022000F01CF850B1022000F00CF877
:10177000022000F00FF801200249087000F0C8F9BB
:1017800010BD000080010020014908607047000082
:10179000143C01400149086070470000143C0140BE
:1017A000014600200022074B1B6803EA0102054B9B
:1017B00014331B680B4013B10AB1012000E0002074
:1017C00070470000003C0140002123498279002A33
:1017D0003AD00A46126803689A430B461A600A1DFB
:1017E000126803689A430B1D1A60027911440A6853
:1017F00003681A430A60184A0832126803689A4359
:10180000154B08331A601A1D126803689A43124B6D
:101810000C331A604279102A0ED11A1F126803681D
:101820001A430D4B08331A601A1D126803681A43D5
:10183000094B0C331A600DE00749427911440A68DC
:1018400003681A430A6005E0027911440A680368D4
:101850009A430A6070470000003C014070B50022C6
:101860000023046844600C7BCD7A44EA05240460BC
:1018700004684568641BC460C4682B4DAC4207DA39
:10188000846B641C8463C46804F50054C4610EE076
:10189000C46841F64C55AC4207DD846B641E84631A
:1018A000C468A4F50054C46101E0C468C46105685B
:1018B000846B05EB4434846004688569641B00EE26
:1018C000104AB8EEC00ADFED190A20EE200A9FED9B
:1018D000181AC0EE010A846B4FF4B4756C4300EE25
:1018E000104AB8EEC00A30EE800A80ED100AC669D0
:1018F000047D651C057500F1200545F82460047D14
:10190000062C01D100240475002205E000F120041A
:1019100054F822402344521C062AF7DB062493FB8A
:10192000F4F4C46370BD0000B4E2FFFF0000B443F0
:101930000000004647F6FF7001490860704700004C
:101940002404004010B5044600EE104AB8EEC00A68
:10195000234880ED000A234890ED000A204880EDDE
:10196000010A01F0FDF91E4890ED0E0ADFED1E0A96
:10197000B4EEE00AF1EE10FA03DB9FED1B0A80EDF6
:101980000E0A174890ED0E0ADFED180AB4EEE00AD1
:10199000F1EE10FA03D89FED150A80ED0E0A1048FB
:1019A00090ED0E0ABDEEC00A10EE100A03B2104808
:1019B00090ED0E0ABDEEC00A10EE100A404202B2CF
:1019C0000C4890ED0E0ABDEEC00A10EE100A40421F
:1019D00001B2094802F0C0F8012003F092F810BDEE
:1019E0008C050020C400002000007A4500007AC564
:1019F000F00100209802002000640040F0B50A4683
:101A000000210023002400BF3DE0012505FA01F379
:101A1000156805EA03049C4234D105684F0003268B
:101A2000BE40B543056015794E00B54006683543A4
:101A300005601579012D02D01579022D16D1856822
:101A40004F000326BE40B543856055794E00B54032
:101A5000866835438560456801268E40B5434560FC
:101A6000456896798E40B6B235434560C5684F00EB
:101A70000326BE40B543C560D5794E00B540C66863
:101A80003543C560491C1029BFD3F0BDF0B5002314
:101A900000244D07ED0E02FA05F3CE1000F12005EB
:101AA00055F826504E07F70E0F26BE40B543CF100F
:101AB00000F1200646F82750CE1000F1200555F819
:101AC000265045EA0304CE1000F1200545F82640D3
:101AD000F0BD41837047018370474FF6FF7101608D
:101AE0000021017141718171C17170470148007815
:101AF000704700004606002001460B2903D2034828
:101B000000EB810070470020FCE70000BC060020CD
:101B10004B4890ED030A4B4880ED040A484890ED8D
:101B2000040AB1EE400A474880ED050A444890EDAA
:101B3000050A444880ED060A434890ED000A4348F0
:101B400080ED000A424890ED000A3F4880ED000A0F
:101B500090ED000A3D48D0ED000A30EE600ADFED5E
:101B60003D0AB4EEE00AF1EE10FA05DB3A480068EF
:101B7000401E3949086013E0334890ED000A3348AD
:101B8000D0ED000A30EE600ADFED340AB4EEE00A70
:101B9000F1EE10FA04D830480068401C2E49086065
:101BA0002D4800684FF4B471484300EE100AB8EEB7
:101BB000C00A2548D0ED000AB7EE001A01EE200A4F
:101BC000274880ED000A224890ED010A254880ED63
:101BD000000A254890ED000A244880ED000A1C48C0
:101BE00090ED020A224880ED000A1F4890ED000A9D
:101BF0001E48D0ED000A30EE600ADFED160AB4EEA2
:101C0000E00AF1EE10FA05DB1A480068401E194997
:101C1000086013E0144890ED000A1448D0ED000A63
:101C200030EE600ADFED0D0AB4EEE00AF1EE10FAD4
:101C300004D810480068401C0E4908607047000036
:101C40006C0800206C090020540100206001002075
:101C5000A00800200000A543780100200000A5C3D3
:101C60006C010020700100205C0100206801002050
:101C7000740100207C01002010B501700378047D00
:101C8000021D1355037DD35C447D125D43EA82023D
:101C90004270027D521C02F00F0282754378847DEF
:101CA000021D125D43EA02128270037D021DD35CA5
:101CB000447D125D934205D10D4A1268521C0C4BB3
:101CC0001A6002E000220A4B1A60094A1268282AA8
:101CD00003D3037D021DD25CC270027D4275027D7A
:101CE000521C0275027D102A01D10022027510BD1E
:101CF000B40600200148007870470000E10500208C
:101D0000274890ED000AFBEE030AB4EEE00AF1EE7C
:101D100010FA04D8BBEE030A80ED000A0DE020485B
:101D200090ED000AF3EE030AB4EEE00AF1EE10FAC9
:101D300003DBB3EE030A80ED000A194890ED010AB7
:101D40001848D0ED010A9FED181A70EEC10AB4EEE2
:101D5000E00AF1EE10FA09D890ED010ADFED120A5F
:101D600030EE600A0E4880ED010A17E00C4890ED55
:101D7000010A0C48D0ED010A9FED0B1A70EE810AA2
:101D8000B4EEE00AF1EE10FA08DB90ED010ADFEDA7
:101D9000060A30EE200A024880ED010A7047000072
:101DA0000C0C0020980200200000704210B52DEDB0
:101DB000068BF0EE40AAB0EE608AF0EE418AB0EEFB
:101DC000619AF0EE429AB0EE62AAB0EE691AF0EEB5
:101DD000680AB0EE6A0A01F0CDF900B20C49088039
:101DE000B0EE4A1AF0EE490AB0EE480A02F0B4FD2D
:101DF00000B2084908800648B0F90020084600886B
:101E0000404201B2044801F0FEFEBDEC068B10BD5D
:101E100020070020220700200064004010B504467F
:101E200000EE104AB8EEC00A1B4880ED000A1B48BD
:101E300090ED000A184880ED010A01F011F81648EB
:101E400090ED0E0ADFED160AB4EEE00AF1EE10FA9C
:101E500003DB9FED130A80ED0E0A0F4890ED0E0A8A
:101E6000DFED100AB4EEE00AF1EE10FA03D89FEDB0
:101E70000D0A80ED0E0A084890ED0E0ABDEEC00A6C
:101E800010EE100A01B20022074801F093FE012073
:101E900002F037FE10BD0000E4040020AC0000207A
:101EA00000007A4500007AC50064004010B5044681
:101EB00000EE104AB8EEC00A1B4880ED000A1B482D
:101EC00090ED000A184880ED010A00F0C9FF16489D
:101ED00090ED0E0ADFED160AB4EEE00AF1EE10FA0C
:101EE00003DB9FED130A80ED0E0A0F4890ED0E0AFA
:101EF000DFED100AB4EEE00AF1EE10FA03D89FED20
:101F00000D0A80ED0E0A084890ED0E0ABDEEC00ADB
:101F100010EE100A02B20021074801F04BFE01202A
:101F200002F0EFFD10BD000038050020B0000020D9
:101F300000007A4500007AC50064004000BFFEE75B
:101F400010B530216A2000F0E9FC0A2002F0D9FD2A
:101F50000D21242000F0E2FC0A2002F0D2FD0E2127
:101F6000282000F0DBFC0A2002F0CBFD8E2131207E
:101F700000F0D4FC0A2002F0C4FD01210B2000F087
:101F800075F8002000F055F8102801D0012010BD90
:101F90000A2002F0B6FD00210A2000F067F80A20AE
:101FA00000F047F808B10220F1E70A2002F0A9FD8D
:101FB00000210B2000F05AF80B2000F03AF808B18D
:101FC0000320E4E70A2002F09CFD2421412000F0D8
:101FD0004DF8412000F02DF8242801D00420D6E748
:101FE0000A2002F08EFDC021422000F03FF842207E
:101FF00000F01FF8C02801D00520C8E70A2002F031
:1020000080FD00212A2000F089FC0A2002F079FDE1
:102010000021342000F082FC0A2002F072FD06222A
:1020200003210E2000F098FC642002F06AFD0020DD
:10203000ADE770B504462146322000F06FFC0A205F
:1020400002F05FFD8021342000F068FC0A2002F0DD
:1020500058FD352000F03EFC05460021342000F0FC
:102060005DFC0A2002F04DFD284670BD70B50446A7
:102070000D4600212A2000F051FC022002F041FD13
:102080002146292000F04AFC022002F03AFD2946B0
:10209000642000F043FC022002F033FD81212A205D
:1020A00000F03CFC0A2002F02CFD70BD40B52DED87
:1020B000048B002C45DA002D43DA94FBF5F630460C
:1020C000FEF718FA41EC190BB0EE490AF0EE690A76
:1020D00002F0FEFCB0EE408AF0EE608A9FED860BC7
:1020E00053EC102B51EC180BFEF74EFA14D89FED61
:1020F000840A844880ED000A9FED830A834880EDBE
:10210000000A9FED830A834880ED000A9FED820A52
:10211000824880ED000AEBE09FED810A794880ED6E
:10212000000A9FED800A794880ED000A9FED7E0A43
:10213000784880ED000A9FED7D0A784880ED000A1E
:10214000D6E0002C45DA002D43DD94FBF5F6304651
:10215000FEF7D0F941EC190BB0EE490AF0EE690A2E
:1021600002F0B6FCB0EE408AF0EE608A9FED620BA2
:1021700053EC102B51EC180BFEF706FA14D89FED18
:102180006C0A604880ED000A9FED5F0A5F4880EDB1
:10219000000A9FED680A5F4880ED000A9FED660A1D
:1021A0005E4880ED000AA3E09FED610A554880ED8E
:1021B000000A9FED620A554880ED000A9FED600A13
:1021C000544880ED000A9FED5F0A544880ED000AF4
:1021D0008EE0002C45DD002D43DD94FBF5F6304606
:1021E000FEF788F941EC190BB0EE490AF0EE690AE6
:1021F00002F06EFCB0EE408AF0EE608A9FED3E0B7E
:1022000053EC102B51EC180BFEF7BEF914D89FEDD0
:102210004E0A3C4880ED000A9FED460A3B4880ED9F
:10222000000A9FED390A3B4880ED000A9FED340A11
:102230003A4880ED000A5BE09FED440A314880EDAA
:10224000000A9FED3F0A314880ED000A9FED3B0AEE
:10225000304880ED000A9FED3D0A304880ED000ACD
:1022600046E0002C44DD002D42DA94FBF5F63046C2
:10227000FEF740F941EC190BB0EE490AF0EE690A9D
:1022800002F026FCB0EE408AF0EE608A9FED1A0B59
:1022900053EC102B51EC180BFEF776F914D89FED88
:1022A0002C0A184880ED000A9FED2A0A174880ED95
:1022B000000A9FED150A174880ED000A9FED260AD7
:1022C000164880ED000A13E09FED210A0D4880EDCD
:1022D000000A9FED150A0D4880ED000A9FED1F0AC8
:1022E0000C4880ED000A9FED1E0A0C4880ED000AA4
:1022F000BDEC048B40BD0000000000000000F03F7A
:102300000AD7A3BB18010020A8C64BBE1C010020A1
:10231000BE9F7A3F200100204ED111BC2401002035
:102320006F1203BC7B140EBFE17A543F6F1203BBE4
:102330000AD7A33B355E7ABFA69B443C68910DBF8C
:10234000E17A54BF99BB16BB52499D3A99BB163BE3
:102350000AD7233B355E7A3F6F12033C295C0FBFDF
:10236000BC74933B2DE9F05F2DED0C8B05460F46B9
:1023700016469846DDE916949DED188ADDE919ABFD
:102380009FEDB40AF0EE408A9FEDB20AB0EE409A9B
:102390009FEDB00AF0EE409ADDE91B01401A40B211
:1023A000AD490870B9F1110F75D00ADCB9F10B0F06
:1023B00072D2DFE809F0DC2126ED2B3547ED303E07
:1023C0005000B9F1810F68D00CDCB9F1400F4BD04F
:1023D000B9F1410F62D0B9F1420F75D0B9F1800F58
:1023E0005AD14DE0B9F1820F6FD0B9F5807F6DD031
:1023F000B9F5806FF4D1B0E0B7EE000AF0EE408A94
:10240000C7E0BFEE000AF0EE408AC2E0BFEE000A6D
:10241000B0EE409ABDE0B7EE000AB0EE409AB8E0E8
:10242000BEEE000AB0EE409AB6EE000AF0EE408A28
:10243000AFE0B6EE000AB0EE409AB6EE000AF0EE5B
:10244000408AA6E0BEEE000AB0EE409ABEEE000A58
:10245000F0EE408A9DE0B6EE000AB0EE409ABEEE85
:10246000000AF0EE408A94E0604200EE100AB8EEF6
:10247000C00AF6EE000A20EE200AF0EE409A88E04C
:1024800000EE104AB8EEC00AF6EE000A20EE200A6E
:10249000F0EE409A7DE065E07AE018E0B6EE000AE2
:1024A000F0EE408A2046FEF725F841EC1B0B9FED2D
:1024B0006B0B53EC102BFDF73CFF41EC1A0BFEF7B6
:1024C0007BF809EE900A64E017E02CE041E0B6EEFC
:1024D000000AF0EE408A2046FEF70CF841EC1B0B98
:1024E0009FED600B53EC102BFDF723FF41EC1A0B13
:1024F000FEF762F809EE900A4BE0BEEE000AF0EE3D
:10250000408A2046FDF7F6FF41EC1B0B9FED530B75
:1025100053EC102BFDF70DFF41EC1A0BFEF74CF8B6
:1025200009EE900A35E0BEEE000AF0EE408A204641
:10253000FDF7E0FF41EC1B0B9FED4A0B53EC102B1A
:10254000FDF7F7FE41EC1A0BFEF736F809EE900A9C
:102550001FE00120454908721BE002204349087230
:10256000487216E0B7EE080AF0EE408A11E09FEDDF
:10257000390AF0EE408A9FED370AB0EE409A9FED9F
:10258000350AF0EE409A012038490872487200E09E
:1025900000BF00BF00EE104AB8EEC00A28EE800A65
:1025A00010EE101A0846FDF7DCFF9FED310B53ECDF
:1025B000102BFDF730FF41EC1B0B4046FDF7ABFF46
:1025C00053EC1B2BFDF70EFEFDF7B2FF2749C88029
:1025D00000EE106AB8EE400AF8EEC80A09EE200ACA
:1025E000BCEEC00A10EE100A8880CAF1000000EBB1
:1025F000C0003844488000EE105AB8EE400AF0EEB1
:10260000080A09EEA00A0BEBCB0000EE900AF8EEE8
:10261000E00A30EE200ABCEEC00A10EE100A088074
:102620000846408840F29461884202DB08460F4920
:1026300048800E484088B0F5B67F03DC4FF4B67092
:102640000A494880044890F90000BDEC0C8BBDE8B5
:10265000F09F000000000000E801002000000000E2
:102660000000E0BF000000000000E03FE80B002099
:102670009A9999999999E93F1CB50121202000F078
:1026800039FE0121102000F035FE0121802000F0EC
:1026900031FE0121402000F02DFE8020009001201D
:1026A0008DF8040000208DF8060003208DF8050049
:1026B00069462848FFF7A2F90820009001208DF80C
:1026C000040000208DF8060003208DF805006946FF
:1026D0002148FFF793F92020009001208DF8040095
:1026E00000208DF8060003208DF805006946194882
:1026F000FFF784F94FF48040009001208DF804002A
:1027000000208DF8060003208DF805006946134867
:10271000FFF774F94FF40050009002208DF8040088
:1027200000208DF8060003208DF8050069460C484E
:10273000FFF764F94FF400510948FFF7CCF9802105
:102740000448FFF7C8F94FF480410448FFF7C3F984
:102750001CBD000000100240001C0240001402409A
:1027600000180240002101607047000010B50446C7
:1027700004B910BD2078FF2825D1207AFE2822D167
:102780006078A17840EA0120C0F520700F490880E8
:10279000E078217940EA01200D4908804FF480411A
:1027A0000C48FFF796F90948008840F276218842E4
:1027B00002DD08460549088004480088062802DA38
:1027C00006200249088000BFD3E70000E200002095
:1027D000E60000200014024010B588B040200690AA
:1027E00001208DF81C0000208DF81E008DF81F00C0
:1027F00003208DF81D0006A91348FFF7FFF8FFF727
:102800009FFB0024182211496846FDF7D9FC64207B
:1028100002F077F9752000F05DF80D49087000BFEF
:102820000CE06A4602EB440251781DF8140000F0F7
:1028300075F8012002F065F9601CC4B20C2CF0DBC5
:10284000002008B010BD000000140240844C0008B5
:102850008101002000B585B00121880300F07AFDD8
:102860000121102000F046FD0220039000208DF889
:1028700010008DF8120001208DF8130002208DF851
:10288000110003A91248FFF7B9F80121042001F053
:10289000B3F80220009000208DF804000C208DF881
:1028A000050001208DF806006846FEF78DFF072021
:1028B0008DF8080002208DF8090000208DF80A002C
:1028C00001208DF80B0002A800F004FA05B000BD4D
:1028D0000010024010B5044640210D48FFF7F9F8FA
:1028E00044F080000B4908700846007801F02EF88B
:1028F000094908700748007801F028F8064908706F
:1029000040210348FFF7E7F80348007810BD0000B6
:1029100000140240840100208301002070B50546A8
:102920000C4640210A48FFF7D4F805F07F0009491A
:1029300008700846007801F009F80648047000782D
:1029400001F004F840210248FFF7C5F8002070BDEF
:10295000001402408201002070B504460E46154660
:1029600021462820FFF7DAFF022002F0CAF80A21E8
:102970002920FFF7D3FF022002F0C3F801216420D1
:10298000FFF7CCFF022002F0BCF844F080012520C4
:10299000FFF7C4FF022002F0B4F831462620FFF70B
:1029A000BDFF022002F0ADF803213420FFF7B6FF8F
:1029B000022002F0A6F803216720FFF7AFFF0220F4
:1029C00002F09FF881212A20FFF7A8FF062002F0DD
:1029D00098F845F080012720FFF7A0FF072002F0BC
:1029E00090F870BD00BFFEE770B504460D46FFF7D6
:1029F00081F9002878D0287800F0100040B14FF419
:102A00002570664908804FF448706549088007E0E2
:102A10004FF4FA70614908804FF42F7060490880C4
:102A2000287800F0010090B15E48016988475B4852
:102A3000008800EE900AF8EE600A20EE200ABDEE53
:102A4000C00A10EE100A00B2574908801AE0287830
:102A500000F0020098B15348016988474F48008848
:102A6000404200EE900AF8EEE00A20EE200ABDEEA9
:102A7000C00A10EE100A00B24B49088002E00020A4
:102A800049490880287800F0040098B14748016956
:102A9000884743480088404200EE900AF8EEE00A7A
:102AA00020EE200ABDEEC00A10EE100A00B23E4928
:102AB000488019E0287800F0080090B13B4801698F
:102AC00088473748008800EE900AF8EE600A20EE4A
:102AD000200ABDEEC00A10EE100A00B2324948804A
:102AE00002E0002030494880FFF704F902283CD179
:102AF000B4F9000010F1960F03DC6FF09500208010
:102B000005E0B4F90000962801DB96202080B4F996
:102B1000020010F1960F03DC6FF09500608005E075
:102B2000B4F90200962801DB96206080204890EDE1
:102B3000000AB4F9020000EE900AF8EEE00A9FEDF8
:102B40001D1A00EEC10A1A4880ED000A90ED010A34
:102B5000B4F9000000EE900AF8EEE00A9FED151AB5
:102B600000EE810A124880ED010AB4F9020000EE7D
:102B7000100AB8EEC00A0E4880ED040AB4F900004D
:102B800000EE100AB8EEC00A094880ED050AFFF70A
:102B9000B7F8204600F010F870BD0000B80600201D
:102BA000BA060020900600203C0600206C0600209B
:102BB0000C0C0020CDCCCC3C70B5044600253F4821
:102BC000007820B1012812D0022873D14FE0E079BB
:102BD00060B9607A012809D1002000F041FF38482F
:102BE00081698847012035490870002562E0607AD4
:102BF000012802D1681C05B200E00025322D0FDD4E
:102C000000202E4908704FF47A702E490860091D83
:102C100008602B4881698847002000F021FF25E0EB
:102C2000274801698847DFED280A9FED281A41EE01
:102C3000000ABCEEE00A10EE100A224908602048A3
:102C400001698847DFED200A9FED201A41EE000A56
:102C5000BCEEE00A10EE100A1A49091D0860184877
:102C6000016A884710B102201449087022E0607A96
:102C7000012802D1681C05B200E00025322D0FDDCD
:102C800000200E4908704FF47A700E490860091D43
:102C900008600B4881698847002000F0E1FE08E0E9
:102CA000207A012802D100F0DBFE02E0002000F0D3
:102CB000D7FE00BF00BF607AE07170BD44060020FF
:102CC00048060020340C004000007A4400001644FE
:102CD0007047000070B5002100230F22C4781CB398
:102CE000174C246804F4E064C4F5E064C4F30721DD
:102CF000C1F10404E3B20A4144789C40E1B2847813
:102D0000144021430C07210E0E4C057861550478C0
:102D100004F01F050124AC4005786D11AD0005F1EC
:102D2000E025C5F8004109E0047804F01F050124FE
:102D3000AC40054D0678761145F8264070BD000080
:102D40000CED00E000E400E080E100E00249014316
:102D5000024A1160704700000000FA050CED00E027
:102D600090ED030A80ED020A90ED000AD0ED010A11
:102D700030EE600A80ED030A90ED040AD0ED030AFC
:102D800030EE200A80ED040A90ED060AD0ED0C0A20
:102D9000F1EE600AB4EEE00AF1EE10FA06D890ED1A
:102DA0000C0AB1EE400A80ED060A0CE090ED060A2E
:102DB000D0ED0C0AB4EEE00AF1EE10FA03DB90ED70
:102DC0000C0A80ED060A90ED050AD0ED030A20EE0C
:102DD000200AD0ED060A90ED041A00EE810AD0ED2B
:102DE000030A90ED021A70EEC10A90ED071A01EE87
:102DF000200A80ED0E0A90ED0E0AD0ED0F0AF1EEDA
:102E0000600AB4EEE00AF1EE10FA06D890ED0F0A6F
:102E1000B1EE400A80ED0E0A0CE090ED0E0AD0ED06
:102E20000F0AB4EEE00AF1EE10FA03DB90ED0F0AA0
:102E300080ED0E0A704700009FED080A80ED020A3F
:102E40009FED060A80ED030A9FED040A80ED040A57
:102E50009FED020A80ED0E0A70470000000000009E
:102E60006A49096840F20122914202D1684991ED14
:102E7000000A6649096840F20222914204D165497C
:102E8000D1ED000AB0EE600AD0ED030AC0ED020AEF
:102E9000D0ED000A90ED011A70EEC10AC0ED030AF0
:102EA000D0ED040A90ED031A70EE810AC0ED040A19
:102EB000D0ED030A584991ED001A60EE810A90EDB9
:102EC000041A5649D1ED001A41EE810A90ED031A19
:102ED000D0ED021A31EE611A5149D1ED001A41EEDE
:102EE000810A5049C1ED000A4F49D1ED000A4F490E
:102EF000C1ED000A4B49D1ED000A70EEC00A4A4903
:102F0000C1ED000A4A49D1ED000A474991ED001A86
:102F100070EE810A4649C1ED000A4649D1ED000A2A
:102F2000414991ED001A60EE810A434991ED001A82
:102F30003F49D1ED001A41EE210A3B4991ED001ABB
:102F40003A49D1ED001A31EE611A3C49D1ED001A2F
:102F500041EE810AC0ED0E0AD0ED0E0A90ED0F1A77
:102F6000B1EE411AF4EEC10AF1EE10FA06D8D0ED36
:102F70000F0AF1EE600AC0ED0E0A0CE0D0ED0E0A69
:102F800090ED0F1AF4EEC10AF1EE10FA03DBD0ED6A
:102F90000F0AC0ED0E0AD0ED0E0A9FED291AF4EECD
:102FA000C10AF1EE10FA03DDDFED250AC0ED0E0ACD
:102FB000D0ED0E0A9FED231AF4EEC10AF1EE10FADD
:102FC00003D2DFED200AC0ED0E0AD0ED0E0A90ED1F
:102FD0000F1AB1EE411AF4EEC10AF1EE10FA06D85A
:102FE000D0ED0F0AF1EE600AC0ED0E0A0CE0D0ED54
:102FF0000E0A90ED0F1AF4EEC10AF1EE10FA03DB9F
:10300000D0ED0F0AC0ED0E0A7047000098000020B6
:10301000C8000020CC000020F8060020FC0600209C
:1030200000070020100700201807002014070020C8
:103030001C07002004070020080700200C070020C0
:1030400000409C4500409CC500B58BB0012108465E
:1030500000F050F90121082000F05CF9012108047A
:1030600000F078F90720099002208DF8280003204D
:103070008DF8290009A93B48FEF7C0FC0222002177
:103080003848FEF703FD022201213648FEF7FEFC18
:10309000032202213348FEF7F9FC5320ADF8180053
:1030A0000020ADF81A0044F6206007900020ADF82B
:1030B000200006A92C4800F0DDFFA720ADF818007D
:1030C0000020ADF81A004FF47A7007900020ADF898
:1030D000200006A9254800F0CDFF7020ADF80400BF
:1030E0000120ADF806000020ADF808004FF47A701A
:1030F00003900220ADF810000020ADF81200ADF8EA
:1031000014004FF48070ADF8160001A9164800F0C5
:1031100009FF01A9144800F04DFF0020039001A908
:10312000124800F0FFFE08210F4800F039FF082187
:103130000D4800F091FF08210C4800F031FF0121FB
:10314000094800F0BFFE0121084800F0BBFE012144
:10315000054800F0C9FE0121044800F0C5FE0BB08F
:1031600000BD000000000240000C00400040014093
:103170007047000071EE401A4D4991ED002A71EE42
:10318000821AC1ED001AD1ED001A9FED4A2AF4EE21
:10319000C21AF1EE10FA04DDDFED461AC1ED001A95
:1031A0000DE04349D1ED001A9FED432AF4EEC21A17
:1031B000F1EE10FA03D2DFED401AC1ED001A3F49DB
:1031C000D1ED001A71EE611A3D49C1ED001A71EEA0
:1031D000401A3C4991ED002AB1EE422A61EE821A72
:1031E000394991ED002A3249D1ED002A42EE221AE6
:1031F000364991ED002A3249D1ED002A42EE221AD9
:103200003349C1ED001A2D4981ED001A3049D1ED45
:10321000001AF1EE611AB1EE022A40EE821A2D492F
:1032200091ED002A61EE821A2B49C1ED001A2B495B
:10323000D1ED001A70EEE11A294991ED002A61EEF4
:10324000821A2849C1ED001A2349D1ED001A2549F7
:1032500091ED002A71EE821A2349C1ED001A1F492F
:10326000C1ED000A2049D1ED001A9FED202AF4EEAD
:10327000C21AF1EE10FA03DBDFED1C1AC1ED001AE1
:103280001949D1ED001A9FED1A2AF4EEC21AF1EE97
:1032900010FA03D8DFED161AC1ED001A1249D1ED6C
:1032A000001AFDEEE11A11EE901A08B27047000004
:1032B0002407002000007A4400007AC42807002078
:1032C0002C07002034070020380700203C0700208E
:1032D000300700204C07002044070020540700203E
:1032E00050070020480700205807002000A08C4508
:1032F00000A08CC529B1064A12680243044B1A602B
:1033000004E0034A12688243014B1A6070470000D0
:103310003038024029B1064A12680243044B1A6051
:1033200004E0034A12688243014B1A6070470000B0
:103330004038024029B1064A12680243044B1A6021
:1033400004E0034A12688243014B1A607047000090
:103350002038024029B1064A12680243044B1A6021
:1033600004E0034A12688243014B1A607047000070
:103370004438024029B1064A12680243044B1A60DD
:1033800004E0034A12688243014B1A607047000050
:1033900024380240F0B50021002200240225002636
:1033A0000223324F3F6807F00C0121B1042905D0F8
:1033B000082937D105E02E4F076036E02D4F076012
:1033C00033E02A4F3F1F3F68C7F38056274F3F1F08
:1033D0003F6807F03F036EB1264FB7FBF3F7DFF806
:1033E0008CC0ACF1040CDCF800C0CCF3881C07FBEB
:1033F0000CF40CE01E4FB7FBF3F7DFF870C0ACF134
:10340000040CDCF800C0CCF3881C07FB0CF4174F4D
:103410003F1F3F68C7F301477F1C7D00B4FBF5F7F2
:10342000076002E0124F076000BF00BF0F4F3F6808
:1034300007F0F0010909104F7A5C0768D740476030
:103440000A4F3F6807F4E051890A0B4F7A5C4768DE
:10345000D7408760054F3F6807F46041490B064F2E
:103460007A5C4768D740C760F0BD0000083802406A
:103470000024F400001BB700FC0000200168491C78
:103480000160D0E9001291420ADA90ED000AF8EEEC
:10349000C00A90ED010AB8EEC01A80EE810A7047AA
:1034A000B7EE000AFBE770470146D1E900029042FF
:1034B00001DA002070470120FCE70021016070471D
:1034C000016070474160704710B50446FEF712FC7A
:1034D000B8B3B4F90200A0F5806000EE100AB8EEAF
:1034E000C00AF7EE000A20EE200ABDEEC00A10EE78
:1034F000100A00B268490880B4F90000A0F58060A5
:1035000000EE100AB8EEC00AF7EE000A20EE200A1C
:10351000BDEEC00A10EE100A00B24880B4F90400F3
:10352000A0F5806000EE100AB8EEC00AF7EE000ABF
:1035300020EE200ABDEEC00A10EE100A00B2C880CC
:1035400004E0FFE70020544908804880FEF7D2FBE2
:10355000022842D1514890ED000AB4F90600A0F5C6
:10356000806000EE900AF8EEE00A9FED4D1A00EE42
:10357000810A4A4880ED000A4A48007A02286DD044
:10358000494890ED100ADFED490AB4EEE00AF1EE89
:1035900010FA23DDB4F90400A0F5806000EE100AF3
:1035A000B8EEC00ADFED3E0A20EE200AB5EEC00AF2
:1035B000F1EE10FA52DD394890ED010AB4F9040039
:1035C000A0F5806000EE900AF8EEE00A9FED341A54
:1035D00000EE810A314880ED010A3FE0324890ED6B
:1035E000100ADFED330AB4EEE00AF1EE10FA23D24E
:1035F000B4F90400A0F5806000EE100AB8EEC00A2D
:10360000DFED270A20EE200AB5EEC00AF1EE10FA2F
:1036100024D2224890ED010AB4F90400A0F580609C
:1036200000EE900AF8EEE00A9FED1D1A00EE810A06
:103630001A4880ED010A11E0184890ED010AB4F92A
:103640000400A0F5806000EE900AF8EEE00A9FED1D
:10365000141A00EE810A114880ED010AB4F906003F
:10366000A0F5806000EE100AB8EEC00A0B4880EDAD
:10367000040AB4F90400A0F5806000EE100AB8EE68
:10368000C00A064880ED050AFEF73AFB217A094890
:1036900000F086F810BD00003C0600200C0C002055
:1036A0006F12833BF40B0020B00A00200000704230
:1036B000000070C2240C002010B5044604B910BDEF
:1036C0002078617840EA0120C0F30A00334908807D
:1036D0006078C010A17840EA4110C0F30A002F4979
:1036E0004880A0788011E17840EA8100217940EAA1
:1036F0008120C0F30A00294988802079401061792F
:1037000040EAC110C0F30A002449C8806079001162
:10371000800808726079C0F301104872A079E179DD
:1037200040EA012000B21D494881207A617A40EACE
:10373000012001B219488181A07AE17A40EA012092
:1037400001B21648C181217B8174617BC174A07B69
:1037500012498882207C617C40EA0120C0F30A0083
:103760000E49C882084600F067F9FEF7BFF9012844
:1037700004D002280DD003280CD103E00748FFF73E
:10378000A3FE07E005491431A1F10A00FFF72CF967
:1037900000E000BF00BF00BF91E70000F40B002075
:1037A00070B504460D4629462046FEF765FA3748AF
:1037B000007820B101280FD0022865D146E060785A
:1037C0000D2808D1002000F04BF931488169884765
:1037D00001202E49087057E060780D280FD1002095
:1037E00000F03EF94FF47A702A490860091D08601C
:1037F00000202649087026488169884725E024482A
:1038000001698847DFED240A9FED241A41EE000A82
:10381000BCEEE00A10EE100A1E4908601C4801695F
:103820008847DFED1D0A9FED1D1A41EE000ABCEE30
:10383000E00A10EE100A1749091D08601448016AD1
:10384000884710B10220114908701DE060780D28EA
:103850000FD100200D4908704FF47A700D490860AF
:10386000091D08600A4881698847002000F0F8F8BF
:1038700009E02078022803D1012000F0F1F802E0ED
:10388000002000F0EDF800BF00BF70BD440600202E
:1038900048060020340C004000007A440000164422
:1038A00000B587B001212020FFF724FD0121080584
:1038B000FFF750FD4FF46070059002208DF818005E
:1038C00000208DF81A0003208DF8190000208DF8D3
:1038D0001B0005A91B48FEF791F80522072119488E
:1038E000FEF7D4F8052208211648FEF7CFF8052286
:1038F00009211448FEF7CAF80020ADF800004FF483
:103900008270ADF802000020ADF80400ADF80600AA
:10391000ADF808004FF40070ADF80A003820ADF89B
:103920000C000020ADF80E000A20ADF8100069462A
:10393000054800F041F80121034800F023F807B0E2
:1039400000BD0000001402400050014010B50446C4
:1039500000BF02210A4800F021F80028F9D02146D2
:10396000074800F027F800BF0121054800F016F8CD
:103970000028F9D0024800F01AF8C0B210BD0000CB
:103980000050014021B1028842F04002028004E070
:1039900002884FF6BF731A4002807047024600202B
:1039A00013890B400BB1012000E000207047014655
:1039B000888970478181704710B50022028802F41F
:1039C00041520B884C8823438C882343CC88234363
:1039D0000C8923434C8923438C892343CC8923437B
:1039E0001A430280838B4FF2FF74234083830B8A38
:1039F000038210BD7047000030B500228B071C0FFA
:103A00000F2303FA04F20B4B8C1053F8243093432A
:103A1000084C8D1044F8253023468C1053F8243080
:103A20008C07240F00FA04F42343024C8D1044F851
:103A3000253030BD08380140417A012902D1074ABA
:103A400011700AE0417A032902D1044A117004E09E
:103A5000417A022901D1014A1170704746060020BF
:103A60000149087070470000450600200CB5002091
:103A7000019000903448006840F48030324908607A
:103A800000BF3148006800F4003000900198401CED
:103A90000190009818B90198B0F5A04FF1D12A48CB
:103AA000006800F4003010B10120009001E0002017
:103AB00000900098012846D123484030006840F02B
:103AC00080502149403108602048006840F440405F
:103AD0001E4908601C48083000681B49083108600E
:103AE0000846006840F4004008600846006840F45A
:103AF000A05008601648091F0860081F006840F0C1
:103B00008070091F086000BF0F48006800F0007057
:103B10000028F9D040F205600E4908600A480830D4
:103B2000006820F003000849083108600846006872
:103B300040F00200086000BF03480830006800F051
:103B40000C000828F8D10CBD00380240007000407D
:103B50000C544007003C0240F0B585B007460C46C7
:103B600015461E4640F2FF10009000208DF8080018
:103B70008DF8090008208DF80A00200A8DF80B0046
:103B8000E1B28DF80C10290A8DF80D10E9B28DF80C
:103B90000E10310A8DF80F10F1B28DF810100021BF
:103BA0008DF811108DF8121069463846FDF721FC8A
:103BB00005B0F0BD70B586B006460C4615464FF40C
:103BC0000070019000208DF80C008DF80D00082089
:103BD0008DF80E00200A8DF80F008DF81040290A8C
:103BE0008DF811108DF8125000218DF813108DF8FA
:103BF00014108DF815108DF8161001A93046FDF738
:103C0000F8FB06B070BD70B586B006460C4615468A
:103C100040F2FF10019000208DF80C008DF80D008F
:103C200008208DF80E00200A8DF80F008DF8104046
:103C3000290A8DF811108DF8125000218DF81310FB
:103C40008DF814108DF815108DF8161001A9304656
:103C5000FDF7CFFB06B070BD10B51548006840F405
:103C60007000134908601348006840F001001149D2
:103C7000086000200F49083108600E4800680E49AE
:103C800008400C4908600D48091D0860081F0068BD
:103C900020F48020091F0860002006490C310860CC
:103CA000FFF7E4FE4FF0006001498039086010BD65
:103CB00088ED00E000380240FFFFF6FE10300024DF
:103CC0000EB501210846FFF725FB4FF0FF300190AC
:103CD000A720ADF800000020ADF80200ADF8080004
:103CE0000121880700F0EEF869464FF0804000F0AF
:103CF000C1F90121880700F0F7F80EBD10B50121C8
:103D0000880700F0FDF838B10121880700F0E9F8D4
:103D10000121880700F0E2F810BD000010B5012174
:103D2000404800F0EDF800287AD000F033FF3E481C
:103D30000078E8B33D4890ED000ADFED3D0AB4EEAF
:103D4000E00AF1EE10FA03DD9FED390A80ED000A7A
:103D5000364890ED000ADFED370AB4EEE00AF1EEE6
:103D600010FA03D29FED330A80ED000A324890ED3D
:103D7000000ADFED320AB4EEE00AF1EE10FA03DDDC
:103D80009FED2E0A80ED000A2B4890ED000ADFED32
:103D9000280AB4EEE00AF1EE10FA03D29FED240AED
:103DA00080ED000A264890ED060AF0EE401A00E089
:103DB00011E090ED050AB0EE401A2248D0ED002A3D
:103DC000214890ED002A1948D0ED000A1A4890EDDC
:103DD000000AFDF7EBFF14480078B0B9184890EDE1
:103DE000060AF0EE401A90ED050AB0EE401A1548AA
:103DF000D0ED002A144890ED002A1448D0ED000AB6
:103E0000134890ED000AFDF7D1FF022000F079FE83
:103E10000121044800F065F80121024800F05EF835
:103E200010BD000000080040440000203C000020BD
:103E300000005C4300000243400000200000824379
:103E40006C0900207800002074000020CC010020C4
:103E5000C80100201FB501211020FFF75BFA3620B2
:103E60008DF8000001208DF8010000208DF802007F
:103E700001208DF803006846FEF72CFF40F2E73082
:103E800002905320ADF804000020ADF80600ADF814
:103E90000C0001A9014800F0EDF81FBD0010004022
:103EA00010B50121064800F02BF838B10121044873
:103EB00000F017F80121024800F010F810BD0000D2
:103EC0000010004021B1028842F08002028004E02C
:103ED00002884FF67F731A4002807047CA430282FD
:103EE0007047CA430282704721B1028842F0010242
:103EF000028004E002884FF6FE731A400280704789
:103F000030B50246002000230024158A05EA01038B
:103F1000958905EA010413B10CB1012000E00020ED
:103F200030BD000070B5002400220023058C4FF640
:103F3000FE7635400584028C8388048B4FF68F759E
:103F40002C40B51E2C400D882C43751E2A408D89AF
:103F50002A434D882A43104DA84202D00F4DA84253
:103F600013D14FF6F7752A40CD892A434FF6FB75DA
:103F70002A408D882A434FF6FF652B404FF6FF55A8
:103F80002B400D8A2B434D8A2B43838004838D68FD
:103F90004563028470BD0000000001400004014040
:103FA0000A460021018B4FF6F77319401143018334
:103FB0007047000070B5002400220023058C4FF6E6
:103FC000EF7635400584028C8388048B48F6FF75B4
:103FD0002C404FF6FF452C400D884FF6FF7606EA41
:103FE00005252C434FF6DF752A408D8906EA051515
:103FF0002A434D8806EA05152A43154DA84202D0EA
:10400000144DA8421DD14FF67F752A40CD894FF639
:10401000FF7606EA05152A434FF6BF752A408D88BC
:1040200006EA05152A434FF6FF352B404FF2FF7580
:104030002B400D8A06EA85052B434D8A06EA850545
:104040002B43838004838D688563028470BD0000E8
:1040500000000140000401400A460021018B4FF29C
:10406000FF7319404FF6FF7303EA022319430183DC
:104070007047000000220288184B98420ED0184B5F
:1040800098420BD0B0F1804F08D0164B984205D023
:10409000154B984202D0154B984204D14FF68F73BE
:1040A0001A404B881A43124B984207D0114B984242
:1040B00004D04FF6FF431A400B891A4302804B6825
:1040C000C3620B880385054B984202D0044B98428B
:1040D00001D18B7A0386012383827047000001405F
:1040E000000401400004004000080040000C0040B3
:1040F000001000400014004000B597B001210220DC
:10410000FFF7F8F801218805FFF7F4F801211020E6
:10411000FFF720F9072211464248FDF7B7FC15A822
:10412000FDF7DBFC8020159002208DF85800002060
:104130008DF8590001208DF85B0015A93948FDF76D
:104140005DFC394800F0E0FA11A800F0F6FB3748B2
:1041500011900020ADF84800ADF84A004FF480609F
:10416000ADF84C000420ADF84E000020ADF8500032
:1041700011A92D4800F072FB012240212A4800F0CD
:10418000BAFA2B48FDF7DCF901A8FDF7D7FA4FF092
:10419000006001902448001D0290264803900020F2
:1041A00004901E200590002006904FF48060079038
:1041B0000020089009904FF480700A9000020B9044
:1041C00000200C900D900E900F9001A91848FDF75B
:1041D00089FA002217491E311548FDF768FA0121B6
:1041E0001348FDF759FA01211148FDF79EF92520E2
:1041F0008DF8400000208DF841008DF8420001202C
:104200008DF8430010A8FEF765FD012240F224411D
:10421000054800F0FDFA0121034800F060FA17B0EC
:1042200000BD00000004024000100140A086010013
:1042300040640240B007002010B540F224412E48EF
:1042400000F0BCFA002855D02B4800882A48808806
:104250002A48FDF73CFA30BB00212848FDF765F9F4
:104260002648FDF730FAC0F11E00254908601E20DF
:104270002249091D0860081F006840F40020091F3A
:10428000086001211D48FDF750F91D4800681228FB
:1042900030D11C48FFF710FA0020FDF72DFC044632
:1042A000FEF760FA26E000211448FDF73EF91348B6
:1042B000FDF709FAC0F11E00114908601E200F49E0
:1042C000091D0860081F006820F40020091F08600D
:1042D00001210A48FDF729F909480068122809D187
:1042E00008481E30FFF7E8F90020FDF705FC0446FA
:1042F000FEF738FA10BD0000001001404064024093
:104300004C000020B007002000B597B00121082024
:10431000FEF7F0FF01214804FEF7FCFF01214805EC
:10432000FEF7E8FF072205213F48FDF7AFFB072214
:1043300006213D48FDF7AAFB6020159002208DF86C
:1043400058008DF8590000208DF85A008DF85B0058
:1043500015A93548FDF752FB4FF4E13011900020CC
:10436000ADF84800ADF84A00ADF84C00ADF850008B
:104370000C20ADF84E0011A92C4800F06FFA262051
:104380008DF8400002208DF841008DF84200012098
:104390008DF8430010A8FEF79DFC01224021234820
:1043A00000F0A9F92248FDF7CBF801A8FDF7C6F9FE
:1043B0004FF0006001901D48001D02901D480390C1
:1043C0000020049012200590002006904FF4806099
:1043D00007900020089009904FF480700A90000226
:1043E0000B9000200C900D900E900F9001A910489A
:1043F000FDF778F900220F4912310D48FDF757F902
:1044000001210B48FDF748F901210948FDF78DF816
:104410000121064800F063F9012240F224410348DB
:1044200000F0F6F917B000BD000C02400044004057
:1044300088600240FC07002010B52E480068401C30
:104440002C49086040F224412B4800F0B7F90028BD
:104450004FD0294800882848001D00882748FDF7CC
:1044600036F9002845D100212448FDF75EF823489D
:10447000FDF729F9C0F112002149086012201F49F7
:10448000091D08601D488838D0F8880040F40020D5
:10449000091F086001211948FDF747F8184800680E
:1044A000092803D11748FEF761F922E000211348DB
:1044B000FDF73BF81148FDF706F9C0F1120010496D
:1044C000086012200D49091D08600C488838D0F892
:1044D000880020F40020091F086001210748FDF72B
:1044E00024F807480068092803D106481230FEF76F
:1044F0003DF910BDEC0000200044004088600240FF
:10450000F8000020FC07002000B587B0012108203A
:10451000FEF7F0FE01218804FEF7FCFE07220821C9
:104520002248FDF7B3FA072209212048FDF7AEFA29
:104530004FF44070059002208DF818008DF8190096
:1045400000208DF81A008DF81B0005A91748FDF70B
:1045500055FA4FF4E13001900020ADF80800ADF8B5
:104560000A00ADF80C00ADF810000C20ADF80E00FC
:1045700001A90F4800F072F901210D4800F0AFF8D1
:10458000012240F225510A4800F042F927208DF817
:10459000000003208DF801008DF8020001208DF845
:1045A00003006846FEF796FB07B000BD000C024012
:1045B0000048004010B53E48008800F0080020B1D7
:1045C0004FF458713A4800F081F840F225513848CC
:1045D00000F0F4F800286AD036480068401C3549DD
:1045E0000860334800F0A4F9C4B23348007848B9F1
:1045F000B52C01D0002002E02F480078401C2E4945
:10460000087054E02C480078012808D10CB1002033
:1046100002E029480078401C2749087047E02648F6
:104620000078022815D1012C08D1012023490870F7
:1046300021480078401C2049087038E0022C36D10F
:1046400001201F4908701C480078401C1A49087056
:104650002DE019480078022829DD1848007888B133
:1046600015480078C01E17490C5413480078401CA8
:104670001149087008460078062803DD00200870FC
:104680000E4908700E48007888B10B480078C01EAB
:104690000D490C5408480078401C0749087008462A
:1046A0000078042803DD002008700549087010BD5B
:1046B00000480040580000205C0000205600002008
:1046C00057000020500000205400002001F4007228
:1046D000B2F5007F00D100BFCA430280704721B10C
:1046E000828942F40052828104E082894DF6FF7390
:1046F0001A40828170471AB1838A0B43838202E099
:10470000838A8B438382704710B5044625488442D0
:1047100008D101211020FEF72DFE00211020FEF708
:1047200029FE3EE02048844209D101214804FEF7D9
:1047300001FE00214FF40030FEF7FCFD31E01B4884
:10474000844209D101218804FEF7F4FD00214FF4D1
:104750008020FEF7EFFD24E01548844209D10121B5
:10476000C804FEF7E7FD00214FF40020FEF7E2FD4C
:1047700017E01048844209D101210805FEF7DAFD4F
:1047800000214FF48010FEF7D5FD0AE00A4884426C
:1047900007D101212020FEF7EDFD00212020FEF7AA
:1047A000E9FD10BD001001400044004000480040F9
:1047B000004C0040005000400014014070B502461B
:1047C000002400230025002040F66A16B14200D1E3
:1047D00000BFC1F3421501F01F03012606FA03F3DF
:1047E000012D02D19689334006E0022D02D1168AAE
:1047F000334001E0968A33400C12012606FA04F495
:104800001688344013B10CB1012000E0002070BDC7
:10481000F0B50346002400260025002040F66A1764
:10482000B94200D100BF1846C1F3421401F01F067F
:10483000012707FA06F5012C01D10C3004E0022C07
:1048400001D1103000E014301AB107682F4307601F
:1048500002E00768AF430760F0BD00002DE9FF47A5
:1048600005460E460024A14600BFA046B08900B10F
:1048700000BF2C8A24F44054F08804432C82AC8975
:1048800041F20C608443B088318908437189084340
:104890000443AC81AC8A24F44074B0890443AC82F4
:1048A0006846FEF777FD2048854202D01F488542C2
:1048B00002D1DDF80C9001E0DDF80890A88900F441
:1048C000004040B109EBC90000EB09103168490014
:1048D000B0FBF1F707E009EBC90000EB0910316804
:1048E0008900B0FBF1F76420B7FBF0F00401200968
:1048F000642101FB1078A88900F4004040B1322007
:1049000000EBC800B0FBF1F000F00700044308E042
:10491000322000EB08106421B0FBF1F000F00F0032
:1049200004432C81BDE8FF870010014000140140C2
:1049300001468888C0F3080070474FF416510160A3
:1049400000218180C18001810C2141810021818170
:10495000704700BFFEE7000071EE401A4B4991ED31
:10496000002A71EE821AC1ED001AD1ED001A9FEDF6
:10497000482AF4EEC21AF1EE10FA04DDDFED441A13
:10498000C1ED001A0DE04149D1ED001A9FED412A19
:10499000F4EEC21AF1EE10FA03D2DFED3E1AC1EDC9
:1049A000001A3D49D1ED001A71EE611A3B49C1ED83
:1049B000001A71EE401A3A4991ED002A61EE821A0E
:1049C000384991ED002A3149D1ED002A42EE221AF0
:1049D000354991ED002A3149D1ED002A42EE221AE3
:1049E0003249C1ED001A2C4981ED001A2F49D1ED51
:1049F000001AB0EE0C2A40EE821A2D4991ED002AE1
:104A000061EE821A2B49C1ED001A2B49D1ED001A33
:104A100070EEE11A294991ED002A61EE821A2849C7
:104A2000C1ED001A2349D1ED001A254991ED002A64
:104A300071EE821A2349C1ED001A1F49C1ED000A27
:104A40002049D1ED001A9FED202AF4EEC21AF1EEB2
:104A500010FA03DBDFED1C1AC1ED001A1949D1ED84
:104A6000001A9FED1A2AF4EEC21AF1EE10FA03D8DA
:104A7000DFED161AC1ED001A1249D1ED001AFDEE54
:104A8000E11A11EE901A08B2704700005C0700208E
:104A900000007A4400007AC4600700206407002008
:104AA0006C070020700700207407002068070020B2
:104AB000840700207C0700208C0700208807002046
:104AC000800700209007002000C0DA4600C0DAC648
:104AD0002DED020B019820F0004001909DED000BA0
:104AE00002B0704702E008C8121F08C1002AFAD1BC
:104AF00070477047002001E001C1121F002AFBD15E
:104B0000704710B5002107E04AF2104200BF131EA3
:104B1000A2F10102FBD1491C8142F5D310BD000076
:104B200000BFFBF768FE4FF4487016490860091D86
:104B3000086040F6B830FFF7E4FFFDF74DFEFDF7E3
:104B4000FFF9FDF7B3FA20210F48FCF7C4FF082155
:104B50000E48FCF7C0FF13E000F01CF80C4800887A
:104B6000EB280DD00A480088B0F5AA7F08DA08487B
:104B70000088B0F5A07F03DD40F2A460FCF7E2FE00
:104B8000EAE70000340C004000100240001C024024
:104B9000E200002010B588B02F48C07C2E49897CE7
:104BA0002D4AB2F90A202C4BB3F90C30CDE903326F
:104BB000CDE905104FF496712748808ACDE90001B0
:104BC000254C0291E488A3B2234CA488A2B2224CC3
:104BD0006488A1B2204C2488A0B2FDF7C3FB1F4912
:104BE00008701F480088A0F580601E4908601C48B6
:104BF000C088A0F580601C49086019488088A0F52D
:104C000080601A49086016484088A0F580601849FD
:104C10000860114890F90800164908600E4890F99C
:104C20000900154908600C48C08AA0F58060134946
:104C300008600F48006838B14FF42F60FDF7EEF8B8
:104C40000F48FDF733F905E00020FDF7E7F80020F5
:104C5000FDF72CF908B010BDF40B0020E80100208E
:104C6000E80B00209C01002098010020A0010020FA
:104C7000A4010020A8010020AC010020B001002008
:104C800010F5FFFF6B806B036C001A031B101C01F7
:104C90001D026A203702380100000000BC4C0008E9
:104CA00000000020B0070000A0070008C84D000861
:104CB000B0070020900E0000F44A0008011C031405
:104CC000E80323404123803F23A0402336431A704A
:104CD0000409162C018432EB0219872D010203040A
:104CE00004E50607080929E401680242FF248084DC
:104CF000431A3E04B18C409FC0E9011C2790410A31
:104D0000D7233CD3C84124209945137A448C80BBD7
:104D10004410A113612D1408392E02160837C04023
:104D20006F12833A09495427404117B7D1380A49CD
:104D3000705403150442093B540B238040540B2F3D
:104D4000409C54FDCDCC4C3E547CC05A45540CFD87
:104D500060EA465409CD541162413A405CA11A7A86
:104D60004C23484353C8420C22B09A455413A734ED
:104D70001B087D041AC1041ABB041AC5041AA9042D
:104D8000092924021201C9130941640923240B28AB
:104D9000D007040310FFFF637042234844032E2012
:104DA000408F8C42CDCC4C3D44811AC048031A2020
:104DB000411AA0380A11CC381AA034290401182F3E
:084DC000404017B7D1383C0058
:040000050800018965
:00000001FF
